:020000040000FA
:0600000002139F020852EA
:03002B000210EDD3
:03003300020F8930
:0300530002078120
:100083000207E301010000000000F8FF07FFFF0083
:10009300000504000000030001FFFFFFFF00141030
:1000A3002700000020FD000206FFFF1E010A143294
:1000B30064B30200760120172617501D00000000CC
:1000C300000000000000000000000000000000002D
:1000D300000000000000000000000000000000001D
:1000E300000000000000FF0104010C000207F4807F
:1000F300051B810204010C0002019982019D82010A
:100103000400002B14000000E8030000FFFF7C1430
:100113000188130000E803000064006400B801A034
:10012300BB0D00A0BB0D00020202070401071E0263
:10013300051E020A0A010108080103B80B02803EEA
:100143000102FEFFE8030A050001FFFF020A011492
:1001530001E00100B0423BAAB83F0000003F8C9091
:100163006339AA0CA33A00941E3C8042633DCFFE40
:10017300753E1572313F0000803FF304353F809692
:10018300184B000080BF2292D43EDD9B2A3F04001F
:100193000040FFFF7F7FFFFF7FFF01008034187265
:1001A300313F050301010F030003000300030003B4
:1001B30000030003000300030005000A00140028E5
:1001C300004F009E000000532F00000000272E0068
:1001D300000000FF000000FF001213CD6046121361
:1001E300EB603DE9687008F618F618F618F6227405
:1001F3008067F7120210090909748067F722121346
:10020300EB601D1213CD7005191919801A12127A99
:10021300701F12128EC37003E66733191919400752
:100223001818182208080874FFF618F618F618F6B6
:100233002212128E6017121459702192F012146256
:100243007019501720F014080808090909E7F6186F
:1002530019E7F61819E7F61819E7F622121462607F
:10026300E6E869701F0808E62480F608E436F61805
:10027300547FB47F0CE654806007F6E418F618F652
:1002830022181822E9C6CC08C6CD08C6CE08C6CFA8
:10029300C0E0E8C0E0EAC0E0EBC0E009E9F809E744
:1002A300FA09E7FBE6F918E6F8C3EC98ED99EE9A3C
:1002B300EBC2E7F5F0EFC2E795F0500E600CEBCF21
:1002C300FBEACEFAE9CDF9E8CCF8EAA2E7D2E7FAFD
:1002D300EB33FB13F5F0EEA2E7D2E7FEEF33FFC5F6
:1002E300F013A2E730E601B313C5F0C3C0E0C0F0DA
:1002F3007F00C39BFB605E9418600F401D14601A5F
:10030300D0E023F9D0E0F80203E28AF0E948600381
:10031300D2F0E4AFF0FAF9F8803BEB30E40D89F06A
:10032300EA6003D2F0E4AFF0F9CAF8EB30E30D88EA
:10033300F0EF6002D2F0AFF0E4CAC9F8EB54076003
:1003430014FBC3EA13FAE913F9E813F8EF135002A5
:10035300D2E0FFDBEDD0E0C0E030E739C3E49FFF3C
:10036300F5F0EC98FC42F0ED99FD42F0EE9AFE4276
:10037300F0D0E0F9D0E0F8E5F0607AE923F9EE2077
:10038300E742D8028067C3EF33FFEC33FCED33FD64
:10039300EE33FE80EAEC28FCED39FDEE3AFED0E0C8
:1003A30023F9D0E0F84002801BC3EE13FEED13FDEA
:1003B300EC13FCEF135002D2E0FF08B800067F7F76
:1003C30074FF802EEF3350178CF020F00260100C76
:1003D300BC000C0DBD00080EBE000408E860DFE998
:1003E30033E813FFEE2313FE4F4D4C8008E954808E
:1003F300FFE4FEFDFCEE33EF33F47004FCFD7E807E
:10040300D0E0FBD0E0FAD0E0F8D0E0CFC618CEC6FB
:1004130018CDC618CCC6F9221213EB70041818189D
:10042300221213CD700D74FFF61819F61819F61869
:1004330019F622E7548066F6121462700F121459EB
:1004430070F014F608F608F608F680D11214597005
:100453000CF608F608768008E6447F80EC121291C9
:10046300700C12127D60BFE65480F6E480BB12125A
:100473007D700519191980A5E869700C763F187607
:100483008018F618F6E8F922E6CDC0E018ECC0E0D3
:10049300E633CD33CDD313F6E719FCE7191933CC83
:1004A30033C3947F400ECD9D502408E65480F6E478
:1004B30018F6800FF4043D14501408E6447FF61830
:1004C3007680E418F618F6D0E0FCD0E0FD22CCD319
:1004D30013CCFD18E4C6CBC0E018E4C6CAC0E008DC
:1004E30008ED08C633E613F618E433C675F003C304
:1004F300CA97CA09CB97CB199C40047D08802EBDAF
:1005030000030205C416B6FF050606081618C3CA7B
:1005130033CACB33CB33CA27CA09CB37CB193CC336
:100523007D08803E187D0820E75CC633C6CA33CAFF
:10053300CB33CB33DDF1D5F0EB30E77BCA97CA0978
:10054300CB974ACB199C406F4B7025E620E0218066
:1005530066187D08C3CA97CA09CB97CB199CD3C623
:1005630033C6CA33CACB33CB3350C9DDE7D5F0E149
:10057300D3E4C636C608C636C608C636C608C63667
:10058300C61818188031C3CA97CA09CB97CB199CD0
:10059300B34097C633C6CA33CACB33CB33DD34D566
:1005A300F02EC6A2E0C640C8CA27CA09CB37194AEB
:1005B30070BECB3CB480B90808E63308E633601F4D
:1005C300181818D0E0FAD0E0FBD0E0FCD0E0FD2210
:1005D300187D08CA27CA09CB37CB193CD3808013AF
:1005E300F618E4B67F11F618B6FF0EF618C60470B7
:1005F300D20808768080CAF618F618F680C500126D
:1006030013EB604F1213CD6012E7548066F612129B
:100613007A7011121459703B090909F4F618F61887
:10062300F618F62212128E7015121462080808606A
:10063300EAE6447FF618768018E4F618F6221214D8
:100643006260161214597012E4F608F608F608E60A
:100653005480F609090918181822EAC0E0EBC0E033
:10066300ECC0E0EDC0E0E687F0A4FBACF008E68761
:10067300F0A42CFCE435F0FA1809E687F0A42C4B1F
:1006830060027401CA35F0FCE433FB09E687F0D25B
:10069300F7A42CCB35F0FC1908E687F0A42BCC3556
:1006A300F0FBE433FD0819E687F0D2E7A42C4ACB2C
:1006B30035F0CD3400FC09E687F0D2E7A42DCC3524
:1006C300F0FDE433FA0918E687F0D2F7A42CCD3510
:1006D300F0CA3400FC08E687F0D2E7D2F7A42ACCAC
:1006E30035F07A7E20E70B0ACB33CBCD33CDCC3339
:1006F300CC33CB3350147004ED30E00ED2F1E4CDA3
:100703003DCDCC3CCC3B5005DA05C2F1EB547FC662
:100713003308E63392F0FBE73309E733C39A502DEE
:100723002B70190C0D4C4D70151806E608C3337069
:100733000D20F10AA2F013F6E418800B4024E4F62E
:1007430030F002768018F618F618F68024D33B149E
:10075300501074FFA2F013F6187680E418F618F61A
:10076300800FA2F013F618E63303F618ECF618ED33
:10077300F6D0E0FDD0E0FCD0E0FBD0E0FA22C0E010
:1007830074F1120BEDA2AFE433F509D2AF85A708DC
:10079300AFA1EF5508FE74105E60061217E675A14F
:1007A300EF74085E60081217EC75A1F78024EFA2BE
:1007B300E092F0E508A2E082F05017906198E0F82B
:1007C30090060DE0C398A2D265D0335002E8F075CD
:1007D300A1FE752300E509A2E092AF7F02020C4C53
:1007E300C0E074F2120BEDA2AFE433FED2AF90611E
:1007F300A4E0F8759B00E59158540860087591F7DB
:1008030012183A8023E59158541060087591EF123D
:1008130018408014E591A2E092F0E8A2E082F05043
:1008230007E0C2E0F01219969061A3E0F8E5E958F9
:100833005404600E12196C75E9FB906193E0A2E613
:1008430040F2752300EEA2E092AF7F01020C4CC090
:10085300E074F2120BEDA2AFE433FED2AF9061A5C8
:10086300E0F8E5BF585404600675BFFB1219AE806B
:10087300D11208C930F04312090E803E8A088B0951
:100883008C0A8D0B78081208C920F01430E72B74FA
:10089300FFFCFBFA747F8022E4FCFBFA7480801A6D
:1008A300B48008BC00F2BB00EF800F50EBF9E4C347
:1008B3009AFAE49BFBE49CFCE499C6CC18C6CB18DB
:1008C300C6CA18C6F922E4C9C608CAC608CBC6D325
:1008D300330308CCC63392F0C3947F402E94184060
:1008E30019C9B90704CACBCC225025C309CA33CAD4
:1008F300CB33CBCC33CC33D9F422F4600DC9CCC386
:1009030013CB13CBCA13CAD9F6CC22E4FCFBFA22CD
:1009130014FCFBFA22C3E498F8E499F9120959800C
:1009230026C3E49AFAE49BFBE920E7E9120959E4B8
:1009330098F8E499F922C3E498F8E499F91209596B
:10094300E498F8E499F9C3E49AFAE49BFB22EB20D8
:10095300E7CFE920E7E0B90010BB0008E88AF0849C
:10096300F8AAF022E4FBC8FA22EB70227B10C8330A
:10097300C8C933C9335007C39AC3DBF280069A5000
:10098300012ADBEAC833F4C8C933F4C9FA2275F083
:1009930008E4C833C8C933C933C99AC99B5004C9C9
:1009A3002AC93BD5F0ECFBC833F4C8E4C9FA2208E2
:1009B3000808EAC0E0EBC0E086F0E7A4FA1809866D
:1009C300F0E7A42AFA180986F0E7A42AFA18098698
:1009D300F0E7A42AFA1986F0E7A4FBE5F02AFA194E
:1009E3000886F0E7A42BFBE5F03AFA190886F0E74E
:1009F300A42BFBE5F03AFA18180986F0E7A4C5F032
:100A03002BFBE43AFA1908E7C5F0C6A426F6E5F08D
:100A13003BFBE43AFA1886F0E7A4F6E5F00826F67D
:100A2300E43B08F6E43A08F6D0E0FBD0E0FA22080B
:100A33000808E630E711121252120A4A080808C6DB
:100A43004480C618181822181818E9799EC608CACF
:100A5300C608CBC608CCC6C370207996CACBCC7067
:100A630019798ECBCC70137986CC700EF9802ACA93
:100A730033CACB33CBCC33CC331930E7F2CCCBCA2C
:100A83003350147004EA30E00DE4CA3ACACB3BCBCE
:100A9300CC3CCC500209C3E913C6CC182313C6CBF4
:100AA30018C6CA18C6F922E4CFC0E0E4CEC0E0E419
:100AB300CDC0E0E4CCC0E075F020E626F608E633CE
:100AC300F608E633F608E633F6181818EC33FCEDAF
:100AD30033FDEE33FEEF33FFC3EC9709ED9709EED9
:100AE3009709EF97191919400FFFEC97FC09ED9738
:100AF300FD09EE97FE191906D5F0BFECF709EDF7DE
:100B030009EEF709EFF7191919D0E0FCD0E0FDD091
:100B1300E0FED0E0FF222521C582C0E0E52234FFBC
:100B2300C583C0E0E521C3958224F810AF0885830F
:100B3300228582218008858322858221D2AFCEF04F
:100B4300A3E520F0A37808E608F0A3DEFAEFF0A30C
:100B5300E58124FAF8E608F0A3E608F0A3E608F036
:100B6300A30808E608F0A3E608F0A315811581D0D1
:100B7300E0FED0E0F8158115811581E8C0E0EEC0F4
:100B8300E022121444B90003020BD7E49005017864
:100B93001979138002F0A3D8FCD9FA782390008640
:100BA3007A01BA00028007E493A3F608DAF97A1906
:100BB3007B17900087785679028015E493A3AD8262
:100BC300AE838A828B83F0A3AA82AB838D828E83CA
:100BD300D8E9D9E77582787583EC74041210CF7560
:100BE300828A75832B74001210CFC0D02521C58251
:100BF300C0E0E52234FFC583C0E0E521C39582242C
:100C0300F310AF088583228582218008858322859E
:100C13008221D2AFC8F0A3E9F0A3EAF0A3EBF0A3DB
:100C23007908E709F0A3D8FAECF0A3EDF0A3EEF00E
:100C3300A3EFF0A3D0E0F0A3D0E0F0A3D0E0F0A3C3
:100C4300E520F0A3E5F0F0A322852283852182E04D
:100C5300C0E0A3E0F9A3E0FAA3E0FBA37808E0F681
:100C630008A3DFFAE0FCA3E0FDA3E0FEA3E0FFA3FB
:100C7300E0C0E0A3E0C0E0A3E0F5D0A3E0F520A34B
:100C8300E0A3F5F010AF08858322858221800885D3
:100C93008322858221D2AFD082D083D0E0F8D0E006
:100CA30032121255181818120AAA12134E191919CA
:100CB3002212134E191919080808E618181820E704
:100CC300E0120AAA12125518181822090909E7197D
:100CD300191920E7DC080808E618181820E70302AA
:100CE3000AAA121255181818120AAA12125518181D
:100CF3001812134E191919220475F0108E248F251A
:100D0300858229858328852182852283E0CEA3E0FD
:100D1300CF852982852883EBC9EAC8EDCBECCAC30A
:100D2300E833C8E933C9EA33CAEB33CBC3EA9EF5E8
:100D330027EB9FF526B35004AB26AA27EC33CCED63
:100D430033CDD5F0DAAE24AF25221213EB601C129B
:100D530013CD601712146270071214597001D32255
:100D6300C0D01214597006D0D0B322C32233D0D0CE
:100D7300501430E0F6C3E7960809E7960809E796AA
:100D83000809E796B32220E0D5E6970809E6970815
:100D930009E6970809E697B322D083D082ECC0E036
:100DA300EDC0E0E493A3FCE493A3FDED4C600D12CE
:100DB3000EC0EC24FFFCED34FFFD80EFE493A3FCB5
:100DC300E493A3FDED4C600D120FB4EC24FFFCED96
:100DD30034FFFD80EFD0E0FDD0E0FCE493A3C0E05E
:100DE300E493C0E0221213EB601B1213CD601612C2
:100DF30014627007121459600CB322C0D012145934
:100E03007005D0D022C32233D0D0501330E0EBC3CF
:100E1300E7960809E7960809E7960809E796222066
:100E2300E0E4E6970809E6970809E6970809E697D4
:100E330022D083D082E9C0E0E493A3C386F0C5F057
:100E430095F0F908E493A386F0C5F095F0700BE4F0
:100E530093A3C3994005E9048002A3E475F002A4B7
:100E63002582F582E5F03583F583D0E0F9E493A399
:100E7300C0E0E493C0E022852283852182E0A3FEC3
:100E8300E0A3F5207808E0A3F608DFFAE0A3FFE08B
:100E9300A3C0E0E0A3C0E0E0A3C0E0E0A3C0E0E0C3
:100EA300A3C0E010AF088582218583228008858254
:100EB30021858322D2AFD083D0820210D5C0E0C374
:100EC300E49396087401939618400FE493667008B0
:100ED30008740193661870007019A3A3C3E4939672
:100EE300087401939618A3A3400DD0E0D0E0D0E09E
:100EF300020DD8A3A3A3A3A3A3D0E0227404800468
:100F030074028000CCC0E0EDC0E0E521C39CCCAD11
:100F13002250011D10AF068C218D2280068C218D5D
:100F230022D2AF121051D0E0FDD0E0FC2274028037
:100F330000CCC0E0EDC0E0E521C39CCCAD22500164
:100F43001D10AF068C218D2280068C218D22D2AFFD
:100F530012102FD0E0FDD0E0FC221213EB6025121B
:100F630013CD60201214627003021459080808E7B5
:100F73006670101819E766700A1819E76670041886
:100F830019E76622F422C0E074F2120BEDA2AFE47B
:100F930033FED2AFE58BA2E05005790412173E75FC
:100FA3008B00C2E8752300EEA2E092AF7F01020C32
:100FB3004CC0E0C0F088F0E49366700808740193B5
:100FC30066187000A8F0A3A3700BD0F0D0E0D0E0B7
:100FD300D0E0020DD8A3A3D0F0D0E022D083D082FA
:100FE300CCC0E0E493A360061210721470FAE49389
:100FF300A360061211D41470FAD0E0FCE493A3C0EA
:10100300E0E493C0E022C008C3E096F50808A3E03B
:1010130096420808A3E096420808A3E0964208A275
:10102300D265D033E5087001D3D00822CAC0E0E40A
:1010330093A3C582CCC582C583CDC583F0A3C582E6
:10104300CCC582C583CDC583DAE5D0E0CA22CAC048
:10105300E0E0A3C582CCC582C583CDC583F0A3C51B
:1010630082CCC582C583CDC583DAE6D0E0CA22C06F
:10107300E0E493A3D39C5010E493A3C39C400AD011
:10108300E0D0E0D0E0020FFCA3A3A3D0E0227009DC
:10109300080808226016181818C6C333C608C633D2
:1010A300C608C633C608C633C6D5E0EA22C008C39D
:1010B300E096F50808A3E096420808A3E0964208E4
:1010C30008A3E09645087001D3D00822C09FF59F7E
:1010D300E473D09F22D083D082C09FE493C0E07496
:1010E3000193C0E0740293F59F22C0E0C0D0E8C032
:1010F300E0A8A8D2AFC2C7752300E8A2E792AFD099
:10110300E0F8D0D0D0E0322521F58210AF08F521E8
:10111300400C15228008F52140021522D2AF85220A
:10112300832200C0D0252110AF08F521500C0522E1
:101133008008F52150020522D2AFD0D0227404805A
:101143000A74038006740280027401C0E0F404127E
:10115300110AD0E012140722BB0102E722C082C0A9
:101163008389828A83BB0003E08002E493D083D027
:1011730082226016080808C6C313C618C613C61809
:10118300C613C618C613C6D5E0EA22C3E0C696F650
:1011930008A3E0C696F608A3E0C696F608A3E0C641
:1011A30096F6222521F8E43522F9222521FAE435A1
:1011B30022FB222521FCE43522FD22252110AF0844
:1011C300F521400C15228008F52140021522D2AFEB
:1011D30022C0E0E493A36C7009D0E0D0E0D0E00239
:1011E3000FFCA3A3D0E022C3E7960809E7960809FA
:1011F300E7960809E796A2D265D03322C3E09608A2
:10120300A3E09608A3E09608A3E096A2D265D033A4
:1012130022E76670100809E766700A0809E7667036
:10122300040809E76622E066701008A3E066700A06
:1012330008A3E066700408A3E06622C3E096F00802
:10124300A3E096F008A3E096F008A3E096F0221836
:101253001818E4C396F608E496F608E496F608E44C
:1012630096F622C3E697F60809E697F60809E69785
:10127300F60809E697F622181818E60846087009D2
:10128300E626087005E633F4220822191919E7093E
:1012930047097009E727097005E733F4220922C3D8
:1012A300E493960874019396087402939608740362
:1012B300939622E026F008A3E036F008A3E036F088
:1012C30008A3E036F022700422600D18C6C333C6AB
:1012D30008C633C6D5E0F41822E657F60809E657E0
:1012E300F60809E657F60809E657F622E627F60850
:1012F30009E637F60809E637F60809E637F622E085
:1013030026F608A3E036F608A3E036F608A3E0368F
:10131300F622E056F608A3E056F608A3E056F608D0
:10132300A3E056F622E647F60809E647F60809E67B
:1013330047F60809E647F622E056F008A3E056F020
:1013430008A3E056F008A3E056F022E4C397F70998
:10135300E497F709E497F709E497F722600D08C6C5
:10136300A2E713C618C613C6D5E0F322C6F4C6080F
:10137300C6F4C608C6F4C608C6F4C622C3E0960877
:10138300A3E09608A3E09608A3E09622C3E7960895
:1013930009E7960809E7960809E7962275D00075CC
:1013A300813F75210175220500020B85600C08C67B
:1013B300C313C618C613C6D5E0F422E6F008A3E6A5
:1013C300F008A3E6F008A3E6F022E7094709C313F0
:1013D3004709336002E733F422E0F608A3E0F60896
:1013E300A3E0F608A3E0F622E6084608C31346087E
:1013F300336002E633F422800100E9F874FF28F930
:101403000470F622CAC0E0E6F0A308DAFAD0E0FAE4
:1014130022E0F8A3E0F9A3E0FAA3E0FB22E8F0A3BB
:10142300E9F0A3EAF0A3EBF022EAF0A3EBF0A3ECDC
:10143300F0A3EDF022E0FAA3E0FBA3E0FCA3E0FDC0
:1014430022E5C754F84401F5C77901222521F58225
:10145300E43522F58322E72719471947194722E67E
:101463002618461846184622C2AF75D69F020000BA
:10147300221210D8DFD0021210D830D1021210D8A5
:1014830074D1021210D80ED2021210D87ED20212D8
:1014930010D8ADD2021210D8B3D3021210D8DDD3B4
:1014A300021210D831D4021210D805D5021210D866
:1014B30033D7021210D8E1D7021210D84EDA021233
:1014C30010D8D3DA021210D8D6DD021210D80AE0EF
:1014D300021210D846E0021210D89FE1021210D86F
:1014E300B2E1021210D8EFE1021210D88BE302121C
:1014F30010D83FE5021210D8797E001210D8AD7EC5
:10150300001210D8FB7E001210D8CD7F001210D825
:1015130017EB031210D893EB031210D8C6EB031288
:1015230010D8F4EB031210D832EC031210D86FEE7C
:10153300031210D88EEE031210D8D3EE031210D874
:1015430069EF031210D8B5EF031210D849F0031254
:1015530010D822F1031210D87EF1031210D8DCF157
:10156300031210D84FF2031210D893F2031210D8BB
:10157300EBF2031210D80DF3031210D89DF30312EC
:1015830010D82EF4031210D87AF4031210D8A6F44C
:10159300031210D8E7F4031210D87DF6031210D803
:1015A30069F7031210D844F8031210D887EC01121C
:1015B30010D81BED011210D883ED011210D8A8EE3C
:1015C300011210D832EF011210D8BDEF011210D85A
:1015D300F9EF011210D892F0011210D827F101127D
:1015E30010D8FAF1011210D8DCF3011210D890F4DC
:1015F300011210D886F5011210D825F6011210D861
:101603007AF6011210D8E8F6011210D8F4F9011293
:1016130010D81EFC011210D81FFD011210D85DFE58
:10162300011210D868FE011210D8D9DE041210D8A6
:1016330002DF041210D81DDF041210D842DF041297
:1016430010D8E3DF041210D8FEDF041210D8DCE058
:10165300041210D806E1041210D8F6FF021210D8B3
:1016630060EE041210D8AFEE041210D8FFEE04128D
:1016730010D83AEF041210D840EF041210D868EFD4
:10168300041210D805F0041210D822F0041210D856
:101693002AFE031210D884FE031210D869FF031226
:1016A30010D82DF9041210D83EF9041210D8DCF921
:1016B300041210D8E7F9041210D801FA041210D852
:1016C300FBFF021210D8E6FF031210D810FA04121F
:1016D30010D820FA041210D832FA041210D8E4FAFF
:1016E300041210D83AF6041210D8BEF6041210D819
:1016F30026F7041210D856E1041210D874E104122C
:1017030010D8A9E1041210D8CEE1041210D8F1E1E7
:10171300041210D82CE2041210D859E2041210D883
:10172300A0E2041210D83FE3041210D83FF80412C9
:1017330010D88CF8041210D895F8041210D8BCF8FD
:10174300041210D804F9041210D81BF9041210D88B
:10175300F27F001210D8F57F001210D8F87F001224
:1017630010D86BEA041210D8A3EA041210D8F1EBD4
:10177300041210D875EC041210D81EF9031210D8F5
:101783004AF9031210D8B4FB031210D8F4FB031266
:1017930010D830FC031210D844FC031210D85DFC9F
:1017A300031210D84FFD031210D802FE031210D8F3
:1017B30016FE031210D842F0041210D866F0041279
:1017C30010D87FF0041210D8BDF0041210D8EDF039
:1017D300041210D81AF1041210D824F1041210D8EC
:1017E3008AF1041210D88DF1041210D897F1041263
:1017F30010D8A4F1041210D832DC041210D852DC31
:10180300041210D891DC041210D8AFDC041210D8E3
:10181300CADC041210D830DD041210D83CDD0412E7
:1018230010D899DD041210D8A8DD041210D8CCDD2D
:10183300041210D88DDE041210D89ADE041210D8C8
:10184300ABDE041210D8DFFC041210D827FD0412FB
:1018530010D853FD041210D81FB8041210D879B948
:10186300041210D887B9041210D89AB9041210D8E8
:10187300AFB9041210D8C4B9041210D8D7B90412DE
:1018830010D853BA041210D8B8BA041210D840BBF7
:10189300041210D8B8BB041210D891BC041210D88B
:1018A300A1BC041210D8B0BC041210D846FC041218
:1018B30010D86AFC041210D892FC041210D8BAFC97
:1018C300041210D8C9E3041210D8F0E3041210D89C
:1018D3000EE4041210D87DE4041210D85FD9041268
:1018E30010D878D9041210D884D9041210D898D9F2
:1018F300041210D8B6D9041210D8C0D9041210D8C3
:10190300CAD9041210D8DDD9041210D863DA04122C
:1019130010D8D8DA041210D807DB041210D855DB1C
:10192300041210D8A4DB041210D8BFDB041210D8A1
:10193300C9DB041210D8DADB041210D81DDC041240
:1019430010D834FE041210D87FFE041210D82CA035
:10195300041210D858A0041210D875A0041210D87D
:1019630088A0041210D8A3A0041210D8FDA004125A
:1019730010D82BA1041210D83BA5041210D899A695
:10198300041210D8CBA6041210D82EA7041210D814
:101993009AA8041210D8C2A8041210D8D7A8041207
:1019A30010D8E7A8041210D827A9041210D869A9DF
:1019B300041210D879A9041210D8EEF2041210D828
:1019C30008F3041210D830F3041210D849F30412A8
:1019D30010D86DF3041210D88BF3041210D8A2F3AD
:1019E300041210D8D0F3041210D8EBF3041210D859
:1019F300EAFA041210D82EFB041210D8A3C9041259
:101A030010D8B3C9041210D8B8CA041210D8EACA3D
:101A1300041210D81ACB041210D83DCB041210D8DC
:101A230054CB041210D88ECB041210D8F3CB04126B
:101A330010D835CC041210D87CCC041210D8A9CC01
:101A4300041210D8D4CC041210D8A7FE011210D857
:101A5300B9FE011210D8CDFF011210D8D0FF011228
:101A630010D834F5041210D86AF5041210D882F590
:101A7300041210D8C4F5041210D8D4F5041210D8E7
:101A830018F6041210D822F6041210D8E6B0041285
:101A930010D829B1041210D88EB1041210D8ADB1E8
:101AA300041210D84FB2041210D858B2041210D82E
:101AB300A9B2041210D8D2B2041210D8DFB20412A1
:101AC30010D851B3041210D8DFB3041210D824B4C1
:101AD300041210D85DB4041210D8C2B4041210D882
:101AE300EBB4041210D862B5041210D8B1B50412C5
:101AF30010D8EEB5041210D823B6041210D835B698
:101B0300041210D847B6041210D866B6041210D8BF
:101B13006FB6041210D830B7041210D873B704127A
:101B230010D8B1B7041210D88BFE041210D8AEF13E
:101B3300041210D81EE6041210D854E6041210D86A
:101B43009CE6041210D8F5E7041210D893C60312CA
:101B530010D8B9C7031210D8F5C7031210D8B3C9E8
:101B6300031210D8E1C9031210D84BCC031210D8BA
:101B73008BCC031210D82DCE031210D8C3CE031270
:101B830010D81DCF031210D8ADCF031210D8F1CF48
:101B9300031210D833D0031210D898D1031210D8DF
:101BA30018D3031210D859D5031210D887D50312AE
:101BB30010D8B3D5031210D8BCD5031210D819D638
:101BC300031210D8B2D6031210D8C9D9031210D8F1
:101BD3004FDA031210D89CFB041210D8B4FB041282
:101BE30010D8BEFB041210D814FC041210D85BC129
:101BF300041210D871C1041210D812C2041210D8E2
:101C030051C2041210D86EC2041210D89FC204121B
:101C130010D8ECC2041210D820C3041210D85BC32E
:101C2300041210D858C5041210D8BEC5041210D817
:101C33003FF7041210D89EF7041210D8DCF70412F1
:101C430010D81DF8041210D81EF4041210D8DCF4B6
:101C5300041210D8B9A5021210D8C5A5021210D8C3
:101C630027A6021210D831A6021210D8BEA602125D
:101C730010D8FAA6021210D8F6A7021210D854A848
:101C8300021210D8F4A8021210D874A9021210D8A4
:101C930043AB021210D885AD021210D8CCAE02129B
:101CA30010D809B1021210D871B2021210D81DB3A4
:101CB300021210D80CB8021210D802B9021210D8AE
:101CC3009AB9021210D8BFB9021210D857BA021229
:101CD30010D875BA021210D8ECBA021210D80BBB86
:101CE300021210D838BB021210D8D0BC021210D87E
:101CF300F1BC021210D897BD021210D8DEBD021239
:101D030010D852BE021210D8E0BE021210D83DBF46
:101D1300021210D8B6BF021210D838C1021210D85E
:101D23009CC3021210D825C4021210D853C4021245
:101D330010D8A9A9041210D8FBAB041210D802AD15
:101D4300041210D833AF041210D8A9B0041210D85B
:101D5300C6B0041210D82CCD041210D8EBCD041247
:101D630010D851CE041210D800CF041210D862B18B
:101D7300031210D891B1031210D809B2031210D86C
:101D830018B3031210D874B3031210D8E1B40312BA
:101D930010D8FDB4031210D84FB5031210D892B562
:101DA300031210D8A5B5031210D8FDB5031210D82D
:101DB300BFB6031210D83BB7031210D872B7031281
:101DC30010D8AAB7031210D83CB9031210D81BBA03
:101DD300031210D869BB031210D84CBC031210D8DD
:101DE300D8BC031210D818BD031210D837BD031284
:101DF30010D882BD031210D8A2BD031210D83BBE67
:101E0300031210D8C1BE031210D81CBF031210D87E
:101E13005CBF031210D8F2C1031210D80BC3031214
:101E230010D851C3031210D846C4031210D86EC47D
:101E3300031210D871C4031210D87BC4031210D834
:101E430097C4031210D811C5031210D84AC5031240
:101E530010D876C5031210D89DC5031210D8C1C57A
:101E6300031210D832C6031210D845C6031210D875
:101E730074C6031210D856FD041210D862FD041262
:101E830010D896FD041210D8FDFF011210D8339B11
:101E9300031210D8569B031210D8A39C031210D818
:101EA300EC9C031210D8589D031210D8B69D031250
:101EB30010D8B99D031210D80A9E031210D87F9E22
:101EC300031210D8049F031210D8079F031210D8CF
:101ED300889F031210D8C99F031210D8B5A3031209
:101EE30010D85FA5031210D8AFA5031210D836A9D6
:101EF300031210D869AA031210D8E3AB031210D847
:101F030080AC031210D86BAD031210D85B9F041280
:101F130010D8AEDA031210D858DB031210D8C3DB83
:101F2300031210D8DEDB031210D863DC031210D8BF
:101F3300BDDC031210D804DD031210D86BDD0312CD
:101F430010D8EADE031210D819E0031210D8A1E06A
:101F5300031210D8AAE2031210D857E3031210D8C1
:101F6300FBE3031210D8CCE4031210D887E6031264
:101F730010D81FE8031210D8B2E8031210D8D8E91A
:101F8300031210D80080031210D86380031210D8F4
:101F9300AB80031210D8EF80031210D84A810312CA
:101FA30010D8A781031210D8E281031210D86482DB
:101FB300031210D82ED0021210D83C84031210D86A
:101FC300BC84031210D85ECE021210D831850312DE
:101FD30010D85285031210D8AC85031210D8288864
:101FE300031210D84788031210D83789031210D868
:101FF3006A8A031210D8E98A031210D8258B0312B8
:1020030010D8948B031210D8498C031210D8218E48
:10201300031210D8288F031210D8A090031210D8DF
:102023009692031210D80C95031210D8E696031259
:1020330010D8A797031210D81F98031210D83698F8
:10204300031210D82D99031210D8219A031210D815
:10205300909A031210D897D3041210D8EED4041216
:1020630010D8ADD5041210D815D6041210D872D0DA
:10207300041210D88DD0041210D8D1D0041210D865
:10208300F7D0041210D81ED1041210D836D104127E
:1020930010D8D8D1041210D8EDD1041210D810D30F
:1020A300041210D819D3041210D822D3041210D852
:1020B3002BD3041210D835D3041210D8E1BC041268
:1020C30010D8EDC0041210D8F2C0041210D8F4C016
:1020D300041210D8EDEC041210D8E3FE041210D849
:1020E30089D6041210D8D8FE021210D8CBFD0412E0
:1020F30010D85CE8041210D8BAFF031210D8CBC56D
:10210300041210D80080021210D83380021210D8A3
:102113009F80021210D83A81021210D8D78102127E
:1021230010D81C82021210D83E82021210D8578295
:10213300021210D87D82021210D89F82021210D888
:10214300DD82021210D82183021210D843830212B7
:1021530010D8A583021210D86C84021210D82385DC
:10216300021210D89585021210D86086021210D878
:10217300B386021210D81987021210D8538702129D
:1021830010D8A587021210D81388021210D87E889F
:10219300021210D88188021210D80289021210D8B4
:1021A3009989021210D8198A021210D8388A021299
:1021B30010D89C8B021210D8A98B021210D8B58CA0
:1021C300021210D8C28C021210D8CB8C021210D873
:1021D300A38E021210D8BD8F021210D836900212AD
:1021E30010D8A890021210D8CA90021210D85E918B
:1021F300021210D83293021210D80997021210D883
:102203001D97021210D82D97021210D83797021279
:1022130010D84097021210D84997021210D853973A
:10222300021210D88097021210D8A997021210D860
:10223300B497021210D8D897021210D8FC97021242
:1022430010D86698021210D8AC98021210D8C99808
:10225300021210D84699021210D87D99021210D892
:10226300BC99021210D8099A021210D88F9A02123E
:1022730010D85D9C021210D8E09C021210D8C49DA5
:10228300021210D82BA0021210D884A0021210D868
:10229300CEA0021210D829A2021210D85EA20212F6
:1022A30010D8B0A2021210D865A3021210D814A439
:1022B300021210D851A4021210D8E6A4021210D8A8
:1022C30052A5021210D8BC31001210D8EE31001200
:1022D30010D81C32001210D8F233001210D8D234A6
:1022E300001210D82A35001210D86536001210D803
:1022F300B136001210D8DA39001210D8CD3C0012D2
:1023030010D81D3E001210D8B33E001210D8BF3EA5
:10231300001210D8F13E001210D87440001210D8E9
:102323002542001210D8B942001210D8FC42001204
:1023330010D87A43001210D89743001210D8C7431D
:10234300001210D8FC43001210D8CC44001210D84D
:102353007545001210D8FB47001210D81B49001214
:1023630010D8064A001210D8884A001210D8BC4E62
:10237300001210D8F94E001210D8514F001210D885
:10238300844F001210D8EE4F001210D824500012C0
:1023930010D8AF50001210D80751001210D8DE51D8
:1023A300001210D89752001210D83253001210D8CE
:1023B3003A56001210D85657001210D8F95A001284
:1023C30010D8ED5B001210D8F05B001210D81F5C20
:1023D300001210D8255E001210D8FE5E001210D82D
:1023E300415F001210D89760001210D8D660001217
:1023F30010D85F61001210D89361001210D8586290
:10240300001210D87064001210D8E164001210D8C2
:102413002165001210D8AF65001210D8D1660012E2
:1024230010D89367001210D89A69001210D8B269B5
:10243300001210D8C669001210D8FE69001210D815
:102443002C6A001210D8AB6B001210D8D06C00129B
:1024530010D82D6D001210D8DF6D001210D8066E43
:10246300001210D8CD6E001210D8656F001210D86C
:102473008B71001210D8C071001210D82372001291
:1024830010D85273001210D8FA73001210D82B749C
:10249300001210D84374001210D8D274001210D84E
:1024A3008677001210D85E79001210D87A7900125C
:1024B30010D89679001210D8647A001210D8577E7B
:1024C300001210D8A582011210D8D782011210D899
:1024D300C686011210D81287011210D8588701122C
:1024E30010D8FA87011210D85688011210D89B8889
:1024F300011210D8E289011210D8F68A011210D8FD
:10250300E58E011210D8698F011210D8769001124E
:1025130010D8D290011210D8C292011210D837935A
:10252300011210D84193011210D84E93011210D802
:102533007993011210D86094011210D80A950112F0
:1025430010D88895011210D8A895011210D8D195EA
:10255300011210D8F395011210D85398011210D814
:102563001999011210D85E99011210D8DB99011242
:1025730010D88C9A011210D8BE9A011210D8049B5D
:10258300011210D8409B011210D8909B011210D851
:10259300E49B011210D83A9C011210D8869C0112B8
:1025A30010D8F39C011210D86E9D011210D8399FD8
:1025B300011210D839A0011210D85EA1011210D84F
:1025C3009DA4011210D8B0A7011210D86DA8011252
:1025D30010D8B1A8011210D861AA011210D875AA97
:1025E300011210D87FAA011210D889AA011210D89B
:1025F30095AA011210D8B1AA011210D85CAB01122E
:1026030010D89BAB011210D8A5AB011210D8AFABF9
:10261300011210D81FAC011210D86AAC011210D8E5
:102623007FAD011210D8DBAD011210D85CAE0112E0
:1026330010D81BAF011210D824B0011210D858B112
:10264300011210D846B2011210D85EB2011210D88E
:10265300B9B2011210D8D7B2011210D81FB30112A8
:1026630010D846B3011210D8E1B3011210D8A7B4A1
:10267300011210D839B5011210D8B3B5011210D810
:10268300CDB6011210D87AB7011210D8A2B8011230
:1026930010D8F2B8011210D856B9011210D8B8B92F
:1026A300011210D8E6B9011210D80ABA011210D8D3
:1026B3003FBA011210D870BA011210D8A3BA01128E
:1026C30010D8C3BA011210D82BBB011210D81FBCEB
:1026D300011210D87ABC011210D8A3BC011210D871
:1026E3002BBD011210D8AEBD011210D8D9BD0112F5
:1026F30010D8BEBE011210D80080041210D8388042
:10270300041210D85980041210D89B80041210D8D8
:10271300FD80041210D80781041210D81781041207
:1027230010D85281041210D83285041210D81F8792
:10273300041210D80589041210D89C89041210D8E9
:102743003E8A041210D8C0C0011210D83EC1011233
:1027530010D89AC1011210D8E5C1011210D800C2D5
:10276300011210D82BC2011210D848C2011210D87E
:1027730054C2011210D8EBC3011210D804C40112C1
:1027830010D889C4011210D89CC4011210D8BBC43C
:10279300011210D85FC5011210D8E0C6011210D87B
:1027A30093C8011210D829C9011210D82CC90112DB
:1027B30010D89CC9011210D8BAC9011210D851CA35
:1027C300011210D899CA011210D89CCA011210D84C
:1027D30062CB011210D8CFCB011210D8F5CB011266
:1027E30010D880CC011210D89ECC011210D8E4CCA2
:1027F300011210D898CD011210D8E2CD011210D8D1
:1028030011CE011210D86ECE011210D8A3CE011230
:1028130010D8CFCE011210D8DDCE011210D82ACF96
:10282300011210D89ACF011210D8E3CF011210D899
:102833002FD0011210D85BD0011210D866D001122C
:1028430010D884D0011210D86FD1011210D879D1C9
:10285300011210D8B4D1011210D8C4D1011210D86A
:10286300CDD1011210D821D2011210D835D20112C4
:1028730010D864D3011210D87BD3011210D890D38F
:10288300011210D81ED4011210D863D4011210D82B
:10289300EFD4011210D8FAD4011210D83CD6011289
:1028A30010D857D6011210D8A3D6011210D812D7B8
:1028B300011210D84BD7011210D865D7011210D8C6
:1028C300A7D7011210D877DA011210D824DB01122E
:1028D30010D891DB011210D8D1DD011210D8E9DD37
:1028E300011210D8ECDD011210D8F8DD011210D856
:1028F3000CDE011210D814DE011210D847DE0112CB
:1029030010D849DF011210D8D0DF011210D840E0EF
:10291300011210D8C2E0011210D883E1011210D8BD
:10292300A2E1011210D843E2011210D8A0E2011271
:1029330010D8A3E2011210D8D0E2011210D8E5E2B8
:10294300011210D859E3011210D8A8E4011210D8CB
:10295300AEE5011210D839E6011210D854E701127E
:1029630010D81CE8011210D84DE8011210D870E8F5
:10297300011210D879E8011210D8A8E8011210D872
:1029830038E9011210D8EEE9011210D863EA0112F6
:1029930010D80AEB011210D87FEB011210D8B6EB56
:1029A300011210D8F4EB011210D82AEC011210D83E
:1029B300C99D041210D81B9D041210D87E9C0412CA
:1029C30010D8749C041210D80D9C041210D8F99BD3
:1029D300041210D8569B041210D8569A041210D819
:1029E3006F99041210D85F97041210D86D960412D1
:1029F30010D80B96041210D89ACF021210D83ACFDF
:102A0300021210D8C4FE021210D8BAFE021210D855
:102A1300F7CB021210D8AEC8021210D84FFE021222
:102A230010D883FC021210D841FC021210D845FBC7
:102A3300021210D819FB021210D8D0FA021210D8C1
:102A430011FA021210D8FDF6021210D8BEF40212C7
:102A530010D88BF4021210D832F4021210D8C5F336
:102A6300021210D884F3021210D8BDF2021210D849
:102A730057F2021210D8F6F1021210D896F1021290
:102A830010D86DF0021210D801F0021210D859EFCD
:102A9300021210D854EF021210D848EF021210D8C5
:102AA3007BEB021210D855EB021210D802C80212A7
:102AB30010D870C7021210D82AC7021210D8F5C650
:102AC300021210D8C2C6021210D8ADC6021210D814
:102AD30082C6021210D8F3EA021210D894EA021244
:102AE30010D855EA021210D842EA021210D8E69F13
:102AF300041210D837EA021210D806EA021210D8CC
:102B0300F3E7021210D866E7021210D8BE8203124E
:102B130010D822E7021210D80ACF021210D8F6E614
:102B2300021210D89B95041210D86E95041210D877
:102B33003B95041210D81395041210D8B4940412C0
:102B430010D89494041210D85F94041210D80B91E7
:102B5300041210D8F38E041210D8DD8C041210D88E
:102B63005D8C041210D8098C041210D8BD8B04128A
:102B730010D81785031210D8B29F041210D8158BE2
:102B8300041210D8C0AF0300000080FBE4738F0071
:102B93000100E31787000100E11735000400AA17BD
:102BA30025000200AE1726000200B017270002001E
:102BB300B21728000100BC1729000100BD178400CB
:102BC300040007158600010027172A000100BE171D
:102BD3002B000100BF172C000100C3172D000800B4
:102BE30013152E000100C4172F000100C517300074
:102BF3000100C61731000100C717320001001B1581
:102C0300330001001C1534000100C8173600010011
:102C13001D1538000100C91739000100C2178300D0
:102C23000200DF1763000100291564000100C017CB
:102C330065000100C1176D0001002A15710008002D
:102C43000B1566000100DE1743000100CF17440097
:102C53000200D01745000100D21746000200D31727
:102C630047000800211548000100D5174B0001005B
:102C7300D61704000100E217A1000100E617370090
:102C83000100E51788000100E4173C0001001E1550
:102C93003D000100CA1749000200D7176700010071
:102CA3002B154D000200D9174E000100DB174F0012
:102CB3000200DC173E000100CE17510001001F1572
:102CC30052000100CC1753000100CD17540001003E
:102CD300201500000000000000013636010100014C
:102CE30002010001030100010401060605020000C0
:102CF300070100340801000F090401010D0100FF61
:102D03000E08000017020000190100FF1A0100015C
:102D13001B0100FE1C0100081D0200001F01000131
:102D230020010001210200002301000F2402000002
:102D33002601000127010008280200FF2A010007DD
:102D43002B0102402C0100002D0100012E01000186
:102D53002F0100FF30010B1D310800003A0100086C
:102D63003B01000F3C0100013D0100FF3E04000058
:102D730042040000460400004A0400004E04000020
:102D830052040000560400005A0400000000000032
:102D93002001A382000001002001A48200000200A0
:102DA30020019F82000003002001A0820000040094
:102DB30042012581000005004201E6800000060073
:102DC30042010281000007003001A182000000409F
:102DD300420173810000FDFF21019B82010020005D
:102DE30020052F17010021002005301700040000E3
:102DF3002105FB13020400002905ED130304000061
:102E03002905EF13030410002905F113030414002B
:102E130028017B17050400002105F31308040000B3
:102E23002105F513010371030103010301030103E9
:102E33000103220302030103100300030003000341
:102E430000030003000300034203000324030603FB
:102E530000030003040312032503230325032303B1
:102E630004030403000300030003440300030003FB
:102E730023030003650321003503810300030503D6
:102E8300000300030003000325032303030271026D
:102E9300300160021102700201020202020280028A
:102EA300100261023A00410063027302720262027D
:102EB300430200021302380000020002040212025D
:102EC300000200020002000204020402370037007D
:102ED3003C024402000239000002000265020002C3
:102EE300350281020002050282028302000201010F
:102EF300710101010101110101013101010101010F
:102F03008001100161013B00140063017301720130
:102F1300620143010001130106013D013500040173
:102F23001201000100010001000104010401330149
:102F330033013C0144013201360000010001650107
:102F430000013500810100010501820183010001B7
:102F53000300710030016000110070003102200392
:102F6300500480001000610000001400630073002F
:102F7300720062004300000013000600000000001E
:102F83000400120000000000000000000400040020
:102F9300370037003C02440000000000000000003E
:102FA300650000003500810000000500000083007B
:102FB300000036000100060000000F0000000000C2
:102FC300000000000000000003FFFF00000403FFF7
:102FD300FF0000FFFF0FF4010005C40403200001FC
:102FE30000000B000000000000000003010F0000C0
:102FF30000000000000000000000000000000000CE
:1030030000000000000000000000000000000000BD
:103013000E1D2C1D141D721C00000000000000007A
:1030230000000000000000001A1D721C00000000D8
:10303300201D721C0000000000000000261D721CF1
:10304300000000000000000000000000000000007D
:10305300000000000000000000000000000000006D
:1030630000000000000000000000000000003C1F02
:1030730001003C1F0200B21E0280AC1E0300B81EFA
:103083000400BE1E0480C41E0500CA1E0600D61E10
:103093003100E81E3300EE1E3400F41EFFFF000073
:1030A300030003000400080010001F003E007B0023
:1030B300F600EC01D703AF075D0FB91E713D0000A9
:1030C30007ECFDFDFDECDCDCCCBCACAC9C9C8C7C4F
:1030D3007C6C6C5C5C5C4C4C3C3C2C2C1C1C03EAF8
:1030E300F5E5D5D5C5B5A5959585857575656555FD
:1030F300554545353525251515050A3C2502062573
:10310300051225070C250CEE240DFA24FF00000000
:10311300160F00000B150B020002220F3300000EE6
:103123000F5A6967426565416C6C69616E6365300E
:1031330039D0D1D2D3D4D5D6D7D8D9DADBDCDDDEBA
:10314300DF303016181920231A1C1E3000034D4C93
:103153004651181A250502000119161816161823C8
:103163000300303017181921301B1D1F30003C405D
:10317300423A3F3F392F47300C0E020B040B0A072C
:1031830008000F0204020101010109020204000008
:103193002905F913E803000000BE040A2400030014
:1031A300E803010009100113031E1E030A0C0405A2
:1031B3000828020C050815FF0FC082C083121510E2
:1031C30090155674DEF0A37422F090155874E4F051
:1031D300A37422F090155A74EAF0A37422F09015A8
:1031E3005C74F0F0A37422F0025EF774F7120B190B
:1031F30090154AE4F0E9901549F07C217D157A4B4E
:103203007B15121C429017D5E0901553F09015547E
:10321300740BF0A3741502418474F0120B19EAFEC7
:10322300EBFF5480700302338D90154912421970DD
:1032330003023386EA241B125A84707CEA241F1289
:103243005A8464137002A3E0706E8A828B831233F4
:10325300DB901564125016750A00750B00800D1271
:10326300405A1270F6121B46AA0EAB0FEA4B604887
:103273008A828B83E0650C7004A3E0650D702C8A51
:10328300828B83A3A3A3A3E0F50EA3E0F50FE50AC6
:10329300450B8A828B83A3A3A3A360C312435C85DC
:1032A3000A82850B83A3A3A3A380B78A0A8B0B8A05
:1032B300828B8312501280B4E508242A125A84FCAC
:1032C300E5082402F8E43509F9E8FAE9FB90156406
:1032D3001234C2A3A3E06402703C8A828B8312502F
:1032E30016800B88828983A3A3A3A312435CE849B6
:1032F300601F88828983E06A7003A3E06B70E488AF
:10330300828983A3A3E06C70DA9017DB125DB4802B
:103313006BECF912231A850882850983E064017036
:103323004FE50824181233C412114C12669E120E74
:10333300FFE50824121233C412114CE50812420DA2
:10334300121148E508240B1266A2120F03E50824A4
:10335300171241AAE5082402FCE43509FDE5082417
:1033630019FAE43509FB122B5A740A121125800C41
:10337300E064027007AA08AB091223F8AA08AB0994
:10338300121AB0EEFAEF6480802DEA5402600C90BA
:10339300183A7401F0EA6402FA8023EA5408601AC6
:1033A300122314EA4B700B9015661265797A081292
:1033B30033D1EE6408FAEFFB80047A007B00026DE0
:1033C30028F582E43509F583E0F50A780A22FB90B3
:1033D3001549E0F9121C1222A3A3E0F50CA3E0F5B2
:1033E3000D227B00901549E0F9121C067404227427
:1033F300F4120B198A088B098A828B83A3A3A31265
:103403004E0E1241B538F583E02409FA126CC070F0
:10341300030234B58A828B837402124E8385088239
:103423008509831234C2E8F0A3E912693A8A828BD0
:1034330083A3A3A3A3A3A3A3A3F0E5082403F8E40E
:1034430035091234B71241B53AF583E08E828B8386
:10345300A3A3A3A3F0EE2409FAE43FFB8E828F8398
:10346300A3A3126066F5838882E0A2E58E828F8330
:10347300A3A3A3A3A3500474018001E4F0E50824EB
:1034830003F5828983125016EA1255973BF583128E
:103493006C871211441241B43B1261588E828F83A0
:1034A300A3A3127E36121125EEFAEFFB90154912F3
:1034B3006D0D8016F98882F583E0FAA3E0CA221223
:1034C30051B3A3A32274021211257F04020E7A744E
:1034D300F2120B198A088B09ECFAEDFB740E121425
:1034E3004FE0FC1215468A0C8B0DAE0CAF0DEA4F64
:1034F3006030AC08AD09121534E96026AC08AD099B
:10350300EEFAEFFB12153AE970148E828F831243A1
:1035130049FAEFFB12152EAA08AB0912155E7900C2
:10352300800279B402510274F0120B1974F612116D
:10353300BEEAFEEBFF8C088D09750FB385218285EA
:103543002283E4F0750E008002050E9031B2E493FD
:10355300F8E50EC3984003023651AA0E7B001215FC
:10356300828A0A8B0BEA4B60E08A828B83A3A312C5
:10357300365828F0F8C3EE98EF940050CC7C157DB4
:10358300007900AA08AB09121A98850A82850B8371
:10359300A3A3A3A3127133E0F8EEC3982925E0F89F
:1035A300E433F9E50A28F582E50B39F583A3A3A3F0
:1035B300A3A3A31241BFA3125BDB8A0C8B0DAC0C3C
:1035C300AD0DAA08AB09121C42850A82850B83A3A1
:1035D300E06401700A12669E74011241D180447442
:1035E300011211B6850A82850B8312501412156AD3
:1035F300E9603D740912144FE0C0E012669ED0E00A
:10360300F0740912144FE06403701374011211B6BD
:10361300E508240BFAE43509FB121C4280127401FD
:1036230012144F12435CE508125BC135091270F4A2
:10363300850A82850B831266AA1241D1A3A3E0C037
:10364300E0E50824141266A2D0E0F0750F00A90F7C
:10365300740A026D25A3A3A3E0F885218285228342
:10366300E02274F7120B19E9FE8A828B83A3A3A3CA
:10367300A3A3A3E0540860338A828B83A3A3A3A3E9
:10368300A3A3E0540260218A828B83A3A3A3A3A3F1
:10369300A3A3A3A3E06406600F74E96E600A74CD6C
:1036A3006E600574F06E70031222FC024A0174F01E
:1036B300120B1974EF1211BE740F12144F12645DC2
:1036C300740812144FE9F0ECFEEDFF740512144F69
:1036D3001247C91249EDA3E0F912155274061214E8
:1036E3004F12645D740612144F1256287003023988
:1036F3006C1241F9E0FA740612144FE0F912223CFD
:103703001239CCF8A3E0F9E849700302396CEE24CE
:1037130003F50AE43FF50BEE2406F508E43FF5094B
:103723007C00850882F583125016850A82850B83F7
:10373300E0F9121558740312144F12645D850A825E
:10374300850B83E0C0E08521828522831239C5D0B1
:10375300E012573DF985218285228312406112527E
:103763008F12365BFAA3E0CA2407F582E43AF583A5
:10377300E8F0A3E41264682406F582E438F583E4F0
:10378300127100124E02121144EE1241B53F126142
:1037930058740312144F124E0E2409127E30121164
:1037A30025742912144F12712D1234BC1257503A3A
:1037B3001270F4742B12144FE0C0E085218285222D
:1037C300831255EFD0E0F0740212144FE4F0742525
:1037D30012144F78081213DC0238C3740312144F07
:1037E3001261208882F5831239B4A3A3A3125BE686
:1037F300FB121570850E82850F83A3EAF0A3EBF00D
:10380300740312144F1239C5A31239B4125DF5A211
:10381300E6500F850E82850F83A3A3A3A3A3E0D253
:10382300E1F0740512144FE0706B850E82850F83EF
:10383300A312435C9015A4E0687003A3E06970557C
:10384300850E82850F83A3A3A3124194750C007880
:103853000C12114C7808121140742912144FE0F520
:103863000C780C12114C742712144F120F0390157D
:10387300B1120F037900741912144F124FE6122478
:1038830040740A121125850E82850F83A3A3A3A377
:10389300A3E04405F0740212144FE004FC8E828FFF
:1038A300831250108E828F83A3A3A3E0F9121558BD
:1038B300740312144F12645D740212144FE004F087
:1038C300740312144F1256286067740212144FE0E7
:1038D300FA740612144F12435CC3EA98E4995051E8
:1038E300740212144F123C9E852182852283E028A4
:1038F300F8A3E039F9E8240FF50EE439F50F850E46
:1039030082F583E4F0740312144F1239BF6401602B
:10391300030237DE740512144F7401126D13F07431
:103923000312144F125EE7123CC1E8F0A3E9023818
:10393300028521828522831250161222428521821A
:10394300852283120F03742612144FE0FD7425128F
:10395300144FE0FC740A12144FE0F9EEFAEFFB1275
:1039630022F6740212112580438E828F83A3A3A3B0
:10397300E0C0E0740C12144FD0E0F0126B7CE0C096
:10398300E0740D12144FD0E0F0740612144F125667
:10399300287009740E12144F74B98007740E121430
:1039A3004F7410F074091211AE12243A7411026D9F
:1039B30025E0850E82850F83A3A3A322E01257156A
:1039C300E022E0125715A3A322852182852283EAF0
:1039D300F0A3EB1256312274F0120B1974E1121199
:1039E300BE740412144FE9F0740312144FECF07414
:1039F3000212144FEDF08A0E8B0F742F12144F1214
:103A030033DDAA0CFB122230740112144FE9F0AA21
:103A13000CAB0D122236740112144FE07003023CFA
:103A230099852182852283E480158E828F83A3A3C7
:103A3300A3A3A3E0D2E3F0852182852283E00412CD
:103A43006C6BF8852182852283E0C3984003023C96
:103A530090740112144FE07003023C90852182851B
:103A63002283123C9EE50C28F8E50D39F9E8240F72
:103A7300FEE439FF8E82F583A3A3A3A3A3E0A2E010
:103A830040B5750800750A08750B00740212144FCF
:103A9300E060037508207C087D007900740512112D
:103AA300AE121A988E828F83E0603E9015F4E06424
:103AB30001701AE508D2E3F508750B10123CAE123B
:103AC300144FE8F0A3E9125AD974FF807643080C27
:103AD300750A0C8E828F83A3123CB91270F674059B
:103AE30012144F74FFF0A3805A740412144FE06051
:103AF30009E508D2E6F508750A0A8E828F83A3E0EA
:103B030064FE7003A3E0F47030741212144F740453
:103B13001266C8F8741D12144FE8124E8374121201
:103B230011AE12215E7D007C007900741512144FD2
:103B3300AA82AB83121F24800B123CAE12144FE8EF
:103B4300F0A3E9F0740712144FE508F01241F0C036
:103B5300E0740912144FD0E0F0740A12144F740188
:103B6300F074051211AE1223FE741112144FE060AB
:103B730003023C6E740D12144F1257388E828F83DA
:103B8300A3A3A3A3F0740D12144F124E51E50AF030
:103B9300A3E50BF0740312144FE0C0E0124DE2D022
:103BA300E0125DF560119015F4E0C0E0740D12149D
:103BB3004F124E2CD0E0F0740D12144F12435C855B
:103BC3000C82850D83A3A3A3A3A3123CA7241C12D9
:103BD3006457127110123CA9125DA739126B9BC076
:103BE300E0124DC9D0E0126C60C0E0740D12144FA6
:103BF30012490FD0E0126961C0E0740D12144F1224
:103C03004905D0E0F0740D12144F123CB9123CA7D1
:103C1300242A126457850E82850F83A3A3A3A3A32B
:103C2300A3A3A3E01264501241DFC0E01248F1D015
:103C3300E0F0740D12144F125016850E82850F8317
:103C4300126C762428F582E43B1270F41241E812D8
:103C53006C87121144126151EA1263E93B127E34FC
:103C630012112574051211AE1224048E828F83A3C0
:103C7300A3A3A3A3E0D2E0F0741112144FE06003F6
:103C8300023A2D740112144FE014023A397900AA52
:103C93000CAB0D122302741F026D25E075F007A40F
:103CA300F8A9F022A3A312501AE8228E828F83A3CD
:103CB300124360740522E0123CC1A3A3A322F8A31C
:103CC300E0F9850E82850F83A32274F0120B197419
:103CD300E81211BEE9852182852283F08A0E8B0FBB
:103CE3008A828B83A3A3A3A3A3A3A3A3E0F9122292
:103CF3005A8A088B09EA4B7003023DAAE50E125556
:103D0300AB12420812419F852182852283E0600322
:103D1300023DAD7C04850E82850F83A3A3A3A3A3D9
:103D2300A3A3A3E0F9122260EE4F607B8E828F8300
:103D3300A3A3A3A312435C740712144F12658E123C
:103D4300435C740912144F124EB3C0E07411121481
:103D53004FD0E012693FA3A3A3A3A3A3A312435C81
:103D6300740F12144F1270F6741212144FE4126D82
:103D73001BC8241FF582E438F58312611CC4131396
:103D83005403FC70027C048E828F83E0F97808125E
:103D93001148742059FD744059F974031211AE127D
:103DA30022F67402121125026D237C08850E82858A
:103DB3000F83A3A3A3A3A3A3A3A3E0F91222608B5E
:103DC3000BEA4B7003023D2BEE4F60DB85218285AE
:103DD3002283E0F50C780C12114C85088285098347
:103DE300A3A3A3A3A3A3A3E0F50C780C12114C8AFD
:103DF300828B83A3A3A3E0FB8A82850B831279536F
:103E03008A82850B83E0FA8E828F83A3A3E0F91263
:103E13002B607402121125023D2F74F7120B1974D3
:103E2300FA1211BEE9FE780179017F00800379005F
:103E33000F125192E0FCEFC39C5026EF75F007A4DC
:103E4300FC85F008AD08EA2CFCEB3DFD124781E050
:103E5300A2E050DA540C60D6E0A2E250D37800809E
:103E6300CF8A828B83A3A3A3A3A3A3E0703DE9A27C
:103E7300E0400574016E70338A828B83A3A3A3A3EE
:103E8300A3A37401124171E0C0E0740312144FD074
:103E9300E01247E0E0C0E0740412144FD0E0F07485
:103EA3000512144FE81260BB12243A74060249FE4D
:103EB300C082C0837901122302025EF774F4120BED
:103EC30019EA4B90183A6019E4F08A088B09F50A4D
:103ED300F50B78081211407A021233E5121125808E
:103EE3000A7401F07A027B001233D20234CD74F0EB
:103EF300120B1974F31211BE740312144FE4F0A3DE
:103F0300F090156412419F740112144FE4F0A31250
:103F13004E8804F090159EE0A2E35003023FE412A2
:103F23004165740912144F121420740912144F7846
:103F3300081213DC901566780812118E740512149A
:103F43004F78081213BE124068740512144F780894
:103F530012137F50077A017B000240557405121437
:103F63004F780C1213DC9017DAE0F509780C790816
:103F7300120AAAA80CA90D9017DBE0C398E4995084
:103F830003E08001E8852182852283F074091214FD
:103F93004F78081213DCC008C009C00AC00B7405AF
:103FA30012144F780C1213DC124068780C79081243
:103FB3000AAAE4F50AF50BD00FD00ED00DD00C7879
:103FC3000C7908121266901566780C1213BE8011D4
:103FD30012405A1270F6EEFAEFFB121B46AE08AF10
:103FE30009EE4F60658E828F83123658C398502D29
:103FF300EE2403F8E43FF9E0FA88828983E0C39A68
:10400300F06023740312144F1244C2740112144F4C
:10401300EEF0A3EF1265A9FEA3E0FF80C48E828FAA
:1040230083A3A3A3E4F08E828F83127DED74011228
:10403300144F1256288E828F83A3A3A3A3609112D9
:10404300658212144F1240618089740312144F1257
:104053005016740D026D251243609015642212618F
:1040630047A3A3A3229017D9127DF5E4F50AF50B14
:104073002274F0120B198A088B09890A78007900D7
:1040830090156412419FFBEE4B601E088E828F8356
:10409300A3A3A3A3124FE0601008E87001098E8266
:1040A3008F8312419BEA4F70E39017DC125016C3C3
:1040B300E89AE99B40030241587A0612415BA80C37
:1040C300A90DEA4970030241588A828B83E508F0FF
:1040D300A3E50912417AE50AF09017DB12519A120F
:1040E3004171A3E4F0A3F0901564124FE0600D8ECC
:1040F300828F83A3A3A3A31270F680179015641273
:1041030070F690159EE0A2E3400912416590156692
:1041130012142090159EE0A2E3503A7A087B009097
:104123001549E0F9121C18EA4B4C4D70289017D929
:10413300E0F508A3E085080CF50DE4F50EF50F781E
:104143000C1211407A087B00901549E0F9121C0CFF
:104153007404121125026D287B00121B408A0C8BFC
:104163000D22121C2AEAF8EBF9ECFAEDFB221241BC
:10417300752212417AA322F08A828B83A3A322E5BC
:1041830008F0024A01F08E828F83A3A3A3A3A3A303
:1041930022125A92A3A3F022A3A3A3A3E0FEA3E0B7
:1041A300FF227F05020E7AF582E43509F583E0F9F3
:1041B30022EA1241B9222410F582E4221241C7A354
:1041C300A3A3A32212436485088285098322124193
:1041D300D522F0850A82850B83A3A322E50E241141
:1041E300124205E022E50E240E12420522E50E24BA
:1041F30010124205E0221241FD22EE1241B93FF5B1
:104203008322F582E4350FF58322240FF50AE43582
:1042130009F50B780A22E0F9121AC28A088B09EA17
:104223004B2274F2120B19890B8A088B098A828B31
:1042330083125016122326EA4B600479B8806A125F
:104243002332E9F89031A8E493F9E8C3994004795B
:10425300B280567A1512415BAE0CAF0DEA4F700473
:10426300791080458A828B83E4F0A312417AE50BAF
:10427300F0750A0078081211447C127D00EA2403C9
:10428300126C3212112590156A1256287008901577
:104293006A800C12435C888289831242AF70F4EE09
:1042A300F0A3EFF0122344790002510212501AEAEC
:1042B3004B8882898322C082C08390156A80048CD4
:1042C300828D83127954EC4D60288C828D83A3A355
:1042D300E069600574FF6970E68C828D83A3A3A3F4
:1042E300E06A7003A3E06B70D6EC2403FAE43DFBB1
:1042F30080047A007B00025EF774F7120B19E9FD64
:1043030074FE6D70047C0180027C0090156A800944
:104313006D70027C0188828983125628601F88820F
:104323008983A3A3A3E06A7003A3E06B70E7ECA205
:10433300E088828983A3A3E050D6F9800279FE0244
:104343004A01EEF9800CA3A3127DF5EE227402124A
:1043530011257F02020E7AF5831243602212436411
:1043630022E0F8A3E0F9221243648E828F832212A3
:1043730011257F03020E7AC082C083790090156AEB
:10438300800109E0FAA3E08A82F583E58245837020
:10439300F1025EF774F6120B19E4F508F5097808D3
:1043A3001211489031A8E49375F013A4A9F01244B4
:1043B300B7127154121125E9FE74096E70031223AA
:1043C3003E02434574F6120B1974FE1211BE852189
:1043D30082852283E4F0A3F0A821A9228808890911
:1043E30078081211487508027509007808121148F7
:1043F300126DC512112502435074F5120B1974EB9B
:104403001211BE852182852283E4F0A3F090156A00
:1044130080748E828F83A3A3E0C0E0740212144FD2
:10442300D0E0125AD9A982AA8389088A09750A0099
:1044330078081211447C127D00740612144F127115
:104443001912112574021211A68808890978081215
:10445300114875081375090078081211487404127D
:10446300144F1255CB75F013A4F8AAF075F013E9A5
:104473001244B3126DCD1211258521828522831238
:1044830044C28E828F8312419FEE4F7085A821A96B
:1044930022880889097808121148750802750900ED
:1044A3007808121148126DC5121125741502437252
:1044B300A42AF9E82402FCE439FD7A427B0022E0D5
:1044C3002401F0A3E03400F02274F4120B1974EB0E
:1044D3001211BE7E007F00A821A9228808890978CD
:1044E300081211487508028E0978081211487C00D9
:1044F3007D007A42127160121125E9706C8E08807A
:104503005674021211A6880A890B780A121148758B
:104513000A13750B00780A121148E50875F013A405
:10452300F8AAF075F013E5091244B312716212117F
:1045330025E9701B740312144FAA82AB8374021211
:10454300144FE0F9122320E970050EEE70010F05F8
:1045530008E5087002050985218285228312435CE0
:10456300C3E50898E509994098EEFAEFFB74150244
:1045730034CA74F6120B198C828D83A3A31247CE0F
:10458300F0EA1263EF3BF583E0C0E012478BD0E023
:10459300F0EA241DF582E43B12435A12476F124797
:1045A300C9F0A3F0EA241FF582E43BF58312419F8F
:1045B300EC1247623DF583EEF0A3EFF01247683B40
:1045C300F583124799A3A3A3A3A3A3EEF0A3EF122A
:1045D300604AFE8C828D831247D874035EFEC394B7
:1045E300034003024755EE600874026E60030246FF
:1045F3007A8C828D83E0540CFE740C6E7003024639
:10460300B9E0A2E4400D88828983E08C828D83A384
:104613001247EE74086E60030246B91247797401BB
:10462300F08A828B83A3A3A3A3A3125A9F70148C33
:10463300828D83E0440C1247E0A3A3124799EEF066
:10464300A3EFF08C828D83E0A2E4402B8882124793
:10465300A71247BC500109F5821247A7A3A3A3A33E
:10466300A3A3F0A3EF1247E88C828D83A3A3A3F047
:10467300E82403F850010988828983E0C0E0EC2430
:1046830011F582E43DF583D0E01247D88C828D8307
:10469300E0A2E7507588828983E0FE8C828D8312C5
:1046A30047EE74FC5E700C8C828D83A3E05403642C
:1046B30003701E024755124779E4F0740C6E6003D1
:1046C30002462488821247AD1247BC5001090246B4
:1046D300468C828D83A3E05403603288828983E011
:1046E300C0E0EC1247933DF583D0E01247EF8C8294
:1046F3008D83E054036402701488828983E0C0E0F0
:10470300124781D0E01247EF8003A3E4F0EC125587
:10471300973D1270F4EC2410FEE43DFFEA241DF5EE
:1047230082E43BF583E0F5088E828F83E0C398250E
:1047330008F508F0EA2417F8E43BF98882F583E0EA
:10474300C39508C0E012476FD0E012604AC39508D2
:10475300500A12476FE4F012478BE4F002435524EA
:1047630015F582E422EA240DF582E422EC240DF50A
:1047730082E43DF58322EC1257503DF58322EC246D
:1047830014F582E43DF58322EC1241B93DF5832211
:104793002413F582E422E0FEA3E0FF8C828D83A341
:1047A300A3A3A3221247ADA3A3228983E0F508A301
:1047B300E0FFE5088C828D8322A3A3A3A3F0A3EFDC
:1047C300F0E82402F8221247CEA322E4F08C828D73
:1047D30083A3A3A3221247F6A882A98322124175B9
:1047E300A3A3A3A3221247F6A3E022A31247F6082A
:1047F300A98322126053A32274F4120B1974F312C7
:1048030011BE8A0A8B0BECFEEDFF8C82F583E0541C
:104813000CF508E0A2E75006E508D2E7F508E5083D
:10482300D2E1F508125A9F7006E508D2E4F508E0D4
:10483300A2E55006E508D2E5F5087C087D0079007D
:10484300AA21AB22121A98740212144FE5081270AF
:10485300FAC0E0740312144FD0E0124E88E50AF058
:10486300A3E50BF0740512144F12696612144FE09E
:104873007077740812144F124E0E12603C3812698E
:1048830081C0E0740812144F12490FD0E01269611D
:10489300C0E0740812144F124905D0E0F0740812F6
:1048A300144F1248FBE0124E36124EB7126450EE0C
:1048B3002411125A6BC0E01248F1D0E0F0EE241438
:1048C300125A6BC0E0740812144F124E0E2435F5C1
:1048D30082E438F583D0E0124E5BC0E07408121412
:1048E3004F124E12D0E01266BA740D0234CAE82495
:1048F30032F582E439F5832212436AA3A3A3A3A367
:10490300A322124E22126B6038F58322124E222408
:1049130026F582E438F5832274F7120B197E008A98
:10492300828B83A3A3A3A3A3A3A3A3A3E064046091
:10493300030249DD125748E060030249DD1255AA1C
:104943003B12562670030249DD88828983E05403B3
:1049530060030249DDE812575039F583E0FA8C828F
:104963008D83A3A3E0FBA3E0CB2411F582E43BF505
:1049730083E06A706588828983A3A3A3A3A3A3A307
:10498300A3A31249E1E06A7003A3E06B704C888231
:104993008983A3A31249EDE0FFA3E0CF2406125AB3
:1049A3006B6A7003A3E06B703188828983A3A3E0F1
:1049B300F88C828D83A3A3E0F9A3E0F5838982A316
:1049C300A3E06860138C828D83A3A3A3E0F583899E
:1049D30082E0540C640470027E01EEF980201249D7
:1049E300E52212501E8C828D8322A3A31249E5A3D4
:1049F300A322740C12144FE0F9740D1211257F01D8
:104A0300020E7A74F6120B1974FC1211BEEAFEEB55
:104A1300FFECFAEDFB8C82F583A3E0540360169060
:104A2300156012562860597900EEFCEFFD126247BB
:104A3300122B8F804B852182852283EEF0A3EFF02A
:104A4300740212144F124E7DAC21AD227A5C7B238B
:104A53001225848A088B09A808A909EA4960218AD2
:104A6300828B83A3A3A3A3A3A3A3A3A37406F07A14
:104A73000088828B83124E0E126410E0F91224E236
:104A8300740402435274F2120B1974F31211BEEA46
:104A9300FEEBFF8A82F583A3A3A3A3A3A3A3A3A3EC
:104AA300A3E0F50A90183AE0700579BA024DC6758D
:104AB3000801750900750C00750D007C087D0079EF
:104AC30000AA21AB22121A98740512144F74011212
:104AD3004E9054046012740212144FE0D2E6124E48
:104AE3009054087003750803E05410600674404541
:104AF30008F508E054086022740212144FE044C021
:104B0300124E905420600A740312144FE0D2E080D6
:104B130008740312144FE0D2E1F0EE2415125A6B1D
:104B2300124DF67003740169700674084508F508A0
:104B33008E828F83A3A3A3A3A3A3A3A3E0701612C0
:104B430025DE85218285228312645D740212144F4F
:104B5300E0D2E28030640F7010740212144F124ED0
:104B63009874044508F508807F8E828F83A3A3A3DE
:104B7300A3A3A3A3A3E064028E828F83700A12719E
:104B83002DE8F0A3E9F08060A3A3A3A3A3A3A3A3A9
:104B9300E06403700DAC21AD22EEFAEFFB12239219
:104BA30080468E828F83A3A3A3A3A3A3A3A3E064BE
:104BB3000170359015F4E06010740212144F124E18
:104BC30098750910750AFF8018740212144FE04497
:104BD3000C124E8874FDF0A374FFF074044508F5BD
:104BE300088E828F831233DDEE2415125A6BA2E0F6
:104BF300503F740212144FE0540C701B8E828F834B
:104C0300125016121FF0E9700579BB024DC67402EB
:104C130012144FE0D2E5F0EE2415125A6BA2E050C5
:104C230010740212144FE0540C64047004E0D2E5D3
:104C3300F0EE2411125A6BC0E0740412144FD0E04A
:104C430012696812144FE06003024DBF7408121416
:104C53004F124E51E508F0A3E509F0124DECE0C008
:104C6300E0124DE2D0E0F0124DD3E0C0E074081240
:104C7300144F124E0E12479338F583D0E0124EB7FD
:104C8300640170119015F4E0C0E0740812144F121F
:104C93004E2CD0E0F0740812144F124E4C124DDD1E
:104CA300FAE8241CF582E439F583EA124E83EE24F4
:104CB30015FAE43FFB8A82F583127954E8125DA763
:104CC30039F583124E7DEE241C125A6BC0E0124D4F
:104CD300C9D0E0125EED124DF670037401697013D2
:104CE300740812144F125738FAEE241D125A6BF936
:104CF3001222668E828F83A3A3A3A3A3A3A3A3A33A
:104D0300E0C0E0740812144F12490FD0E0F07408A9
:104D130012144F124905E50AF0740812144F125584
:104D2300CB2428F582E439F583E50CF0A3E50D12D5
:104D33004E63124E36125AE4126450EE124DDDC029
:104D4300E0E82433F582E439F583D0E0F0EE241B68
:104D5300125A6BC0E0740812144F124E12D0E0F0D6
:104D6300EE241A125A6BC0E0740812144F124E0E3E
:104D73002432F582E438F583D0E0124E5B124E0202
:104D8300121144126B66127954740B12144F124EA3
:104D93000E242F127E30121125EE2415125A6B5455
:104DA300406012901580125628600AAA21AB221285
:104DB3006247122B8FAA21AB22122404740C121403
:104DC3004FE0F90250FDE82420F582E439F583220F
:104DD300EE2419F582E43FF58322126B75E022E895
:104DE3002412F582E439F58322EE2418F582E43F98
:104DF300F583225480F8A3E05401F974806822F506
:104E030008A3E0F509750A00780822124E2222123F
:104E13004E222434F582E438F58322A3A3A3A312FC
:104E23004E2622E0F8A3E0C822124E22124762382F
:104E3300F58322FAA3E0FBE8242AF582E439F5831B
:104E4300EAF0A3EB22A3A3A3A3124360EE2212551D
:104E5300CF1255AF39F58322F0EE2413125AEC2208
:104E6300F0EE240D125AEC22E0FC8A828B83E02CB4
:104E7300FCA3E03400FD8A828B83ECF0A3EDF022E7
:104E8300F0A3E4F022F085218285228322F0EE2430
:104E930015125AEC22E0D2E3F0124EA0228E828F3A
:104EA30083124364852182852283E8F0A3E9F022FB
:104EB300E8F0A3E91265A3E02274F7120B198A82C2
:104EC3008B83A3E0640170047E6380027E648A8224
:104ED3008B83E060087905124EF024F3FE90159C55
:104EE300E06007F9124EF024F2FE0249DD1224AC11
:104EF300E9F8EEC3982274F6120B1974FE1211BE70
:104F030085218285228312645DE9FEECFAEDFB9034
:104F130005C21256286032A821A922880889097877
:104F2300081211487D01740E12144FE0FCEEF99043
:104F330005C2126431122B8F7402121125EA4B60E1
:104F4300047900800679B2800279B602435074F77F
:104F5300120B19E9FE901556125628601F74091298
:104F6300144FE0F508780812114CEEF9901556121B
:104F73006431122B8F7401121125800279B6024A13
:104F83000174F7120B198908ECFEEDFF79B5E508FA
:104F9300245E602014600624F86034803D9005C4CC
:104FA300124FE06035127171122B8F8E828F831234
:104FB300645D8024901558127954EC4D601CEEFC0E
:104FC300EFFD901558126431122B8FE9F9800B9085
:104FD3001554124FE6121C427900024A0112501A6C
:104FE300EA4B22127958EEFAEFFB2274F7120B19EF
:104FF300E9FE79B574AB6E700B901554125016120E
:105003001C427900024A018E828F83A3A3A3A3A328
:10501300A3A3A312501A2212501E22E0FAA3E0FB0C
:105023002274F1120B19EAFEEBFF8C0A8D0B750843
:10503300019015A4E06E7003A3E06F700C1250F1A1
:10504300AA0AAB0B121C42805E1225E4EE6A7002C0
:10505300EF6B7009AA0AAB0B1225EA804AAC0AADC2
:105063000BEEFAEFFB12213AE9F5089017E1E07035
:1050730036122A94E97030E508702C901574E06EAE
:105083007003A3E06F7020EE4F601C750C6C750D00
:1050930015750E00780C1211447C087D00AA0AAB2A
:1050A3000B12711D121125A908027A5074F2120B0A
:1050B30019EAFEEBFF8C088D09750A011250F1EE17
:1050C300FAEFFB121C3CE9640170119015A4124322
:1050D3005C8508828509831270F6800EAC08AD09E1
:1050E300EEFAEFFB122140E9F50AA90A8011122515
:1050F300D88A0C8B0DAC0CAD0D22740D1211257FCB
:1051030006020E7A74F6120B19EAFEEBFF7A0D7B98
:1051130000121B40EA4B6062EE2424126DFAF0EE9B
:105123002425126DFAA31251BF126E00A3A3126BB2
:105133009312519AF0EE1251801251AFE8F0A3E9A5
:105143001251D61251A71270F6EE125189126C56F3
:10515300A3A3A3A3F0EE2433125A6BC0E01251921F
:10516300D0E01269851251A7A3A3A3E8F0A3E91223
:1051730051CEC0E0125748D0E0F0024355242AF53F
:1051830082E43FF58322242EF582E43FF58322EA6D
:10519300125BC13BF5832212519E22E08A828B83EC
:1051A300A3A3A322126CB5A3A3A3A3221251B322D8
:1051B3001243648A828B83A3A3A3A322F01251C454
:1051C30022EE2426F582E43FF58322F0EE24321208
:1051D3005AEC22F0EE242C125AEC2274F4120B191E
:1051E30074FE1211BEECFEEDFFEC2416125A6B6432
:1051F300057010EC2406FCE43FFD12238CE97003D8
:1052030002528AAC21AD22126EAF121FF6852182A3
:10521300852283125628606B8E828F83E06401702F
:1052230058E875F009A4F8AAF075F009E9A42AF979
:1052330074CB28F8740239F9E8FAE9FB8882F5831C
:1052430078081213DCEE12532C12137F40278521AA
:1052530082852283124E4C125A7912528F78081289
:1052630013DC90820D78081213028A828B837808EC
:105273001213BE800A79A28010EE240F1270F07907
:1052830000800679A1800279C80234C8124EADEEBF
:10529300126B812274F2120B198A0C8B0DECFEED4A
:1052A300FFEC125A79E4F0A3F09081D97808121335
:1052B300DCEC12532C1212296067EC240E125A7282
:1052C300703478B390159BE070289015CDE064019D
:1052D3007020EC2411125A6BF91224948B09A9093A
:1052E300EE1255AB3F12645BEA496004780080021A
:1052F30078A18808802EE060046402700A12239E5D
:10530300E9F5087007801DE064037010EEFCEFFD03
:10531300AA0CAB0D12201AE9F50880087508A180C4
:10532300037508A3A908025102126B81780822743D
:10533300F0120B1974F51211BEEAFEEBFFEA240A10
:10534300FCE43F8C82F583127DF11255B574031290
:1053530011B68A828B83126251E9700302541B7463
:10536300011211B674031211AE121FF67401121456
:105373004F125628700302541BE875F009A4F8AACB
:10538300F075F009E9A42AF974C728FC740239FD01
:10539300E508240E1266A2E4F00412144F12435CD3
:1053A300E5081255AB35091270F48C828D83121403
:1053B30014E50824121266A212142090820D7808B4
:1053C3001213DC8C828D8378081212B68C828D8343
:1053D300780C1213DC90828978081213DC780C792C
:1053E30008120AAAE5084509450A450B702A740103
:1053F30012144F1255CB75F009A4F8AAF075F009F1
:10540300E9A42AF974CF28F582740239F58374016B
:10541300F07A007B081255D88E828F83A3A3A3A3AF
:10542300A3A3A3A3A3A3E02406FCA3E03400FD8E5F
:10543300828F83126251126973603EEE240A125501
:105443009D124E517468124E83E812559739F583B5
:105453007402F09015861214148C828D8312644AA0
:1054630012603C3CF58312142090820D78081213CD
:10547300DC90158678081212B6125613705D9015DB
:10548300541255C3A3A3A3A3A3A3A3A3A3A31260CB
:1054930072121C3CE9701012603090155412604275
:1054A300700512697360348E828F83A3A3A3A3A3B1
:1054B300A3A3A3A3A31255C3125016122020E9607D
:1054C300118E828F83A3A3A3A3A3A31255FFE4F09A
:1054D300A3F08E828F831255E5E4F0125613600316
:1054E3000255928E828F83A3A3A3A3A3A3127DED60
:1054F30090159BE060030255879015CDE064016031
:1055030003025587750A3A750B00780A121148741D
:10551300021211A6880A890B780A1211481273EC39
:10552300121125E9705BE508240E1266A2740112BC
:10553300562DC0E0E50824111266A2D0E0F0E5087C
:10554300240F1266A2743A124E8390158212141419
:10555300E50824121266A212142090820D78081214
:1055630013DC90158278081212B690820D78081217
:1055730013DC901582780812122970081255D48012
:10558300031255B51256137006125F3374A1F074EB
:105593000B026D25240EF582E422F8E43FF9E8FCC2
:1055A300E9FD8882F58322EA1255AF22240FF582A2
:1055B300E422E5081255AF3509F583E4F0A3F022A0
:1055C3001279588E828F83221255CF22124364E8B8
:1055D300227A007B0290142BE0F9121AEC228A82C1
:1055E3008B83A3A3A3A3A3A3A3A3A3A31255F322D0
:1055F300124E26240EF582E438F58322A3A3A3A337
:1056030012560722124E26240FF582E438F5832220
:105613008E828F83A3A3A3A3A3A3124E1E240FF5ED
:1056230082E438F5831255CF492212563122F08590
:105633002182852283E02274F6120B19EAFEEBFF26
:105643007A237B00121B40EE240AF508E43FF50998
:1056530085088212645B7C237D007900121A988589
:10566300088285098312562870030256FBEEFAEF6F
:10567300FB1223AA12561360748E828F8312572E45
:1056830064018E828F83A3A3A3A3A3A370071257DE
:1056930024740E80211256287010126973700B8EB9
:1056A300828F83A3A3E0A2E0500712571A740D80E0
:1056B3000512571A740512698554036401700712A1
:1056C30057027405800B90159CE0C0E0125702D07E
:1056D300E012573DF5838882125A9885088285091E
:1056E30083124E0E1263EF38F583E9800E8508822C
:1056F3008509831264D48003126417F00243558E24
:10570300828F83A3A3A3A3A3A3A3A3A3A312571427
:1057130022E0126436A3228E828F83A3A3A3A3A3C2
:10572300A3124E1E1263F538F58322A3A3A3A3A3EA
:10573300A3A3A3A3A31255F3E02212574122126E8F
:10574300C4F8A3E022EA1257503BF58322240CF558
:1057530082E42274F1120B1974E41211BE8A0C8BC9
:105763000D8C088D097A237B00121B408A0A8B0B50
:10577300AE0AAF0BEA4F7003025A531263FBE508FC
:105783002415125A84687003A3E0698E828F837094
:1057930004740280027401F0E508240DF8E435096D
:1057A300F98882F583E0FAC3E49AFA95E0FB125A8A
:1057B300802AFAA3E03BFB8E828F83A3A3A3A312C9
:1057C30060598E828F83A3A3F0EE2420F582E43FF9
:1057D300F583E4F0EE2421F582E43FF583E4F0EE73
:1057E300FAEFFB12245E850882850983125A9F70A3
:1057F300098E828F83A37405800690159C125A8D9F
:10580300F0EE2417F50AE43FF50B8E828F83125ACC
:1058130098E9850A82850B83F0EE2416F8E43FF9B4
:10582300E508240EFAE43509FB88828983124E6B5E
:10583300E5082410FAE43509FB850A82850B83E029
:10584300FC88828983E0F88A828B83E0C398C39CB7
:10585300F8125AD9F0EEFCEFFDAA0CAB0D1223A4FB
:10586300E9F50B8E828F83E06402700612603012BA
:105873005A5DE50B6003025A4A750C00750D0090E2
:1058830017E1E064016005E06402703F125A6F6043
:1058930008EE2421125A7270328E828F83A3A3A33F
:1058A30012641D125AA5EE2416125A6B125ACEFA1E
:1058B300E439FB12415DEA4B6011126C7F12114413
:1058C300125AB3AA0C12711D121125EEFAEFFB1234
:1058D300246AE9F50B9017E1E064016008E06402D3
:1058E3006003025A3DE97003025A3DE50C450D7011
:1058F30003025A4A8003850E0B125A6F600BEE2483
:1059030021125A726003025A43850B0E850C0885D7
:105913000D09750A007808121144125AB38E828F4A
:1059230083A3A3A3A3127E36121125EE2420125AB9
:105933006B600D125A787468124E83EE2420801522
:10594300EE2421125A6B6015125A787403F0A37473
:1059530001F0EE2421F582E43FF583E4F0EEFAEF63
:10596300FB12246AE9F50B70907C137D00790074B7
:10597300091211AE121A98741A12144F7401125AA2
:10598300E464687002A3E0704F8E828F831255FF28
:10599300E0640560030258F97C0879FF8E828F83E7
:1059A300A3A3A3A3E0242A126075121B22E97003A8
:1059B3000258F97C087D0079FF74011211AE121AA6
:1059C3009874011211B67A007B0079AB12238674A6
:1059D3001912144F74FC8015125A78E06403700492
:1059E300A3E064017008741912144F74FFF0E4F516
:1059F30008F509780812114874021211B6741312CB
:105A0300144FAA82AB8312655A1211258521828510
:105A13002283E0602B74091211A68808890978088B
:105A230012114875081375090078081211487C0093
:105A33007D00126DCD1211258006E50C450D600722
:105A4300AA0CAB0D121B46EEFAEFFB121B468003AA
:105A5300750B10A90B741C027A4DEE2406FAE43F71
:105A6300FB121C4222EE240C125AEC22EE242012CA
:105A73005AEC640122EE1255AF3FF58322E5082468
:105A83000EF582E43509F583E022125A92A322E04F
:105A93008E828F8322A3E0F91224AC22E0540364A4
:105AA3000122125AA922E0FAE82AF8E43400F92282
:105AB3008E828F83A3A3A3126421125AA9EE241604
:105AC300125AEC125ACEFCE439FD22FAE82AF8E421
:105AD30039F9E8240422125ADD22126994A3A3A3FC
:105AE30022F0125AE922EE240FF582E43FF583E017
:105AF3002279010210D574F4120B19EAFEEBFF8A26
:105B030082F583A3A3A3A3A3A3A3A3124E0E2424CA
:105B1300F582E438F583125A9F702E8A828B8312A2
:105B2300572E7025125BC7E06405701D125BC7A377
:105B3300E0F8740168600574066870071255E17433
