:020000040000FA
:060000000212A80208161E
:03002B00021007B9
:03003300020EF4C6
:030053000207455C
:100083000207A701010000000000F8FF07FFFF00BF
:10009300000504000000030001FFFFFFFF00302004
:1000A3004E00000020FD000206FFFF1E320000008C
:1000B300640000001900000032000000010000008D
:1000C300EC1B000000000000000000000000000026
:1000D30004020300000003000000000C00006400A1
:1000E300000064000000000001000100010104049D
:1000F3000104010203020434810000000204010C24
:1001030000020227820000000304010601020141EC
:1001130082000000010400004614000000E8030010
:1001230000FFFF971488130000E8030000640064D5
:1001330000B801A0BB0D00A0BB0D00020202070422
:1001430001071E02051E020A0A010108080103B87D
:100153000B02803E0102FEFFE8030A050001FFFFD8
:10016300020A011401E0050301010F030003000368
:100173000003000300030003000300030005000A5B
:1001830000140028004F009E000000F12D00000025
:1001930000C52C00000000FF000000FF001212C782
:1001A30060461212B8603DE9687008F618F618F652
:1001B30018F622748067F71201D40909097480675D
:1001C300F7221212B8601D1212C77005191919808F
:1001D3001A121194701F1211A8C37003E667331922
:1001E300191940071818182208080874FFF618F69A
:1001F30018F618F6221211A86017121355702192DF
:10020300F012135E7019501720F01408080809093A
:1002130009E7F61819E7F61819E7F61819E7F622A9
:1002230012135E60E6E869701F0808E62480F6088A
:10023300E436F618547FB47F0CE654806007F6E486
:1002430018F618F622181822E9C6CC08C6CD08C637
:10025300CE08C6CFC0E0E8C0E0EAC0E0EBC0E009EA
:10026300E9F809E7FA09E7FBE6F918E6F8C3EC98B9
:10027300ED99EE9AEBC2E7F5F0EFC2E795F0500E79
:10028300600CEBCFFBEACEFAE9CDF9E8CCF8EAA2B1
:10029300E7D2E7FAEB33FB13F5F0EEA2E7D2E7FE82
:1002A300EF33FFC5F013A2E730E601B313C5F0C384
:1002B300C0E0C0F07F00C39BFB605E9418600F40FA
:1002C3001D14601AD0E023F9D0E0F80203A68AF0E7
:1002D300E9486003D2F0E4AFF0FAF9F8803BEB3081
:1002E300E40D89F0EA6003D2F0E4AFF0F9CAF8EB69
:1002F30030E30D88F0EF6002D2F0AFF0E4CAC9F842
:10030300EB54076014FBC3EA13FAE913F9E813F893
:10031300EF135002D2E0FFDBEDD0E0C0E030E7396D
:10032300C3E49FFFF5F0EC98FC42F0ED99FD42F039
:10033300EE9AFE42F0D0E0F9D0E0F8E5F0607AE919
:1003430023F9EE20E742D8028067C3EF33FFEC3393
:10035300FCED33FDEE33FE80EAEC28FCED39FDEED7
:100363003AFED0E023F9D0E0F84002801BC3EE133D
:10037300FEED13FDEC13FCEF135002D2E0FF08B8BF
:1003830000067F7F74FF802EEF3350178CF020F030
:100393000260100CBC000C0DBD00080EBE0004086A
:1003A300E860DFE933E813FFEE2313FE4F4D4C8083
:1003B30008E95480FFE4FEFDFCEE33EF33F47004F0
:1003C300FCFD7E80D0E0FBD0E0FAD0E0F8D0E0CFB7
:1003D300C618CEC618CDC618CCC6F9221212B870EC
:1003E30004181818221212C7700D74FFF61819F6A4
:1003F3001819F61819F622E7548066F612135E7080
:100403000F12135570F014F608F608F608F680D1AB
:10041300121355700CF608F608768008E6447F80C0
:10042300EC1211AB700C12119760BFE65480F6E426
:1004330080BB121197700519191980A5E869700C12
:10044300763F18768018F618F6E8F922E6CDC0E074
:1004530018ECC0E0E633CD33CDD313F6E719FCE750
:10046300191933CC33C3947F400ECD9D502408E635
:100473005480F6E418F6800FF4043D14501408E693
:10048300447FF6187680E418F618F6D0E0FCD0E046
:10049300FD22CCD313CCFD18E4C6CBC0E018E4C6D0
:1004A300CAC0E00808ED08C633E613F618E433C6FD
:1004B30075F003C3CA97CA09CB97CB199C40047D37
:1004C30008802EBD000302058816B6FF0506060840
:1004D3001618C3CA33CACB33CB33CA27CA09CB379F
:1004E300CB193CC37D08803E187D0820E75CC633EA
:1004F300C6CA33CACB33CB33DDF1D5F0EB30E77B60
:10050300CA97CA09CB974ACB199C406F4B7025E613
:1005130020E0218066187D08C3CA97CA09CB97CB10
:10052300199CD3C633C6CA33CACB33CB3350C9DDC8
:10053300E7D5F0E1D3E4C636C608C636C608C636E4
:10054300C608C636C61818188031C3CA97CA09CB5D
:1005530097CB199CB34097C633C6CA33CACB33CBA8
:1005630033DD34D5F02EC6A2E0C640C8CA27CA0977
:10057300CB37194A70BECB3CB480B90808E63308C0
:10058300E633601F181818D0E0FAD0E0FBD0E0FC87
:10059300D0E0FD22187D08CA27CA09CB37CB193C06
:1005A300D3808013F618E4B67F11F618B6FF0EF663
:1005B30018C60470D20808768080CAF618F618F6B2
:1005C30080C5001212B8604F1212C76012E7548040
:1005D30066F61211947011121355703B090909F450
:1005E300F618F618F618F6221211A8701512135EF3
:1005F30008080860EAE6447FF618768018E4F618DF
:10060300F62212135E60161213557012E4F608F602
:1006130008F608E65480F609090918181822EAC0F2
:10062300E0EBC0E0ECC0E0EDC0E0E687F0A4FBAC9B
:10063300F008E687F0A42CFCE435F0FA1809E68705
:10064300F0A42C4B60027401CA35F0FCE433FB09BF
:10065300E687F0D2F7A42CCB35F0FC1908E687F037
:10066300A42BCC35F0FBE433FD0819E687F0D2E781
:10067300A42C4ACB35F0CD3400FC09E687F0D2E751
:10068300A42DCC35F0FDE433FA0918E687F0D2F750
:10069300A42CCD35F0CA3400FC08E687F0D2E7D2AB
:1006A300F7A42ACC35F07A7E20E70B0ACB33CBCDE7
:1006B30033CDCC33CC33CB3350147004ED30E00E58
:1006C300D2F1E4CD3DCDCC3CCC3B5005DA05C2F1B3
:1006D300EB547FC63308E63392F0FBE73309E73385
:1006E300C39A502D2B70190C0D4C4D70151806E63E
:1006F30008C333700D20F10AA2F013F6E418800B3F
:100703004024E4F630F002768018F618F618F680E6
:1007130024D33B14501074FFA2F013F6187680E430
:1007230018F618F6800FA2F013F618E63303F6183E
:10073300ECF618EDF6D0E0FDD0E0FCD0E0FBD0E025
:10074300FA22C0E074F1120BB1A2AFE433F509D27F
:10075300AF85A708AFA1EF5508FE74105E600612BF
:10076300164C75A1EF74085E600812165275A1F756
:100773008024EFA2E092F0E508A2E082F050179007
:100783006198E0F8900610E0C398A2D265D0335088
:1007930002E8F075A1FE752300E509A2E092AF7FA0
:1007A30002020C10C0E074F2120BB1A2AFE433FEEC
:1007B300D2AF9061A4E0F8759B00E59158540860AE
:1007C300087591F71216A08023E59158541060081C
:1007D3007591EF1216A68014E591A2E092F0E8A2BB
:1007E300E082F05007E0C2E0F01217FC9061A3E052
:1007F300F8E5E9585404600E1217D275E9FB9061CD
:1008030093E0A2E640F2752300EEA2E092AF7F01EF
:10081300020C10C0E074F2120BB1A2AFE433FED2AB
:10082300AF9061A5E0F8E5BF585404600675BFFBBF
:1008330012181480D112088D30F0431208D2803E72
:100843008A088B098C0A8D0B780812088D20F01406
:1008530030E72B74FFFCFBFA747F8022E4FCFBFA85
:100863007480801AB48008BC00F2BB00EF800F5084
:10087300EBF9E4C39AFAE49BFBE49CFCE499C6CC51
:1008830018C6CB18C6CA18C6F922E4C9C608CAC610
:1008930008CBC6D3330308CCC63392F0C3947F404E
:1008A3002E94184019C9B90704CACBCC225025C3CA
:1008B30009CA33CACB33CBCC33CC33D9F422F4605B
:1008C3000DC9CCC313CB13CBCA13CAD9F6CC22E4BC
:1008D300FCFBFA2214FCFBFA22C3E498F8E499F92E
:1008E30012091D8026C3E49AFAE49BFBE920E7E999
:1008F30012091DE498F8E499F922C3E498F8E499FD
:10090300F912091DE498F8E499F9C3E49AFAE49B0F
:10091300FB22EB20E7CFE920E7E0B90010BB00089A
:10092300E88AF084F8AAF022E4FBC8FA22EB7022EA
:100933007B10C833C8C933C9335007C39AC3DBF22A
:1009430080069A50012ADBEAC833F4C8C933F4C9D4
:10095300FA2275F008E4C833C8C933C933C99AC940
:100963009B5004C92AC93BD5F0ECFBC833F4C8E457
:10097300C9FA22080808EAC0E0EBC0E086F0E7A461
:10098300FA180986F0E7A42AFA180986F0E7A42AD8
:10099300FA180986F0E7A42AFA1986F0E7A4FBE51A
:1009A300F02AFA190886F0E7A42BFBE5F03AFA19C6
:1009B3000886F0E7A42BFBE5F03AFA18180986F04D
:1009C300E7A4C5F02BFBE43AFA1908E7C5F0C6A47F
:1009D30026F6E5F03BFBE43AFA1886F0E7A4F6E5E1
:1009E300F00826F6E43B08F6E43A08F6D0E0FBD03C
:1009F300E0FA22080808E630E711121158120A0E2D
:100A0300080808C64480C618181822181818E97967
:100A13009EC608CAC608CBC608CCC6C37020799642
:100A2300CACBCC7019798ECBCC70137986CC700E6F
:100A3300F9802ACA33CACB33CBCC33CC331930E752
:100A4300F2CCCBCA3350147004EA30E00DE4CA3A56
:100A5300CACB3BCBCC3CCC500209C3E913C6CC1860
:100A63002313C6CB18C6CA18C6F922E4CFC0E0E4E4
:100A7300CEC0E0E4CDC0E0E4CCC0E075F020E626D3
:100A8300F608E633F608E633F608E633F6181818E0
:100A9300EC33FCED33FDEE33FEEF33FFC3EC97098C
:100AA300ED9709EE9709EF97191919400FFFEC9786
:100AB300FC09ED97FD09EE97FE191906D5F0BFEC79
:100AC300F709EDF709EEF709EFF7191919D0E0FC6B
:100AD300D0E0FDD0E0FED0E0FF222521C582C0E0BA
:100AE300E52234FFC583C0E0E521C3958224F810D5
:100AF300AF08858322858221800885832285822110
:100B0300D2AFCEF0A3E520F0A37808E608F0A3DE89
:100B1300FAEFF0A3E58124FAF8E608F0A3E608F07B
:100B2300A3E608F0A30808E608F0A3E608F0A31577
:100B3300811581D0E0FED0E0F8158115811581E89B
:100B4300C0E0EEC0E022121340B90003020B9BE4A5
:100B5300900501783379138002F0A3D8FCD9FA7891
:100B6300239000867A01BA00028007E493A3F60873
:100B7300DAF97A337B17900087781A79028015E4C3
:100B830093A3AD82AE838A828B83F0A3AA82AB83C5
:100B93008D828E83D8E9D9E77582DC7583DC740492
:100BA300120FE975822075832A7400120FE9C0D0F1
:100BB3002521C582C0E0E52234FFC583C0E0E521DD
:100BC300C3958224F310AF08858322858221800890
:100BD300858322858221D2AFC8F0A3E9F0A3EAF08E
:100BE300A3EBF0A37908E709F0A3D8FAECF0A3ED9F
:100BF300F0A3EEF0A3EFF0A3D0E0F0A3D0E0F0A3D6
:100C0300D0E0F0A3E520F0A3E5F0F0A32285228352
:100C1300852182E0C0E0A3E0F9A3E0FAA3E0FBA30F
:100C23007808E0F608A3DFFAE0FCA3E0FDA3E0FE0A
:100C3300A3E0FFA3E0C0E0A3E0C0E0A3E0F5D0A3FE
:100C4300E0F520A3E0A3F5F010AF088583228582A9
:100C5300218008858322858221D2AFD082D083D0A0
:100C6300E0F8D0E03275F0108E248F258582298537
:100C73008328852182852283E0CEA3E0CF85298244
:100C8300852883EBC9EAC8EDCBECCAC3E833C8E9CE
:100C930033C9EA33CAEB33CBC3EA9EF527EB9FF59F
:100CA30026B35004AB26AA27EC33CCED33CDD5F0D5
:100CB300DAAE24AF25221212B8601C1212C76017D5
:100CC30012135E70071213557001D322C0D0121392
:100CD300557006D0D0B322C32233D0D0501430E0A5
:100CE300F6C3E7960809E7960809E7960809E79621
:100CF300B32220E0D5E6970809E6970809E69708A6
:100D030009E697B322D083D082ECC0E0EDC0E0E4E3
:100D130093A3FCE493A3FDED4C600D120E2CEC2485
:100D2300FFFCED34FFFD80EFE493A3FCE493A3FD0C
:100D3300ED4C600D120EC9EC24FFFCED34FFFD8079
:100D4300EFD0E0FDD0E0FCE493A3C0E0E493C0E087
:100D5300221212B8601B1212C7601612135E7007BC
:100D6300121355600CB322C0D01213557005D0D0A6
:100D730022C32233D0D0501330E0EBC3E7960809E7
:100D8300E7960809E7960809E7962220E0E4E69744
:100D93000809E6970809E6970809E697228522835A
:100DA300852182E0A3FEE0A3F5207808E0A3F608FE
:100DB300DFFAE0A3FFE0A3C0E0E0A3C0E0E0A3C04C
:100DC300E0E0A3C0E0E0A3C0E010AF088582218586
:100DD30083228008858221858322D2AFD083D0826B
:100DE300020FEFD083D082E9C0E0E493A3C386F07F
:100DF300C5F095F0F908E493A386F0C5F095F0707B
:100E03000BE493A3C3994005E9048002A3E475F0BE
:100E130002A42582F582E5F03583F583D0E0F9E479
:100E230093A3C0E0E493C0E022C0E0C3E493960838
:100E33007401939618400FE4936670080874019345
:100E4300661870007019A3A3C3E493960874019302
:100E53009618A3A3400DD0E0D0E0D0E0020D44A348
:100E6300A3A3A3A3A3D0E02274048004740280008C
:100E7300CCC0E0EDC0E0E521C39CCCAD2250011D08
:100E830010AF068C218D2280068C218D22D2AF12C9
:100E93000F6BD0E0FDD0E0FC2274028000CCC0E0F8
:100EA300EDC0E0E521C39CCCAD2250011D10AF067F
:100EB3008C218D2280068C218D22D2AF120F49D036
:100EC300E0FDD0E0FC22C0E0C0F088F0E49366705F
:100ED300080874019366187000A8F0A3A3700BD0E0
:100EE300F0D0E0D0E0D0E0020D44A3A3D0F0D0E0F6
:100EF30022C0E074F2120BB1A2AFE433FED2AFE52D
:100F03008BA2E0500579041215A4758B00C2E87515
:100F13002300EEA2E092AF7F01020C10D083D082B7
:100F2300CCC0E0E493A36006120FAB1470FAE49311
:100F3300A360061210D81470FAD0E0FCE493A3C0A7
:100F4300E0E493C0E022CAC0E0E493A3C582CCC529
:100F530082C583CDC583F0A3C582CCC582C583CDAD
:100F6300C583DAE5D0E0CA22CAC0E0E0A3C582CCDB
:100F7300C582C583CDC583F0A3C582CCC582C58395
:100F8300CDC583DAE6D0E0CA22C008C3E096F508EF
:100F930008A3E096420808A3E096420808A3E09657
:100FA30045087001D3D00822C0E0E493A3D39C503A
:100FB30010E493A3C39C400AD0E0D0E0D0E0020F3A
:100FC3003CA3A3A3D0E022700908080822601618E6
:100FD3001818C6C333C608C633C608C633C608C600
:100FE30033C6D5E0EA22C09FF59FE473D09F22D099
:100FF30083D082C09FE493C0E0740193C0E0740285
:1010030093F59F22C0E0C0D0E8C0E0A8A8D2AFC249
:10101300C7752300E8A2E792AFD0E0F8D0D0D0E0C4
:10102300327404800A74038006740280027401C05F
:10103300E0F40412103FD0E0121303222521F582BD
:1010430010AF08F521400C15228008F52140021548
:1010530022D2AF8522832200C0D0252110AF08F50C
:1010630021500C05228008F52150020522D2AFD071
:10107300D022BB0102E722C082C08389828A83BB5C
:101083000003E08002E493D083D082226016080834
:1010930008C6C313C618C613C618C613C618C61384
:1010A300C6D5E0EA222521F8E43522F9222521FAE2
:1010B300E43522FB222521FCE43522FD22C3E0C6D0
:1010C30096F608A3E0C696F608A3E0C696F608A32C
:1010D300E0C696F622C0E0E493A36C7009D0E0D09A
:1010E300E0D0E0020F3CA3A3D0E022252110AF08FB
:1010F300F521400C15228008F52140021522D2AFBC
:1011030022E066701008A3E066700A08A3E0667028
:101113000408A3E06622E76670100809E766700A10
:101123000809E76670040809E76622C3E09608A386
:10113300E09608A3E09608A3E096A2D265D03322F6
:10114300C3E7960809E7960809E7960809E796A210
:10115300D265D03322181818E4C396F608E496F63D
:1011630008E496F608E496F622C3E096F008A3E0B6
:1011730096F008A3E096F008A3E096F022C3E69762
:10118300F60809E697F60809E697F60809E697F6DA
:1011930022181818E60846087009E626087005E6BE
:1011A30033F4220822191919E70947097009E727B7
:1011B300097005E733F4220922C3E4939608740106
:1011C30093960874029396087403939622E627F67F
:1011D3000809E637F60809E637F60809E637F6227E
:1011E300700422600D18C6C333C608C633C6D5E0E3
:1011F300F41822E657F60809E657F60809E657F603
:101203000809E657F622E026F608A3E036F608A317
:10121300E036F608A3E036F622E026F008A3E0362F
:10122300F008A3E036F008A3E036F022E056F00819
:10123300A3E056F008A3E056F008A3E056F022E638
:1012430047F60809E647F60809E647F60809E647B8
:10125300F622E056F608A3E056F608A3E056F60891
:10126300A3E056F622600D08C6A2E713C618C613FC
:10127300C6D5E0F322C6F4C608C6F4C608C6F4C64B
:1012830008C6F4C622C3E09608A3E09608A3E09636
:1012930008A3E09622C3E7960809E7960809E796AC
:1012A3000809E7962275D00075813F7521017522E3
:1012B3000500020B49E6084608C3134608336002DB
:1012C300E633F422E7094709C3134709336002E70A
:1012D30033F422600C08C6C313C618C613C6D5E080
:1012E300F422E6F008A3E6F008A3E6F008A3E6F08C
:1012F30022E0F608A3E0F608A3E0F608A3E0F6224E
:10130300CAC0E0E6F0A308DAFAD0E0FA22E0FAA3D2
:10131300E0FBA3E0FCA3E0FD22EAF0A3EBF0A3ECE7
:10132300F0A3EDF022E0F8A3E0F9A3E0FAA3E0FBD9
:1013330022E8F0A3E9F0A3EAF0A3EBF022E5C75417
:10134300F84401F5C77901222521F582E43522F518
:101353008322E72719471947194722E62618461813
:1013630046184622C2AF75D69F02000022120FF222
:1013730033DA02120FF2DFDA02120FF20FDB02127C
:101383000FF26FDB02120FF203DC02120FF2B4DC76
:1013930002120FF205DD02120FF249DD02120FF203
:1013A300E3DD02120FF253DE02120FF282DE0212AB
:1013B3000FF288DF02120FF2B2DF02120FF206E021
:1013C30002120FF2DAE002120FF208E302120FF236
:1013D300B6E302120FF223E602120FF2A8E602129C
:1013E3000FF2ABE902120FF2DFEB02120FF21BEC6A
:1013F30002120FF274ED02120FF287ED02120FF2D6
:10140300C4ED02120FF260EF02120FF214F1021296
:101413000FF275E004120FF2A9E004120FF2F7E0E5
:1014230004120FF2C9E104120FF2538E04120FF2E9
:10143300CF8E04120FF2028F04120FF2308F0412B8
:101443000FF26E8F04120FF2AB9104120FF2CA91D6
:1014530004120FF20F9204120FF2A59204120FF26C
:10146300F19204120FF2859304120FF25E940412A8
:101473000FF2BA9404120FF2189504120FF28B951F
:1014830004120FF2CF9504120FF2279604120FF2F3
:10149300499604120FF2D99604120FF26A970412B6
:1014A3000FF2B69704120FF2E29704120FF2239889
:1014B30004120FF2B99904120FF2A59A04120FF253
:1014C300809B04120FF2617D00120FF29B7D0012CC
:1014D3000FF2B67D00120FF2DB7D00120FF27D7E5C
:1014E30000120FF2987E00120FF27D7F00120FF2AE
:1014F300A77F00120FF29AF104120FF2B7F1041250
:101503000FF2C6DE04120FF215DF04120FF265DFCD
:1015130004120FF2A0DF04120FF2A6DF04120FF27F
:10152300D3DF04120FF2EBDF04120FF2B8DA041266
:101533000FF275DB04120FF25ADC04120FF248ECBF
:1015430004120FF259EC04120FF2F7EC04120FF22B
:1015530002ED04120FF21CED04120FF2F6FF01125A
:101563000FF2DAFF01120FF22BED04120FF23BED33
:1015730004120FF24DED04120FF2FFED04120FF2FD
:1015830055E904120FF2D9E904120FF241EA0412E9
:101593000FF25AEB04120FF2A7EB04120FF2B0EBA7
:1015A30004120FF2D7EB04120FF21FEC04120FF226
:1015B30036EC04120FF2EDFF01120FF2F0FF0112ED
:1015C3000FF2F87F00120FF2E0FD02120FF218FE85
:1015D30002120FF266FF02120FF2EAFF02120FF27B
:1015E30066B604120FF292B604120FF2FCB804129C
:1015F3000FF23CB904120FF278B904120FF28CB94E
:1016030004120FF2A5B904120FF297BA04120FF2E3
:101613004ABB04120FF25EBB04120FF207E204127C
:101623000FF22BE204120FF244E204120FF282E2F1
:1016330004120FF2B2E204120FF2DFE204120FF20D
:10164300E9E204120FF24FE304120FF252E3041221
:101653000FF25CE304120FF269E304120FF2D3D525
:1016630004120FF2F3D504120FF232D604120FF262
:1016730050D604120FF26BD604120FF2D1D6041215
:101683000FF2DDD604120FF23AD704120FF249D744
:1016930004120FF26DD704120FF22ED804120FF2B8
:1016A3003BD804120FF24CD804120FF2FAEF0412D3
:1016B3000FF242F004120FF26EF004120FF2B4BBF9
:1016C30004120FF20EBD04120FF21CBD04120FF22E
:1016D3002FBD04120FF244BD04120FF259BD0412C0
:1016E3000FF26CBD04120FF2E8BD04120FF24DBEEF
:1016F30004120FF2D5BE04120FF24DBF04120FF203
:1017030026C004120FF236C004120FF245C00412B1
:101713000FF261EF04120FF285EF04120FF2ADEF37
:1017230004120FF2D5EF04120FF257FD03120FF25A
:101733007EFD03120FF29CFD03120FF20BFE031248
:101743000FF200D304120FF219D304120FF225D3B0
:1017530004120FF239D304120FF257D304120FF20B
:1017630061D304120FF26BD304120FF27ED304126F
:101773000FF204D404120FF279D404120FF2A8D496
:1017830004120FF2F6D404120FF245D504120FF22D
:1017930060D504120FF26AD504120FF27BD504123E
:1017A3000FF2BED504120FF2EEF004120FF239F16C
:1017B30004120FF2F2A504120FF21EA604120FF286
:1017C3003BA604120FF24EA604120FF269A60412EE
:1017D3000FF2C3A604120FF2F1A604120FF201AB2B
:1017E30004120FF25FAC04120FF291AC04120FF269
:1017F300F4AC04120FF260AE04120FF288AE0412BE
:101803000FF29DAE04120FF2ADAE04120FF2EDAE65
:1018130004120FF22FAF04120FF23FAF04120FF2B4
:1018230009E604120FF223E604120FF24BE6041248
:101833000FF264E604120FF288E604120FF2A6E632
:1018430004120FF2BDE604120FF2EBE604120FF2DC
:1018530006E704120FF205EE04120FF249EE04122A
:101863000FF260C904120FF270C904120FF275CAA5
:1018730004120FF2A7CA04120FF2D7CA04120FF20E
:10188300FACA04120FF211CB04120FF24BCB04125B
:101893000FF2B0CB04120FF2F2CB04120FF239CCD9
:1018A30004120FF266CC04120FF291CC04120FF261
:1018B30073E304120FF285E304120FF299E40412A6
:1018C3000FF29CE404120FF24FE804120FF285E8C2
:1018D30004120FF29DE804120FF2DFE804120FF274
:1018E300EFE804120FF233E904120FF23DE9041298
:1018F3000FF26FAF04120FF2B2AF04120FF217B070
:1019030004120FF236B004120FF2D8B004120FF221
:10191300E1B004120FF232B104120FF25BB1041200
:101923000FF268B104120FF2DAB104120FF268B2C7
:1019330004120FF2ADB204120FF2E6B204120FF268
:101943004BB304120FF274B304120FF2EBB304128D
:101953000FF23AB404120FF277B404120FF2ACB4DC
:1019630004120FF2BEB404120FF2D0B404120FF239
:10197300EFB404120FF2F8B404120FF2B9B5041263
:101983000FF2FCB504120FF23AB604120FF245F14E
:1019930004120FF2C9E404120FF27AD804120FF200
:1019A300B0D804120FF2F8D804120FF251DA04126D
:1019B3000FF250DE03120FF276DF03120FF2B2DFE3
:1019C30003120FF270E103120FF29EE103120FF202
:1019D30008E403120FF248E403120FF2EAE50312DC
:1019E3000FF280E603120FF2DAE603120FF26AE750
:1019F30003120FF2AEE703120FF2F0E703120FF236
:101A030055E903120FF2D5EA03120FF216ED031292
:101A13000FF244ED03120FF270ED03120FF279EDA2
:101A230003120FF2D6ED03120FF26FEE03120FF251
:101A330086F103120FF20CF203120FF2B7EE041247
:101A43000FF2CFEE04120FF2D9EE04120FF22FEFC2
:101A530004120FF2F0C404120FF206C504120FF2BF
:101A6300A7C504120FF2E6C504120FF203C604124F
:101A73000FF234C604120FF281C604120FF2B5C678
:101A830004120FF2F0C604120FF2EDC804120FF2A3
:101A930053C904120FF25AEA04120FF2B9EA0412FC
:101AA3000FF2F7EA04120FF238EB04120FF239E7E0
:101AB30004120FF2F7E704120FF2008002120FF282
:101AC3000C8002120FF26E8002120FF27880021263
:101AD3000FF2078102120FF2438102120FF23C82CE
:101AE30002120FF2998202120FF2278302120FF2EF
:101AF300788302120FF2F88302120FF2BA850212F0
:101B03000FF2BF8702120FF2B98802120FF2EB89AC
:101B130002120FF23D8C02120FF2808D02120FF2AD
:101B2300258E02120FF2D39202120FF2C993021200
:101B33000FF25F9402120FF2849402120FF22195B6
:101B430002120FF23E9502120FF25E9502120FF28D
:101B5300CC9502120FF2E99502120FF217960212B8
:101B63000FF2AF9702120FF2D09702120FF276988C
:101B730002120FF2BE9802120FF21C9902120FF218
:101B8300BF9902120FF2249A02120FF2839A0212E1
:101B93000FF2359B02120FF2A49B02120FF2DF9B8E
:101BA30002120FF2539C02120FF29E9D02120FF2C9
:101BB3002E9F02120FF2CD9F02120FF20DA20212FC
:101BC3000FF26FA202120FF29DA202120FF2C0A433
:101BD30002120FF26AA702120FF27DA802120FF28D
:101BE300008004120FF2008304120FF2AC8404127B
:101BF3000FF2B98404120FF2D98404120FF2FA859A
:101C030004120FF2A28804120FF2468904120FF293
:101C1300658B04120FF2468C04120FF2A78D041287
:101C23000FF2358E04120FF2ACFF03120FF294FC85
:101C330001120FF253FD01120FF2B9FD01120FF25F
:101C430068FE01120FF21FC903120FF24EC90312ED
:101C53000FF2C6C903120FF2D5CA03120FF231CB2A
:101C630003120FF29ECC03120FF2BACC03120FF23F
:101C73000CCD03120FF24FCD03120FF262CD0312FC
:101C83000FF2BACD03120FF27CCE03120FF2F8CE8D
:101C930003120FF22FCF03120FF267CF03120FF2CB
:101CA300F9D003120FF2D8D103120FF226D3031285
:101CB3000FF209D403120FF295D403120FF2D5D405
:101CC30003120FF2F4D403120FF23FD503120FF2F3
:101CD3005FD503120FF2F8D503120FF27ED603126B
:101CE3000FF2D9D603120FF219D703120FF2AFD99D
:101CF30003120FF2C8DA03120FF20EDB03120FF214
:101D030003DC03120FF22BDC03120FF22EDC03129F
:101D13000FF238DC03120FF254DC03120FF2CEDCA5
:101D230003120FF207DD03120FF233DD03120FF27A
:101D33005ADD03120FF27EDD03120FF2EFDD031201
:101D43000FF202DE03120FF231DE03120FF271F013
:101D530004120FF27DF004120FF2B1F004120FF22D
:101D6300F3FF01120FF2F0B203120FF213B30312D7
:101D73000FF260B403120FF2A9B403120FF215B5F8
:101D830003120FF273B503120FF276B503120FF2BB
:101D9300C7B503120FF23CB603120FF2C1B603121A
:101DA3000FF2C4B603120FF245B703120FF286B750
:101DB30003120FF272BB03120FF21CBD03120FF2D8
:101DC3006CBD03120FF2F3C003120FF226C203120B
:101DD3000FF2A0C303120FF23DC403120FF228C582
:101DE30003120FF2CDA204120FF22BEC01120FF229
:101DF300D5EC01120FF240ED01120FF25BED01126F
:101E03000FF2E0ED01120FF23AEE01120FF281EE42
:101E130001120FF2E8EE01120FF267F001120FF256
:101E230096F101120FF21EF201120FF227F40112C2
:101E33000FF2D4F401120FF278F501120FF249F602
:101E430001120FF204F801120FF29CF901120FF2C2
:101E53002FFA01120FF255FB01120FF20080031249
:101E63000FF2638003120FF2CCD702120FF2EF804E
:101E730003120FF24A8103120FF2A78103120FF22A
:101E8300E28103120FF2648203120FF2BE82031285
:101E93000FF23C8403120FF2BC8403120FF2178576
:101EA30003120FF2318503120FF2528503120FF260
:101EB300AC8503120FF2288803120FF2478803122E
:101EC3000FF2378903120FF26A8A03120FF2E98ABB
:101ED30003120FF2258B03120FF2948B03120FF2EE
:101EE300498C03120FF2218E03120FF2288F031273
:101EF3000FF2A09003120FF2969203120FF20C95B9
:101F030003120FF2E69603120FF2A79703120FF2D2
:101F13001F9803120FF2369803120FF22D99031232
:101F23000FF2219A03120FF2909A03120FF20ED0BE
:101F330004120FF265D104120FF224D204120FF22D
:101F43008CD204120FF2E9CC04120FF204CD041266
:101F53000FF248CD04120FF26ECD04120FF295CD9D
:101F630004120FF2ADCD04120FF24FCE04120FF292
:101F730064CE04120FF287CF04120FF290CF041233
:101F83000FF299CF04120FF2A2CF04120FF2ACCFCB
:101F930004120FF276C004120FF282C404120FF27D
:101FA30087C404120FF289C404120FF253DD041222
:101FB3000FF2DEF104120FF29EAC02120FF2D1AC5B
:101FC30002120FF23DAD02120FF2D8AD02120FF260
:101FD30075AE02120FF2BAAE02120FF2DCAE0212AB
:101FE3000FF2F5AE02120FF21BAF02120FF23DAF6A
:101FF30002120FF27BAF02120FF2BFAF02120FF207
:10200300E1AF02120FF243B002120FF20AB1021251
:102013000FF2C1B102120FF233B202120FF2FEB28B
:1020230002120FF251B302120FF2B7B302120FF200
:10203300F1B302120FF243B402120FF2B1B402125F
:102043000FF21CB502120FF21FB502120FF2A0B568
:1020530002120FF237B602120FF2B7B602120FF2E4
:10206300D6B602120FF23AB802120FF247B80212B2
:102073000FF253B902120FF260B902120FF269B9EB
:1020830002120FF241BB02120FF25BBC02120FF2FB
:10209300D4BC02120FF246BD02120FF268BD021247
:1020A3000FF2FCBD02120FF2D0BF02120FF2A7C350
:1020B30002120FF2BBC302120FF2CBC302120FF2D2
:1020C300D5C302120FF2DEC302120FF2E7C30212EC
:1020D3000FF2F1C302120FF21EC402120FF247C431
:1020E30002120FF252C402120FF276C402120FF25E
:1020F3009AC402120FF204C502120FF24AC5021269
:102103000FF267C502120FF2E4C502120FF21BC6EB
:1021130002120FF25AC602120FF2A7C602120FF2F0
:102123002DC702120FF2FBC802120FF27EC9021270
:102133000FF262CA02120FF2C9CC02120FF222CDC1
:1021430002120FF26CCD02120FF2C7CE02120FF27F
:10215300FCCE02120FF24ECF02120FF203D0021284
:102163000FF2B2D002120FF2EFD002120FF284D1AB
:1021730002120FF2F0D102120FF2A43000120FF28A
:10218300D63000120FF2043100120FF2DA320012CD
:102193000FF2BA3300120FF2123400120FF24D3560
:1021A30000120FF2993500120FF2C23800120FF22B
:1021B300B53B00120FF2053D00120FF29B3D0012DA
:1021C3000FF2A73D00120FF2D93D00120FF25C3F50
:1021D30000120FF20D4100120FF2A14100120FF293
:1021E300E44100120FF2624200120FF27F4200122A
:1021F3000FF2AF4200120FF2E44200120FF2B443A7
:1022030000120FF25D4400120FF2E34600120FF2C8
:10221300034800120FF2EE4800120FF27049001249
:102223000FF2A44D00120FF2E14D00120FF2394EDE
:1022330000120FF26C4E00120FF2D64E00120FF284
:102243000C4F00120FF2974F00120FF2EF4F0012D4
:102253000FF2C65000120FF27F5100120FF21A5202
:1022630000120FF2225500120FF23E5600120FF227
:10227300E15900120FF2D55A00120FF2D85A001288
:102283000FF2075B00120FF20D5D00120FF2E65D15
:1022930000120FF2295E00120FF27F5F00120FF29D
:1022A300BE5F00120FF2476000120FF27B60001254
:1022B3000FF2406100120FF2586300120FF2C9636C
:1022C30000120FF2096400120FF2976400120FF26A
:1022D300B96500120FF27B6600120FF282680012DA
:1022E3000FF29A6800120FF2AE6800120FF2E6685E
:1022F30000120FF2146900120FF2936A00120FF228
:10230300B86B00120FF2156C00120FF2C76C0012BB
:102313000FF2EE6C00120FF2B56D00120FF24D6E5C
:1023230000120FF2737000120FF2A87000120FF276
:102333000B7100120FF23A7200120FF2E2720012E6
:102343000FF2137300120FF22B7300120FF2BA7312
:1023530000120FF26E7600120FF2467800120FF29F
:10236300627800120FF27E7800120FF24C7900129D
:102373000FF23F7D00120FF2498201120FF27B82AE
:1023830001120FF26A8601120FF2B68601120FF2E2
:10239300FC8601120FF29E8701120FF2FA870112D7
:1023A3000FF23F8801120FF2868901120FF29A8A07
:1023B30001120FF2898E01120FF20D8F01120FF22B
:1023C3001A9001120FF2769001120FF26692011227
:1023D3000FF2DB9201120FF2E59201120FF2F29269
:1023E30001120FF21D9301120FF2049401120FF266
:1023F300AE9401120FF22C9501120FF24C950112BB
:102403000FF2759501120FF2979501120FF2F797DC
:1024130001120FF2BD9801120FF2029901120FF28D
:102423007F9901120FF2309A01120FF2629A011290
:102433000FF2A89A01120FF2E49A01120FF2349BE1
:1024430001120FF2889B01120FF2DE9B01120FF2B1
:102453002A9C01120FF2979C01120FF2129D011296
:102463000FF2DD9E01120FF2DD9F01120FF202A1A6
:1024730001120FF241A401120FF254A701120FF23D
:1024830011A801120FF255A801120FF205AA0112A9
:102493000FF219AA01120FF223AA01120FF22DAAA9
:1024A30001120FF239AA01120FF255AA01120FF20B
:1024B30000AB01120FF23FAB01120FF249AB011255
:1024C3000FF253AB01120FF2C3AB01120FF20EACBA
:1024D30001120FF223AD01120FF27FAD01120FF2C1
:1024E30000AE01120FF2BFAE01120FF2C8AF01121C
:1024F3000FF2FCB001120FF2EAB101120FF202B2B5
:1025030001120FF25DB201120FF27BB201120FF250
:10251300C3B201120FF2EAB201120FF285B3011234
:102523000FF24BB401120FF2DDB401120FF257B5E3
:1025330001120FF271B601120FF21EB701120FF260
:1025430046B801120FF296B801120FF2FAB801124F
:102553000FF25CB901120FF28AB901120FF2AEB990
:1025630001120FF2E3B901120FF214BA01120FF2C2
:1025730047BA01120FF267BA01120FF2CFBA011272
:102583000FF2C3BB01120FF21EBC01120FF247BCC4
:1025930001120FF2CFBC01120FF252BD01120FF262
:1025A3007DBD01120FF262BE01120FF2CBF20212D5
:1025B3000FF203F302120FF224F302120FF266F387
:1025C30002120FF2C8F302120FF2D2F302120FF249
:1025D300E2F302120FF21DF402120FF2FDF70212E0
:1025E3000FF2EAF902120FF2D0FB02120FF267FCAC
:1025F30002120FF209FD02120FF264C001120FF270
:10260300E2C001120FF23EC101120FF289C10112A1
:102613000FF2A4C101120FF2CFC101120FF2ECC1EC
:1026230001120FF2F8C101120FF28FC301120FF260
:10263300A8C301120FF22DC401120FF240C40112FC
:102643000FF25FC401120FF203C501120FF284C629
:1026530001120FF237C801120FF2CDC801120FF2A7
:10266300D0C801120FF240C901120FF25EC9011264
:102673000FF2F5C901120FF23DCA01120FF240CA5F
:1026830001120FF206CB01120FF273CB01120FF2FC
:1026930099CB01120FF224CC01120FF242CC01129A
:1026A3000FF288CC01120FF23CCD01120FF286CD4E
:1026B30001120FF2B5CD01120FF212CE01120FF279
:1026C30047CE01120FF273CE01120FF281CE011227
:1026D3000FF2CECE01120FF23ECF01120FF287CFCF
:1026E30001120FF2D3CF01120FF2FFCF01120FF23B
:1026F3000AD001120FF228D001120FF213D10112E6
:102703000FF21DD101120FF258D101120FF268D14D
:1027130001120FF271D101120FF2C5D101120FF2A2
:10272300D9D101120FF208D301120FF21FD30112F4
:102733000FF234D301120FF2C2D301120FF207D4F6
:1027430001120FF293D401120FF29ED401120FF271
:10275300E0D501120FF2FBD501120FF247D6011299
:102763000FF2B6D601120FF2EFD601120FF209D70C
:1027730001120FF24BD701120FF21BDA01120FF203
:10278300C8DA01120FF235DB01120FF275DD011207
:102793000FF28DDD01120FF290DD01120FF29CDDBD
:1027A30001120FF2B0DD01120FF2B8DD01120FF2C8
:1027B300EBDD01120FF2EDDE01120FF274DF0112F5
:1027C3000FF2E4DF01120FF266E001120FF227E1CC
:1027D30001120FF246E101120FF2E7E101120FF2CB
:1027E30044E201120FF247E201120FF274E2011206
:1027F3000FF289E201120FF2FDE201120FF24CE433
:1028030001120FF252E501120FF2DDE501120FF290
:10281300F8E601120FF2C0E701120FF2F1E701121D
:102823000FF214E801120FF21DE801120FF24CE847
:1028330001120FF2DCE801120FF292E901120FF21A
:1028430007EA01120FF2AEEA01120FF223EB0112B3
:102853000FF25AEB01120FF298EB01120FF2CEEBCB
:1028630001120FF266A204120FF252A204120FF227
:10287300AFA104120FF2AFA004120FF2C89F04120B
:102883000FF2B89D04120FF2C69C04120FF2649C5F
:1028930004120FF2DCB203120FF2D2B203120FF2E0
:1028A30067B203120FF283D402120FF2D7D30212CC
:1028B3000FF29BB003120FF259B003120FF245D37C
:1028C30002120FF2FFD202120FF25DAF03120FF2E8
:1028D30031AF03120FF2E8AE03120FF229AE031267
:1028E3000FF229AB03120FF2FBA803120FF2C8A8D1
:1028F30003120FF26FA803120FF202A803120FF2D2
:10290300C1A703120FF2FAA603120FF294A6031241
:102913000FF233A603120FF2D3A503120FF2AAA4E8
:1029230003120FF23EA403120FF296A303120FF247
:1029330091A303120FF285A303120FF2B89F0312A0
:102943000FF2929F03120FF2CAD202120FF297D222
:1029530002120FF282D202120FF257D202120FF2B8
:10296300ACA504120FF278A504120FF221A50412EC
:102973000FF2309F03120FF2D19E03120FF2929EB9
:1029830003120FF27F9E03120FF28FA304120FF2B2
:10299300749E03120FF2439E03120FF2309C031234
:1029A3000FF2A39B03120FF2E1A204120FF25F9B3B
:1029B30003120FF2AB8003120FF2339B03120FF2D9
:1029C300F1FC03120FF2C4FC03120FF291FC031289
:1029D3000FF269FC03120FF20AFC03120FF2EAFB77
:1029E30003120FF2B5FB03120FF261F803120FF299
:1029F30049F603120FF233F403120FF2B3F3031287
:102A03000FF25FF303120FF213F303120FF2D7A2C5
:102A130004120FF26BF203120FF27DC703000000E2
:102A230080FBE4738F0001001118870001000F1869
:102A330035000400D81725000200DC172600020029
:102A4300DE1727000200E01728000100EA1729001B
:102A53000100EB17840004002315860001004117D1
:102A63002A000100EC172B000100ED172C000100D8
:102A7300F1172D0008002F152E000100F2172F006B
:102A83000100F31730000100F41731000100F517BE
:102A930032000100371533000100381534000100FE
:102AA300F61736000100391538000100F717390011
:102AB3000100F017830002000D18630001004515A3
:102AC30064000100EE1765000100EF176D000100BF
:102AD3004615710008002715660001000C18430015
:102AE3000100FD1744000200FE1745000100001815
:102AF300460002000118470008003D154800010088
:102B030003184B0001000418040001001018A10071
:102B1300010014183700010013188800010012186F
:102B23003C0001003A153D000100F817490002007E
:102B330005186700010047154D00020007184E00F5
:102B4300010009184F0002000A183E000100FC179B
:102B5300510001003B1552000100FA175300010018
:102B6300FB17540001003C150000000000000001A9
:102B730036360101000102010001030100010401D5
:102B8300060605020000070100340801000F0904CE
:102B930001010D0100FF0E080000170200001901DA
:102BA30000FF1A0100011B0100FE1C0100081D02A9
:102BB30000001F0100012001000121020000230188
:102BC300000F24020000260100012701000828024B
:102BD30000FF2A0100072B0102402C0100002D01F8
:102BE30000012E0100012F0100FF30010B1D3108F0
:102BF30000003A0100083B01000F3C0100013D01C8
:102C030000FF3E04000042040000460400004A04A2
:102C130000004E04000052040000560400005A0451
:102C23000000000000002001478200000100200195
:102C330048820000020020014382000003002001BB
:102C43004482000004004201DF80000005004201CD
:102C5300FE80000006004201F18000000B004201EB
:102C6300CC80000007003001458200000040420193
:102C730049810000FDFF21013F8200001000422333
:102C8300FE130000110030230F140300FDFF210188
:102C93003F8203000000212310140A0006002301D1
:102CA30093170204000029051214020410042923B7
:102CB30097170204200520238A1702040405102312
:102CC30089170103710301030103010301030103D5
:102CD30022030203010310030003000300030003A4
:102CE300000300030003420300032403060300035D
:102CF300000304031203250323032503230304030F
:102D0300040300030003000344030003000323033D
:102D1300000365032100350381030003050300035A
:102D230000030003000325032303030271023001A0
:102D3300600211027002010202020202800210020A
:102D430061023A00410063027302720262024302AB
:102D53000002130238000002000204021202000201
:102D630000020002000204020402370037003C02A2
:102D7300440200023900000200026502000235022B
:102D83008102000205028202830200020101710135
:102D93000101010111010101310101010101800161
:102DA300100161013B0014006301730172016201B0
:102DB30043010001130106013D0135000401120125
:102DC300000100010001000104010401330133018A
:102DD3003C0144013201360000010001650100019C
:102DE3003500810100010501820183010001030017
:102DF30071003001600011007000310220035004A3
:102E03008000100061000000140063007300720072
:102E130062004300000013000600000000000400ED
:102E2300120000000000000000000400040037004E
:102E330037003C0244000000000000000000650071
:102E43000000350081000000050000008300000041
:102E530036000100060000000F0000000000000023
:102E630000000000000003FFFF00000403FFFF0059
:102E730000FFFF0FF4010005C4040320000100005C
:102E83000B000000000000000003010F0000000021
:102E9300000000000000000000000000000000002F
:102EA30000000000000000000000000000009E1B66
:102EB300C81BA41BD81AAA1BCE1BAA1BDA1BB01B48
:102EC300D81AAA1BCE1BB61BD81A00000000BC1BC5
:102ED300D81A0000000000000000C21BD81A00002E
:102EE30000000000000000000000000000000000DF
:102EF30000000000000000000000000000000000CF
:102F03000000000000000000000001002000200578
:102F1300491701003E001B05C105010021002005E2
:102F23004A17010001022123811701001602102311
:102F33009B17010033002023801701003100302349
:102F43007F170100360228239D170804000021057E
:102F530016140000141E0100141E02008A1D0280B4
:102F6300841D0300901D0400961D04809C1D050014
:102F7300A21D0600AE1D3100C01D3300C61D340066
:102F8300CC1DFFFF00000300030004000800100035
:102F93001F003E007B00F600EC01D703AF075D0F77
:102FA300B91E713D000007ECFDFDFDECDCDCCCBC83
:102FB300ACAC9C9C8C7C7C6C6C5C5C5C4C4C3C3CFE
:102FC3002C2C1C1C03EAF5E5D5D5C5B5A59595852F
:102FD300857575656555554545353525251515059E
:102FE3000AF02302BA2305C62307C0230CA2230D2C
:102FF300AE23FF000000160F00000B150B020002AA
:10300300220F3300000E0F5A6967426565416C6CED
:1030130069616E63653039D0D1D2D3D4D5D6D7D8D0
:10302300D9DADBDCDDDEDF303016181920231A1C79
:103033001E3000034D4C4651181A25050200011994
:103043001618161618230300303017181921301BD1
:103053001D1F30003C40423A3F3F392F47300C0E92
:10306300020B040B0A0708000F020402010101010D
:103073000902000400002105141400BE040AE80339
:10308300000003000100E803240004091E140901E1
:1030930003101E030A0C040F0828020C050815056B
:1030A300FFC082C08312142A9015707492F0A37427
:1030B30021F09015727498F0A37421F09015747434
:1030C3009EF0A37421F090157674A4F0A37421F0FC
:1030D300025DDF74F7120ADD901564E4F0E99015E0
:1030E30063F07C3D7D157A657B15121AA890180351
:1030F300E090156DF090156E7427F0A374150240DF
:103103006C74F0120ADDEAFEEBFF548070030232A6
:1031130075901563124101700302326EEA241B128B
:10312300596C707CEA241F12596C64137002A3E07B
:10313300706E8A828B831232C390157E124EFE7597
:103143000A00750B00800D123F42126FDE1219AC9C
:10315300AA0EAB0FEA4B60488A828B83E0650C7042
:1031630004A3E0650D702C8A828B83A3A3A3A3E041
:10317300F50EA3E0F50FE50A450B8A828B83A3A323
:10318300A3A360C3124244850A82850B83A3A3A32E
:10319300A380B78A0A8B0B8A828B83124EFA80B480
:1031A300E508242A12596CFCE5082402F8E43509E1
:1031B300F9E8FAE9FB90157E1233AAA3A3E06402AF
:1031C300703C8A828B83124EFE800B88828983A394
:1031D300A3A3A3124244E849601F88828983E06A5B
:1031E3007003A3E06B70E488828983A3A3E06C700F
:1031F300DA901809125C9C806BECF91221CE8508D9
:1032030082850983E06401704FE50824181232AC0B
:10321300121030126586120E6BE50824121232ACBE
:10322300121030E5081240F512102CE508240B1299
:10323300658A120E6FE5082417124092E5082402EE
:10324300FCE43509FDE5082419FAE43509FB1229E4
:10325300F6740A12105A800CE064027007AA08ABD5
:10326300091222ACAA08AB09121916EEFAEF648010
:10327300802DEA5402600C9018187401F0EA64027D
:10328300FA8023EA5408601A1221C8EA4B700B90A3
:1032930015801264617A081232B9EE6408FAEFFB02
:1032A30080047A007B00026C10F582E43509F58313
:1032B300E0F50A780A22FB901563E0F9121A7822E6
:1032C300A3A3E0F50CA3E0F50D227B00901563E0CA
:1032D300F9121A6C74042274F4120ADD8A088B0939
:1032E3008A828B83A3A3A3124CF612409D38F583E5
:1032F300E02409FA126BA8700302339D8A828B8340
:103303007402124D6B8508828509831233AAE8F093
:10331300A3E91268228A828B83A3A3A3A3A3A3A3F3
:10332300A3F0E5082403F8E4350912339F12409D06
:103333003AF583E08E828B83A3A3A3A3F0EE240943
:10334300FAE43FFB8E828F83A3A3125F4EF583883B
:1033530082E0A2E58E828F83A3A3A3A3A350047468
:10336300018001E4F0E5082403F5828983124EFE0F
:10337300EA12547F3BF583126B6F12102812409CA4
:103383003B1260408E828F83A3A3127D1E12105ABC
:10339300EEFAEFFB901563126BF58016F98882F550
:1033A30083E0FAA3E0CA2212509BA3A32274021261
:1033B300105A7F04020DA074F2120ADD8A088B09E9
:1033C300ECFAEDFB740E12134BE0FC1214608A0C42
:1033D3008B0DAE0CAF0DEA4F6030AC08AD09121483
:1033E3004EE96026AC08AD09EEFAEFFB121454E97E
:1033F30070148E828F83124231FAEFFB121448AAA3
:1034030008AB091214787900800279B4024FEA7488
:10341300F0120ADD74F61210EEEAFEEBFF8C088D53
:1034230009750FB3852182852283E4F0750E008030
:1034330002050E9030A2E493F8E50EC39840030210
:103443003539AA0E7B0012149C8A0A8B0BEA4B6057
:10345300E08A828B83A3A312354028F0F8C3EE9849
:10346300EF940050CC7C157D007900AA08AB0912BB
:1034730018FE850A82850B83A3A3A3A312701BE006
:10348300F8EEC3982925E0F8E433F9E50A28F58234
:10349300E50B39F583A3A3A3A3A3A31240A7A31208
:1034A3005AC38A0C8B0DAC0CAD0DAA08AB09121ACA
:1034B300A8850A82850B83A3E06401700A126586DE
:1034C30074011240B9804474011210B8850A8285D0
:1034D3000B83124EFC121484E9603D740912134BE2
:1034E300E0C0E0126586D0E0F0740912134BE0648B
:1034F30003701374011210B8E508240BFAE43509BC
:10350300FB121AA88012740112134B124244E508ED
:10351300125AA93509126FDC850A82850B8312655D
:10352300921240B9A3A3E0C0E0E508241412658A0F
:10353300D0E0F0750F00A90F740A026C0DA3A3A3CA
:10354300E0F8852182852283E02274F7120ADDE9FF
:10355300FE8A828B83A3A3A3A3A3A3E054086033AF
:103563008A828B83A3A3A3A3A3A3E0540260218A2B
:10357300828B83A3A3A3A3A3A3A3A3A3E064066053
:103583000F74E96E600A74CD6E600574F06E70039B
:103593001221B00248E974F0120ADD74EF1210EE42
:1035A300740F12134B126345740812134BE9F0ECBA
:1035B300FEEDFF740512134B1246B11248D5A3E07A
:1035C300F912146C740612134B126345740612132A
:1035D3004B12551070030238541240E1E0FA74069E
:1035E30012134BE0F91220F01238B4F8A3E0F9E813
:1035F300497003023854EE2403F50AE43FF50BEE59
:103603002406F508E43FF5097C00850882F583125A
:103613004EFE850A82850B83E0F91214727403123D
:10362300134B126345850A82850B83E0C0E0852135
:10363300828522831238ADD0E0125625F985218286
:10364300852283123F49125177123543FAA3E0CA08
:103653002407F582E43AF583E8F0A3E412635024E7
:1036630006F582E438F583E4126FE8124CEA12108F
:1036730028EE12409D3F126040740312134B124C0C
:10368300F62409127D1812105A742912134B127062
:10369300151233A41256383A126FDC742B12134BE3
:1036A300E0C0E08521828522831254D7D0E0F074F4
:1036B3000212134BE4F0742512134B78081212F420
:1036C3000237AB740312134B1260088882F583121E
:1036D300389CA3A3A3125ACEFB12148A850E8285AB
:1036E3000F83A3EAF0A3EBF0740312134B1238AD6C
:1036F300A312389C125CDDA2E6500F850E82850F63
:1037030083A3A3A3A3A3E0D2E1F0740512134BE0B8
:10371300706B850E82850F83A31242449015BEE021
:10372300687003A3E0697055850E82850F83A3A398
:10373300A312407C750C00780C121030780812101C
:1037430024742912134BE0F50C780C1210307427F3
:1037530012134B120E6F9015CB120E6F7900741962
:1037630012134B124ECE1222F4740A12105A850E03
:1037730082850F83A3A3A3A3A3E04405F0740212DD
:10378300134BE004FC8E828F83124EF88E828F835C
:10379300A3A3A3E0F9121472740312134B1263452B
:1037A300740212134BE004F0740312134B125510FE
:1037B3006067740212134BE0FA740612134B124241
:1037C30044C3EA98E4995051740212134B123B8696
:1037D300852182852283E028F8A3E039F9E8240FC4
:1037E300F50EE439F50F850E82F583E4F0740312C8
:1037F300134B1238A7640160030236C67405121313
:103803004B7401126BFBF0740312134B125DCF1256
:103813003BA9E8F0A3E90236EA85218285228312D7
:103823004EFE1220F6852182852283120E6F7426A6
:1038330012134BE0FD742512134BE0FC740A1213B0
:103843004BE0F9EEFAEFFB1221AA740212105A8030
:10385300438E828F83A3A3A3E0C0E0740C12134BA7
:10386300D0E0F0126A64E0C0E0740D12134BD0E0B4
:10387300F0740612134B1255107009740E12134B89
:1038830074B98007740E12134B7410F0740912107C
:10389300B01222EE7411026C0DE0850E82850F8347
:1038A300A3A3A322E01255FDE022E01255FDA3A33A
:1038B30022852182852283EAF0A3EB125519227413
:1038C300F0120ADD74E11210EE740412134BE9F0E6
:1038D300740312134BECF0740212134BEDF08A0EC7
:1038E3008B0F742F12134B1232C5AA0CFB1220E458
:1038F300740112134BE9F0AA0CAB0D1220EA740108
:1039030012134BE07003023B81852182852283E4FD
:1039130080158E828F83A3A3A3A3A3E0D2E3F085B4
:103923002182852283E004126B53F885218285224C
:1039330083E0C3984003023B78740112134BE07099
:1039430003023B78852182852283123B86E50C287E
:10395300F8E50D39F9E8240FFEE439FF8E82F5838B
:10396300A3A3A3A3A3E0A2E040B5750800750A08CA
:10397300750B00740212134BE060037508207C087A
:103983007D00790074051210B01218FE8E828F83A9
:10399300E0603E90160EE06401701AE508D2E3F58C
:1039A30008750B10123B9612134BE8F0A3E912595A
:1039B300C174FF807643080C750A0C8E828F83A333
:1039C300123BA1126FDE740512134B74FFF0A38038
:1039D3005A740412134BE06009E508D2E6F5087542
:1039E3000A0A8E828F83A3E064FE7003A3E0F4705F
:1039F30030741212134B74041265B0F8741D121351
:103A03004BE8124D6B74121210B01220127D007C21
:103A1300007900741512134BAA82AB83121DFC802C
:103A23000B123B9612134BE8F0A3E9F07407121341
:103A33004BE508F01240D8C0E0740912134BD0E0F4
:103A4300F0740A12134B7401F074051210B01222B1
:103A5300B2741112134BE06003023B56740D121340
:103A63004B1256208E828F83A3A3A3A3F0740D124F
:103A7300134B124D39E50AF0A3E50BF0740312134F
:103A83004BE0C0E0124CCAD0E0125CDD601190162E
:103A93000EE0C0E0740D12134B124D14D0E0F0741D
:103AA3000D12134B124244850C82850D83A3A3A3ED
:103AB300A3A3123B8F241C12633F126FF8123B9196
:103AC300125C8F39126A83C0E0124CB1D0E0126BE2
:103AD30048C0E0740D12134B1247F7D0E012684947
:103AE300C0E0740D12134B1247EDD0E0F0740D12C9
:103AF300134B123BA1123B8F242A12633F850E8284
:103B0300850F83A3A3A3A3A3A3A3A3E012633812E4
:103B130040C7C0E01247D9D0E0F0740D12134B1226
:103B23004EFE850E82850F83126B5E2428F582E498
:103B33003B126FDC1240D0126B6F121028126039E7
:103B4300EA1262D13B127D1C12105A74051210B096
:103B53001222B88E828F83A3A3A3A3A3E0D2E0F0A3
:103B6300741112134BE06003023915740112134BE5
:103B7300E0140239217900AA0CAB0D1221B6741F8F
:103B8300026C0DE075F007A4F8A9F022A3A3124F6D
:103B930002E8228E828F83A3124248740522E01228
:103BA3003BA9A3A3A322F8A3E0F9850E82850F8383
:103BB300A32274F0120ADD74E81210EEE985218263
:103BC300852283F08A0E8B0F8A828B83A3A3A3A300
:103BD300A3A3A3A3E0F912210E8A088B09EA4B7071
:103BE30003023C92E50E1254931240F01240878573
:103BF3002182852283E06003023C957C04850E824A
:103C0300850F83A3A3A3A3A3A3A3A3E0F912211462
:103C1300EE4F607B8E828F83A3A3A3A312424474CF
:103C23000712134B126476124244740912134B1297
:103C33004D9BC0E0741112134BD0E0126827A3A36D
:103C4300A3A3A3A3A3124244740F12134B126FDE58
:103C5300741212134BE4126C03C8241FF582E43868
:103C6300F583126004C413135403FC70027C048EA6
:103C7300828F83E0F9780812102C742059FD744068
:103C830059F974031210B01221AA740212105A02C5
:103C93006C0B7C08850E82850F83A3A3A3A3A3A328
:103CA300A3A3E0F91221148B0BEA4B7003023C131C
:103CB300EE4F60DB852182852283E0F50C780C12C0
:103CC3001030850882850983A3A3A3A3A3A3A3E03C
:103CD300F50C780C1210308A828B83A3A3A3E0FB2C
:103CE3008A82850B8312783B8A82850B83E0FA8E66
:103CF300828F83A3A3E0F91229FC740212105A02E3
:103D03003C1774F7120ADD74FA1210EEE9FE78011B
:103D130079017F00800379000F12507AE0FCEFC332
:103D23009C5026EF75F007A4FC85F008AD08EA2C3B
:103D3300FCEB3DFD124669E0A2E050DA540C60D67C
:103D4300E0A2E250D3780080CF8A828B83A3A3A31F
:103D5300A3A3A3E0703DE9A2E0400574016E7033B4
:103D63008A828B83A3A3A3A3A3A37401124059E064
:103D7300C0E0740312134BD0E01246C8E0C0E074F5
:103D83000412134BD0E0F0740512134BE8125FA337
:103D93001222EE74060248E6C082C0837901122122
:103DA300B6025DDF74F4120ADDEA4B90181860194D
:103DB300E4F08A088B09F50AF50B78081210247AC7
:103DC300021232CD12105A800A7401F07A027B007B
:103DD3001232BA0233B574F0120ADD74F31210EE24
:103DE300740312134BE4F0A3F090157E1240877412
:103DF3000112134BE4F0A3124D7004F09015B8E0D8
:103E0300A2E35003023ECC12404D740912134B122D
:103E13001334740912134B78081212F49015807836
:103E2300081210C0740512134B78081212E5123FE2
:103E330050740512134B780812128850077A017BCD
:103E430000023F3D740512134B780C1212F49018C4
:103E530008E0F509780C7908120A6EA80CA90D90F0
:103E63001809E0C398E4995003E08001E8852182B2
:103E7300852283F0740912134B78081212F4C008D8
:103E8300C009C00AC00B740512134B780C1212F44C
:103E9300123F50780C7908120A6EE4F50AF50BD03C
:103EA3000FD00ED00DD00C780C790812118090151C
:103EB30080780C1212E58011123F42126FDEEEFA87
:103EC300EFFB1219ACAE08AF09EE4F60658E828F1F
:103ED30083123540C398502DEE2403F8E43FF9E0F4
:103EE300FA88828983E0C39AF06023740312134B28
:103EF3001243AA740112134BEEF0A3EF126491FE66
:103F0300A3E0FF80C48E828F83A3A3A3E4F08E82F9
:103F13008F83127CD5740112134B1255108E828F2E
:103F230083A3A3A3A3609112646A12134B123F49A4
:103F33008089740312134B124EFE740D026C0D1222
:103F4300424890157E2212602FA3A3A32290180744
:103F5300127CDDE4F50AF50B2274F0120ADD8A08FF
:103F63008B09890A7800790090157E124087FBEE51
:103F73004B601E088E828F83A3A3A3A3124EC86037
:103F83001008E87001098E828F83124083EA4F7014
:103F9300E390180A124EFEC3E89AE99B40030240DD
:103FA300407A06124043A80CA90DEA497003024067
:103FB300408A828B83E508F0A3E509124062E50A93
:103FC300F0901809125082124059A3E4F0A3F09024
:103FD300157E124EC8600D8E828F83A3A3A3A312F6
:103FE3006FDE801790157E126FDE9015B8E0A2E3A6
:103FF300400912404D9015801213349015B8E0A279
:10400300E3503A7A087B00901563E0F9121A7EEACE
:104013004B4C4D7028901807E0F508A3E085080C79
:10402300F50DE4F50EF50F780C1210247A087B00D9
:10403300901563E0F9121A72740412105A026C108C
:104043007B001219A68A0C8B0D22121A90EAF8EB48
:10405300F9ECFAEDFB2212405D22124062A322F03A
:104063008A828B83A3A322E508F00248E9F08E82BB
:104073008F83A3A3A3A3A3A32212597AA3A3F022FA
:10408300A3A3A3A3E0FEA3E0FF227F05020DA0F5F7
:1040930082E43509F583E0F922EA1240A1222410D3
:1040A300F582E4221240AFA3A3A3A32212424C85BC
:1040B3000882850983221240BD22F0850A82850B7E
:1040C30083A3A322E50E24111240EDE022E50E2482
:1040D3000E1240ED22E50E24101240EDE0221240B4
:1040E300E522EE1240A13FF58322F582E4350FF578
:1040F3008322240FF50AE43509F50B780A22E0F947
:104103001219288A088B09EA4B2274F2120ADD89F4
:104113000B8A088B098A828B83124EFE1221DAEAFC
:104123004B600479B8806A1221E6E9F8903094E490
:1041330093F9E8C399400479B280567A1512404343
:10414300AE0CAF0DEA4F7004791080458A828B83E1
:10415300E4F0A3124062E50BF0750A007808121030
:10416300287C127D00EA2403126B1A12105A901550
:10417300841255107008901584800C124244888272
:10418300898312419770F4EEF0A3EFF01221F879CE
:1041930000024FEA124F02EA4B8882898322C082CF
:1041A300C08390158480048C828D8312783CEC4DFF
:1041B30060288C828D83A3A3E069600574FF697016
:1041C300E68C828D83A3A3A3E06A7003A3E06B70E4
:1041D300D6EC2403FAE43DFB80047A007B00025D05
:1041E300DF74F7120ADDE9FD74FE6D70047C018053
:1041F300027C0090158480096D70027C018882899D
:1042030083125510601F88828983A3A3A3E06A7079
:1042130003A3E06B70E7ECA2E088828983A3A3E0A9
:1042230050D6F9800279FE0248E9EEF9800CA3A387
:10423300127CDDEE22740212105A7F02020DA0F5E9
:10424300831242482212424C22E0F8A3E0F92212E0
:10425300424C8E828F832212105A7F03020DA0C01C
:1042630082C0837900901584800109E0FAA3E08A73
:1042730082F583E582458370F1025DDF74F6120AED
:10428300DDE4F508F509780812102C903094E493D6
:1042930075F013A4A9F012439F12703C12105AE94F
:1042A300FE74096E70031221F202422D74F6120A93
:1042B300DD74FE1210EE852182852283E4F0A3F0E3
:1042C300A821A92288088909780812102C750802E8
:1042D300750900780812102C126CAD12105A0242A4
:1042E3003874F5120ADD74EB1210EE8521828522F3
:1042F30083E4F0A3F090158480748E828F83A3A34C
:10430300E0C0E0740212134BD0E01259C1A982AA93
:104313008389088A09750A0078081210287C127D9F
:1043230000740612134B12700112105A7402121009
:10433300A888088909780812102C750813750900D4
:10434300780812102C740412134B1254B375F01323
:10435300A4F8AAF075F013E912439B126CB512107E
:104363005A8521828522831243AA8E828F8312402B
:1043730087EE4F7085A821A9228808890978081239
:10438300102C750802750900780812102C126CADF8
:1043930012105A741502425AA42AF9E82402FCE4C2
:1043A30039FD7A427B0022E02401F0A3E03400F0DF
:1043B3002274F4120ADD74EB1210EE7E007F00A863
:1043C30021A92288088909780812102C7508028E01
:1043D30009780812102C7C007D007A421270481272
:1043E300105AE9706C8E08805674021210A8880A5D
:1043F300890B780A12102C750A13750B00780A12B0
:10440300102CE50875F013A4F8AAF075F013E5096C
:1044130012439B12704A12105AE9701B7403121351
:104423004BAA82AB83740212134BE0F91221D4E935
:1044330070050EEE70010F0508E508700205098589
:104443002182852283124244C3E50898E5099940F5
:1044530098EEFAEFFB74150233B274F6120ADD8C90
:10446300828D83A3A31246B6F0EA1262D73BF5838B
:10447300E0C0E0124673D0E0F0EA241DF582E43B8D
:104483001242421246571246B1F0A3F0EA241FF536
:1044930082E43BF583124087EC12464A3DF583EEF6
:1044A300F0A3EFF01246503BF583124681A3A3A37A
:1044B300A3A3A3EEF0A3EF125F32FE8C828D8312CF
:1044C30046C074035EFEC39403400302463DEE60A0
:1044D3000874026E60030245628C828D83E0540C83
:1044E300FE740C6E70030245A1E0A2E4400D8882C5
:1044F3008983E08C828D83A31246D674086E600391
:104503000245A11246617401F08A828B83A3A3A39F
:10451300A3A312598770148C828D83E0440C124636
:10452300C8A3A3124681EEF0A3EFF08C828D83E043
:10453300A2E4402B888212468F1246A4500109F54B
:104543008212468FA3A3A3A3A3A3F0A3EF1246D083
:104553008C828D83A3A3A3F0E82403F85001098878
:10456300828983E0C0E0EC2411F582E43DF583D039
:10457300E01246C08C828D83E0A2E7507588828961
:1045830083E0FE8C828D831246D674FC5E700C8CA5
:10459300828D83A3E054036403701E02463D1246DA
:1045A30061E4F0740C6E600302450C888212469538
:1045B3001246A450010902452E8C828D83A3E05438
:1045C30003603288828983E0C0E0EC12467B3DF5CC
:1045D30083D0E01246D78C828D83E054036402704B
:1045E3001488828983E0C0E0124669D0E01246D77E
:1045F3008003A3E4F0EC12547F3D126FDCEC241033
:10460300FEE43DFFEA241DF582E43BF583E0F50873
:104613008E828F83E0C3982508F508F0EA2417F803
:10462300E43BF98882F583E0C39508C0E01246575E
:10463300D0E0125F32C39508500A124657E4F012D5
:104643004673E4F002423D2415F582E422EA240D88
:10465300F582E422EC240DF582E43DF58322EC128D
:1046630056383DF58322EC2414F582E43DF583228C
:10467300EC1240A13DF583222413F582E422E0FEEF
:10468300A3E0FF8C828D83A3A3A3A322124695A349
:10469300A3228983E0F508A3E0FFE5088C828D83DC
:1046A30022A3A3A3A3F0A3EFF0E82402F822124667
:1046B300B6A322E4F08C828D83A3A3A3221246DE49
:1046C300A882A9832212405DA3A3A3A3221246DEDC
:1046D300A3E022A31246DE08A98322125F3BA32292
:1046E30074F4120ADD74F31210EE8A0A8B0BECFEDB
:1046F300EDFF8C82F583E0540CF508E0A2E7500649
:10470300E508D2E7F508E508D2E1F5081259877004
:1047130006E508D2E4F508E0A2E55006E508D2E58F
:10472300F5087C087D007900AA21AB221218FE74DB
:104733000212134BE508126FE2C0E0740312134B2D
:10474300D0E0124D70E50AF0A3E50BF074051213E7
:104753004B12684E12134BE07077740812134B120E
:104763004CF6125F2438126869C0E0740812134BC8
:104773001247F7D0E0126849C0E0740812134B12D5
:1047830047EDD0E0F0740812134B1247E3E0124DEB
:104793001E124D9F126338EE2411125953C0E012BA
:1047A30047D9D0E0F0EE2414125953C0E074081234
:1047B300134B124CF62435F582E438F583D0E0121E
:1047C3004D43C0E0740812134B124CFAD0E012654B
:1047D300A2740D0233B2E82432F582E439F5832260
:1047E300124252A3A3A3A3A3A322124D0A126A48FF
:1047F30038F58322124D0A2426F582E438F5832204
:1048030074F7120ADD7E008A828B83A3A3A3A3A37A
:10481300A3A3A3A3E0640460030248C5125630E0D7
:1048230060030248C51254923B12550E70030248AE
:10483300C588828983E0540360030248C5E81256A1
:104843003839F583E0FA8C828D83A3A3E0FBA3E0E0
:10485300CB2411F582E43BF583E06A706588828995
:1048630083A3A3A3A3A3A3A3A3A31248C9E06A702A
:1048730003A3E06B704C88828983A3A31248D5E01D
:10488300FFA3E0CF24061259536A7003A3E06B70B1
:104893003188828983A3A3E0F88C828D83A3A3E06C
:1048A300F9A3E0F5838982A3A3E06860138C828D6A
:1048B30083A3A3A3E0F5838982E0540C640470020C
:1048C3007E01EEF980201248CD22124F068C828D94
:1048D3008322A3A31248CDA3A322740C12134BE08B
:1048E300F9740D12105A7F01020DA074F6120ADD3D
:1048F30074FC1210EEEAFEEBFFECFAEDFB8C82F592
:1049030083A3E05403601690157A12551060597909
:1049130000EEFCEFFD12612F122A25804B852182C8
:10492300852283EEF0A3EFF0740212134B124D6550
:10493300AC21AD227A107B221224388A088B09A875
:1049430008A909EA4960218A828B83A3A3A3A3A3AD
:10495300A3A3A3A37406F07A0088828B83124CF678
:104963001262F8E0F9122396740402423A74F212C6
:104973000ADD74F31210EEEAFEEBFF8A82F583A3DD
:10498300A3A3A3A3A3A3A3A3A3E0F50A901818E0EA
:10499300700579BA024CAE750801750900750C00F3
:1049A300750D007C087D007900AA21AB221218FE48
:1049B300740512134B7401124D785404601274027F
:1049C30012134BE0D2E6124D7854087003750803B6
:1049D300E05410600674404508F508E0540860226E
:1049E300740212134BE044C0124D785420600A74D1
:1049F3000312134BE0D2E08008740312134BE0D28E
:104A0300E1F0EE2415125953124CDE700374016960
:104A1300700674084508F5088E828F83A3A3A3A3A9
:104A2300A3A3A3A3E0701612249285218285228377
:104A3300126345740212134BE0D2E28030640F70AC
:104A430010740212134B124D8074044508F508804C
:104A53007F8E828F83A3A3A3A3A3A3A3A3E0640254
:104A63008E828F83700A127015E8F0A3E9F08060DC
:104A7300A3A3A3A3A3A3A3A3E06403700DAC21ADDD
:104A830022EEFAEFFB12224680468E828F83A3A387
:104A9300A3A3A3A3A3A3E06401703590160EE06063
:104AA30010740212134B124D80750910750AFF80A2
:104AB30018740212134BE0440C124D7074FDF0A3F2
:104AC30074FFF074044508F5088E828F831232C593
:104AD300EE2415125953A2E0503F740212134BE017
:104AE300540C701B8E828F83124EFE121EC8E97007
:104AF3000579BB024CAE740212134BE0D2E5F0EE23
:104B03002415125953A2E05010740212134BE054AF
:104B13000C64047004E0D2E5F0EE2411125953C082
:104B2300E0740412134BD0E012685012134BE06090
:104B330003024CA7740812134B124D39E508F0A376
:104B4300E509F0124CD4E0C0E0124CCAD0E0F012F8
:104B53004CBBE0C0E0740812134B124CF612467BB8
:104B630038F583D0E0124D9F6401701190160EE06A
:104B7300C0E0740812134B124D14D0E0F074081205
:104B8300134B124D34124CC5FAE8241CF582E43958
:104B9300F583EA124D6BEE2415FAE43FFB8A82F5A6
:104BA3008312783CE8125C8F39F583124D65EE244D
:104BB3001C125953C0E0124CB1D0E0125DD5124C17
:104BC300DE70037401697013740812134B125620BC
:104BD300FAEE241D125953F912211A8E828F83A3E0
:104BE300A3A3A3A3A3A3A3A3E0C0E0740812134B3E
:104BF3001247F7D0E0F0740812134B1247EDE50AA1
:104C0300F0740812134B1254B32428F582E439F5D7
:104C130083E50CF0A3E50D124D4B124D1E1259CC3A
:104C2300126338EE124CC5C0E0E82433F582E43950
:104C3300F583D0E0F0EE241B125953C0E074081240
:104C4300134B124CFAD0E0F0EE241A125953C0E081
:104C5300740812134B124CF62432F582E438F583B0
:104C6300D0E0124D43124CEA121028126A4E127809
:104C73003C740B12134B124CF6242F127D18121096
:104C83005AEE24151259535440601290159A125536
:104C930010600AAA21AB2212612F122A25AA21AB86
:104CA300221222B8740C12134BE0F9024FE5E824E8
:104CB30020F582E439F58322EE2419F582E43FF5E9
:104CC3008322126A5DE022E82412F582E439F58337
:104CD30022EE2418F582E43FF583225480F8A3E002
:104CE3005401F974806822F508A3E0F509750A00F8
:104CF300780822124D0A22124D0A2434F582E43830
:104D0300F58322A3A3A3A3124D0E22E0F8A3E0C8C8
:104D130022124D0A12464A38F58322FAA3E0FBE831
:104D2300242AF582E439F583EAF0A3EB22A3A3A3B3
:104D3300A3124248EE221254B712549739F5832234
:104D4300F0EE24131259D422F0EE240D1259D4227A
:104D5300E0FC8A828B83E02CFCA3E03400FD8A8292
:104D63008B83ECF0A3EDF022F0A3E4F022F0852195
:104D73008285228322F0EE24151259D422E0D2E355
:104D8300F0124D88228E828F8312424C85218285B8
:104D93002283E8F0A3E9F022E8F0A3E912648BE0B0
:104DA3002274F7120ADD8A828B83A3E06401700404
:104DB3007E6380027E648A828B83E06008790512B9
:104DC3004DD824F3FE9015B6E06007F9124DD824B0
:104DD300F2FE0248C5122360E9F8EEC3982274F686
:104DE300120ADD74FE1210EE85218285228312637E
:104DF30045E9FEECFAEDFB9005C61255106032A8AA
:104E030021A92288088909780812102C7D01740EC3
:104E130012134BE0FCEEF99005C6126319122A2512
:104E2300740212105AEA4B60047900800679B2804A
:104E33000279B602423874F7120ADDE9FE90157062
:104E4300125510601F740912134BE0F5087808120D
:104E53001030EEF9901570126319122A257401129D
:104E6300105A800279B60248E974F7120ADD8908FC
:104E7300ECFEEDFF79B5E508245E6020146006249E
:104E8300F86034803D9005C8124EC86035127059E1
:104E9300122A258E828F8312634580249015721205
:104EA300783CEC4D601CEEFCEFFD9015721263191B
:104EB300122A25E9F9800B90156E124ECE121AA80C
:104EC30079000248E9124F02EA4B22127840EEFAC7
:104ED300EFFB2274F7120ADDE9FE79B574AB6E704D
:104EE3000B90156E124EFE121AA879000248E98E35
:104EF300828F83A3A3A3A3A3A3A3A3124F0222126C
:104F03004F0622E0FAA3E0FB2274F1120ADDEAFE67
:104F1300EBFF8C0A8D0B7508019015BEE06E7003D4
:104F2300A3E06F700C124FD9AA0AAB0B121AA88018
:104F33005E122498EE6A7002EF6B7009AA0AAB0B3B
:104F430012249E804AAC0AAD0BEEFAEFFB121FEE61
:104F5300E9F50890180FE07036122930E97030E552
:104F630008702C90158EE06E7003A3E06F7020EE36
:104F73004F601C750C86750D15750E00780C12109C
:104F8300287C087D00AA0AAB0B12700512105AA9DF
:104F93000802793874F2120ADDEAFEEBFF8C088D01
:104FA30009750A01124FD9EEFAEFFB121AA2E9644E
:104FB3000170119015BE124244850882850983123F
:104FC3006FDE800EAC08AD09EEFAEFFB121FF4E9B9
:104FD300F50AA90A801112248C8A0C8B0DAC0CAD36
:104FE3000D22740D12105A7F06020DA074F6120AD8
:104FF300DDEAFEEBFF7A0D7B001219A6EA4B606235
:10500300EE2424126CE2F0EE2425126CE2A312507B
:10501300A7126CE8A3A3126A7B125082F0EE12501F
:1050230068125097E8F0A3E91250BE12508F126F26
:10503300DEEE125071126B3EA3A3A3A3F0EE243352
:10504300125953C0E012507AD0E012686D12508F9B
:10505300A3A3A3E8F0A3E91250B6C0E0125630D0E0
:10506300E0F002423D242AF582E43FF58322242E18
:10507300F582E43FF58322EA125AA93BF583221213
:10508300508622E08A828B83A3A3A322126B9DA363
:10509300A3A3A32212509B2212424C8A828B83A386
:1050A300A3A3A322F01250AC22EE2426F582E43F00
:1050B300F58322F0EE24321259D422F0EE242C127E
:1050C30059D42274F4120ADD74FE1210EEECFEEDD4
:1050D300FFEC241612595364057010EC2406FCE40B
:1050E3003FFD122240E97003025172AC21AD22123E
:1050F3006D97121ECE852182852283125510606B17
:105103008E828F83E064017058E875F009A4F8AAD1
:10511300F075F009E9A42AF974E728F8740239F95B
:10512300E8FAE9FB8882F58378081212F4EE12524A
:10513300141212884027852182852283124D34124E
:10514300596112517778081212F490815B78081232
:1051530012098A828B8378081212E5800A79A28069
:1051630010EE240F126FD87900800679A18002799E
:10517300C80233B0124D95EE126A692274F2120A14
:10518300DD8A0C8B0DECFEEDFFEC125961E4F0A30C
:10519300F090818B78081212F4EC1252141211045D
:1051A3006067EC240E12595A703478B39015B5E049
:1051B30070289015E7E064017020EC241112595314
:1051C300F91223488B09A909EE1254933F12634342
:1051D300EA4960047800800278A18808802EE060A4
:1051E300046402700A122252E9F5087007801DE078
:1051F30064037010EEFCEFFDAA0CAB0D121EF2E976
:10520300F50880087508A180037508A3A908024F53
:10521300EA126A6978082274F0120ADD74F5121032
:10522300EEEAFEEBFFEA240AFCE43F8C82F58312EC
:105233007CD912549D74031210B88A828B83126135
:1052430039E9700302530374011210B87403121086
:10525300B0121ECE740112134B1255107003025379
:1052630003E875F009A4F8AAF075F009E9A42AF98E
:1052730074E328FC740239FDE508240E12658AE400
:10528300F00412134B124244E508125493350912E9
:105293006FDC8C828D83121328E508241212658A31
:1052A30012133490815B78081212F48C828D837808
:1052B3000812121C8C828D83780C1212F4908237A0
:1052C30078081212F4780C7908120A6EE508450979
:1052D300450A450B702A740112134B1254B375F02F
:1052E30009A4F8AAF075F009E9A42AF974EB28F5E2
:1052F30082740239F5837401F07A007B081254C07A
:105303008E828F83A3A3A3A3A3A3A3A3A3A3E02416
:1053130006FCA3E03400FD8E828F8312613912688C
:105323005B603EEE240A125485124D397468124DA7
:105333006BE812547F39F5837402F09015A01213B1
:10534300288C828D83126332125F243CF5831213FF
:105353003490815B78081212F49015A07808121229
:105363001C1254FB705D90156E1254ABA3A3A3A340
:10537300A3A3A3A3A3A3125F5A121AA2E970101244
:105383005F1890156E125F2A700512685B60348E89
:10539300828F83A3A3A3A3A3A3A3A3A3A31254AB07
:1053A300124EFE121EF8E960118E828F83A3A3A30F
:1053B300A3A3A31254E7E4F0A3F08E828F831254C5
:1053C300CDE4F01254FB600302547A8E828F83A3E0
:1053D300A3A3A3A3A3127CD59015B5E06003025445
:1053E3006F9015E7E06401600302546F750A3A7524
:1053F3000B00780A12102C74021210A8880A890B69
:10540300780A12102C1272D412105AE9705BE50854
:10541300240E12658A7401125515C0E0E5082411A3
:1054230012658AD0E0F0E508240F12658A743A12F7
:105433004D6B90159C121328E508241212658A12ED
:10544300133490815B78081212F490159C7808123B
:10545300121C90815B78081212F490159C78081244
:10546300110470081254BC800312549D1254FB7033
:1054730006125E1B74A1F0740B026C0D240EF582F0
:10548300E422F8E43FF9E8FCE9FD8882F58322EAA7
:1054930012549722240FF582E422E508125497351B
:1054A30009F583E4F0A3F0221278408E828F8322E1
:1054B3001254B72212424CE8227A007B029014461F
:1054C300E0F9121952228A828B83A3A3A3A3A3A375
:1054D300A3A3A3A31254DB22124D0E240EF582E4E0
:1054E30038F58322A3A3A3A31254EF22124D0E2453
:1054F3000FF582E438F583228E828F83A3A3A3A3BF
:10550300A3A3124D06240FF582E438F5831254B792
:10551300492212551922F0852182852283E02274C3
:10552300F6120ADDEAFEEBFF7A237B001219A6EEE0
:10553300240AF508E43FF5098508821263437C23B6
:105543007D0079001218FE850882850983125510A3
:1055530070030255E3EEFAEFFB12225E1254FB6076
:10556300748E828F8312561664018E828F83A3A357
:10557300A3A3A3A3700712560C740E802112551017
:10558300701012685B700B8E828F83A3A3E0A2E07E
:105593005007125602740D800512560274051268E4
:1055A3006D5403640170071255EA7405800B90155E
:1055B300B6E0C0E01255EAD0E0125625F5838882A2
:1055C300125980850882850983124CF61262D738F6
:1055D300F583E9800E8508828509831263BC800305
:1055E3001262FFF002423D8E828F83A3A3A3A3A383
:1055F300A3A3A3A3A31255FC22E012631EA3228E2E
:10560300828F83A3A3A3A3A3A3124D061262DD3843
:10561300F58322A3A3A3A3A3A3A3A3A3A31254DB4E
:10562300E02212562922126DACF8A3E022EA1256A8
:10563300383BF58322240CF582E42274F1120ADD4F
:1056430074E41210EE8A0C8B0D8C088D097A237B7F
:10565300001219A68A0A8B0BAE0AAF0BEA4F70032E
:1056630002593B1262E3E508241512596C68700372
:10567300A3E0698E828F837004740280027401F048
:10568300E508240DF8E43509F98882F583E0FAC3C7
:10569300E49AFA95E0FB1259682AFAA3E03BFB8EE1
:1056A300828F83A3A3A3A3125F418E828F83A3A3BD
:1056B300F0EE2420F582E43FF583E4F0EE2421F5B7
:1056C30082E43FF583E4F0EEFAEFFB122312850840
:1056D3008285098312598770098E828F83A374058B
:1056E30080069015B6125975F0EE2417F50AE43FBB
:1056F300F50B8E828F83125980E9850A82850B838D
:10570300F0EE2416F8E43FF9E508240EFAE435092F
:10571300FB88828983124D53E5082410FAE4350986
:10572300FB850A82850B83E0FC88828983E0F88A03
:10573300828B83E0C398C39CF81259C1F0EEFCEF4F
:10574300FDAA0CAB0D122258E9F50B8E828F83E074
:1057530064027006125F18125945E50B6003025983
:1057630032750C00750D0090180FE064016005E0C0
:105773006402703F1259576008EE242112595A707F
:10578300328E828F83A3A3A312630512598DEE2455
:10579300161259531259B6FAE439FB124045EA4B33
:1057A3006011126B6712102812599BAA0C12700514
:1057B30012105AEEFAEFFB12231EE9F50B90180FA5
:1057C300E064016008E064026003025925E97003A4
:1057D300025925E50C450D70030259328003850EED
:1057E3000B125957600BEE242112595A60030259C8
:1057F3002B850B0E850C08850D09750A0078081298
:10580300102812599B8E828F83A3A3A3A3127D1EFC
:1058130012105AEE2420125953600D125960746805
:10582300124D6BEE24208015EE242112595360157E
:105833001259607403F0A37401F0EE2421F582E49D
:105843003FF583E4F0EEFAEFFB12231EE9F50B704C
:10585300907C137D00790074091210B01218FE7445
:105863001A12134B74011259CC64687002A3E070CE
:105873004F8E828F831254E7E0640560030257E181
:105883007C0879FF8E828F83A3A3A3A3E0242A122B
:105893005F5D121988E970030257E17C087D007986
:1058A300FF74011210B01218FE74011210B87A00BE
:1058B3007B0079AB12223A741912134B74FC8015D6
:1058C300125960E064037004A3E064017008741962
:1058D30012134B74FFF0E4F508F509780812102C45
:1058E30074021210B8741312134BAA82AB8312649E
:1058F3004212105A852182852283E0602B7409129B
:1059030010A888088909780812102C7508137509DE
:1059130000780812102C7C007D00126CB512105A0E
:105923008006E50C450D6007AA0CAB0D1219ACEE11
:10593300FAEFFB1219AC8003750B10A90B741C0250
:105943007935EE2406FAE43FFB121AA822EE240C62
:105953001259D422EE24201259D4640122EE125497
:10596300973FF58322E508240EF582E43509F58394
:10597300E02212597AA322E08E828F8322A3E0F9D8
:1059830012236022E0540364012212599122E0FAA7
:10599300E82AF8E43400F9228E828F83A3A3A312AA
:1059A3006309125991EE24161259D41259B6FCE424
:1059B30039FD22FAE82AF8E439F9E82404221259D5
:1059C300C52212687CA3A3A322F01259D122EE248C
:1059D3000FF582E43FF583E0227901020FEF74F4BF
:1059E300120ADDEAFEEBFF8A82F583A3A3A3A3A336
:1059F300A3A3A3124CF62424F582E438F5831259A9
:105A030087702E8A828B831256167025125AAFE046
:105A13006405701D125AAFA3E0F874016860057441
:105A2300066870071254C9740280051254C97403BE
:105A3300F0EA240A1263B0126319E4F0EA2408F8C6
:105A4300E43F12339F2431F582E43AF583E0C0E06A
:105A5300127050A3A3D0E0125ACECA242EF582E4CA
:105A63003AF583E0C0E0127050A3A3A3D0E0125F25
:105A7300F4C8125AA938124242127050125AC38AF9
:105A83000A8B0BAC0AAD0B850882850983125F5A1A
:105A9300121AA8850882850983124EFE12231E124C
:105AA30063ABF00233B5240BF582E4228A828B8345
:105AB300A3A3A3A3A3A3A3A3126842F5838882226B
:105AC300A3A3A3A3124D9512248C22125F36FAA32B
:105AD300E0220259DCC082C0839015907464F0A365
:105AE3007422F09015927470F0A37422F0901594C0
:105AF3007476F0A37422F0901596746AF0A374225E
:105B0300F0025DDF74F4120ADDEA2408FEE43BFFD1
:105B13008E82F5831254B31262EFE0F508740355D5
:105B230008F509125F55F8A3E08882F583E508F0CC
:105B3300A3A882A983E509600974026509600302C9
