:020000040000FA
:060000000212A802081420
:03002B00021007B9
:03003300020EF4C6
:030053000207435E
:100083000207A501010000000000F8FF07FFFF00C1
:10009300000504000000030001FFFFFFFF00141030
:1000A3002700000020FD000206FFFF1E32000000B3
:1000B300640000001900000032000000010000008D
:1000C300F81B00000000000000000000000000001A
:1000D3000302030000000300000000092300640082
:1000E300230064000000000001000100010101047D
:1000F300010203020409810000000204010C000252
:1001030002F88100000003040106010201128200CB
:100113000000010400003914000000E8030000FFA0
:10012300FF8A1488130000E803000064006400B829
:1001330001A0BB0D00A0BB0D0002020207040107D2
:100143001E02051E020A0A010108080103B80B0278
:10015300803E0102FEFFE8030A050001FFFF020AD9
:10016300011401E0050301010F0300030003000371
:10017300000300030003000300030005000A00144A
:100183000028004F009E000000F92D00000000CD64
:100193002C00000000FF000000FF001212C76046A1
:1001A3001212B8603DE9687008F618F618F618F6EA
:1001B30022748067F71201D2090909748067F72254
:1001C3001212B8601D1212C77005191919801A127C
:1001D3001194701F1211A8C37003E667331919191C
:1001E30040071818182208080874FFF618F618F6BE
:1001F30018F6221211A86017121355702192F012EB
:10020300135E7019501720F014080808090909E74C
:10021300F61819E7F61819E7F61819E7F622121374
:100223005E60E6E869701F0808E62480F608E43695
:10023300F618547FB47F0CE654806007F6E418F692
:1002430018F622181822E9C6CC08C6CD08C6CE086F
:10025300C6CFC0E0E8C0E0EAC0E0EBC0E009E9F8DF
:1002630009E7FA09E7FBE6F918E6F8C3EC98ED9914
:10027300EE9AEBC2E7F5F0EFC2E795F0500E600C93
:10028300EBCFFBEACEFAE9CDF9E8CCF8EAA2E7D264
:10029300E7FAEB33FB13F5F0EEA2E7D2E7FEEF3319
:1002A300FFC5F013A2E730E601B313C5F0C3C0E006
:1002B300C0F07F00C39BFB605E9418600F401D1469
:1002C300601AD0E023F9D0E0F80203A48AF0E948E9
:1002D3006003D2F0E4AFF0FAF9F8803BEB30E40DC1
:1002E30089F0EA6003D2F0E4AFF0F9CAF8EB30E347
:1002F3000D88F0EF6002D2F0AFF0E4CAC9F8EB5416
:10030300076014FBC3EA13FAE913F9E813F8EF13D0
:100313005002D2E0FFDBEDD0E0C0E030E739C3E4C8
:100323009FFFF5F0EC98FC42F0ED99FD42F0EE9A58
:10033300FE42F0D0E0F9D0E0F8E5F0607AE923F985
:10034300EE20E742D8028067C3EF33FFEC33FCEDC6
:1003530033FDEE33FE80EAEC28FCED39FDEE3AFE88
:10036300D0E023F9D0E0F84002801BC3EE13FEED8A
:1003730013FDEC13FCEF135002D2E0FF08B80006A4
:100383007F7F74FF802EEF3350178CF020F00260D4
:10039300100CBC000C0DBD00080EBE000408E86084
:1003A300DFE933E813FFEE2313FE4F4D4C8008E9DA
:1003B3005480FFE4FEFDFCEE33EF33F47004FCFDE8
:1003C3007E80D0E0FBD0E0FAD0E0F8D0E0CFC618D2
:1003D300CEC618CDC618CCC6F9221212B8700418AE
:1003E3001818221212C7700D74FFF61819F618198F
:1003F300F61819F622E7548066F612135E700F1290
:10040300135570F014F608F608F608F680D11213A7
:1004130055700CF608F608768008E6447F80EC12E7
:1004230011AB700C12119760BFE65480F6E480BBE9
:10043300121197700519191980A5E869700C763F98
:1004430018768018F618F6E8F922E6CDC0E018EC25
:10045300C0E0E633CD33CDD313F6E719FCE7191922
:1004630033CC33C3947F400ECD9D502408E6548093
:10047300F6E418F6800FF4043D14501408E6447FA4
:10048300F6187680E418F618F6D0E0FCD0E0FD22EA
:10049300CCD313CCFD18E4C6CBC0E018E4C6CAC065
:1004A300E00808ED08C633E613F618E433C675F022
:1004B30003C3CA97CA09CB97CB199C40047D088014
:1004C3002EBD000302058616B6FF0506060816189C
:1004D300C3CA33CACB33CB33CA27CA09CB37CB19E9
:1004E3003CC37D08803E187D0820E75CC633C6CA3E
:1004F30033CACB33CB33DDF1D5F0EB30E77BCA978F
:10050300CA09CB974ACB199C406F4B7025E620E074
:10051300218066187D08C3CA97CA09CB97CB199C5B
:10052300D3C633C6CA33CACB33CB3350C9DDE7D5C1
:10053300F0E1D3E4C636C608C636C608C636C608D2
:10054300C636C61818188031C3CA97CA09CB97CBC9
:10055300199CB34097C633C6CA33CACB33CB33DDFA
:1005630034D5F02EC6A2E0C640C8CA27CA09CB3785
:10057300194A70BECB3CB480B90808E63308E633A9
:10058300601F181818D0E0FAD0E0FBD0E0FCD0E0F0
:10059300FD22187D08CA27CA09CB37CB193CD38063
:1005A3008013F618E4B67F11F618B6FF0EF618C6D8
:1005B3000470D20808768080CAF618F618F680C54B
:1005C300001212B8604F1212C76012E7548066F629
:1005D3001211947011121355703B090909F4F6189E
:1005E300F618F618F6221211A8701512135E0808F1
:1005F3000860EAE6447FF618768018E4F618F622D7
:1006030012135E60161213557012E4F608F608F61C
:1006130008E65480F609090918181822EAC0E0EB25
:10062300C0E0ECC0E0EDC0E0E687F0A4FBACF0086E
:10063300E687F0A42CFCE435F0FA1809E687F0A469
:100643002C4B60027401CA35F0FCE433FB09E687E6
:10065300F0D2F7A42CCB35F0FC1908E687F0A42BD5
:10066300CC35F0FBE433FD0819E687F0D2E7A42C80
:100673004ACB35F0CD3400FC09E687F0D2E7A42D50
:10068300CC35F0FDE433FA0918E687F0D2F7A42C51
:10069300CD35F0CA3400FC08E687F0D2E7D2F7A4E0
:1006A3002ACC35F07A7E20E70B0ACB33CBCD33CD82
:1006B300CC33CC33CB3350147004ED30E00ED2F195
:1006C300E4CD3DCDCC3CCC3B5005DA05C2F1EB5437
:1006D3007FC63308E63392F0FBE73309E733C39A67
:1006E300502D2B70190C0D4C4D70151806E608C3D0
:1006F30033700D20F10AA2F013F6E418800B4024A6
:10070300E4F630F002768018F618F618F68024D353
:100713003B14501074FFA2F013F6187680E418F619
:1007230018F6800FA2F013F618E63303F618ECF66A
:1007330018EDF6D0E0FDD0E0FCD0E0FBD0E0FA22EB
:10074300C0E074F1120BAFA2AFE433F509D2AF8569
:10075300A708AFA1EF5508FE74105E60061216528B
:1007630075A1EF74085E600812165875A1F780240E
:10077300EFA2E092F0E508A2E082F05017906198B2
:10078300E0F8900610E0C398A2D265D0335002E897
:10079300F075A1FE752300E509A2E092AF7F020286
:1007A3000C0EC0E074F2120BAFA2AFE433FED2AF73
:1007B3009061A4E0F8759B00E591585408600875B2
:1007C30091F71216A68023E591585410600875918D
:1007D300EF1216AC8014E591A2E092F0E8A2E08259
:1007E300F05007E0C2E0F01218029061A3E0F8E5D0
:1007F300E9585404600E1217D875E9FB906193E031
:10080300A2E640F2752300EEA2E092AF7F01020C54
:100813000EC0E074F2120BAFA2AFE433FED2AF907E
:1008230061A5E0F8E5BF585404600675BFFB1218D4
:100833001A80D112088B30F0431208D0803E8A0808
:100843008B098C0A8D0B780812088B20F01430E783
:100853002B74FFFCFBFA747F8022E4FCFBFA7480A8
:10086300801AB48008BC00F2BB00EF800F50EBF994
:10087300E4C39AFAE49BFBE49CFCE499C6CC18C657
:10088300CB18C6CA18C6F922E4C9C608CAC608CB1B
:10089300C6D3330308CCC63392F0C3947F402E945F
:1008A300184019C9B90704CACBCC225025C309CAB9
:1008B30033CACB33CBCC33CC33D9F422F4600DC958
:1008C300CCC313CB13CBCA13CAD9F6CC22E4FCFB9B
:1008D300FA2214FCFBFA22C3E498F8E499F912090A
:1008E3001B8026C3E49AFAE49BFBE920E7E912099B
:1008F3001BE498F8E499F922C3E498F8E499F9120F
:10090300091BE498F8E499F9C3E49AFAE49BFB22FF
:10091300EB20E7CFE920E7E0B90010BB0008E88A45
:10092300F084F8AAF022E4FBC8FA22EB70227B10D1
:10093300C833C8C933C9335007C39AC3DBF280062F
:100943009A50012ADBEAC833F4C8C933F4C9FA223E
:1009530075F008E4C833C8C933C933C99AC99B5071
:1009630004C92AC93BD5F0ECFBC833F4C8E4C9FA7F
:1009730022080808EAC0E0EBC0E086F0E7A4FA1812
:100983000986F0E7A42AFA180986F0E7A42AFA18D8
:100993000986F0E7A42AFA1986F0E7A4FBE5F02A12
:1009A300FA190886F0E7A42BFBE5F03AFA19088652
:1009B300F0E7A42BFBE5F03AFA18180986F0E7A450
:1009C300C5F02BFBE43AFA1908E7C5F0C6A426F6EE
:1009D300E5F03BFBE43AFA1886F0E7A4F6E5F00805
:1009E30026F6E43B08F6E43A08F6D0E0FBD0E0FA5A
:1009F30022080808E630E711121158120A0C0808F9
:100A030008C64480C618181822181818E9799EC613
:100A130008CAC608CBC608CCC6C370207996CACB11
:100A2300CC7019798ECBCC70137986CC700EF9808B
:100A33002ACA33CACB33CBCC33CC331930E7F2CC0D
:100A4300CBCA3350147004EA30E00DE4CA3ACACB7F
:100A53003BCBCC3CCC500209C3E913C6CC182313BF
:100A6300C6CB18C6CA18C6F922E4CFC0E0E4CEC08C
:100A7300E0E4CDC0E0E4CCC0E075F020E626F60863
:100A8300E633F608E633F608E633F6181818EC33BF
:100A9300FCED33FDEE33FEEF33FFC3EC9709ED9727
:100AA30009EE9709EF97191919400FFFEC97FC0905
:100AB300ED97FD09EE97FE191906D5F0BFECF7097E
:100AC300EDF709EEF709EFF7191919D0E0FCD0E0BB
:100AD300FDD0E0FED0E0FF222521C582C0E0E52263
:100AE30034FFC583C0E0E521C3958224F810AF0825
:100AF3008583228582218008858322858221D2AF46
:100B0300CEF0A3E520F0A37808E608F0A3DEFAEF21
:100B1300F0A3E58124FAF8E608F0A3E608F0A3E6DB
:100B230008F0A30808E608F0A3E608F0A31581156A
:100B330081D0E0FED0E0F8158115811581E8C0E091
:100B4300EEC0E022121340B90003020B99E49005B2
:100B530001782679138002F0A3D8FCD9FA78239080
:100B630000867A01BA00028007E493A3F608DAF953
:100B73007A267B17900087781879028015E493A36F
:100B8300AD82AE838A828B83F0A3AA82AB838D82EC
:100B93008E83D8E9D9E77582B87583D97404120FA7
:100BA300E975823275832A7400120FE9C0D02521BA
:100BB300C582C0E0E52234FFC583C0E0E521C395CB
:100BC3008224F310AF0885832285822180088583E0
:100BD30022858221D2AFC8F0A3E9F0A3EAF0A3EB08
:100BE300F0A37908E709F0A3D8FAECF0A3EDF0A39A
:100BF300EEF0A3EFF0A3D0E0F0A3D0E0F0A3D0E0B9
:100C0300F0A3E520F0A3E5F0F0A32285228385215C
:100C130082E0C0E0A3E0F9A3E0FAA3E0FBA3780835
:100C2300E0F608A3DFFAE0FCA3E0FDA3E0FEA3E007
:100C3300FFA3E0C0E0A3E0C0E0A3E0F5D0A3E0F5AC
:100C430020A3E0A3F5F010AF0885832285822180DD
:100C530008858322858221D2AFD082D083D0E0F869
:100C6300D0E032E47375F0108E248F2585822985B8
:100C73008328852182852283E0CEA3E0CF85298244
:100C8300852883EBC9EAC8EDCBECCAC3E833C8E9CE
:100C930033C9EA33CAEB33CBC3EA9EF527EB9FF59F
:100CA30026B35004AB26AA27EC33CCED33CDD5F0D5
:100CB300DAAE24AF25221212B8601C1212C76017D5
:100CC30012135E70071213557001D322C0D0121392
:100CD300557006D0D0B322C32233D0D0501430E0A5
:100CE300F6C3E7960809E7960809E7960809E79621
:100CF300B32220E0D5E6970809E6970809E69708A6
:100D030009E697B322D083D082ECC0E0EDC0E0E4E3
:100D130093A3FCE493A3FDED4C600D120E2CEC2485
:100D2300FFFCED34FFFD80EFE493A3FCE493A3FD0C
:100D3300ED4C600D120EC9EC24FFFCED34FFFD8079
:100D4300EFD0E0FDD0E0FCE493A3C0E0E493C0E087
:100D5300221212B8601B1212C7601612135E7007BC
:100D6300121355600CB322C0D01213557005D0D0A6
:100D730022C32233D0D0501330E0EBC3E7960809E7
:100D8300E7960809E7960809E7962220E0E4E69744
:100D93000809E6970809E6970809E697228522835A
:100DA300852182E0A3FEE0A3F5207808E0A3F608FE
:100DB300DFFAE0A3FFE0A3C0E0E0A3C0E0E0A3C04C
:100DC300E0E0A3C0E0E0A3C0E010AF088582218586
:100DD30083228008858221858322D2AFD083D0826B
:100DE300020FEFD083D082E9C0E0E493A3C386F07F
:100DF300C5F095F0F908E493A386F0C5F095F0707B
:100E03000BE493A3C3994005E9048002A3E475F0BE
:100E130002A42582F582E5F03583F583D0E0F9E479
:100E230093A3C0E0E493C0E022C0E0C3E493960838
:100E33007401939618400FE4936670080874019345
:100E4300661870007019A3A3C3E493960874019302
:100E53009618A3A3400DD0E0D0E0D0E0020D44A348
:100E6300A3A3A3A3A3D0E02274048004740280008C
:100E7300CCC0E0EDC0E0E521C39CCCAD2250011D08
:100E830010AF068C218D2280068C218D22D2AF12C9
:100E93000F6BD0E0FDD0E0FC2274028000CCC0E0F8
:100EA300EDC0E0E521C39CCCAD2250011D10AF067F
:100EB3008C218D2280068C218D22D2AF120F49D036
:100EC300E0FDD0E0FC22C0E0C0F088F0E49366705F
:100ED300080874019366187000A8F0A3A3700BD0E0
:100EE300F0D0E0D0E0D0E0020D44A3A3D0F0D0E0F6
:100EF30022C0E074F2120BAFA2AFE433FED2AFE52F
:100F03008BA2E0500579041215AA758B00C2E8750F
:100F13002300EEA2E092AF7F01020C0ED083D082B9
:100F2300CCC0E0E493A36006120FAB1470FAE49311
:100F3300A360061210D81470FAD0E0FCE493A3C0A7
:100F4300E0E493C0E022CAC0E0E493A3C582CCC529
:100F530082C583CDC583F0A3C582CCC582C583CDAD
:100F6300C583DAE5D0E0CA22CAC0E0E0A3C582CCDB
:100F7300C582C583CDC583F0A3C582CCC582C58395
:100F8300CDC583DAE6D0E0CA22C008C3E096F508EF
:100F930008A3E096420808A3E096420808A3E09657
:100FA30045087001D3D00822C0E0E493A3D39C503A
:100FB30010E493A3C39C400AD0E0D0E0D0E0020F3A
:100FC3003CA3A3A3D0E022700908080822601618E6
:100FD3001818C6C333C608C633C608C633C608C600
:100FE30033C6D5E0EA22C09FF59FE473D09F22D099
:100FF30083D082C09FE493C0E0740193C0E0740285
:1010030093F59F22C0E0C0D0E8C0E0A8A8D2AFC249
:10101300C7752300E8A2E792AFD0E0F8D0D0D0E0C4
:10102300327404800A74038006740280027401C05F
:10103300E0F40412103FD0E0121303222521F582BD
:1010430010AF08F521400C15228008F52140021548
:1010530022D2AF8522832200C0D0252110AF08F50C
:1010630021500C05228008F52150020522D2AFD071
:10107300D022BB0102E722C082C08389828A83BB5C
:101083000003E08002E493D083D082226016080834
:1010930008C6C313C618C613C618C613C618C61384
:1010A300C6D5E0EA222521F8E43522F9222521FAE2
:1010B300E43522FB222521FCE43522FD22C3E0C6D0
:1010C30096F608A3E0C696F608A3E0C696F608A32C
:1010D300E0C696F622C0E0E493A36C7009D0E0D09A
:1010E300E0D0E0020F3CA3A3D0E022252110AF08FB
:1010F300F521400C15228008F52140021522D2AFBC
:1011030022E066701008A3E066700A08A3E0667028
:101113000408A3E06622E76670100809E766700A10
:101123000809E76670040809E76622C3E09608A386
:10113300E09608A3E09608A3E096A2D265D03322F6
:10114300C3E7960809E7960809E7960809E796A210
:10115300D265D03322181818E4C396F608E496F63D
:1011630008E496F608E496F622C3E096F008A3E0B6
:1011730096F008A3E096F008A3E096F022C3E69762
:10118300F60809E697F60809E697F60809E697F6DA
:1011930022181818E60846087009E626087005E6BE
:1011A30033F4220822191919E70947097009E727B7
:1011B300097005E733F4220922C3E4939608740106
:1011C30093960874029396087403939622E627F67F
:1011D3000809E637F60809E637F60809E637F6227E
:1011E300700422600D18C6C333C608C633C6D5E0E3
:1011F300F41822E657F60809E657F60809E657F603
:101203000809E657F622E026F608A3E036F608A317
:10121300E036F608A3E036F622E026F008A3E0362F
:10122300F008A3E036F008A3E036F022E056F00819
:10123300A3E056F008A3E056F008A3E056F022E638
:1012430047F60809E647F60809E647F60809E647B8
:10125300F622E056F608A3E056F608A3E056F60891
:10126300A3E056F622600D08C6A2E713C618C613FC
:10127300C6D5E0F322C6F4C608C6F4C608C6F4C64B
:1012830008C6F4C622C3E09608A3E09608A3E09636
:1012930008A3E09622C3E7960809E7960809E796AC
:1012A3000809E7962275D00075813F7521017522E3
:1012B3000500020B47E6084608C3134608336002DD
:1012C300E633F422E7094709C3134709336002E70A
:1012D30033F422600C08C6C313C618C613C6D5E080
:1012E300F422E6F008A3E6F008A3E6F008A3E6F08C
:1012F30022E0F608A3E0F608A3E0F608A3E0F6224E
:10130300CAC0E0E6F0A308DAFAD0E0FA22E0FAA3D2
:10131300E0FBA3E0FCA3E0FD22EAF0A3EBF0A3ECE7
:10132300F0A3EDF022E0F8A3E0F9A3E0FAA3E0FBD9
:1013330022E8F0A3E9F0A3EAF0A3EBF022E5C75417
:10134300F84401F5C77901222521F582E43522F518
:101353008322E72719471947194722E62618461813
:1013630046184622C2AF75D69F02000022120FF222
:10137300CCD702120FF233DA02120FF2DFDA0212C3
:101383000FF20FDB02120FF26FDB02120FF203DC1C
:1013930002120FF2B4DC02120FF205DD02120FF299
:1013A30049DD02120FF2E3DD02120FF253DE0212E5
:1013B3000FF282DE02120FF288DF02120FF2B2DFA7
:1013C30002120FF206E002120FF2DAE002120FF23B
:1013D30008E302120FF2B6E302120FF223E602123F
:1013E3000FF2A8E602120FF2ABE902120FF2DFEBE3
:1013F30002120FF21BEC02120FF274ED02120FF243
:1014030087ED02120FF2C4ED02120FF260EF021227
:101413000FF214F102120FF251DD04120FF285DD07
:1014230004120FF2D3DD04120FF2A5DE04120FF241
:10143300008004120FF27C8004120FF2AF800412BA
:101443000FF2DD8004120FF21B8104120FF2588396
:1014530004120FF2778304120FF2BC8304120FF20B
:10146300528404120FF29E8404120FF23285041286
:101473000FF20B8604120FF2678604120FF2C58671
:1014830004120FF2388704120FF27C8704120FF252
:10149300D48704120FF2F68704120FF2868804121F
:1014A3000FF2178904120FF2638904120FF28F8966
:1014B30004120FF2D08904120FF2668B04120FF29A
:1014C300528C04120FF22D8D04120FF2717D001253
:1014D3000FF29B7D00120FF2B67D00120FF2DB7D3F
:1014E30000120FF27C7E00120FF2977E00120FF2B1
:1014F300757F00120FF29F7F00120FF217F0041294
:101503000FF239F004120FF2A2DB04120FF2F1DB37
:1015130004120FF241DC04120FF27CDC04120FF20E
:1015230082DC04120FF2AFDC04120FF2C7DC0412E8
:101533000FF2E3DE04120FF23DDF04120FF222E09A
:1015430004120FF2C5EA04120FF2D6EA04120FF2E4
:1015530074EB04120FF27FEB04120FF299EB0412F7
:101563000FF2EEFF01120FF2E7FF02120FF2A8EBE8
:1015730004120FF2B8EB04120FF2CAEB04120FF2CB
:101583007CEC04120FF2D2E704120FF256E80412B5
:101593000FF2BEE804120FF2D7E904120FF224EAA5
:1015A30004120FF22DEA04120FF254EA04120FF29E
:1015B3009CEA04120FF2B3EA04120FF2EF7F001257
:1015C3000FF2F27F00120FF2F87F00120FF2ABD787
:1015D30004120FF2E3D704120FF231D904120FF2FF
:1015E300B5D904120FF29CB304120FF2C8B304125C
:1015F3000FF232B604120FF272B604120FF2AEB645
:1016030004120FF2C2B604120FF2DBB604120FF289
:10161300CDB704120FF280B804120FF294B804127B
:101623000FF273E004120FF297E004120FF2B0E02E
:1016330004120FF2EEE004120FF21EE104120FF295
:101643004BE104120FF255E104120FF2BBE1041255
:101653000FF2BEE104120FF2C8E104120FF2D5E15A
:1016630004120FF2C6D204120FF2E6D204120FF2E2
:1016730025D304120FF243D304120FF25ED30412E4
:101683000FF2C4D304120FF2D0D304120FF22DD4ED
:1016930004120FF23CD404120FF260D404120FF2BE
:1016A30021D504120FF22ED504120FF23FD50412E6
:1016B3000FF277EE04120FF2BFEE04120FF2EBEE0D
:1016C30004120FF2EAB804120FF244BA04120FF232
:1016D30052BA04120FF265BA04120FF27ABA041264
:1016E3000FF28FBA04120FF2A2BA04120FF21EBB4A
:1016F30004120FF283BB04120FF20BBC04120FF29D
:1017030083BC04120FF25CBD04120FF26CBD041211
:101713000FF27BBD04120FF2DEED04120FF202EEA4
:1017230004120FF22AEE04120FF252EE04120FF219
:10173300A5FD03120FF2CCFD03120FF2EAFD031213
:101743000FF259FE03120FF2F3CF04120FF20CD073
:1017530004120FF218D004120FF22CD004120FF25D
:101763004AD004120FF254D004120FF25ED00412C6
:101773000FF271D004120FF2F7D004120FF26CD1F2
:1017830004120FF29BD104120FF2E9D104120FF2EB
:1017930038D204120FF253D204120FF25DD20412A4
:1017A3000FF26ED204120FF2B1D204120FF26BEFEA
:1017B30004120FF2B6EF04120FF228A304120FF271
:1017C30054A304120FF271A304120FF284A30412A0
:1017D3000FF29FA304120FF2F9A304120FF227A42E
:1017E30004120FF237A804120FF295A904120FF294
:1017F300C7A904120FF22AAA04120FF296AB04121D
:101803000FF2BEAB04120FF2D3AB04120FF2E3AB31
:1018130004120FF223AC04120FF265AC04120FF2A0
:1018230075AC04120FF286E404120FF2A0E4041262
:101833000FF2C8E404120FF2E1E404120FF205E51B
:1018430004120FF223E504120FF23AE504120FF229
:1018530068E504120FF283E504120FF282EC04121E
:101863000FF2C6EC04120FF265FC01120FF275FCC5
:1018730001120FF27AFD01120FF2ACFD01120FF209
:10188300DCFD01120FF2FFFD01120FF216FE011231
:101893000FF250FE01120FF2B5FE01120FF2F7FE26
:1018A30001120FF23EFF01120FF26BFF01120FF252
:1018B30096FF01120FF2DFE104120FF2F1E10412BD
:1018C3000FF205E304120FF208E304120FF2CCE661
:1018D30004120FF202E704120FF21AE704120FF2D6
:1018E3005CE704120FF26CE704120FF2B0E7041284
:1018F3000FF2BAE704120FF2A5AC04120FF2E8AC30
:1019030004120FF24DAD04120FF26CAD04120FF27C
:101913000EAE04120FF217AE04120FF268AE0412E9
:101923000FF291AE04120FF29EAE04120FF210AF3B
:1019330004120FF29EAF04120FF2E3AF04120FF280
:101943001CB004120FF281B004120FF2AAB00412F9
:101953000FF221B104120FF270B104120FF2ADB104
:1019630004120FF2E2B104120FF2F4B104120FF2F7
:1019730006B204120FF225B204120FF22EB20412B1
:101983000FF2EFB204120FF232B304120FF270B37C
:1019930004120FF2C2EF04120FF235E304120FF236
:1019A30075E404120FF26DD504120FF2A3D50412DD
:1019B3000FF2EBD504120FF244D704120FF275DEC7
:1019C30003120FF29BDF03120FF2D7DF03120FF2A2
:1019D30095E103120FF2C3E103120FF22DE4031298
:1019E3000FF26DE403120FF20FE603120FF2A5E6F6
:1019F30003120FF2FFE603120FF28FE703120FF247
:101A0300D3E703120FF215E803120FF27AE9031278
:101A13000FF2FAEA03120FF23BED03120FF269ED34
:101A230003120FF295ED03120FF29EED03120FF264
:101A3300FBED03120FF294EE03120FF2ABF103125C
:101A43000FF231F203120FF234ED04120FF24CEDE8
:101A530004120FF256ED04120FF2ACED04120FF262
:101A630026C204120FF23CC204120FF2DDC20412AA
:101A73000FF21CC304120FF239C304120FF26AC32C
:101A830004120FF2B7C304120FF2EBC304120FF2E6
:101A930026C404120FF223C604120FF289C60412DD
:101AA3000FF2D7E804120FF236E904120FF274E9C9
:101AB30004120FF2B5E904120FF2B6E504120FF2A5
:101AC30074E604120FF2008002120FF20C8002126D
:101AD3000FF26E8002120FF2788002120FF207816A
:101AE30002120FF2438102120FF23C8202120FF232
:101AF300998202120FF2278302120FF278830212E5
:101B03000FF2F88302120FF2BA8502120FF2BF87A7
:101B130002120FF2B98802120FF2EB8902120FF2CE
:101B23003D8C02120FF2808D02120FF2258E0212EB
:101B33000FF2D39202120FF2C99302120FF25F94C3
:101B430002120FF2849402120FF2219502120FF285
:101B53003E9502120FF25E9502120FF2CC9502121D
:101B63000FF2E99502120FF2179602120FF2AF97D6
:101B730002120FF2D09702120FF2769802120FF2AE
:101B8300BE9802120FF21C9902120FF2BF990212B1
:101B93000FF2249A02120FF2839A02120FF2359B6C
:101BA30002120FF2A49B02120FF2DF9B02120FF23A
:101BB300539C02120FF29E9D02120FF22E9F0212ED
:101BC3000FF2CD9F02120FF20DA202120FF26FA2BB
:101BD30002120FF29DA202120FF2C0A402120FF220
:101BE3006AA702120FF27DA802120FF2CBF20212C1
:101BF3000FF2B0F502120FF212F702120FF21FF7F3
:101C030002120FF23FF702120FF22CF802120FF238
:101C130015FA02120FF2B7FA02120FF2D0FC0212F7
:101C23000FF2A3FD02120FF283FE02120FF286FFE0
:101C330002120FF2D1FF02120FF28CF004120FF214
:101C430096C604120FF255C704120FF2BBC7041253
:101C53000FF26AC804120FF244C903120FF273C9D8
:101C630003120FF2EBC903120FF2FACA03120FF2B7
:101C730056CB03120FF2C3CC03120FF2DFCC0312C5
:101C83000FF231CD03120FF274CD03120FF287CD91
:101C930003120FF2DFCD03120FF2A1CE03120FF2E4
:101CA3001DCF03120FF254CF03120FF28CCF031286
:101CB3000FF21ED103120FF2FDD103120FF24BD319
:101CC30003120FF22ED403120FF2BAD403120FF23F
:101CD300FAD403120FF219D503120FF264D50312CB
:101CE3000FF284D503120FF21DD603120FF2A3D6FF
:101CF30003120FF2FED603120FF23ED703120FF2B6
:101D0300D4D903120FF2EDDA03120FF233DB03120D
:101D13000FF228DC03120FF250DC03120FF253DC34
:101D230003120FF25DDC03120FF279DC03120FF2E0
:101D3300F3DC03120FF22CDD03120FF258DD031252
:101D43000FF27FDD03120FF2A3DD03120FF214DE95
:101D530003120FF227DE03120FF256DE03120FF205
:101D6300EEEE04120FF2FAEE04120FF22EEF04124B
:101D73000FF2F57F00120FF215B303120FF238B30F
:101D830003120FF285B403120FF2CEB403120FF253
:101D93003AB503120FF298B503120FF29BB5031273
:101DA3000FF2ECB503120FF261B603120FF2E6B6AF
:101DB30003120FF2E9B603120FF26AB703120FF21E
:101DC300ABB703120FF297BB03120FF241BD03121D
:101DD3000FF291BD03120FF218C103120FF24BC29F
:101DE30003120FF2C5C303120FF2669F04120FF220
:101DF3004DC503120FF2A2C703120FF2FCEB01123F
:101E03000FF2A6EC01120FF211ED01120FF22CEDFD
:101E130001120FF2B1ED01120FF20BEE01120FF2EC
:101E230052EE01120FF2B9EE01120FF238F0011265
:101E33000FF267F101120FF2EFF101120FF2F8F353
:101E430001120FF2A5F401120FF249F501120FF27C
:101E53001AF601120FF2D5F701120FF26DF9011202
:101E63000FF200FA01120FF226FB01120FF283D4D4
:101E730002120FF2638003120FF2AB8003120FF210
:101E8300EF8003120FF24A8103120FF2A7810312AC
:101E93000FF2E28103120FF2648203120FF2BE8289
:101EA30003120FF23C8403120FF2BC8403120FF2ED
:101EB300178503120FF2318503120FF252850312B5
:101EC3000FF2AC8503120FF2288803120FF2478832
:101ED30003120FF2378903120FF26A8A03120FF209
:101EE300E98A03120FF2258B03120FF2948B03126C
:101EF3000FF2498C03120FF2218E03120FF2288F77
:101F030003120FF2A09003120FF2969203120FF234
:101F13000C9503120FF2E69603120FF2A797031222
:101F23000FF21F9803120FF2369803120FF22D9936
:101F330003120FF2219A03120FF2909A03120FF277
:101F430001CD04120FF258CE04120FF217CF041270
:101F53000FF27FCF04120FF2DCC904120FF2F7C99C
:101F630004120FF23BCA04120FF261CA04120FF2F9
:101F730088CA04120FF2A0CA04120FF242CB041251
:101F83000FF257CB04120FF27ACC04120FF283CC68
:101F930004120FF28CCC04120FF295CC04120FF240
:101FA3009FCC04120FF2ACBD04120FF2B8C104129D
:101FB3000FF2BDC104120FF2BFC104120FF22FDAE8
:101FC30004120FF260F004120FF29EAC02120FF231
:101FD300D1AC02120FF23DAD02120FF2D8AD0212D4
:101FE3000FF275AE02120FF2BAAE02120FF2DCAEAE
:101FF30002120FF2F5AE02120FF21BAF02120FF232
:102003003DAF02120FF27BAF02120FF2BFAF02120B
:102013000FF2E1AF02120FF243B002120FF20AB154
:1020230002120FF2C1B102120FF233B202120FF217
:10203300FEB202120FF251B302120FF2B7B3021241
:102043000FF2F1B302120FF243B402120FF2B1B462
:1020530002120FF21CB502120FF21FB502120FF299
:10206300A0B502120FF237B602120FF2B7B6021280
:102073000FF2D6B602120FF23AB802120FF247B8B5
:1020830002120FF253B902120FF260B902120FF2E9
:1020930069B902120FF241BB02120FF25BBC0212CA
:1020A3000FF2D4BC02120FF246BD02120FF268BD4A
:1020B30002120FF2FCBD02120FF2D0BF02120FF296
:1020C300A7C302120FF2BBC302120FF2CBC3021259
:1020D3000FF2D5C302120FF2DEC302120FF2E7C3EF
:1020E30002120FF2F1C302120FF21EC402120FF218
:1020F30047C402120FF252C402120FF276C4021244
:102103000FF29AC402120FF204C502120FF24AC56B
:1021130002120FF267C502120FF2E4C502120FF2A8
:102123001BC602120FF25AC602120FF2A7C6021200
:102133000FF22DC702120FF2FBC802120FF27EC973
:1021430002120FF262CA02120FF2C9CC02120FF28C
:1021530022CD02120FF26CCD02120FF2C7CE021281
:102163000FF2FCCE02120FF24ECF02120FF203D087
:1021730002120FF2B2D002120FF2EFD002120FF2DC
:1021830084D102120FF2F0D102120FF2B430001216
:102193000FF2E63000120FF2143100120FF2EA329E
:1021A30000120FF2CA3300120FF2223400120FF2A0
:1021B3005D3500120FF2A93500120FF2D23800126A
:1021C3000FF2C53B00120FF2153D00120FF2AB3DAB
:1021D30000120FF2B73D00120FF2E93D00120FF2A9
:1021E3006C3F00120FF21D4100120FF2B1410012B9
:1021F3000FF2F44100120FF2724200120FF28F42FB
:1022030000120FF2BF4200120FF2F44200120FF25B
:10221300C44300120FF26D4400120FF2F346001292
:102223000FF2134800120FF2FE4800120FF280491A
:1022330000120FF2B44D00120FF2F14D00120FF223
:10224300494E00120FF27C4E00120FF2E64E0012BE
:102253000FF21C4F00120FF2A74F00120FF2FF4FA5
:1022630000120FF2D65000120FF28F5100120FF22C
:102273002A5200120FF2325500120FF24E5600127C
:102283000FF2F15900120FF2E55A00120FF2E85A59
:1022930000120FF2175B00120FF21D5D00120FF216
:1022A300F65D00120FF2395E00120FF28F5F00121B
:1022B3000FF2CE5F00120FF2576000120FF28B6025
:1022C30000120FF2506100120FF2686300120FF256
:1022D300D96300120FF2196400120FF2A7640012FF
:1022E3000FF2C96500120FF28B6600120FF29268AB
:1022F30000120FF2AA6800120FF2BE6800120FF26A
:10230300F66800120FF2246900120FF2A36A00129A
:102313000FF2C86B00120FF2256C00120FF2D76C8C
:1023230000120FF2FE6C00120FF2C56D00120FF2D5
:102333005D6E00120FF2837000120FF2B87000127C
:102343000FF21B7100120FF24A7200120FF2F272B7
:1023530000120FF2237300120FF23B7300120FF2FD
:10236300CA7300120FF27E7600120FF25678001233
:102373000FF2727800120FF28E7800120FF25C796E
:1023830000120FF24F7D00120FF21A8201120FF2A8
:102393004C8201120FF23B8601120FF28786011263
:1023A3000FF2CD8601120FF26F8701120FF2CB8766
:1023B30001120FF2108801120FF2578901120FF266
:1023C3006B8A01120FF25A8E01120FF2DE8E011286
:1023D3000FF2EB8F01120FF2479001120FF23792B7
:1023E30001120FF2AC9201120FF2B69201120FF228
:1023F300C39201120FF2EE9201120FF2D593011262
:102403000FF27F9401120FF2FD9401120FF21D954A
:1024130001120FF2469501120FF2689501120FF2A5
:10242300C89701120FF28E9801120FF2D39801127E
:102433000FF2509901120FF2019A01120FF2339A1F
:1024430001120FF2799A01120FF2B59A01120FF2EB
:10245300059B01120FF2599B01120FF2AF9B011260
:102463000FF2FB9B01120FF2689C01120FF2E39C27
:1024730001120FF2AE9E01120FF2AE9F01120FF284
:10248300D3A001120FF212A401120FF225A7011219
:102493000FF2E2A701120FF226A801120FF2D6A93A
:1024A30001120FF2EAA901120FF2F4A901120FF2BD
:1024B300FEA901120FF20AAA01120FF226AA0112B3
:1024C3000FF2D1AA01120FF210AB01120FF21AABE5
:1024D30001120FF224AB01120FF294AB01120FF2AF
:1024E300DFAB01120FF2F4AC01120FF250AD011287
:1024F3000FF2D1AD01120FF290AE01120FF299AFAC
:1025030001120FF2CDB001120FF2BBB101120FF2A3
:10251300D3B101120FF22EB201120FF24CB201121B
:102523000FF294B201120FF2BBB201120FF256B3C3
:1025330001120FF21CB401120FF2AEB401120FF22A
:1025430028B501120FF242B601120FF2EFB60112D3
:102553000FF217B801120FF267B801120FF2CBB8DE
:1025630001120FF22DB901120FF25BB901120FF232
:102573007FB901120FF2B4B901120FF2E5B90112DA
:102583000FF218BA01120FF238BA01120FF2A0BA01
:1025930001120FF294BB01120FF2EFBB01120FF203
:1025A30018BC01120FF2A0BC01120FF223BD0112DD
:1025B3000FF24EBD01120FF233BE01120FF290F271
:1025C30003120FF2C8F203120FF2E9F203120FF231
:1025D3002BF303120FF28DF303120FF297F303128F
:1025E3000FF2A7F303120FF2E2F303120FF2C2F793
:1025F30003120FF2AFF903120FF295FB03120FF25E
:102603002CFC03120FF2CEFC03120FF235C00112A1
:102613000FF2B3C001120FF20FC101120FF25AC130
:1026230001120FF275C101120FF2A0C101120FF2D4
:10263300BDC101120FF2C9C101120FF260C3011231
:102643000FF279C301120FF2FEC301120FF211C48C
:1026530001120FF230C401120FF2D4C401120FF2AF
:1026630055C601120FF208C801120FF29EC80112DB
:102673000FF2A1C801120FF211C901120FF22FC9F3
:1026830001120FF2C6C901120FF20ECA01120FF2A4
:1026930011CA01120FF2D7CA01120FF244CB011271
:1026A3000FF26ACB01120FF2F5CB01120FF213CC2A
:1026B30001120FF259CC01120FF20DCD01120FF2DC
:1026C30057CD01120FF286CD01120FF2E3CD0112A5
:1026D3000FF218CE01120FF244CE01120FF252CEB6
:1026E30001120FF29FCE01120FF20FCF01120FF260
:1026F30058CF01120FF2A4CF01120FF2D0CF011263
:102703000FF2DBCF01120FF2F9CF01120FF2E4D077
:1027130001120FF2EED001120FF229D101120FF2C2
:1027230039D101120FF242D101120FF296D10112E7
:102733000FF2AAD101120FF2D9D201120FF2F0D285
:1027430001120FF205D301120FF293D301120FF20C
:10275300D8D301120FF264D401120FF26FD4011215
:102763000FF2B1D501120FF2CCD501120FF218D628
:1027730001120FF287D601120FF2C0D601120FF227
:10278300DAD601120FF21CD701120FF2ECD90112A3
:102793000FF299DA01120FF206DB01120FF246DD96
:1027A30001120FF25EDD01120FF261DD01120FF271
:1027B3006DDD01120FF281DD01120FF289DD0112CD
:1027C3000FF2BCDD01120FF2BEDE01120FF245DF84
:1027D30001120FF2B5DF01120FF237E001120FF20F
:1027E300F8E001120FF217E101120FF2B8E1011242
:1027F3000FF215E201120FF218E201120FF245E295
:1028030001120FF25AE201120FF2CEE201120FF29D
:102813001DE401120FF223E501120FF2AEE50112DE
:102823000FF2C9E601120FF291E701120FF2C2E7AC
:1028330001120FF2E5E701120FF2EEE701120FF2B8
:102843001DE801120FF2ADE801120FF263E9011264
:102853000FF2D8E901120FF27FEA01120FF2F4EA44
:1028630001120FF22BEB01120FF269EB01120FF2BF
:102873009FEB01120FF2FF9E04120FF2EB9E041264
:102883000FF2489E04120FF2489D04120FF2619C4E
:1028930004120FF2519A04120FF25F9904120FF20D
:1028A300FD9804120FF201B303120FF2F7B20312F1
:1028B3000FF28CB203120FF2D7D302120FF245D3E9
:1028C30002120FF2C0B003120FF27EB003120FF226
:1028D300FFD202120FF2CAD202120FF282AF031218
:1028E3000FF256AF03120FF20DAF03120FF24EAEFB
:1028F30003120FF23AAB03120FF2FBA803120FF20B
:10290300C8A803120FF26FA803120FF202A8031252
:102913000FF2C1A703120FF2FAA603120FF294A645
:1029230003120FF233A603120FF2D3A503120FF211
:10293300AAA403120FF23EA403120FF296A30312EA
:102943000FF291A303120FF285A303120FF2B89FA4
:1029530003120FF2929F03120FF297D202120FF299
:1029630082D202120FF257D202120FF2E2A2041223
:102973000FF2AEA204120FF257A204120FF2C5A077
:1029830004120FF2309F03120FF2D19E03120FF2C3
:10299300929E03120FF27F9E03120FF217A00412EE
:1029A3000FF2749E03120FF2439E03120FF2309C38
:1029B30003120FF2A39B03120FF27A9F04120FF27A
:1029C3005F9B03120FF2008003120FF2339B03127B
:1029D3000FF28D9804120FF2609804120FF22D98E3
:1029E30004120FF2059804120FF2A69704120FF2C5
:1029F300869704120FF2519704120FF2FD930412FB
:102A03000FF2E59104120FF2CF8F04120FF24F8FE2
:102A130004120FF2FB8E04120FF2AF8E04120FF2A8
:102A2300709F04120FF2078E04120FF262C40300A8
:102A3300000080FB8F0001000218870001000018CE
:102A430035000400C91725000200CD172600020037
:102A5300CF1727000200D11728000100DB17290038
:102A63000100DC17840004001615860001003417EA
:102A73002A000100DD172B000100DE172C000100E6
:102A8300E2172D00080022152E000100E3172F0086
:102A93000100E41730000100E51731000100E617DB
:102AA300320001002A15330001002B153400010008
:102AB300E717360001002C1538000100E81739002C
:102AC3000100E11783000200FE17630001003815BF
:102AD30064000100DF1765000100E0176D000100CD
:102AE3003915710008001A1566000100FD1743002F
:102AF3000100EE1744000200EF1745000100F11733
:102B030046000200F2174700080030154800010094
:102B1300F4174B000100F517040001000118A10090
:102B2300010005183700010004188800010003188C
:102B33003C0001002D153D000100E917490002008A
:102B4300F617670001003A154D000200F8174E0012
:102B53000100FA174F000200FB173E000100ED17BA
:102B6300510001002E1552000100EB175300010024
:102B7300EC17540001002F150000000000000001B5
:102B830036360101000102010001030100010401C5
:102B9300060605020000070100340801000F0904BE
:102BA30001010D0100FF0E080000170200001901CA
:102BB30000FF1A0100011B0100FE1C0100081D0299
:102BC30000001F0100012001000121020000230178
:102BD300000F24020000260100012701000828023B
:102BE30000FF2A0100072B0102402C0100002D01E8
:102BF30000012E0100012F0100FF30010B1D3108E0
:102C030000003A0100083B01000F3C0100013D01B7
:102C130000FF3E04000042040000460400004A0492
:102C230000004E04000052040000560400005A0441
:102C330000000000000020011882000001002001B4
:102C43001982000002002001148200000300200109
:102C53001582000004004201E680000005004201E5
:102C6300CC80000006004201D9800000070030013B
:102C7300168200000040420128810000FDFF21016F
:102C83001082000010004223F113000011003023D2
:102C930002140300FDFF2101108203000000212321
:102CA30003140A0006002301861702040000290505
:102CB30005140204100429238A1702042005202383
:102CC3007D170204040510237C170103710301031C
:102CD30001030103010301032203020301031003A0
:102CE3000003000300030003000300030003420387
:102CF3000003240306030003000304031203250354
:102D03002303250323030403040300030003000335
:102D13004403000300032303000365032100350379
:102D230081030003050300030003000300032503DD
:102D330023030302710230016002110270020102D7
:102D4300020202028002100261023A0041006302A1
:102D5300730272026202430200021302380000028D
:102D63000002040212020002000200020002040236
:102D73000402370037003C0244020002390000021B
:102D8300000265020002350281020002050282028E
:102D9300830200020101710101010101110101011D
:102DA3003101010101018001100161013B001400A7
:102DB3006301730172016201430100011301060102
:102DC3003D01350004011201000100010001000171
:102DD30004010401330133013C0144013201360093
:102DE30000010001650100013500810100010501B9
:102DF30082018301000103007100300160001100B2
:102E030070003102200350048000100061000000B4
:102E1300140063007300720062004300000013009B
:102E23000600000000000400120000000000000083
:102E3300000004000400370037003C024400000097
:102E43000000000000006500000035008100000064
:102E530005000000830000003600010006000000AA
:102E63000F0000000000000000000000000003FF4E
:102E7300FF00000403FFFF0000FFFF0FF401000544
:102E8300C4040320000100000B0000000000000048
:102E93000003010F0000000000000000000000001C
:102EA300000000000000000000000000000000001F
:102EB300000000000000AA1BD41BB01BE41AB61BC1
:102EC300DA1BB61BE61BBC1BE41AB61BDA1BC21BC0
:102ED300E41A00000000C81BE41A00000000000010
:102EE3000000CE1BE41A00000000000000000000F8
:102EF30000000000000000000000000000000000CF
:102F030000000000000000000000000000000000BE
:102F130000000100200020053C1701003E001B05B6
:102F2300C1050100210020053D17010001022123F5
:102F330074170100160210238E170100330020239B
:102F430073170100310030237217080400002105B4
:102F530009140804020521237E170804030521230D
:102F630080170000261E0100261E02009C1D028001
:102F7300961D0300A21D0400A81D0480AE1D0500BC
:102F8300B41D0600C01D3100D21D3300D81D34000E
:102F9300DE1DFFFF00000300030004000800100013
:102FA3001F003E007B00F600EC01D703AF075D0F67
:102FB300B91E713D000007ECFDFDFDECDCDCCCBC73
:102FC300ACAC9C9C8C7C7C6C6C5C5C5C4C4C3C3CEE
:102FD3002C2C1C1C03EAF5E5D5D5C5B5A59595851F
:102FE300857575656555554545353525251515058E
:102FF3000A022402CC2305D82307D2230CB4230DC1
:10300300C023FF000000160F00000B150B02000287
:10301300220F3300000E0F5A6967426565416C6CDD
:1030230069616E63653039D0D1D2D3D4D5D6D7D8C0
:10303300D9DADBDCDDDEDF303016181920231A1C69
:103043001E3000034D4C4651181A25050200011984
:103053001618161618230300303017181921301BC1
:103063001D1F30003C40423A3F3F392F47300C0E82
:10307300020B040B0A0708000F02040201010101FD
:103083000902000400002105071400BE040AE80336
:10309300000003000100E803240004091E130A01D1
:1030A30003101E030A0C040F0828020C050815055B
:1030B300FFC082C08312143090156374A4F0A3740C
:1030C30021F090156574AAF0A37421F0901567742C
:1030D300B0F0A37421F090156974B6F0A37421F0D5
:1030E300025DEF74F7120ADB901557E4F0E99015CF
:1030F30056F07C307D157A587B15121AB49017F46C
:10310300E0901560F0901561741AF0A374150240F5
:103113007C74F0120ADBEAFEEBFF54807003023288
:1031230085901556124111700302327EEA241B1258
:10313300597C707CEA241F12597C64137002A3E04B
:10314300706E8A828B831232D3901571124F0E7573
:103153000A00750B00800D123F52126FEE1219B860
:10316300AA0EAB0FEA4B60488A828B83E0650C7032
:1031730004A3E0650D702C8A828B83A3A3A3A3E031
:10318300F50EA3E0F50FE50A450B8A828B83A3A313
:10319300A3A360C3124254850A82850B83A3A3A30E
:1031A300A380B78A0A8B0B8A828B83124F0A80B45F
:1031B300E508242A12597CFCE5082402F8E43509C1
:1031C300F9E8FAE9FB9015711233BAA3A3E064029C
:1031D300703C8A828B83124F0E800B88828983A373
:1031E300A3A3A3124254E849601F88828983E06A3B
:1031F3007003A3E06B70E488828983A3A3E06C70FF
:10320300DA9017FA125CAC806BECF91221E08508B6
:1032130082850983E06401704FE50824181232BCEB
:10322300121030126596120E6BE50824121232BC8E
:10323300121030E50812410512102CE508240B1278
:10324300659A120E6FE50824171240A2E5082402BE
:10325300FCE43509FDE5082419FAE43509FB122AD3
:1032630008740A12105A800CE064027007AA08ABB3
:10327300091222BEAA08AB0912191CEEFAEF6480E8
:10328300802DEA5402600C9018097401F0EA64027C
:10329300FA8023EA5408601A1221DAEA4B700B9081
:1032A30015731264717A081232C9EE6408FAEFFBDF
:1032B30080047A007B00026C20F582E43509F583F3
:1032C300E0F50A780A22FB901556E0F9121A8422D7
:1032D300A3A3E0F50CA3E0F50D227B00901556E0C7
:1032E300F9121A7874042274F4120ADB8A088B091F
:1032F3008A828B83A3A3A3124D061240AD38F583B4
:10330300E02409FA126BB870030233AD8A828B830F
:103313007402124D7B8508828509831233BAE8F063
:10332300A3E91268328A828B83A3A3A3A3A3A3A3D3
:10333300A3F0E5082403F8E435091233AF1240ADD6
:103343003AF583E08E828B83A3A3A3A3F0EE240933
:10335300FAE43FFB8E828F83A3A3125F5EF583881B
:1033630082E0A2E58E828F83A3A3A3A3A350047458
:10337300018001E4F0E5082403F5828983124F0EEE
:10338300EA12548F3BF583126B7F1210281240AC64
:103393003B1260508E828F83A3A3127D2E12105A8C
:1033A300EEFAEFFB901556126C058016F98882F53C
:1033B30083E0FAA3E0CA221250ABA3A32274021241
:1033C300105A7F04020DA074F2120ADB8A088B09DB
:1033D300ECFAEDFB740E12134BE0FC1214668A0C2C
:1033E3008B0DAE0CAF0DEA4F6030AC08AD09121473
:1033F30054E96026AC08AD09EEFAEFFB12145AE962
:1034030070148E828F83124241FAEFFB12144EAA7C
:1034130008AB0912147E7900800279B4024FFA7462
:10342300F0120ADB74F61210EEEAFEEBFF8C088D45
:1034330009750FB3852182852283E4F0750E008020
:1034430002050E9030B2E493F8E50EC398400302F0
:103453003549AA0E7B001214A28A0A8B0BEA4B6031
:10346300E08A828B83A3A312355028F0F8C3EE9829
:10347300EF940050CC7C157D007900AA08AB0912AB
:103483001904850A82850B83A3A3A3A312702BE0DF
:10349300F8EEC3982925E0F8E433F9E50A28F58224
:1034A300E50B39F583A3A3A3A3A3A31240B7A312E8
:1034B3005AD38A0C8B0DAC0CAD0DAA08AB09121AAA
:1034C300B4850A82850B83A3E06401700A126596B2
:1034D30074011240C9804474011210B8850A8285B0
:1034E3000B83124F0C12148AE9603D740912134BBB
:1034F300E0C0E0126596D0E0F0740912134BE0646B
:1035030003701374011210B8E508240BFAE43509AB
:10351300FB121AB48012740112134B124254E508C1
:10352300125AB93509126FEC850A82850B8312652D
:10353300A21240C9A3A3E0C0E0E508241412659ACF
:10354300D0E0F0750F00A90F740A026C1DA3A3A3AA
:10355300E0F8852182852283E02274F7120ADBE9F1
:10356300FE8A828B83A3A3A3A3A3A3E0540860339F
:103573008A828B83A3A3A3A3A3A3E0540260218A1B
:10358300828B83A3A3A3A3A3A3A3A3A3E064066043
:103593000F74E96E600A74CD6E600574F06E70038B
:1035A3001221C20248F974F0120ADB74EF1210EE12
:1035B300740F12134B126355740812134BE9F0EC9A
:1035C300FEEDFF740512134B1246C11248E5A3E04A
:1035D300F9121472740612134B1263557406121304
:1035E3004B12552070030238641240F1E0FA74065E
:1035F30012134BE0F91221021238C4F8A3E0F9E8E0
:10360300497003023864EE2403F50AE43FF50BEE38
:103613002406F508E43FF5097C00850882F583124A
:103623004F0E850A82850B83E0F912147874031216
:10363300134B126355850A82850B83E0C0E0852115
:10364300828522831238BDD0E0125635F985218256
:10365300852283123F59125187123553FAA3E0CAC8
:103663002407F582E43AF583E8F0A3E412636024C7
:1036730006F582E438F583E4126FF8124CFA12105F
:1036830028EE1240AD3F126050740312134B124DDB
:10369300062409127D2812105A742912134B127032
:1036A300251233B41256483A126FEC742B12134B93
:1036B300E0C0E08521828522831254E7D0E0F074D4
:1036C3000212134BE4F0742512134B78081212F410
:1036D3000237BB740312134B1260188882F58312EE
:1036E30038ACA3A3A3125ADEFB121490850E828575
:1036F3000F83A3EAF0A3EBF0740312134B1238BD4C
:10370300A31238AC125CEDA2E6500F850E82850F32
:1037130083A3A3A3A3A3E0D2E1F0740512134BE0A8
:10372300706B850E82850F83A31242549015B1E00E
:10373300687003A3E0697055850E82850F83A3A388
:10374300A312408C750C00780C12103078081210FC
:1037530024742912134BE0F50C780C1210307427E3
:1037630012134B120E6F9015BE120E6F790074195F
:1037730012134B124EDE122306740A12105A850ED0
:1037830082850F83A3A3A3A3A3E04405F0740212CD
:10379300134BE004FC8E828F83124F088E828F833B
:1037A300A3A3A3E0F9121478740312134B12635505
:1037B300740212134BE004F0740312134B125520DE
:1037C3006067740212134BE0FA740612134B124231
:1037D30054C3EA98E4995051740212134B123B9666
:1037E300852182852283E028F8A3E039F9E8240FB4
:1037F300F50EE439F50F850E82F583E4F0740312B8
:10380300134B1238B7640160030236D674051213E2
:103813004B7401126C0BF0740312134B125DDF1225
:103823003BB9E8F0A3E90236FA85218285228312A7
:103833004F0E122108852182852283120E6F742672
:1038430012134BE0FD742512134BE0FC740A1213A0
:103853004BE0F9EEFAEFFB1221BC740212105A800E
:10386300438E828F83A3A3A3E0C0E0740C12134B97
:10387300D0E0F0126A74E0C0E0740D12134BD0E094
:10388300F0740612134B1255207009740E12134B69
:1038930074B98007740E12134B7410F0740912106C
:1038A300B01223007411026C1DE0850E82850F8314
:1038B300A3A3A322E012560DE022E012560DA3A308
:1038C30022852182852283EAF0A3EB1255292274F3
:1038D300F0120ADB74E11210EE740412134BE9F0D8
:1038E300740312134BECF0740212134BEDF08A0EB7
:1038F3008B0F742F12134B1232D5AA0CFB1220F626
:10390300740112134BE9F0AA0CAB0D1220FC7401E5
:1039130012134BE07003023B91852182852283E4DD
:1039230080158E828F83A3A3A3A3A3E0D2E3F085A4
:103933002182852283E004126B63F885218285222C
:1039430083E0C3984003023B88740112134BE07079
:1039530003023B88852182852283123B96E50C284E
:10396300F8E50D39F9E8240FFEE439FF8E82F5837B
:10397300A3A3A3A3A3E0A2E040B5750800750A08BA
:10398300750B00740212134BE060037508207C086A
:103993007D00790074051210B01219048E828F8392
:1039A300E0603E901601E06401701AE508D2E3F589
:1039B30008750B10123BA612134BE8F0A3E912593A
:1039C300D174FF807643080C750A0C8E828F83A313
:1039D300123BB1126FEE740512134B74FFF0A38008
:1039E3005A740412134BE06009E508D2E6F5087532
:1039F3000A0A8E828F83A3E064FE7003A3E0F4704F
:103A030030741212134B74041265C0F8741D121330
:103A13004BE8124D7B74121210B01220247D007CEF
:103A2300007900741512134BAA82AB83121E0E8009
:103A33000B123BA612134BE8F0A3E9F07407121321
:103A43004BE508F01240E8C0E0740912134BD0E0D4
:103A5300F0740A12134B7401F074051210B01222A1
:103A6300C4741112134BE06003023B66740D12130E
:103A73004B1256308E828F83A3A3A3A3F0740D122F
:103A8300134B124D49E50AF0A3E50BF0740312132F
:103A93004BE0C0E0124CDAD0E0125CED60119016FE
:103AA30001E0C0E0740D12134B124D24D0E0F0740A
:103AB3000D12134B124254850C82850D83A3A3A3CD
:103AC300A3A3123B9F241C12634F127008123BA145
:103AD300125C9F39126A93C0E0124CC1D0E0126BA2
:103AE30058C0E0740D12134B124807D0E012685906
:103AF300C0E0740D12134B1247FDD0E0F0740D12A9
:103B0300134B123BB1123B9F242A12634F850E8243
:103B1300850F83A3A3A3A3A3A3A3A3E012634812C4
:103B230040D7C0E01247E9D0E0F0740D12134B12F6
:103B33004F0E850E82850F83126B6E2428F582E467
:103B43003B126FEC1240E0126B7F12102812604997
:103B5300EA1262E13B127D2C12105A74051210B066
:103B63001222CA8E828F83A3A3A3A3A3E0D2E0F081
:103B7300741112134BE06003023925740112134BC5
:103B8300E0140239317900AA0CAB0D1221C8741F5D
:103B9300026C1DE075F007A4F8A9F022A3A3124F4D
:103BA30012E8228E828F83A3124258740522E012F8
:103BB3003BB9A3A3A322F8A3E0F9850E82850F8363
:103BC300A32274F0120ADB74E81210EEE985218255
:103BD300852283F08A0E8B0F8A828B83A3A3A3A3F0
:103BE300A3A3A3A3E0F91221208A088B09EA4B704F
:103BF30003023CA2E50E1254A31241001240978522
:103C03002182852283E06003023CA57C04850E8229
:103C1300850F83A3A3A3A3A3A3A3A3E0F912212640
:103C2300EE4F607B8E828F83A3A3A3A312425474AF
:103C33000712134B126486124254740912134B1267
:103C43004DABC0E0741112134BD0E0126837A3A33D
:103C5300A3A3A3A3A3124254740F12134B126FEE28
:103C6300741212134BE4126C13C8241FF582E43848
:103C7300F583126014C413135403FC70027C048E86
:103C8300828F83E0F9780812102C742059FD744058
:103C930059F974031210B01221BC740212105A02A3
:103CA3006C1B7C08850E82850F83A3A3A3A3A3A308
:103CB300A3A3E0F91221268B0BEA4B7003023C23EA
:103CC300EE4F60DB852182852283E0F50C780C12B0
:103CD3001030850882850983A3A3A3A3A3A3A3E02C
:103CE300F50C780C1210308A828B83A3A3A3E0FB1C
:103CF3008A82850B8312784B8A82850B83E0FA8E46
:103D0300828F83A3A3E0F9122A0E740212105A02BF
:103D13003C2774F7120ADB74FA1210EEE9FE7801FD
:103D230079017F00800379000F12508AE0FCEFC312
:103D33009C5026EF75F007A4FC85F008AD08EA2C2B
:103D4300FCEB3DFD124679E0A2E050DA540C60D65C
:103D5300E0A2E250D3780080CF8A828B83A3A3A30F
:103D6300A3A3A3E0703DE9A2E0400574016E7033A4
:103D73008A828B83A3A3A3A3A3A37401124069E044
:103D8300C0E0740312134BD0E01246D8E0C0E074D5
:103D93000412134BD0E0F0740512134BE8125FB317
:103DA30012230074060248F6C082C08379011221EF
:103DB300C8025DEF74F4120ADBEA4B90180960192C
:103DC300E4F08A088B09F50AF50B78081210247AB7
:103DD300021232DD12105A800A7401F07A027B005B
:103DE3001232CA0233C574F0120ADB74F31210EEF6
:103DF300740312134BE4F0A3F090157112409774FF
:103E03000112134BE4F0A3124D8004F09015ABE0C4
:103E1300A2E35003023EDC12405D740912134B12FD
:103E23001334740912134B78081212F49015737833
:103E3300081210C0740512134B78081212E5123FD2
:103E430060740512134B780812128850077A017BAD
:103E530000023F4D740512134B780C1212F49017A5
:103E6300F9E0F509780C7908120A6CA80CA90D90F1
:103E730017FAE0C398E4995003E08001E8852182B2
:103E8300852283F0740912134B78081212F4C008C8
:103E9300C009C00AC00B740512134B780C1212F43C
:103EA300123F60780C7908120A6CE4F50AF50BD01E
:103EB3000FD00ED00DD00C780C790812118090150C
:103EC30073780C1212E58011123F52126FEEEEFA64
:103ED300EFFB1219B8AE08AF09EE4F60658E828F03
:103EE30083123550C398502DEE2403F8E43FF9E0D4
:103EF300FA88828983E0C39AF06023740312134B18
:103F03001243BA740112134BEEF0A3EF1264A1FE35
:103F1300A3E0FF80C48E828F83A3A3A3E4F08E82E9
:103F23008F83127CE5740112134B1255208E828FFE
:103F330083A3A3A3A3609112647A12134B123F5974
:103F43008089740312134B124F0E740D026C1D12F1
:103F530042589015712212603FA3A3A3229017F831
:103F6300127CEDE4F50AF50B2274F0120ADB8A08E1
:103F73008B09890A78007900901571124097FBEE3E
:103F83004B601E088E828F83A3A3A3A3124ED86017
:103F93001008E87001098E828F83124093EA4F70F4
:103FA300E39017FB124F0EC3E89AE99B40030240CC
:103FB300507A06124053A80CA90DEA497003024037
:103FC300508A828B83E508F0A3E509124072E50A63
:103FD300F09017FA125092124069A3E4F0A3F09004
:103FE3001571124ED8600D8E828F83A3A3A3A312E3
:103FF3006FEE8017901571126FEE9015ABE0A2E390
:10400300400912405D9015731213349015ABE0A272
:10401300E3503A7A087B00901556E0F9121A8AEABF
:104023004B4C4D70289017F8E0F508A3E085080C79
:10403300F50DE4F50EF50F780C1210247A087B00C9
:10404300901556E0F9121A7E740412105A026C206D
:104053007B001219B28A0C8B0D22121A9CEAF8EB20
:10406300F9ECFAEDFB2212406D22124072A322F00A
:104073008A828B83A3A322E508F00248F9F08E829B
:104083008F83A3A3A3A3A3A32212598AA3A3F022DA
:10409300A3A3A3A3E0FEA3E0FF227F05020DA0F5E7
:1040A30082E43509F583E0F922EA1240B1222410B3
:1040B300F582E4221240BFA3A3A3A32212425C858C
:1040C3000882850983221240CD22F0850A82850B5E
:1040D30083A3A322E50E24111240FDE022E50E2462
:1040E3000E1240FD22E50E24101240FDE022124084
:1040F300F522EE1240B13FF58322F582E4350FF548
:104103008322240FF50AE43509F50B780A22E0F936
:1041130012192E8A088B09EA4B2274F2120ADB89E0
:104123000B8A088B098A828B83124F0E1221ECEAC9
:104133004B600479B8806A1221F8E9F89030A4E45E
:1041430093F9E8C399400479B280567A1512405323
:10415300AE0CAF0DEA4F7004791080458A828B83D1
:10416300E4F0A3124072E50BF0750A007808121010
:10417300287C127D00EA2403126B2A12105A901530
:10418300771255207008901577800C12425488825C
:1041930089831241A770F4EEF0A3EFF012220A799B
:1041A30000024FFA124F12EA4B8882898322C0829F
:1041B300C08390157780048C828D8312784CEC4DEC
:1041C30060288C828D83A3A3E069600574FF697006
:1041D300E68C828D83A3A3A3E06A7003A3E06B70D4
:1041E300D6EC2403FAE43DFB80047A007B00025DF5
:1041F300EF74F7120ADBE9FD74FE6D70047C018035
:10420300027C0090157780096D70027C0188828999
:1042130083125520601F88828983A3A3A3E06A7059
:1042230003A3E06B70E7ECA2E088828983A3A3E099
:1042330050D6F9800279FE0248F9EEF9800CA3A367
:10424300127CEDEE22740212105A7F02020DA0F5C9
:10425300831242582212425C22E0F8A3E0F92212B0
:10426300425C8E828F832212105A7F03020DA0C0FC
:1042730082C0837900901577800109E0FAA3E08A70
:1042830082F583E582458370F1025DEF74F6120ACD
:10429300DBE4F508F509780812102C9030A4E493B8
:1042A30075F013A4A9F01243AF12704C12105AE91F
:1042B300FE74096E700312220402423D74F6120A60
:1042C300DB74FE1210EE852182852283E4F0A3F0D5
:1042D300A821A92288088909780812102C750802D8
:1042E300750900780812102C126CBD12105A024284
:1042F3004874F5120ADB74EB1210EE8521828522D5
:1043030083E4F0A3F090157780748E828F83A3A348
:10431300E0C0E0740212134BD0E01259D1A982AA73
:104323008389088A09750A0078081210287C127D8F
:1043330000740612134B12701112105A74021210E9
:10434300A888088909780812102C750813750900C4
:10435300780812102C740412134B1254C375F01303
:10436300A4F8AAF075F013E91243AB126CC512104E
:104373005A8521828522831243BA8E828F8312400B
:1043830097EE4F7085A821A9228808890978081219
:10439300102C750802750900780812102C126CBDD8
:1043A30012105A741502426AA42AF9E82402FCE4A2
:1043B30039FD7A427B0022E02401F0A3E03400F0CF
:1043C3002274F4120ADB74EB1210EE7E007F00A855
:1043D30021A92288088909780812102C7508028EF1
:1043E30009780812102C7C007D007A421270581252
:1043F300105AE9706C8E08805674021210A8880A4D
:10440300890B780A12102C750A13750B00780A129F
:10441300102CE50875F013A4F8AAF075F013E5095C
:104423001243AB12705A12105AE9701B7403121321
:104433004BAA82AB83740212134BE0F91221E6E913
:1044430070050EEE70010F0508E508700205098579
:104453002182852283124254C3E50898E5099940D5
:1044630098EEFAEFFB74150233C274F6120ADB8C72
:10447300828D83A3A31246C6F0EA1262E73BF5835B
:10448300E0C0E0124683D0E0F0EA241DF582E43B6D
:104493001242521246671246C1F0A3F0EA241FF5F6
:1044A30082E43BF583124097EC12465A3DF583EEC6
:1044B300F0A3EFF01246603BF583124691A3A3A34A
:1044C300A3A3A3EEF0A3EF125F42FE8C828D8312AF
:1044D30046D074035EFEC39403400302464DEE6070
:1044E3000874026E60030245728C828D83E0540C63
:1044F300FE740C6E70030245B1E0A2E4400D8882A5
:104503008983E08C828D83A31246E674086E600370
:104513000245B11246717401F08A828B83A3A3A36F
:10452300A3A312599770148C828D83E0440C124616
:10453300D8A3A3124691EEF0A3EFF08C828D83E013
:10454300A2E4402B888212469F1246B4500109F51B
:104553008212469FA3A3A3A3A3A3F0A3EF1246E053
:104563008C828D83A3A3A3F0E82403F85001098868
:10457300828983E0C0E0EC2411F582E43DF583D029
:10458300E01246D08C828D83E0A2E7507588828941
:1045930083E0FE8C828D831246E674FC5E700C8C85
:1045A300828D83A3E054036403701E02464D1246BA
:1045B30071E4F0740C6E600302451C88821246A5F8
:1045C3001246B450010902453E8C828D83A3E05408
:1045D30003603288828983E0C0E0EC12468B3DF5AC
:1045E30083D0E01246E78C828D83E054036402702B
:1045F3001488828983E0C0E0124679D0E01246E74E
:104603008003A3E4F0EC12548F3D126FECEC241002
:10461300FEE43DFFEA241DF582E43BF583E0F50863
:104623008E828F83E0C3982508F508F0EA2417F8F3
:10463300E43BF98882F583E0C39508C0E01246673E
:10464300D0E0125F42C39508500A124667E4F012A5
:104653004683E4F002424D2415F582E422EA240D58
:10466300F582E422EC240DF582E43DF58322EC127D
:1046730056483DF58322EC2414F582E43DF583226C
:10468300EC1240B13DF583222413F582E422E0FECF
:10469300A3E0FF8C828D83A3A3A3A3221246A5A329
:1046A300A3228983E0F508A3E0FFE5088C828D83CC
:1046B30022A3A3A3A3F0A3EFF0E82402F822124657
:1046C300C6A322E4F08C828D83A3A3A3221246EE19
:1046D300A882A9832212406DA3A3A3A3221246EEAC
:1046E300A3E022A31246EE08A98322125F4BA32262
:1046F30074F4120ADB74F31210EE8A0A8B0BECFECD
:10470300EDFF8C82F583E0540CF508E0A2E7500638
:10471300E508D2E7F508E508D2E1F50812599770E4
:1047230006E508D2E4F508E0A2E55006E508D2E57F
:10473300F5087C087D007900AA21AB2212190474C4
:104743000212134BE508126FF2C0E0740312134B0D
:10475300D0E0124D80E50AF0A3E50BF074051213C7
:104763004B12685E12134BE07077740812134B12EE
:104773004D06125F3438126879C0E0740812134B87
:10478300124807D0E0126859C0E0740812134B12A4
:1047930047FDD0E0F0740812134B1247F3E0124DBB
:1047A3002E124DAF126348EE2411125963C0E0126A
:1047B30047E9D0E0F0EE2414125963C0E074081204
:1047C300134B124D062435F582E438F583D0E012FD
:1047D3004D53C0E0740812134B124D0AD0E012651A
:1047E300B2740D0233C2E82432F582E439F5832230
:1047F300124262A3A3A3A3A3A322124D1A126A58BF
:1048030038F58322124D1A2426F582E438F58322E3
:1048130074F7120ADB7E008A828B83A3A3A3A3A36C
:10482300A3A3A3A3E0640460030248D5125640E0A7
:1048330060030248D51254A23B12551E700302486E
:10484300D588828983E0540360030248D5E8125671
:104853004839F583E0FA8C828D83A3A3E0FBA3E0C0
:10486300CB2411F582E43BF583E06A706588828985
:1048730083A3A3A3A3A3A3A3A3A31248D9E06A700A
:1048830003A3E06B704C88828983A3A31248E5E0FD
:10489300FFA3E0CF24061259636A7003A3E06B7091
:1048A3003188828983A3A3E0F88C828D83A3A3E05C
:1048B300F9A3E0F5838982A3A3E06860138C828D5A
:1048C30083A3A3A3E0F5838982E0540C64047002FC
:1048D3007E01EEF980201248DD22124F168C828D64
:1048E3008322A3A31248DDA3A322740C12134BE06B
:1048F300F9740D12105A7F01020DA074F6120ADB2F
:1049030074FC1210EEEAFEEBFFECFAEDFB8C82F581
:1049130083A3E05403601690156D125520605979F6
:1049230000EEFCEFFD12613F120C66804B85218285
:10493300852283EEF0A3EFF0740212134B124D7530
:10494300AC21AD227A227B2212244A8A088B09A841
:1049530008A909EA4960218A828B83A3A3A3A3A39D
:10496300A3A3A3A37406F07A0088828B83124D0657
:10497300126308E0F91223A8740402424A74F21283
:104983000ADB74F31210EEEAFEEBFF8A82F583A3CF
:10499300A3A3A3A3A3A3A3A3A3E0F50A901809E0E9
:1049A300700579BA024CBE750801750900750C00D3
:1049B300750D007C087D007900AA21AB2212190431
:1049C300740512134B7401124D885404601274025F
:1049D30012134BE0D2E6124D885408700375080396
:1049E300E05410600674404508F508E0540860225E
:1049F300740212134BE044C0124D885420600A74B1
:104A03000312134BE0D2E08008740312134BE0D27D
:104A1300E1F0EE2415125963124CEE700374016930
:104A2300700674084508F5088E828F83A3A3A3A399
:104A3300A3A3A3A3E070161224A485218285228355
:104A4300126355740212134BE0D2E28030640F708C
:104A530010740212134B124D9074044508F508802C
:104A63007F8E828F83A3A3A3A3A3A3A3A3E0640244
:104A73008E828F83700A127025E8F0A3E9F08060BC
:104A8300A3A3A3A3A3A3A3A3E06403700DAC21ADCD
:104A930022EEFAEFFB12225880468E828F83A3A365
:104AA300A3A3A3A3A3A3E064017035901601E06060
:104AB30010740212134B124D90750910750AFF8082
:104AC30018740212134BE0440C124D8074FDF0A3D2
:104AD30074FFF074044508F5088E828F831232D573
:104AE300EE2415125963A2E0503F740212134BE0F7
:104AF300540C701B8E828F83124F0E121EDAE970D4
:104B03000579BB024CBE740212134BE0D2E5F0EE02
:104B13002415125963A2E05010740212134BE0548F
:104B23000C64047004E0D2E5F0EE2411125963C062
:104B3300E0740412134BD0E012686012134BE06070
:104B430003024CB7740812134B124D49E508F0A346
:104B5300E509F0124CE4E0C0E0124CDAD0E0F012C8
:104B63004CCBE0C0E0740812134B124D0612468B77
:104B730038F583D0E0124DAF64017011901601E057
:104B8300C0E0740812134B124D24D0E0F0740812E5
:104B9300134B124D44124CD5FAE8241CF582E43928
:104BA300F583EA124D7BEE2415FAE43FFB8A82F586
:104BB3008312784CE8125C9F39F583124D75EE240D
:104BC3001C125963C0E0124CC1D0E0125DE5124CD7
:104BD300EE70037401697013740812134B1256308C
:104BE300FAEE241D125963F912212C8E828F83A3AE
:104BF300A3A3A3A3A3A3A3A3E0C0E0740812134B2E
:104C0300124807D0E0F0740812134B1247FDE50A6F
:104C1300F0740812134B1254C32428F582E439F5B7
:104C230083E50CF0A3E50D124D5B124D2E1259DCFA
:104C3300126348EE124CD5C0E0E82433F582E43920
:104C4300F583D0E0F0EE241B125963C0E074081220
:104C5300134B124D0AD0E0F0EE241A125963C0E050
:104C6300740812134B124D062432F582E438F5838F
:104C7300D0E0124D53124CFA121028126A5E1278C9
:104C83004C740B12134B124D06242F127D28121055
:104C93005AEE24151259635440601290158D125523
:104CA30020600AAA21AB2212613F120C66AA21AB33
:104CB300221222CA740C12134BE0F9024FF5E824B6
:104CC30020F582E439F58322EE2419F582E43FF5D9
:104CD3008322126A6DE022E82412F582E439F58317
:104CE30022EE2418F582E43FF583225480F8A3E0F2
:104CF3005401F974806822F508A3E0F509750A00E8
:104D0300780822124D1A22124D1A2434F582E438FF
:104D1300F58322A3A3A3A3124D1E22E0F8A3E0C8A8
:104D230022124D1A12465A38F58322FAA3E0FBE801
:104D3300242AF582E439F583EAF0A3EB22A3A3A3A3
:104D4300A3124258EE221254C71254A739F58322F4
:104D5300F0EE24131259E422F0EE240D1259E4224A
:104D6300E0FC8A828B83E02CFCA3E03400FD8A8282
:104D73008B83ECF0A3EDF022F0A3E4F022F0852185
:104D83008285228322F0EE24151259E422E0D2E335
:104D9300F0124D98228E828F8312425C8521828588
:104DA3002283E8F0A3E9F022E8F0A3E912649BE090
:104DB3002274F7120ADB8A828B83A3E064017004F6
:104DC3007E6380027E648A828B83E06008790512A9
:104DD3004DE824F3FE9015A9E06007F9124DE8248D
:104DE300F2FE0248D5122372E9F8EEC3982274F654
:104DF300120ADB74FE1210EE852182852283126370
:104E030055E9FEECFAEDFB9005C61255206032A879
:104E130021A92288088909780812102C7D01740EB3
:104E230012134BE0FCEEF99005C6126329120C66CF
:104E3300740212105AEA4B60047900800679B2803A
:104E43000279B602424874F7120ADBE9FE90156351
:104E5300125520601F740912134BE0F508780812ED
:104E63001030EEF9901563126329120C6674011267
:104E7300105A800279B60248F974F7120ADB8908DE
:104E8300ECFEEDFF79B5E508245E6020146006248E
:104E9300F86034803D9005C8124ED86035127069B1
:104EA300120C668E828F83126355802490156512CF
:104EB300784CEC4D601CEEFCEFFD901565126329F8
:104EC300120C66E9F9800B901561124EDE121AB4CA
:104ED30079000248F9124F12EA4B22127850EEFA87
:104EE300EFFB2274F7120ADBE9FE79B574AB6E703F
:104EF3000B901561124F0E121AB479000248F98E05
:104F0300828F83A3A3A3A3A3A3A3A3124F1222124B
:104F13004F1622E0FAA3E0FB2274F1120ADBEAFE49
:104F2300EBFF8C0A8D0B7508019015B1E06E7003D1
:104F3300A3E06F700C124FE9AA0AAB0B121AB480EC
:104F43005E1224AAEE6A7002EF6B7009AA0AAB0B19
:104F53001224B0804AAC0AAD0BEEFAEFFB1220002C
:104F6300E9F508901800E07036122942E97030E53F
:104F730008702C901581E06E7003A3E06F7020EE33
:104F83004F601C750C79750D15750E00780C121099
:104F9300287C087D00AA0AAB0B12701512105AA9BF
:104FA3000802794874F2120ADBEAFEEBFF8C088DE3
:104FB30009750A01124FE9EEFAEFFB121AAEE96422
:104FC3000170119015B1124254850882850983122C
:104FD3006FEE800EAC08AD09EEFAEFFB122006E986
:104FE300F50AA90A801112249E8A0C8B0DAC0CAD14
:104FF3000D22740D12105A7F06020DA074F6120AC8
:10500300DBEAFEEBFF7A0D7B001219B2EA4B60621A
:10501300EE2424126CF2F0EE2425126CF2A312504B
:10502300B7126CF8A3A3126A8B125092F0EE1250CF
:10503300781250A7E8F0A3E91250CE12509F126FD6
:10504300EEEE125081126B4EA3A3A3A3F0EE243312
:10505300125963C0E012508AD0E012687D12509F4B
:10506300A3A3A3E8F0A3E91250C6C0E0125640D0B0
:10507300E0F002424D242AF582E43FF58322242EF8
:10508300F582E43FF58322EA125AB93BF5832212F3
:10509300509622E08A828B83A3A3A322126BADA333
:1050A300A3A3A3221250AB2212425C8A828B83A356
:1050B300A3A3A322F01250BC22EE2426F582E43FE0
:1050C300F58322F0EE24321259E422F0EE242C125E
:1050D30059E42274F4120ADB74FE1210EEECFEEDB6
:1050E300FFEC241612596364057010EC2406FCE4EB
:1050F3003FFD122252E97003025182AC21AD22120C
:105103006DA7121EE0852182852283125520606BD4
:105113008E828F83E064017058E875F009A4F8AAC1
:10512300F075F009E9A42AF974DA28F8740239F958
:10513300E8FAE9FB8882F58378081212F4EE12523A
:10514300241212884027852182852283124D44121E
:10515300597112518778081212F490813C78081221
:1051630012098A828B8378081212E5800A79A28059
:1051730010EE240F126FE87900800679A18002797E
:10518300C80233C0124DA5EE126A792274F2120AD4
:10519300DB8A0C8B0DECFEEDFFEC125971E4F0A3EE
:1051A300F090816C78081212F4EC1252241211045C
:1051B3006067EC240E12596A703478B39015A8E036
:1051C30070289015DAE064017020EC241112596301
:1051D300F912235A8B09A909EE1254A33F12635300
:1051E300EA4960047800800278A18808802EE06094
:1051F300046402700A122264E9F5087007801DE056
:1052030064037010EEFCEFFDAA0CAB0D121F04E952
:10521300F50880087508A180037508A3A908024F43
:10522300FA126A7978082274F0120ADB74F5121004
:10523300EEEAFEEBFFEA240AFCE43F8C82F58312DC
:105243007CE91254AD74031210B88A828B83126105
:1052530049E9700302531374011210B87403121056
:10526300B0121EE0740112134B1255207003025347
:1052730013E875F009A4F8AAF075F009E9A42AF96E
:1052830074D628FC740239FDE508240E12659AE4ED
:10529300F00412134B124254E5081254A3350912B9
:1052A3006FEC8C828D83121328E508241212659A01
:1052B30012133490813C78081212F48C828D837817
:1052C3000812121C8C828D83780C1212F490819038
:1052D30078081212F4780C7908120A6CE50845096B
:1052E300450A450B702A740112134B1254C375F00F
:1052F30009A4F8AAF075F009E9A42AF974DE28F5DF
:1053030082740239F5837401F07A007B081254D059
:105313008E828F83A3A3A3A3A3A3A3A3A3A3E02406
:1053230006FCA3E03400FD8E828F8312614912686C
:105333006B603EEE240A125495124D497468124D67
:105343007BE812548F39F5837402F090159312138E
:10535300288C828D83126342125F343CF5831213CF
:105363003490813C78081212F49015937808121245
:105373001C12550B705D9015611254BBA3A3A3A31C
:10538300A3A3A3A3A3A3125F6A121AAEE970101218
:105393005F28901561125F3A700512686B60348E56
:1053A300828F83A3A3A3A3A3A3A3A3A3A31254BBE7
:1053B300124F0E121F0AE960118E828F83A3A3A3DB
:1053C300A3A3A31254F7E4F0A3F08E828F831254A5
:1053D300DDE4F012550B600302548A8E828F83A39F
:1053E300A3A3A3A3A3127CE59015A8E06003025432
:1053F3007F9015DAE06401600302547F750A3A7501
:105403000B00780A12102C74021210A8880A890B58
:10541300780A12102C1272E412105AE9705BE50834
:10542300240E12659A7401125525C0E0E508241173
:1054330012659AD0E0F0E508240F12659A743A12C7
:105443004D7B90158F121328E508241212659A12CA
:10545300133490813C78081212F490158F78081257
:10546300121C90813C78081212F490158F78081260
:10547300110470081254CC80031254AD12550B70F2
:1054830006125E2B74A1F0740B026C1D240EF582C0
:10549300E422F8E43FF9E8FCE9FD8882F58322EA97
:1054A3001254A722240FF582E422E5081254A735EB
:1054B30009F583E4F0A3F0221278508E828F8322C1
:1054C3001254C72212425CE8227A007B02901439FC
:1054D300E0F9121958228A828B83A3A3A3A3A3A35F
:1054E300A3A3A3A31254EB22124D1E240EF582E4B0
:1054F30038F58322A3A3A3A31254FF22124D1E2423
:105503000FF582E438F583228E828F83A3A3A3A3AE
:10551300A3A3124D16240FF582E438F5831254C762
:10552300492212552922F0852182852283E02274A3
:10553300F6120ADBEAFEEBFF7A237B001219B2EEC6
:10554300240AF508E43FF5098508821263537C2396
:105553007D0079001219048508828509831255207C
:1055630070030255F3EEFAEFFB12227012550B6033
:10557300748E828F8312562664018E828F83A3A337
:10558300A3A3A3A3700712561C740E8021125520E7
:10559300701012686B700B8E828F83A3A3E0A2E05E
:1055A3005007125612740D800512561274051268B4
:1055B3007D5403640170071255FA7405800B90152E
:1055C300A9E0C0E01255FAD0E0125635F58388827F
:1055D300125990850882850983124D061262E738B5
:1055E300F583E9800E8508828509831263CC8003E5
:1055F30012630FF002424D8E828F83A3A3A3A3A352
:10560300A3A3A3A3A312560C22E012632EA3228EFC
:10561300828F83A3A3A3A3A3A3124D161262ED3813
:10562300F58322A3A3A3A3A3A3A3A3A3A31254EB2E
:10563300E02212563922126DBCF8A3E022EA125678
:10564300483BF58322240CF582E42274F1120ADB31
:1056530074E41210EE8A0C8B0D8C088D097A237B6F
:10566300001219B28A0A8B0BAE0AAF0BEA4F700312
:1056730002594B1262F3E508241512597C68700332
:10568300A3E0698E828F837004740280027401F038
:10569300E508240DF8E43509F98882F583E0FAC3B7
:1056A300E49AFA95E0FB1259782AFAA3E03BFB8EC1
:1056B300828F83A3A3A3A3125F518E828F83A3A39D
:1056C300F0EE2420F582E43FF583E4F0EE2421F5A7
:1056D30082E43FF583E4F0EEFAEFFB12232485081E
:1056E3008285098312599770098E828F83A374056B
:1056F30080069015A9125985F0EE2417F50AE43FA8
:10570300F50B8E828F83125990E9850A82850B836C
:10571300F0EE2416F8E43FF9E508240EFAE435091F
:10572300FB88828983124D63E5082410FAE4350966
:10573300FB850A82850B83E0FC88828983E0F88AF3
:10574300828B83E0C398C39CF81259D1F0EEFCEF2F
:10575300FDAA0CAB0D12226AE9F50B8E828F83E052
:1057630064027006125F28125955E50B6003025953
:1057730042750C00750D00901800E064016005E0AF
:105783006402703F1259676008EE242112596A704F
:10579300328E828F83A3A3A312631512599DEE2425
:1057A300161259631259C6FAE439FB124055EA4BF3
:1057B3006011126B771210281259ABAA0C127015D4
:1057C30012105AEEFAEFFB122330E9F50B90180092
:1057D300E064016008E064026003025935E9700384
:1057E300025935E50C450D70030259428003850EBD
:1057F3000B125967600BEE242112596A6003025998
:105803003B850B0E850C08850D09750A0078081277
:1058130010281259AB8E828F83A3A3A3A3127D2ECC
:1058230012105AEE2420125963600D1259707468D5
:10583300124D7BEE24208015EE242112596360154E
:105843001259707403F0A37401F0EE2421F582E47D
:105853003FF583E4F0EEFAEFFB122330E9F50B702A
:10586300907C137D00790074091210B0121904742E
:105873001A12134B74011259DC64687002A3E070AE
:105883004F8E828F831254F7E0640560030257F151
:105893007C0879FF8E828F83A3A3A3A3E0242A121B
:1058A3005F6D12198EE970030257F17C087D007950
:1058B300FF74011210B012190474011210B87A00A7
:1058C3007B0079AB12224C741912134B74FC8015B4
:1058D300125970E064037004A3E064017008741942
:1058E30012134B74FFF0E4F508F509780812102C35
:1058F30074021210B8741312134BAA82AB8312648E
:105903005212105A852182852283E0602B7409127A
:1059130010A888088909780812102C7508137509CE
:1059230000780812102C7C007D00126CC512105AEE
:105933008006E50C450D6007AA0CAB0D1219B8EEF5
:10594300FAEFFB1219B88003750B10A90B741C0234
:105953007945EE2406FAE43FFB121AB422EE240C36
:105963001259E422EE24201259E4640122EE125467
:10597300A73FF58322E508240EF582E43509F58374
:10598300E02212598AA322E08E828F8322A3E0F9B8
:1059930012237222E054036401221259A122E0FA75
:1059A300E82AF8E43400F9228E828F83A3A3A3129A
:1059B30063191259A1EE24161259E41259C6FCE4D4
:1059C30039FD22FAE82AF8E439F9E82404221259C5
:1059D300D52212688CA3A3A322F01259E122EE244C
:1059E3000FF582E43FF583E0227901020FEF74F4AF
:1059F300120ADBEAFEEBFF8A82F583A3A3A3A3A328
:105A0300A3A3A3124D062424F582E438F583125987
:105A130097702E8A828B831256267025125ABFE006
:105A23006405701D125ABFA3E0F874016860057421
:105A3300066870071254D9740280051254D974038E
:105A4300F0EA240A1263C0126329E4F0EA2408F896
:105A5300E43F1233AF2431F582E43AF583E0C0E04A
:105A6300127060A3A3D0E0125ADECA242EF582E49A
:105A73003AF583E0C0E0127060A3A3A3D0E0126004
:105A830004C8125AB938124252127060125AD38A99
:105A93000A8B0BAC0AAD0B850882850983125F6AFA
:105AA300121AB4850882850983124F0E122330120D
:105AB30063BBF00233C5240BF582E4228A828B8315
:105AC300A3A3A3A3A3A3A3A3126852F5838882224B
:105AD300A3A3A3A3124DA512249E22125F46FAA3E9
:105AE300E0220259ECC082C0839015837476F0A340
:105AF3007422F09015857482F0A37422F0901587B8
:105B03007488F0A37422F0901589747CF0A3742236
:105B1300F0025DEF74F4120ADBEA2408FEE43BFFB3
:105B23008E82F5831254C31262FFE0F508740355A5
:105B330008F509125F65F8A3E08882F583E508F0AC
