:020000040000FA
:060000000212AC02081818
:03002B0002100BB5
:03003300020EF8C2
:030053000207475A
:100083000207A901010000000000F8FF07FFFF00BD
:10009300000504000000030001FFFFFFFF00FF0055
:1000A30018204E00000020FD000206FFFF1E320054
:1000B300000064000000190000003200000001008D
:1000C3000000F01B00000000000000000000000022
:1000D300000004020300000003000000000C000005
:1000E3006400000064000000000001000100010141
:1000F3000404010401020302041C81000000020441
:10010300010C000202278200000003040106010221
:10011300014182000000010400004A14000000E8CD
:10012300030000FFFF9B1488130000E80300006432
:10013300006400B801A0BB0D00A0BB0D00020202C9
:100143000704010A1E02051E020A0A01010808012A
:1001530003B80B02803E0102FEFFE8030A0500011B
:10016300FFFF020A011401E0050301010F0300036D
:100173000003000300030003000300030003000562
:10018300000A00140028004F009E000000F92D0013
:10019300000000CD2C00000000FF000000FF001253
:1001A30012CB60461212BC603DE9687008F618F67F
:1001B30018F618F622748067F71201D60909097434
:1001C3008067F7221212BC601D1212CB7005191939
:1001D30019801A121198701F1211ACC37003E667CD
:1001E3003319191940071818182208080874FFF65C
:1001F30018F618F618F6221211AC6017121359707C
:100203002192F01213627019501720F01408080895
:10021300090909E7F61819E7F61819E7F61819E7AF
:10022300F62212136260E6E869701F0808E624806C
:10023300F608E436F618547FB47F0CE65480600762
:10024300F6E418F618F622181822E9C6CC08C6CD2B
:1002530008C6CE08C6CFC0E0E8C0E0EAC0E0EBC005
:10026300E009E9F809E7FA09E7FBE6F918E6F8C354
:10027300EC98ED99EE9AEBC2E7F5F0EFC2E795F053
:10028300500E600CEBCFFBEACEFAE9CDF9E8CCF8DF
:10029300EAA2E7D2E7FAEB33FB13F5F0EEA2E7D2DB
:1002A300E7FEEF33FFC5F013A2E730E601B313C552
:1002B300F0C3C0E0C0F07F00C39BFB605E94186096
:1002C3000F401D14601AD0E023F9D0E0F80203A810
:1002D3008AF0E9486003D2F0E4AFF0FAF9F8803B22
:1002E300EB30E40D89F0EA6003D2F0E4AFF0F9CA31
:1002F300F8EB30E30D88F0EF6002D2F0AFF0E4CA20
:10030300C9F8EB54076014FBC3EA13FAE913F9E8DD
:1003130013F8EF135002D2E0FFDBEDD0E0C0E03082
:10032300E739C3E49FFFF5F0EC98FC42F0ED99FD4B
:1003330042F0EE9AFE42F0D0E0F9D0E0F8E5F0604A
:100343007AE923F9EE20E742D8028067C3EF33FF4F
:10035300EC33FCED33FDEE33FE80EAEC28FCED39A3
:10036300FDEE3AFED0E023F9D0E0F84002801BC353
:10037300EE13FEED13FDEC13FCEF135002D2E0FF7E
:1003830008B800067F7F74FF802EEF3350178CF080
:1003930020F00260100CBC000C0DBD00080EBE0066
:1003A3000408E860DFE933E813FFEE2313FE4F4D43
:1003B3004C8008E95480FFE4FEFDFCEE33EF33F498
:1003C3007004FCFD7E80D0E0FBD0E0FAD0E0F8D0F2
:1003D300E0CFC618CEC618CDC618CCC6F922121265
:1003E300BC7004181818221212CB700D74FFF61883
:1003F30019F61819F61819F622E7548066F612133F
:1004030062700F12135970F014F608F608F608F626
:1004130080D1121359700CF608F608768008E6446A
:100423007F80EC1211AF700C12119B60BFE65480F9
:10043300F6E480BB12119B700519191980A5E869B0
:10044300700C763F18768018F618F6E8F922E6CD98
:10045300C0E018ECC0E0E633CD33CDD313F6E71993
:10046300FCE7191933CC33C3947F400ECD9D502440
:1004730008E65480F6E418F6800FF4043D14501493
:1004830008E6447FF6187680E418F618F6D0E0FC08
:10049300D0E0FD22CCD313CCFD18E4C6CBC0E018CA
:1004A300E4C6CAC0E00808ED08C633E613F618E44C
:1004B30033C675F003C3CA97CA09CB97CB199C40BF
:1004C300047D08802EBD000302058A16B6FF0506CB
:1004D30006081618C3CA33CACB33CB33CA27CA0993
:1004E300CB37CB193CC37D08803E187D0820E75CE1
:1004F300C633C6CA33CACB33CB33DDF1D5F0EB30C9
:10050300E77BCA97CA09CB974ACB199C406F4B70BC
:1005130025E620E0218066187D08C3CA97CA09CB67
:1005230097CB199CD3C633C6CA33CACB33CB33500C
:10053300C9DDE7D5F0E1D3E4C636C608C636C6083A
:10054300C636C608C636C61818188031C3CA97CA35
:1005530009CB97CB199CB34097C633C6CA33CACBD2
:1005630033CB33DD34D5F02EC6A2E0C640C8CA274C
:10057300CA09CB37194A70BECB3CB480B90808E628
:100583003308E633601F181818D0E0FAD0E0FBD028
:10059300E0FCD0E0FD22187D08CA27CA09CB37CB7F
:1005A300193CD3808013F618E4B67F11F618B6FF12
:1005B3000EF618C60470D20808768080CAF618F6BC
:1005C30018F680C5001212BC604F1212CB6012E7FE
:1005D300548066F61211987011121359703B090971
:1005E30009F4F618F618F618F6221211AC70151263
:1005F300136208080860EAE6447FF618768018E478
:10060300F618F62212136260161213597012E4F6EA
:1006130008F608F608E65480F6090909181818229E
:10062300EAC0E0EBC0E0ECC0E0EDC0E0E687F0A498
:10063300FBACF008E687F0A42CFCE435F0FA1809CB
:10064300E687F0A42C4B60027401CA35F0FCE43356
:10065300FB09E687F0D2F7A42CCB35F0FC1908E6AA
:1006630087F0A42BCC35F0FBE433FD0819E687F0C3
:10067300D2E7A42C4ACB35F0CD3400FC09E687F051
:10068300D2E7A42DCC35F0FDE433FA0918E687F060
:10069300D2F7A42CCD35F0CA3400FC08E687F0D29B
:1006A300E7D2F7A42ACC35F07A7E20E70B0ACB33C6
:1006B300CBCD33CDCC33CC33CB3350147004ED30AE
:1006C300E00ED2F1E4CD3DCDCC3CCC3B5005DA0578
:1006D300C2F1EB547FC63308E63392F0FBE73309EC
:1006E300E733C39A502D2B70190C0D4C4D70151810
:1006F30006E608C333700D20F10AA2F013F6E418DE
:10070300800B4024E4F630F002768018F618F618D1
:10071300F68024D33B14501074FFA2F013F618761E
:1007230080E418F618F6800FA2F013F618E63303E8
:10073300F618ECF618EDF6D0E0FDD0E0FCD0E0FBC7
:10074300D0E0FA22C0E074F1120BB3A2AFE433F5A8
:1007530009D2AF85A708AFA1EF5508FE74105E60FC
:100763000612165075A1EF74085E600812165675CE
:10077300A1F78024EFA2E092F0E508A2E082F05016
:1007830017906198E0F8900610E0C398A2D265D064
:10079300335002E8F075A1FE752300E509A2E0924B
:1007A300AF7F02020C12C0E074F2120BB3A2AFE4EB
:1007B30033FED2AF9061A4E0F8759B00E5915854E5
:1007C3000860087591F71216A48023E59158541018
:1007D30060087591EF1216AA8014E591A2E092F0D9
:1007E300E8A2E082F05007E0C2E0F0121800906146
:1007F300A3E0F8E5E9585404600E1217D675E9FB37
:10080300906193E0A2E640F2752300EEA2E092AF7E
:100813007F01020C12C0E074F2120BB3A2AFE433F7
:10082300FED2AF9061A5E0F8E5BF585404600675A9
:10083300BFFB12181880D112088F30F0431208D46E
:10084300803E8A088B098C0A8D0B780812088F204A
:10085300F01430E72B74FFFCFBFA747F8022E4FC76
:10086300FBFA7480801AB48008BC00F2BB00EF80EE
:100873000F50EBF9E4C39AFAE49BFBE49CFCE49984
:10088300C6CC18C6CB18C6CA18C6F922E4C9C6080E
:10089300CAC608CBC6D3330308CCC63392F0C3947D
:1008A3007F402E94184019C9B90704CACBCC2250F3
:1008B30025C309CA33CACB33CBCC33CC33D9F422C7
:1008C300F4600DC9CCC313CB13CBCA13CAD9F6CC6E
:1008D30022E4FCFBFA2214FCFBFA22C3E498F8E4BA
:1008E30099F912091F8026C3E49AFAE49BFBE920D5
:1008F300E7E912091FE498F8E499F922C3E498F8A8
:10090300E499F912091FE498F8E499F9C3E49AFA0F
:10091300E49BFB22EB20E7CFE920E7E0B90010BB23
:100923000008E88AF084F8AAF022E4FBC8FA22EB74
:1009330070227B10C833C8C933C9335007C39AC365
:10094300DBF280069A50012ADBEAC833F4C8C933C4
:10095300F4C9FA2275F008E4C833C8C933C933C9E6
:100963009AC99B5004C92AC93BD5F0ECFBC833F4A0
:10097300C8E4C9FA22080808EAC0E0EBC0E086F040
:10098300E7A4FA180986F0E7A42AFA180986F0E71B
:10099300A42AFA180986F0E7A42AFA1986F0E7A42C
:1009A300FBE5F02AFA190886F0E7A42BFBE5F03AF9
:1009B300FA190886F0E7A42BFBE5F03AFA181809B0
:1009C30086F0E7A4C5F02BFBE43AFA1908E7C5F073
:1009D300C6A426F6E5F03BFBE43AFA1886F0E7A452
:1009E300F6E5F00826F6E43B08F6E43A08F6D0E02C
:1009F300FBD0E0FA22080808E630E71112115C1276
:100A03000A10080808C64480C618181822181818AF
:100A1300E9799EC608CAC608CBC608CCC6C37020EF
:100A23007996CACBCC7019798ECBCC70137986CCDE
:100A3300700EF9802ACA33CACB33CBCC33CC3319EB
:100A430030E7F2CCCBCA3350147004EA30E00DE443
:100A5300CA3ACACB3BCBCC3CCC500209C3E913C640
:100A6300CC182313C6CB18C6CA18C6F922E4CFC0C4
:100A7300E0E4CEC0E0E4CDC0E0E4CCC0E075F0201B
:100A8300E626F608E633F608E633F608E633F61804
:100A93001818EC33FCED33FDEE33FEEF33FFC3ECFC
:100AA3009709ED9709EE9709EF97191919400FFF69
:100AB300EC97FC09ED97FD09EE97FE191906D5F0A1
:100AC300BFECF709EDF709EEF709EFF7191919D09C
:100AD300E0FCD0E0FDD0E0FED0E0FF222521C5827E
:100AE300C0E0E52234FFC583C0E0E521C39582243D
:100AF300F810AF08858322858221800885832285AB
:100B03008221D2AFCEF0A3E520F0A37808E608F067
:100B1300A3DEFAEFF0A3E58124FAF8E608F0A3E6F2
:100B230008F0A3E608F0A30808E608F0A3E608F037
:100B3300A315811581D0E0FED0E0F815811581154C
:100B430081E8C0E0EEC0E022121344B90003020BB7
:100B53009DE4900501783779138002F0A3D8FCD97E
:100B6300FA78239000867A01BA00028007E493A3FF
:100B7300F608DAF97A377B17900087781C790280B8
:100B830015E493A3AD82AE838A828B83F0A3AA82FA
:100B9300AB838D828E83D8E9D9E775826F7583DD48
:100BA3007404120FED75822A75832A7400120FEDF7
:100BB300C0D02521C582C0E0E52234FFC583C0E053
:100BC300E521C3958224F310AF0885832285822112
:100BD3008008858322858221D2AFC8F0A3E9F0A3E0
:100BE300EAF0A3EBF0A37908E709F0A3D8FAECF055
:100BF300A3EDF0A3EEF0A3EFF0A3D0E0F0A3D0E0D9
:100C0300F0A3D0E0F0A3E520F0A3E5F0F0A3228564
:100C13002283852182E0C0E0A3E0F9A3E0FAA3E008
:100C2300FBA37808E0F608A3DFFAE0FCA3E0FDA34A
:100C3300E0FEA3E0FFA3E0C0E0A3E0C0E0A3E0F593
:100C4300D0A3E0F520A3E0A3F5F010AF088583223D
:100C53008582218008858322858221D2AFD082D0EC
:100C630083D0E0F8D0E032E47375F0108E248F2542
:100C7300858229858328852182852283E0CEA3E08E
:100C8300CF852982852883EBC9EAC8EDCBECCAC39B
:100C9300E833C8E933C9EA33CAEB33CBC3EA9EF579
:100CA30027EB9FF526B35004AB26AA27EC33CCEDF4
:100CB30033CDD5F0DAAE24AF25221212BC601C125C
:100CC30012CB601712136270071213597001D322EB
:100CD300C0D01213597006D0D0B322C32233D0D060
:100CE300501430E0F6C3E7960809E7960809E7963B
:100CF3000809E796B32220E0D5E6970809E69708A6
:100D030009E6970809E697B322D083D082ECC0E0C6
:100D1300EDC0E0E493A3FCE493A3FDED4C600D125E
:100D23000E30EC24FFFCED34FFFD80EFE493A3FCD5
:100D3300E493A3FDED4C600D120ECDEC24FFFCED0E
:100D430034FFFD80EFD0E0FDD0E0FCE493A3C0E0EE
:100D5300E493C0E0221212BC601B1212CB60161285
:100D630013627007121359600CB322C0D0121359C7
:100D73007005D0D022C32233D0D0501330E0EBC360
:100D8300E7960809E7960809E7960809E7962220F7
:100D9300E0E4E6970809E6970809E6970809E69765
:100DA30022852283852182E0A3FEE0A3F520780833
:100DB300E0A3F608DFFAE0A3FFE0A3C0E0E0A3C0EE
:100DC300E0E0A3C0E0E0A3C0E0E0A3C0E010AF0810
:100DD3008582218583228008858221858322D2AF63
:100DE300D083D082020FF3D083D082E9C0E0E493B2
:100DF300A3C386F0C5F095F0F908E493A386F0C584
:100E0300F095F0700BE493A3C3994005E9048002C5
:100E1300A3E475F002A42582F582E5F03583F5831A
:100E2300D0E0F9E493A3C0E0E493C0E022C0E0C3C0
:100E3300E49396087401939618400FE49366700840
:100E430008740193661870007019A3A3C3E4939602
:100E5300087401939618A3A3400DD0E0D0E0D0E02E
:100E6300020D48A3A3A3A3A3A3D0E0227404800488
:100E730074028000CCC0E0EDC0E0E521C39CCCADA2
:100E83002250011D10AF068C218D2280068C218DEE
:100E930022D2AF120F6FD0E0FDD0E0FC22740280AB
:100EA30000CCC0E0EDC0E0E521C39CCCAD225001F5
:100EB3001D10AF068C218D2280068C218D22D2AF8E
:100EC300120F4DD0E0FDD0E0FC22C0E0C0F088F06E
:100ED300E4936670080874019366187000A8F0A381
:100EE300A3700BD0F0D0E0D0E0D0E0020D48A3A374
:100EF300D0F0D0E022C0E074F2120BB3A2AFE4331F
:100F0300FED2AFE58BA2E0500579041215A8758BCC
:100F130000C2E8752300EEA2E092AF7F01020C123B
:100F2300D083D082CCC0E0E493A36006120FAF1449
:100F330070FAE493A360061210DC1470FAD0E0FC9C
:100F4300E493A3C0E0E493C0E022CAC0E0E493A327
:100F5300C582CCC582C583CDC583F0A3C582CCC56C
:100F630082C583CDC583DAE5D0E0CA22CAC0E0E0FA
:100F7300A3C582CCC582C583CDC583F0A3C582CC6E
:100F8300C582C583CDC583DAE6D0E0CA22C008C3D3
:100F9300E096F50808A3E096420808A3E096420805
:100FA30008A3E09645087001D3D00822C0E0E4937B
:100FB300A3D39C5010E493A3C39C400AD0E0D0E099
:100FC300D0E0020F40A3A3A3D0E0227009080808D1
:100FD300226016181818C6C333C608C633C608C617
:100FE30033C608C633C6D5E0EA22C09FF59FE47333
:100FF300D09F22D083D082C09FE493C0E07401933A
:10100300C0E0740293F59F22C0E0C0D0E8C0E0A81E
:10101300A8D2AFC2C7752300E8A2E792AFD0E0F829
:10102300D0D0D0E0327404800A7403800674028046
:10103300027401C0E0F404121043D0E0121307223B
:101043002521F58210AF08F521400C15228008F503
:101053002140021522D2AF8522832200C0D0252150
:1010630010AF08F521500C05228008F52150020528
:1010730022D2AFD0D022BB0102E722C082C0838933
:10108300828A83BB0003E08002E493D083D0822270
:101093006016080808C6C313C618C613C618C613B5
:1010A300C618C613C6D5E0EA222521F8E43522F98D
:1010B300222521FAE43522FB222521FCE43522FDF9
:1010C30022C3E0C696F608A3E0C696F608A3E0C6D8
:1010D30096F608A3E0C696F622C0E0E493A36C70EC
:1010E30009D0E0D0E0D0E0020F40A3A3D0E0222556
:1010F3002110AF08F521400C15228008F52140028C
:101103001522D2AF22E066701008A3E066700A08C9
:10111300A3E066700408A3E06622E766701008097E
:10112300E766700A0809E76670040809E76622C3E0
:10113300E09608A3E09608A3E09608A3E096A2D25F
:1011430065D03322C3E7960809E7960809E79608AE
:1011530009E796A2D265D03322181818E4C396F68D
:1011630008E496F608E496F608E496F622C3E096B9
:10117300F008A3E096F008A3E096F008A3E096F049
:1011830022C3E697F60809E697F60809E697F608F4
:1011930009E697F622181818E60846087009E626A5
:1011A300087005E633F4220822191919E7094709DB
:1011B3007009E727097005E733F4220922C3E49392
:1011C3009608740193960874029396087403939691
:1011D30022E627F60809E637F60809E637F608098E
:1011E300E637F622700422600D18C6C333C608C65C
:1011F30033C6D5E0F41822E657F60809E657F60891
:1012030009E657F60809E657F622E026F608A3E0B2
:1012130036F608A3E036F608A3E036F622E026F019
:1012230008A3E036F008A3E036F008A3E036F02286
:10123300E056F008A3E056F008A3E056F008A3E058
:1012430056F022E647F60809E647F60809E647F6A8
:101253000809E647F622E056F608A3E056F608A387
:10126300E056F608A3E056F622600D08C6A2E7137F
:10127300C618C613C6D5E0F322C6F4C608C6F4C61C
:1012830008C6F4C608C6F4C622C3E09608A3E096CF
:1012930008A3E09608A3E09622C3E7960809E79619
:1012A3000809E7960809E7962275D00075813F750E
:1012B300210175220500020B4BE6084608C31346BD
:1012C30008336002E633F422E7094709C3134709E9
:1012D300336002E733F422600C08C6C313C618C692
:1012E30013C6D5E0F422E6F008A3E6F008A3E6F07F
:1012F30008A3E6F022E0F608A3E0F608A3E0F60868
:10130300A3E0F622CAC0E0E6F0A308DAFAD0E0FAD6
:1013130022E0FAA3E0FBA3E0FCA3E0FD22EAF0A3B2
:10132300EBF0A3ECF0A3EDF022E0F8A3E0F9A3E0E7
:10133300FAA3E0FB22E8F0A3E9F0A3EAF0A3EBF0C1
:1013430022E5C754F84401F5C77901222521F58226
:10135300E43522F58322E72719471947194722E67F
:101363002618461846184622C2AF75D69F020000BB
:1013730022120FF633DA02120FF6DFDA02120FF639
:101383000FDB02120FF66FDB02120FF603DC021201
:101393000FF6B4DC02120FF605DD02120FF649DD7B
:1013A30002120FF6E3DD02120FF653DE02120FF6FE
:1013B30082DE02120FF688DF02120FF6B2DF02128C
:1013C3000FF606E002120FF6DAE002120FF608E358
:1013D30002120FF6B6E302120FF623E602120FF61D
:1013E300A8E602120FF6ABE902120FF6DFEB0212C8
:1013F3000FF61BEC02120FF674ED02120FF687EDD7
:1014030002120FF6C4ED02120FF660EF02120FF68E
:1014130014F102120FF674E204120FF6A8E204129A
:101423000FF6F6E204120FF698E304120FF6E68EB7
:1014330004120FF6628F04120FF6958F04120FF643
:10144300C38F04120FF6019004120FF63E9204129A
:101453000FF65D9204120FF6A29204120FF6389360
:1014630004120FF6849304120FF6189404120FF665
:10147300F19404120FF64D9504120FF6AB95041276
:101483000FF61E9604120FF6629604120FF6BA9622
:1014930004120FF6DC9604120FF66C9704120FF683
:1014A300FD9704120FF6499804120FF6759804126B
:1014B3000FF6B69804120FF64C9A04120FF6389BE7
:1014C30004120FF6139C04120FF657FD03120FF6C6
:1014D30093FD03120FF6AEFD03120FF6D3FD0312B5
:1014E3000FF67FFE03120FF69AFE03120FF67FFF2D
:1014F30003120FF6A9FF03120FF64EF204120FF6B2
:101503006BF204120FF659DF04120FF6A8DF041270
:101513000FF6F8DF04120FF633E004120FF639E08A
:1015230004120FF666E004120FF67EE004120FF6C3
:101533004BDB04120FF608DC04120FF6EDDC041289
:101543000FF6ABEC04120FF6BCEC04120FF65AEDD7
:1015530004120FF665ED04120FF67FED04120FF679
:10156300F27F00120FF6D67F00120FF68EED0412F3
:101573000FF69EED04120FF6B0ED04120FF662EEB5
:1015830004120FF6B8E904120FF63CEA04120FF640
:10159300A4EA04120FF6BDEB04120FF60AEC0412D0
:1015A3000FF613EC04120FF63AEC04120FF682EC6A
:1015B30004120FF699EC04120FF6E97F00120FF6EE
:1015C300EC7F00120FF6F87F00120FF6E0FD021217
:1015D3000FF618FE02120FF666FF02120FF6EAFF6D
:1015E30002120FF6F9B604120FF625B704120FF61E
:1015F3008FB904120FF6CFB904120FF60BBA041207
:101603000FF61FBA04120FF638BA04120FF62ABBEC
:1016130004120FF6DDBB04120FF6F1BB04120FF632
:1016230008E104120FF62CE104120FF645E104124F
:101633000FF683E104120FF6B3E104120FF6E0E1B3
:1016430004120FF6EAE104120FF650E204120FF649
:1016530053E204120FF65DE204120FF66AE204127B
:101663000FF666D604120FF686D604120FF6C5D609
:1016730004120FF6E3D604120FF6FED604120FF689
:1016830064D704120FF670D704120FF6CDD70412E5
:101693000FF6DCD704120FF600D804120FF6C1D8E8
:1016A30004120FF6CED804120FF6DFD804120FF689
:1016B3005DF004120FF6A5F004120FF6D1F0041238
:1016C3000FF647BC04120FF6A1BD04120FF6AFBD0F
:1016D30004120FF6C2BD04120FF6D7BD04120FF6A3
:1016E300ECBD04120FF6FFBD04120FF67BBE04120D
:1016F3000FF6E0BE04120FF668BF04120FF6E0BF48
:1017030004120FF6B9C004120FF6C9C004120FF683
:10171300D8C004120FF6C4EF04120FF6E8EF041258
:101723000FF610F004120FF638F004120FF6817D55
:1017330000120FF6A87D00120FF6C67D00120FF6F9
:10174300357E00120FF693D304120FF6ACD30412B6
:101753000FF6B8D304120FF6CCD304120FF6EAD364
:1017630004120FF6F4D304120FF6FED304120FF68D
:1017730011D404120FF697D404120FF60CD50412E9
:101783000FF63BD504120FF689D504120FF6D8D500
:1017930004120FF6F3D504120FF6FDD504120FF65B
:1017A3000ED604120FF651D604120FF651F104129D
:1017B3000FF69CF104120FF685A604120FF6B1A6DC
:1017C30004120FF6CEA604120FF6E1A604120FF6CA
:1017D300FCA604120FF656A704120FF684A70412F0
:1017E3000FF694AB04120FF6F2AC04120FF624AD0D
:1017F30004120FF687AD04120FF6F3AE04120FF6C0
:101803001BAF04120FF630AF04120FF640AF0412F1
:101813000FF680AF04120FF6C2AF04120FF6D2AF69
:1018230004120FF66CE604120FF686E604120FF6A6
:10183300AEE604120FF6C7E604120FF6EBE6041247
:101843000FF609E704120FF620E704120FF64EE72E
:1018530004120FF669E704120FF668EE04120FF68E
:10186300ACEE04120FF6F3C904120FF603CA041206
:101873000FF608CB04120FF63ACB04120FF66ACB1D
:1018830004120FF68DCB04120FF6A4CB04120FF63D
:10189300DECB04120FF643CC04120FF685CC0412F0
:1018A3000FF6CCCC04120FF6F9CC04120FF624CDAC
:1018B30004120FF6D6E304120FF6E8E304120FF650
:1018C300FCE404120FF6FFE404120FF6B2E804126C
:1018D3000FF6E8E804120FF600E904120FF642E9E6
:1018E30004120FF652E904120FF696E904120FF6EA
:1018F300A0E904120FF602B004120FF645B0041269
:101903000FF6AAB004120FF6C9B004120FF66BB1AA
:1019130004120FF674B104120FF6C5B104120FF6D8
:10192300EEB104120FF6FBB104120FF66DB20412FE
:101933000FF6FBB204120FF640B304120FF679B39D
:1019430004120FF6DEB304120FF607B404120FF6F7
:101953007EB404120FF6CDB404120FF60AB50412C6
:101963000FF63FB504120FF651B504120FF663B527
:1019730004120FF682B504120FF68BB504120FF69C
:101983004CB604120FF68FB604120FF6CDB604123E
:101993000FF6A8F104120FF62CE504120FF60DD979
:1019A30004120FF643D904120FF68BD904120FF663
:1019B300E4DA04120FF650DE03120FF676DF031299
:1019C3000FF6B2DF03120FF670E103120FF69EE17A
:1019D30003120FF608E403120FF648E403120FF69E
:1019E300EAE503120FF680E603120FF6DAE60312B6
:1019F3000FF66AE703120FF6AEE703120FF6F0E7EE
:101A030003120FF655E903120FF6D5EA03120FF688
:101A130016ED03120FF644ED03120FF670ED0312E9
:101A23000FF679ED03120FF6D6ED03120FF66FEEF4
:101A330003120FF686F103120FF60CF203120FF6E0
:101A43001AEF04120FF632EF04120FF63CEF0412F2
:101A53000FF692EF04120FF683C504120FF699C521
:101A630004120FF63AC604120FF679C604120FF6E3
:101A730096C604120FF6C7C604120FF614C7041253
:101A83000FF648C704120FF683C704120FF680C976
:101A930004120FF6E6C904120FF6BDEA04120FF69C
:101AA3001CEB04120FF65AEB04120FF69BEB041215
:101AB3000FF69CE704120FF65AE804120FF60080A3
:101AC30002120FF60C8002120FF66E8002120FF64E
:101AD300788002120FF6078102120FF64381021279
:101AE3000FF63C8202120FF6998202120FF6278339
:101AF30002120FF6788302120FF6F88302120FF622
:101B0300BA8502120FF6BF8702120FF6B9880212C6
:101B13000FF6EB8902120FF63D8C02120FF6808D41
:101B230002120FF6258E02120FF6D39202120FF64F
:101B3300C99302120FF65F9402120FF684940212F5
:101B43000FF6219502120FF63E9502120FF65E95DF
:101B530002120FF6CC9502120FF6E99502120FF658
:101B6300179602120FF6AF9702120FF6D0970212D2
:101B73000FF6769802120FF6BE9802120FF61C9912
:101B830002120FF6BF9902120FF6249A02120FF6F1
:101B9300839A02120FF6359B02120FF6A49B0212D0
:101BA3000FF6DF9B02120FF6539C02120FF69E9D57
:101BB30002120FF62E9F02120FF6CD9F02120FF69E
:101BC3000DA202120FF66FA202120FF69DA20212CD
:101BD3000FF6C0A402120FF66AA702120FF67DA831
:101BE30002120FF6008004120FF6018304120FF69F
:101BF300AD8404120FF6BA8404120FF6DA840412C9
:101C03000FF6FB8504120FF6488804120FF6FA88C4
:101C130004120FF6468B04120FF6298C04120FF6EA
:101C2300248D04120FF63A8E04120FF6C88E041296
:101C33000FF6FDF104120FF694FC01120FF653FD9B
:101C430001120FF6B9FD01120FF668FE01120FF62D
:101C53001FC903120FF64EC903120FF6C6C90312AA
:101C63000FF6D5CA03120FF631CB03120FF69ECC33
:101C730003120FF6BACC03120FF60CCD03120FF6B4
:101C83004FCD03120FF662CD03120FF6BACD031236
:101C93000FF67CCE03120FF6F8CE03120FF62FCFFA
:101CA30003120FF667CF03120FF6F9D003120FF6E4
:101CB300D8D103120FF626D303120FF609D4031259
:101CC3000FF695D403120FF6D5D403120FF6F4D4FE
:101CD30003120FF63FD503120FF65FD503120FF66B
:101CE300F8D503120FF67ED603120FF6D9D60312D8
:101CF3000FF619D703120FF6AFD903120FF6C8DA8E
:101D030003120FF60EDB03120FF603DC03120FF6BA
:101D13002BDC03120FF62EDC03120FF638DC031252
:101D23000FF654DC03120FF6CEDC03120FF607DDB9
:101D330003120FF633DD03120FF65ADD03120FF60B
:101D43007EDD03120FF6EFDD03120FF602DE031240
:101D53000FF631DE03120FF6D4F004120FF6E0F0A3
:101D630004120FF614F104120FF6EF7F00120FF6B0
:101D7300F0B203120FF613B303120FF660B403129B
:101D83000FF6A9B403120FF615B503120FF673B5C8
:101D930003120FF676B503120FF6C7B503120FF64B
:101DA3003CB603120FF6C1B603120FF6C4B6031204
:101DB3000FF645B703120FF686B703120FF672BB81
:101DC30003120FF61CBD03120FF66CBD03120FF6C0
:101DD300F3C003120FF626C203120FF6A0C30312B9
:101DE3000FF63DC403120FF660A304120FF67DC76E
:101DF30003120FF62BEC01120FF6D5EC01120FF6BE
:101E030040ED01120FF65BED01120FF6E0ED01124A
:101E13000FF63AEE01120FF681EE01120FF6E8EE1D
:101E230001120FF667F001120FF696F101120FF689
:101E33001EF201120FF627F401120FF6D4F4011269
:101E43000FF678F501120FF649F601120FF604F8B2
:101E530001120FF69CF901120FF62FFA01120FF679
:101E630055FB01120FF6008003120FF6CCD70212B6
:101E73000FF6AB8003120FF6EF8003120FF64A81C1
:101E830003120FF6A78103120FF6E28103120FF676
:101E9300648203120FF6BE8203120FF63C84031210
:101EA3000FF6BC8403120FF6178503120FF6318564
:101EB30003120FF6528503120FF6AC8503120FF6C9
:101EC300288803120FF6478803120FF63789031287
:101ED3000FF66A8A03120FF6E98A03120FF6258BAF
:101EE30003120FF6948B03120FF6498C03120FF6AD
:101EF300218E03120FF6288F03120FF6A090031200
:101F03000FF6969203120FF60C9503120FF6E69650
:101F130003120FF6A79703120FF61F9803120FF67B
:101F2300369803120FF62D9903120FF6219A031216
:101F33000FF6909A03120FF6A1D004120FF6F8D100
:101F430004120FF6B7D204120FF61FD304120FF6C2
:101F53007CCD04120FF697CD04120FF6DBCD0412DD
:101F63000FF601CE04120FF628CE04120FF640CE60
:101F730004120FF6E2CE04120FF6F7CE04120FF698
:101F83001AD004120FF623D004120FF62CD0041229
:101F93000FF635D004120FF63FD004120FF609C125
:101FA30004120FF615C504120FF61AC504120FF624
:101FB3001CC504120FF6E6DD04120FF692F20412AA
:101FC3000FF69EAC02120FF6D1AC02120FF63DAD26
:101FD30002120FF6D8AD02120FF675AE02120FF60B
:101FE300BAAE02120FF6DCAE02120FF6F5AE021213
:101FF3000FF61BAF02120FF63DAF02120FF67BAFC7
:1020030002120FF6BFAF02120FF6E1AF02120FF684
:1020130043B002120FF60AB102120FF6C1B1021257
:102023000FF633B202120FF6FEB202120FF651B3DD
:1020330002120FF6B7B302120FF6F1B302120FF644
:1020430043B402120FF6B1B402120FF61CB502121A
:102053000FF61FB502120FF6A0B502120FF637B630
:1020630002120FF6B7B602120FF6D6B602120FF629
:102073003AB802120FF647B802120FF653B902121A
:102083000FF660B902120FF669B902120FF641BBDF
:1020930002120FF65BBC02120FF6D4BC02120FF64B
:1020A30046BD02120FF668BD02120FF6FCBD021206
:1020B3000FF6D0BF02120FF6A7C302120FF6BBC36F
:1020C30002120FF6CBC302120FF6D5C302120FF69C
:1020D300DEC302120FF6E7C302120FF6F1C30212B8
:1020E3000FF61EC402120FF647C402120FF652C4B3
:1020F30002120FF676C402120FF69AC402120FF6FA
:1021030004C502120FF64AC502120FF667C5021282
:102113000FF6E4C502120FF61BC602120FF65AC6DB
:1021230002120FF6A7C602120FF62DC702120FF600
:10213300FBC802120FF67EC902120FF662CA021220
:102143000FF6C9CC02120FF622CD02120FF66CCD98
:1021530002120FF6C7CE02120FF6FCCE02120FF6D2
:102163004ECF02120FF603D002120FF6B2D00212B4
:102173000FF6EFD002120FF684D102120FF6F0D150
:1021830002120FF6C43000120FF6F63000120FF6EB
:10219300243100120FF6FA3200120FF6DA3300126E
:1021A3000FF6323400120FF66D3500120FF6B93503
:1021B30000120FF6E23800120FF6D53B00120FF6AD
:1021C300253D00120FF6BB3D00120FF6C73D00126E
:1021D3000FF6F93D00120FF67C3F00120FF62D416A
:1021E30000120FF6C14100120FF6044200120FF65F
:1021F300824200120FF69F4200120FF6CF420012E6
:102203000FF6044300120FF6D44300120FF67D4479
:1022130000120FF6034700120FF6234800120FF6C1
:102223000E4900120FF6904900120FF6C44D00122A
:102233000FF6014E00120FF6594E00120FF68C4E98
:1022430000120FF6F64E00120FF62C4F00120FF687
:10225300B74F00120FF60F5000120FF6E6500012A0
:102263000FF69F5100120FF63A5200120FF6425525
:1022730000120FF65E5600120FF6015A00120FF607
:10228300F55A00120FF6F85A00120FF6275B0012E8
:102293000FF62D5D00120FF6065E00120FF6495E73
:1022A30000120FF69F5F00120FF6DE5F00120FF6AB
:1022B300676000120FF69B6000120FF66061001258
:1022C3000FF6786300120FF6E96300120FF6296424
:1022D30000120FF6B76400120FF6D96500120FF65D
:1022E3009B6600120FF6A26800120FF6BA6800127E
:1022F3000FF6CE6800120FF6066900120FF6346966
:1023030000120FF6B36A00120FF6D86B00120FF625
:10231300356C00120FF6E76C00120FF60E6D00120B
:102323000FF6D56D00120FF66D6E00120FF6937057
:1023330000120FF6C87000120FF62B7100120FF681
:102343005A7200120FF6027300120FF63373001263
:102353000FF64B7300120FF6DA7300120FF68E7638
:1023630000120FF6667800120FF6827800120FF64D
:102373009E7800120FF66C7900120FF65F7D001243
:102383000FF6498201120FF67B8201120FF66A865D
:1023930001120FF6B68601120FF6FC8601120FF634
:1023A3009E8701120FF6FA8701120FF63F8801127A
:1023B3000FF6868901120FF69A8A01120FF6898E9B
:1023C30001120FF60D8F01120FF61A9001120FF67C
:1023D300769001120FF6669201120FF6DB9201124C
:1023E3000FF6E59201120FF6F29201120FF61D930A
:1023F30001120FF6049401120FF6AE9401120FF6B8
:102403002C9501120FF64C9501120FF675950112DA
:102413000FF6979501120FF6F79701120FF6BD9875
:1024230001120FF6029901120FF67F9901120FF6AE
:10243300309A01120FF6629A01120FF6A89A01124E
:102443000FF6E49A01120FF6349B01120FF6889BE4
:1024530001120FF6DE9B01120FF62A9C01120FF6F2
:10246300979C01120FF6129D01120FF6DD9E0112C9
:102473000FF6DD9F01120FF602A101120FF641A420
:1024830001120FF654A701120FF611A801120FF64D
:1024930055A801120FF605AA01120FF619AA011287
:1024A3000FF623AA01120FF62DAA01120FF639AA6D
:1024B30001120FF655AA01120FF600AB01120FF627
:1024C3003FAB01120FF649AB01120FF653AB0112EA
:1024D3000FF6C3AB01120FF60EAC01120FF623ADCC
:1024E30001120FF67FAD01120FF600AE01120FF6C7
:1024F300BFAE01120FF6C8AF01120FF6FCB0011206
:102503000FF6EAB101120FF602B201120FF65DB235
:1025130001120FF67BB201120FF6C3B201120FF6CE
:10252300EAB201120FF685B301120FF64BB4011292
:102533000FF6DDB401120FF657B501120FF671B69F
:1025430001120FF61EB701120FF646B801120FF66D
:1025530096B801120FF6FAB801120FF65CB9011220
:102563000FF68AB901120FF6AEB901120FF6E3B9ED
:1025730001120FF614BA01120FF647BA01120FF641
:1025830067BA01120FF6CFBA01120FF6C3BB0112DD
:102593000FF61EBC01120FF647BC01120FF6CFBC9B
:1025A30001120FF652BD01120FF67DBD01120FF697
:1025B30062BE01120FF6CBF202120FF603F3021200
:1025C3000FF624F302120FF666F302120FF6C8F3A6
:1025D30002120FF6D2F302120FF6E2F302120FF613
:1025E3001DF402120FF6FDF702120FF6EAF90212BA
:1025F3000FF6D0FB02120FF667FC02120FF609FD6D
:1026030002120FF664C001120FF6E2C001120FF6B8
:102613003EC101120FF689C101120FF6A4C10112C6
:102623000FF6CFC101120FF6ECC101120FF6F8C17C
:1026330001120FF68FC301120FF6A8C301120FF692
:102643002DC401120FF640C401120FF65FC401122C
:102653000FF603C501120FF684C601120FF637C831
:1026630001120FF6CDC801120FF6D0C801120FF6F2
:1026730040C901120FF65EC901120FF6F5C9011226
:102683000FF63DCA01120FF640CA01120FF606CB30
:1026930001120FF673CB01120FF699CB01120FF64D
:1026A30024CC01120FF642CC01120FF688CC011292
:1026B3000FF63CCD01120FF686CD01120FF6B5CD04
:1026C30001120FF612CE01120FF647CE01120FF6CA
:1026D30073CE01120FF681CE01120FF6CECE011288
:1026E3000FF63ECF01120FF687CF01120FF6D3CFAD
:1026F30001120FF6FFCF01120FF60AD001120FF6E7
:1027030028D001120FF613D101120FF61DD10112B9
:102713000FF658D101120FF668D101120FF671D1DD
:1027230001120FF6C5D101120FF6D9D101120FF61E
:1027330008D301120FF61FD301120FF634D301127F
:102743000FF6C2D301120FF607D401120FF693D47A
:1027530001120FF69ED401120FF6E0D501120FF607
:10276300FBD501120FF647D601120FF6B6D60112AA
:102773000FF6EFD601120FF609D701120FF64BD75A
:1027830001120FF61BDA01120FF6C8DA01120FF667
:1027930035DB01120FF675DD01120FF68DDD011227
:1027A3000FF690DD01120FF69CDD01120FF6B0DD7E
:1027B30001120FF6B8DD01120FF6EBDD01120FF671
:1027C300EDDE01120FF674DF01120FF6E4DF0112E2
:1027D3000FF666E001120FF627E101120FF646E14C
:1027E30001120FF6E7E101120FF644E201120FF6B0
:1027F30047E201120FF674E201120FF689E20112A9
:102803000FF6FDE201120FF64CE401120FF652E54A
:1028130001120FF6DDE501120FF6F8E601120FF6CD
:10282300C0E701120FF6F1E701120FF614E80112E7
:102833000FF61DE801120FF64CE801120FF6DCE863
:1028430001120FF692E901120FF607EA01120FF6D1
:10285300AEEA01120FF623EB01120FF65AEB011247
:102863000FF698EB01120FF6CEEB01120FF6F9A259
:1028730004120FF6E5A204120FF642A204120FF699
:1028830042A104120FF65BA004120FF64B9E041232
:102893000FF6599D04120FF6F79C04120FF6DCB2E3
:1028A30003120FF6D2B203120FF667B203120FF63A
:1028B30083D402120FF6D7D302120FF69BB0031282
:1028C3000FF659B003120FF645D302120FF6FFD2DB
:1028D30002120FF65DAF03120FF631AF03120FF6BC
:1028E300E8AE03120FF629AE03120FF629AB03125B
:1028F3000FF6FBA803120FF6C8A803120FF66FA872
:1029030003120FF602A803120FF6C1A703120FF664
:10291300FAA603120FF694A603120FF633A60312B8
:102923000FF6D3A503120FF6AAA403120FF63EA4C3
:1029330003120FF696A303120FF691A303120FF6D9
:1029430085A303120FF6B89F03120FF6929F03128B
:102953000FF6CAD202120FF697D202120FF682D2E4
:1029630002120FF657D202120FF63FA604120FF609
:102973000BA604120FF6B4A504120FF6309F031230
:102983000FF6D19E03120FF6929E03120FF67F9E4F
:1029930003120FF622A404120FF6749E03120FF60D
:1029A300439E03120FF6309C03120FF6A39B0312F0
:1029B3000FF674A304120FF65F9B03120FF66380E6
:1029C30003120FF6339B03120FF6F1FC03120FF6FB
:1029D300C4FC03120FF691FC03120FF669FC0312F9
:1029E3000FF60AFC03120FF6EAFB03120FF6B5FB10
:1029F30003120FF661F803120FF649F603120FF6EE
:102A030033F403120FF6B3F303120FF65FF303125B
:102A13000FF613F303120FF66AA304120FF66BF209
:102A230003120FF628C50300000080FB8F0001008E
:102A3300171887000100151835000400DE1725005C
:102A43000200E21726000200E41727000200E6173F
:102A530028000100F01729000100F1178400040089
:102A630027158600010045172A000100F2172B00E5
:102A73000100F3172C000100F7172D000800331590
:102A83002E000100F8172F000100F9173000010094
:102A9300FA1731000100FB17320001003B15330028
:102AA30001003C1534000100FC17360001003D1500
:102AB30038000100FD1739000100F61783000200FA
:102AC300131863000100491564000100F417650041
:102AD3000100F5176D0001004A15710008002B1560
:102AE30066000100121843000100031844000200AD
:102AF30004184500010006184600020007184700A5
:102B0300080041154800010009184B0001000A188C
:102B1300040001001618A10001001A183700010073
:102B230019188800010018183C0001003E153D00EB
:102B33000100FE17490002000B18670001004B1546
:102B43004D0002000D184E0001000F184F00020047
:102B530010183E0001000218510001003F155200F9
:102B63000100001853000100011854000100401532
:102B730000000000000000013636010100010201DF
:102B8300000103010001040106060502000007011C
:102B930000340801000F090401010D0100FF0E08B4
:102BA300000017020000190100FF1A0100011B01B8
:102BB30000FE1C0100081D0200001F01000120018E
:102BC3000001210200002301000F2402000026015E
:102BD300000127010008280200FF2A0100072B013A
:102BE30002402C0100002D0100012E0100012F01E4
:102BF30000FF30010B1D310800003A0100083B01C2
:102C0300000F3C0100013D0100FF3E0400004204AF
:102C13000000460400004A0400004E040000520471
:102C23000000560400005A040000000000002001C8
:102C330047820000010020014882000002002001B9
:102C4300438200000300200144820000040042018B
:102C5300DF80000005004201F18000000600420110
:102C6300FE8000000B004201CC8000000700300111
:102C7300458200000040420143810000FDFF210125
:102C83003F82000010004223FE1300001100302396
:102C93000F140300FDFF21013F82030000002123E5
:102CA30010140A00060023019917020400002905E5
:102CB30012140204100429239D1702042005202363
:102CC30090170204040510238F17010371030103F6
:102CD30001030103010301032203020301031003A0
:102CE3000003000300030003000300030003420387
:102CF3000003240306030003000304031203250354
:102D03002303250323030403040300030003000335
:102D13004403000300032303000365032100350379
:102D230081030003050300030003000300032503DD
:102D330023030302710230016002110270020102D7
:102D4300020202028002100261023A0041006302A1
:102D5300730272026202430200021302380000028D
:102D63000002040212020002000200020002040236
:102D73000402370037003C0244020002390000021B
:102D8300000265020002350281020002050282028E
:102D9300830200020101710101010101110101011D
:102DA3003101010101018001100161013B001400A7
:102DB3006301730172016201430100011301060102
:102DC3003D01350004011201000100010001000171
:102DD30004010401330133013C0144013201360093
:102DE30000010001650100013500810100010501B9
:102DF30082018301000103007100300160001100B2
:102E030070003102200350048000100061000000B4
:102E1300140063007300720062004300000013009B
:102E23000600000000000400120000000000000083
:102E3300000004000400370037003C024400000097
:102E43000000000000006500000035008100000064
:102E530005000000830000000100200020054D173D
:102E630001003E001B05C1050100210020054E178E
:102E73000100010221238717010016021023A11765
:102E8300010033002023861701003100302385170A
:102E9300010036022823A317080400002105161495
:102EA30008040005210151170804010521011A1422
:102EB3000804990421011C143600010006000000D7
:102EC3000F0000000000000000000000000003FFEE
:102ED300FF00000403FFFF0000FFFF0FF4010005E4
:102EE300C4040320000100000B00000000000000E8
:102EF3000003010F000000000000000000000000BC
:102F030000000000000000000000000000000000BE
:102F1300000000000000A21BCC1BA81BDC1AAE1B88
:102F2300D21BAE1BDE1BB41BDC1AAE1BD21BBA1B9F
:102F3300DC1A00000000C01BDC1A000000000000C7
:102F43000000C61BDC1A00000000000000000000A7
:102F5300000000000000000000000000000000006E
:102F6300000000000000000000000000000000005E
:102F7300000000001E1E01001E1E0200941D0280A0
:102F83008E1D03009A1D0400A01D0480A61D0500CC
:102F9300AC1D0600B81D3100CA1D3300D01D34001E
:102FA300D61DFFFF0000030003000400080010000B
:102FB3001F003E007B00F600EC01D703AF075D0F57
:102FC300B91E713D000007ECFDFDFDECDCDCCCBC63
:102FD300ACAC9C9C8C7C7C6C6C5C5C5C4C4C3C3CDE
:102FE3002C2C1C1C03EAF5E5D5D5C5B5A59595850F
:102FF300857575656555554545353525251515057E
:103003000AFA2302C42305D02307CA230CAC230DD9
:10301300B823FF000000160F00000B150B0200027F
:10302300220F3300000E0F5A6967426565416C6CCD
:1030330069616E63653039D0D1D2D3D4D5D6D7D8B0
:10304300D9DADBDCDDDEDF303016181920231A1C59
:103053001E3000034D4C4651181A25050200011974
:103063001618161618230300303017181921301BB1
:103073001D1F30003C40423A3F3F392F47300C0E72
:10308300020B040B0A0708000F02040201010101ED
:103093000902000400002105141400BE040AE80319
:1030A300000003000100E803240004091E140C01BE
:1030B30003101E030A0C040F082802180A10150532
:1030C300FFC082C08312142E901574749CF0A374F5
:1030D30021F090157674A2F0A37421F09015787402
:1030E300A8F0A37421F090157A74AEF0A37421F0C4
:1030F300025DFF74F7120ADF901568E4F0E990159A
:1031030067F07C417D157A697B15121AAC9018091A
:10311300E0901571F0901572742BF0A374150240B2
:103123008C74F0120ADFEAFEEBFF54807003023264
:1031330095901567124121700302328EEA241B1207
:10314300598C707CEA241F12598C64137002A3E01B
:10315300706E8A828B831232E3901582124F1E7532
:103163000A00750B00800D123F62126FFE1219B038
:10317300AA0EAB0FEA4B60488A828B83E0650C7022
:1031830004A3E0650D702C8A828B83A3A3A3A3E021
:10319300F50EA3E0F50FE50A450B8A828B83A3A303
:1031A300A3A360C3124264850A82850B83A3A3A3EE
:1031B300A380B78A0A8B0B8A828B83124F1A80B43F
:1031C300E508242A12598CFCE5082402F8E43509A1
:1031D300F9E8FAE9FB9015821233CAA3A3E064026B
:1031E300703C8A828B83124F1E800B88828983A353
:1031F300A3A3A3124264E849601F88828983E06A1B
:103203007003A3E06B70E488828983A3A3E06C70EE
:10321300DA90180F125CBC806BECF91221D8850888
:1032230082850983E06401704FE50824181232CCCB
:103233001210341265A6120E6FE50824121232CC56
:10324300121034E508124115121030E508240B1250
:1032530065AA120E73E50824171240B2E50824028A
:10326300FCE43509FDE5082419FAE43509FB122AC3
:1032730000740A12105E800CE064027007AA08ABA7
:10328300091222B6AA08AB0912191AEEFAEF6480E2
:10329300802DEA5402600C90181E7401F0EA640257
:1032A300FA8023EA5408601A1221D2EA4B700B9079
:1032B30015841264817A081232D9EE6408FAEFFB9E
:1032C30080047A007B00026C30F582E43509F583D3
:1032D300E0F50A780A22FB901567E0F9121A7C22BE
:1032E300A3A3E0F50CA3E0F50D227B00901567E0A6
:1032F300F9121A7074042274F4120ADF8A088B0913
:103303008A828B83A3A3A3124D161240BD38F58383
:10331300E02409FA126BC870030233BD8A828B83DF
:103323007402124D8B8508828509831233CAE8F033
:10333300A3E91268428A828B83A3A3A3A3A3A3A3B3
:10334300A3F0E5082403F8E435091233BF1240BDA6
:103353003AF583E08E828B83A3A3A3A3F0EE240923
:10336300FAE43FFB8E828F83A3A3125F6EF58388FB
:1033730082E0A2E58E828F83A3A3A3A3A350047448
:10338300018001E4F0E5082403F5828983124F1ECE
:10339300EA12549F3BF583126B8F12102C1240BC20
:1033A3003B1260608E828F83A3A3127D3E12105E58
:1033B300EEFAEFFB901567126C158016F98882F50B
:1033C30083E0FAA3E0CA221250BBA3A32274021221
:1033D300105E7F04020DA474F2120ADF8A088B09BF
:1033E300ECFAEDFB740E12134FE0FC1214648A0C1A
:1033F3008B0DAE0CAF0DEA4F6030AC08AD09121463
:1034030052E96026AC08AD09EEFAEFFB121458E955
:1034130070148E828F83124251FAEFFB12144CAA5E
:1034230008AB0912147C7900800279B402500A7443
:10343300F0120ADF74F61210F2EAFEEBFF8C088D2D
:1034430009750FB3852182852283E4F0750E008010
:1034530002050E9030C2E493F8E50EC398400302D0
:103463003559AA0E7B001214A08A0A8B0BEA4B6013
:10347300E08A828B83A3A312356028F0F8C3EE9809
:10348300EF940050CC7C157D007900AA08AB09129B
:103493001902850A82850B83A3A3A3A312703BE0C1
:1034A300F8EEC3982925E0F8E433F9E50A28F58214
:1034B300E50B39F583A3A3A3A3A3A31240C7A312C8
:1034C3005AE38A0C8B0DAC0CAD0DAA08AB09121A8A
:1034D300AC850A82850B83A3E06401700A1265A69A
:1034E30074011240D9804474011210BC850A82858C
:1034F3000B83124F1C121488E9603D740912134F99
:10350300E0C0E01265A6D0E0F0740912134FE06446
:1035130003701374011210BCE508240BFAE4350997
:10352300FB121AAC8012740112134F124264E508A5
:10353300125AC93509126FFC850A82850B831265FD
:10354300B21240D9A3A3E0C0E0E50824141265AA8F
:10355300D0E0F0750F00A90F740A026C2DA3A3A38A
:10356300E0F8852182852283E02274F7120ADFE9DD
:10357300FE8A828B83A3A3A3A3A3A3E0540860338F
:103583008A828B83A3A3A3A3A3A3E0540260218A0B
:10359300828B83A3A3A3A3A3A3A3A3A3E064066033
:1035A3000F74E96E600A74CD6E600574F06E70037B
:1035B3001221BA02490974F0120ADF74EF1210F2F1
:1035C300740F12134F126365740812134FE9F0EC72
:1035D300FEEDFF740512134F1246D11248F5A3E016
:1035E300F9121470740612134F12636574061213E2
:1035F3004F1255307003023874124101E0FA740619
:1036030012134FE0F91220FA1238D4F8A3E0F9E8C4
:10361300497003023874EE2403F50AE43FF50BEE18
:103623002406F508E43FF5097C00850882F583123A
:103633004F1E850A82850B83E0F9121476740312F8
:10364300134F126365850A82850B83E0C0E08521F1
:10365300828522831238CDD0E0125645F985218226
:10366300852283123F69125197123563FAA3E0CA88
:103673002407F582E43AF583E8F0A3E412637024A7
:1036830006F582E438F583E4127008124D0A12102D
:103693002CEE1240BD3F126060740312134F124DA3
:1036A300162409127D3812105E742912134F1270FA
:1036B300351233C41256583A126FFC742B12134F3F
:1036C300E0C0E08521828522831254F7D0E0F074B4
:1036D3000212134FE4F0742512134F78081212F8F4
:1036E3000237CB740312134F1260288882F58312BA
:1036F30038BCA3A3A3125AEEFB12148E850E828547
:103703000F83A3EAF0A3EBF0740312134F1238CD27
:10371300A31238BC125CFDA2E6500F850E82850F02
:1037230083A3A3A3A3A3E0D2E1F0740512134FE094
:10373300706B850E82850F83A31242649015C2E0DD
:10374300687003A3E0697055850E82850F83A3A378
:10375300A312409C750C00780C12103478081210D8
:1037630028742912134FE0F50C780C1210347427C7
:1037730012134F120E739015CF120E737900741932
:1037830012134F124EEE1222FE740A12105E850EB1
:1037930082850F83A3A3A3A3A3E04405F0740212BD
:1037A300134FE004FC8E828F83124F188E828F8317
:1037B300A3A3A3E0F9121476740312134F126365E3
:1037C300740212134FE004F0740312134F125530B6
:1037D3006067740212134FE0FA740612134F124219
:1037E30064C3EA98E4995051740212134F123BA632
:1037F300852182852283E028F8A3E039F9E8240FA4
:10380300F50EE439F50F850E82F583E4F0740312A7
:10381300134F1238C7640160030236E674051213AE
:103823004F7401126C1BF0740312134F125DEF12ED
:103833003BC9E8F0A3E902370A8521828522831276
:103843004F1E122100852182852283120E73742656
:1038530012134FE0FD742512134FE0FC740A121388
:103863004FE0F9EEFAEFFB1221B4740212105E80FE
:10387300438E828F83A3A3A3E0C0E0740C12134F83
:10388300D0E0F0126A84E0C0E0740D12134FD0E070
:10389300F0740612134F1255307009740E12134F41
:1038A30074B98007740E12134F7410F07409121058
:1038B300B41222F87411026C2DE0850E82850F83F9
:1038C300A3A3A322E012561DE022E012561DA3A3D8
:1038D30022852182852283EAF0A3EB1255392274D3
:1038E300F0120ADF74E11210F2740412134FE9F0BC
:1038F300740312134FECF0740212134FEDF08A0E9F
:103903008B0F742F12134F1232E5AA0CFB1220EE09
:10391300740112134FE9F0AA0CAB0D1220F47401D9
:1039230012134FE07003023BA1852182852283E4B9
:1039330080158E828F83A3A3A3A3A3E0D2E3F08594
:103943002182852283E004126B73F885218285220C
:1039530083E0C3984003023B98740112134FE07055
:1039630003023B98852182852283123BA6E50C281E
:10397300F8E50D39F9E8240FFEE439FF8E82F5836B
:10398300A3A3A3A3A3E0A2E040B5750800750A08AA
:10399300750B00740212134FE060037508207C0856
:1039A3007D00790074051210B41219028E828F8380
:1039B300E0603E901612E06401701AE508D2E3F568
:1039C30008750B10123BB612134FE8F0A3E9125916
:1039D300E174FF807643080C750A0C8E828F83A3F3
:1039E300123BC1126FFE740512134F74FFF0A380D4
:1039F3005A740412134FE06009E508D2E6F508751E
:103A03000A0A8E828F83A3E064FE7003A3E0F4703E
:103A130030741212134F74041265D0F8741D12130C
:103A23004FE8124D8B74121210B412201C7D007CCF
:103A3300007900741512134FAA82AB83121E0680FD
:103A43000B123BB612134FE8F0A3E9F074071213FD
:103A53004FE508F01240F8C0E0740912134FD0E0AC
:103A6300F0740A12134F7401F074051210B4122289
:103A7300BC741112134FE06003023B76740D1213F2
:103A83004F1256408E828F83A3A3A3A3F0740D120B
:103A9300134F124D59E50AF0A3E50BF0740312130B
:103AA3004FE0C0E0124CEAD0E0125CFD60119016CA
:103AB30012E0C0E0740D12134F124D34D0E0F074D5
:103AC3000D12134F124264850C82850D83A3A3A3A9
:103AD300A3A3123BAF241C12635F127018123BB1F5
:103AE300125CAF39126AA3C0E0124CD1D0E0126B62
:103AF30068C0E0740D12134F124817D0E0126869C2
:103B0300C0E0740D12134F12480DD0E0F0740D1283
:103B1300134F123BC1123BAF242A12635F850E82FF
:103B2300850F83A3A3A3A3A3A3A3A3E012635812A4
:103B330040E7C0E01247F9D0E0F0740D12134F12C2
:103B43004F1E850E82850F83126B7E2428F582E437
:103B53003B126FFC1240F0126B8F12102C12605943
:103B6300EA1262F13B127D3C12105E74051210B42E
:103B73001222C28E828F83A3A3A3A3A3E0D2E0F079
:103B8300741112134FE06003023935740112134F9D
:103B9300E0140239417900AA0CAB0D1221C0741F45
:103BA300026C2DE075F007A4F8A9F022A3A3124F2D
:103BB30022E8228E828F83A3124268740522E012C8
:103BC3003BC9A3A3A322F8A3E0F9850E82850F8343
:103BD300A32274F0120ADF74E81210F2E98521823D
:103BE300852283F08A0E8B0F8A828B83A3A3A3A3E0
:103BF300A3A3A3A3E0F91221188A088B09EA4B7047
:103C030003023CB2E50E1254B31241101240A785D1
:103C13002182852283E06003023CB57C04850E8209
:103C2300850F83A3A3A3A3A3A3A3A3E0F912211E38
:103C3300EE4F607B8E828F83A3A3A3A3124264748F
:103C43000712134F126496124264740912134F122F
:103C53004DBBC0E0741112134FD0E0126847A3A309
:103C6300A3A3A3A3A3124264740F12134F126FFEF4
:103C7300741212134FE4126C23C8241FF582E43824
:103C8300F583126024C413135403FC70027C048E66
:103C9300828F83E0F97808121030742059FD744044
:103CA30059F974031210B41221B4740212105E0293
:103CB3006C2B7C08850E82850F83A3A3A3A3A3A3E8
:103CC300A3A3E0F912211E8B0BEA4B7003023C33D2
:103CD300EE4F60DB852182852283E0F50C780C12A0
:103CE3001034850882850983A3A3A3A3A3A3A3E018
:103CF300F50C780C1210348A828B83A3A3A3E0FB08
:103D03008A82850B8312785B8A82850B83E0FA8E25
:103D1300828F83A3A3E0F9122A06740212105E02B3
:103D23003C3774F7120ADF74FA1210F2E9FE7801D5
:103D330079017F00800379000F12509AE0FCEFC3F2
:103D43009C5026EF75F007A4FC85F008AD08EA2C1B
:103D5300FCEB3DFD124689E0A2E050DA540C60D63C
:103D6300E0A2E250D3780080CF8A828B83A3A3A3FF
:103D7300A3A3A3E0703DE9A2E0400574016E703394
:103D83008A828B83A3A3A3A3A3A37401124079E024
:103D9300C0E0740312134FD0E01246E8E0C0E074B1
:103DA3000412134FD0E0F0740512134FE8125FC3EF
:103DB3001222F87406024906C082C08379011221D7
:103DC300C0025DFF74F4120ADFEA4B90181E6019FB
:103DD300E4F08A088B09F50AF50B78081210287AA3
:103DE300021232ED12105E800A7401F07A027B0037
:103DF3001232DA0233D574F0120ADF74F31210F2BE
:103E0300740312134FE4F0A3F09015821240A774C9
:103E13000112134FE4F0A3124D9004F09015BCE08F
:103E2300A2E35003023EEC12406D740912134F12C9
:103E33001338740912134F78081212F89015847806
:103E4300081210C4740512134F78081212E9123FB6
:103E530070740512134F780812128C50077A017B85
:103E630000023F5D740512134F780C1212F890187C
:103E73000EE0F509780C7908120A70A80CA90D90C8
:103E8300180FE0C398E4995003E08001E88521828C
:103E9300852283F0740912134F78081212F8C008B0
:103EA300C009C00AC00B740512134F780C1212F824
:103EB300123F70780C7908120A70E4F50AF50BD0FA
:103EC3000FD00ED00DD00C780C79081211849015F8
:103ED30084780C1212E98011123F62126FFEEEFA1F
:103EE300EFFB1219B0AE08AF09EE4F60658E828FFB
:103EF30083123560C398502DEE2403F8E43FF9E0B4
:103F0300FA88828983E0C39AF06023740312134F03
:103F13001243CA740112134FEEF0A3EF1264B1FE01
:103F2300A3E0FF80C48E828F83A3A3A3E4F08E82D9
:103F33008F83127CF5740112134F1255308E828FCA
:103F430083A3A3A3A3609112648A12134F123F6940
:103F53008089740312134F124F1E740D026C2D12BD
:103F630042689015822212604FA3A3A32290180DDA
:103F7300127CFDE4F50AF50B2274F0120ADF8A08BD
:103F83008B09890A780079009015821240A7FBEE0D
:103F93004B601E088E828F83A3A3A3A3124EE860F7
:103FA3001008E87001098E828F831240A3EA4F70D4
:103FB300E3901810124F1EC3E89AE99B4003024096
:103FC300607A06124063A80CA90DEA497003024007
:103FD300608A828B83E508F0A3E509124082E50A33
:103FE300F090180F1250A2124079A3E4F0A3F090BE
:103FF3001582124EE8600D8E828F83A3A3A3A312B2
:104003006FFE8017901582126FFE9015BCE0A2E33D
:10401300400912406D9015841213389015BCE0A22C
:10402300E3503A7A087B00901567E0F9121A82EAA6
:104033004B4C4D702890180DE0F508A3E085080C53
:10404300F50DE4F50EF50F780C1210287A087B00B5
:10405300901567E0F9121A76740412105E026C3040
:104063007B001219AA8A0C8B0D22121A94EAF8EB20
:10407300F9ECFAEDFB2212407D22124082A322F0DA
:104083008A828B83A3A322E508F0024909F08E827A
:104093008F83A3A3A3A3A3A32212599AA3A3F022BA
:1040A300A3A3A3A3E0FEA3E0FF227F05020DA4F5D3
:1040B30082E43509F583E0F922EA1240C122241093
:1040C300F582E4221240CFA3A3A3A32212426C855C
:1040D3000882850983221240DD22F0850A82850B3E
:1040E30083A3A322E50E241112410DE022E50E2441
:1040F3000E12410D22E50E241012410DE022124151
:104103000522EE1240C13FF58322F582E4350FF517
:104113008322240FF50AE43509F50B780A22E0F926
:1041230012192C8A088B09EA4B2274F2120ADF89CE
:104133000B8A088B098A828B83124F1E1221E4EAB1
:104143004B600479B8806A1221F0E9F89030B4E446
:1041530093F9E8C399400479B280567A1512406303
:10416300AE0CAF0DEA4F7004791080458A828B83C1
:10417300E4F0A3124082E50BF0750A0078081210F0
:104183002C7C127D00EA2403126B3A12105E901508
:10419300881255307008901588800C12426488820A
:1041A30089831241B770F4EEF0A3EFF01222027983
:1041B3000002500A124F22EA4B8882898322C0826E
:1041C300C08390158880048C828D8312785CEC4DBB
:1041D30060288C828D83A3A3E069600574FF6970F6
:1041E300E68C828D83A3A3A3E06A7003A3E06B70C4
:1041F300D6EC2403FAE43DFB80047A007B00025DE5
:10420300FF74F7120ADFE9FD74FE6D70047C018010
:10421300027C0090158880096D70027C0188828978
:1042230083125530601F88828983A3A3A3E06A7039
:1042330003A3E06B70E7ECA2E088828983A3A3E089
:1042430050D6F9800279FE024909EEF9800CA3A346
:10425300127CFDEE22740212105E7F02020DA4F5A1
:10426300831242682212426C22E0F8A3E0F9221280
:10427300426C8E828F832212105E7F03020DA4C0D4
:1042830082C0837900901588800109E0FAA3E08A4F
:1042930082F583E582458370F1025DFF74F6120AAD
:1042A300DFE4F508F50978081210309030B4E49390
:1042B30075F013A4A9F01243BF12705C12105EE9EB
:1042C300FE74096E70031221FC02424D74F6120A49
:1042D300DF74FE1210F2852182852283E4F0A3F0BD
:1042E300A821A922880889097808121030750802C4
:1042F3007509007808121030126CCD12105E02425C
:104303005874F5120ADF74EB1210F28521828522AC
:1043130083E4F0A3F090158880748E828F83A3A327
:10432300E0C0E0740212134FD0E01259E1A982AA4F
:104333008389088A09750A00780812102C7C127D7B
:1043430000740612134F12702112105E74021210C1
:10435300AC880889097808121030750813750900AC
:104363007808121030740412134F1254D375F013DB
:10437300A4F8AAF075F013E91243BB126CD512101E
:104383005E8521828522831243CA8E828F831240E7
:10439300A7EE4F7085A821A92288088909780812F9
:1043A30010307508027509007808121030126CCDB0
:1043B30012105E741502427AA42AF9E82402FCE47E
:1043C30039FD7A427B0022E02401F0A3E03400F0BF
:1043D3002274F4120ADF74EB1210F27E007F00A83D
:1043E30021A9228808890978081210307508028EDD
:1043F3000978081210307C007D007A42127068122E
:10440300105EE9706C8E08805674021210AC880A34
:10441300890B780A121030750A13750B00780A128B
:104423001030E50875F013A4F8AAF075F013E50948
:104433001243BB12706A12105EE9701B74031213ED
:104443004FAA82AB83740212134FE0F91221DEE903
:1044530070050EEE70010F0508E508700205098569
:104463002182852283124264C3E50898E5099940B5
:1044730098EEFAEFFB74150233D274F6120ADF8C4E
:10448300828D83A3A31246D6F0EA1262F73BF5832B
:10449300E0C0E0124693D0E0F0EA241DF582E43B4D
:1044A3001242621246771246D1F0A3F0EA241FF5B6
:1044B30082E43BF5831240A7EC12466A3DF583EE96
:1044C300F0A3EFF01246703BF5831246A1A3A3A31A
:1044D300A3A3A3EEF0A3EF125F52FE8C828D83128F
:1044E30046E074035EFEC39403400302465DEE6040
:1044F3000874026E60030245828C828D83E0540C43
:10450300FE740C6E70030245C1E0A2E4400D888284
:104513008983E08C828D83A31246F674086E600350
:104523000245C11246817401F08A828B83A3A3A33F
:10453300A3A31259A770148C828D83E0440C1246F6
:10454300E8A3A31246A1EEF0A3EFF08C828D83E0E3
:10455300A2E4402B88821246AF1246C4500109F5EB
:10456300821246AFA3A3A3A3A3A3F0A3EF1246F023
:104573008C828D83A3A3A3F0E82403F85001098858
:10458300828983E0C0E0EC2411F582E43DF583D019
:10459300E01246E08C828D83E0A2E7507588828921
:1045A30083E0FE8C828D831246F674FC5E700C8C65
:1045B300828D83A3E054036403701E02465D12469A
:1045C30081E4F0740C6E600302452C88821246B5B8
:1045D3001246C450010902454E8C828D83A3E054D8
:1045E30003603288828983E0C0E0EC12469B3DF58C
:1045F30083D0E01246F78C828D83E054036402700B
:104603001488828983E0C0E0124689D0E01246F71D
:104613008003A3E4F0EC12549F3D126FFCEC2410D2
:10462300FEE43DFFEA241DF582E43BF583E0F50853
:104633008E828F83E0C3982508F508F0EA2417F8E3
:10464300E43BF98882F583E0C39508C0E01246771E
:10465300D0E0125F52C39508500A124677E4F01275
:104663004693E4F002425D2415F582E422EA240D28
:10467300F582E422EC240DF582E43DF58322EC126D
:1046830056583DF58322EC2414F582E43DF583224C
:10469300EC1240C13DF583222413F582E422E0FEAF
:1046A300A3E0FF8C828D83A3A3A3A3221246B5A309
:1046B300A3228983E0F508A3E0FFE5088C828D83BC
:1046C30022A3A3A3A3F0A3EFF0E82402F822124647
:1046D300D6A322E4F08C828D83A3A3A3221246FEE9
:1046E300A882A9832212407DA3A3A3A3221246FE7C
:1046F300A3E022A31246FE08A98322125F5BA32232
:1047030074F4120ADF74F31210F28A0A8B0BECFEB4
:10471300EDFF8C82F583E0540CF508E0A2E7500628
:10472300E508D2E7F508E508D2E1F5081259A770C4
:1047330006E508D2E4F508E0A2E55006E508D2E56F
:10474300F5087C087D007900AA21AB2212190274B6
:104753000212134FE508127002C0E0740312134FE4
:10476300D0E0124D90E50AF0A3E50BF074051213A7
:104773004F12686E12134FE07077740812134F12C2
:104783004D16125F4438126889C0E0740812134F43
:10479300124817D0E0126869C0E0740812134F1270
:1047A300480DD0E0F0740812134F124803E0124D85
:1047B3003E124DBF126358EE2411125973C0E0121A
:1047C30047F9D0E0F0EE2414125973C0E0740812D4
:1047D300134F124D162435F582E438F583D0E012D9
:1047E3004D63C0E0740812134F124D1AD0E01265E6
:1047F300C2740D0233D2E82432F582E439F5832200
:10480300124272A3A3A3A3A3A322124D2A126A687E
:1048130038F58322124D2A2426F582E438F58322C3
:1048230074F7120ADF7E008A828B83A3A3A3A3A358
:10483300A3A3A3A3E0640460030248E5125650E077
:1048430060030248E51254B23B12552E700302482E
:10485300E588828983E0540360030248E5E8125641
:104863005839F583E0FA8C828D83A3A3E0FBA3E0A0
:10487300CB2411F582E43BF583E06A706588828975
:1048830083A3A3A3A3A3A3A3A3A31248E9E06A70EA
:1048930003A3E06B704C88828983A3A31248F5E0DD
:1048A300FFA3E0CF24061259736A7003A3E06B7071
:1048B3003188828983A3A3E0F88C828D83A3A3E04C
:1048C300F9A3E0F5838982A3A3E06860138C828D4A
:1048D30083A3A3A3E0F5838982E0540C64047002EC
:1048E3007E01EEF980201248ED22124F268C828D34
:1048F3008322A3A31248EDA3A322740C12134FE047
:10490300F9740D12105E7F01020DA474F6120ADF12
:1049130074FC1210F2EAFEEBFFECFAEDFB8C82F56D
:1049230083A3E05403601690157E125530605979C5
:1049330000EEFCEFFD12614F120C6A804B85218261
:10494300852283EEF0A3EFF0740212134F124D850C
:10495300AC21AD227A1A7B221224428A088B09A841
:1049630008A909EA4960218A828B83A3A3A3A3A38D
:10497300A3A3A3A37406F07A0088828B83124D1637
:10498300126318E0F91223A0740402425A74F2125B
:104993000ADF74F31210F2EAFEEBFF8A82F583A3B7
:1049A300A3A3A3A3A3A3A3A3A3E0F50A90181EE0C4
:1049B300700579BA024CCE750801750900750C00B3
:1049C300750D007C087D007900AA21AB2212190223
:1049D300740512134F7401124D985404601274023B
:1049E30012134FE0D2E6124D985408700375080372
:1049F300E05410600674404508F508E0540860224E
:104A0300740212134FE044C0124D985420600A748C
:104A13000312134FE0D2E08008740312134FE0D265
:104A2300E1F0EE2415125973124CFE700374016900
:104A3300700674084508F5088E828F83A3A3A3A389
:104A4300A3A3A3A3E0701612249C8521828522834D
:104A5300126365740212134FE0D2E28030640F7068
:104A630010740212134F124DA074044508F5088008
:104A73007F8E828F83A3A3A3A3A3A3A3A3E0640234
:104A83008E828F83700A127035E8F0A3E9F080609C
:104A9300A3A3A3A3A3A3A3A3E06403700DAC21ADBD
:104AA30022EEFAEFFB12225080468E828F83A3A35D
:104AB300A3A3A3A3A3A3E064017035901612E0603F
:104AC30010740212134F124DA0750910750AFF805E
:104AD30018740212134FE0440C124D9074FDF0A3AE
:104AE30074FFF074044508F5088E828F831232E553
:104AF300EE2415125973A2E0503F740212134FE0D3
:104B0300540C701B8E828F83124F1E121ED2E970BB
:104B13000579BB024CCE740212134FE0D2E5F0EEDE
:104B23002415125973A2E05010740212134FE0546B
:104B33000C64047004E0D2E5F0EE2411125973C042
:104B4300E0740412134FD0E012687012134FE06048
:104B530003024CC7740812134F124D59E508F0A312
:104B6300E509F0124CF4E0C0E0124CEAD0E0F01298
:104B73004CDBE0C0E0740812134F124D1612469B33
:104B830038F583D0E0124DBF64017011901612E026
:104B9300C0E0740812134F124D34D0E0F0740812C1
:104BA300134F124D54124CE5FAE8241CF582E439F4
:104BB300F583EA124D8BEE2415FAE43FFB8A82F566
:104BC3008312785CE8125CAF39F583124D85EE24CD
:104BD3001C125973C0E0124CD1D0E0125DF5124C97
:104BE300FE70037401697013740812134F12564058
:104BF300FAEE241D125973F91221248E828F83A396
:104C0300A3A3A3A3A3A3A3A3E0C0E0740812134F19
:104C1300124817D0E0F0740812134F12480DE50A3A
:104C2300F0740812134F1254D32428F582E439F593
:104C330083E50CF0A3E50D124D6B124D3E1259ECBA
:104C4300126358EE124CE5C0E0E82433F582E439F0
:104C5300F583D0E0F0EE241B125973C0E074081200
:104C6300134F124D1AD0E0F0EE241A125973C0E01C
:104C7300740812134F124D162432F582E438F5836B
:104C8300D0E0124D63124D0A12102C126A6E127884
:104C93005C740B12134F124D16242F127D38121011
:104CA3005EEE24151259735440601290159E1255EE
:104CB30030600AAA21AB2212614F120C6AAA21ABFF
:104CC300221222C2740C12134FE0F9025005E82499
:104CD30020F582E439F58322EE2419F582E43FF5C9
:104CE3008322126A7DE022E82412F582E439F583F7
:104CF30022EE2418F582E43FF583225480F8A3E0E2
:104D03005401F974806822F508A3E0F509750A00D7
:104D1300780822124D2A22124D2A2434F582E438CF
:104D2300F58322A3A3A3A3124D2E22E0F8A3E0C888
:104D330022124D2A12466A38F58322FAA3E0FBE8D1
:104D4300242AF582E439F583EAF0A3EB22A3A3A393
:104D5300A3124268EE221254D71254B739F58322B4
:104D6300F0EE24131259F422F0EE240D1259F4221A
:104D7300E0FC8A828B83E02CFCA3E03400FD8A8272
:104D83008B83ECF0A3EDF022F0A3E4F022F0852175
:104D93008285228322F0EE24151259F422E0D2E315
:104DA300F0124DA8228E828F8312426C8521828558
:104DB3002283E8F0A3E9F022E8F0A3E91264ABE070
:104DC3002274F7120ADF8A828B83A3E064017004E2
:104DD3007E6380027E648A828B83E0600879051299
:104DE3004DF824F3FE9015BAE06007F9124DF8244C
:104DF300F2FE0248E512236AE9F8EEC3982274F63C
:104E0300120ADF74FE1210F2852182852283126357
:104E130065E9FEECFAEDFB9005C61255306032A849
:104E230021A9228808890978081210307D01740E9F
:104E330012134FE0FCEEF99005C6126339120C6AA7
:104E4300740212105EEA4B60047900800679B28026
:104E53000279B602425874F7120ADFE9FE9015741C
:104E6300125530601F740912134FE0F508780812C9
:104E73001034EEF9901574126339120C6A7401122E
:104E8300105E800279B602490974F7120ADF8908B5
:104E9300ECFEEDFF79B5E508245E6020146006247E
:104EA300F86034803D9005C8124EE8603512707981
:104EB300120C6A8E828F831263658024901576129A
:104EC300785CEC4D601CEEFCEFFD901576126339B7
:104ED300120C6AE9F9800B901572124EEE121AAC9D
:104EE3007900024909124F22EA4B22127860EEFA46
:104EF300EFFB2274F7120ADFE9FE79B574AB6E702B
:104F03000B901572124F1E121AAC79000249098ECA
:104F1300828F83A3A3A3A3A3A3A3A3124F2222122B
:104F23004F2622E0FAA3E0FB2274F1120ADFEAFE25
:104F3300EBFF8C0A8D0B7508019015C2E06E7003B0
:104F4300A3E06F700C124FF9AA0AAB0B121AAC80D4
:104F53005E1224A2EE6A7002EF6B7009AA0AAB0B11
:104F63001224A8804AAC0AAD0BEEFAEFFB121FF82D
:104F7300E9F508901815E0703612293AE97030E522
:104F830008702C901592E06E7003A3E06F7020EE12
:104F93004F601C750C8A750D15750E00780C121078
:104FA3002C7C087D00AA0AAB0B12702512105EA997
:104FB3000802795874F2120ADFEAFEEBFF8C088DBF
:104FC30009750A01124FF9EEFAEFFB121AA6E9640A
:104FD3000170119015C212426485088285098312FB
:104FE3006FFE800EAC08AD09EEFAEFFB121FFEE96F
:104FF300F50AA90A80111224968A0C8B0DAC0CAD0C
:105003000D22740D12105E7F06020DA474F6120AAF
:10501300DFEAFEEBFF7A0D7B001219AAEA4B60620E
:10502300EE2424126D02F0EE2425126D02A3125019
:10503300C7126D08A3A3126A9B1250A2F0EE12507E
:10504300881250B7E8F0A3E91250DE1250AF126F86
:10505300FEEE125091126B5EA3A3A3A3F0EE2433D2
:10506300125973C0E012509AD0E012688D1250AFFB
:10507300A3A3A3E8F0A3E91250D6C0E0125650D080
:10508300E0F002425D242AF582E43FF58322242ED8
:10509300F582E43FF58322EA125AC93BF5832212D3
:1050A30050A622E08A828B83A3A3A322126BBDA303
:1050B300A3A3A3221250BB2212426C8A828B83A326
:1050C300A3A3A322F01250CC22EE2426F582E43FC0
:1050D300F58322F0EE24321259F422F0EE242C123E
:1050E30059F42274F4120ADF74FE1210F2ECFEED8E
:1050F300FFEC241612597364057010EC2406FCE4CB
:105103003FFD12224AE97003025192AC21AD2212F3
:105113006DB7121ED8852182852283125530606BAC
:105123008E828F83E064017058E875F009A4F8AAB1
:10513300F075F009E9A42AF974EB28F8740239F937
:10514300E8FAE9FB8882F58378081212F8EE125226
:105153003412128C4027852182852283124D5412EA
:10516300598112519778081212F890815F780812CA
:10517300120D8A828B8378081212E9800A79A28041
:1051830010EE240F126FF87900800679A18002795E
:10519300C80233D0124DB5EE126A892274F2120A94
:1051A300DF8A0C8B0DECFEEDFFEC125981E4F0A3CA
:1051B300F090818F78081212F8EC12523412110811
:1051C3006067EC240E12597A703478B39015B9E005
:1051D30070289015EBE064017020EC2411125973D0
:1051E300F91223528B09A909EE1254B33F126363D8
:1051F300EA4960047800800278A18808802EE06084
:10520300046402700A12225CE9F5087007801DE04D
:1052130064037010EEFCEFFDAA0CAB0D121EFCE94B
:10522300F50880087508A180037508A3A908025032
:105233000A126A8978082274F0120ADF74F51210D0
:10524300F2EAFEEBFFEA240AFCE43F8C82F58312C8
:105253007CF91254BD74031210BC8A828B831261D1
:1052630059E9700302532374011210BC7403121022
:10527300B4121ED8740112134F1255307003025327
:1052830023E875F009A4F8AAF075F009E9A42AF94E
:1052930074E728FC740239FDE508240E1265AAE4BC
:1052A300F00412134F124264E5081254B335091285
:1052B3006FFC8C828D8312132CE50824121265AACD
:1052C30012133890815F78081212F88C828D8378DC
:1052D300081212208C828D83780C1212F89081B3FD
:1052E30078081212F8780C7908120A70E508450953
:1052F300450A450B702A740112134F1254D375F0EB
:1053030009A4F8AAF075F009E9A42AF974EF28F5BD
:1053130082740239F5837401F07A007B081254E039
:105323008E828F83A3A3A3A3A3A3A3A3A3A3E024F6
:1053330006FCA3E03400FD8E828F8312615912684C
:105343007B603EEE240A1254A5124D597468124D27
:105353008BE812549F39F5837402F09015A412134D
:105363002C8C828D83126352125F443CF58312139B
:105373003890815F78081212F89015A478081212F9
:105383002012551B705D9015721254CBA3A3A3A3D7
:10539300A3A3A3A3A3A3125F7A121AA6E970101200
:1053A3005F38901572125F4A700512687B60348E05
:1053B300828F83A3A3A3A3A3A3A3A3A3A31254CBC7
:1053C300124F1E121F02E960118E828F83A3A3A3C3
:1053D300A3A3A3125507E4F0A3F08E828F83125484
:1053E300EDE4F012551B600302549A8E828F83A35F
:1053F300A3A3A3A3A3127CF59015B9E06003025401
:105403008F9015EBE06401600302548F750A3A75BF
:105413000B00780A12103074021210AC880A890B40
:10542300780A1210301272F412105EE9705BE5080C
:10543300240E1265AA7401125535C0E0E508241143
:105443001265AAD0E0F0E508240F1265AA743A1297
:105453004D8B9015A012132CE50824121265AA1285
:10546300133890815F78081212F89015A07808120B
:10547300122090815F78081212F89015A078081214
:10548300110870081254DC80031254BD12551B70AE
:1054930006125E3B74A1F0740B026C2D240EF58290
:1054A300E422F8E43FF9E8FCE9FD8882F58322EA87
:1054B3001254B722240FF582E422E5081254B735BB
:1054C30009F583E4F0A3F0221278608E828F8322A1
:1054D3001254D72212426CE8227A007B0290144ABB
:1054E300E0F9121956228A828B83A3A3A3A3A3A351
:1054F300A3A3A3A31254FB22124D2E240EF582E480
:1055030038F58322A3A3A3A312550F22124D2E24F1
:105513000FF582E438F583228E828F83A3A3A3A39E
:10552300A3A3124D26240FF582E438F5831254D732
:10553300492212553922F0852182852283E0227483
:10554300F6120ADFEAFEEBFF7A237B001219AAEEBA
:10555300240AF508E43FF5098508821263637C2376
:105563007D0079001219028508828509831255305E
:105573007003025603EEFAEFFB12226812551B600A
:10558300748E828F8312563664018E828F83A3A317
:10559300A3A3A3A3700712562C740E8021125530B7
:1055A300701012687B700B8E828F83A3A3E0A2E03E
:1055B3005007125622740D80051256227405126884
:1055C3008D54036401700712560A7405800B9015FD
:1055D300BAE0C0E012560AD0E0125645F58388823D
:1055E3001259A0850882850983124D161262F73875
:1055F300F583E9800E8508828509831263DC8003C5
:1056030012631FF002425D8E828F83A3A3A3A3A321
:10561300A3A3A3A3A312561C22E012633EA3228ECC
:10562300828F83A3A3A3A3A3A3124D261262FD38E3
:10563300F58322A3A3A3A3A3A3A3A3A3A31254FB0E
:10564300E02212564922126DCCF8A3E022EA125648
:10565300583BF58322240CF582E42274F1120ADF0D
:1056630074E41210F28A0C8B0D8C088D097A237B5B
:10567300001219AA8A0A8B0BAE0AAF0BEA4F70030A
:1056830002595B126303E508241512598C687003F1
:10569300A3E0698E828F837004740280027401F028
:1056A300E508240DF8E43509F98882F583E0FAC3A7
:1056B300E49AFA95E0FB1259882AFAA3E03BFB8EA1
:1056C300828F83A3A3A3A3125F618E828F83A3A37D
:1056D300F0EE2420F582E43FF583E4F0EE2421F597
:1056E30082E43FF583E4F0EEFAEFFB12231C850816
:1056F300828509831259A770098E828F83A374054B
:1057030080069015BA125995F0EE2417F50AE43F76
:10571300F50B8E828F831259A0E9850A82850B834C
:10572300F0EE2416F8E43FF9E508240EFAE435090F
:10573300FB88828983124D73E5082410FAE4350946
:10574300FB850A82850B83E0FC88828983E0F88AE3
:10575300828B83E0C398C39CF81259E1F0EEFCEF0F
:10576300FDAA0CAB0D122262E9F50B8E828F83E04A
:1057730064027006125F38125965E50B6003025923
:1057830052750C00750D00901815E064016005E07A
:105793006402703F1259776008EE242112597A701F
:1057A300328E828F83A3A3A31263251259ADEE24F5
:1057B300161259731259D6FAE439FB124065EA4BB3
:1057C3006011126B8712102C1259BBAA0C12702590
:1057D30012105EEEFAEFFB122328E9F50B90181571
:1057E300E064016008E064026003025945E9700364
:1057F300025945E50C450D70030259528003850E8D
:105803000B125977600BEE242112597A6003025967
:105813004B850B0E850C08850D09750A0078081257
:10582300102C1259BB8E828F83A3A3A3A3127D3E98
:1058330012105EEE2420125973600D1259807468A1
:10584300124D8BEE24208015EE242112597360151E
:105853001259807403F0A37401F0EE2421F582E45D
:105863003FF583E4F0EEFAEFFB122328E9F50B7022
:10587300907C137D00790074091210B4121902741C
:105883001A12134F74011259EC64687002A3E0708A
:105893004F8E828F83125507E0640560030258011F
:1058A3007C0879FF8E828F83A3A3A3A3E0242A120B
:1058B3005F7D12198CE970030258017C087D007921
:1058C300FF74011210B412190274011210BC7A0091
:1058D3007B0079AB122244741912134F74FC8015A8
:1058E300125980E064037004A3E064017008741922
:1058F30012134F74FFF0E4F508F50978081210301D
:1059030074021210BC741312134FAA82AB83126475
:105913006212105E852182852283E0602B74091256
:1059230010AC8808890978081210307508137509B6
:105933000078081210307C007D00126CD512105EC6
:105943008006E50C450D6007AA0CAB0D1219B0EEED
:10595300FAEFFB1219B08003750B10A90B741C022C
:105963007955EE2406FAE43FFB121AAC22EE240C1E
:105973001259F422EE24201259F4640122EE125437
:10598300B73FF58322E508240EF582E43509F58354
:10599300E02212599AA322E08E828F8322A3E0F998
:1059A30012236A22E054036401221259B122E0FA5D
:1059B300E82AF8E43400F9228E828F83A3A3A3128A
:1059C30063291259B1EE24161259F41259D6FCE484
:1059D30039FD22FAE82AF8E439F9E82404221259B5
:1059E300E52212689CA3A3A322F01259F122EE240C
:1059F3000FF582E43FF583E0227901020FF374F49B
:105A0300120ADFEAFEEBFF8A82F583A3A3A3A3A313
:105A1300A3A3A3124D162424F582E438F583125967
:105A2300A7702E8A828B831256367025125ACFE0C6
:105A33006405701D125ACFA3E0F874016860057401
:105A4300066870071254E9740280051254E974035E
:105A5300F0EA240A1263D0126339E4F0EA2408F866
:105A6300E43F1233BF2431F582E43AF583E0C0E02A
:105A7300127070A3A3D0E0125AEECA242EF582E46A
:105A83003AF583E0C0E0127070A3A3A3D0E01260E4
:105A930014C8125AC938124262127070125AE38A39
:105AA3000A8B0BAC0AAD0B850882850983125F7ADA
:105AB300121AAC850882850983124F1E12232812FD
:105AC30063CBF00233D5240BF582E4228A828B83E5
:105AD300A3A3A3A3A3A3A3A3126862F5838882222B
:105AE300A3A3A3A3124DB512249622125F56FAA3C1
:105AF300E0220259FCC082C083901594746EF0A317
:105B03007422F0901596747AF0A37422F09015988D
:105B13007480F0A37422F090159A7474F0A3742225
:105B2300F0025DFF74F4120ADFEA2408FEE43BFF8F
:105B33008E82F5831254D312630FE0F50874035574
