:020000040000FA
:060000000212A80208161E
:03002B00021007B9
:03003300020EF4C6
:030053000207455C
:100083000207A701010000000000F8FF07FFFF00BF
:10009300000504000000030001FFFFFFFF00141030
:1000A3002700000020FD000206FFFF1E32000000B3
:1000B300640000001900000032000000010000008D
:1000C300F21B000000000000000000000000000020
:1000D30004020300000003000000000C00006400A1
:1000E300000064000000000001000100010104049D
:1000F3000104010203020423810000000204010C35
:100103000002022282000000030401060102013CF6
:1001130082000000010400003A14000000E803001C
:1001230000FFFF8B1488130000E8030000640064E1
:1001330000B801A0BB0D00A0BB0D00020202070422
:1001430001071E02051E020A0A010108080103B87D
:100153000B02803E0102FEFFE8030A050001FFFFD8
:10016300020A011401E0050301010F030003000368
:100173000003000300030003000300030005000A5B
:1001830000140028004F009E000000FD2D00000019
:1001930000D12C00000000FF000000FF001212C776
:1001A30060461212B8603DE9687008F618F618F652
:1001B30018F622748067F71201D40909097480675D
:1001C300F7221212B8601D1212C77005191919808F
:1001D3001A121194701F1211A8C37003E667331922
:1001E300191940071818182208080874FFF618F69A
:1001F30018F618F6221211A86017121355702192DF
:10020300F012135E7019501720F01408080809093A
:1002130009E7F61819E7F61819E7F61819E7F622A9
:1002230012135E60E6E869701F0808E62480F6088A
:10023300E436F618547FB47F0CE654806007F6E486
:1002430018F618F622181822E9C6CC08C6CD08C637
:10025300CE08C6CFC0E0E8C0E0EAC0E0EBC0E009EA
:10026300E9F809E7FA09E7FBE6F918E6F8C3EC98B9
:10027300ED99EE9AEBC2E7F5F0EFC2E795F0500E79
:10028300600CEBCFFBEACEFAE9CDF9E8CCF8EAA2B1
:10029300E7D2E7FAEB33FB13F5F0EEA2E7D2E7FE82
:1002A300EF33FFC5F013A2E730E601B313C5F0C384
:1002B300C0E0C0F07F00C39BFB605E9418600F40FA
:1002C3001D14601AD0E023F9D0E0F80203A68AF0E7
:1002D300E9486003D2F0E4AFF0FAF9F8803BEB3081
:1002E300E40D89F0EA6003D2F0E4AFF0F9CAF8EB69
:1002F30030E30D88F0EF6002D2F0AFF0E4CAC9F842
:10030300EB54076014FBC3EA13FAE913F9E813F893
:10031300EF135002D2E0FFDBEDD0E0C0E030E7396D
:10032300C3E49FFFF5F0EC98FC42F0ED99FD42F039
:10033300EE9AFE42F0D0E0F9D0E0F8E5F0607AE919
:1003430023F9EE20E742D8028067C3EF33FFEC3393
:10035300FCED33FDEE33FE80EAEC28FCED39FDEED7
:100363003AFED0E023F9D0E0F84002801BC3EE133D
:10037300FEED13FDEC13FCEF135002D2E0FF08B8BF
:1003830000067F7F74FF802EEF3350178CF020F030
:100393000260100CBC000C0DBD00080EBE0004086A
:1003A300E860DFE933E813FFEE2313FE4F4D4C8083
:1003B30008E95480FFE4FEFDFCEE33EF33F47004F0
:1003C300FCFD7E80D0E0FBD0E0FAD0E0F8D0E0CFB7
:1003D300C618CEC618CDC618CCC6F9221212B870EC
:1003E30004181818221212C7700D74FFF61819F6A4
:1003F3001819F61819F622E7548066F612135E7080
:100403000F12135570F014F608F608F608F680D1AB
:10041300121355700CF608F608768008E6447F80C0
:10042300EC1211AB700C12119760BFE65480F6E426
:1004330080BB121197700519191980A5E869700C12
:10044300763F18768018F618F6E8F922E6CDC0E074
:1004530018ECC0E0E633CD33CDD313F6E719FCE750
:10046300191933CC33C3947F400ECD9D502408E635
:100473005480F6E418F6800FF4043D14501408E693
:10048300447FF6187680E418F618F6D0E0FCD0E046
:10049300FD22CCD313CCFD18E4C6CBC0E018E4C6D0
:1004A300CAC0E00808ED08C633E613F618E433C6FD
:1004B30075F003C3CA97CA09CB97CB199C40047D37
:1004C30008802EBD000302058816B6FF0506060840
:1004D3001618C3CA33CACB33CB33CA27CA09CB379F
:1004E300CB193CC37D08803E187D0820E75CC633EA
:1004F300C6CA33CACB33CB33DDF1D5F0EB30E77B60
:10050300CA97CA09CB974ACB199C406F4B7025E613
:1005130020E0218066187D08C3CA97CA09CB97CB10
:10052300199CD3C633C6CA33CACB33CB3350C9DDC8
:10053300E7D5F0E1D3E4C636C608C636C608C636E4
:10054300C608C636C61818188031C3CA97CA09CB5D
:1005530097CB199CB34097C633C6CA33CACB33CBA8
:1005630033DD34D5F02EC6A2E0C640C8CA27CA0977
:10057300CB37194A70BECB3CB480B90808E63308C0
:10058300E633601F181818D0E0FAD0E0FBD0E0FC87
:10059300D0E0FD22187D08CA27CA09CB37CB193C06
:1005A300D3808013F618E4B67F11F618B6FF0EF663
:1005B30018C60470D20808768080CAF618F618F6B2
:1005C30080C5001212B8604F1212C76012E7548040
:1005D30066F61211947011121355703B090909F450
:1005E300F618F618F618F6221211A8701512135EF3
:1005F30008080860EAE6447FF618768018E4F618DF
:10060300F62212135E60161213557012E4F608F602
:1006130008F608E65480F609090918181822EAC0F2
:10062300E0EBC0E0ECC0E0EDC0E0E687F0A4FBAC9B
:10063300F008E687F0A42CFCE435F0FA1809E68705
:10064300F0A42C4B60027401CA35F0FCE433FB09BF
:10065300E687F0D2F7A42CCB35F0FC1908E687F037
:10066300A42BCC35F0FBE433FD0819E687F0D2E781
:10067300A42C4ACB35F0CD3400FC09E687F0D2E751
:10068300A42DCC35F0FDE433FA0918E687F0D2F750
:10069300A42CCD35F0CA3400FC08E687F0D2E7D2AB
:1006A300F7A42ACC35F07A7E20E70B0ACB33CBCDE7
:1006B30033CDCC33CC33CB3350147004ED30E00E58
:1006C300D2F1E4CD3DCDCC3CCC3B5005DA05C2F1B3
:1006D300EB547FC63308E63392F0FBE73309E73385
:1006E300C39A502D2B70190C0D4C4D70151806E63E
:1006F30008C333700D20F10AA2F013F6E418800B3F
:100703004024E4F630F002768018F618F618F680E6
:1007130024D33B14501074FFA2F013F6187680E430
:1007230018F618F6800FA2F013F618E63303F6183E
:10073300ECF618EDF6D0E0FDD0E0FCD0E0FBD0E025
:10074300FA22C0E074F1120BB1A2AFE433F509D27F
:10075300AF85A708AFA1EF5508FE74105E600612BF
:10076300164C75A1EF74085E600812165275A1F756
:100773008024EFA2E092F0E508A2E082F050179007
:100783006198E0F8900610E0C398A2D265D0335088
:1007930002E8F075A1FE752300E509A2E092AF7FA0
:1007A30002020C10C0E074F2120BB1A2AFE433FEEC
:1007B300D2AF9061A4E0F8759B00E59158540860AE
:1007C300087591F71216A08023E59158541060081C
:1007D3007591EF1216A68014E591A2E092F0E8A2BB
:1007E300E082F05007E0C2E0F01217FC9061A3E052
:1007F300F8E5E9585404600E1217D275E9FB9061CD
:1008030093E0A2E640F2752300EEA2E092AF7F01EF
:10081300020C10C0E074F2120BB1A2AFE433FED2AB
:10082300AF9061A5E0F8E5BF585404600675BFFBBF
:1008330012181480D112088D30F0431208D2803E72
:100843008A088B098C0A8D0B780812088D20F01406
:1008530030E72B74FFFCFBFA747F8022E4FCFBFA85
:100863007480801AB48008BC00F2BB00EF800F5084
:10087300EBF9E4C39AFAE49BFBE49CFCE499C6CC51
:1008830018C6CB18C6CA18C6F922E4C9C608CAC610
:1008930008CBC6D3330308CCC63392F0C3947F404E
:1008A3002E94184019C9B90704CACBCC225025C3CA
:1008B30009CA33CACB33CBCC33CC33D9F422F4605B
:1008C3000DC9CCC313CB13CBCA13CAD9F6CC22E4BC
:1008D300FCFBFA2214FCFBFA22C3E498F8E499F92E
:1008E30012091D8026C3E49AFAE49BFBE920E7E999
:1008F30012091DE498F8E499F922C3E498F8E499FD
:10090300F912091DE498F8E499F9C3E49AFAE49B0F
:10091300FB22EB20E7CFE920E7E0B90010BB00089A
:10092300E88AF084F8AAF022E4FBC8FA22EB7022EA
:100933007B10C833C8C933C9335007C39AC3DBF22A
:1009430080069A50012ADBEAC833F4C8C933F4C9D4
:10095300FA2275F008E4C833C8C933C933C99AC940
:100963009B5004C92AC93BD5F0ECFBC833F4C8E457
:10097300C9FA22080808EAC0E0EBC0E086F0E7A461
:10098300FA180986F0E7A42AFA180986F0E7A42AD8
:10099300FA180986F0E7A42AFA1986F0E7A4FBE51A
:1009A300F02AFA190886F0E7A42BFBE5F03AFA19C6
:1009B3000886F0E7A42BFBE5F03AFA18180986F04D
:1009C300E7A4C5F02BFBE43AFA1908E7C5F0C6A47F
:1009D30026F6E5F03BFBE43AFA1886F0E7A4F6E5E1
:1009E300F00826F6E43B08F6E43A08F6D0E0FBD03C
:1009F300E0FA22080808E630E711121158120A0E2D
:100A0300080808C64480C618181822181818E97967
:100A13009EC608CAC608CBC608CCC6C37020799642
:100A2300CACBCC7019798ECBCC70137986CC700E6F
:100A3300F9802ACA33CACB33CBCC33CC331930E752
:100A4300F2CCCBCA3350147004EA30E00DE4CA3A56
:100A5300CACB3BCBCC3CCC500209C3E913C6CC1860
:100A63002313C6CB18C6CA18C6F922E4CFC0E0E4E4
:100A7300CEC0E0E4CDC0E0E4CCC0E075F020E626D3
:100A8300F608E633F608E633F608E633F6181818E0
:100A9300EC33FCED33FDEE33FEEF33FFC3EC97098C
:100AA300ED9709EE9709EF97191919400FFFEC9786
:100AB300FC09ED97FD09EE97FE191906D5F0BFEC79
:100AC300F709EDF709EEF709EFF7191919D0E0FC6B
:100AD300D0E0FDD0E0FED0E0FF222521C582C0E0BA
:100AE300E52234FFC583C0E0E521C3958224F810D5
:100AF300AF08858322858221800885832285822110
:100B0300D2AFCEF0A3E520F0A37808E608F0A3DE89
:100B1300FAEFF0A3E58124FAF8E608F0A3E608F07B
:100B2300A3E608F0A30808E608F0A3E608F0A31577
:100B3300811581D0E0FED0E0F8158115811581E89B
:100B4300C0E0EEC0E022121340B90003020B9BE4A5
:100B5300900501782779138002F0A3D8FCD9FA789D
:100B6300239000867A01BA00028007E493A3F60873
:100B7300DAF97A277B17900087781A79028015E4CF
:100B830093A3AD82AE838A828B83F0A3AA82AB83C5
:100B93008D828E83D8E9D9E77582D87583DC740496
:100BA300120FE975822C75832A7400120FE9C0D0E5
:100BB3002521C582C0E0E52234FFC583C0E0E521DD
:100BC300C3958224F310AF08858322858221800890
:100BD300858322858221D2AFC8F0A3E9F0A3EAF08E
:100BE300A3EBF0A37908E709F0A3D8FAECF0A3ED9F
:100BF300F0A3EEF0A3EFF0A3D0E0F0A3D0E0F0A3D6
:100C0300D0E0F0A3E520F0A3E5F0F0A32285228352
:100C1300852182E0C0E0A3E0F9A3E0FAA3E0FBA30F
:100C23007808E0F608A3DFFAE0FCA3E0FDA3E0FE0A
:100C3300A3E0FFA3E0C0E0A3E0C0E0A3E0F5D0A3FE
:100C4300E0F520A3E0A3F5F010AF088583228582A9
:100C5300218008858322858221D2AFD082D083D0A0
:100C6300E0F8D0E03275F0108E248F258582298537
:100C73008328852182852283E0CEA3E0CF85298244
:100C8300852883EBC9EAC8EDCBECCAC3E833C8E9CE
:100C930033C9EA33CAEB33CBC3EA9EF527EB9FF59F
:100CA30026B35004AB26AA27EC33CCED33CDD5F0D5
:100CB300DAAE24AF25221212B8601C1212C76017D5
:100CC30012135E70071213557001D322C0D0121392
:100CD300557006D0D0B322C32233D0D0501430E0A5
:100CE300F6C3E7960809E7960809E7960809E79621
:100CF300B32220E0D5E6970809E6970809E69708A6
:100D030009E697B322D083D082ECC0E0EDC0E0E4E3
:100D130093A3FCE493A3FDED4C600D120E2CEC2485
:100D2300FFFCED34FFFD80EFE493A3FCE493A3FD0C
:100D3300ED4C600D120EC9EC24FFFCED34FFFD8079
:100D4300EFD0E0FDD0E0FCE493A3C0E0E493C0E087
:100D5300221212B8601B1212C7601612135E7007BC
:100D6300121355600CB322C0D01213557005D0D0A6
:100D730022C32233D0D0501330E0EBC3E7960809E7
:100D8300E7960809E7960809E7962220E0E4E69744
:100D93000809E6970809E6970809E697228522835A
:100DA300852182E0A3FEE0A3F5207808E0A3F608FE
:100DB300DFFAE0A3FFE0A3C0E0E0A3C0E0E0A3C04C
:100DC300E0E0A3C0E0E0A3C0E010AF088582218586
:100DD30083228008858221858322D2AFD083D0826B
:100DE300020FEFD083D082E9C0E0E493A3C386F07F
:100DF300C5F095F0F908E493A386F0C5F095F0707B
:100E03000BE493A3C3994005E9048002A3E475F0BE
:100E130002A42582F582E5F03583F583D0E0F9E479
:100E230093A3C0E0E493C0E022C0E0C3E493960838
:100E33007401939618400FE4936670080874019345
:100E4300661870007019A3A3C3E493960874019302
:100E53009618A3A3400DD0E0D0E0D0E0020D44A348
:100E6300A3A3A3A3A3D0E02274048004740280008C
:100E7300CCC0E0EDC0E0E521C39CCCAD2250011D08
:100E830010AF068C218D2280068C218D22D2AF12C9
:100E93000F6BD0E0FDD0E0FC2274028000CCC0E0F8
:100EA300EDC0E0E521C39CCCAD2250011D10AF067F
:100EB3008C218D2280068C218D22D2AF120F49D036
:100EC300E0FDD0E0FC22C0E0C0F088F0E49366705F
:100ED300080874019366187000A8F0A3A3700BD0E0
:100EE300F0D0E0D0E0D0E0020D44A3A3D0F0D0E0F6
:100EF30022C0E074F2120BB1A2AFE433FED2AFE52D
:100F03008BA2E0500579041215A4758B00C2E87515
:100F13002300EEA2E092AF7F01020C10D083D082B7
:100F2300CCC0E0E493A36006120FAB1470FAE49311
:100F3300A360061210D81470FAD0E0FCE493A3C0A7
:100F4300E0E493C0E022CAC0E0E493A3C582CCC529
:100F530082C583CDC583F0A3C582CCC582C583CDAD
:100F6300C583DAE5D0E0CA22CAC0E0E0A3C582CCDB
:100F7300C582C583CDC583F0A3C582CCC582C58395
:100F8300CDC583DAE6D0E0CA22C008C3E096F508EF
:100F930008A3E096420808A3E096420808A3E09657
:100FA30045087001D3D00822C0E0E493A3D39C503A
:100FB30010E493A3C39C400AD0E0D0E0D0E0020F3A
:100FC3003CA3A3A3D0E022700908080822601618E6
:100FD3001818C6C333C608C633C608C633C608C600
:100FE30033C6D5E0EA22C09FF59FE473D09F22D099
:100FF30083D082C09FE493C0E0740193C0E0740285
:1010030093F59F22C0E0C0D0E8C0E0A8A8D2AFC249
:10101300C7752300E8A2E792AFD0E0F8D0D0D0E0C4
:10102300327404800A74038006740280027401C05F
:10103300E0F40412103FD0E0121303222521F582BD
:1010430010AF08F521400C15228008F52140021548
:1010530022D2AF8522832200C0D0252110AF08F50C
:1010630021500C05228008F52150020522D2AFD071
:10107300D022BB0102E722C082C08389828A83BB5C
:101083000003E08002E493D083D082226016080834
:1010930008C6C313C618C613C618C613C618C61384
:1010A300C6D5E0EA222521F8E43522F9222521FAE2
:1010B300E43522FB222521FCE43522FD22C3E0C6D0
:1010C30096F608A3E0C696F608A3E0C696F608A32C
:1010D300E0C696F622C0E0E493A36C7009D0E0D09A
:1010E300E0D0E0020F3CA3A3D0E022252110AF08FB
:1010F300F521400C15228008F52140021522D2AFBC
:1011030022E066701008A3E066700A08A3E0667028
:101113000408A3E06622E76670100809E766700A10
:101123000809E76670040809E76622C3E09608A386
:10113300E09608A3E09608A3E096A2D265D03322F6
:10114300C3E7960809E7960809E7960809E796A210
:10115300D265D03322181818E4C396F608E496F63D
:1011630008E496F608E496F622C3E096F008A3E0B6
:1011730096F008A3E096F008A3E096F022C3E69762
:10118300F60809E697F60809E697F60809E697F6DA
:1011930022181818E60846087009E626087005E6BE
:1011A30033F4220822191919E70947097009E727B7
:1011B300097005E733F4220922C3E4939608740106
:1011C30093960874029396087403939622E627F67F
:1011D3000809E637F60809E637F60809E637F6227E
:1011E300700422600D18C6C333C608C633C6D5E0E3
:1011F300F41822E657F60809E657F60809E657F603
:101203000809E657F622E026F608A3E036F608A317
:10121300E036F608A3E036F622E026F008A3E0362F
:10122300F008A3E036F008A3E036F022E056F00819
:10123300A3E056F008A3E056F008A3E056F022E638
:1012430047F60809E647F60809E647F60809E647B8
:10125300F622E056F608A3E056F608A3E056F60891
:10126300A3E056F622600D08C6A2E713C618C613FC
:10127300C6D5E0F322C6F4C608C6F4C608C6F4C64B
:1012830008C6F4C622C3E09608A3E09608A3E09636
:1012930008A3E09622C3E7960809E7960809E796AC
:1012A3000809E7962275D00075813F7521017522E3
:1012B3000500020B49E6084608C3134608336002DB
:1012C300E633F422E7094709C3134709336002E70A
:1012D30033F422600C08C6C313C618C613C6D5E080
:1012E300F422E6F008A3E6F008A3E6F008A3E6F08C
:1012F30022E0F608A3E0F608A3E0F608A3E0F6224E
:10130300CAC0E0E6F0A308DAFAD0E0FA22E0FAA3D2
:10131300E0FBA3E0FCA3E0FD22EAF0A3EBF0A3ECE7
:10132300F0A3EDF022E0F8A3E0F9A3E0FAA3E0FBD9
:1013330022E8F0A3E9F0A3EAF0A3EBF022E5C75417
:10134300F84401F5C77901222521F582E43522F518
:101353008322E72719471947194722E62618461813
:1013630046184622C2AF75D69F02000022120FF222
:1013730033DA02120FF2DFDA02120FF20FDB02127C
:101383000FF26FDB02120FF203DC02120FF2B4DC76
:1013930002120FF205DD02120FF249DD02120FF203
:1013A300E3DD02120FF253DE02120FF282DE0212AB
:1013B3000FF288DF02120FF2B2DF02120FF206E021
:1013C30002120FF2DAE002120FF208E302120FF236
:1013D300B6E302120FF223E602120FF2A8E602129C
:1013E3000FF2ABE902120FF2DFEB02120FF21BEC6A
:1013F30002120FF274ED02120FF287ED02120FF2D6
:10140300C4ED02120FF260EF02120FF214F1021296
:101413000FF271E004120FF2A5E004120FF2F3E0F1
:1014230004120FF2C5E104120FF24F8E04120FF2F1
:10143300CB8E04120FF2FE8E04120FF22C8F0412C5
:101443000FF26A8F04120FF2A79104120FF2C691E2
:1014530004120FF20B9204120FF2A19204120FF274
:10146300ED9204120FF2819304120FF25A940412B4
:101473000FF2B69404120FF2149504120FF287952B
:1014830004120FF2CB9504120FF2239604120FF2FB
:10149300459604120FF2D59604120FF266970412C2
:1014A3000FF2B29704120FF2DE9704120FF21F9895
:1014B30004120FF2B59904120FF2A19A04120FF25B
:1014C3007C9B04120FF257FD03120FF291FD0312DE
:1014D3000FF2ACFD03120FF2D1FD03120FF273FEF4
:1014E30003120FF28EFE03120FF273FF03120FF2B9
:1014F3009DFF03120FF2F8F104120FF215F204121A
:101503000FF2C2DE04120FF211DF04120FF261DFD9
:1015130004120FF29CDF04120FF2A2DF04120FF287
:10152300CFDF04120FF2E7DF04120FF2B4DA041272
:101533000FF271DB04120FF256DC04120FF255ECBA
:1015430004120FF266EC04120FF204ED04120FF210
:101553000FED04120FF229ED04120FF2EE7F0012C9
:101563000FF2D27F00120FF238ED04120FF248EDA2
:1015730004120FF25AED04120FF20CEE04120FF2E2
:1015830062E904120FF2E6E904120FF24EEA0412C2
:101593000FF267EB04120FF2B4EB04120FF2BDEB80
:1015A30004120FF2E4EB04120FF22CEC04120FF20C
:1015B30043EC04120FF2E57F00120FF2E87F0012F2
:1015C3000FF2F87F00120FF2E0FD02120FF218FE85
:1015D30002120FF266FF02120FF2EAFF02120FF27B
:1015E30062B604120FF28EB604120FF2F8B80412A8
:1015F3000FF238B904120FF274B904120FF288B95A
:1016030004120FF2A1B904120FF293BA04120FF2EB
:1016130046BB04120FF25ABB04120FF203E2041288
:101623000FF227E204120FF240E204120FF27EE2FD
:1016330004120FF2AEE204120FF2DBE204120FF215
:10164300E5E204120FF24BE304120FF24EE304122D
:101653000FF258E304120FF265E304120FF2CFD531
:1016630004120FF2EFD504120FF22ED604120FF26A
:101673004CD604120FF267D604120FF2CDD6041221
:101683000FF2D9D604120FF236D704120FF245D750
:1016930004120FF269D704120FF22AD804120FF2C0
:1016A30037D804120FF248D804120FF207F00412CD
:1016B3000FF24FF004120FF27BF004120FF2B0BBE3
:1016C30004120FF20ABD04120FF218BD04120FF236
:1016D3002BBD04120FF240BD04120FF255BD0412CC
:1016E3000FF268BD04120FF2E4BD04120FF249BEFB
:1016F30004120FF2D1BE04120FF249BF04120FF20B
:1017030022C004120FF232C004120FF241C00412BD
:101713000FF26EEF04120FF292EF04120FF2BAEF10
:1017230004120FF2E2EF04120FF27D7D00120FF2AA
:10173300A47D00120FF2C27D00120FF2317E00125F
:101743000FF2FCD204120FF215D304120FF221D3BD
:1017530004120FF235D304120FF253D304120FF213
:101763005DD304120FF267D304120FF27AD304127B
:101773000FF200D404120FF275D404120FF2A4D4A2
:1017830004120FF2F2D404120FF241D504120FF235
:101793005CD504120FF266D504120FF277D504124A
:1017A3000FF2BAD504120FF2FBF004120FF246F156
:1017B30004120FF2EEA504120FF21AA604120FF28E
:1017C30037A604120FF24AA604120FF265A60412FA
:1017D3000FF2BFA604120FF2EDA604120FF2FDAA38
:1017E30004120FF25BAC04120FF28DAC04120FF271
:1017F300F0AC04120FF25CAE04120FF284AE0412CA
:101803000FF299AE04120FF2A9AE04120FF2E9AE71
:1018130004120FF22BAF04120FF23BAF04120FF2BC
:1018230016E604120FF230E604120FF258E6041221
:101833000FF271E604120FF295E604120FF2B3E60B
:1018430004120FF2CAE604120FF2F8E604120FF2C2
:1018530013E704120FF212EE04120FF256EE041203
:101863000FF25CC904120FF26CC904120FF271CAB1
:1018730004120FF2A3CA04120FF2D3CA04120FF216
:10188300F6CA04120FF20DCB04120FF247CB041267
:101893000FF2ACCB04120FF2EECB04120FF235CCE5
:1018A30004120FF262CC04120FF28DCC04120FF269
:1018B3006FE304120FF281E304120FF295E40412B2
:1018C3000FF298E404120FF25CE804120FF292E8AC
:1018D30004120FF2AAE804120FF2ECE804120FF25A
:1018E300FCE804120FF240E904120FF24AE9041271
:1018F3000FF26BAF04120FF2AEAF04120FF213B07C
:1019030004120FF232B004120FF2D4B004120FF229
:10191300DDB004120FF22EB104120FF257B104120C
:101923000FF264B104120FF2D6B104120FF264B2D3
:1019330004120FF2A9B204120FF2E2B204120FF270
:1019430047B304120FF270B304120FF2E7B3041299
:101953000FF236B404120FF273B404120FF2A8B4E8
:1019630004120FF2BAB404120FF2CCB404120FF241
:10197300EBB404120FF2F4B404120FF2B5B504126F
:101983000FF2F8B504120FF236B604120FF252F149
:1019930004120FF2C5E404120FF205E604120FF26B
:1019A30076D804120FF2ACD804120FF2F4D8041252
:1019B3000FF24DDA04120FF250DE03120FF276DF4C
:1019C30003120FF2B2DF03120FF270E103120FF2F0
:1019D3009EE103120FF208E403120FF248E403122C
:1019E3000FF2EAE503120FF280E603120FF2DAE6D2
:1019F30003120FF26AE703120FF2AEE703120FF2BC
:101A0300F0E703120FF255E903120FF2D5EA0312BE
:101A13000FF216ED03120FF244ED03120FF270ED05
:101A230003120FF279ED03120FF2D6ED03120FF248
:101A33006FEE03120FF286F103120FF20CF2031290
:101A43000FF2C4EE04120FF2DCEE04120FF2E6EE14
:101A530004120FF23CEF04120FF2ECC404120FF263
:101A630002C504120FF2A3C504120FF2E2C5041259
:101A73000FF2FFC504120FF230C604120FF27DC637
:101A830004120FF2B1C604120FF2ECC604120FF2E5
:101A9300E9C804120FF24FC904120FF267EA0412E5
:101AA3000FF2C6EA04120FF204EB04120FF245EB35
:101AB30004120FF246E704120FF204E804120FF2C5
:101AC300008002120FF20C8002120FF26E800212DB
:101AD3000FF2788002120FF2078102120FF2438194
:101AE30002120FF23C8202120FF2998202120FF2DB
:101AF300278302120FF2788302120FF2F883021285
:101B03000FF2BA8502120FF2BF8702120FF2B988E1
:101B130002120FF2EB8902120FF23D8C02120FF246
:101B2300808D02120FF2258E02120FF2D39202124F
:101B33000FF2C99302120FF25F9402120FF2849410
:101B430002120FF2219502120FF23E9502120FF2CA
:101B53005E9502120FF2CC9502120FF2E995021272
:101B63000FF2179602120FF2AF9702120FF2D097ED
:101B730002120FF2769802120FF2BE9802120FF2BF
:101B83001C9902120FF2BF9902120FF2249A021249
:101B93000FF2839A02120FF2359B02120FF2A49BEB
:101BA30002120FF2DF9B02120FF2539C02120FF28A
:101BB3009E9D02120FF22E9F02120FF2CD9F021270
:101BC3000FF20DA202120FF26FA202120FF29DA2E8
:101BD30002120FF2C0A402120FF26AA702120FF24E
:101BE3007DA802120FF2008004120FF20883041280
:101BF3000FF2728404120FF27F8404120FF29F8497
:101C030004120FF2C08504120FF2008804120FF2BF
:101C1300B08804120FF2CF8A04120FF2A88B0412B9
:101C23000FF27D8C04120FF2A38D04120FF2318E8A
:101C330004120FF2A7F104120FF28FFC01120FF23C
:101C43004EFD01120FF2B4FD01120FF263FE0112F9
:101C53000FF21FC903120FF24EC903120FF2C6C9C6
:101C630003120FF2D5CA03120FF231CB03120FF294
:101C73009ECC03120FF2BACC03120FF20CCD031257
:101C83000FF24FCD03120FF262CD03120FF2BACD52
:101C930003120FF27CCE03120FF2F8CE03120FF2EF
:101CA3002FCF03120FF267CF03120FF2F9D00312F3
:101CB3000FF2D8D103120FF226D303120FF209D475
:101CC30003120FF295D403120FF2D5D403120FF2BD
:101CD300F4D403120FF23FD503120FF25FD50312B0
:101CE3000FF2F8D503120FF27ED603120FF2D9D6F4
:101CF30003120FF219D703120FF2AFD903120FF227
:101D0300C8DA03120FF20EDB03120FF203DC031225
:101D13000FF22BDC03120FF22EDC03120FF238DC6E
:101D230003120FF254DC03120FF2CEDC03120FF294
:101D330007DD03120FF233DD03120FF25ADD031234
:101D43000FF27EDD03120FF2EFDD03120FF202DE5C
:101D530003120FF231DE03120FF27EF004120FF2C0
:101D63008AF004120FF2BEF004120FF2EB7F00129E
:101D73000FF2F0B203120FF213B303120FF260B4B7
:101D830003120FF2A9B403120FF215B503120FF2E7
:101D930073B503120FF276B503120FF2C7B5031230
:101DA3000FF23CB603120FF2C1B603120FF2C4B620
:101DB30003120FF245B703120FF286B703120FF2A5
:101DC30072BB03120FF21CBD03120FF26CBD0312A0
:101DD3000FF2F3C003120FF226C203120FF2A0C3D5
:101DE30003120FF23DC403120FF2C9A204120FF241
:101DF3007DC703120FF226EC01120FF2D0EC011291
:101E03000FF23BED01120FF256ED01120FF2DBED73
:101E130001120FF235EE01120FF27CEE01120FF2F6
:101E2300E3EE01120FF262F001120FF291F10112CF
:101E33000FF219F201120FF222F401120FF2CFF492
:101E430001120FF273F501120FF244F601120FF2B1
:101E5300FFF701120FF297F901120FF22AFA01129A
:101E63000FF250FB01120FF2008003120FF2CCD7D6
:101E730002120FF2AB8003120FF2EF8003120FF284
:101E83004A8103120FF2A78103120FF2E2810312B8
:101E93000FF2648203120FF2BE8203120FF23C842C
:101EA30003120FF2BC8403120FF2178503120FF211
:101EB300318503120FF2528503120FF2AC85031220
:101EC3000FF2288803120FF2478803120FF23789A3
:101ED30003120FF26A8A03120FF2E98A03120FF256
:101EE300258B03120FF2948B03120FF2498C03120A
:101EF3000FF2218E03120FF2288F03120FF2A0901C
:101F030003120FF2969203120FF20C9503120FF2C3
:101F1300E69603120FF2A79703120FF21F9803120C
:101F23000FF2369803120FF22D9903120FF2219A32
:101F330003120FF2909A03120FF20AD004120FF257
:101F430061D104120FF220D204120FF288D20412CC
:101F53000FF2E5CC04120FF200CD04120FF244CDC0
:101F630004120FF26ACD04120FF291CD04120FF294
:101F7300A9CD04120FF24BCE04120FF260CE04125D
:101F83000FF283CF04120FF28CCF04120FF295CF0E
:101F930004120FF29ECF04120FF2A8CF04120FF215
:101FA30072C004120FF27EC404120FF283C404122F
:101FB3000FF285C404120FF24FDD04120FF23CF24C
:101FC30004120FF29EAC02120FF2D1AC02120FF206
:101FD3003DAD02120FF2D8AD02120FF275AE02122E
:101FE3000FF2BAAE02120FF2DCAE02120FF2F5AE2E
:101FF30002120FF21BAF02120FF23DAF02120FF2E9
:102003007BAF02120FF2BFAF02120FF2E1AF021267
:102013000FF243B002120FF20AB102120FF2C1B172
:1020230002120FF233B202120FF2FEB202120FF2D9
:1020330051B302120FF2B7B302120FF2F1B302124D
:102043000FF243B402120FF2B1B402120FF21CB535
:1020530002120FF21FB502120FF2A0B502120FF215
:1020630037B602120FF2B7B602120FF2D6B6021249
:102073000FF23AB802120FF247B802120FF253B935
:1020830002120FF260B902120FF269B902120FF2D3
:1020930041BB02120FF25BBC02120FF2D4BC02125C
:1020A3000FF246BD02120FF268BD02120FF2FCBD21
:1020B30002120FF2D0BF02120FF2A7C302120FF2E5
:1020C300BBC302120FF2CBC302120FF2D5C302122B
:1020D3000FF2DEC302120FF2E7C302120FF2F1C3D3
:1020E30002120FF21EC402120FF247C402120FF2C1
:1020F30052C402120FF276C402120FF29AC40212F1
:102103000FF204C502120FF24AC502120FF267C59D
:1021130002120FF2E4C502120FF21BC602120FF2F3
:102123005AC602120FF2A7C602120FF22DC70212ED
:102133000FF2FBC802120FF27EC902120FF262CA3B
:1021430002120FF2C9CC02120FF222CD02120FF2C9
:102153006CCD02120FF2C7CE02120FF2FCCE0212A6
:102163000FF24ECF02120FF203D002120FF2B2D0CF
:1021730002120FF2EFD002120FF284D102120FF209
:10218300F0D102120FF2C03000120FF2F23000123F
:102193000FF2203100120FF2F63200120FF2D63393
:1021A30000120FF22E3400120FF2693500120FF2F3
:1021B300B53500120FF2DE3800120FF2D13B0012D8
:1021C3000FF2213D00120FF2B73D00120FF2C33D93
:1021D30000120FF2F53D00120FF2783F00120FF2DA
:1021E300294100120FF2BD4100120FF2004200120A
:1021F3000FF27E4200120FF29B4200120FF2CB420B
:1022030000120FF2004300120FF2D04300120FF23C
:10221300794400120FF2FF4600120FF21F4800121A
:102223000FF20A4900120FF28C4900120FF2C04D4F
:1022330000120FF2FD4D00120FF2554E00120FF275
:10224300884E00120FF2F24E00120FF2284F0012C6
:102253000FF2B34F00120FF20B5000120FF2E250C5
:1022630000120FF29B5100120FF2365200120FF2BE
:102273003E5500120FF25A5600120FF2FD5900128A
:102283000FF2F15A00120FF2F45A00120FF2235B0D
:1022930000120FF2295D00120FF2025E00120FF21C
:1022A300455E00120FF29B5F00120FF2DA5F00121D
:1022B3000FF2636000120FF2976000120FF25C617D
:1022C30000120FF2746300120FF2E56300120FF2B3
:1022D300256400120FF2B36400120FF2D5650012E9
:1022E3000FF2976600120FF29E6800120FF2B668A3
:1022F30000120FF2CA6800120FF2026900120FF205
:10230300306900120FF2AF6A00120FF2D46B0012A1
:102313000FF2316C00120FF2E36C00120FF20A6D30
:1023230000120FF2D16D00120FF2696E00120FF25C
:102333008F7000120FF2C47000120FF22771001297
:102343000FF2567200120FF2FE7200120FF22F7389
:1023530000120FF2477300120FF2D67300120FF23E
:102363008A7600120FF2627800120FF27E78001262
:102373000FF29A7800120FF2687900120FF25B7D68
:1023830000120FF2448201120FF2768201120FF251
:10239300658601120FF2B18601120FF2F786011260
:1023A3000FF2998701120FF2F58701120FF23A88A3
:1023B30001120FF2818901120FF2958A01120FF2B5
:1023C300848E01120FF2088F01120FF21590011281
:1023D3000FF2719001120FF2619201120FF2D69275
:1023E30001120FF2E09201120FF2ED9201120FF2BD
:1023F300189301120FF2FF9301120FF2A994011225
:102403000FF2279501120FF2479501120FF2709503
:1024130001120FF2929501120FF2F29701120FF2CD
:10242300B89801120FF2FD9801120FF27A99011276
:102433000FF22B9A01120FF25D9A01120FF2A39A77
:1024430001120FF2DF9A01120FF22F9B01120FF20A
:10245300839B01120FF2D99B01120FF2259C0112EB
:102463000FF2929C01120FF20D9D01120FF2D89EF2
:1024730001120FF2D89F01120FF2FDA001120FF209
:102483003CA401120FF24FA701120FF20CA8011284
:102493000FF250A801120FF200AA01120FF214AAB0
:1024A30001120FF21EAA01120FF228AA01120FF253
:1024B30034AA01120FF250AA01120FF2FBAA011261
:1024C3000FF23AAB01120FF244AB01120FF24EAB13
:1024D30001120FF2BEAB01120FF209AC01120FF29F
:1024E3001EAD01120FF27AAD01120FF2FBAD011214
:1024F3000FF2BAAE01120FF2C3AF01120FF2F7B02F
:1025030001120FF2E5B101120FF2FDB101120FF248
:1025130058B201120FF276B201120FF2BEB20112DB
:102523000FF2E5B201120FF280B301120FF246B4BB
:1025330001120FF2D8B401120FF252B501120FF2C9
:102543006CB601120FF219B701120FF241B8011262
:102553000FF291B801120FF2F5B801120FF257B949
:1025630001120FF285B901120FF2A9B901120FF28C
:10257300DEB901120FF20FBA01120FF242BA0112C1
:102583000FF262BA01120FF2CABA01120FF2BEBB06
:1025930001120FF219BC01120FF242BC01120FF229
:1025A300CABC01120FF24DBD01120FF278BD011228
:1025B3000FF25DBE01120FF2CBF202120FF203F320
:1025C30002120FF224F302120FF266F302120FF259
:1025D300C8F302120FF2D2F302120FF2E2F3021265
:1025E3000FF21DF402120FF2FDF702120FF2EAF9D5
:1025F30002120FF2D0FB02120FF267FC02120FF26B
:1026030009FD02120FF25FC001120FF2DDC00112C9
:102613000FF239C101120FF284C101120FF29FC1EF
:1026230001120FF2CAC101120FF2E7C101120FF238
:10263300F3C101120FF28AC301120FF2A3C30112F5
:102643000FF228C401120FF23BC401120FF25AC455
:1026530001120FF2FEC401120FF27FC601120FF234
:1026630032C801120FF2C8C801120FF2CBC801120F
:102673000FF23BC901120FF259C901120FF2F0C94F
:1026830001120FF238CA01120FF23BCA01120FF204
:1026930001CB01120FF26ECB01120FF294CB011298
:1026A3000FF21FCC01120FF23DCC01120FF283CCBB
:1026B30001120FF237CD01120FF281CD01120FF289
:1026C300B0CD01120FF20DCE01120FF242CE011264
:1026D3000FF26ECE01120FF27CCE01120FF2C9CEB1
:1026E30001120FF239CF01120FF282CF01120FF252
:1026F300CECF01120FF2FACF01120FF205D0011261
:102703000FF223D001120FF20ED101120FF218D1E2
:1027130001120FF253D101120FF263D101120FF222
:102723006CD101120FF2C0D101120FF2D4D10112F8
:102733000FF203D301120FF21AD301120FF22FD3A8
:1027430001120FF2BDD301120FF202D401120FF2E4
:102753008ED401120FF299D401120FF2DBD50112BC
:102763000FF2F6D501120FF242D601120FF2B1D6D3
:1027730001120FF2EAD601120FF204D701120FF27F
:1027830046D701120FF216DA01120FF2C3DA011261
:102793000FF230DB01120FF270DD01120FF288DD50
:1027A30001120FF28BDD01120FF297DD01120FF20E
:1027B300ABDD01120FF2B3DD01120FF2E6DD011200
:1027C3000FF2E8DE01120FF26FDF01120FF2DFDF0B
:1027D30001120FF261E001120FF222E101120FF276
:1027E30041E101120FF2E2E101120FF23FE20112A5
:1027F3000FF242E201120FF26FE201120FF284E2D2
:1028030001120FF2F8E201120FF247E401120FF284
:102813004DE501120FF2D8E501120FF2F3E60112B2
:102823000FF2BBE701120FF2ECE701120FF20FE810
:1028330001120FF218E801120FF247E801120FF22A
:10284300D7E801120FF28DE901120FF202EA011229
:102853000FF2A9EA01120FF21EEB01120FF255EB70
:1028630001120FF293EB01120FF2C9EB01120FF2F7
:1028730062A204120FF24EA204120FF2ABA10412D1
:102883000FF2ABA004120FF2C49F04120FF2B49D17
:1028930004120FF2C29C04120FF2609C04120FF296
:1028A300DCB203120FF2D2B203120FF267B20312B9
:1028B3000FF283D402120FF2D7D302120FF29BB09E
:1028C30003120FF259B003120FF245D302120FF2A3
:1028D300FFD202120FF25DAF03120FF231AF0312F8
:1028E3000FF2E8AE03120FF229AE03120FF229AB77
:1028F30003120FF2FBA803120FF2C8A803120FF280
:102903006FA803120FF202A803120FF2C1A703125A
:102913000FF2FAA603120FF294A603120FF233A6D4
:1029230003120FF2D3A503120FF2AAA403120FF29C
:102933003EA403120FF296A303120FF291A3031204
:102943000FF285A303120FF2B89F03120FF2929FA7
:1029530003120FF2CAD202120FF297D202120FF22F
:1029630082D202120FF257D202120FF2A8A504125A
:102973000FF274A504120FF21DA504120FF2309F7B
:1029830003120FF2D19E03120FF2929E03120FF263
:102993007F9E03120FF28BA304120FF2749E031295
:1029A3000FF2439E03120FF2309C03120FF2A39B0C
:1029B30003120FF2DDA204120FF25F9B03120FF258
:1029C300638003120FF2339B03120FF2F1FC031225
:1029D3000FF2C4FC03120FF291FC03120FF269FC15
:1029E30003120FF20AFC03120FF2EAFB03120FF2B7
:1029F300B5FB03120FF261F803120FF249F603124B
:102A03000FF233F403120FF2B3F303120FF25FF377
:102A130003120FF213F303120FF2D3A204120FF2F5
:102A23006BF203120FF228C50300000080FBE4736E
:102A33008F0001000518870001000318350004000A
:102A4300CC1725000200D01726000200D21727005A
:102A53000200D41728000100DE1729000100DF1748
:102A63008400040017158600010035172A000100B1
:102A7300E0172B000100E1172C000100E5172D00E2
:102A8300080023152E000100E6172F000100E717A9
:102A930030000100E81731000100E917320001009E
:102AA3002B15330001002C1534000100EA17360002
:102AB30001002D1538000100EB1739000100E41760
:102AC300830002000118630001003915640001004E
:102AD300E21765000100E3176D0001003A1571006C
:102AE30008001B1566000100001843000100F117E0
:102AF30044000200F21745000100F41746000200EB
:102B0300F51747000800311548000100F7174B007F
:102B13000100F817040001000418A10001000818BF
:102B23003700010007188800010006183C00010067
:102B33002E153D000100EC1749000200F91767004C
:102B430001003B154D000200FB174E000100FD176D
:102B53004F000200FE173E000100F0175100010074
:102B63002F1552000100EE1753000100EF17540018
:102B7300010030150000000000000001363601019D
:102B83000001020100010301000104010606050220
:102B93000000070100340801000F090401010D01C1
:102BA30000FF0E08000017020000190100FF1A01C0
:102BB30000011B0100FE1C0100081D0200001F0193
:102BC300000120010001210200002301000F240263
:102BD30000002601000127010008280200FF2A0146
:102BE30000072B0102402C0100002D0100012E01E2
:102BF30000012F0100FF30010B1D310800003A01D5
:102C030000083B01000F3C0100013D0100FF3E04B1
:102C1300000042040000460400004A0400004E0481
:102C2300000052040000560400005A040000000093
:102C330000002001428200000100200143820000C5
:102C4300020020013E820000030020013F820000B9
:102C530004004201F380000005004201CC80000023
:102C630006004201058100000B004201E0800000E4
:102C73000700300140820000004042014A81000009
:102C8300FDFF21013A82000010004223F2130000ED
:102C93001100302303140300FDFF21013A820300D6
:102CA3000000212304140A000600230187170204ED
:102CB3000000290506140204100429238B170204BB
:102CC300200520237E170204040510237D1701032A
:102CD300710301030103010301030103220302033F
:102CE30001031003000300030003000300030003B8
:102CF3000003420300032403060300030003040349
:102D030012032503230325032303040304030003FE
:102D130000030003440300030003230300036503CC
:102D230021003503810300030503000300030003AF
:102D33000003250323030302710230016002110221
:102D430070020102020202028002100261023A00D2
:102D53004100630273027202620243020002130221
:102D63003800000200020402120200020002000204
:102D7300000204020402370037003C02440200024E
:102D830039000002000265020002350281020002DE
:102D930005028202830200020101710101010101A6
:102DA30011010101310101010101800110016101E2
:102DB3003B001400630173017201620143010001CE
:102DC300130106013D013500040112010001000158
:102DD3000001000104010401330133013C014401FA
:102DE3003201360000010001650100013500810157
:102DF300000105018201830100010300710030011C
:102E030060001100700031022003500480001000A4
:102E1300610000001400630073007200620043004D
:102E23000000130006000000000004001200000070
:102E330000000000000004000400370037003C02DB
:102E430044000000000000000000650000003500A1
:102E5300810000000500000083000000360001002F
:102E6300060000000F00000000000000000000004A
:102E7300000003FFFF00000403FFFF0000FFFF0F3C
:102E8300F4010005C4040320000100000B0000004E
:102E9300000000000003010F00000000000000001C
:102EA300000000000000000000000000000000001F
:102EB30000000000000000000000A41BCE1BAA1BA2
:102EC300DE1AB01BD41BB01BE01BB61BDE1AB01BF3
:102ED300D41BBC1BDE1A00000000C21BDE1A00005C
:102EE300000000000000C81BDE1A00000000000004
:102EF30000000000000000000000000000000000CF
:102F030000000000000000000000000000000000BE
:102F13000000000000000100200020053D17010013
:102F23003E001B05C1050100210020053E170100DD
:102F33000102212375170100160210238F170100C8
:102F4300330020237417010031003023731701006D
:102F53003602282391170804000021050A140804E7
:102F6300020521237F17080403052123811700008D
:102F7300201E0100201E0200961D0280901D0300EA
:102F83009C1D0400A21D0480A81D0500AE1D0600A3
:102F9300BA1D3100CC1D3300D21D3400D81DFFFFF4
:102FA3000000030003000400080010001F003E009F
:102FB3007B00F600EC01D703AF075D0FB91E713D2F
:102FC300000007ECFDFDFDECDCDCCCBCACAC9C9C58
:102FD3008C7C7C6C6C5C5C5C4C4C3C3C2C2C1C1CDE
:102FE30003EAF5E5D5D5C5B5A595958585757565CB
:102FF3006555554545353525251515050AFC230227
:10300300C62305D22307CC230CAE230DBA23FF001E
:103013000000160F00000B150B020002220F3300F5
:10302300000E0F5A6967426565416C6C69616E6396
:10303300653039D0D1D2D3D4D5D6D7D8D9DADBDCE1
:10304300DDDEDF303016181920231A1C1E30000372
:103053004D4C4651181A250502000119161816166B
:1030630018230300303017181921301B1D1F30009F
:103073003C40423A3F3F392F47300C0E020B040BC2
:103083000A0708000F0204020101010109020004FA
:1030930000002105081400BE040AE8030000030031
:1030A3000100E803240004091E140B0103101E038E
:1030B3000A0C040F0828020C05081505FFC082C07E
:1030C3008312142A901564749EF0A37421F0901552
:1030D3006674A4F0A37421F090156874AAF0A37425
:1030E30021F090156A74B0F0A37421F0025DFB74B3
:1030F300F7120ADD901558E4F0E9901557F07C318A
:103103007D157A597B15121AAE9017F7E090156169
:10311300F0901562741BF0A3741502408874F012CA
:103123000ADDEAFEEBFF54807003023291901557DB
:1031330012411D700302328AEA241B125988707CE3
:10314300EA241F12598864137002A3E0706E8A8206
:103153008B831232DF901572124F1A750A00750BAA
:1031630000800D123F5E126FFA1219B2AA0EAB0F56
:10317300EA4B60488A828B83E0650C7004A3E065A8
:103183000D702C8A828B83A3A3A3A3E0F50EA3E087
:10319300F50FE50A450B8A828B83A3A3A3A360C320
:1031A300124260850A82850B83A3A3A3A380B78AF7
:1031B3000A8B0B8A828B83124F1680B4E508242A6C
:1031C300125988FCE5082402F8E43509F9E8FAE91C
:1031D300FB9015721233C6A3A3E06402703C8A828B
:1031E3008B83124F1A800B88828983A3A3A3A31214
:1031F3004260E849601F88828983E06A7003A3E024
:103203006B70E488828983A3A3E06C70DA9017FD66
:10321300125CB8806BECF91221DA85088285098388
:10322300E06401704FE50824181232C812103012FE
:1032330065A2120E6BE50824121232C8121030E593
:103243000812411112102CE508240B1265A6120E68
:103253006FE50824171240AEE5082402FCE43509A3
:10326300FDE5082419FAE43509FB122A02740A124F
:10327300105A800CE064027007AA08AB091222B846
:10328300AA08AB09121916EEFAEF6480802DEA54EE
:1032930002600C90180C7401F0EA6402FA8023EACD
:1032A3005408601A1221D4EA4B700B9015741264FF
:1032B3007D7A081232D5EE6408FAEFFB80047A00B7
:1032C3007B00026C2CF582E43509F583E0F50A787E
:1032D3000A22FB901557E0F9121A7E22A3A3E0F508
:1032E3000CA3E0F50D227B00901557E0F9121A723A
:1032F30074042274F4120ADD8A088B098A828B8390
:10330300A3A3A3124D121240B938F583E02409FA9E
:10331300126BC470030233B98A828B837402124D19
:10332300878508828509831233C6E8F0A3E912680A
:103333003E8A828B83A3A3A3A3A3A3A3A3F0E5083D
:103343002403F8E435091233BB1240B93AF583E09C
:103353008E828B83A3A3A3A3F0EE2409FAE43FFB9D
:103363008E828F83A3A3125F6AF5838882E0A2E52E
:103373008E828F83A3A3A3A3A3500474018001E4CB
:10338300F0E5082403F5828983124F1AEA12549B4D
:103393003BF583126B8B1210281240B83B12605C12
:1033A3008E828F83A3A3127D3A12105AEEFAEFFB9B
:1033B300901557126C118016F98882F583E0FAA3F1
:1033C300E0CA221250B7A3A322740212105A7F0438
:1033D300020DA074F2120ADD8A088B09ECFAEDFBE8
:1033E300740E12134BE0FC1214608A0C8B0DAE0C9E
:1033F300AF0DEA4F6030AC08AD0912144EE96026F8
:10340300AC08AD09EEFAEFFB121454E970148E8286
:103413008F8312424DFAEFFB121448AA08AB09122C
:1034230014787900800279B402500674F0120ADD30
:1034330074F61210EEEAFEEBFF8C088D09750FB3DC
:10344300852182852283E4F0750E008002050E90AB
:1034530030BEE493F8E50EC3984003023555AA0E37
:103463007B0012149C8A0A8B0BEA4B60E08A828BE6
:1034730083A3A312355C28F0F8C3EE98EF940050B1
:10348300CC7C157D007900AA08AB091218FE850AC9
:1034930082850B83A3A3A3A3127037E0F8EEC3982E
:1034A3002925E0F8E433F9E50A28F582E50B39F537
:1034B30083A3A3A3A3A3A31240C3A3125ADF8A0C1B
:1034C3008B0DAC0CAD0DAA08AB09121AAE850A829E
:1034D300850B83A3E06401700A1265A27401124094
:1034E300D5804474011210B8850A82850B83124F6C
:1034F30018121484E9603D740912134BE0C0E01202
:1035030065A2D0E0F0740912134BE06403701374E6
:10351300011210B8E508240BFAE43509FB121AAEC0
:103523008012740112134B124260E508125AC5351A
:1035330009126FF8850A82850B831265AE1240D596
:10354300A3A3E0C0E0E50824141265A6D0E0F0755B
:103553000F00A90F740A026C29A3A3A3E0F8852125
:1035630082852283E02274F7120ADDE9FE8A828BC8
:1035730083A3A3A3A3A3A3E0540860338A828B830A
:10358300A3A3A3A3A3A3E0540260218A828B83A3F2
:10359300A3A3A3A3A3A3A3A3E06406600F74E96E8C
:1035A300600A74CD6E600574F06E70031221BC0264
:1035B300490574F0120ADD74EF1210EE740F121342
:1035C3004B126361740812134BE9F0ECFEEDFF74C8
:1035D3000512134B1246CD1248F1A3E0F912146CF5
:1035E300740612134B126361740612134B12552C9B
:1035F30070030238701240FDE0FA740612134BE0B8
:10360300F91220FC1238D0F8A3E0F9E8497003025C
:103613003870EE2403F50AE43FF50BEE2406F508B3
:10362300E43FF5097C00850882F583124F1A850A69
:1036330082850B83E0F9121472740312134B126325
:1036430061850A82850B83E0C0E085218285228320
:103653001238C9D0E0125641F9852182852283129E
:103663003F6512519312355FFAA3E0CA2407F5822E
:10367300E43AF583E8F0A3E412636C2406F582E4EC
:1036830038F583E4127004124D06121028EE12402E
:10369300B93F12605C740312134B124D12240912CA
:1036A3007D3412105A742912134B1270311233C025
:1036B3001256543A126FF8742B12134BE0C0E08584
:1036C30021828522831254F3D0E0F0740212134B4B
:1036D300E4F0742512134B78081212F40237C774FE
:1036E3000312134B1260248882F5831238B8A3A304
:1036F300A3125AEAFB12148A850E82850F83A3EA6A
:10370300F0A3EBF0740312134B1238C9A31238B8A9
:10371300125CF9A2E6500F850E82850F83A3A3A343
:10372300A3A3E0D2E1F0740512134BE0706B850E96
:1037330082850F83A31242609015B2E0687003A3E1
:10374300E0697055850E82850F83A3A3A312409869
:10375300750C00780C12103078081210247429129A
:10376300134BE0F50C780C121030742712134B1224
:103773000E6F9015BF120E6F7900741912134B124E
:103783004EEA122300740A12105A850E82850F83A3
:10379300A3A3A3A3A3E04405F0740212134BE00414
:1037A300FC8E828F83124F148E828F83A3A3A3E098
:1037B300F9121472740312134B126361740212131D
:1037C3004BE004F0740312134B12552C6067740220
:1037D30012134BE0FA740612134B124260C3EA98B9
:1037E300E4995051740212134B123BA28521828536
:1037F3002283E028F8A3E039F9E8240FF50EE43931
:10380300F50F850E82F583E4F0740312134B12381F
:10381300C3640160030236E2740512134B74011290
:103823006C17F0740312134B125DEB123BC5E8F0F7
:10383300A3E9023706852182852283124F1A1221BA
:1038430002852182852283120E6F742612134BE0A8
:10385300FD742512134BE0FC740A12134BE0F9EECE
:10386300FAEFFB1221B6740212105A80438E828F34
:1038730083A3A3A3E0C0E0740C12134BD0E0F012B7
:103883006A80E0C0E0740D12134BD0E0F0740612AE
:10389300134B12552C7009740E12134B74B9800715
:1038A300740E12134B7410F074091210B01222FA32
:1038B3007411026C29E0850E82850F83A3A3A322D2
:1038C300E0125619E022E0125619A3A322852182A1
:1038D300852283EAF0A3EB1255352274F0120ADD38
:1038E30074E11210EE740412134BE9F07403121313
:1038F3004BECF0740212134BEDF08A0E8B0F742F06
:1039030012134B1232E1AA0CFB1220F074011213B2
:103913004BE9F0AA0CAB0D1220F6740112134BE025
:103923007003023B9D852182852283E480158E826C
:103933008F83A3A3A3A3A3E0D2E3F08521828522EF
:1039430083E004126B6FF8852182852283E0C3989C
:103953004003023B94740112134BE07003023B9447
:10396300852182852283123BA2E50C28F8E50D39D7
:10397300F9E8240FFEE439FF8E82F583A3A3A3A302
:10398300A3E0A2E040B5750800750A08750B007442
:103993000212134BE060037508207C087D00790058
:1039A30074051210B01218FE8E828F83E0603E9071
:1039B3001602E06401701AE508D2E3F508750B10EE
:1039C300123BB212134BE8F0A3E91259DD74FF80E6
:1039D3007643080C750A0C8E828F83A3123BBD12AB
:1039E3006FFA740512134B74FFF0A3805A74041218
:1039F300134BE06009E508D2E6F508750A0A8E82E2
:103A03008F83A3E064FE7003A3E0F470307412129A
:103A1300134B74041265CCF8741D12134BE8124D4A
:103A23008774121210B012201E7D007C007900747E
:103A33001512134BAA82AB83121E08800B123BB2E2
:103A430012134BE8F0A3E9F0740712134BE508F0E7
:103A53001240F4C0E0740912134BD0E0F0740A1260
:103A6300134B7401F074051210B01222BE741112BC
:103A7300134BE06003023B72740D12134B12563C5E
:103A83008E828F83A3A3A3A3F0740D12134B124D45
:103A930055E50AF0A3E50BF0740312134BE0C0E005
:103AA300124CE6D0E0125CF96011901602E0C0E01F
:103AB300740D12134B124D30D0E0F0740D12134BF2
:103AC300124260850C82850D83A3A3A3A3A3123B9B
:103AD300AB241C12635B127014123BAD125CAB3946
:103AE300126A9FC0E0124CCDD0E0126B64C0E07448
:103AF3000D12134B124813D0E0126865C0E0740D29
:103B030012134B124809D0E0F0740D12134B123B01
:103B1300BD123BAB242A12635B850E82850F83A300
:103B2300A3A3A3A3A3A3A3E01263541240E3C0E09F
:103B33001247F5D0E0F0740D12134B124F1A850E95
:103B430082850F83126B7A2428F582E43B126FF887
:103B53001240EC126B8B121028126055EA1262EDC0
:103B63003B127D3812105A74051210B01222C48E03
:103B7300828F83A3A3A3A3A3E0D2E0F07411121353
:103B83004BE06003023931740112134BE014023924
:103B93003D7900AA0CAB0D1221C2741F026C29E0FF
:103BA30075F007A4F8A9F022A3A3124F1EE8228EF2
:103BB300828F83A3124264740522E0123BC5A3A340
:103BC300A322F8A3E0F9850E82850F83A32274F064
:103BD300120ADD74E81210EEE9852182852283F052
:103BE3008A0E8B0F8A828B83A3A3A3A3A3A3A3A36E
:103BF300E0F912211A8A088B09EA4B7003023CAEE2
:103C0300E50E1254AF12410C1240A3852182852286
:103C130083E06003023CB17C04850E82850F83A39D
:103C2300A3A3A3A3A3A3A3E0F9122120EE4F607BD8
:103C33008E828F83A3A3A3A3124260740712134B34
:103C4300126492124260740912134B124DB7C0E012
:103C5300741112134BD0E0126843A3A3A3A3A3A32D
:103C6300A3124260740F12134B126FFA74121213E1
:103C73004BE4126C1FC8241FF582E438F5831260ED
:103C830020C413135403FC70027C048E828F83E0E0
:103C9300F9780812102C742059FD744059F97403F3
:103CA3001210B01221B6740212105A026C277C084B
:103CB300850E82850F83A3A3A3A3A3A3A3A3E0F9E4
:103CC3001221208B0BEA4B7003023C2FEE4F60DB7B
:103CD300852182852283E0F50C780C12103085084B
:103CE30082850983A3A3A3A3A3A3A3E0F50C780C64
:103CF3001210308A828B83A3A3A3E0FB8A82850BF5
:103D0300831278578A82850B83E0FA8E828F83A38E
:103D1300A3E0F9122A08740212105A023C3374F712
:103D2300120ADD74FA1210EEE9FE780179017F00C0
:103D3300800379000F125096E0FCEFC39C5026EFEE
:103D430075F007A4FC85F008AD08EA2CFCEB3DFDFB
:103D5300124685E0A2E050DA540C60D6E0A2E250AD
:103D6300D3780080CF8A828B83A3A3A3A3A3A3E0EA
:103D7300703DE9A2E0400574016E70338A828B8343
:103D8300A3A3A3A3A3A37401124075E0C0E074032B
:103D930012134BD0E01246E4E0C0E0740412134B5C
:103DA300D0E0F0740512134BE8125FBF1222FA74CD
:103DB30006024902C082C08379011221C2025DFB5F
:103DC30074F4120ADDEA4B90180C6019E4F08A08C7
:103DD3008B09F50AF50B78081210247A021232E9DE
:103DE30012105A800A7401F07A027B001232D60252
:103DF30033D174F0120ADD74F31210EE740312134C
:103E03004BE4F0A3F09015721240A3740112134B0C
:103E1300E4F0A3124D8C04F09015ACE0A2E3500340
:103E2300023EE8124069740912134B1213347409E9
:103E330012134B78081212F490157478081210C0FC
:103E4300740512134B78081212E5123F6C740512B5
:103E5300134B780812128850077A017B00023F59EE
:103E6300740512134B780C1212F49017FCE0F50949
:103E7300780C7908120A6EA80CA90D9017FDE0C3FF
:103E830098E4995003E08001E8852182852283F03C
:103E9300740912134B78081212F4C008C009C00A3F
:103EA300C00B740512134B780C1212F4123F6C788A
:103EB3000C7908120A6EE4F50AF50BD00FD00ED078
:103EC3000DD00C780C7908121180901574780C12AF
:103ED30012E58011123F5E126FFAEEFAEFFB121930
:103EE300B2AE08AF09EE4F60658E828F8312355CE8
:103EF300C398502DEE2403F8E43FF9E0FA88828951
:103F030083E0C39AF06023740312134B1243C67405
:103F13000112134BEEF0A3EF1264ADFEA3E0FF809A
:103F2300C48E828F83A3A3A3E4F08E828F83127C3B
:103F3300F1740112134B12552C8E828F83A3A3A30A
:103F4300A3609112648612134B123F658089740338
:103F530012134B124F1A740D026C291242649015FE
:103F6300722212604BA3A3A3229017FB127CF9E4E5
:103F7300F50AF50B2274F0120ADD8A088B09890A07
:103F8300780079009015721240A3FBEE4B601E0877
:103F93008E828F83A3A3A3A3124EE4601008E8705C
:103FA30001098E828F8312409FEA4F70E39017FEC0
:103FB300124F1AC3E89AE99B400302405C7A061247
:103FC300405FA80CA90DEA49700302405C8A828B0A
:103FD30083E508F0A3E50912407EE50AF09017FD9A
:103FE30012509E124075A3E4F0A3F0901572124E86
:103FF300E4600D8E828F83A3A3A3A3126FFA8017AD
:10400300901572126FFA9015ACE0A2E340091240CA
:10401300699015741213349015ACE0A2E3503A7A08
:10402300087B00901557E0F9121A84EA4B4C4D7047
:10403300289017FBE0F508A3E085080CF50DE4F5DF
:104043000EF50F780C1210247A087B00901557E0B8
:10405300F9121A78740412105A026C2C7B0012198C
:10406300AC8A0C8B0D22121A96EAF8EBF9ECFAEDF6
:10407300FB221240792212407EA322F08A828B8394
:10408300A3A322E508F0024905F08E828F83A3A340
:10409300A3A3A3A322125996A3A3F022A3A3A3A38A
:1040A300E0FEA3E0FF227F05020DA0F582E43509BF
:1040B300F583E0F922EA1240BD222410F582E422BE
:1040C3001240CBA3A3A3A3221242688508828509C9
:1040D30083221240D922F0850A82850B83A3A3226F
:1040E300E50E2411124109E022E50E240E124109C6
:1040F30022E50E2410124109E02212410122EE12A0
:1041030040BD3FF58322F582E4350FF58322240F6A
:10411300F50AE43509F50B780A22E0F91219288A21
:10412300088B09EA4B2274F2120ADD890B8A088B89
:10413300098A828B83124F1A1221E6EA4B600479B3
:10414300B8806A1221F2E9F89030B0E493F9E8C339
:1041530099400479B280567A1512405FAE0CAF0DC8
:10416300EA4F7004791080458A828B83E4F0A312AE
:10417300407EE50BF0750A0078081210287C127D4A
:1041830000EA2403126B3612105A90157812552C3C
:104193007008901578800C124260888289831241DE
:1041A300B370F4EEF0A3EFF012220479000250068C
:1041B300124F1EEA4B8882898322C082C0839015E6
:1041C3007880048C828D83127858EC4D60288C8221
:1041D3008D83A3A3E069600574FF6970E68C828D0B
:1041E30083A3A3A3E06A7003A3E06B70D6EC24035C
:1041F300FAE43DFB80047A007B00025DFB74F71256
:104203000ADDE9FD74FE6D70047C0180027C009080
:10421300157880096D70027C018882898312552C80
:10422300601F88828983A3A3A3E06A7003A3E06B62
:1042330070E7ECA2E088828983A3A3E050D6F980DB
:104243000279FE024905EEF9800CA3A3127CF9EE74
:1042530022740212105A7F02020DA0F583124264E7
:104263002212426822E0F8A3E0F9221242688E8209
:104273008F832212105A7F03020DA0C082C083795C
:1042830000901578800109E0FAA3E08A82F583E5BE
:1042930082458370F1025DFB74F6120ADDE4F508D2
:1042A300F509780812102C9030B0E49375F013A43C
:1042B300A9F01243BB12705812105AE9FE74096E2A
:1042C30070031221FE02424974F6120ADD74FE12D3
:1042D30010EE852182852283E4F0A3F0A821A92290
:1042E30088088909780812102C7508027509007866
:1042F3000812102C126CC912105A02425474F5128F
:104303000ADD74EB1210EE852182852283E4F0A38B
:10431300F090157880748E828F83A3A3E0C0E0743D
:104323000212134BD0E01259DDA982AA8389088AAD
:1043330009750A0078081210287C127D0074061291
:10434300134B12701D12105A74021210A888088998
:1043530009780812102C75081375090078081210D3
:104363002C740412134B1254CF75F013A4F8AAF053
:1043730075F013E91243B7126CD112105A852182DA
:104383008522831243C68E828F831240A3EE4F7021
:1043930085A821A92288088909780812102C750894
:1043A30002750900780812102C126CC912105A7485
:1043B30015024276A42AF9E82402FCE439FD7A4284
:1043C3007B0022E02401F0A3E03400F02274F41215
:1043D3000ADD74EB1210EE7E007F00A821A922886B
:1043E300088909780812102C7508028E09780812BA
:1043F300102C7C007D007A4212706412105AE9700E
:104403006C8E08805674021210A8880A890B780AE9
:1044130012102C750A13750B00780A12102CE5087C
:1044230075F013A4F8AAF075F013E5091243B71257
:10443300706612105AE9701B740312134BAA82ABF5
:1044430083740212134BE0F91221E0E970050EEEBA
:1044530070010F0508E50870020509852182852290
:1044630083124260C3E50898E509994098EEFAEF94
:10447300FB74150233CE74F6120ADD8C828D83A38E
:10448300A31246D2F0EA1262F33BF583E0C0E012D6
:10449300468FD0E0F0EA241DF582E43B12425E121F
:1044A30046731246CDF0A3F0EA241FF582E43BF5F0
:1044B300831240A3EC1246663DF583EEF0A3EFF0C2
:1044C30012466C3BF58312469DA3A3A3A3A3A3EEBD
:1044D300F0A3EF125F4EFE8C828D831246DC7403D1
:1044E3005EFEC394034003024659EE600874026EF5
:1044F300600302457E8C828D83E0540CFE740C6E47
:1045030070030245BDE0A2E4400D88828983E08CFC
:10451300828D83A31246F274086E60030245BD12B6
:10452300467D7401F08A828B83A3A3A3A3A31259AC
:10453300A370148C828D83E0440C1246E4A3A3126F
:10454300469DEEF0A3EFF08C828D83E0A2E4402B36
:1045530088821246AB1246C0500109F5821246AB5F
:10456300A3A3A3A3A3A3F0A3EF1246EC8C828D8392
:10457300A3A3A3F0E82403F850010988828983E008
:10458300C0E0EC2411F582E43DF583D0E01246DC73
:104593008C828D83E0A2E7507588828983E0FE8C4C
:1045A300828D831246F274FC5E700C8C828D83A321
:1045B300E054036403701E02465912467DE4F0740E
:1045C3000C6E600302452888821246B11246C05021
:1045D300010902454A8C828D83A3E054036032882B
:1045E300828983E0C0E0EC1246973DF583D0E01268
:1045F30046F38C828D83E0540364027014888289AD
:1046030083E0C0E0124685D0E01246F38003A3E4C2
:10461300F0EC12549B3D126FF8EC2410FEE43DFFC6
:10462300EA241DF582E43BF583E0F5088E828F834F
:10463300E0C3982508F508F0EA2417F8E43BF98865
:1046430082F583E0C39508C0E0124673D0E0125FA1
:104653004EC39508500A124673E4F012468FE4F0F5
:104663000242592415F582E422EA240DF582E4225C
:10467300EC240DF582E43DF58322EC1256543DF50E
:104683008322EC2414F582E43DF58322EC1240BD31
:104693003DF583222413F582E422E0FEA3E0FF8CA0
:1046A300828D83A3A3A3A3221246B1A3A32289834A
:1046B300E0F508A3E0FFE5088C828D8322A3A3A382
:1046C300A3F0A3EFF0E82402F8221246D2A322E4D7
:1046D300F08C828D83A3A3A3221246FAA882A98316
:1046E30022124079A3A3A3A3221246FAA3E022A392
:1046F3001246FA08A98322125F57A32274F4120AFE
:10470300DD74F31210EE8A0A8B0BECFEEDFF8C8244
:10471300F583E0540CF508E0A2E75006E508D2E77C
:10472300F508E508D2E1F5081259A37006E508D2A9
:10473300E4F508E0A2E55006E508D2E5F5087C08B3
:104743007D007900AA21AB221218FE740212134BCA
:10475300E508126FFEC0E0740312134BD0E0124D54
:104763008CE50AF0A3E50BF0740512134B12686A8B
:1047730012134BE07077740812134B124D12125F31
:104783004038126885C0E0740812134B124813D0E6
:10479300E0126865C0E0740812134B124809D0E0B8
:1047A300F0740812134B1247FFE0124D3A124DBB3F
:1047B300126354EE241112596FC0E01247F5D0E092
:1047C300F0EE241412596FC0E0740812134B124D0B
:1047D300122435F582E438F583D0E0124D5FC0E052
:1047E300740812134B124D16D0E01265BE740D02FD
:1047F30033CEE82432F582E439F5832212426EA3E4
:10480300A3A3A3A3A322124D26126A6438F583221D
:10481300124D262426F582E438F5832274F7120A12
:10482300DD7E008A828B83A3A3A3A3A3A3A3A3A355
:10483300E0640460030248E112564CE0600302485E
:10484300E11254AE3B12552A70030248E188828973
:1048530083E0540360030248E1E812565439F583B8
:10486300E0FA8C828D83A3A3E0FBA3E0CB2411F5B4
:1048730082E43BF583E06A706588828983A3A3A3FE
:10488300A3A3A3A3A3A31248E5E06A7003A3E06B69
:10489300704C88828983A3A31248F1E0FFA3E0CF81
:1048A300240612596F6A7003A3E06B703188828902
:1048B30083A3A3E0F88C828D83A3A3E0F9A3E0F59F
:1048C300838982A3A3E06860138C828D83A3A3A34F
:1048D300E0F5838982E0540C640470027E01EEF9F2
:1048E30080201248E922124F228C828D8322A3A3B7
:1048F3001248E9A3A322740C12134BE0F9740D12AE
:10490300105A7F01020DA074F6120ADD74FC121016
:10491300EEEAFEEBFFECFAEDFB8C82F583A3E054A9
:1049230003601690156E12552C60597900EEFCEF5A
:10493300FD12614B122A31804B852182852283EE41
:10494300F0A3EFF0740212134B124D81AC21AD2290
:104953007A1C7B221224448A088B09A808A909EA35
:104963004960218A828B83A3A3A3A3A3A3A3A3A3A5
:104973007406F07A0088828B83124D12126314E05E
:10498300F91223A2740402425674F2120ADD74F37C
:104993001210EEEAFEEBFF8A82F583A3A3A3A3A37F
:1049A300A3A3A3A3A3E0F50A90180CE0700579BABA
:1049B300024CCA750801750900750C00750D007C61
:1049C300087D007900AA21AB221218FE7405121388
:1049D3004B7401124D9454046012740212134BE091
:1049E300D2E6124D9454087003750803E054106026
:1049F3000674404508F508E0540860227402121357
:104A03004BE044C0124D945420600A740312134BBC
:104A1300E0D2E08008740312134BE0D2E1F0EE24FD
:104A23001512596F124CFA700374016970067408F9
:104A33004508F5088E828F83A3A3A3A3A3A3A3A3EF
:104A4300E0701612249E852182852283126361748D
:104A53000212134BE0D2E28030640F701074021222
:104A6300134B124D9C74044508F508807F8E828F8A
:104A730083A3A3A3A3A3A3A3A3E064028E828F8330
:104A8300700A127031E8F0A3E9F08060A3A3A3A336
:104A9300A3A3A3A3E06403700DAC21AD22EEFAEF50
:104AA300FB12225280468E828F83A3A3A3A3A3A3C8
:104AB300A3A3E064017035901602E0601074021243
:104AC300134B124D9C750910750AFF80187402125E
:104AD300134BE0440C124D8C74FDF0A374FFF0747F
:104AE300044508F5088E828F831232E1EE241512F5
:104AF300596FA2E0503F740212134BE0540C701B29
:104B03008E828F83124F1A121ED4E9700579BB026D
:104B13004CCA740212134BE0D2E5F0EE241512597D
:104B23006FA2E05010740212134BE0540C64047033
:104B330004E0D2E5F0EE241112596FC0E0740412C0
:104B4300134BD0E012686C12134BE06003024CC3AA
:104B5300740812134B124D55E508F0A3E509F01242
:104B63004CF0E0C0E0124CE6D0E0F0124CD7E0C0CD
:104B7300E0740812134B124D1212469738F583D086
:104B8300E0124DBB64017011901602E0C0E074089E
:104B930012134B124D30D0E0F0740812134B124D28
:104BA30050124CE1FAE8241CF582E439F583EA1249
:104BB3004D87EE2415FAE43FFB8A82F58312785879
:104BC300E8125CAB39F583124D81EE241C12596F48
:104BD300C0E0124CCDD0E0125DF1124CFA700374B8
:104BE30001697013740812134B12563CFAEE241D1C
:104BF30012596FF91221268E828F83A3A3A3A3A335
:104C0300A3A3A3A3E0C0E0740812134B124813D06C
:104C1300E0F0740812134B124809E50AF074081205
:104C2300134B1254CF2428F582E439F583E50CF0B5
:104C3300A3E50D124D67124D3A1259E8126354EE73
:104C4300124CE1C0E0E82433F582E439F583D0E087
:104C5300F0EE241B12596FC0E0740812134B124D6F
:104C630016D0E0F0EE241A12596FC0E07408121344
:104C73004B124D122432F582E438F583D0E0124D05
:104C83005F124D06121028126A6A127858740B12BA
:104C9300134B124D12242F127D3412105AEE241589
:104CA30012596F5440601290158E12552C600AAA47
:104CB30021AB2212614B122A31AA21AB221222C448
:104CC300740C12134BE0F9025001E82420F582E43E
:104CD30039F58322EE2419F582E43FF58322126A23
:104CE30079E022E82412F582E439F58322EE2418D0
:104CF300F582E43FF583225480F8A3E05401F9746C
:104D0300806822F508A3E0F509750A0078082212E5
:104D13004D2622124D262434F582E438F58322A34E
:104D2300A3A3A3124D2A22E0F8A3E0C822124D2622
:104D330012466638F58322FAA3E0FBE8242AF582BB
:104D4300E439F583EAF0A3EB22A3A3A3A3124264FD
:104D5300EE221254D31254B339F58322F0EE241306
:104D63001259F022F0EE240D1259F022E0FC8A824F
:104D73008B83E02CFCA3E03400FD8A828B83ECF070
:104D8300A3EDF022F0A3E4F022F0852182852283B3
:104D930022F0EE24151259F022E0D2E3F0124DA4D2
:104DA300228E828F83124268852182852283E8F0D6
:104DB300A3E9F022E8F0A3E91264A7E02274F71252
:104DC3000ADD8A828B83A3E0640170047E63800220
:104DD3007E648A828B83E060087905124DF424F3A4
:104DE300FE9015AAE06007F9124DF424F2FE024882
:104DF300E112236CE9F8EEC3982274F6120ADD740B
:104E0300FE1210EE852182852283126361E9FEEC96
:104E1300FAEDFB9005C612552C6032A821A9228811
:104E2300088909780812102C7D01740E12134BE0C7
:104E3300FCEEF99005C6126335122A317402121082
:104E43005AEA4B60047900800679B2800279B6028F
:104E5300425474F7120ADDE9FE90156412552C6072
:104E63001F740912134BE0F5087808121030EEF99D
:104E7300901564126335122A31740112105A80029C
:104E830079B602490574F7120ADD8908ECFEEDFFD5
:104E930079B5E508245E602014600624F860348048
:104EA3003D9005C8124EE46035127075122A318E9A
:104EB300828F831263618024901566127858EC4DBB
:104EC300601CEEFCEFFD901566126335122A31E982
:104ED300F9800B901562124EEA121AAE790002495C
:104EE30005124F1EEA4B2212785CEEFAEFFB227496
:104EF300F7120ADDE9FE79B574AB6E700B9015629B
:104F0300124F1A121AAE79000249058E828F83A3BB
:104F1300A3A3A3A3A3A3A3124F1E22124F2222E0F3
:104F2300FAA3E0FB2274F1120ADDEAFEEBFF8C0A1E
:104F33008D0B7508019015B2E06E7003A3E06F70DE
:104F43000C124FF5AA0AAB0B121AAE805E1224A400
:104F5300EE6A7002EF6B7009AA0AAB0B1224AA80E7
:104F63004AAC0AAD0BEEFAEFFB121FFAE9F5089013
:104F73001803E0703612293CE97030E508702C9074
:104F83001582E06E7003A3E06F7020EE4F601C7516
:104F93000C7A750D15750E00780C1210287C087D9F
:104FA30000AA0AAB0B12702112105AA908027954F5
:104FB30074F2120ADDEAFEEBFF8C088D09750A0113
:104FC300124FF5EEFAEFFB121AA8E9640170119083
:104FD30015B2124260850882850983126FFA800E2A
:104FE300AC08AD09EEFAEFFB122000E9F50AA90AB5
:104FF30080111224988A0C8B0DAC0CAD0D22740D0C
:1050030012105A7F06020DA074F6120ADDEAFEEBB7
:10501300FF7A0D7B001219ACEA4B6062EE24241276
:105023006CFEF0EE2425126CFEA31250C3126D0425
:10503300A3A3126A9712509EF0EE1250841250B33B
:10504300E8F0A3E91250DA1250AB126FFAEE1250E5
:105053008D126B5AA3A3A3A3F0EE243312596FC08E
:10506300E0125096D0E01268891250ABA3A3A3E8D4
:10507300F0A3E91250D2C0E012564CD0E0F0024245
:1050830059242AF582E43FF58322242EF582E43F56
:10509300F58322EA125AC53BF583221250A222E07D
:1050A3008A828B83A3A3A322126BB9A3A3A3A322F4
:1050B3001250B7221242688A828B83A3A3A3A3222E
:1050C300F01250C822EE2426F582E43FF58322F045
:1050D300EE24321259F022F0EE242C1259F02274ED
:1050E300F4120ADD74FE1210EEECFEEDFFEC241652
:1050F30012596F64057010EC2406FCE43FFD122284
:105103004CE9700302518EAC21AD22126DB3121E15
:10511300DA85218285228312552C606B8E828F83E0
:10512300E064017058E875F009A4F8AAF075F00975
:10513300E9A42AF974DB28F8740239F9E8FAE9FBDF
:105143008882F58378081212F4EE12523012128814
:105153004027852182852283124D5012597D125199
:105163009378081212F490816278081212098A82E5
:105173008B8378081212E5800A79A28010EE240F3F
:10518300126FF47900800679A1800279C80233CCCA
:10519300124DB1EE126A852274F2120ADD8A0C8B6B
:1051A3000DECFEEDFFEC12597DE4F0A3F09081923B
:1051B30078081212F4EC1252301211046067EC24D6
:1051C3000E125976703478B39015A9E070289015B3
:1051D300DBE064017020EC241112596FF91223549F
:1051E3008B09A909EE1254AF3F12635FEA496004C9
:1051F3007800800278A18808802EE0600464027041
:105203000A12225EE9F5087007801DE0640370103E
:10521300EEFCEFFDAA0CAB0D121EFEE9F5088008AB
:105223007508A180037508A3A908025006126A85B0
:1052330078082274F0120ADD74F51210EEEAFEEB20
:10524300FFEA240AFCE43F8C82F583127CF51254B6
:10525300B974031210B88A828B83126155E9700303
:1052630002531F74011210B874031210B0121EDA25
:10527300740112134B12552C700302531FE875F07F
:1052830009A4F8AAF075F009E9A42AF974D728FC4F
:10529300740239FDE508240E1265A6E4F004121326
:1052A3004B124260E5081254AF3509126FF88C8235
:1052B3008D83121328E50824121265A61213349065
:1052C300816278081212F48C828D83780812121C82
:1052D3008C828D83780C1212F49081B678081212A6
:1052E300F4780C7908120A6EE5084509450A450B5E
:1052F300702A740112134B1254CF75F009A4F8AA43
:10530300F075F009E9A42AF974DF28F582740239EB
:10531300F5837401F07A007B081254DC8E828F834C
:10532300A3A3A3A3A3A3A3A3A3A3E02406FCA3E093
:105333003400FD8E828F83126155126877603EEED2
:10534300240A1254A1124D557468124D87E8125461
:105353009B39F5837402F09015941213288C828D77
:105363008312634E125F403CF583121334908162C3
:1053730078081212F4901594780812121C1255171B
:10538300705D9015621254C7A3A3A3A3A3A3A3A301
:10539300A3A3125F76121AA8E97010125F34901556
:1053A30062125F46700512687760348E828F83A322
:1053B300A3A3A3A3A3A3A3A3A31254C7124F1A1275
:1053C3001F04E960118E828F83A3A3A3A3A3A31257
:1053D3005503E4F0A3F08E828F831254E9E4F012B4
:1053E300551760030254968E828F83A3A3A3A3A3AE
:1053F300A3127CF19015A9E0600302548B9015DB96
:10540300E06401600302548B750A3A750B00780A55
:1054130012102C74021210A8880A890B780A121031
:105423002C1272F012105AE9705BE508240E126513
:10543300A67401125531C0E0E50824111265A6D007
:10544300E0F0E508240F1265A6743A124D87901513
:1054530090121328E50824121265A61213349081C2
:105463006278081212F4901590780812121C908139
:105473006278081212F490159078081211047008DB
:105483001254D880031254B91255177006125E379E
:1054930074A1F0740B026C29240EF582E422F8E463
:1054A3003FF9E8FCE9FD8882F58322EA1254B3222E
:1054B300240FF582E422E5081254B33509F583E499
:1054C300F0A3F02212785C8E828F83221254D322AF
:1054D300124268E8227A007B0290143AE0F912192A
:1054E30052228A828B83A3A3A3A3A3A3A3A3A3A3CD
:1054F3001254F722124D2A240EF582E438F5832242
:10550300A3A3A3A312550B22124D2A240FF582E461
:1055130038F583228E828F83A3A3A3A3A3A3124D63
:1055230022240FF582E438F5831254D3492212550D
:105533003522F0852182852283E02274F6120ADD6A
:10554300EAFEEBFF7A237B001219ACEE240AF5087E
:10555300E43FF50985088212635F7C237D007900AF
:105563001218FE85088285098312552C7003025593
:10557300FFEEFAEFFB12226A12551760748E828FC8
:105583008312563264018E828F83A3A3A3A3A3A3A2
:105593007007125628740E802112552C7010126851
:1055A30077700B8E828F83A3A3E0A2E0500712567D
:1055B3001E740D800512561E740512688954036407
:1055C3000170071256067405800B9015AAE0C0E01F
:1055D300125606D0E0125641F583888212599C85F3
:1055E3000882850983124D121262F338F583E9802C
:1055F3000E8508828509831263D8800312631BF02A
:105603000242598E828F83A3A3A3A3A3A3A3A3A31D
:10561300A312561822E012633AA3228E828F83A329
:10562300A3A3A3A3A3124D221262F938F58322A3E5
:10563300A3A3A3A3A3A3A3A3A31254F7E0221256E5
:105643004522126DC8F8A3E022EA1256543BF583B3
:1056530022240CF582E42274F1120ADD74E41210A0
:10566300EE8A0C8B0D8C088D097A237B001219AC02
:105673008A0A8B0BAE0AAF0BEA4F7003025957121B
:1056830062FFE5082415125988687003A3E0698E48
:10569300828F837004740280027401F0E508240D84
:1056A300F8E43509F98882F583E0FAC3E49AFA95B8
:1056B300E0FB1259842AFAA3E03BFB8E828F83A37B
:1056C300A3A3A3125F5D8E828F83A3A3F0EE242096
:1056D300F582E43FF583E4F0EE2421F582E43FF51F
:1056E30083E4F0EEFAEFFB12231E8508828509831B
:1056F3001259A370098E828F83A3740580069015B7
:10570300AA125991F0EE2417F50AE43FF50B8E82A5
:105713008F8312599CE9850A82850B83F0EE241648
:10572300F8E43FF9E508240EFAE43509FB88828999
:1057330083124D6FE5082410FAE43509FB850A82CC
:10574300850B83E0FC88828983E0F88A828B83E07F
:10575300C398C39CF81259DDF0EEFCEFFDAA0CAB25
:105763000D122264E9F50B8E828F83E064027006CA
:10577300125F34125961E50B600302594E750C0038
:10578300750D00901803E064016005E06402703F4A
:105793001259736008EE242112597670328E828F6B
:1057A30083A3A3A31263211259A9EE241612596FDE
:1057B3001259D2FAE439FB124061EA4B6011126BC1
:1057C300831210281259B7AA0C12702112105AEE24
:1057D300FAEFFB12232AE9F50B901803E06401604A
:1057E30008E064026003025941E97003025941E58C
:1057F3000C450D700302594E8003850E0B1259732D
:10580300600BEE24211259766003025947850B0E73
:10581300850C08850D09750A00780812102812599D
:10582300B78E828F83A3A3A3A3127D3A12105AEEDD
:10583300242012596F600D12597C7468124D87EE43
:1058430024208015EE242112596F601512597C749F
:1058530003F0A37401F0EE2421F582E43FF583E421
:10586300F0EEFAEFFB12232AE9F50B70907C137D1F
:1058730000790074091210B01218FE741A12134B37
:1058830074011259E864687002A3E0704F8E828F2E
:1058930083125503E0640560030257FD7C0879FF1A
:1058A3008E828F83A3A3A3A3E0242A125F79121904
:1058B30088E970030257FD7C087D0079FF740112AB
:1058C30010B01218FE74011210B87A007B0079AB85
:1058D300122246741912134B74FC801512597CE082
:1058E30064037004A3E064017008741912134B7409
:1058F300FFF0E4F508F509780812102C7402121071
:10590300B8741312134BAA82AB8312645E12105A3B
:10591300852182852283E0602B74091210A88808F0
:105923008909780812102C75081375090078081274
:10593300102C7C007D00126CD112105A8006E50CED
:10594300450D6007AA0CAB0D1219B2EEFAEFFB126C
:1059530019B28003750B10A90B741C027951EE2444
:1059630006FAE43FFB121AAE22EE240C1259F0227F
:10597300EE24201259F0640122EE1254B33FF58352
:1059830022E508240EF582E43509F583E022125955
:1059930096A322E08E828F8322A3E0F912236C2246
:1059A300E054036401221259AD22E0FAE82AF8E434
:1059B3003400F9228E828F83A3A3A3126325125985
:1059C300ADEE24161259F01259D2FCE439FD22FA35
:1059D300E82AF8E439F9E82404221259E12212688A
:1059E30098A3A3A322F01259ED22EE240FF582E42B
:1059F3003FF583E0227901020FEF74F4120ADDEA26
:105A0300FEEBFF8A82F583A3A3A3A3A3A3A3A312FD
:105A13004D122424F582E438F5831259A3702E8A9B
:105A2300828B831256327025125ACBE06405701DA7
:105A3300125ACBA3E0F87401686005740668700716
:105A43001254E5740280051254E57403F0EA240A43
:105A53001263CC126335E4F0EA2408F8E43F12330E
:105A6300BB2431F582E43AF583E0C0E012706CA305
:105A7300A3D0E0125AEACA242EF582E43AF583E071
:105A8300C0E012706CA3A3A3D0E0126010C8125A36
:105A9300C53812425E12706C125ADF8A0A8B0BAC45
:105AA3000AAD0B850882850983125F76121AAE85CB
:105AB3000882850983124F1A12232A1263C7F00240
:105AC30033D1240BF582E4228A828B83A3A3A3A37D
:105AD300A3A3A3A312685EF583888222A3A3A3A32F
:105AE300124DB112249822125F52FAA3E0220259F6
:105AF300F8C082C0839015847470F0A37422F09070
:105B03001586747CF0A37422F09015887482F0A338
:105B13007422F090158A7476F0A37422F0025DFB70
:105B230074F4120ADDEA2408FEE43BFF8E82F58357
:105B33001254CF12630BE0F50874035508F50912EC
