:020000040000FA
:060000000212A802081420
:03002B00021007B9
:03003300020EF4C6
:030053000207435E
:100083000207A501010000000000F8FF07FFFF00C1
:10009300000504000000030001FFFFFFFF00141030
:1000A3002700000020FD000206FFFF1E32000000B3
:1000B300640000001900000032000000010000008D
:1000C300F81B00000000000000000000000000001A
:1000D3000402030000000300000000092300640081
:1000E300230064000000000001000100010101047D
:1000F30001020302042C810000000204010C00022F
:10010300020B8200000003040106010201258200A4
:100113000000010400003914000000E8030000FFA0
:10012300FF8A1488130000E803000064006400B829
:1001330001A0BB0D00A0BB0D0002020207040107D2
:100143001E02051E020A0A010108080103B80B0278
:10015300803E0102FEFFE8030A050001FFFF020AD9
:10016300011401E0050301010F0300030003000371
:10017300000300030003000300030005000A00144A
:100183000028004F009E000000012E00000000D553
:100193002C00000000FF000000FF001212C76046A1
:1001A3001212B8603DE9687008F618F618F618F6EA
:1001B30022748067F71201D2090909748067F72254
:1001C3001212B8601D1212C77005191919801A127C
:1001D3001194701F1211A8C37003E667331919191C
:1001E30040071818182208080874FFF618F618F6BE
:1001F30018F6221211A86017121355702192F012EB
:10020300135E7019501720F014080808090909E74C
:10021300F61819E7F61819E7F61819E7F622121374
:100223005E60E6E869701F0808E62480F608E43695
:10023300F618547FB47F0CE654806007F6E418F692
:1002430018F622181822E9C6CC08C6CD08C6CE086F
:10025300C6CFC0E0E8C0E0EAC0E0EBC0E009E9F8DF
:1002630009E7FA09E7FBE6F918E6F8C3EC98ED9914
:10027300EE9AEBC2E7F5F0EFC2E795F0500E600C93
:10028300EBCFFBEACEFAE9CDF9E8CCF8EAA2E7D264
:10029300E7FAEB33FB13F5F0EEA2E7D2E7FEEF3319
:1002A300FFC5F013A2E730E601B313C5F0C3C0E006
:1002B300C0F07F00C39BFB605E9418600F401D1469
:1002C300601AD0E023F9D0E0F80203A48AF0E948E9
:1002D3006003D2F0E4AFF0FAF9F8803BEB30E40DC1
:1002E30089F0EA6003D2F0E4AFF0F9CAF8EB30E347
:1002F3000D88F0EF6002D2F0AFF0E4CAC9F8EB5416
:10030300076014FBC3EA13FAE913F9E813F8EF13D0
:100313005002D2E0FFDBEDD0E0C0E030E739C3E4C8
:100323009FFFF5F0EC98FC42F0ED99FD42F0EE9A58
:10033300FE42F0D0E0F9D0E0F8E5F0607AE923F985
:10034300EE20E742D8028067C3EF33FFEC33FCEDC6
:1003530033FDEE33FE80EAEC28FCED39FDEE3AFE88
:10036300D0E023F9D0E0F84002801BC3EE13FEED8A
:1003730013FDEC13FCEF135002D2E0FF08B80006A4
:100383007F7F74FF802EEF3350178CF020F00260D4
:10039300100CBC000C0DBD00080EBE000408E86084
:1003A300DFE933E813FFEE2313FE4F4D4C8008E9DA
:1003B3005480FFE4FEFDFCEE33EF33F47004FCFDE8
:1003C3007E80D0E0FBD0E0FAD0E0F8D0E0CFC618D2
:1003D300CEC618CDC618CCC6F9221212B8700418AE
:1003E3001818221212C7700D74FFF61819F618198F
:1003F300F61819F622E7548066F612135E700F1290
:10040300135570F014F608F608F608F680D11213A7
:1004130055700CF608F608768008E6447F80EC12E7
:1004230011AB700C12119760BFE65480F6E480BBE9
:10043300121197700519191980A5E869700C763F98
:1004430018768018F618F6E8F922E6CDC0E018EC25
:10045300C0E0E633CD33CDD313F6E719FCE7191922
:1004630033CC33C3947F400ECD9D502408E6548093
:10047300F6E418F6800FF4043D14501408E6447FA4
:10048300F6187680E418F618F6D0E0FCD0E0FD22EA
:10049300CCD313CCFD18E4C6CBC0E018E4C6CAC065
:1004A300E00808ED08C633E613F618E433C675F022
:1004B30003C3CA97CA09CB97CB199C40047D088014
:1004C3002EBD000302058616B6FF0506060816189C
:1004D300C3CA33CACB33CB33CA27CA09CB37CB19E9
:1004E3003CC37D08803E187D0820E75CC633C6CA3E
:1004F30033CACB33CB33DDF1D5F0EB30E77BCA978F
:10050300CA09CB974ACB199C406F4B7025E620E074
:10051300218066187D08C3CA97CA09CB97CB199C5B
:10052300D3C633C6CA33CACB33CB3350C9DDE7D5C1
:10053300F0E1D3E4C636C608C636C608C636C608D2
:10054300C636C61818188031C3CA97CA09CB97CBC9
:10055300199CB34097C633C6CA33CACB33CB33DDFA
:1005630034D5F02EC6A2E0C640C8CA27CA09CB3785
:10057300194A70BECB3CB480B90808E63308E633A9
:10058300601F181818D0E0FAD0E0FBD0E0FCD0E0F0
:10059300FD22187D08CA27CA09CB37CB193CD38063
:1005A3008013F618E4B67F11F618B6FF0EF618C6D8
:1005B3000470D20808768080CAF618F618F680C54B
:1005C300001212B8604F1212C76012E7548066F629
:1005D3001211947011121355703B090909F4F6189E
:1005E300F618F618F6221211A8701512135E0808F1
:1005F3000860EAE6447FF618768018E4F618F622D7
:1006030012135E60161213557012E4F608F608F61C
:1006130008E65480F609090918181822EAC0E0EB25
:10062300C0E0ECC0E0EDC0E0E687F0A4FBACF0086E
:10063300E687F0A42CFCE435F0FA1809E687F0A469
:100643002C4B60027401CA35F0FCE433FB09E687E6
:10065300F0D2F7A42CCB35F0FC1908E687F0A42BD5
:10066300CC35F0FBE433FD0819E687F0D2E7A42C80
:100673004ACB35F0CD3400FC09E687F0D2E7A42D50
:10068300CC35F0FDE433FA0918E687F0D2F7A42C51
:10069300CD35F0CA3400FC08E687F0D2E7D2F7A4E0
:1006A3002ACC35F07A7E20E70B0ACB33CBCD33CD82
:1006B300CC33CC33CB3350147004ED30E00ED2F195
:1006C300E4CD3DCDCC3CCC3B5005DA05C2F1EB5437
:1006D3007FC63308E63392F0FBE73309E733C39A67
:1006E300502D2B70190C0D4C4D70151806E608C3D0
:1006F30033700D20F10AA2F013F6E418800B4024A6
:10070300E4F630F002768018F618F618F68024D353
:100713003B14501074FFA2F013F6187680E418F619
:1007230018F6800FA2F013F618E63303F618ECF66A
:1007330018EDF6D0E0FDD0E0FCD0E0FBD0E0FA22EB
:10074300C0E074F1120BAFA2AFE433F509D2AF8569
:10075300A708AFA1EF5508FE74105E60061216528B
:1007630075A1EF74085E600812165875A1F780240E
:10077300EFA2E092F0E508A2E082F05017906198B2
:10078300E0F8900610E0C398A2D265D0335002E897
:10079300F075A1FE752300E509A2E092AF7F020286
:1007A3000C0EC0E074F2120BAFA2AFE433FED2AF73
:1007B3009061A4E0F8759B00E591585408600875B2
:1007C30091F71216A68023E591585410600875918D
:1007D300EF1216AC8014E591A2E092F0E8A2E08259
:1007E300F05007E0C2E0F01218029061A3E0F8E5D0
:1007F300E9585404600E1217D875E9FB906193E031
:10080300A2E640F2752300EEA2E092AF7F01020C54
:100813000EC0E074F2120BAFA2AFE433FED2AF907E
:1008230061A5E0F8E5BF585404600675BFFB1218D4
:100833001A80D112088B30F0431208D0803E8A0808
:100843008B098C0A8D0B780812088B20F01430E783
:100853002B74FFFCFBFA747F8022E4FCFBFA7480A8
:10086300801AB48008BC00F2BB00EF800F50EBF994
:10087300E4C39AFAE49BFBE49CFCE499C6CC18C657
:10088300CB18C6CA18C6F922E4C9C608CAC608CB1B
:10089300C6D3330308CCC63392F0C3947F402E945F
:1008A300184019C9B90704CACBCC225025C309CAB9
:1008B30033CACB33CBCC33CC33D9F422F4600DC958
:1008C300CCC313CB13CBCA13CAD9F6CC22E4FCFB9B
:1008D300FA2214FCFBFA22C3E498F8E499F912090A
:1008E3001B8026C3E49AFAE49BFBE920E7E912099B
:1008F3001BE498F8E499F922C3E498F8E499F9120F
:10090300091BE498F8E499F9C3E49AFAE49BFB22FF
:10091300EB20E7CFE920E7E0B90010BB0008E88A45
:10092300F084F8AAF022E4FBC8FA22EB70227B10D1
:10093300C833C8C933C9335007C39AC3DBF280062F
:100943009A50012ADBEAC833F4C8C933F4C9FA223E
:1009530075F008E4C833C8C933C933C99AC99B5071
:1009630004C92AC93BD5F0ECFBC833F4C8E4C9FA7F
:1009730022080808EAC0E0EBC0E086F0E7A4FA1812
:100983000986F0E7A42AFA180986F0E7A42AFA18D8
:100993000986F0E7A42AFA1986F0E7A4FBE5F02A12
:1009A300FA190886F0E7A42BFBE5F03AFA19088652
:1009B300F0E7A42BFBE5F03AFA18180986F0E7A450
:1009C300C5F02BFBE43AFA1908E7C5F0C6A426F6EE
:1009D300E5F03BFBE43AFA1886F0E7A4F6E5F00805
:1009E30026F6E43B08F6E43A08F6D0E0FBD0E0FA5A
:1009F30022080808E630E711121158120A0C0808F9
:100A030008C64480C618181822181818E9799EC613
:100A130008CAC608CBC608CCC6C370207996CACB11
:100A2300CC7019798ECBCC70137986CC700EF9808B
:100A33002ACA33CACB33CBCC33CC331930E7F2CC0D
:100A4300CBCA3350147004EA30E00DE4CA3ACACB7F
:100A53003BCBCC3CCC500209C3E913C6CC182313BF
:100A6300C6CB18C6CA18C6F922E4CFC0E0E4CEC08C
:100A7300E0E4CDC0E0E4CCC0E075F020E626F60863
:100A8300E633F608E633F608E633F6181818EC33BF
:100A9300FCED33FDEE33FEEF33FFC3EC9709ED9727
:100AA30009EE9709EF97191919400FFFEC97FC0905
:100AB300ED97FD09EE97FE191906D5F0BFECF7097E
:100AC300EDF709EEF709EFF7191919D0E0FCD0E0BB
:100AD300FDD0E0FED0E0FF222521C582C0E0E52263
:100AE30034FFC583C0E0E521C3958224F810AF0825
:100AF3008583228582218008858322858221D2AF46
:100B0300CEF0A3E520F0A37808E608F0A3DEFAEF21
:100B1300F0A3E58124FAF8E608F0A3E608F0A3E6DB
:100B230008F0A30808E608F0A3E608F0A31581156A
:100B330081D0E0FED0E0F8158115811581E8C0E091
:100B4300EEC0E022121340B90003020B99E49005B2
:100B530001782679138002F0A3D8FCD9FA78239080
:100B630000867A01BA00028007E493A3F608DAF953
:100B73007A267B17900087781879028015E493A36F
:100B8300AD82AE838A828B83F0A3AA82AB838D82EC
:100B93008E83D8E9D9E77582FB7583D97404120F64
:100BA300E975823275832A7400120FE9C0D02521BA
:100BB300C582C0E0E52234FFC583C0E0E521C395CB
:100BC3008224F310AF0885832285822180088583E0
:100BD30022858221D2AFC8F0A3E9F0A3EAF0A3EB08
:100BE300F0A37908E709F0A3D8FAECF0A3EDF0A39A
:100BF300EEF0A3EFF0A3D0E0F0A3D0E0F0A3D0E0B9
:100C0300F0A3E520F0A3E5F0F0A32285228385215C
:100C130082E0C0E0A3E0F9A3E0FAA3E0FBA3780835
:100C2300E0F608A3DFFAE0FCA3E0FDA3E0FEA3E007
:100C3300FFA3E0C0E0A3E0C0E0A3E0F5D0A3E0F5AC
:100C430020A3E0A3F5F010AF0885832285822180DD
:100C530008858322858221D2AFD082D083D0E0F869
:100C6300D0E032E47375F0108E248F2585822985B8
:100C73008328852182852283E0CEA3E0CF85298244
:100C8300852883EBC9EAC8EDCBECCAC3E833C8E9CE
:100C930033C9EA33CAEB33CBC3EA9EF527EB9FF59F
:100CA30026B35004AB26AA27EC33CCED33CDD5F0D5
:100CB300DAAE24AF25221212B8601C1212C76017D5
:100CC30012135E70071213557001D322C0D0121392
:100CD300557006D0D0B322C32233D0D0501430E0A5
:100CE300F6C3E7960809E7960809E7960809E79621
:100CF300B32220E0D5E6970809E6970809E69708A6
:100D030009E697B322D083D082ECC0E0EDC0E0E4E3
:100D130093A3FCE493A3FDED4C600D120E2CEC2485
:100D2300FFFCED34FFFD80EFE493A3FCE493A3FD0C
:100D3300ED4C600D120EC9EC24FFFCED34FFFD8079
:100D4300EFD0E0FDD0E0FCE493A3C0E0E493C0E087
:100D5300221212B8601B1212C7601612135E7007BC
:100D6300121355600CB322C0D01213557005D0D0A6
:100D730022C32233D0D0501330E0EBC3E7960809E7
:100D8300E7960809E7960809E7962220E0E4E69744
:100D93000809E6970809E6970809E697228522835A
:100DA300852182E0A3FEE0A3F5207808E0A3F608FE
:100DB300DFFAE0A3FFE0A3C0E0E0A3C0E0E0A3C04C
:100DC300E0E0A3C0E0E0A3C0E010AF088582218586
:100DD30083228008858221858322D2AFD083D0826B
:100DE300020FEFD083D082E9C0E0E493A3C386F07F
:100DF300C5F095F0F908E493A386F0C5F095F0707B
:100E03000BE493A3C3994005E9048002A3E475F0BE
:100E130002A42582F582E5F03583F583D0E0F9E479
:100E230093A3C0E0E493C0E022C0E0C3E493960838
:100E33007401939618400FE4936670080874019345
:100E4300661870007019A3A3C3E493960874019302
:100E53009618A3A3400DD0E0D0E0D0E0020D44A348
:100E6300A3A3A3A3A3D0E02274048004740280008C
:100E7300CCC0E0EDC0E0E521C39CCCAD2250011D08
:100E830010AF068C218D2280068C218D22D2AF12C9
:100E93000F6BD0E0FDD0E0FC2274028000CCC0E0F8
:100EA300EDC0E0E521C39CCCAD2250011D10AF067F
:100EB3008C218D2280068C218D22D2AF120F49D036
:100EC300E0FDD0E0FC22C0E0C0F088F0E49366705F
:100ED300080874019366187000A8F0A3A3700BD0E0
:100EE300F0D0E0D0E0D0E0020D44A3A3D0F0D0E0F6
:100EF30022C0E074F2120BAFA2AFE433FED2AFE52F
:100F03008BA2E0500579041215AA758B00C2E8750F
:100F13002300EEA2E092AF7F01020C0ED083D082B9
:100F2300CCC0E0E493A36006120FAB1470FAE49311
:100F3300A360061210D81470FAD0E0FCE493A3C0A7
:100F4300E0E493C0E022CAC0E0E493A3C582CCC529
:100F530082C583CDC583F0A3C582CCC582C583CDAD
:100F6300C583DAE5D0E0CA22CAC0E0E0A3C582CCDB
:100F7300C582C583CDC583F0A3C582CCC582C58395
:100F8300CDC583DAE6D0E0CA22C008C3E096F508EF
:100F930008A3E096420808A3E096420808A3E09657
:100FA30045087001D3D00822C0E0E493A3D39C503A
:100FB30010E493A3C39C400AD0E0D0E0D0E0020F3A
:100FC3003CA3A3A3D0E022700908080822601618E6
:100FD3001818C6C333C608C633C608C633C608C600
:100FE30033C6D5E0EA22C09FF59FE473D09F22D099
:100FF30083D082C09FE493C0E0740193C0E0740285
:1010030093F59F22C0E0C0D0E8C0E0A8A8D2AFC249
:10101300C7752300E8A2E792AFD0E0F8D0D0D0E0C4
:10102300327404800A74038006740280027401C05F
:10103300E0F40412103FD0E0121303222521F582BD
:1010430010AF08F521400C15228008F52140021548
:1010530022D2AF8522832200C0D0252110AF08F50C
:1010630021500C05228008F52150020522D2AFD071
:10107300D022BB0102E722C082C08389828A83BB5C
:101083000003E08002E493D083D082226016080834
:1010930008C6C313C618C613C618C613C618C61384
:1010A300C6D5E0EA222521F8E43522F9222521FAE2
:1010B300E43522FB222521FCE43522FD22C3E0C6D0
:1010C30096F608A3E0C696F608A3E0C696F608A32C
:1010D300E0C696F622C0E0E493A36C7009D0E0D09A
:1010E300E0D0E0020F3CA3A3D0E022252110AF08FB
:1010F300F521400C15228008F52140021522D2AFBC
:1011030022E066701008A3E066700A08A3E0667028
:101113000408A3E06622E76670100809E766700A10
:101123000809E76670040809E76622C3E09608A386
:10113300E09608A3E09608A3E096A2D265D03322F6
:10114300C3E7960809E7960809E7960809E796A210
:10115300D265D03322181818E4C396F608E496F63D
:1011630008E496F608E496F622C3E096F008A3E0B6
:1011730096F008A3E096F008A3E096F022C3E69762
:10118300F60809E697F60809E697F60809E697F6DA
:1011930022181818E60846087009E626087005E6BE
:1011A30033F4220822191919E70947097009E727B7
:1011B300097005E733F4220922C3E4939608740106
:1011C30093960874029396087403939622E627F67F
:1011D3000809E637F60809E637F60809E637F6227E
:1011E300700422600D18C6C333C608C633C6D5E0E3
:1011F300F41822E657F60809E657F60809E657F603
:101203000809E657F622E026F608A3E036F608A317
:10121300E036F608A3E036F622E026F008A3E0362F
:10122300F008A3E036F008A3E036F022E056F00819
:10123300A3E056F008A3E056F008A3E056F022E638
:1012430047F60809E647F60809E647F60809E647B8
:10125300F622E056F608A3E056F608A3E056F60891
:10126300A3E056F622600D08C6A2E713C618C613FC
:10127300C6D5E0F322C6F4C608C6F4C608C6F4C64B
:1012830008C6F4C622C3E09608A3E09608A3E09636
:1012930008A3E09622C3E7960809E7960809E796AC
:1012A3000809E7962275D00075813F7521017522E3
:1012B3000500020B47E6084608C3134608336002DD
:1012C300E633F422E7094709C3134709336002E70A
:1012D30033F422600C08C6C313C618C613C6D5E080
:1012E300F422E6F008A3E6F008A3E6F008A3E6F08C
:1012F30022E0F608A3E0F608A3E0F608A3E0F6224E
:10130300CAC0E0E6F0A308DAFAD0E0FA22E0FAA3D2
:10131300E0FBA3E0FCA3E0FD22EAF0A3EBF0A3ECE7
:10132300F0A3EDF022E0F8A3E0F9A3E0FAA3E0FBD9
:1013330022E8F0A3E9F0A3EAF0A3EBF022E5C75417
:10134300F84401F5C77901222521F582E43522F518
:101353008322E72719471947194722E62618461813
:1013630046184622C2AF75D69F02000022120FF222
:10137300CCD702120FF233DA02120FF2DFDA0212C3
:101383000FF20FDB02120FF26FDB02120FF203DC1C
:1013930002120FF2B4DC02120FF205DD02120FF299
:1013A30049DD02120FF2E3DD02120FF253DE0212E5
:1013B3000FF282DE02120FF288DF02120FF2B2DFA7
:1013C30002120FF206E002120FF2DAE002120FF23B
:1013D30008E302120FF2B6E302120FF223E602123F
:1013E3000FF2A8E602120FF2ABE902120FF2DFEBE3
:1013F30002120FF21BEC02120FF274ED02120FF243
:1014030087ED02120FF2C4ED02120FF260EF021227
:101413000FF214F102120FF294DD04120FF2C8DD81
:1014230004120FF216DE04120FF2E8DE04120FF2BA
:10143300008004120FF27C8004120FF2AF800412BA
:101443000FF2DD8004120FF21B8104120FF2588396
:1014530004120FF2778304120FF2BC8304120FF20B
:10146300528404120FF29E8404120FF23285041286
:101473000FF20B8604120FF2678604120FF2C58671
:1014830004120FF2388704120FF27C8704120FF252
:10149300D48704120FF2F68704120FF2868804121F
:1014A3000FF2178904120FF2638904120FF28F8966
:1014B30004120FF2D08904120FF2668B04120FF29A
:1014C300528C04120FF22D8D04120FF2797D00124B
:1014D3000FF2A37D00120FF2BE7D00120FF2E37D27
:1014E30000120FF2847E00120FF29F7E00120FF2A1
:1014F3007D7F00120FF2A77F00120FF25AF0041241
:101503000FF27CF004120FF2E5DB04120FF234DC6D
:1015130004120FF284DC04120FF2BFDC04120FF288
:10152300C5DC04120FF2F2DC04120FF20ADD04121E
:101533000FF226DF04120FF280DF04120FF265E0D0
:1015430004120FF208EB04120FF219EB04120FF25C
:10155300B7EB04120FF2C2EB04120FF2DCEB04122E
:101563000FF2FDFF02120FF2EAFF01120FF2EBEB93
:1015730004120FF2FBEB04120FF20DEC04120FF244
:10158300BFEC04120FF215E804120FF299E80412EB
:101593000FF201E904120FF21AEA04120FF267EADA
:1015A30004120FF270EA04120FF297EA04120FF218
:1015B300DFEA04120FF2F6EA04120FF2F7FF021247
:1015C3000FF2FAFF02120FF2F87F00120FF2EED7BA
:1015D30004120FF226D804120FF274D904120FF278
:1015E300F8D904120FF29CB304120FF2C8B3041219
:1015F3000FF232B604120FF272B604120FF2AEB645
:1016030004120FF2C2B604120FF2DBB604120FF289
:10161300CDB704120FF280B804120FF294B804127B
:101623000FF2B6E004120FF2DAE004120FF2F3E065
:1016330004120FF231E104120FF261E104120FF20E
:101643008EE104120FF298E104120FF2FEE104128C
:101653000FF201E204120FF20BE204120FF218E28E
:1016630004120FF209D304120FF229D304120FF25A
:1016730068D304120FF286D304120FF2A1D304121B
:101683000FF207D404120FF213D404120FF270D422
:1016930004120FF27FD404120FF2A3D404120FF238
:1016A30064D504120FF271D504120FF282D504121D
:1016B3000FF2BAEE04120FF202EF04120FF22EEF42
:1016C30004120FF2EAB804120FF244BA04120FF232
:1016D30052BA04120FF265BA04120FF27ABA041264
:1016E3000FF28FBA04120FF2A2BA04120FF21EBB4A
:1016F30004120FF283BB04120FF20BBC04120FF29D
:1017030083BC04120FF25CBD04120FF26CBD041211
:101713000FF27BBD04120FF221EE04120FF245EE1D
:1017230004120FF26DEE04120FF295EE04120FF293
:10173300A5FD03120FF2CCFD03120FF2EAFD031213
:101743000FF259FE03120FF236D004120FF24FD0EC
:1017530004120FF25BD004120FF26FD004120FF2D7
:101763008DD004120FF297D004120FF2A1D00412FD
:101773000FF2B4D004120FF23AD104120FF2AFD128
:1017830004120FF2DED104120FF22CD204120FF264
:101793007BD204120FF296D204120FF2A0D20412DB
:1017A3000FF2B1D204120FF2F4D204120FF2AEEF21
:1017B30004120FF2F9EF04120FF228A304120FF22E
:1017C30054A304120FF271A304120FF284A30412A0
:1017D3000FF29FA304120FF2F9A304120FF227A42E
:1017E30004120FF237A804120FF295A904120FF294
:1017F300C7A904120FF22AAA04120FF296AB04121D
:101803000FF2BEAB04120FF2D3AB04120FF2E3AB31
:1018130004120FF223AC04120FF265AC04120FF2A0
:1018230075AC04120FF2C9E404120FF2E3E40412DC
:101833000FF20BE504120FF224E504120FF248E550
:1018430004120FF266E504120FF27DE504120FF2A3
:10185300ABE504120FF2C6E504120FF2C5EC041255
:101863000FF209ED04120FF296C604120FF2A6C688
:1018730004120FF2ABC704120FF2DDC704120FF20A
:101883000DC804120FF230C804120FF247C8041235
:101893000FF281C804120FF2E6C804120FF228C92E
:1018A30004120FF26FC904120FF29CC904120FF253
:1018B300C7C904120FF222E204120FF234E2041237
:1018C3000FF248E304120FF24BE304120FF20FE797
:1018D30004120FF245E704120FF25DE704120FF250
:1018E3009FE704120FF2AFE704120FF2F3E70412BB
:1018F3000FF2FDE704120FF2A5AC04120FF2E8ACED
:1019030004120FF24DAD04120FF26CAD04120FF27C
:101913000EAE04120FF217AE04120FF268AE0412E9
:101923000FF291AE04120FF29EAE04120FF210AF3B
:1019330004120FF29EAF04120FF2E3AF04120FF280
:101943001CB004120FF281B004120FF2AAB00412F9
:101953000FF221B104120FF270B104120FF2ADB104
:1019630004120FF2E2B104120FF2F4B104120FF2F7
:1019730006B204120FF225B204120FF22EB20412B1
:101983000FF2EFB204120FF232B304120FF270B37C
:1019930004120FF205F004120FF278E304120FF2AF
:1019A300B8E404120FF2B0D504120FF2E6D5041214
:1019B3000FF22ED604120FF287D704120FF275DE40
:1019C30003120FF29BDF03120FF2D7DF03120FF2A2
:1019D30095E103120FF2C3E103120FF22DE4031298
:1019E3000FF26DE403120FF20FE603120FF2A5E6F6
:1019F30003120FF2FFE603120FF28FE703120FF247
:101A0300D3E703120FF215E803120FF27AE9031278
:101A13000FF2FAEA03120FF23BED03120FF269ED34
:101A230003120FF295ED03120FF29EED03120FF264
:101A3300FBED03120FF294EE03120FF2ABF103125C
:101A43000FF231F203120FF277ED04120FF28FED62
:101A530004120FF299ED04120FF2EFED04120FF2DC
:101A630026C204120FF23CC204120FF2DDC20412AA
:101A73000FF21CC304120FF239C304120FF26AC32C
:101A830004120FF2B7C304120FF2EBC304120FF2E6
:101A930026C404120FF223C604120FF289C60412DD
:101AA3000FF21AE904120FF279E904120FF2B7E9FF
:101AB30004120FF2F8E904120FF2F9E504120FF21F
:101AC300B7E604120FF2008002120FF20C8002122A
:101AD3000FF26E8002120FF2788002120FF207816A
:101AE30002120FF2438102120FF23C8202120FF232
:101AF300998202120FF2278302120FF278830212E5
:101B03000FF2F88302120FF2BA8502120FF2BF87A7
:101B130002120FF2B98802120FF2EB8902120FF2CE
:101B23003D8C02120FF2808D02120FF2258E0212EB
:101B33000FF2D39202120FF2C99302120FF25F94C3
:101B430002120FF2849402120FF2219502120FF285
:101B53003E9502120FF25E9502120FF2CC9502121D
:101B63000FF2E99502120FF2179602120FF2AF97D6
:101B730002120FF2D09702120FF2769802120FF2AE
:101B8300BE9802120FF21C9902120FF2BF990212B1
:101B93000FF2249A02120FF2839A02120FF2359B6C
:101BA30002120FF2A49B02120FF2DF9B02120FF23A
:101BB300539C02120FF29E9D02120FF22E9F0212ED
:101BC3000FF2CD9F02120FF20DA202120FF26FA2BB
:101BD30002120FF29DA202120FF2C0A402120FF220
:101BE3006AA702120FF27DA802120FF2CBF20212C1
:101BF3000FF2B4F502120FF216F702120FF223F7E7
:101C030002120FF243F702120FF230F802120FF230
:101C13002BFA02120FF2C9FA02120FF2E2FC0212BD
:101C23000FF2BAFD02120FF293FE02120FF296FFA9
:101C330002120FF2E1FF02120FF2A3F004120FF2ED
:101C430078FC01120FF237FD01120FF29DFD011214
:101C53000FF24CFE01120FF244C903120FF273C9C3
:101C630003120FF2EBC903120FF2FACA03120FF2B7
:101C730056CB03120FF2C3CC03120FF2DFCC0312C5
:101C83000FF231CD03120FF274CD03120FF287CD91
:101C930003120FF2DFCD03120FF2A1CE03120FF2E4
:101CA3001DCF03120FF254CF03120FF28CCF031286
:101CB3000FF21ED103120FF2FDD103120FF24BD319
:101CC30003120FF22ED403120FF2BAD403120FF23F
:101CD300FAD403120FF219D503120FF264D50312CB
:101CE3000FF284D503120FF21DD603120FF2A3D6FF
:101CF30003120FF2FED603120FF23ED703120FF2B6
:101D0300D4D903120FF2EDDA03120FF233DB03120D
:101D13000FF228DC03120FF250DC03120FF253DC34
:101D230003120FF25DDC03120FF279DC03120FF2E0
:101D3300F3DC03120FF22CDD03120FF258DD031252
:101D43000FF27FDD03120FF2A3DD03120FF214DE95
:101D530003120FF227DE03120FF256DE03120FF205
:101D630031EF04120FF23DEF04120FF271EF041280
:101D73000FF2FDFF01120FF215B303120FF238B386
:101D830003120FF285B403120FF2CEB403120FF253
:101D93003AB503120FF298B503120FF29BB5031273
:101DA3000FF2ECB503120FF261B603120FF2E6B6AF
:101DB30003120FF2E9B603120FF26AB703120FF21E
:101DC300ABB703120FF297BB03120FF241BD03121D
:101DD3000FF291BD03120FF218C103120FF24BC29F
:101DE30003120FF2C5C303120FF2669F04120FF220
:101DF3004DC503120FF2A2C703120FF20FEC01122B
:101E03000FF2B9EC01120FF224ED01120FF23FEDC4
:101E130001120FF2C4ED01120FF21EEE01120FF2C6
:101E230065EE01120FF2CCEE01120FF24BF001122C
:101E33000FF27AF101120FF202F201120FF20BF418
:101E430001120FF2B8F401120FF25CF501120FF256
:101E53002DF601120FF2E8F701120FF280F90112C9
:101E63000FF213FA01120FF239FB01120FF283D4AE
:101E730002120FF2638003120FF2AB8003120FF210
:101E8300EF8003120FF24A8103120FF2A7810312AC
:101E93000FF2E28103120FF2648203120FF2BE8289
:101EA30003120FF23C8403120FF2BC8403120FF2ED
:101EB300178503120FF2318503120FF252850312B5
:101EC3000FF2AC8503120FF2288803120FF2478832
:101ED30003120FF2378903120FF26A8A03120FF209
:101EE300E98A03120FF2258B03120FF2948B03126C
:101EF3000FF2498C03120FF2218E03120FF2288F77
:101F030003120FF2A09003120FF2969203120FF234
:101F13000C9503120FF2E69603120FF2A797031222
:101F23000FF21F9803120FF2369803120FF22D9936
:101F330003120FF2219A03120FF2909A03120FF277
:101F430044CD04120FF29BCE04120FF25ACF0412A7
:101F53000FF2C2CF04120FF21FCA04120FF23ACAD1
:101F630004120FF27ECA04120FF2A4CA04120FF273
:101F7300CBCA04120FF2E3CA04120FF285CB041288
:101F83000FF29ACB04120FF2BDCC04120FF2C6CC9F
:101F930004120FF2CFCC04120FF2D8CC04120FF2BA
:101FA300E2CC04120FF2ACBD04120FF2B8C104125A
:101FB3000FF2BDC104120FF2BFC104120FF272DAA5
:101FC30004120FF2BEFF01120FF29EAC02120FF2C7
:101FD300D1AC02120FF23DAD02120FF2D8AD0212D4
:101FE3000FF275AE02120FF2BAAE02120FF2DCAEAE
:101FF30002120FF2F5AE02120FF21BAF02120FF232
:102003003DAF02120FF27BAF02120FF2BFAF02120B
:102013000FF2E1AF02120FF243B002120FF20AB154
:1020230002120FF2C1B102120FF233B202120FF217
:10203300FEB202120FF251B302120FF2B7B3021241
:102043000FF2F1B302120FF243B402120FF2B1B462
:1020530002120FF21CB502120FF21FB502120FF299
:10206300A0B502120FF237B602120FF2B7B6021280
:102073000FF2D6B602120FF23AB802120FF247B8B5
:1020830002120FF253B902120FF260B902120FF2E9
:1020930069B902120FF241BB02120FF25BBC0212CA
:1020A3000FF2D4BC02120FF246BD02120FF268BD4A
:1020B30002120FF2FCBD02120FF2D0BF02120FF296
:1020C300A7C302120FF2BBC302120FF2CBC3021259
:1020D3000FF2D5C302120FF2DEC302120FF2E7C3EF
:1020E30002120FF2F1C302120FF21EC402120FF218
:1020F30047C402120FF252C402120FF276C4021244
:102103000FF29AC402120FF204C502120FF24AC56B
:1021130002120FF267C502120FF2E4C502120FF2A8
:102123001BC602120FF25AC602120FF2A7C6021200
:102133000FF22DC702120FF2FBC802120FF27EC973
:1021430002120FF262CA02120FF2C9CC02120FF28C
:1021530022CD02120FF26CCD02120FF2C7CE021281
:102163000FF2FCCE02120FF24ECF02120FF203D087
:1021730002120FF2B2D002120FF2EFD002120FF2DC
:1021830084D102120FF2F0D102120FF2BC3000120E
:102193000FF2EE3000120FF21C3100120FF2F23286
:1021A30000120FF2D23300120FF22A3400120FF290
:1021B300653500120FF2B13500120FF2DA38001252
:1021C3000FF2CD3B00120FF21D3D00120FF2B33D93
:1021D30000120FF2BF3D00120FF2F13D00120FF299
:1021E300743F00120FF2254100120FF2B9410012A1
:1021F3000FF2FC4100120FF27A4200120FF29742E3
:1022030000120FF2C74200120FF2FC4200120FF24B
:10221300CC4300120FF2754400120FF2FB4600127A
:102223000FF21B4800120FF2064900120FF2884901
:1022330000120FF2BC4D00120FF2F94D00120FF213
:10224300514E00120FF2844E00120FF2EE4E0012A6
:102253000FF2244F00120FF2AF4F00120FF207508C
:1022630000120FF2DE5000120FF2975100120FF21C
:10227300325200120FF23A5500120FF25656001264
:102283000FF2F95900120FF2ED5A00120FF2F05A41
:1022930000120FF21F5B00120FF2255D00120FF206
:1022A300FE5D00120FF2415E00120FF2975F001203
:1022B3000FF2D65F00120FF25F6000120FF293600D
:1022C30000120FF2586100120FF2706300120FF246
:1022D300E16300120FF2216400120FF2AF640012E7
:1022E3000FF2D16500120FF2936600120FF29A6893
:1022F30000120FF2B26800120FF2C66800120FF25A
:10230300FE6800120FF22C6900120FF2AB6A001282
:102313000FF2D06B00120FF22D6C00120FF2DF6C74
:1023230000120FF2066D00120FF2CD6D00120FF2C4
:10233300656E00120FF28B7000120FF2C070001264
:102343000FF2237100120FF2527200120FF2FA729F
:1023530000120FF22B7300120FF2437300120FF2ED
:10236300D27300120FF2867600120FF25E7800121B
:102373000FF27A7800120FF2967800120FF2647956
:1023830000120FF2577D00120FF22D8201120FF28D
:102393005F8201120FF24E8601120FF29A8601122A
:1023A3000FF2E08601120FF2828701120FF2DE872D
:1023B30001120FF2238801120FF26A8901120FF240
:1023C3007E8A01120FF26D8E01120FF2F18E01124D
:1023D3000FF2FE8F01120FF25A9001120FF24A927E
:1023E30001120FF2BF9201120FF2C99201120FF202
:1023F300D69201120FF2019301120FF2E893011228
:102403000FF2929401120FF2109501120FF2309510
:1024130001120FF2599501120FF27B9501120FF27F
:10242300DB9701120FF2A19801120FF2E698011245
:102433000FF2639901120FF2149A01120FF2469AE6
:1024430001120FF28C9A01120FF2C89A01120FF2C5
:10245300189B01120FF26C9B01120FF2C29B011227
:102463000FF20E9C01120FF27B9C01120FF2F69CED
:1024730001120FF2C19E01120FF2C19F01120FF25E
:10248300E6A001120FF225A401120FF238A70112E0
:102493000FF2F5A701120FF239A801120FF2E9A901
:1024A30001120FF2FDA901120FF207AA01120FF296
:1024B30011AA01120FF21DAA01120FF239AA011279
:1024C3000FF2E4AA01120FF223AB01120FF22DABAC
:1024D30001120FF237AB01120FF2A7AB01120FF289
:1024E300F2AB01120FF207AD01120FF263AD01124D
:1024F3000FF2E4AD01120FF2A3AE01120FF2ACAF73
:1025030001120FF2E0B001120FF2CEB101120FF27D
:10251300E6B101120FF241B201120FF25FB20112E2
:102523000FF2A7B201120FF2CEB201120FF269B38A
:1025330001120FF22FB401120FF2C1B401120FF204
:102543003BB501120FF255B601120FF202B7011299
:102553000FF22AB801120FF27AB801120FF2DEB8A5
:1025630001120FF240B901120FF26EB901120FF20C
:1025730092B901120FF2C7B901120FF2F8B90112A1
:102583000FF22BBA01120FF24BBA01120FF2B3BAC8
:1025930001120FF2A7BB01120FF202BC01120FF2DC
:1025A3002BBC01120FF2B3BC01120FF236BD0112A4
:1025B3000FF261BD01120FF246BE01120FF290F24B
:1025C30003120FF2C8F203120FF2E9F203120FF231
:1025D3002BF303120FF28DF303120FF297F303128F
:1025E3000FF2A7F303120FF2E2F303120FF2C2F793
:1025F30003120FF2AFF903120FF295FB03120FF25E
:102603002CFC03120FF2CEFC03120FF248C001128E
:102613000FF2C6C001120FF222C101120FF26DC1F7
:1026230001120FF288C101120FF2B3C101120FF2AE
:10263300D0C101120FF2DCC101120FF273C30112F8
:102643000FF28CC301120FF211C401120FF224C452
:1026530001120FF243C401120FF2E7C401120FF289
:1026630068C601120FF21BC801120FF2B1C80112A2
:102673000FF2B4C801120FF224C901120FF242C9BA
:1026830001120FF2D9C901120FF221CA01120FF27E
:1026930024CA01120FF2EACA01120FF257CB011238
:1026A3000FF27DCB01120FF208CC01120FF226CCF0
:1026B30001120FF26CCC01120FF220CD01120FF2B6
:1026C3006ACD01120FF299CD01120FF2F6CD01126C
:1026D3000FF22BCE01120FF257CE01120FF265CE7D
:1026E30001120FF2B2CE01120FF222CF01120FF23A
:1026F3006BCF01120FF2B7CF01120FF2E3CF01122A
:102703000FF2EECF01120FF20CD001120FF2F7D03D
:1027130001120FF201D101120FF23CD101120FF29B
:102723004CD101120FF255D101120FF2A9D10112AE
:102733000FF2BDD101120FF2ECD201120FF203D34B
:1027430001120FF218D301120FF2A6D301120FF2E6
:10275300EBD301120FF277D401120FF282D40112DC
:102763000FF2C4D501120FF2DFD501120FF22BD6EF
:1027730001120FF29AD601120FF2D3D601120FF201
:10278300EDD601120FF22FD701120FF2FFD901126A
:102793000FF2ACDA01120FF219DB01120FF259DD5D
:1027A30001120FF271DD01120FF274DD01120FF24B
:1027B30080DD01120FF294DD01120FF29CDD011294
:1027C3000FF2CFDD01120FF2D1DE01120FF258DF4B
:1027D30001120FF2C8DF01120FF24AE001120FF2E9
:1027E3000BE101120FF22AE101120FF2CBE1011208
:1027F3000FF228E201120FF22BE201120FF258E25C
:1028030001120FF26DE201120FF2E1E201120FF277
:1028130030E401120FF236E501120FF2C1E50112A5
:102823000FF2DCE601120FF2A4E701120FF2D5E773
:1028330001120FF2F8E701120FF201E801120FF291
:1028430030E801120FF2C0E801120FF276E901122B
:102853000FF2EBE901120FF292EA01120FF207EB0A
:1028630001120FF23EEB01120FF27CEB01120FF299
:10287300B2EB01120FF2FF9E04120FF2EB9E041251
:102883000FF2489E04120FF2489D04120FF2619C4E
:1028930004120FF2519A04120FF25F9904120FF20D
:1028A300FD9804120FF201B303120FF2F7B20312F1
:1028B3000FF28CB203120FF2D7D302120FF245D3E9
:1028C30002120FF2C0B003120FF27EB003120FF226
:1028D300FFD202120FF2CAD202120FF282AF031218
:1028E3000FF256AF03120FF20DAF03120FF24EAEFB
:1028F30003120FF23AAB03120FF2FBA803120FF20B
:10290300C8A803120FF26FA803120FF202A8031252
:102913000FF2C1A703120FF2FAA603120FF294A645
:1029230003120FF233A603120FF2D3A503120FF211
:10293300AAA403120FF23EA403120FF296A30312EA
:102943000FF291A303120FF285A303120FF2B89FA4
:1029530003120FF2929F03120FF297D202120FF299
:1029630082D202120FF257D202120FF2E2A2041223
:102973000FF2AEA204120FF257A204120FF2C5A077
:1029830004120FF2309F03120FF2D19E03120FF2C3
:10299300929E03120FF27F9E03120FF217A00412EE
:1029A3000FF2749E03120FF2439E03120FF2309C38
:1029B30003120FF2A39B03120FF27A9F04120FF27A
:1029C3005F9B03120FF2008003120FF2339B03127B
:1029D3000FF28D9804120FF2609804120FF22D98E3
:1029E30004120FF2059804120FF2A69704120FF2C5
:1029F300869704120FF2519704120FF2FD930412FB
:102A03000FF2E59104120FF2CF8F04120FF24F8FE2
:102A130004120FF2FB8E04120FF2AF8E04120FF2A8
:102A2300709F04120FF2078E04120FF262C40300A8
:102A3300000080FB8F0001000218870001000018CE
:102A430035000400C91725000200CD172600020037
:102A5300CF1727000200D11728000100DB17290038
:102A63000100DC17840004001615860001003417EA
:102A73002A000100DD172B000100DE172C000100E6
:102A8300E2172D00080022152E000100E3172F0086
:102A93000100E41730000100E51731000100E617DB
:102AA300320001002A15330001002B153400010008
:102AB300E717360001002C1538000100E81739002C
:102AC3000100E11783000200FE17630001003815BF
:102AD30064000100DF1765000100E0176D000100CD
:102AE3003915710008001A1566000100FD1743002F
:102AF3000100EE1744000200EF1745000100F11733
:102B030046000200F2174700080030154800010094
:102B1300F4174B000100F517040001000118A10090
:102B2300010005183700010004188800010003188C
:102B33003C0001002D153D000100E917490002008A
:102B4300F617670001003A154D000200F8174E0012
:102B53000100FA174F000200FB173E000100ED17BA
:102B6300510001002E1552000100EB175300010024
:102B7300EC17540001002F150000000000000001B5
:102B830036360101000102010001030100010401C5
:102B9300060605020000070100340801000F0904BE
:102BA30001010D0100FF0E080000170200001901CA
:102BB30000FF1A0100011B0100FE1C0100081D0299
:102BC30000001F0100012001000121020000230178
:102BD300000F24020000260100012701000828023B
:102BE30000FF2A0100072B0102402C0100002D01E8
:102BF30000012E0100012F0100FF30010B1D3108E0
:102C030000003A0100083B01000F3C0100013D01B7
:102C130000FF3E04000042040000460400004A0492
:102C230000004E04000052040000560400005A0441
:102C330000000000000020012B82000001002001A1
:102C43002C820000020020012782000003002001E3
:102C53002882000004004201F980000005004201BF
:102C6300EC80000006004201DF8000000B004201FF
:102C7300CC8000000700300129820000004042019F
:102C830041810000FDFF2101238200001000422347
:102C9300F11300001100302302140300FDFF210192
:102CA300238203000000212303140A0006002301EA
:102CB30086170204000029050514020410042923C1
:102CC3008A170204200520237D170204040510231C
:102CD3007C170103710301030103010301030103D2
:102CE3002203020301031003000300030003000394
:102CF300000300030003420300032403060300034D
:102D030000030403120325032303250323030403FE
:102D1300040300030003000344030003000323032D
:102D2300000365032100350381030003050300034A
:102D33000003000300032503230303027102300190
:102D430060021102700201020202020280021002FA
:102D530061023A004100630273027202620243029B
:102D630000021302380000020002040212020002F1
:102D730000020002000204020402370037003C0292
:102D8300440200023900000200026502000235021B
:102D93008102000205028202830200020101710125
:102DA3000101010111010101310101010101800151
:102DB300100161013B0014006301730172016201A0
:102DC30043010001130106013D0135000401120115
:102DD300000100010001000104010401330133017A
:102DE3003C0144013201360000010001650100018C
:102DF3003500810100010501820183010001030007
:102E03007100300160001100700031022003500492
:102E13008000100061000000140063007300720062
:102E230062004300000013000600000000000400DD
:102E3300120000000000000000000400040037003E
:102E430037003C0244000000000000000000650061
:102E53000000350081000000050000008300000031
:102E630036000100060000000F0000000000000013
:102E730000000000000003FFFF00000403FFFF0049
:102E830000FFFF0FF4010005C4040320000100004C
:102E93000B000000000000000003010F0000000011
:102EA300000000000000000000000000000000001F
:102EB3000000000000000000000000000000AA1B4A
:102EC300D41BB01BE41AB61BDA1BB61BE61BBC1BD8
:102ED300E41AB61BDA1BC21BE41A00000000C81B6D
:102EE300E41A0000000000000000CE1BE41A0000FA
:102EF30000000000000000000000000000000000CF
:102F030000000000000000000000000000000000BE
:102F13000000000000000000000001002000200568
:102F23003C1701003E001B05C105010021002005DF
:102F33003D1701000102212374170100160210231B
:102F43008E17010033002023731701003100302353
:102F5300721708040000210509140804020521233F
:102F63007E1708040305212380170000261E010095
:102F7300261E02009C1D0280961D0300A21D040054
:102F8300A81D0480AE1D0500B41D0600C01D310040
:102F9300D21D3300D81D3400DE1DFFFF00000300E7
:102FA30003000400080010001F003E007B00F60031
:102FB300EC01D703AF075D0FB91E713D000007ECAD
:102FC300FDFDFDECDCDCCCBCACAC9C9C8C7C7C6C5B
:102FD3006C5C5C5C4C4C3C3C2C2C1C1C03EAF5E507
:102FE300D5D5C5B5A595958585757565655555453E
:102FF30045353525251515050A022402CC2305D8A8
:103003002307D2230CB4230DC023FF000000160FA7
:1030130000000B150B020002220F3300000E0F5AA3
:103023006967426565416C6C69616E63653039D06F
:10303300D1D2D3D4D5D6D7D8D9DADBDCDDDEDF30B5
:103043003016181920231A1C1E3000034D4C46510C
:10305300181A25050200011916181616182303005D
:10306300303017181921301B1D1F30003C40423AE5
:103073003F3F392F47300C0E020B040B0A070800A1
:103083000F020402010101010902000400002105ED
:10309300071400BE040AE803000003000100E8036C
:1030A300240004091E140A0103101E030A0C040F52
:1030B3000828020C05081505FFC082C083121430CE
:1030C30090156374A4F0A37421F090156574AAF0AD
:1030D300A37421F090156774B0F0A37421F09015D8
:1030E3006974B6F0A37421F0025DF774F7120ADB7A
:1030F300901557E4F0E9901556F07C307D157A5819
:103103007B15121AB49017F4E0901560F0901561D6
:10311300741AF0A3741502408474F0120ADBEAFEF9
:10312300EBFF5480700302328D90155612411970D3
:1031330003023286EA241B125984707CEA241F128C
:10314300598464137002A3E0706E8A828B831232F7
:10315300DB901571124F16750A00750B00800D1266
:103163003F5A126FF61219B8AA0EAB0FEA4B60481A
:103173008A828B83E0650C7004A3E0650D702C8A52
:10318300828B83A3A3A3A3E0F50EA3E0F50FE50AC7
:10319300450B8A828B83A3A3A3A360C312425C85DE
:1031A3000A82850B83A3A3A3A380B78A0A8B0B8A06
:1031B300828B83124F1280B4E508242A125984FCAF
:1031C300E5082402F8E43509F9E8FAE9FB901571FA
:1031D3001233C2A3A3E06402703C8A828B83124F32
:1031E30016800B88828983A3A3A3A312425CE849B8
:1031F300601F88828983E06A7003A3E06B70E488B0
:10320300828983A3A3E06C70DA9017FA125CB4800E
:103213006BECF91221E0850882850983E064017073
:103223004FE50824181232C412103012659E120E94
:103233006BE50824121232C4121030E50812410D56
:1032430012102CE508240B1265A2120E6FE5082458
:10325300171240AAE5082402FCE43509FDE5082419
:1032630019FAE43509FB122A08740A12105A800C61
:10327300E064027007AA08AB091222BEAA08AB09D0
:1032830012191CEEFAEF6480802DEA5402600C9050
:1032930018097401F0EA6402FA8023EA5408601AF8
:1032A3001221DAEA4B700B9015731264797A0812C3
:1032B30032D1EE6408FAEFFB80047A007B00026CE3
:1032C30028F582E43509F583E0F50A780A22FB90B4
:1032D3001556E0F9121A8422A3A3E0F50CA3E0F536
:1032E3000D227B00901556E0F9121A7874042274AB
:1032F300F4120ADB8A088B098A828B83A3A3A312A5
:103303004D0E1240B538F583E02409FA126BC070F4
:10331300030233B58A828B837402124D838508823C
:103323008509831233C2E8F0A3E912683A8A828BD3
:1033330083A3A3A3A3A3A3A3A3F0E5082403F8E40F
:1033430035091233B71240B53AF583E08E828B8389
:10335300A3A3A3A3F0EE2409FAE43FFB8E828F8399
:10336300A3A3125F66F5838882E0A2E58E828F8332
:10337300A3A3A3A3A3500474018001E4F0E50824EC
:1033830003F5828983124F16EA1254973BF5831291
:103393006B871210281240B43B1260588E828F83C1
:1033A300A3A3127D3612105AEEFAEFFB90155612B4
:1033B3006C0D8016F98882F583E0FAA3E0CA221225
:1033C30050B3A3A322740212105A7F04020DA074F7
:1033D300F2120ADB8A088B09ECFAEDFB740E121366
:1033E3004BE0FC1214668A0C8B0DAE0CAF0DEA4F4A
:1033F3006030AC08AD09121454E96026AC08AD097D
:10340300EEFAEFFB12145AE970148E828F83124284
:1034130049FAEFFB12144EAA08AB0912147E790085
:10342300800279B402500274F0120ADB74F61210AF
:10343300EEEAFEEBFF8C088D09750FB385218285BB
:103443002283E4F0750E008002050E9030BAE493F7
:10345300F8E50EC3984003023551AA0E7B001214FF
:10346300A28A0A8B0BEA4B60E08A828B83A3A312A6
:10347300355828F0F8C3EE98EF940050CC7C157DB6
:10348300007900AA08AB09121904850A82850B8307
:10349300A3A3A3A3127033E0F8EEC3982925E0F8A1
:1034A300E433F9E50A28F582E50B39F583A3A3A3F1
:1034B300A3A3A31240BFA3125ADB8A0C8B0DAC0C3F
:1034C300AD0DAA08AB09121AB4850A82850B83A332
:1034D300E06401700A12659E74011240D180447445
:1034E300011210B8850A82850B83124F1412148AB5
:1034F300E9603D740912134BE0C0E012659ED0E011
:10350300F0740912134BE06403701374011210B8C2
:10351300E508240BFAE43509FB121AB4801274018E
:1035230012134B12425CE508125AC13509126FF4AB
:10353300850A82850B831265AA1240D1A3A3E0C03A
:10354300E0E50824141265A2D0E0F0750F00A90F7E
:10355300740A026C25A3A3A3E0F885218285228344
:10356300E02274F7120ADBE9FE8A828B83A3A3A30A
:10357300A3A3A3E0540860338A828B83A3A3A3A3EA
:10358300A3A3E0540260218A828B83A3A3A3A3A3F2
:10359300A3A3A3A3E06406600F74E96E600A74CD6D
:1035A3006E600574F06E70031221C202490174F05B
:1035B300120ADB74EF1210EE740F12134B12635DD9
:1035C300740812134BE9F0ECFEEDFF740512134B74
:1035D3001246C91248EDA3E0F912147274061213CD
:1035E3004B12635D740612134B1255287003023895
:1035F3006C1240F9E0FA740612134BE0F91221023F
:103603001238CCF8A3E0F9E849700302386CEE24D1
:1036130003F50AE43FF50BEE2406F508E43FF5094C
:103623007C00850882F583124F16850A82850B83F9
:10363300E0F9121478740312134B12635D850A8246
:10364300850B83E0C0E08521828522831238C5D0B3
:10365300E012563DF9852182852283123F61125182
:103663008F12355BFAA3E0CA2407F582E43AF583A7
:10367300E8F0A3E41263682406F582E438F583E4F2
:10368300127000124D02121028EE1240B53F126064
:1036930058740312134B124D0E2409127D3012106D
:1036A3005A742912134B12702D1233BC1256503A0E
:1036B300126FF4742B12134BE0C0E0852182852234
:1036C300831254EFD0E0F0740212134BE4F074252C
:1036D30012134B78081212F40237C3740312134BFC
:1036E3001260208882F5831238B4A3A3A3125AE68A
:1036F300FB121490850E82850F83A3EAF0A3EBF0EF
:10370300740312134B1238C5A31238B4125CF5A21A
:10371300E6500F850E82850F83A3A3A3A3A3E0D254
:10372300E1F0740512134BE0706B850E82850F83F5
:10373300A312425C9015B1E0687003A3E069705571
:10374300850E82850F83A3A3A3124094750C007882
:103753000C1210307808121024742912134BE0F560
:103763000C780C121030742712134B120E6F901535
:10377300BE120E6F7900741912134B124EE6122308
:1037830006740A12105A850E82850F83A3A3A3A37E
:10379300A3E04405F0740212134BE004FC8E828F05
:1037A30083124F108E828F83A3A3A3E0F9121478A0
:1037B300740312134B12635D740212134BE004F093
:1037C300740312134B1255286067740212134BE0F3
:1037D300FA740612134B12425CC3EA98E4995051EF
:1037E300740212134B123B9E852182852283E028AB
:1037F300F8A3E039F9E8240FF50EE439F50F850E47
:1038030082F583E4F0740312134B1238BF64016032
:10381300030236DE740512134B7401126C13F07439
:103823000312134B125DE7123BC1E8F0A3E9023721
:1038330002852182852283124F1612210885218257
:10384300852283120E6F742612134BE0FD7425122A
:10385300134BE0FC740A12134BE0F9EEFAEFFB1280
:1038630021BC740212105A80438E828F83A3A3A3B8
:10387300E0C0E0740C12134BD0E0F0126A7CE0C09D
:10388300E0740D12134BD0E0F0740612134B125573
:10389300287009740E12134B74B98007740E121337
:1038A3004B7410F074091210B01223007411026CDF
:1038B30025E0850E82850F83A3A3A322E01256156C
:1038C300E022E0125615A3A322852182852283EAF2
:1038D300F0A3EB1255312274F0120ADB74E11210DB
:1038E300EE740412134BE9F0740312134BECF074EF
:1038F3000212134BEDF08A0E8B0F742F12134B121F
:1039030032DDAA0CFB1220F6740112134BE9F0AA64
:103913000CAB0D1220FC740112134BE07003023B3D
:1039230099852182852283E480158E828F83A3A3C8
:10393300A3A3A3E0D2E3F0852182852283E00412CE
:103943006B6BF8852182852283E0C3984003023B99
:1039530090740112134BE07003023B908521828522
:103963002283123B9EE50C28F8E50D39F9E8240F74
:10397300FEE439FF8E82F583A3A3A3A3A3E0A2E011
:1039830040B5750800750A08750B00740212134BD5
:10399300E060037508207C087D007900740512102F
:1039A300B01219048E828F83E0603E901601E064AA
:1039B30001701AE508D2E3F508750B10123BAE123D
:1039C300134BE8F0A3E91259D974FF807643080C2E
:1039D300750A0C8E828F83A3123BB9126FF674059E
:1039E30012134B74FFF0A3805A740412134BE0605C
:1039F30009E508D2E6F508750A0A8E828F83A3E0EB
:103A030064FE7003A3E0F47030741212134B740459
:103A13001265C8F8741D12134BE8124D8374121209
:103A230010B01220247D007C007900741512134B12
:103A3300AA82AB83121E0E800B123BAE12134BE80D
:103A4300F0A3E9F0740712134BE508F01240F0C03D
:103A5300E0740912134BD0E0F0740A12134B740193
:103A6300F074051210B01222C4741112134BE060EB
:103A730003023B6E740D12134B1256388E828F83E2
:103A8300A3A3A3A3F0740D12134B124D51E50AF037
:103A9300A3E50BF0740312134BE0C0E0124CE2D029
:103AA300E0125CF56011901601E0C0E0740D121392
:103AB3004B124D2CD0E0F0740D12134B12425C8567
:103AC3000C82850D83A3A3A3A3A3123BA7241C12DB
:103AD3006357127010123BA9125CA739126A9BC07C
:103AE300E0124CC9D0E0126B60C0E0740D12134BAE
:103AF30012480FD0E0126861C0E0740D12134B122C
:103B03004805D0E0F0740D12134B123BB9123BA7DA
:103B1300242A126357850E82850F83A3A3A3A3A32D
:103B2300A3A3A3E01263501240DFC0E01247F1D019
:103B3300E0F0740D12134B124F16850E82850F831E
:103B4300126B762428F582E43B126FF41240E812DC
:103B53006B87121028126051EA1262E93B127D341E
:103B630012105A74051210B01222CA8E828F83A3C8
:103B7300A3A3A3A3E0D2E0F0741112134BE06003FC
:103B830002392D740112134BE0140239397900AA5A
:103B93000CAB0D1221C8741F026C25E075F007A44D
:103BA300F8A9F022A3A3124F1AE8228E828F83A3CF
:103BB300124260740522E0123BC1A3A3A322F8A31F
:103BC300E0F9850E82850F83A32274F0120ADB7459
:103BD300E81210EEE9852182852283F08A0E8B0F8D
:103BE3008A828B83A3A3A3A3A3A3A3A3E0F9122194
:103BF300208A088B09EA4B7003023CAAE50E125493
:103C0300AB12410812409F852182852283E0600325
:103C1300023CAD7C04850E82850F83A3A3A3A3A3DB
:103C2300A3A3A3E0F9122126EE4F607B8E828F833C
:103C3300A3A3A3A312425C740712134B12648E1244
:103C4300425C740912134B124DB3C0E0741112138A
:103C53004BD0E012683FA3A3A3A3A3A3A312425C88
:103C6300740F12134B126FF6741212134BE4126C8F
:103C73001BC8241FF582E438F58312601CC4131398
:103C83005403FC70027C048E828F83E0F97808125F
:103C9300102C742059FD744059F974031210B0129A
:103CA30021BC740212105A026C237C08850E828593
:103CB3000F83A3A3A3A3A3A3A3A3E0F91221268B9A
:103CC3000BEA4B7003023C2BEE4F60DB85218285B0
:103CD3002283E0F50C780C12103085088285098365
:103CE300A3A3A3A3A3A3A3E0F50C780C1210308A1B
:103CF300828B83A3A3A3E0FB8A82850B8312785371
:103D03008A82850B83E0FA8E828F83A3A3E0F91264
:103D13002A0E740212105A023C2F74F7120ADB7433
:103D2300FA1210EEE9FE780179017F008003790031
:103D33000F125092E0FCEFC39C5026EF75F007A4DE
:103D4300FC85F008AD08EA2CFCEB3DFD124681E052
:103D5300A2E050DA540C60D6E0A2E250D37800809F
:103D6300CF8A828B83A3A3A3A3A3A3E0703DE9A27D
:103D7300E0400574016E70338A828B83A3A3A3A3EF
:103D8300A3A37401124071E0C0E0740312134BD07B
:103D9300E01246E0E0C0E0740412134BD0E0F0748C
:103DA3000512134BE8125FBB12230074060248FE90
:103DB300C082C08379011221C8025DF774F4120A2C
:103DC300DBEA4B9018096019E4F08A088B09F50ABD
:103DD300F50B78081210247A021232E512105A8079
:103DE3000A7401F07A027B001232D20233CD74F0EE
:103DF300120ADB74F31210EE740312134BE4F0A3F4
:103E0300F090157112409F740112134BE4F0A3124A
:103E13004D8804F09015ABE0A2E35003023EE41298
:103E23004065740912134B121334740912134B783F
:103E3300081212F490157378081210C07405121347
:103E43004B78081212E5123F68740512134B780879
:103E530012128850077A017B00023F557405121332
:103E63004B780C1212F49017F9E0F509780C7908E5
:103E7300120A6CA80CA90D9017FAE0C398E49950A4
:103E830003E08001E8852182852283F074091213FF
:103E93004B78081212F4C008C009C00AC00B74059D
:103EA30012134B780C1212F4123F68780C79081233
:103EB3000A6CE4F50AF50BD00FD00ED00DD00C78B8
:103EC3000C7908121180901573780C1212E5801189
:103ED300123F5A126FF6EEFAEFFB1219B8AE08AFA3
:103EE30009EE4F60658E828F83123558C398502D2B
:103EF300EE2403F8E43FF9E0FA88828983E0C39A69
:103F0300F06023740312134B1243C2740112134B58
:103F1300EEF0A3EF1264A9FEA3E0FF80C48E828FAC
:103F230083A3A3A3E4F08E828F83127CED7401122A
:103F3300134B1255288E828F83A3A3A3A3609112E0
:103F4300648212134B123F618089740312134B1264
:103F53004F16740D026C2512426090157122126087
:103F630047A3A3A3229017F8127CF5E4F50AF50BF7
:103F73002274F0120ADB8A088B09890A7800790017
:103F830090157112409FFBEE4B601E088E828F834B
:103F9300A3A3A3A3124EE0601008E87001098E8268
:103FA3008F8312409BEA4F70E39017FB124F16C3A7
:103FB300E89AE99B40030240587A0612405BA80C3A
:103FC300A90DEA4970030240588A828B83E508F001
:103FD300A3E50912407AE50AF09017FA12509A12F3
:103FE3004071A3E4F0A3F0901571124EE0600D8EC2
:103FF300828F83A3A3A3A3126FF680179015711268
:104003006FF69015ABE0A2E340091240659015737B
:104013001213349015ABE0A2E3503A7A087B009078
:104023001556E0F9121A8AEA4B4C4D70289017F88E
:10403300E0F508A3E085080CF50DE4F50EF50F781F
:104043000C1210247A087B00901556E0F9121A7EA0
:10405300740412105A026C287B001219B28A0C8B5A
:104063000D22121A9CEAF8EBF9ECFAEDFB2212404E
:10407300752212407AA322F08A828B83A3A322E5BE
:1040830008F0024901F08E828F83A3A3A3A3A3A305
:1040930022125992A3A3F022A3A3A3A3E0FEA3E0B9
:1040A300FF227F05020DA0F582E43509F583E0F9CF
:1040B30022EA1240B9222410F582E4221240C7A357
:1040C300A3A3A32212426485088285098322124096
:1040D300D522F0850A82850B83A3A322E50E241142
:1040E300124105E022E50E240E12410522E50E24BD
:1040F30010124105E0221240FD22EE1240B93FF5B5
:104103008322F582E4350FF58322240FF50AE43583
:1041130009F50B780A22E0F912192E8A088B09EAAD
:104123004B2274F2120ADB890B8A088B098A828B71
:1041330083124F161221ECEA4B600479B8806A129D
:1041430021F8E9F89030ACE493F9E8C39940047995
:10415300B280567A1512405BAE0CAF0DEA4F700475
:10416300791080458A828B83E4F0A312407AE50BB1
:10417300F0750A0078081210287C127D00EA2403E7
:10418300126B3212105A9015771255287008901539
:1041930077800C12425C888289831241AF70F4EEFF
:1041A300F0A3EFF012220A7900025002124F1AEA2A
:1041B3004B8882898322C082C08390157780048CC8
:1041C300828D83127854EC4D60288C828D83A3A357
:1041D300E069600574FF6970E68C828D83A3A3A3F5
:1041E300E06A7003A3E06B70D6EC2403FAE43DFBB2
:1041F30080047A007B00025DF774F7120ADBE9FDA5
:1042030074FE6D70047C0180027C00901577800938
:104213006D70027C0188828983125528601F888211
:104223008983A3A3A3E06A7003A3E06B70E7ECA206
:10423300E088828983A3A3E050D6F9800279FE0245
:104243004901EEF9800CA3A3127CF5EE227402124D
:10425300105A7F02020DA0F58312426022124264BB
:1042630022E0F8A3E0F9221242648E828F832212A5
:10427300105A7F03020DA0C082C083790090157786
:10428300800109E0FAA3E08A82F583E58245837021
:10429300F1025DF774F6120ADBE4F508F509780814
:1042A30012102C9030ACE49375F013A4A9F01243D0
:1042B300B712705412105AE9FE74096E7003122279
:1042C3000402424574F6120ADB74FE1210EE8521D5
:1042D30082852283E4F0A3F0A821A9228808890912
:1042E300780812102C750802750900780812102C32
:1042F300126CC512105A02425074F5120ADB74EBA9
:104303001210EE852182852283E4F0A3F0901577C5
:1043130080748E828F83A3A3E0C0E0740212134BD8
:10432300D0E01259D9A982AA8389088A09750A009B
:1043330078081210287C127D00740612134B127039
:104343001912105A74021210A888088909780812E1
:10435300102C750813750900780812102C740412B8
:10436300134B1254CB75F013A4F8AAF075F013E9AC
:104373001243B3126CCD12105A8521828522831207
:1043830043C28E828F8312409FEE4F7085A821A96E
:104393002288088909780812102C7508027509000B
:1043A300780812102C126CC512105A74150242723E
:1043B300A42AF9E82402FCE439FD7A427B0022E0D6
:1043C3002401F0A3E03400F02274F4120ADB74EB4E
:1043D3001210EE7E007F00A821A92288088909789F
:1043E3000812102C7508028E09780812102C7C0014
:1043F3007D007A4212706012105AE9706C8E088048
:104403005674021210A8880A890B780A12102C75A8
:104413000A13750B00780A12102CE50875F013A423
:10442300F8AAF075F013E5091243B3127062121083
:104433005AE9701B740312134BAA82AB83740212E2
:10444300134BE0F91221E6E970050EEE70010F053A
:1044530008E5087002050985218285228312425CE2
:10446300C3E50898E509994098EEFAEFFB74150245
:1044730033CA74F6120ADB8C828D83A3A31246CE51
:10448300F0EA1262EF3BF583E0C0E012468BD0E026
:10449300F0EA241DF582E43B12425A12466F12469B
:1044A300C9F0A3F0EA241FF582E43BF58312409F91
:1044B300EC1246623DF583EEF0A3EFF01246683B43
:1044C300F583124699A3A3A3A3A3A3EEF0A3EF122C
:1044D3005F4AFE8C828D831246D874035EFEC394BA
:1044E300034003024655EE600874026E6003024502
:1044F3007A8C828D83E0540CFE740C6E700302453B
:10450300B9E0A2E4400D88828983E08C828D83A385
:104513001246EE74086E60030245B91246797401BF
:10452300F08A828B83A3A3A3A3A312599F70148C35
:10453300828D83E0440C1246E0A3A3124699EEF069
:10454300A3EFF08C828D83E0A2E4402B8882124695
:10455300A71246BC500109F5821246A7A3A3A3A341
:10456300A3A3F0A3EF1246E88C828D83A3A3A3F049
:10457300E82403F850010988828983E0C0E0EC2431
:1045830011F582E43DF583D0E01246D88C828D8309
:10459300E0A2E7507588828983E0FE8C828D8312C6
:1045A30046EE74FC5E700C8C828D83A3E05403642E
:1045B30003701E024655124679E4F0740C6E6003D4
:1045C30002452488821246AD1246BC5001090245B9
:1045D300468C828D83A3E05403603288828983E012
:1045E300C0E0EC1246933DF583D0E01246EF8C8297
:1045F3008D83E054036402701488828983E0C0E0F1
:10460300124681D0E01246EF8003A3E4F0EC12548B
:10461300973D126FF4EC2410FEE43DFFEA241DF5F0
:1046230082E43BF583E0F5088E828F83E0C398250F
:1046330008F508F0EA2417F8E43BF98882F583E0EB
:10464300C39508C0E012466FD0E0125F4AC39508D5
:10465300500A12466FE4F012468BE4F002425524EE
:1046630015F582E422EA240DF582E422EC240DF50B
:1046730082E43DF58322EC1256503DF58322EC246F
:1046830014F582E43DF58322EC1240B93DF5832213
:104693002413F582E422E0FEA3E0FF8C828D83A342
:1046A300A3A3A3221246ADA3A3228983E0F508A303
:1046B300E0FFE5088C828D8322A3A3A3A3F0A3EFDD
:1046C300F0E82402F8221246CEA322E4F08C828D75
:1046D30083A3A3A3221246F6A882A98322124075BC
:1046E300A3A3A3A3221246F6A3E022A31246F6082D
:1046F300A98322125F53A32274F4120ADB74F31208
:1047030010EE8A0A8B0BECFEEDFF8C82F583E054EE
:104713000CF508E0A2E75006E508D2E7F508E5083E
:10472300D2E1F50812599F7006E508D2E4F508E0D6
:10473300A2E55006E508D2E5F5087C087D0079007E
:10474300AA21AB22121904740212134BE508126F4B
:10475300FAC0E0740312134BD0E0124D88E50AF05F
:10476300A3E50BF0740512134B12686612134BE0AA
:104773007077740812134B124D0E125F3C38126897
:1047830081C0E0740812134B12480FD0E012686125
:10479300C0E0740812134B124805D0E0F0740812FD
:1047A300134B1247FBE0124D36124DB7126350EE16
:1047B300241112596BC0E01247F1D0E0F0EE24143B
:1047C30012596BC0E0740812134B124D0E2435F5C9
:1047D30082E438F583D0E0124D5BC0E07408121315
:1047E3004B124D12D0E01265BA740D0233CAE8249D
:1047F30032F582E439F5832212426AA3A3A3A3A369
:10480300A322124D22126A6038F58322124D22240C
:1048130026F582E438F5832274F7120ADB7E008AD8
:10482300828B83A3A3A3A3A3A3A3A3A3E064046092
:10483300030248DD125648E060030248DD1254AA21
:104843003B12552670030248DD88828983E05403B6
:1048530060030248DDE812565039F583E0FA8C8292
:104863008D83A3A3E0FBA3E0CB2411F582E43BF506
:1048730083E06A706588828983A3A3A3A3A3A3A308
:10488300A3A31248E1E06A7003A3E06B704C888233
:104893008983A3A31248EDE0FFA3E0CF24061259B6
:1048A3006B6A7003A3E06B703188828983A3A3E0F2
:1048B300F88C828D83A3A3E0F9A3E0F5838982A317
:1048C300A3E06860138C828D83A3A3A3E0F583899F
:1048D30082E0540C640470027E01EEF980201248D9
:1048E300E522124F1E8C828D8322A3A31248E5A3D7
:1048F300A322740C12134BE0F9740D12105A7F01AA
:10490300020DA074F6120ADB74FC1210EEEAFEEB41
:10491300FFECFAEDFB8C82F583A3E0540360169061
:10492300156D12552860597900EEFCEFFD126147B1
:10493300120C66804B852182852283EEF0A3EFF073
:10494300740212134B124D7DAC21AD227A227B22CD
:1049530012244A8A088B09A808A909EA4960218A0E
:10496300828B83A3A3A3A3A3A3A3A3A37406F07A15
:104973000088828B83124D0E126310E0F91223A874
:10498300740402425274F2120ADB74F31210EEEA58
:10499300FEEBFF8A82F583A3A3A3A3A3A3A3A3A3ED
:1049A300A3E0F50A901809E0700579BA024CC675C0
:1049B3000801750900750C00750D007C087D0079F0
:1049C30000AA21AB22121904740512134B740112AD
:1049D3004D9054046012740212134BE0D2E6124D50
:1049E3009054087003750803E05410600674404542
:1049F30008F508E054086022740212134BE044C027
:104A0300124D905420600A740312134BE0D2E080DD
:104A130008740312134BE0D2E1F0EE241512596B24
:104A2300124CF67003740169700674084508F508A2
:104A33008E828F83A3A3A3A3A3A3A3A3E0701612C1
:104A430024A485218285228312635D740212134B91
:104A5300E0D2E28030640F7010740212134B124DD7
:104A63009874044508F508807F8E828F83A3A3A3DF
:104A7300A3A3A3A3A3E064028E828F83700A1270A0
:104A83002DE8F0A3E9F08060A3A3A3A3A3A3A3A3AA
:104A9300E06403700DAC21AD22EEFAEFFB12225855
:104AA30080468E828F83A3A3A3A3A3A3A3A3E064BF
:104AB300017035901601E06010740212134B124D11
:104AC30098750910750AFF8018740212134BE0449D
:104AD3000C124D8874FDF0A374FFF074044508F5BF
:104AE300088E828F831232DDEE241512596BA2E0F9
:104AF300503F740212134BE0540C701B8E828F8351
:104B0300124F16121EDAE9700579BB024CC6740205
:104B130012134BE0D2E5F0EE241512596BA2E050CC
:104B230010740212134BE0540C64047004E0D2E5D9
:104B3300F0EE241112596BC0E0740412134BD0E051
:104B430012686812134BE06003024CBF740812131F
:104B53004B124D51E508F0A3E509F0124CECE0C00F
:104B6300E0124CE2D0E0F0124CD3E0C0E074081243
:104B7300134B124D0E12469338F583D0E0124DB706
:104B830064017011901601E0C0E0740812134B1217
:104B93004D2CD0E0F0740812134B124D4C124CDD27
:104BA300FAE8241CF582E439F583EA124D83EE24F6
:104BB30015FAE43FFB8A82F583127854E8125CA766
:104BC30039F583124D7DEE241C12596BC0E0124C53
:104BD300C9D0E0125DED124CF670037401697013D5
:104BE300740812134B125638FAEE241D12596BF93E
:104BF30012212C8E828F83A3A3A3A3A3A3A3A3A376
:104C0300E0C0E0740812134B12480FD0E0F07408B0
:104C130012134B124805E50AF0740812134B125491
:104C2300CB2428F582E439F583E50CF0A3E50D12D6
:104C33004D63124D361259E4126350EE124CDDC02F
:104C4300E0E82433F582E439F583D0E0F0EE241B69
:104C530012596BC0E0740812134B124D12D0E0F0DE
:104C6300EE241A12596BC0E0740812134B124D0E46
:104C73002432F582E438F583D0E0124D5B124D0205
:104C8300121028126A66127854740B12134B124DC9
:104C93000E242F127D3012105AEE241512596B5424
:104CA30040601290158D125528600AAA21AB22127A
:104CB3006147120C66AA21AB221222CA740C12138A
:104CC3004BE0F9024FFDE82420F582E439F5832215
:104CD300EE2419F582E43FF58322126A75E022E897
:104CE3002412F582E439F58322EE2418F582E43F99
:104CF300F583225480F8A3E05401F974806822F507
:104D030008A3E0F509750A00780822124D22221241
:104D13004D222434F582E438F58322A3A3A3A312FE
:104D23004D2622E0F8A3E0C822124D221246623833
:104D3300F58322FAA3E0FBE8242AF582E439F5831C
:104D4300EAF0A3EB22A3A3A3A3124260EE22125420
:104D5300CF1254AF39F58322F0EE24131259EC220B
:104D6300F0EE240D1259EC22E0FC8A828B83E02CB6
:104D7300FCA3E03400FD8A828B83ECF0A3EDF022E8
:104D8300F0A3E4F022F085218285228322F0EE2431
:104D9300151259EC22E0D2E3F0124DA0228E828F3D
:104DA30083124264852182852283E8F0A3E9F022FD
:104DB300E8F0A3E91264A3E02274F7120ADB8A8203
:104DC3008B83A3E0640170047E6380027E648A8225
:104DD3008B83E060087905124DF024F3FE9015A94A
:104DE300E06007F9124DF024F2FE0248DD1223724F
:104DF300E9F8EEC3982274F6120ADB74FE1210EE81
:104E030085218285228312635DE9FEECFAEDFB9036
:104E130005C61255286032A821A922880889097875
:104E23000812102C7D01740E12134BE0FCEEF99066
:104E330005C6126331120C66740212105AEA4B60F3
:104E4300047900800679B2800279B602425074F781
:104E5300120ADBE9FE901563125528601F740912CC
:104E6300134BE0F5087808121030EEF99015631231
:104E73006331120C66740112105A800279B602492A
:104E83000174F7120ADB8908ECFEEDFF79B5E5083A
:104E9300245E602014600624F86034803D9005C8C9
:104EA300124EE06035127071120C668E828F83127F
:104EB300635D8024901565127854EC4D601CEEFC04
:104EC300EFFD901565126331120C66E9F9800B90C2
:104ED3001561124EE6121AB47900024901124F1AF3
:104EE300EA4B22127858EEFAEFFB2274F7120ADB30
:104EF300E9FE79B574AB6E700B901561124F161203
:104F03001AB479000249018E828F83A3A3A3A3A3BA
:104F1300A3A3A3124F1A22124F1E22E0FAA3E0FB0F
:104F23002274F1120ADBEAFEEBFF8C0A8D0B750883
:104F3300019015B1E06E7003A3E06F700C124FF196
:104F4300AA0AAB0B121AB4805E1224AAEE6A70028C
:104F5300EF6B7009AA0AAB0B1224B0804AAC0AADFE
:104F63000BEEFAEFFB122000E9F508901800E07051
:104F730036122942E97030E508702C901581E06EF5
:104F83007003A3E06F7020EE4F601C750C79750DF4
:104F930015750E00780C1210287C087D00AA0AAB48
:104FA3000B12701D12105AA90802795074F2120ADA
:104FB300DBEAFEEBFF8C088D09750A01124FF1EE57
:104FC300FAEFFB121AAEE9640170119015B11242A7
:104FD3005C850882850983126FF6800EAC08AD09E3
:104FE300EEFAEFFB122006E9F50AA90A8011122452
:104FF3009E8A0C8B0DAC0CAD0D22740D12105A7FD2
:1050030006020DA074F6120ADBEAFEEBFF7A0D7BB3
:10501300001219B2EA4B6062EE2424126CFAF0EE2D
:105023002425126CFAA31250BF126D00A3A3126AB7
:105033009312509AF0EE1250801250AFE8F0A3E9A9
:105043001250D61250A7126FF6EE125089126B56F9
:10505300A3A3A3A3F0EE243312596BC0E012509222
:10506300D0E01268851250A7A3A3A3E8F0A3E91226
:1050730050CEC0E0125648D0E0F0024255242AF543
:1050830082E43FF58322242EF582E43FF58322EA6E
:10509300125AC13BF5832212509E22E08A828B83EF
:1050A300A3A3A322126BB5A3A3A3A3221250B322DB
:1050B3001242648A828B83A3A3A3A322F01250C457
:1050C30022EE2426F582E43FF58322F0EE24321209
:1050D30059EC22F0EE242C1259EC2274F4120ADB60
:1050E30074FE1210EEECFEEDFFEC241612596B6405
:1050F300057010EC2406FCE43FFD122252E9700314
:1051030002518AAC21AD22126DAF121EE0852182BD
:10511300852283125528606B8E828F83E064017031
:1051230058E875F009A4F8AAF075F009E9A42AF97A
:1051330074DA28F8740239F9E8FAE9FB8882F5830E
:1051430078081212F4EE12522C121288402785218D
:1051530082852283124D4C12597912518F7808128D
:1051630012F490814B78081212098A828B83780893
:105173001212E5800A79A28010EE240F126FF079E3
:1051830000800679A1800279C80233C8124DADEEC2
:10519300126A812274F2120ADB8A0C8B0DECFEED8B
:1051A300FFEC125979E4F0A3F090817B7808121296
:1051B300F4EC12522C1211046067EC240E12597293
:1051C300703478B39015A8E070289015DAE0640184
:1051D3007020EC241112596BF912235A8B09A90977
:1051E300EE1254AB3F12635BEA496004780080021D
:1051F30078A18808802EE060046402700A12226499
:10520300E9F5087007801DE064037010EEFCEFFD04
:10521300AA0CAB0D121F04E9F50880087508A180DC
:10522300037508A3A908025002126A817808227440
:10523300F0120ADB74F51210EEEAFEEBFFEA240A21
:10524300FCE43F8C82F583127CF11254B574031293
:1052530010B88A828B83126151E9700302531B7465
:10526300011210B874031210B0121EE0740112136D
:105273004B125528700302531BE875F009A4F8AAD2
:10528300F075F009E9A42AF974D628FC740239FDF3
:10529300E508240E1265A2E4F00412134B12425CDB
:1052A300E5081254AB3509126FF48C828D83121307
:1052B30028E50824121265A212133490814B780852
:1052C3001212F48C828D83780812121C8C828D83C7
:1052D300780C1212F490821B78081212F4780C796D
:1052E30008120A6CE5084509450A450B702A740142
:1052F30012134B1254CB75F009A4F8AAF075F009F8
:10530300E9A42AF974DE28F582740239F58374015D
:10531300F07A007B081254D88E828F83A3A3A3A3B1
:10532300A3A3A3A3A3A3E02406FCA3E03400FD8E60
:10533300828F83126151126873603EEE240A125405
:105343009D124D517468124D83E812549739F583B9
:105353007402F09015931213288C828D8312634A82
:10536300125F3C3CF58312133490814B7808121280
:10537300F4901593780812121C125513705D901552
:10538300611254C3A3A3A3A3A3A3A3A3A3A3125FC1
:1053930072121AAEE97010125F30901561125F42FB
:1053A300700512687360348E828F83A3A3A3A3A3B3
:1053B300A3A3A3A3A31254C3124F16121F0AE96097
:1053C300118E828F83A3A3A3A3A3A31254FFE4F09C
:1053D300A3F08E828F831254E5E4F0125513600319
:1053E3000254928E828F83A3A3A3A3A3A3127CED63
:1053F3009015A8E060030254879015DAE064016019
:1054030003025487750A3A750B00780A12102C743C
:10541300021210A8880A890B780A12102C1272EC57
:1054230012105AE9705BE508240E1265A27401128A
:10543300552DC0E0E50824111265A2D0E0F0E5087F
:10544300240F1265A2743A124D8390158F121328FC
:10545300E50824121265A212133490814B780812C6
:1054630012F490158F780812121C90814B78081251
:1054730012F490158F780812110470081254D48016
:10548300031254B51255137006125E3374A1F074EF
:105493000B026C25240EF582E422F8E43FF9E8FCC4
:1054A300E9FD8882F58322EA1254AF22240FF582A4
:1054B300E422E5081254AF3509F583E4F0A3F022A2
:1054C3001278588E828F83221254CF22124264E8BC
:1054D300227A007B02901439E0F9121958228A8249
:1054E3008B83A3A3A3A3A3A3A3A3A3A31254F322D2
:1054F300124D26240EF582E438F58322A3A3A3A339
:1055030012550722124D26240FF582E438F5832223
:105513008E828F83A3A3A3A3A3A3124D1E240FF5EF
:1055230082E438F5831254CF492212553122F08593
:105533002182852283E02274F6120ADBEAFEEBFF66
:105543007A237B001219B2EE240AF508E43FF50929
:1055530085088212635B7C237D0079001219048520
:10556300088285098312552870030255FBEEFAEF72
:10557300FB12227012551360748E828F8312562E83
:1055830064018E828F83A3A3A3A3A3A370071256E0
:1055930024740E80211255287010126873700B8EBC
:1055A300828F83A3A3E0A2E0500712561A740D80E2
:1055B3000512561A740512688554036401700712A4
:1055C30056027405800B9015A9E0C0E0125602D074
:1055D300E012563DF5838882125998850882850921
:1055E30083124D0E1262EF38F583E9800E8508822F
:1055F3008509831263D48003126317F00242558E28
:10560300828F83A3A3A3A3A3A3A3A3A3A312561429
:1056130022E0126336A3228E828F83A3A3A3A3A3C4
:10562300A3124D1E1262F538F58322A3A3A3A3A3ED
:10563300A3A3A3A3A31254F3E02212564122126D93
:10564300C4F8A3E022EA1256503BF58322240CF55A
:1056530082E42274F1120ADB74E41210EE8A0C8BDA
:105663000D8C088D097A237B001219B28A0A8B0BE1
:10567300AE0AAF0BEA4F70030259531262FBE508FF
:105683002415125984687003A3E0698E828F837096
:1056930004740280027401F0E508240DF8E435096E
:1056A300F98882F583E0FAC3E49AFA95E0FB12598C
:1056B300802AFAA3E03BFB8E828F83A3A3A3A312CA
:1056C3005F598E828F83A3A3F0EE2420F582E43FFB
:1056D300F583E4F0EE2421F582E43FF583E4F0EE74
:1056E300FAEFFB12232485088285098312599F70E0
:1056F300098E828F83A3740580069015A912598D94
:10570300F0EE2417F50AE43FF50B8E828F831259CE
:1057130098E9850A82850B83F0EE2416F8E43FF9B5
:10572300E508240EFAE43509FB88828983124D6B60
:10573300E5082410FAE43509FB850A82850B83E02A
:10574300FC88828983E0F88A828B83E0C398C39CB8
:10575300F81259D9F0EEFCEFFDAA0CAB0D12226A38
:10576300E9F50B8E828F83E064027006125F3012BC
:10577300595DE50B600302594A750C00750D0090E5
:105783001800E064016005E06402703F12596F6025
:1057930008EE242112597270328E828F83A3A3A341
:1057A30012631D1259A5EE241612596B1259CEFA23
:1057B300E439FB12405DEA4B6011126B7F12102833
:1057C3001259B3AA0C12701D12105AEEFAEFFB1203
:1057D3002330E9F50B901800E064016008E06402EF
:1057E300600302593DE9700302593DE50C450D7014
:1057F3000302594A8003850E0B12596F600BEE2486
:10580300211259726003025943850B0E850C0885DA
:105813000D09750A0078081210281259B38E828F69
:1058230083A3A3A3A3127D3612105AEE2420125988
:105833006B600D1259787468124D83EE2420801525
:10584300EE242112596B60151259787403F0A37476
:1058530001F0EE2421F582E43FF583E4F0EEFAEF64
:10586300FB122330E9F50B70907C137D00790074F3
:10587300091210B0121904741A12134B740112593D
:10588300E464687002A3E0704F8E828F831254FF2A
:10589300E0640560030257F97C0879FF8E828F83E9
:1058A300A3A3A3A3E0242A125F7512198EE9700340
:1058B3000257F97C087D0079FF74011210B01219A8
:1058C3000474011210B87A007B0079AB12224C7475
:1058D3001912134B74FC8015125978E06403700499
:1058E300A3E064017008741912134B74FFF0E4F51C
:1058F30008F509780812102C74021210B8741312E8
:10590300134BAA82AB8312645A12105A85218285E3
:105913002283E0602B74091210A88808890978088B
:1059230012102C750813750900780812102C7C00CE
:105933007D00126CCD12105A8006E50C450D6007F0
:10594300AA0CAB0D1219B8EEFAEFFB1219B88003CB
:10595300750B10A90B741C02794DEE2406FAE43F73
:10596300FB121AB422EE240C1259EC22EE2420125C
:1059730059EC640122EE1254AF3FF58322E508246B
:105983000EF582E43509F583E022125992A322E051
:105993008E828F8322A3E0F912237222E0540364E0
:1059A30001221259A922E0FAE82AF8E43400F92284
:1059B3008E828F83A3A3A31263211259A9EE241607
:1059C3001259EC1259CEFCE439FD22FAE82AF8E424
:1059D30039F9E82404221259DD22126894A3A3A3FF
:1059E30022F01259E922EE240FF582E43FF583E019
:1059F300227901020FEF74F4120ADBEAFEEBFF8A4D
:105A030082F583A3A3A3A3A3A3A3A3124D0E2424CC
:105A1300F582E438F58312599F702E8A828B8312A4
:105A2300562E7025125AC7E06405701D125AC7A37B
:105A3300E0F8740168600574066870071254E17435
:105A43000280051254E17403F0EA240A1263C812B7
:105A53006331E4F0EA2408F8E43F1233B72431F564
:105A630082E43AF583E0C0E0127068A3A3D0E012A9
:105A73005AE6CA242EF582E43AF583E0C0E01270B8
:105A830068A3A3A3D0E012600CC8125AC138124213
:105A93005A127068125ADB8A0A8B0BAC0AAD0B855B
:105AA3000882850983125F72121AB48508828509F8
:105AB30083124F161223301263C3F00233CD240B2B
:105AC300F582E4228A828B83A3A3A3A3A3A3A3A324
:105AD30012685AF583888222A3A3A3A3124DAD12A1
:105AE300249E22125F4EFAA3E0220259F4C082C020
:105AF300839015837476F0A37422F09015857482D5
:105B0300F0A37422F09015877488F0A37422F090A8
:105B13001589747CF0A37422F0025DF774F4120A01
:105B2300DBEA2408FEE43BFF8E82F5831254CB129A
:105B33006307E0F50874035508F509125F6DF8A3D0
