:020000040000FA
:060000000212A80208161E
:03002B00021007B9
:03003300020EF4C6
:030053000207455C
:100083000207A701010000000000F8FF07FFFF00BF
:10009300000504000000030001FFFFFFFF00141030
:1000A3002700000020FD000206FFFF1E32000000B3
:1000B300640000001900000032000000010000008D
:1000C300F81B00000000000000000000000000001A
:1000D3000402030000000300000001092300640080
:1000E300230064000000000001000100010104047A
:1000F3000104010203020414810000000204010C44
:100103000002020F8200000003040106010201291C
:1001130082000000010400003914000000E803001D
:1001230000FFFF8A1488130000E8030000640064E2
:1001330000B801A0BB0D00A0BB0D00020202070422
:1001430001071E02051E020A0A010108080103B87D
:100153000B02803E0102FEFFE8030A050001FFFFD8
:10016300020A011401E0050301010F030003000368
:100173000003000300030003000300030005000A5B
:1001830000140028004F009E000000032E00000012
:1001930000D72C00000000FF000000FF001212C770
:1001A30060461212B8603DE9687008F618F618F652
:1001B30018F622748067F71201D40909097480675D
:1001C300F7221212B8601D1212C77005191919808F
:1001D3001A121194701F1211A8C37003E667331922
:1001E300191940071818182208080874FFF618F69A
:1001F30018F618F6221211A86017121355702192DF
:10020300F012135E7019501720F01408080809093A
:1002130009E7F61819E7F61819E7F61819E7F622A9
:1002230012135E60E6E869701F0808E62480F6088A
:10023300E436F618547FB47F0CE654806007F6E486
:1002430018F618F622181822E9C6CC08C6CD08C637
:10025300CE08C6CFC0E0E8C0E0EAC0E0EBC0E009EA
:10026300E9F809E7FA09E7FBE6F918E6F8C3EC98B9
:10027300ED99EE9AEBC2E7F5F0EFC2E795F0500E79
:10028300600CEBCFFBEACEFAE9CDF9E8CCF8EAA2B1
:10029300E7D2E7FAEB33FB13F5F0EEA2E7D2E7FE82
:1002A300EF33FFC5F013A2E730E601B313C5F0C384
:1002B300C0E0C0F07F00C39BFB605E9418600F40FA
:1002C3001D14601AD0E023F9D0E0F80203A68AF0E7
:1002D300E9486003D2F0E4AFF0FAF9F8803BEB3081
:1002E300E40D89F0EA6003D2F0E4AFF0F9CAF8EB69
:1002F30030E30D88F0EF6002D2F0AFF0E4CAC9F842
:10030300EB54076014FBC3EA13FAE913F9E813F893
:10031300EF135002D2E0FFDBEDD0E0C0E030E7396D
:10032300C3E49FFFF5F0EC98FC42F0ED99FD42F039
:10033300EE9AFE42F0D0E0F9D0E0F8E5F0607AE919
:1003430023F9EE20E742D8028067C3EF33FFEC3393
:10035300FCED33FDEE33FE80EAEC28FCED39FDEED7
:100363003AFED0E023F9D0E0F84002801BC3EE133D
:10037300FEED13FDEC13FCEF135002D2E0FF08B8BF
:1003830000067F7F74FF802EEF3350178CF020F030
:100393000260100CBC000C0DBD00080EBE0004086A
:1003A300E860DFE933E813FFEE2313FE4F4D4C8083
:1003B30008E95480FFE4FEFDFCEE33EF33F47004F0
:1003C300FCFD7E80D0E0FBD0E0FAD0E0F8D0E0CFB7
:1003D300C618CEC618CDC618CCC6F9221212B870EC
:1003E30004181818221212C7700D74FFF61819F6A4
:1003F3001819F61819F622E7548066F612135E7080
:100403000F12135570F014F608F608F608F680D1AB
:10041300121355700CF608F608768008E6447F80C0
:10042300EC1211AB700C12119760BFE65480F6E426
:1004330080BB121197700519191980A5E869700C12
:10044300763F18768018F618F6E8F922E6CDC0E074
:1004530018ECC0E0E633CD33CDD313F6E719FCE750
:10046300191933CC33C3947F400ECD9D502408E635
:100473005480F6E418F6800FF4043D14501408E693
:10048300447FF6187680E418F618F6D0E0FCD0E046
:10049300FD22CCD313CCFD18E4C6CBC0E018E4C6D0
:1004A300CAC0E00808ED08C633E613F618E433C6FD
:1004B30075F003C3CA97CA09CB97CB199C40047D37
:1004C30008802EBD000302058816B6FF0506060840
:1004D3001618C3CA33CACB33CB33CA27CA09CB379F
:1004E300CB193CC37D08803E187D0820E75CC633EA
:1004F300C6CA33CACB33CB33DDF1D5F0EB30E77B60
:10050300CA97CA09CB974ACB199C406F4B7025E613
:1005130020E0218066187D08C3CA97CA09CB97CB10
:10052300199CD3C633C6CA33CACB33CB3350C9DDC8
:10053300E7D5F0E1D3E4C636C608C636C608C636E4
:10054300C608C636C61818188031C3CA97CA09CB5D
:1005530097CB199CB34097C633C6CA33CACB33CBA8
:1005630033DD34D5F02EC6A2E0C640C8CA27CA0977
:10057300CB37194A70BECB3CB480B90808E63308C0
:10058300E633601F181818D0E0FAD0E0FBD0E0FC87
:10059300D0E0FD22187D08CA27CA09CB37CB193C06
:1005A300D3808013F618E4B67F11F618B6FF0EF663
:1005B30018C60470D20808768080CAF618F618F6B2
:1005C30080C5001212B8604F1212C76012E7548040
:1005D30066F61211947011121355703B090909F450
:1005E300F618F618F618F6221211A8701512135EF3
:1005F30008080860EAE6447FF618768018E4F618DF
:10060300F62212135E60161213557012E4F608F602
:1006130008F608E65480F609090918181822EAC0F2
:10062300E0EBC0E0ECC0E0EDC0E0E687F0A4FBAC9B
:10063300F008E687F0A42CFCE435F0FA1809E68705
:10064300F0A42C4B60027401CA35F0FCE433FB09BF
:10065300E687F0D2F7A42CCB35F0FC1908E687F037
:10066300A42BCC35F0FBE433FD0819E687F0D2E781
:10067300A42C4ACB35F0CD3400FC09E687F0D2E751
:10068300A42DCC35F0FDE433FA0918E687F0D2F750
:10069300A42CCD35F0CA3400FC08E687F0D2E7D2AB
:1006A300F7A42ACC35F07A7E20E70B0ACB33CBCDE7
:1006B30033CDCC33CC33CB3350147004ED30E00E58
:1006C300D2F1E4CD3DCDCC3CCC3B5005DA05C2F1B3
:1006D300EB547FC63308E63392F0FBE73309E73385
:1006E300C39A502D2B70190C0D4C4D70151806E63E
:1006F30008C333700D20F10AA2F013F6E418800B3F
:100703004024E4F630F002768018F618F618F680E6
:1007130024D33B14501074FFA2F013F6187680E430
:1007230018F618F6800FA2F013F618E63303F6183E
:10073300ECF618EDF6D0E0FDD0E0FCD0E0FBD0E025
:10074300FA22C0E074F1120BB1A2AFE433F509D27F
:10075300AF85A708AFA1EF5508FE74105E600612BF
:10076300165275A1EF74085E600812165875A1F74A
:100773008024EFA2E092F0E508A2E082F050179007
:100783006198E0F8900610E0C398A2D265D0335088
:1007930002E8F075A1FE752300E509A2E092AF7FA0
:1007A30002020C10C0E074F2120BB1A2AFE433FEEC
:1007B300D2AF9061A4E0F8759B00E59158540860AE
:1007C300087591F71216A68023E591585410600816
:1007D3007591EF1216AC8014E591A2E092F0E8A2B5
:1007E300E082F05007E0C2E0F01218029061A3E04B
:1007F300F8E5E9585404600E1217D875E9FB9061C7
:1008030093E0A2E640F2752300EEA2E092AF7F01EF
:10081300020C10C0E074F2120BB1A2AFE433FED2AB
:10082300AF9061A5E0F8E5BF585404600675BFFBBF
:1008330012181A80D112088D30F0431208D2803E6C
:100843008A088B098C0A8D0B780812088D20F01406
:1008530030E72B74FFFCFBFA747F8022E4FCFBFA85
:100863007480801AB48008BC00F2BB00EF800F5084
:10087300EBF9E4C39AFAE49BFBE49CFCE499C6CC51
:1008830018C6CB18C6CA18C6F922E4C9C608CAC610
:1008930008CBC6D3330308CCC63392F0C3947F404E
:1008A3002E94184019C9B90704CACBCC225025C3CA
:1008B30009CA33CACB33CBCC33CC33D9F422F4605B
:1008C3000DC9CCC313CB13CBCA13CAD9F6CC22E4BC
:1008D300FCFBFA2214FCFBFA22C3E498F8E499F92E
:1008E30012091D8026C3E49AFAE49BFBE920E7E999
:1008F30012091DE498F8E499F922C3E498F8E499FD
:10090300F912091DE498F8E499F9C3E49AFAE49B0F
:10091300FB22EB20E7CFE920E7E0B90010BB00089A
:10092300E88AF084F8AAF022E4FBC8FA22EB7022EA
:100933007B10C833C8C933C9335007C39AC3DBF22A
:1009430080069A50012ADBEAC833F4C8C933F4C9D4
:10095300FA2275F008E4C833C8C933C933C99AC940
:100963009B5004C92AC93BD5F0ECFBC833F4C8E457
:10097300C9FA22080808EAC0E0EBC0E086F0E7A461
:10098300FA180986F0E7A42AFA180986F0E7A42AD8
:10099300FA180986F0E7A42AFA1986F0E7A4FBE51A
:1009A300F02AFA190886F0E7A42BFBE5F03AFA19C6
:1009B3000886F0E7A42BFBE5F03AFA18180986F04D
:1009C300E7A4C5F02BFBE43AFA1908E7C5F0C6A47F
:1009D30026F6E5F03BFBE43AFA1886F0E7A4F6E5E1
:1009E300F00826F6E43B08F6E43A08F6D0E0FBD03C
:1009F300E0FA22080808E630E711121158120A0E2D
:100A0300080808C64480C618181822181818E97967
:100A13009EC608CAC608CBC608CCC6C37020799642
:100A2300CACBCC7019798ECBCC70137986CC700E6F
:100A3300F9802ACA33CACB33CBCC33CC331930E752
:100A4300F2CCCBCA3350147004EA30E00DE4CA3A56
:100A5300CACB3BCBCC3CCC500209C3E913C6CC1860
:100A63002313C6CB18C6CA18C6F922E4CFC0E0E4E4
:100A7300CEC0E0E4CDC0E0E4CCC0E075F020E626D3
:100A8300F608E633F608E633F608E633F6181818E0
:100A9300EC33FCED33FDEE33FEEF33FFC3EC97098C
:100AA300ED9709EE9709EF97191919400FFFEC9786
:100AB300FC09ED97FD09EE97FE191906D5F0BFEC79
:100AC300F709EDF709EEF709EFF7191919D0E0FC6B
:100AD300D0E0FDD0E0FED0E0FF222521C582C0E0BA
:100AE300E52234FFC583C0E0E521C3958224F810D5
:100AF300AF08858322858221800885832285822110
:100B0300D2AFCEF0A3E520F0A37808E608F0A3DE89
:100B1300FAEFF0A3E58124FAF8E608F0A3E608F07B
:100B2300A3E608F0A30808E608F0A3E608F0A31577
:100B3300811581D0E0FED0E0F8158115811581E89B
:100B4300C0E0EEC0E022121340B90003020B9BE4A5
:100B5300900501782679138002F0A3D8FCD9FA789E
:100B6300239000867A01BA00028007E493A3F60873
:100B7300DAF97A267B17900087781A79028015E4D0
:100B830093A3AD82AE838A828B83F0A3AA82AB83C5
:100B93008D828E83D8E9D9E77582837583DB7404EC
:100BA300120FE975823275832A7400120FE9C0D0DF
:100BB3002521C582C0E0E52234FFC583C0E0E521DD
:100BC300C3958224F310AF08858322858221800890
:100BD300858322858221D2AFC8F0A3E9F0A3EAF08E
:100BE300A3EBF0A37908E709F0A3D8FAECF0A3ED9F
:100BF300F0A3EEF0A3EFF0A3D0E0F0A3D0E0F0A3D6
:100C0300D0E0F0A3E520F0A3E5F0F0A32285228352
:100C1300852182E0C0E0A3E0F9A3E0FAA3E0FBA30F
:100C23007808E0F608A3DFFAE0FCA3E0FDA3E0FE0A
:100C3300A3E0FFA3E0C0E0A3E0C0E0A3E0F5D0A3FE
:100C4300E0F520A3E0A3F5F010AF088583228582A9
:100C5300218008858322858221D2AFD082D083D0A0
:100C6300E0F8D0E03275F0108E248F258582298537
:100C73008328852182852283E0CEA3E0CF85298244
:100C8300852883EBC9EAC8EDCBECCAC3E833C8E9CE
:100C930033C9EA33CAEB33CBC3EA9EF527EB9FF59F
:100CA30026B35004AB26AA27EC33CCED33CDD5F0D5
:100CB300DAAE24AF25221212B8601C1212C76017D5
:100CC30012135E70071213557001D322C0D0121392
:100CD300557006D0D0B322C32233D0D0501430E0A5
:100CE300F6C3E7960809E7960809E7960809E79621
:100CF300B32220E0D5E6970809E6970809E69708A6
:100D030009E697B322D083D082ECC0E0EDC0E0E4E3
:100D130093A3FCE493A3FDED4C600D120E2CEC2485
:100D2300FFFCED34FFFD80EFE493A3FCE493A3FD0C
:100D3300ED4C600D120EC9EC24FFFCED34FFFD8079
:100D4300EFD0E0FDD0E0FCE493A3C0E0E493C0E087
:100D5300221212B8601B1212C7601612135E7007BC
:100D6300121355600CB322C0D01213557005D0D0A6
:100D730022C32233D0D0501330E0EBC3E7960809E7
:100D8300E7960809E7960809E7962220E0E4E69744
:100D93000809E6970809E6970809E697228522835A
:100DA300852182E0A3FEE0A3F5207808E0A3F608FE
:100DB300DFFAE0A3FFE0A3C0E0E0A3C0E0E0A3C04C
:100DC300E0E0A3C0E0E0A3C0E010AF088582218586
:100DD30083228008858221858322D2AFD083D0826B
:100DE300020FEFD083D082E9C0E0E493A3C386F07F
:100DF300C5F095F0F908E493A386F0C5F095F0707B
:100E03000BE493A3C3994005E9048002A3E475F0BE
:100E130002A42582F582E5F03583F583D0E0F9E479
:100E230093A3C0E0E493C0E022C0E0C3E493960838
:100E33007401939618400FE4936670080874019345
:100E4300661870007019A3A3C3E493960874019302
:100E53009618A3A3400DD0E0D0E0D0E0020D44A348
:100E6300A3A3A3A3A3D0E02274048004740280008C
:100E7300CCC0E0EDC0E0E521C39CCCAD2250011D08
:100E830010AF068C218D2280068C218D22D2AF12C9
:100E93000F6BD0E0FDD0E0FC2274028000CCC0E0F8
:100EA300EDC0E0E521C39CCCAD2250011D10AF067F
:100EB3008C218D2280068C218D22D2AF120F49D036
:100EC300E0FDD0E0FC22C0E0C0F088F0E49366705F
:100ED300080874019366187000A8F0A3A3700BD0E0
:100EE300F0D0E0D0E0D0E0020D44A3A3D0F0D0E0F6
:100EF30022C0E074F2120BB1A2AFE433FED2AFE52D
:100F03008BA2E0500579041215AA758B00C2E8750F
:100F13002300EEA2E092AF7F01020C10D083D082B7
:100F2300CCC0E0E493A36006120FAB1470FAE49311
:100F3300A360061210D81470FAD0E0FCE493A3C0A7
:100F4300E0E493C0E022CAC0E0E493A3C582CCC529
:100F530082C583CDC583F0A3C582CCC582C583CDAD
:100F6300C583DAE5D0E0CA22CAC0E0E0A3C582CCDB
:100F7300C582C583CDC583F0A3C582CCC582C58395
:100F8300CDC583DAE6D0E0CA22C008C3E096F508EF
:100F930008A3E096420808A3E096420808A3E09657
:100FA30045087001D3D00822C0E0E493A3D39C503A
:100FB30010E493A3C39C400AD0E0D0E0D0E0020F3A
:100FC3003CA3A3A3D0E022700908080822601618E6
:100FD3001818C6C333C608C633C608C633C608C600
:100FE30033C6D5E0EA22C09FF59FE473D09F22D099
:100FF30083D082C09FE493C0E0740193C0E0740285
:1010030093F59F22C0E0C0D0E8C0E0A8A8D2AFC249
:10101300C7752300E8A2E792AFD0E0F8D0D0D0E0C4
:10102300327404800A74038006740280027401C05F
:10103300E0F40412103FD0E0121303222521F582BD
:1010430010AF08F521400C15228008F52140021548
:1010530022D2AF8522832200C0D0252110AF08F50C
:1010630021500C05228008F52150020522D2AFD071
:10107300D022BB0102E722C082C08389828A83BB5C
:101083000003E08002E493D083D082226016080834
:1010930008C6C313C618C613C618C613C618C61384
:1010A300C6D5E0EA222521F8E43522F9222521FAE2
:1010B300E43522FB222521FCE43522FD22C3E0C6D0
:1010C30096F608A3E0C696F608A3E0C696F608A32C
:1010D300E0C696F622C0E0E493A36C7009D0E0D09A
:1010E300E0D0E0020F3CA3A3D0E022252110AF08FB
:1010F300F521400C15228008F52140021522D2AFBC
:1011030022E066701008A3E066700A08A3E0667028
:101113000408A3E06622E76670100809E766700A10
:101123000809E76670040809E76622C3E09608A386
:10113300E09608A3E09608A3E096A2D265D03322F6
:10114300C3E7960809E7960809E7960809E796A210
:10115300D265D03322181818E4C396F608E496F63D
:1011630008E496F608E496F622C3E096F008A3E0B6
:1011730096F008A3E096F008A3E096F022C3E69762
:10118300F60809E697F60809E697F60809E697F6DA
:1011930022181818E60846087009E626087005E6BE
:1011A30033F4220822191919E70947097009E727B7
:1011B300097005E733F4220922C3E4939608740106
:1011C30093960874029396087403939622E627F67F
:1011D3000809E637F60809E637F60809E637F6227E
:1011E300700422600D18C6C333C608C633C6D5E0E3
:1011F300F41822E657F60809E657F60809E657F603
:101203000809E657F622E026F608A3E036F608A317
:10121300E036F608A3E036F622E026F008A3E0362F
:10122300F008A3E036F008A3E036F022E056F00819
:10123300A3E056F008A3E056F008A3E056F022E638
:1012430047F60809E647F60809E647F60809E647B8
:10125300F622E056F608A3E056F608A3E056F60891
:10126300A3E056F622600D08C6A2E713C618C613FC
:10127300C6D5E0F322C6F4C608C6F4C608C6F4C64B
:1012830008C6F4C622C3E09608A3E09608A3E09636
:1012930008A3E09622C3E7960809E7960809E796AC
:1012A3000809E7962275D00075813F7521017522E3
:1012B3000500020B49E6084608C3134608336002DB
:1012C300E633F422E7094709C3134709336002E70A
:1012D30033F422600C08C6C313C618C613C6D5E080
:1012E300F422E6F008A3E6F008A3E6F008A3E6F08C
:1012F30022E0F608A3E0F608A3E0F608A3E0F6224E
:10130300CAC0E0E6F0A308DAFAD0E0FA22E0FAA3D2
:10131300E0FBA3E0FCA3E0FD22EAF0A3EBF0A3ECE7
:10132300F0A3EDF022E0F8A3E0F9A3E0FAA3E0FBD9
:1013330022E8F0A3E9F0A3EAF0A3EBF022E5C75417
:10134300F84401F5C77901222521F582E43522F518
:101353008322E72719471947194722E62618461813
:1013630046184622C2AF75D69F02000022120FF222
:10137300CCD702120FF233DA02120FF2DFDA0212C3
:101383000FF20FDB02120FF26FDB02120FF203DC1C
:1013930002120FF2B4DC02120FF205DD02120FF299
:1013A30049DD02120FF2E3DD02120FF253DE0212E5
:1013B3000FF282DE02120FF288DF02120FF2B2DFA7
:1013C30002120FF206E002120FF2DAE002120FF23B
:1013D30008E302120FF2B6E302120FF223E602123F
:1013E3000FF2A8E602120FF2ABE902120FF2DFEBE3
:1013F30002120FF21BEC02120FF274ED02120FF243
:1014030087ED02120FF2C4ED02120FF260EF021227
:101413000FF214F102120FF2AFE004120FF2E3E045
:1014230004120FF231E104120FF203E204120FF27D
:10143300268E04120FF2A28E04120FF2D58E04121E
:101443000FF2038F04120FF2418F04120FF27E91F9
:1014530004120FF29D9104120FF2E29104120FF2A3
:10146300789204120FF2C49204120FF258930412EA
:101473000FF2319404120FF28D9404120FF2EB94D5
:1014830004120FF25E9504120FF2A29504120FF2EA
:10149300FA9504120FF21C9604120FF2AC96041282
:1014A3000FF23D9704120FF2899704120FF2B597CA
:1014B30004120FF2F69704120FF28C9904120FF232
:1014C300789A04120FF2539B04120FF2EAD8041213
:1014D3000FF22DD904120FF248D904120FF26DD96D
:1014E30004120FF209DA04120FF224DA04120FF2D3
:1014F30009DB04120FF233DB04120FF236F204128B
:101503000FF258F204120FF26DDD04120FF2BCDD7C
:1015130004120FF20CDE04120FF247DE04120FF274
:101523004DDE04120FF27ADE04120FF292DE041281
:101533000FF21CDF04120FF279DF04120FF25EE0E8
:1015430004120FF293EC04120FF2A4EC04120FF244
:1015530042ED04120FF24DED04120FF267ED041287
:101563000FF2F47F00120FF2D87F00120FF276ED24
:1015730004120FF286ED04120FF298ED04120FF22B
:101583004AEE04120FF2A0E904120FF224EA041245
:101593000FF28CEA04120FF2A5EB04120FF2F2EB36
:1015A30004120FF2FBEB04120FF222EC04120FF2FF
:1015B3006AEC04120FF281EC04120FF2EB7F0012BB
:1015C3000FF2EE7F00120FF2F87F00120FF2E0FD30
:1015D30002120FF218FE02120FF266FF02120FF24E
:1015E300EAFF02120FF2D6B604120FF202B7041288
:1015F3000FF26CB904120FF2ACB904120FF2E8B98E
:1016030004120FF2FCB904120FF215BA04120FF20E
:1016130007BB04120FF2BABB04120FF2CEBB0412C3
:101623000FF241E204120FF265E204120FF27EE2BE
:1016330004120FF2BCE204120FF2ECE204120FF2F6
:1016430019E304120FF223E304120FF289E30412E5
:101653000FF28CE304120FF296E304120FF2A3E3EA
:1016630004120FF243D604120FF263D604120FF2E0
:10167300A2D604120FF2C0D604120FF2DBD6041264
:101683000FF241D704120FF24DD704120FF2AAD76B
:1016930004120FF2B9D704120FF2DDD704120FF2BE
:1016A3009ED804120FF2ABD804120FF2BCD8041266
:1016B3000FF245F004120FF28DF004120FF2B9F09D
:1016C30004120FF224BC04120FF27EBD04120FF2B7
:1016D3008CBD04120FF29FBD04120FF2B4BD0412AD
:1016E3000FF2C9BD04120FF2DCBD04120FF258BE93
:1016F30004120FF2BDBE04120FF245BF04120FF223
:10170300BDBF04120FF296C004120FF2A6C004125A
:101713000FF2B5C004120FF2ACEF04120FF2D0EFC8
:1017230004120FF2F8EF04120FF220F004120FF27A
:10173300837D00120FF2AA7D00120FF2C87D001202
:101743000FF2377E00120FF270D304120FF289D317
:1017530004120FF295D304120FF2A9D304120FF25D
:10176300C7D304120FF2D1D304120FF2DBD3041246
:101773000FF2EED304120FF274D404120FF2E9D471
:1017830004120FF218D504120FF266D504120FF2E9
:10179300B5D504120FF2D0D504120FF2DAD5041224
:1017A3000FF2EBD504120FF22ED604120FF239F119
:1017B30004120FF284F104120FF262A604120FF264
:1017C3008EA604120FF2ABA604120FF2BEA60412E9
:1017D3000FF2D9A604120FF233A704120FF261A776
:1017E30004120FF271AB04120FF2CFAC04120FF21A
:1017F30001AD04120FF264AD04120FF2D0AE041265
:101803000FF2F8AE04120FF20DAF04120FF21DAF78
:1018130004120FF25DAF04120FF29FAF04120FF226
:10182300AFAF04120FF254E604120FF26EE6041285
:101833000FF296E604120FF2AFE604120FF2D3E6AC
:1018430004120FF2F1E604120FF208E704120FF28A
:1018530036E704120FF251E704120FF250EE0412AE
:101863000FF294EE04120FF2D0C904120FF2E0C982
:1018730004120FF2E5CA04120FF217CB04120FF28F
:1018830047CB04120FF26ACB04120FF281CB04127E
:101893000FF2BBCB04120FF220CC04120FF262CC76
:1018A30004120FF2A9CC04120FF2D6CC04120FF2D9
:1018B30001CD04120FF2ADE304120FF2BFE30412E1
:1018C3000FF2D3E404120FF2D6E404120FF29AE8F3
:1018D30004120FF2D0E804120FF2E8E804120FF238
:1018E3002AE904120FF23AE904120FF27EE9041214
:1018F3000FF288E904120FF2DFAF04120FF222B0E5
:1019030004120FF287B004120FF2A6B004120FF202
:1019130048B104120FF251B104120FF2A2B1041232
:101923000FF2CBB104120FF2D8B104120FF24AB284
:1019330004120FF2D8B204120FF21DB304120FF205
:1019430056B304120FF2BBB304120FF2E4B3041242
:101953000FF25BB404120FF2AAB404120FF2E7B44D
:1019630004120FF21CB504120FF22EB504120FF27B
:1019730040B504120FF25FB504120FF268B50412FA
:101983000FF229B604120FF26CB604120FF2AAB6C4
:1019930004120FF290F104120FF203E504120FF296
:1019A30043E604120FF27CFD03120FF2B2FD0312A1
:1019B3000FF2FAFD03120FF253FF03120FF275DE5B
:1019C30003120FF29BDF03120FF2D7DF03120FF2A2
:1019D30095E103120FF2C3E103120FF22DE4031298
:1019E3000FF26DE403120FF20FE603120FF2A5E6F6
:1019F30003120FF2FFE603120FF28FE703120FF247
:101A0300D3E703120FF215E803120FF27AE9031278
:101A13000FF2FAEA03120FF23BED03120FF269ED34
:101A230003120FF295ED03120FF29EED03120FF264
:101A3300FBED03120FF294EE03120FF2ABF103125C
:101A43000FF231F203120FF202EF04120FF21AEF48
:101A530004120FF224EF04120FF27AEF04120FF2C2
:101A630060C504120FF276C504120FF217C60412F2
:101A73000FF256C604120FF273C604120FF2A4C675
:101A830004120FF2F1C604120FF225C704120FF26B
:101A930060C704120FF25DC904120FF2C3C9041226
:101AA3000FF2A5EA04120FF204EB04120FF242EB59
:101AB30004120FF283EB04120FF284E704120FF205
:101AC30042E804120FF2008002120FF20C8002129D
:101AD3000FF26E8002120FF2788002120FF207816A
:101AE30002120FF2438102120FF23C8202120FF232
:101AF300998202120FF2278302120FF278830212E5
:101B03000FF2F88302120FF2BA8502120FF2BF87A7
:101B130002120FF2B98802120FF2EB8902120FF2CE
:101B23003D8C02120FF2808D02120FF2258E0212EB
:101B33000FF2D39202120FF2C99302120FF25F94C3
:101B430002120FF2849402120FF2219502120FF285
:101B53003E9502120FF25E9502120FF2CC9502121D
:101B63000FF2E99502120FF2179602120FF2AF97D6
:101B730002120FF2D09702120FF2769802120FF2AE
:101B8300BE9802120FF21C9902120FF2BF990212B1
:101B93000FF2249A02120FF2839A02120FF2359B6C
:101BA30002120FF2A49B02120FF2DF9B02120FF23A
:101BB300539C02120FF29E9D02120FF22E9F0212ED
:101BC3000FF2CD9F02120FF20DA202120FF26FA2BB
:101BD30002120FF29DA202120FF2C0A402120FF220
:101BE3006AA702120FF27DA802120FF200800412FC
:101BF3000FF2088304120FF26A8404120FF277843F
:101C030004120FF2978404120FF2AA8504120FF242
:101C1300DD8704120FF2878804120FF2A68A0412DA
:101C23000FF27F8B04120FF2548C04120FF27A8D91
:101C330004120FF2088E04120FF2E5F104120FF2F0
:101C43007CFC01120FF23BFD01120FF2A1FD011208
:101C53000FF250FE01120FF244C903120FF273C9BF
:101C630003120FF2EBC903120FF2FACA03120FF2B7
:101C730056CB03120FF2C3CC03120FF2DFCC0312C5
:101C83000FF231CD03120FF274CD03120FF287CD91
:101C930003120FF2DFCD03120FF2A1CE03120FF2E4
:101CA3001DCF03120FF254CF03120FF28CCF031286
:101CB3000FF21ED103120FF2FDD103120FF24BD319
:101CC30003120FF22ED403120FF2BAD403120FF23F
:101CD300FAD403120FF219D503120FF264D50312CB
:101CE3000FF284D503120FF21DD603120FF2A3D6FF
:101CF30003120FF2FED603120FF23ED703120FF2B6
:101D0300D4D903120FF2EDDA03120FF233DB03120D
:101D13000FF228DC03120FF250DC03120FF253DC34
:101D230003120FF25DDC03120FF279DC03120FF2E0
:101D3300F3DC03120FF22CDD03120FF258DD031252
:101D43000FF27FDD03120FF2A3DD03120FF214DE95
:101D530003120FF227DE03120FF256DE03120FF205
:101D6300BCF004120FF2C8F004120FF2FCF00412DC
:101D73000FF2F17F00120FF215B303120FF238B313
:101D830003120FF285B403120FF2CEB403120FF253
:101D93003AB503120FF298B503120FF29BB5031273
:101DA3000FF2ECB503120FF261B603120FF2E6B6AF
:101DB30003120FF2E9B603120FF26AB703120FF21E
:101DC300ABB703120FF297BB03120FF241BD03121D
:101DD3000FF291BD03120FF218C103120FF24BC29F
:101DE30003120FF2C5C303120FF2A0A204120FF2E3
:101DF3004DC503120FF2A2C703120FF213EC011227
:101E03000FF2BDEC01120FF228ED01120FF243EDB8
:101E130001120FF2C8ED01120FF222EE01120FF2BE
:101E230069EE01120FF2D0EE01120FF24FF0011220
:101E33000FF27EF101120FF206F201120FF20FF40C
:101E430001120FF2BCF401120FF260F501120FF24E
:101E530031F601120FF2ECF701120FF284F90112BD
:101E63000FF217FA01120FF23DFB01120FF283D4A6
:101E730002120FF2638003120FF2AB8003120FF210
:101E8300EF8003120FF24A8103120FF2A7810312AC
:101E93000FF2E28103120FF2648203120FF2BE8289
:101EA30003120FF23C8403120FF2BC8403120FF2ED
:101EB300178503120FF2318503120FF252850312B5
:101EC3000FF2AC8503120FF2288803120FF2478832
:101ED30003120FF2378903120FF26A8A03120FF209
:101EE300E98A03120FF2258B03120FF2948B03126C
:101EF3000FF2498C03120FF2218E03120FF2288F77
:101F030003120FF2A09003120FF2969203120FF234
:101F13000C9503120FF2E69603120FF2A797031222
:101F23000FF21F9803120FF2369803120FF22D9936
:101F330003120FF2219A03120FF2909A03120FF277
:101F43007ED004120FF2D5D104120FF294D20412F0
:101F53000FF2FCD204120FF259CD04120FF274CD1A
:101F630004120FF2B8CD04120FF2DECD04120FF2F9
:101F730005CE04120FF21DCE04120FF2BFCE0412CF
:101F83000FF2D4CE04120FF2F7CF04120FF200D0E7
:101F930004120FF209D004120FF212D004120FF23E
:101FA3001CD004120FF2E6C004120FF2F2C40412A2
:101FB3000FF2F7C404120FF2F9C404120FF2FADBA2
:101FC30004120FF2C2FF01120FF29EAC02120FF2C3
:101FD300D1AC02120FF23DAD02120FF2D8AD0212D4
:101FE3000FF275AE02120FF2BAAE02120FF2DCAEAE
:101FF30002120FF2F5AE02120FF21BAF02120FF232
:102003003DAF02120FF27BAF02120FF2BFAF02120B
:102013000FF2E1AF02120FF243B002120FF20AB154
:1020230002120FF2C1B102120FF233B202120FF217
:10203300FEB202120FF251B302120FF2B7B3021241
:102043000FF2F1B302120FF243B402120FF2B1B462
:1020530002120FF21CB502120FF21FB502120FF299
:10206300A0B502120FF237B602120FF2B7B6021280
:102073000FF2D6B602120FF23AB802120FF247B8B5
:1020830002120FF253B902120FF260B902120FF2E9
:1020930069B902120FF241BB02120FF25BBC0212CA
:1020A3000FF2D4BC02120FF246BD02120FF268BD4A
:1020B30002120FF2FCBD02120FF2D0BF02120FF296
:1020C300A7C302120FF2BBC302120FF2CBC3021259
:1020D3000FF2D5C302120FF2DEC302120FF2E7C3EF
:1020E30002120FF2F1C302120FF21EC402120FF218
:1020F30047C402120FF252C402120FF276C4021244
:102103000FF29AC402120FF204C502120FF24AC56B
:1021130002120FF267C502120FF2E4C502120FF2A8
:102123001BC602120FF25AC602120FF2A7C6021200
:102133000FF22DC702120FF2FBC802120FF27EC973
:1021430002120FF262CA02120FF2C9CC02120FF28C
:1021530022CD02120FF26CCD02120FF2C7CE021281
:102163000FF2FCCE02120FF24ECF02120FF203D087
:1021730002120FF2B2D002120FF2EFD002120FF2DC
:1021830084D102120FF2F0D102120FF2C630001204
:102193000FF2F83000120FF2263100120FF2FC3268
:1021A30000120FF2DC3300120FF2343400120FF27C
:1021B3006F3500120FF2BB3500120FF2E438001234
:1021C3000FF2D73B00120FF2273D00120FF2BD3D75
:1021D30000120FF2C93D00120FF2FB3D00120FF285
:1021E3007E3F00120FF22F4100120FF2C341001283
:1021F3000FF2064200120FF2844200120FF2A142C4
:1022030000120FF2D14200120FF2064300120FF236
:10221300D64300120FF27F4400120FF2054700125B
:102223000FF2254800120FF2104900120FF29249E3
:1022330000120FF2C64D00120FF2034E00120FF2FE
:102243005B4E00120FF28E4E00120FF2F84E001288
:102253000FF22E4F00120FF2B94F00120FF211506E
:1022630000120FF2E85000120FF2A15100120FF208
:102273003C5200120FF2445500120FF26056001246
:102283000FF2035A00120FF2F75A00120FF2FA5A22
:1022930000120FF2295B00120FF22F5D00120FF2F2
:1022A300085E00120FF24B5E00120FF2A15F0012E4
:1022B3000FF2E05F00120FF2696000120FF29D60EF
:1022C30000120FF2626100120FF27A6300120FF232
:1022D300EB6300120FF22B6400120FF2B9640012C9
:1022E3000FF2DB6500120FF29D6600120FF2A46875
:1022F30000120FF2BC6800120FF2D06800120FF246
:10230300086900120FF2366900120FF2B56A001263
:102313000FF2DA6B00120FF2376C00120FF2E96C56
:1023230000120FF2106D00120FF2D76D00120FF2B0
:102333006F6E00120FF2957000120FF2CA70001246
:102343000FF22D7100120FF25C7200120FF2047380
:1023530000120FF2357300120FF24D7300120FF2D9
:10236300DC7300120FF2907600120FF268780012FD
:102373000FF2847800120FF2A07800120FF26E7938
:1023830000120FF2617D00120FF2318201120FF27F
:10239300638201120FF2528601120FF29E8601121E
:1023A3000FF2E48601120FF2868701120FF2E28721
:1023B30001120FF2278801120FF26E8901120FF238
:1023C300828A01120FF2718E01120FF2F58E011241
:1023D3000FF2029001120FF25E9001120FF24E9271
:1023E30001120FF2C39201120FF2CD9201120FF2FA
:1023F300DA9201120FF2059301120FF2EC9301121C
:102403000FF2969401120FF2149501120FF2349504
:1024130001120FF25D9501120FF27F9501120FF277
:10242300DF9701120FF2A59801120FF2EA98011239
:102433000FF2679901120FF2189A01120FF24A9ADA
:1024430001120FF2909A01120FF2CC9A01120FF2BD
:102453001C9B01120FF2709B01120FF2C69B01121B
:102463000FF2129C01120FF27F9C01120FF2FA9CE1
:1024730001120FF2C59E01120FF2C59F01120FF256
:10248300EAA001120FF229A401120FF23CA70112D4
:102493000FF2F9A701120FF23DA801120FF2EDA9F5
:1024A30001120FF201AA01120FF20BAA01120FF28D
:1024B30015AA01120FF221AA01120FF23DAA01126D
:1024C3000FF2E8AA01120FF227AB01120FF231ABA0
:1024D30001120FF23BAB01120FF2ABAB01120FF281
:1024E300F6AB01120FF20BAD01120FF267AD011241
:1024F3000FF2E8AD01120FF2A7AE01120FF2B0AF67
:1025030001120FF2E4B001120FF2D2B101120FF275
:10251300EAB101120FF245B201120FF263B20112D6
:102523000FF2ABB201120FF2D2B201120FF26DB37E
:1025330001120FF233B401120FF2C5B401120FF2FC
:102543003FB501120FF259B601120FF206B701128D
:102553000FF22EB801120FF27EB801120FF2E2B899
:1025630001120FF244B901120FF272B901120FF204
:1025730096B901120FF2CBB901120FF2FCB9011295
:102583000FF22FBA01120FF24FBA01120FF2B7BABC
:1025930001120FF2ABBB01120FF206BC01120FF2D4
:1025A3002FBC01120FF2B7BC01120FF23ABD011298
:1025B3000FF265BD01120FF24ABE01120FF2CBF208
:1025C30002120FF203F302120FF224F302120FF2BC
:1025D30066F302120FF2C8F302120FF2D2F30212E1
:1025E3000FF2E2F302120FF21DF402120FF2FDF7E3
:1025F30002120FF2EAF902120FF2D0FB02120FF2EB
:1026030067FC02120FF209FD02120FF24CC0011215
:102613000FF2CAC001120FF226C101120FF271C1EB
:1026230001120FF28CC101120FF2B7C101120FF2A6
:10263300D4C101120FF2E0C101120FF277C30112EC
:102643000FF290C301120FF215C401120FF228C446
:1026530001120FF247C401120FF2EBC401120FF281
:102663006CC601120FF21FC801120FF2B5C8011296
:102673000FF2B8C801120FF228C901120FF246C9AE
:1026830001120FF2DDC901120FF225CA01120FF276
:1026930028CA01120FF2EECA01120FF25BCB01122C
:1026A3000FF281CB01120FF20CCC01120FF22ACCE4
:1026B30001120FF270CC01120FF224CD01120FF2AE
:1026C3006ECD01120FF29DCD01120FF2FACD011260
:1026D3000FF22FCE01120FF25BCE01120FF269CE71
:1026E30001120FF2B6CE01120FF226CF01120FF232
:1026F3006FCF01120FF2BBCF01120FF2E7CF01121E
:102703000FF2F2CF01120FF210D001120FF2FBD031
:1027130001120FF205D101120FF240D101120FF293
:1027230050D101120FF259D101120FF2ADD10112A2
:102733000FF2C1D101120FF2F0D201120FF207D33F
:1027430001120FF21CD301120FF2AAD301120FF2DE
:10275300EFD301120FF27BD401120FF286D40112D0
:102763000FF2C8D501120FF2E3D501120FF22FD6E3
:1027730001120FF29ED601120FF2D7D601120FF2F9
:10278300F1D601120FF233D701120FF203DA01125D
:102793000FF2B0DA01120FF21DDB01120FF25DDD51
:1027A30001120FF275DD01120FF278DD01120FF243
:1027B30084DD01120FF298DD01120FF2A0DD011288
:1027C3000FF2D3DD01120FF2D5DE01120FF25CDF3F
:1027D30001120FF2CCDF01120FF24EE001120FF2E1
:1027E3000FE101120FF22EE101120FF2CFE10112FC
:1027F3000FF22CE201120FF22FE201120FF25CE250
:1028030001120FF271E201120FF2E5E201120FF26F
:1028130034E401120FF23AE501120FF2C5E5011299
:102823000FF2E0E601120FF2A8E701120FF2D9E767
:1028330001120FF2FCE701120FF205E801120FF289
:1028430034E801120FF2C4E801120FF27AE901121F
:102853000FF2EFE901120FF296EA01120FF20BEBFE
:1028630001120FF242EB01120FF280EB01120FF291
:10287300B6EB01120FF239A204120FF225A20412D1
:102883000FF282A104120FF282A004120FF29B9F97
:1028930004120FF28B9D04120FF2999C04120FF293
:1028A300379C04120FF201B303120FF2F7B20312B3
:1028B3000FF28CB203120FF2D7D302120FF245D3E9
:1028C30002120FF2C0B003120FF27EB003120FF226
:1028D300FFD202120FF2CAD202120FF282AF031218
:1028E3000FF256AF03120FF20DAF03120FF24EAEFB
:1028F30003120FF23AAB03120FF2FBA803120FF20B
:10290300C8A803120FF26FA803120FF202A8031252
:102913000FF2C1A703120FF2FAA603120FF294A645
:1029230003120FF233A603120FF2D3A503120FF211
:10293300AAA403120FF23EA403120FF296A30312EA
:102943000FF291A303120FF285A303120FF2B89FA4
:1029530003120FF2929F03120FF297D202120FF299
:1029630082D202120FF257D202120FF21CA60412E5
:102973000FF2E8A504120FF291A504120FF2FFA3C0
:1029830004120FF2309F03120FF2D19E03120FF2C3
:10299300929E03120FF27F9E03120FF251A30412B1
:1029A3000FF2749E03120FF2439E03120FF2309C38
:1029B30003120FF2A39B03120FF2B4A204120FF23D
:1029C3005F9B03120FF2008003120FF2339B03127B
:1029D3000FF216FD03120FF2E9FC03120FF2B6FC1D
:1029E30003120FF28EFC03120FF22FFC03120FF2ED
:1029F3000FFC03120FF2DAFB03120FF286F8031235
:102A03000FF26EF603120FF258F403120FF2D8F31B
:102A130003120FF284F303120FF238F303120FF2CF
:102A2300AAA204120FF290F203120FF262C403007F
:102A3300000080FBE4738F0001000418870001008D
:102A4300021835000400CB1725000200CF1726001B
:102A53000200D11727000200D31728000100DD1759
:102A630029000100DE17840004001615860001000A
:102A730034172A000100DF172B000100E0172C0098
:102A83000100E4172D00080022152E000100E517B0
:102A93002F000100E61730000100E71731000100A5
:102AA300E817320001002A15330001002B1534000A
:102AB3000100E917360001002C1538000100EA1760
:102AC30039000100E31783000200001863000100CE
:102AD300381564000100E11765000100E2176D007D
:102AE30001003915710008001A1566000100FF176F
:102AF30043000100F01744000200F11745000100F4
:102B0300F31746000200F417470008003015480089
:102B13000100F6174B000100F7170400010003182A
:102B2300A100010007183700010006188800010002
:102B330005183C0001002D153D000100EB1749006D
:102B43000200F817670001003A154D000200FA175A
:102B53004E000100FC174F000200FD173E0001006C
:102B6300EF17510001002E1552000100ED1753001D
:102B73000100EE17540001002F15000000000000B3
:102B830000013636010100010201000103010001C9
:102B93000401060605020000070100340801000FC6
:102BA300090401010D0100FF0E08000017020000D7
:102BB300190100FF1A0100011B0100FE1C0100089E
:102BC3001D0200001F01000120010001210200007D
:102BD3002301000F24020000260100012701000841
:102BE300280200FF2A0100072B0102402C010000EC
:102BF3002D0100012E0100012F0100FF30010B1DEB
:102C0300310800003A0100083B01000F3C010001BC
:102C13003D0100FF3E0400004204000046040000A2
:102C23004A0400004E040000520400005604000051
:102C33005A0400000000000020012F820000010060
:102C4300200130820000020020012B8200000300DB
:102C530020012C82000004004201F98000000500DD
:102C63004201EC80000006004201DF8000000B00FF
:102C73004201CC800000070030012D82000000409B
:102C830042013B810000FDFF21012782000010006B
:102C93004223F11300001100302302140300FDFF4F
:102CA3002101278203000000212303140A000600E8
:102CB30023018617020400002905051402041004E9
:102CC30029238A170204200520237D170204040503
:102CD30010237C17010371030103010301030103A3
:102CE3000103220302030103100300030003000393
:102CF300000300030003000342030003240306034D
:102D03000003000304031203250323032503230302
:102D1300040304030003000300034403000300034C
:102D23002303000365032100350381030003050327
:102D330000030003000300032503230303027102BE
:102D430030016002110270020102020202028002DB
:102D5300100261023A0041006302730272026202CE
:102D630043020002130238000002000204021202AE
:102D730000020002000200020402040237003700CE
:102D83003C02440200023900000200026502000214
:102D93003502810200020502820283020002010160
:102DA3007101010101011101010131010101010160
:102DB3008001100161013B00140063017301720182
:102DC300620143010001130106013D0135000401C5
:102DD300120100010001000100010401040133019B
:102DE30033013C0144013201360000010001650159
:102DF3000001350081010001050182018301000109
:102E030003007100300160001100700031022003E3
:102E13005004800010006100000014006300730080
:102E2300720062004300000013000600000000006F
:102E33000400120000000000000000000400040071
:102E4300370037003C02440000000000000000008F
:102E530065000000350081000000050000008300CC
:102E6300000036000100060000000F000000000013
:102E7300000000000000000003FFFF00000403FF48
:102E8300FF0000FFFF0FF4010005C404032000014D
:102E930000000B000000000000000003010F000011
:102EA300000000000000000000000000000000001F
:102EB300000000000000000000000000000000000F
:102EC300AA1BD41BB01BE41AB61BDA1BB61BE61BEA
:102ED300BC1BE41AB61BDA1BC21BE41A0000000079
:102EE300C81BE41A0000000000000000CE1BE41A17
:102EF30000000000000000000000000000000000CF
:102F030000000000000000000000000000000000BE
:102F1300000000000000000000000000010020008D
:102F230020053C1701003E001B05C10501002100DF
:102F330020053D1701000102212374170100160229
:102F430010238E1701003300202373170100310073
:102F5300302372170100360228239017080400005B
:102F6300210509140804020521237E17080403051B
:102F7300212380170000261E0100261E02009C1D2F
:102F83000280961D0300A21D0400A81D0480AE1D2F
:102F93000500B41D0600C01D3100D21D3300D81D2D
:102FA3003400DE1DFFFF00000300030004000800DF
:102FB30010001F003E007B00F600EC01D703AF07B3
:102FC3005D0FB91E713D000007ECFDFDFDECDCDC7F
:102FD300CCBCACAC9C9C8C7C7C6C6C5C5C5C4C4CCE
:102FE3003C3C2C2C1C1C03EAF5E5D5D5C5B5A595B1
:102FF300958585757565655555454535352525157E
:1030030015050A022402CC2305D82307D2230CB4C6
:10301300230DC023FF000000160F00000B150B0249
:103023000002220F3300000E0F5A696742656541A3
:103033006C6C69616E63653039D0D1D2D3D4D5D687
:10304300D7D8D9DADBDCDDDEDF30301618192023E0
:103053001A1C1E3000034D4C4651181A2505020058
:1030630001191618161618230300303017181921E2
:10307300301B1D1F30003C40423A3F3F392F473041
:103083000C0E020B040B0A0708000F0204020101D5
:1030930001010902000400002105071400BE040A0F
:1030A300E803000003000100E803240004091E14E0
:1030B3000B0103101E030A0C040F0828020C050859
:1030C3001505FFC082C08312143090156374A4F0F9
:1030D300A37421F090156574AAF0A37421F09015E0
:1030E3006774B0F0A37421F090156974B6F0A374FB
:1030F30021F0025E0174F7120ADD901557E4F0E93E
:10310300901556F07C307D157A587B15121AB490C1
:1031130017F6E0901560F0901561741AF0A374151A
:1031230002408E74F0120ADDEAFEEBFF5480700356
:103133000232979015561241237003023290EA240B
:103143001B12598E707CEA241F12598E641370026D
:10315300A3E0706E8A828B831232E5901571124F51
:1031630020750A00750B00800D123F641270001267
:1031730019B8AA0EAB0FEA4B60488A828B83E065CD
:103183000C7004A3E0650D702C8A828B83A3A3A328
:10319300A3E0F50EA3E0F50FE50A450B8A828B83C6
:1031A300A3A3A3A360C3124266850A82850B83A3EC
:1031B300A3A3A380B78A0A8B0B8A828B83124F1C2B
:1031C30080B4E508242A12598EFCE5082402F8E4A9
:1031D3003509F9E8FAE9FB9015711233CCA3A3E0A2
:1031E3006402703C8A828B83124F20800B88828911
:1031F30083A3A3A3A3124266E849601F888289833D
:10320300E06A7003A3E06B70E488828983A3A3E080
:103213006C70DA9017FC125CBE806BECF91221E043
:10322300850882850983E06401704FE5082418123C
:1032330032CE1210301265A8120E6BE5082412125A
:1032430032CE121030E50812411712102CE5082473
:103253000B1265AC120E6FE50824171240B4E50893
:103263002402FCE43509FDE5082419FAE43509FBD9
:10327300122A08740A12105A800CE064027007AA1A
:1032830008AB091222BEAA08AB0912191CEEFAEF09
:103293006480802DEA5402600C90180B7401F0EAEC
:1032A3006402FA8023EA5408601A1221DAEA4B70A6
:1032B3000B9015731264837A081232DBEE6408FAFA
:1032C300EFFB80047A007B00026C32F582E435095F
:1032D300F583E0F50A780A22FB901556E0F9121AF5
:1032E3008422A3A3E0F50CA3E0F50D227B00901547
:1032F30056E0F9121A7874042274F4120ADD8A086B
:103303008B098A828B83A3A3A3124D181240BF3863
:10331300F583E02409FA126BCA70030233BF8A8271
:103323008B837402124D8D8508828509831233CCF9
:10333300E8F0A3E91268448A828B83A3A3A3A3A31F
:10334300A3A3A3F0E5082403F8E435091233C1125B
:1033530040BF3AF583E08E828B83A3A3A3A3F0EE51
:103363002409FAE43FFB8E828F83A3A3125F70F5D7
:10337300838882E0A2E58E828F83A3A3A3A3A350B5
:103383000474018001E4F0E5082403F582898312C3
:103393004F20EA1254A13BF583126B9112102812AD
:1033A30040BE3B1260628E828F83A3A3127D4012C4
:1033B300105AEEFAEFFB901556126C178016F98827
:1033C30082F583E0FAA3E0CA221250BDA3A32274BC
:1033D3000212105A7F04020DA074F2120ADD8A0849
:1033E3008B09ECFAEDFB740E12134BE0FC1214661E
:1033F3008A0C8B0DAE0CAF0DEA4F6030AC08AD09F3
:10340300121454E96026AC08AD09EEFAEFFB12146E
:103413005AE970148E828F83124253FAEFFB12140F
:103423004EAA08AB0912147E7900800279B40250C7
:103433000C74F0120ADD74F61210EEEAFEEBFF8C48
:10344300088D09750FB3852182852283E4F0750EFB
:10345300008002050E9030C4E493F8E50EC3984053
:103463000302355BAA0E7B001214A28A0A8B0BEAB5
:103473004B60E08A828B83A3A312356228F0F8C3E2
:10348300EE98EF940050CC7C157D007900AA08AB30
:1034930009121904850A82850B83A3A3A3A31270BF
:1034A3003DE0F8EEC3982925E0F8E433F9E50A286E
:1034B300F582E50B39F583A3A3A3A3A3A31240C904
:1034C300A3125AE58A0C8B0DAC0CAD0DAA08AB09FF
:1034D300121AB4850A82850B83A3E06401700A1271
:1034E30065A874011240DB804474011210B8850A88
:1034F30082850B83124F1E12148AE9603D740912F0
:10350300134BE0C0E01265A8D0E0F0740912134B2E
:10351300E06403701374011210B8E508240BFAE495
:103523003509FB121AB48012740112134B1242664E
:10353300E508125ACB3509126FFE850A82850B8383
:103543001265B41240DBA3A3E0C0E0E50824141223
:1035530065ACD0E0F0750F00A90F740A026C2FA3BD
:10356300A3A3E0F8852182852283E02274F7120A5F
:10357300DDE9FE8A828B83A3A3A3A3A3A3E054085C
:1035830060338A828B83A3A3A3A3A3A3E054026023
:10359300218A828B83A3A3A3A3A3A3A3A3A3E064EE
:1035A30006600F74E96E600A74CD6E600574F06E88
:1035B30070031221C202490B74F0120ADD74EF1278
:1035C30010EE740F12134B126367740812134BE956
:1035D300F0ECFEEDFF740512134B1246D31248F7BD
:1035E300A3E0F9121472740612134B126367740684
:1035F30012134B1255327003023876124103E0FA6C
:10360300740612134BE0F91221021238D6F8A3E024
:10361300F9E8497003023876EE2403F50AE43FF52E
:103623000BEE2406F508E43FF5097C00850882F5D6
:1036330083124F20850A82850B83E0F91214787474
:103643000312134B126367850A82850B83E0C0E084
:103653008521828522831238CFD0E0125647F9851F
:103663002182852283123F6B125199123565FAA389
:10367300E0CA2407F582E43AF583E8F0A3E4126391
:10368300722406F582E438F583E412700A124D0CB5
:10369300121028EE1240BF3F126062740312134BE4
:1036A300124D182409127D3A12105A742912134B21
:1036B3001270371233C612565A3A126FFE742B1217
:1036C300134BE0C0E08521828522831254F9D0E0B8
:1036D300F0740212134BE4F0742512134B780812A2
:1036E30012F40237CD740312134B12602A8882F549
:1036F300831238BEA3A3A3125AF0FB121490850EB3
:1037030082850F83A3EAF0A3EBF0740312134B1229
:1037130038CFA31238BE125CFFA2E6500F850E828B
:10372300850F83A3A3A3A3A3E0D2E1F0740512132F
:103733004BE0706B850E82850F83A3124266901552
:10374300B1E0687003A3E0697055850E82850F832D
:10375300A3A3A312409E750C00780C1210307808B6
:10376300121024742912134BE0F50C780C1210304C
:10377300742712134B120E6F9015BE120E6F790041
:10378300741912134B124EF0122306740A12105AB4
:10379300850E82850F83A3A3A3A3A3E04405F0743E
:1037A3000212134BE004FC8E828F83124F1A8E8217
:1037B3008F83A3A3A3E0F9121478740312134B129B
:1037C3006367740212134BE004F0740312134B1279
:1037D30055326067740212134BE0FA740612134BEE
:1037E300124266C3EA98E4995051740212134B12C1
:1037F3003BA8852182852283E028F8A3E039F9E8F4
:10380300240FF50EE439F50F850E82F583E4F07489
:103813000312134B1238C9640160030236E87405BE
:1038230012134B7401126C1DF0740312134B125DCF
:10383300F1123BCBE8F0A3E902370C852182852204
:1038430083124F20122108852182852283120E6F55
:10385300742612134BE0FD742512134BE0FC740A1B
:1038630012134BE0F9EEFAEFFB1221BC74021210B3
:103873005A80438E828F83A3A3A3E0C0E0740C120B
:10388300134BD0E0F0126A86E0C0E0740D12134BC4
:10389300D0E0F0740612134B1255327009740E12F5
:1038A300134B74B98007740E12134B7410F0740920
:1038B3001210B01223007411026C2FE0850E828562
:1038C3000F83A3A3A322E012561FE022E012561F88
:1038D300A3A322852182852283EAF0A3EB12553B21
:1038E3002274F0120ADD74E11210EE740412134B09
:1038F300E9F0740312134BECF0740212134BEDF066
:103903008A0E8B0F742F12134B1232E7AA0CFB1281
:1039130020F6740112134BE9F0AA0CAB0D1220FC34
:10392300740112134BE07003023BA38521828522AD
:1039330083E480158E828F83A3A3A3A3A3E0D2E3A2
:10394300F0852182852283E004126B75F88521823C
:10395300852283E0C3984003023B9A740112134B00
:10396300E07003023B9A852182852283123BA8E5FE
:103973000C28F8E50D39F9E8240FFEE439FF8E82AF
:10398300F583A3A3A3A3A3E0A2E040B57508007544
:103993000A08750B00740212134BE06003750820CC
:1039A3007C087D00790074051210B01219048E8210
:1039B3008F83E0603E901601E06401701AE508D23F
:1039C300E3F508750B10123BB812134BE8F0A3E9AB
:1039D3001259E374FF807643080C750A0C8E828FAC
:1039E30083A3123BC3127000740512134B74FFF0D0
:1039F300A3805A740412134BE06009E508D2E6F57C
:103A030008750A0A8E828F83A3E064FE7003A3E025
:103A1300F47030741212134B74041265D2F8741DCF
:103A230012134BE8124D8D74121210B01220247D24
:103A3300007C007900741512134BAA82AB83121E0B
:103A43000E800B123BB812134BE8F0A3E9F0740796
:103A530012134BE508F01240FAC0E0740912134B3D
:103A6300D0E0F0740A12134B7401F074051210B015
:103A73001222C4741112134BE06003023B78740DDD
:103A830012134B1256428E828F83A3A3A3A3F07407
:103A93000D12134B124D5BE50AF0A3E50BF0740313
:103AA30012134BE0C0E0124CECD0E0125CFF60114B
:103AB300901601E0C0E0740D12134B124D36D0E0A6
:103AC300F0740D12134B124266850C82850D83A38D
:103AD300A3A3A3A3123BB1241C12636112701A1295
:103AE3003BB3125CB139126AA5C0E0124CD3D0E0EB
:103AF300126B6AC0E0740D12134B124819D0E01216
:103B0300686BC0E0740D12134B12480FD0E0F074D1
:103B13000D12134B123BC3123BB1242A126361856E
:103B23000E82850F83A3A3A3A3A3A3A3A3E012637E
:103B33005A1240E9C0E01247FBD0E0F0740D1213B3
:103B43004B124F20850E82850F83126B802428F53C
:103B530082E43B126FFE1240F2126B911210281294
:103B6300605BEA1262F33B127D3E12105A74051237
:103B730010B01222CA8E828F83A3A3A3A3A3E0D281
:103B8300E0F0741112134BE0600302393774011231
:103B9300134BE0140239437900AA0CAB0D1221C870
:103BA300741F026C2FE075F007A4F8A9F022A3A3F9
:103BB300124F24E8228E828F83A312426A74052255
:103BC300E0123BCBA3A3A322F8A3E0F9850E8285E1
:103BD3000F83A32274F0120ADD74E81210EEE98554
:103BE3002182852283F08A0E8B0F8A828B83A3A383
:103BF300A3A3A3A3A3A3E0F91221208A088B09EAB4
:103C03004B7003023CB4E50E1254B512411212403C
:103C1300A9852182852283E06003023CB77C048569
:103C23000E82850F83A3A3A3A3A3A3A3A3E0F912E7
:103C33002126EE4F607B8E828F83A3A3A3A3124220
:103C430066740712134B12649812426674091213B6
:103C53004B124DBDC0E0741112134BD0E0126849F2
:103C6300A3A3A3A3A3A3A3124266740F12134B121D
:103C73007000741212134BE4126C25C8241FF582D2
:103C8300E438F583126026C413135403FC70027CDA
:103C9300048E828F83E0F9780812102C742059FD6A
:103CA300744059F974031210B01221BC740212103B
:103CB3005A026C2D7C08850E82850F83A3A3A3A3D0
:103CC300A3A3A3A3E0F91221268B0BEA4B700302F3
:103CD3003C35EE4F60DB852182852283E0F50C784D
:103CE3000C121030850882850983A3A3A3A3A3A381
:103CF300A3E0F50C780C1210308A828B83A3A3A364
:103D0300E0FB8A82850B8312785D8A82850B83E0D0
:103D1300FA8E828F83A3A3E0F9122A0E7402121083
:103D23005A023C3974F7120ADD74FA1210EEE9FEF6
:103D3300780179017F00800379000F12509CE0FC29
:103D4300EFC39C5026EF75F007A4FC85F008AD087F
:103D5300EA2CFCEB3DFD12468BE0A2E050DA540C5A
:103D630060D6E0A2E250D3780080CF8A828B83A30F
:103D7300A3A3A3A3A3E0703DE9A2E0400574016EF1
:103D830070338A828B83A3A3A3A3A3A374011240DA
:103D93007BE0C0E0740312134BD0E01246EAE0C0AC
:103DA300E0740412134BD0E0F0740512134BE812C5
:103DB3005FC51223007406024908C082C0837901DB
:103DC3001221C8025E0174F4120ADDEA4B90180B4B
:103DD3006019E4F08A088B09F50AF50B78081210CC
:103DE300247A021232EF12105A800A7401F07A0216
:103DF3007B001232DC0233D774F0120ADD74F31243
:103E030010EE740312134BE4F0A3F09015711240FB
:103E1300A9740112134BE4F0A3124D9204F0901510
:103E2300ABE0A2E35003023EEE12406F740912139B
:103E33004B121334740912134B78081212F49015B1
:103E43007378081210C0740512134B78081212E528
:103E5300123F72740512134B780812128850077AB6
:103E6300017B00023F5F740512134B780C1212F4AE
:103E73009017FBE0F509780C7908120A6EA80CA9D3
:103E83000D9017FCE0C398E4995003E08001E885A6
:103E93002182852283F0740912134B78081212F4DD
:103EA300C008C009C00AC00B740512134B780C126A
:103EB30012F4123F72780C7908120A6EE4F50AF5CF
:103EC3000BD00FD00ED00DD00C780C7908121180C6
:103ED300901573780C1212E58011123F6412700072
:103EE300EEFAEFFB1219B8AE08AF09EE4F60658E1C
:103EF300828F83123562C398502DEE2403F8E43F7A
:103F0300F9E0FA88828983E0C39AF060237403128C
:103F1300134B1243CC740112134BEEF0A3EF126454
:103F2300B3FEA3E0FF80C48E828F83A3A3A3E4F038
:103F33008E828F83127CF7740112134B1255328ECB
:103F4300828F83A3A3A3A3609112648C12134B12D9
:103F53003F6B8089740312134B124F20740D026C54
:103F63002F12426A90157122126051A3A3A32290CB
:103F730017FA127CFFE4F50AF50B2274F0120ADD3E
:103F83008A088B09890A780079009015711240A973
:103F9300FBEE4B601E088E828F83A3A3A3A3124E56
:103FA300EA601008E87001098E828F831240A5EA47
:103FB3004F70E39017FD124F20C3E89AE99B40032B
:103FC3000240627A06124065A80CA90DEA49700303
:103FD3000240628A828B83E508F0A3E509124084DC
:103FE300E50AF09017FC1250A412407BA3E4F0A35F
:103FF300F0901571124EEA600D8E828F83A3A3A3F6
:10400300A312700080179015711270009015ABE029
:10401300A2E3400912406F9015731213349015AB4D
:10402300E0A2E3503A7A087B00901556E0F9121AA1
:104033008AEA4B4C4D70289017FAE0F508A3E08507
:10404300080CF50DE4F50EF50F780C1210247A0820
:104053007B00901556E0F9121A7E740412105A026E
:104063006C327B001219B28A0C8B0D22121A9CEA55
:10407300F8EBF9ECFAEDFB2212407F22124084A305
:1040830022F08A828B83A3A322E508F002490BF076
:104093008E828F83A3A3A3A3A3A32212599CA3A3BA
:1040A300F022A3A3A3A3E0FEA3E0FF227F05020D5A
:1040B300A0F582E43509F583E0F922EA1240C32230
:1040C3002410F582E4221240D1A3A3A3A322124217
:1040D3006E850882850983221240DF22F0850A82D9
:1040E300850B83A3A322E50E241112410FE022E5E1
:1040F3000E240E12410F22E50E241012410FE0226E
:1041030012410722EE1240C33FF58322F582E435C4
:104113000FF58322240FF50AE43509F50B780A22FB
:10412300E0F912192E8A088B09EA4B2274F2120A5B
:10413300DD890B8A088B098A828B83124F20122117
:10414300ECEA4B600479B8806A1221F8E9F8903000
:10415300B6E493F9E8C399400479B280567A15120C
:104163004065AE0CAF0DEA4F7004791080458A822A
:104173008B83E4F0A3124084E50BF0750A00780802
:104183001210287C127D00EA2403126B3C12105A91
:104193009015771255327008901577800C1242668D
:1041A300888289831241B970F4EEF0A3EFF01222F2
:1041B3000A790002500C124F24EA4B888289832229
:1041C300C082C08390157780048C828D8312785EC1
:1041D300EC4D60288C828D83A3A3E069600574FF96
:1041E3006970E68C828D83A3A3A3E06A7003A3E0C6
:1041F3006B70D6EC2403FAE43DFB80047A007B0069
:10420300025E0174F7120ADDE9FD74FE6D70047C31
:104213000180027C0090157780096D70027C018813
:10422300828983125532601F88828983A3A3A3E006
:104233006A7003A3E06B70E7ECA2E088828983A332
:10424300A3E050D6F9800279FE02490BEEF9800C07
:10425300A3A3127CFFEE22740212105A7F02020DF6
:10426300A0F58312426A2212426E22E0F8A3E0F91B
:104273002212426E8E828F832212105A7F03020D06
:10428300A0C082C0837900901577800109E0FAA36A
:10429300E08A82F583E582458370F1025E0174F65C
:1042A300120ADDE4F508F509780812102C9030B6EF
:1042B300E49375F013A4A9F01243C112705E1210B7
:1042C3005AE9FE74096E700312220402424F74F617
:1042D300120ADD74FE1210EE852182852283E4F03A
:1042E300A3F0A821A92288088909780812102C753F
:1042F3000802750900780812102C126CCF12105A9C
:1043030002425A74F5120ADD74EB1210EE85218213
:10431300852283E4F0A3F090157780748E828F83D7
:10432300A3A3E0C0E0740212134BD0E01259E3A937
:1043330082AA8389088A09750A0078081210287CE2
:10434300127D00740612134B12702312105A74025A
:104353001210A888088909780812102C750813759B
:104363000900780812102C740412134B1254D575DB
:10437300F013A4F8AAF075F013E91243BD126CD739
:1043830012105A8521828522831243CC8E828F8319
:104393001240A9EE4F7085A821A9228808890978BF
:1043A3000812102C750802750900780812102C12D7
:1043B3006CCF12105A741502427CA42AF9E8240225
:1043C300FCE439FD7A427B0022E02401F0A3E034CF
:1043D30000F02274F4120ADD74EB1210EE7E007FFB
:1043E30000A821A92288088909780812102C7508C9
:1043F300028E09780812102C7C007D007A4212701C
:104403006A12105AE9706C8E08805674021210A852
:10441300880A890B780A12102C750A13750B007819
:104423000A12102CE50875F013A4F8AAF075F0131E
:10443300E5091243BD12706C12105AE9701B740324
:1044430012134BAA82AB83740212134BE0F91221AD
:10445300E6E970050EEE70010F0508E50870020528
:1044630009852182852283124266C3E50898E509FE
:10447300994098EEFAEFFB74150233D474F6120ADE
:10448300DD8C828D83A3A31246D8F0EA1262F93B36
:10449300F583E0C0E0124695D0E0F0EA241DF582F2
:1044A300E43B1242641246791246D3F0A3F0EA24A5
:1044B3001FF582E43BF5831240A9EC12466C3DF5EF
:1044C30083EEF0A3EFF01246723BF5831246A3A3EB
:1044D300A3A3A3A3A3EEF0A3EF125F54FE8C828DDC
:1044E300831246E274035EFEC39403400302465FF5
:1044F300EE600874026E60030245848C828D83E053
:10450300540CFE740C6E70030245C3E0A2E4400D2C
:1045130088828983E08C828D83A31246F874086EA7
:1045230060030245C31246837401F08A828B83A31E
:10453300A3A3A3A31259A970148C828D83E0440C06
:104543001246EAA3A31246A3EEF0A3EFF08C828DEA
:1045530083E0A2E4402B88821246B11246C6500182
:1045630009F5821246B1A3A3A3A3A3A3F0A3EF1259
:1045730046F28C828D83A3A3A3F0E82403F85001B1
:104583000988828983E0C0E0EC2411F582E43DF5DB
:1045930083D0E01246E28C828D83E0A2E7507588D7
:1045A300828983E0FE8C828D831246F874FC5E70F0
:1045B3000C8C828D83A3E054036403701E02465F58
:1045C300124683E4F0740C6E600302452E88821257
:1045D30046B71246C65001090245508C828D83A30B
:1045E300E05403603288828983E0C0E0EC12469D88
:1045F3003DF583D0E01246F98C828D83E054036449
:1046030002701488828983E0C0E012468BD0E012E6
:1046130046F98003A3E4F0EC1254A13D126FFEECC3
:104623002410FEE43DFFEA241DF582E43BF583E01C
:10463300F5088E828F83E0C3982508F508F0EA24F5
:1046430017F8E43BF98882F583E0C39508C0E012CC
:104653004679D0E0125F54C39508500A124679E4B4
:10466300F0124695E4F002425F2415F582E422EA53
:10467300240DF582E422EC240DF582E43DF583223A
:10468300EC12565A3DF58322EC2414F582E43DF5F1
:104693008322EC1240C33DF583222413F582E422E6
:1046A300E0FEA3E0FF8C828D83A3A3A3A322124683
:1046B300B7A3A3228983E0F508A3E0FFE5088C8272
:1046C3008D8322A3A3A3A3F0A3EFF0E82402F8228F
:1046D3001246D8A322E4F08C828D83A3A3A32212D3
:1046E3004700A882A9832212407FA3A3A3A3221277
:1046F3004700A3E022A312470008A98322125F5DAB
:10470300A32274F4120ADD74F31210EE8A0A8B0BDF
:10471300ECFEEDFF8C82F583E0540CF508E0A2E794
:104723005006E508D2E7F508E508D2E1F508125985
:10473300A97006E508D2E4F508E0A2E55006E5080D
:10474300D2E5F5087C087D007900AA21AB22121975
:1047530004740212134BE508127004C0E0740312D0
:10476300134BD0E0124D92E50AF0A3E50BF074056C
:1047730012134B12687012134BE070777408121304
:104783004B124D18125F463812688BC0E074081242
:10479300134B124819D0E012686BC0E0740812136F
:1047A3004B12480FD0E0F0740812134B124805E087
:1047B300124D40124DC112635AEE2411125975C0A5
:1047C300E01247FBD0E0F0EE2414125975C0E074F8
:1047D3000812134B124D182435F582E438F583D0B3
:1047E300E0124D65C0E0740812134B124D1CD0E06B
:1047F3001265C4740D0233D4E82432F582E439F52A
:104803008322124274A3A3A3A3A3A322124D2C12A7
:104813006A6A38F58322124D2C2426F582E438F592
:10482300832274F7120ADD7E008A828B83A3A3A3FB
:10483300A3A3A3A3A3A3E0640460030248E712565F
:1048430052E060030248E71254B43B125530700340
:104853000248E788828983E0540360030248E7E85B
:1048630012565A39F583E0FA8C828D83A3A3E0FBB9
:10487300A3E0CB2411F582E43BF583E06A706588FD
:10488300828983A3A3A3A3A3A3A3A3A31248EBE0B7
:104893006A7003A3E06B704C88828983A3A31248D8
:1048A300F7E0FFA3E0CF24061259756A7003A3E073
:1048B3006B703188828983A3A3E0F88C828D83A3F4
:1048C300A3E0F9A3E0F5838982A3A3E06860138CD6
:1048D300828D83A3A3A3E0F5838982E0540C64044F
:1048E30070027E01EEF980201248EF22124F288CCD
:1048F300828D8322A3A31248EFA3A322740C121365
:104903004BE0F9740D12105A7F01020DA074F612D8
:104913000ADD74FC1210EEEAFEEBFFECFAEDFB8C01
:1049230082F583A3E05403601690156D125532602F
:10493300597900EEFCEFFD126151122A37804B8545
:104943002182852283EEF0A3EFF0740212134B123F
:104953004D87AC21AD227A227B2212244A8A088B0E
:1049630009A808A909EA4960218A828B83A3A3A322
:10497300A3A3A3A3A3A37406F07A0088828B831254
:104983004D1812631AE0F91223A8740402425C74EE
:10499300F2120ADD74F31210EEEAFEEBFF8A82F5DF
:1049A30083A3A3A3A3A3A3A3A3A3A3E0F50A90189C
:1049B3000BE0700579BA024CD075080175090075D2
:1049C3000C00750D007C087D007900AA21AB221232
:1049D3001904740512134B7401124D9A5404601296
:1049E300740212134BE0D2E6124D9A540870037509
:1049F3000803E05410600674404508F508E05408C5
:104A03006022740212134BE044C0124D9A5420608A
:104A13000A740312134BE0D2E08008740312134BA1
:104A2300E0D2E1F0EE2415125975124D00700374B3
:104A33000169700674084508F5088E828F83A3A365
:104A4300A3A3A3A3A3A3E070161224A485218285A4
:104A53002283126367740212134BE0D2E280306444
:104A63000F7010740212134B124DA274044508F513
:104A730008807F8E828F83A3A3A3A3A3A3A3A3E012
:104A830064028E828F83700A127037E8F0A3E9F014
:104A93008060A3A3A3A3A3A3A3A3E06403700DACAB
:104AA30021AD22EEFAEFFB12225880468E828F83CD
:104AB300A3A3A3A3A3A3A3A3E0640170359016014A
:104AC300E06010740212134B124DA2750910750A9F
:104AD300FF8018740212134BE0440C124D9274FDC4
:104AE300F0A374FFF074044508F5088E828F8312D7
:104AF30032E7EE2415125975A2E0503F74021213E7
:104B03004BE0540C701B8E828F83124F20121EDADF
:104B1300E9700579BB024CD0740212134BE0D2E565
:104B2300F0EE2415125975A2E05010740212134BC3
:104B3300E0540C64047004E0D2E5F0EE2411125941
:104B430075C0E0740412134BD0E012687212134B59
:104B5300E06003024CC9740812134B124D5BE50865
:104B6300F0A3E509F0124CF6E0C0E0124CECD0E003
:104B7300F0124CDDE0C0E0740812134B124D181212
:104B8300469D38F583D0E0124DC164017011901633
:104B930001E0C0E0740812134B124D36D0E0F074FC
:104BA3000812134B124D56124CE7FAE8241CF582F7
:104BB300E439F583EA124D8DEE2415FAE43FFB8ABE
:104BC30082F58312785EE8125CB139F583124D8762
:104BD300EE241C125975C0E0124CD3D0E0125DF7DD
:104BE300124D0070037401697013740812134B1291
:104BF3005642FAEE241D125975F912212C8E828F1A
:104C030083A3A3A3A3A3A3A3A3A3E0C0E074081255
:104C1300134B124819D0E0F0740812134B12480FCB
:104C2300E50AF0740812134B1254D52428F582E4D4
:104C330039F583E50CF0A3E50D124D6D124D4012CD
:104C430059EE12635AEE124CE7C0E0E82433F582C2
:104C5300E439F583D0E0F0EE241B125975C0E074FB
:104C63000812134B124D1CD0E0F0EE241A125975A2
:104C7300C0E0740812134B124D182432F582E43845
:104C8300F583D0E0124D65124D0C121028126A7094
:104C930012785E740B12134B124D18242F127D3AA7
:104CA30012105AEE24151259755440601290158D46
:104CB300125532600AAA21AB22126151122A37AA75
:104CC30021AB221222CA740C12134BE0F9025007D3
:104CD300E82420F582E439F58322EE2419F582E4F1
:104CE3003FF58322126A7FE022E82412F582E43939
:104CF300F58322EE2418F582E43FF583225480F8ED
:104D0300A3E05401F974806822F508A3E0F509755E
:104D13000A00780822124D2C22124D2C2434F582DD
:104D2300E438F58322A3A3A3A3124D3022E0F8A312
:104D3300E0C822124D2C12466C38F58322FAA3E008
:104D4300FBE8242AF582E439F583EAF0A3EB22A3F6
:104D5300A3A3A312426AEE221254D91254B939F50D
:104D63008322F0EE24131259F622F0EE240D125989
:104D7300F622E0FC8A828B83E02CFCA3E03400FD66
:104D83008A828B83ECF0A3EDF022F0A3E4F022F00F
:104D930085218285228322F0EE24151259F622E022
:104DA300D2E3F0124DAA228E828F8312426E8521A6
:104DB30082852283E8F0A3E9F022E8F0A3E91264F4
:104DC300ADE02274F7120ADD8A828B83A3E06401CB
:104DD30070047E6380027E648A828B83E06008793C
:104DE30005124DFA24F3FE9015A9E06007F9124D60
:104DF300FA24F2FE0248E7122372E9F8EEC398227E
:104E030074F6120ADD74FE1210EE85218285228368
:104E1300126367E9FEECFAEDFB9005C612553260AA
:104E230032A821A92288088909780812102C7D014B
:104E3300740E12134BE0FCEEF99005C612633B129D
:104E43002A37740212105AEA4B60047900800679FB
:104E5300B2800279B602425A74F7120ADDE9FE9073
:104E63001563125532601F740912134BE0F508786D
:104E730008121030EEF990156312633B122A37744F
:104E83000112105A800279B602490B74F7120ADD37
:104E93008908ECFEEDFF79B5E508245E6020146017
:104EA3000624F86034803D9005C8124EEA6035123E
:104EB300707B122A378E828F83126367802490154A
:104EC3006512785EEC4D601CEEFCEFFD90156512EB
:104ED300633B122A37E9F9800B901561124EF012E9
:104EE3001AB4790002490B124F24EA4B221278625A
:104EF300EEFAEFFB2274F7120ADDE9FE79B574AB23
:104F03006E700B901561124F20121AB4790002498A
:104F13000B8E828F83A3A3A3A3A3A3A3A3124F24C4
:104F230022124F2822E0FAA3E0FB2274F1120ADDD9
:104F3300EAFEEBFF8C0A8D0B7508019015B1E06E4C
:104F43007003A3E06F700C124FFBAA0AAB0B121A8B
:104F5300B4805E1224AAEE6A7002EF6B7009AA0A8B
:104F6300AB0B1224B0804AAC0AAD0BEEFAEFFB1286
:104F73002000E9F508901802E07036122942E97022
:104F830030E508702C901581E06E7003A3E06F701C
:104F930020EE4F601C750C79750D15750E00780C9D
:104FA3001210287C087D00AA0AAB0B12702712107E
:104FB3005AA90802795A74F2120ADDEAFEEBFF8C51
:104FC300088D09750A01124FFBEEFAEFFB121AAEB8
:104FD300E9640170119015B1124266850882850952
:104FE30083127000800EAC08AD09EEFAEFFB1220BD
:104FF30006E9F50AA90A801112249E8A0C8B0DACCE
:105003000CAD0D22740D12105A7F06020DA074F61A
:10501300120ADDEAFEEBFF7A0D7B001219B2EA4BAE
:105023006062EE2424126D04F0EE2425126D04A3B5
:105033001250C9126D0AA3A3126A9D1250A4F0EE76
:1050430012508A1250B9E8F0A3E91250E01250B19D
:10505300127000EE125093126B60A3A3A3A3F0EEA1
:105063002433125975C0E012509CD0E012688F129D
:1050730050B1A3A3A3E8F0A3E91250D8C0E012569D
:1050830052D0E0F002425F242AF582E43FF5832206
:10509300242EF582E43FF58322EA125ACB3BF583B3
:1050A300221250A822E08A828B83A3A3A322126B2D
:1050B300BFA3A3A3A3221250BD2212426E8A828BE6
:1050C30083A3A3A3A322F01250CE22EE2426F582BB
:1050D300E43FF58322F0EE24321259F622F0EE2457
:1050E3002C1259F62274F4120ADD74FE1210EEEC3F
:1050F300FEEDFFEC241612597564057010EC2406BE
:10510300FCE43FFD122252E97003025194AC21AD3D
:1051130022126DB9121EE085218285228312553237
:10512300606B8E828F83E064017058E875F009A488
:10513300F8AAF075F009E9A42AF974DA28F87402D8
:1051430039F9E8FAE9FB8882F58378081212F4EE5C
:105153001252361212884027852182852283124DEE
:105163005612598312519978081212F49081537888
:10517300081212098A828B8378081212E5800A7951
:10518300A28010EE240F126FFA7900800679A180B5
:105193000279C80233D2124DB7EE126A8B2274F22F
:1051A300120ADD8A0C8B0DECFEEDFFEC125983E441
:1051B300F0A3F090818378081212F4EC12523612A5
:1051C30011046067EC240E12597C703478B3901587
:1051D300A8E070289015DAE064017020EC24111225
:1051E3005975F912235A8B09A909EE1254B53F12C6
:1051F3006365EA4960047800800278A18808802EFC
:10520300E060046402700A122264E9F50870078002
:105213001DE064037010EEFCEFFDAA0CAB0D121F32
:1052230004E9F50880087508A180037508A3A90897
:1052330002500C126A8B78082274F0120ADD74F59E
:105243001210EEEAFEEBFFEA240AFCE43F8C82F53F
:1052530083127CFB1254BF74031210B88A828B83AF
:1052630012615BE9700302532574011210B87403D1
:105273001210B0121EE0740112134B125532700358
:10528300025325E875F009A4F8AAF075F009E9A41A
:105293002AF974D628FC740239FDE508240E126538
:1052A300ACE4F00412134B124266E5081254B53510
:1052B30009126FFE8C828D83121328E508241212C3
:1052C30065AC12133490815378081212F48C828DDA
:1052D30083780812121C8C828D83780C1212F4903E
:1052E300821F78081212F4780C7908120A6EE50806
:1052F3004509450A450B702A740112134B1254D504
:1053030075F009A4F8AAF075F009E9A42AF974DE86
:1053130028F582740239F5837401F07A007B081250
:1053230054E28E828F83A3A3A3A3A3A3A3A3A3A3C4
:10533300E02406FCA3E03400FD8E828F8312615BC0
:1053430012687D603EEE240A1254A7124D5B746806
:10535300124D8DE81254A139F5837402F090159320
:105363001213288C828D83126354125F463CF5839B
:1053730012133490815378081212F490159378081D
:1053830012121C12551D705D9015611254CDA3A30A
:10539300A3A3A3A3A3A3A3A3125F7C121AAEE970D2
:1053A30010125F3A901561125F4C700512687D60B0
:1053B300348E828F83A3A3A3A3A3A3A3A3A3A31224
:1053C30054CD124F20121F0AE960118E828F83A3DE
:1053D300A3A3A3A3A3125509E4F0A3F08E828F83A2
:1053E3001254EFE4F012551D600302549C8E828F19
:1053F30083A3A3A3A3A3A3127CF79015A8E0600340
:105403000254919015DAE064016003025491750A25
:105413003A750B00780A12102C74021210A8880A2D
:10542300890B780A12102C1272F612105AE9705B6B
:10543300E508240E1265AC7401125537C0E0E50887
:1054430024111265ACD0E0F0E508240F1265AC74AA
:105453003A124D8D90158F121328E5082412126508
:10546300AC12133490815378081212F490158F788C
:105473000812121C90815378081212F490158F7839
:105483000812110470081254DE80031254BF12551F
:105493001D7006125E3D74A1F0740B026C2F240E76
:1054A300F582E422F8E43FF9E8FCE9FD8882F5831C
:1054B30022EA1254B922240FF582E422E508125499
:1054C300B93509F583E4F0A3F0221278628E828F56
:1054D30083221254D92212426EE8227A007B029070
:1054E3001439E0F9121958228A828B83A3A3A3A348
:1054F300A3A3A3A3A3A31254FD22124D30240EF59C
:1055030082E438F58322A3A3A3A312551122124DDB
:1055130030240FF582E438F583228E828F83A3A390
:10552300A3A3A3A3124D28240FF582E438F5831215
:1055330054D9492212553B22F0852182852283E0EA
:105543002274F6120ADDEAFEEBFF7A237B001219BE
:10555300B2EE240AF508E43FF50985088212636573
:105563007C237D0079001219048508828509831242
:1055730055327003025605EEFAEFFB1222701255F4
:105583001D60748E828F8312563864018E828F83DE
:10559300A3A3A3A3A3A3700712562E740E802112F4
:1055A3005532701012687D700B8E828F83A3A3E037
:1055B300A2E05007125624740D8005125624740578
:1055C30012688F54036401700712560C7405800B24
:1055D3009015A9E0C0E012560CD0E0125647F583AF
:1055E30088821259A2850882850983124D18126296
:1055F300F938F583E9800E8508828509831263DE15
:105603008003126321F002425F8E828F83A3A3A3E0
:10561300A3A3A3A3A3A3A312561E22E0126340A332
:10562300228E828F83A3A3A3A3A3A3124D28126266
:10563300FF38F58322A3A3A3A3A3A3A3A3A3A31226
:1056430054FDE02212564B22126DCEF8A3E022EA5B
:1056530012565A3BF58322240CF582E42274F1128C
:105663000ADD74E41210EE8A0C8B0D8C088D097A16
:10567300237B001219B28A0A8B0BAE0AAF0BEA4FD7
:10568300700302595D126305E508241512598E68EB
:105693007003A3E0698E828F8370047402800274A6
:1056A30001F0E508240DF8E43509F98882F583E073
:1056B300FAC3E49AFA95E0FB12598A2AFAA3E03B6B
:1056C300FB8E828F83A3A3A3A3125F638E828F8338
:1056D300A3A3F0EE2420F582E43FF583E4F0EE2467
:1056E30021F582E43FF583E4F0EEFAEFFB12232485
:1056F3008508828509831259A970098E828F83A335
:10570300740580069015A9125997F0EE2417F50A2F
:10571300E43FF50B8E828F831259A2E9850A8285B5
:105723000B83F0EE2416F8E43FF9E508240EFAE4BF
:105733003509FB88828983124D75E5082410FAE444
:105743003509FB850A82850B83E0FC88828983E027
:10575300F88A828B83E0C398C39CF81259E3F0EE76
:10576300FCEFFDAA0CAB0D12226AE9F50B8E828FBA
:1057730083E064027006125F3A125967E50B600317
:10578300025954750C00750D00901802E064016015
:1057930005E06402703F1259796008EE2421125922
:1057A3007C70328E828F83A3A3A31263271259AF17
:1057B300EE24161259751259D8FAE439FB124067D0
:1057C300EA4B6011126B891210281259BDAA0C12F0
:1057D300702712105AEEFAEFFB122330E9F50B9003
:1057E3001802E064016008E064026003025947E9BB
:1057F3007003025947E50C450D70030259548003A9
:10580300850E0B125979600BEE242112597C60032B
:1058130002594D850B0E850C08850D09750A007814
:10582300081210281259BD8E828F83A3A3A3A3123B
:105833007D4012105AEE2420125975600D125982C0
:105843007468124D8DEE24208015EE2421125975B3
:1058530060151259827403F0A37401F0EE2421F54C
:1058630082E43FF583E4F0EEFAEFFB122330E9F52F
:105873000B70907C137D00790074091210B012191B
:1058830004741A12134B74011259EE64687002A364
:10589300E0704F8E828F83125509E0640560030226
:1058A30058037C0879FF8E828F83A3A3A3A3E024EC
:1058B3002A125F7F12198EE970030258037C087D58
:1058C3000079FF74011210B012190474011210B898
:1058D3007A007B0079AB12224C741912134B74FCBF
:1058E3008015125982E064037004A3E06401700818
:1058F300741912134B74FFF0E4F508F509780812D4
:10590300102C74021210B8741312134BAA82AB83B7
:1059130012646412105A852182852283E0602B74FD
:10592300091210A888088909780812102C75081321
:10593300750900780812102C7C007D00126CD712B8
:10594300105A8006E50C450D6007AA0CAB0D121921
:10595300B8EEFAEFFB1219B88003750B10A90B749C
:105963001C027957EE2406FAE43FFB121AB422EE26
:10597300240C1259F622EE24201259F6640122EE69
:105983001254B93FF58322E508240EF582E4350964
:10599300F583E02212599CA322E08E828F8322A3F7
:1059A300E0F912237222E054036401221259B32254
:1059B300E0FAE82AF8E43400F9228E828F83A3A365
:1059C300A312632B1259B3EE24161259F61259D8A7
:1059D300FCE439FD22FAE82AF8E439F9E824042240
:1059E3001259E72212689EA3A3A322F01259F322AD
:1059F300EE240FF582E43FF583E0227901020FEFF5
:105A030074F4120ADDEAFEEBFF8A82F583A3A3A3F3
:105A1300A3A3A3A3A3124D182424F582E438F5838A
:105A23001259A9702E8A828B831256387025125A06
:105A3300D1E06405701D125AD1A3E0F874016860C7
:105A43000574066870071254EB740280051254EB58
:105A53007403F0EA240A1263D212633BE4F0EA24EB
:105A630008F8E43F1233C12431F582E43AF583E0C8
:105A7300C0E0127072A3A3D0E0125AF0CA242EF52C
:105A830082E43AF583E0C0E0127072A3A3A3D0E0EE
:105A9300126016C8125ACB38124264127072125A2C
:105AA300E58A0A8B0BAC0AAD0B8508828509831244
:105AB3005F7C121AB4850882850983124F20122352
:105AC300301263CDF00233D7240BF582E4228A82AD
:105AD3008B83A3A3A3A3A3A3A3A3126864F58388BF
:105AE3008222A3A3A3A3124DB712249E22125F58AE
:105AF300FAA3E0220259FEC082C083901583747614
:105B0300F0A37422F09015857482F0A37422F090B0
:105B130015877488F0A37422F0901589747CF0A320
:105B23007422F0025E0174F4120ADDEA2408FEE432
:105B33003BFF8E82F5831254D5126311E0F508748E
