:020000040000FA
:060000000212350207C1E7
:03002B00020F972A
:03003300020E8436
:030053000206F0B2
:1000830002075201010000000000F8FF07FFFF0014
:10009300000504000000030001FFFFFFFF0005103F
:1000A3002700000020FD000206FFFF1E01000104DF
:1000B300010C000203F685000000010400003E1459
:1000C300000000E8030000FFFF8F14018813000005
:1000D300E8030000C800C800B801A0BB0D00A0BB26
:1000E3000D00020202070401051E02051E020A0A90
:1000F300010108080103B80B02803E0102FEFFE87C
:10010300030A050001FFFF020A011401E0020000D7
:1001130000050301010F03000300030003000300B4
:10012300030003000300030005000A001400280075
:100133004F009E000000E52C00000000B92B0000DA
:100143000000FF000000FF001212816046121245FA
:10015300603DE9687008F618F618F618F622748000
:1001630067F712017F090909748067F722121245A4
:10017300601D1212817005191919801A1211247049
:100183001F1210E8C37003E66733191919400718E3
:1001930018182208080874FFF618F618F618F6223D
:1001A3001210E860171212E2702192F01212F4702A
:1001B30019501720F014080808090909E7F6181957
:1001C300E7F61819E7F61819E7F6221212F460E6B3
:1001D300E869701F0808E62480F608E436F6185428
:1001E3007FB47F0CE654806007F6E418F618F62215
:1001F300181822E9C6CC08C6CD08C6CE08C6CFC09B
:10020300E0E8C0E0EAC0E0EBC0E009E9F809E7FA9A
:1002130009E7FBE6F918E6F8C3EC98ED99EE9AEBDB
:10022300C2E7F5F0EFC2E795F0500E600CEBCFFBA1
:10023300EACEFAE9CDF9E8CCF8EAA2E7D2E7FAEB9D
:1002430033FB13F5F0EEA2E7D2E7FEEF33FFC5F081
:1002530013A2E730E601B313C5F0C3C0E0C0F07FDB
:1002630000C39BFB605E9418600F401D14601AD09E
:10027300E023F9D0E0F80203518AF0E9486003D2A1
:10028300F0E4AFF0FAF9F8803BEB30E40D89F0EAE3
:100293006003D2F0E4AFF0F9CAF8EB30E30D88F075
:1002A300EF6002D2F0AFF0E4CAC9F8EB5407601470
:1002B300FBC3EA13FAE913F9E813F8EF135002D278
:1002C300E0FFDBEDD0E0C0E030E739C3E49FFFF5AA
:1002D300F0EC98FC42F0ED99FD42F0EE9AFE42F00C
:1002E300D0E0F9D0E0F8E5F0607AE923F9EE20E711
:1002F30042D8028067C3EF33FFEC33FCED33FDEEEE
:1003030033FE80EAEC28FCED39FDEE3AFED0E02323
:10031300F9D0E0F84002801BC3EE13FEED13FDECB1
:1003230013FCEF135002D2E0FF08B800067F7F747E
:10033300FF802EEF3350178CF020F00260100CBCBE
:10034300000C0DBD00080EBE000408E860DFE933B1
:10035300E813FFEE2313FE4F4D4C8008E95480FF52
:10036300E4FEFDFCEE33EF33F47004FCFD7E80D03D
:10037300E0FBD0E0FAD0E0F8D0E0CFC618CEC61844
:10038300CDC618CCC6F922121245700418181822CB
:10039300121281700D74FFF61819F61819F6181950
:1003A300F622E7548066F61212F4700F1212E2700E
:1003B300F014F608F608F608F680D11212E2700C73
:1003C300F608F608768008E6447F80EC1210EB709E
:1003D3000C12112760BFE65480F6E480BB1211278C
:1003E300700519191980A5E869700C763F18768095
:1003F30018F618F6E8F922E6CDC0E018ECC0E0E6FE
:1004030033CD33CDD313F6E719FCE7191933CC33C6
:10041300C3947F400ECD9D502408E65480F6E41823
:10042300F6800FF4043D14501408E6447FF6187662
:1004330080E418F618F6D0E0FCD0E0FD22CCD3130C
:10044300CCFD18E4C6CBC0E018E4C6CAC0E0080877
:10045300ED08C633E613F618E433C675F003C3CAD2
:1004630097CA09CB97CB199C40047D08802EBD0009
:100473000302053316B6FF050606081618C3CA336A
:10048300CACB33CB33CA27CA09CB37CB193CC37D7D
:1004930008803E187D0820E75CC633C6CA33CACB42
:1004A30033CB33DDF1D5F0EB30E77BCA97CA09CB09
:1004B300974ACB199C406F4B7025E620E02180665C
:1004C300187D08C3CA97CA09CB97CB199CD3C633E7
:1004D300C6CA33CACB33CB3350C9DDE7D5F0E1D33A
:1004E300E4C636C608C636C608C636C608C636C605
:1004F3001818188031C3CA97CA09CB97CB199CB374
:100503004097C633C6CA33CACB33CB33DD34D5F0B9
:100513002EC6A2E0C640C8CA27CA09CB37194A70FB
:10052300BECB3CB480B90808E63308E633601F1835
:100533001818D0E0FAD0E0FBD0E0FCD0E0FD2218A0
:100543007D08CA27CA09CB37CB193CD3808013F661
:1005530018E4B67F11F618B6FF0EF618C60470D26B
:100563000808768080CAF618F618F680C5001212BD
:1005730045604F1212816012E7548066F61211240F
:1005830070111212E2703B090909F4F618F618F615
:1005930018F6221210E870151212F408080860EA1F
:1005A300E6447FF618768018E4F618F6221212F461
:1005B30060161212E27012E4F608F608F608E65422
:1005C30080F609090918181822EAC0E0EBC0E0EC2C
:1005D300C0E0EDC0E0E687F0A4FBACF008E687F0EE
:1005E300A42CFCE435F0FA1809E687F0A42C4B6040
:1005F300027401CA35F0FCE433FB09E687F0D2F755
:10060300A42CCB35F0FC1908E687F0A42BCC35F0ED
:10061300FBE433FD0819E687F0D2E7A42C4ACB3577
:10062300F0CD3400FC09E687F0D2E7A42DCC35F0F9
:10063300FDE433FA0918E687F0D2F7A42CCD35F0A0
:10064300CA3400FC08E687F0D2E7D2F7A42ACC35F7
:10065300F07A7E20E70B0ACB33CBCD33CDCC33CC32
:1006630033CB3350147004ED30E00ED2F1E4CD3DC2
:10067300CDCC3CCC3B5005DA05C2F1EB547FC633FD
:1006830008E63392F0FBE73309E733C39A502D2B87
:1006930070190C0D4C4D70151806E608C333700D18
:1006A30020F10AA2F013F6E418800B4024E4F6309C
:1006B300F002768018F618F618F68024D33B14500F
:1006C3001074FFA2F013F6187680E418F618F6807B
:1006D3000FA2F013F618E63303F618ECF618EDF64E
:1006E300D0E0FDD0E0FCD0E0FBD0E0FA22C0E07423
:1006F300F1120AE4A2AFE433F509D2AF85A708AF3C
:10070300A1EF5508FE74105E60061215D375A1EFB4
:1007130074085E60081215D975A1F78024EFA2E072
:1007230092F0E508A2E082F05017906198E0F8900B
:100733000633E0C398A2D265D0335002E8F075A126
:10074300FE752300E509A2E092AF7F02020BA0C071
:10075300E074F2120AE4A2AFE433FED2AF9061A4D4
:10076300E0F8759B00E59158540860087591F712FD
:1007730016278023E59158541060087591EF1216DF
:100783002D8014E591A2E092F0E8A2E082F05007F8
:10079300E0C2E0F01217839061A3E0F8E5E9585452
:1007A30004600E12175975E9FB906193E0A2E640CD
:1007B300F2752300EEA2E092AF7F01020BA0C0E02E
:1007C30074F2120AE4A2AFE433FED2AF9061A5E063
:1007D300F8E5BF585404600675BFFB12179B80D120
:1007E30012083830F04312087D803E8A088B098C4A
:1007F3000A8D0B780812083820F01430E72B74FFA9
:10080300FCFBFA747F8022E4FCFBFA7480801AB448
:100813008008BC00F2BB00EF800F50EBF9E4C39AF1
:10082300FAE49BFBE49CFCE499C6CC18C6CB18C63F
:10083300CA18C6F922E4C9C608CAC608CBC6D33348
:100843000308CCC63392F0C3947F402E941840190A
:10085300C9B90704CACBCC225025C309CA33CACBB2
:1008630033CBCC33CC33D9F422F4600DC9CCC313CE
:10087300CB13CBCA13CAD9F6CC22E4FCFBFA22145D
:10088300FCFBFA22C3E498F8E499F91208C880261D
:10089300C3E49AFAE49BFBE920E7E91208C8E49869
:1008A300F8E499F922C3E498F8E499F91208C8E442
:1008B30098F8E499F9C3E49AFAE49BFB22EB20E766
:1008C300CFE920E7E0B90010BB0008E88AF084F81C
:1008D300AAF022E4FBC8FA22EB70227B10C833C8CB
:1008E300C933C9335007C39AC3DBF280069A500158
:1008F3002ADBEAC833F4C8C933F4C9FA2275F0080D
:10090300E4C833C8C933C933C99AC99B5004C92A37
:10091300C93BD5F0ECFBC833F4C8E4C9FA22080894
:1009230008EAC0E0EBC0E086F0E7A4FA180986F015
:10093300E7A42AFA180986F0E7A42AFA180986F028
:10094300E7A42AFA1986F0E7A4FBE5F02AFA1908C6
:1009530086F0E7A42BFBE5F03AFA190886F0E7A442
:100963002BFBE5F03AFA18180986F0E7A4C5F02B3B
:10097300FBE43AFA1908E7C5F0C6A426F6E5F03B0E
:10098300FBE43AFA1886F0E7A4F6E5F00826F6E465
:100993003B08F6E43A08F6D0E0FBD0E0FA22E4CFD5
:1009A300C0E0E4CEC0E0E4CDC0E0E4CCC0E075F04C
:1009B30020E626F608E633F608E633F608E633F6CD
:1009C300181818EC33FCED33FDEE33FEEF33FFC3A1
:1009D300EC9709ED9709EE9709EF97191919400F4D
:1009E300FFEC97FC09ED97FD09EE97FE191906D563
:1009F300F0BFECF709EDF709EEF709EFF71919194D
:100A0300D0E0FCD0E0FDD0E0FED0E0FF222521C500
:100A130082C0E0E52234FFC583C0E0E521C39582AF
:100A230024F810AF088583228582218008858322DC
:100A3300858221D2AFCEF0A3E520F0A37808E608A3
:100A4300F0A3DEFAEFF0A3E58124FAF8E608F0A3B9
:100A5300E608F0A3E608F0A30808E608F0A3E60812
:100A6300F0A315811581D0E0FED0E0F81581158142
:100A73001581E8C0E0EEC0E0221212CDB9000302F6
:100A83000ACEE4900501782A79138002F0A3D8FCFA
:100A9300D9FA78239000867A01BA00028007E4939A
:100AA300A3F608DAF97A2A7B1790008778C57901CB
:100AB3008015E493A3AD82AE838A828B83F0A3AACD
:100AC30082AB838D828E83D8E9D9E77582E47583FF
:100AD300D37404120F797582417583297400120F40
:100AE30079C0D02521C582C0E0E52234FFC583C08B
:100AF300E0E521C3958224F310AF08858322858224
:100B0300218008858322858221D2AFC8F0A3E9F032
:100B1300A3EAF0A3EBF0A37908E709F0A3D8FAEC72
:100B2300F0A3EDF0A3EEF0A3EFF0A3D0E0F0A3D099
:100B3300E0F0A3D0E0F0A3E520F0A3E5F0F0A322DA
:100B4300E9799EC608CAC608CBC608CCC6C37020BE
:100B53007996CACBCC7019798ECBCC70137986CCAD
:100B6300700EF9802ACA33CACB33CBCC33CC3319BA
:100B730030E7F2CCCBCA3350147004EA30E00DE412
:100B8300CA3ACACB3BCBCC3CCC500209C3E913C60F
:100B9300CC182313C6CB18C6CA18C6F922852283DC
:100BA300852182E0C0E0A3E0F9A3E0FAA3E0FBA380
:100BB3007808E0F608A3DFFAE0FCA3E0FDA3E0FE7B
:100BC300A3E0FFA3E0C0E0A3E0C0E0A3E0F5D0A36F
:100BD300E0F520A3E0A3F5F010AF0885832285821A
:100BE300218008858322858221D2AFD082D083D011
:100BF300E0F8D0E03275F0108E248F2585822985A8
:100C03008328852182852283E0CEA3E0CF852982B4
:100C1300852883EBC9EAC8EDCBECCAC3E833C8E93E
:100C230033C9EA33CAEB33CBC3EA9EF527EB9FF50F
:100C330026B35004AB26AA27EC33CCED33CDD5F045
:100C4300DAAE24AF2522121245601C1212816017FE
:100C53001212F470071212E27001D322C0D01212E2
:100C6300E27006D0D0B322C32233D0D0501430E088
:100C7300F6C3E7960809E7960809E7960809E79691
:100C8300B32220E0D5E6970809E6970809E6970816
:100C930009E697B322D083D082ECC0E0EDC0E0E454
:100CA30093A3FCE493A3FDED4C600D120DBCEC2467
:100CB300FFFCED34FFFD80EFE493A3FCE493A3FD7D
:100CC300ED4C600D120E59EC24FFFCED34FFFD805A
:100CD300EFD0E0FDD0E0FCE493A3C0E0E493C0E0F8
:100CE30022121245601B12128160161212F4700751
:100CF3001212E2600CB322C0D01212E27005D0D0FF
:100D030022C32233D0D0501330E0EBC3E796080957
:100D1300E7960809E7960809E7962220E0E4E697B4
:100D23000809E6970809E6970809E69722852283CA
:100D3300852182E0A3FEE0A3F5207808E0A3F6086E
:100D4300DFFAE0A3FFE0A3C0E0E0A3C0E0E0A3C0BC
:100D5300E0E0A3C0E0E0A3C0E010AF0885822185F6
:100D630083228008858221858322D2AFD083D082DB
:100D7300020F7FD083D082E9C0E0E493A3C386F05F
:100D8300C5F095F0F908E493A386F0C5F095F070EB
:100D93000BE493A3C3994005E9048002A3E475F02F
:100DA30002A42582F582E5F03583F583D0E0F9E4EA
:100DB30093A3C0E0E493C0E022C0E0C3E4939608A9
:100DC3007401939618400FE49366700808740193B6
:100DD300661870007019A3A3C3E493960874019373
:100DE3009618A3A3400DD0E0D0E0D0E0020CD4A32A
:100DF300A3A3A3A3A3D0E0227404800474028000FD
:100E0300CCC0E0EDC0E0E521C39CCCAD2250011D78
:100E130010AF068C218D2280068C218D22D2AF1239
:100E23000EFBD0E0FDD0E0FC2274028000CCC0E0D9
:100E3300EDC0E0E521C39CCCAD2250011D10AF06EF
:100E43008C218D2280068C218D22D2AF120ED9D017
:100E5300E0FDD0E0FC22C0E0C0F088F0E4936670CF
:100E6300080874019366187000A8F0A3A3700BD050
:100E7300F0D0E0D0E0D0E0020CD4A3A3D0F0D0E0D7
:100E830022C0E074F2120AE4A2AFE433FED2AFE56B
:100E93008BA2E05005790412150D758B00C2E8751D
:100EA3002300EEA2E092AF7F01020BA0D083D08299
:100EB300CCC0E0E493A36006120F3B1470FAE493F2
:100EC300A360061210681470FAD0E0FCE493A3C088
:100ED300E0E493C0E022CAC0E0E493A3C582CCC59A
:100EE30082C583CDC583F0A3C582CCC582C583CD1E
:100EF300C583DAE5D0E0CA22CAC0E0E0A3C582CC4C
:100F0300C582C583CDC583F0A3C582CCC582C58305
:100F1300CDC583DAE6D0E0CA22C008C3E096F5085F
:100F230008A3E096420808A3E096420808A3E096C7
:100F330045087001D3D00822C0E0E493A3D39C50AA
:100F430010E493A3C39C400AD0E0D0E0D0E0020EAB
:100F5300CCA3A3A3D0E022700908080822601618C6
:100F63001818C6C333C608C633C608C633C608C670
:100F730033C6D5E0EA22C09FF59FE473D09F22D009
:100F830083D082C09FE493C0E0740193C0E07402F5
:100F930093F59F22C0E0C0D0E8C0E0A8A8D2AFC2BA
:100FA300C7752300E8A2E792AFD0E0F8D0D0D0E035
:100FB300327404800A74038006740280027401C0D0
:100FC300E0F404120FCFD0E0121290222521F58213
:100FD30010AF08F521400C15228008F521400215B9
:100FE30022D2AF8522832200C0D0252110AF08F57D
:100FF30021500C05228008F52150020522D2AFD0E2
:10100300D022BB0102E722C082C08389828A83BBCC
:101013000003E08002E493D083D0822260160808A4
:1010230008C6C313C618C613C618C613C618C613F4
:10103300C6D5E0EA222521F8E43522F9222521FA52
:10104300E43522FB222521FCE43522FD22C3E0C640
:1010530096F608A3E0C696F608A3E0C696F608A39C
:10106300E0C696F622C0E0E493A36C7009D0E0D00A
:10107300E0D0E0020ECCA3A3D0E022252110AF08DC
:10108300F521400C15228008F52140021522D2AF2C
:1010930022E066701008A3E066700A08A3E0667099
:1010A3000408A3E06622E76670100809E766700A81
:1010B3000809E76670040809E76622C3E09608A3F7
:1010C300E09608A3E09608A3E096A2D265D0332267
:1010D300C3E7960809E7960809E7960809E796A281
:1010E300D265D03322191919E70947097009E7278F
:1010F300097005E733F4220922C3E096F008A3E060
:1011030096F008A3E096F008A3E096F022C3E697D2
:10111300F60809E697F60809E697F60809E697F64A
:1011230022181818E60846087009E626087005E62E
:1011330033F4220822C3E493960874019396087447
:10114300029396087403939622E026F608A3E036EA
:10115300F608A3E036F608A3E036F622E627F608FB
:1011630009E637F60809E637F60809E637F6227086
:101173000422600D18C6C333C608C633C6D5E0F4CF
:101183001822E056F608A3E056F608A3E056F60840
:10119300A3E056F622E657F60809E657F60809E6ED
:1011A30057F60809E657F622E026F008A3E036F0E2
:1011B30008A3E036F008A3E036F022E056F008A3D7
:1011C300E056F008A3E056F008A3E056F022E64705
:1011D300F60809E647F60809E647F60809E647F67A
:1011E30022E4C396F608E496F608E496F608E49635
:1011F300F622600D08C6A2E713C618C613C6D5E0CB
:10120300F322C6F4C608C6F4C608C6F4C608C6F474
:10121300C622C3E09608A3E09608A3E09608A3E0DD
:101223009622C3E7960809E7960809E7960809E7AF
:10123300962275D00075813F752101752205000244
:101243000A7CE6084608C3134608336002E633F413
:1012530022600C08C6C313C618C613C6D5E0F42211
:10126300E0F608A3E0F608A3E0F608A3E0F622E61A
:10127300F008A3E6F008A3E6F008A3E6F022E709E6
:101283004709C3134709336002E733F422CAC0E0B6
:10129300E6F0A308DAFAD0E0FA22E8F0A3E9F0A333
:1012A300EAF0A3EBF022E0FAA3E0FBA3E0FCA3E067
:1012B300FD22EAF0A3EBF0A3ECF0A3EDF022E0F8BB
:1012C300A3E0F9A3E0FAA3E0FB22E5C754F8440145
:1012D300F5C77901222521F582E43522F58322E73A
:1012E3002719471947194722C2AF75D69F02000035
:1012F30022E62618461846184622120F826FCE029F
:10130300120F821BCF02120F824BCF02120F82AB3E
:10131300CF02120F823FD002120F82F0D002120FBF
:101323008241D102120F8285D102120F821FD20293
:10133300120F828FD202120F82BED202120F82C408
:10134300D302120F82EED302120F8242D402120F83
:101353008216D502120F8244D702120F82F2D702ED
:10136300120F825FDA02120F82E4DA02120F82E7AF
:10137300DD02120F8214E002120F8258E002120FF4
:1013830082B1E102120F82C4E102120F8201E20272
:10139300120F82BEE302120F82C9D504120F82FD1F
:1013A300D504120F8250D604120F8253D704120FA2
:1013B30082A0F001120F821CF101120F824FF10182
:1013C300120F827DF101120F82BBF101120F82F81D
:1013D300F301120F8217F401120F825CF401120F52
:1013E30082F2F401120F823EF501120F82D2F5014F
:1013F300120F82ABF601120F8207F701120F8265FB
:10140300F701120F82D8F701120F821CF801120F95
:101413008274F801120F8296F801120F8226F901E5
:10142300120F82B7F901120F8203FA01120F822FF2
:10143300FA01120F8270FA01120F8206FC01120FD9
:1014430082F2FC01120F82CDFD01120F82F5BA0464
:10145300120F8221BB04120F8241BB04120F826858
:10146300BB04120F82AFBC04120F82E2BC04120F42
:1014730082A1BD04120F823BBE04120F82AB7F0018
:10148300120F82B07F00120F82E37F00120F825A85
:10149300FD02120F8221FE02120F8233FE02120F8F
:1014A30082A3FE02120F82D2E004120F82E3E00451
:1014B300120F8281E104120F828CE104120F82A6C3
:1014C300E104120F82F47F00120F824AE604120F26
:1014D30082B5E104120F82C5E104120F82DAE1043E
:1014E300120F828EE204120F82CDDE04120F82519C
:1014F300DF04120F82B9DF04120F8289DB04120F9B
:101503008210DC04120F8219DC04120F8240DC0407
:10151300120F8288DC04120F829FDC04120F8203F5
:101523007C00120F82117C00120F828A7C00120F42
:1015330082637D00120F82267F00120F826B7F0071
:10154300120F82907F00120F82F87F00120F82D752
:10155300D104120F820FD204120F825DD304120F33
:1015630082E1D304120F820E9C04120F823A9C0470
:10157300120F82A49E04120F82E49E04120F822093
:101583009F04120F82349F04120F824D9F04120F87
:10159300823FA004120F82F2A004120F8206A1045C
:1015A300120F82ADD704120F82D1D704120F82EA31
:1015B300D704120F8228D804120F8258D804120FAE
:1015C3008285D804120F828FD804120F82F5D804B3
:1015D300120F82F8D804120F8202D904120F820F5D
:1015E300D904120F829DCA04120F82BDCA04120FBE
:1015F30082FCCA04120F821ACB04120F8235CB0469
:10160300120F829BCB04120F82A7CB04120F82040A
:10161300CC04120F8213CC04120F8237CC04120FA6
:1016230082F8CC04120F8205CD04120F8216CD046A
:10163300120F8289E404120F82D1E404120F82FD97
:10164300E404120F825CA104120F82B6A204120FEB
:1016530082C4A204120F82D7A204120F82ECA20446
:10166300120F8201A304120F8214A304120F82909B
:10167300A304120F82F5A304120F827DA404120F98
:1016830082F5A404120F82CEA504120F82DEA504F4
:10169300120F82EDA504120F82F0E304120F8214DD
:1016A300E404120F823CE404120F8264E404120F78
:1016B3008244CD04120F826BCD04120F8289CD04B4
:1016C300120F82F8CD04120F82CAC704120F82E3ED
:1016D300C704120F82EFC704120F8203C804120F4C
:1016E3008221C804120F822BC804120F8235C8044A
:1016F300120F8248C804120F82CEC804120F82430D
:10170300C904120F8272C904120F82C0C904120FD6
:10171300820FCA04120F822ACA04120F8234CA0427
:10172300120F8245CA04120F8288CA04120F827DE7
:10173300E504120F82C8E504120F822CF603120F80
:101743008258F603120F8275F603120F8288F6038E
:10175300120F82A3F603120F82FDF603120F822BE0
:10176300F703120F823BFB03120F8299FC03120F44
:1017730082CBFC03120F822EFD03120F829AFE030B
:10178300120F82C2FE03120F82D7FE03120F82E7EB
:10179300FE03120F8227FF03120F8269FF03120F4A
:1017A3008279FF03120F8259DA04120F8273DA046B
:1017B300120F829BDA04120F82B4DA04120F82D85A
:1017C300DA04120F82F6DA04120F820DDB04120F11
:1017D300823BDB04120F8256DB04120F8294E20475
:1017E300120F82D8E204120F826CB704120F827CAC
:1017F300B704120F8281B804120F82B3B804120F18
:1018030082E3B804120F8206B904120F821DB904D1
:10181300120F8257B904120F82BCB904120F82FE51
:10182300B904120F8245BA04120F8272BA04120F5E
:10183300829DBA04120F82A7FE01120F82B9FE0124
:10184300120F82CDFF01120F82D0FF01120F82C748
:10185300DD04120F82FDDD04120F8215DE04120F68
:101863008257DE04120F8267DE04120F82ABDE049E
:10187300120F82B5DE04120F82179504120F825ADB
:101883009504120F82BF9504120F82DE9504120F86
:1018930082809604120F82899604120F82DA9604CC
:1018A300120F82039704120F82109704120F828281
:1018B3009704120F82109804120F82559804120F86
:1018C300828E9804120F82F39804120F821C9904DB
:1018D300120F82939904120F82E29904120F821F4E
:1018E3009A04120F82549A04120F82669A04120FFA
:1018F30082789A04120F82979A04120F82A09A0494
:10190300120F82619B04120F82A49B04120F82E2C6
:101913009B04120F82D4E504120F8219D904120F0B
:101923008299CF04120F82CFCF04120F8217D004F3
:10193300120F8270D104120F8293C603120F82B961
:10194300C703120F82F5C703120F82B3C903120F25
:1019530082E1C903120F824BCC03120F828BCC039B
:10196300120F822DCE03120F82C3CE03120F821DDC
:10197300CF03120F82ADCF03120F82F1CF03120FE9
:101983008233D003120F8298D103120F8218D3032C
:10199300120F8259D503120F8287D503120F82B318
:1019A300D503120F82BCD503120F8219D603120F6F
:1019B30082B2D603120F82C9D903120F824FDA0300
:1019C300120F8246E304120F825EE304120F826851
:1019D300E304120F82BEE304120F8298AA04120FCB
:1019E30082AEAA04120F824FAB04120F828EAB0495
:1019F300120F82ABAB04120F82DCAB04120F8229ED
:101A0300AC04120F825DAC04120F8298AC04120F67
:101A13008295AE04120F82FBAE04120F82D2DF0452
:101A2300120F8231E004120F826FE004120F82B0B2
:101A3300E004120F82B1DC04120F826FDD04120F77
:101A430082B9A502120F82C5A502120F8227A60230
:101A5300120F8231A602120F82BEA602120F82FA61
:101A6300A602120F82F6A702120F8254A802120FC7
:101A730082F4A802120F8274A902120F8243AB02EE
:101A8300120F8285AD02120F82CCAE02120F8209B1
:101A9300B102120F8271B202120F821DB302120F32
:101AA300820CB802120F8202B902120F829AB90293
:101AB300120F82BFB902120F8257BA02120F827538
:101AC300BA02120F82ECBA02120F820BBB02120F80
:101AD3008238BB02120F82D0BC02120F82F1BC0209
:101AE300120F8297BD02120F82DEBD02120F8252C5
:101AF300BE02120F82E0BE02120F823DBF02120F1E
:101B030082B6BF02120F8238C102120F829CC30237
:101B1300120F8225C402120F8253C402120F824095
:101B2300B304120F82E3B304120F8214B504120F2D
:101B330082FBB504120F826DBE04120F822CBF0408
:101B4300120F8292BF04120F8241C004120F8262ED
:101B5300B103120F8291B103120F8209B203120F64
:101B63008218B303120F8274B303120F82E1B4031A
:101B7300120F82FDB403120F824FB503120F82922C
:101B8300B503120F82A5B503120F82FDB503120F21
:101B930082BFB603120F823BB703120F8272B703E1
:101BA300120F82AAB703120F823CB903120F821BD2
:101BB300BA03120F8269BB03120F824CBC03120FCC
:101BC30082D8BC03120F8218BD03120F8237BD03E4
:101BD300120F8282BD03120F82A2BD03120F823B3A
:101BE300BE03120F82C1BE03120F821CBF03120F6A
:101BF300825CBF03120F82F2C103120F820BC30375
:101C0300120F8251C303120F8246C403120F826E56
:101C1300C403120F8271C403120F827BC403120F19
:101C23008297C403120F8211C503120F824AC503A0
:101C3300120F8276C503120F829DC503120F82C154
:101C4300C503120F8232C603120F8245C603120F59
:101C53008274C603120F8200E504120F820CE5049E
:101C6300120F8240E504120F82F17F00120F8233BC
:101C73009B03120F82569B03120F82A39C03120F26
:101C830082EC9C03120F82589D03120F82B69D03B0
:101C9300120F82B99D03120F820A9E03120F827FD5
:101CA3009E03120F82049F03120F82079F03120FDA
:101CB30082889F03120F82C99F03120F82B5A30369
:101CC300120F825FA503120F82AFA503120F823694
:101CD300A903120F8269AA03120F82E3AB03120F47
:101CE3008280AC03120F826BAD03120F82C0AF036D
:101CF300120F82AEDA03120F8258DB03120F82C374
:101D0300DB03120F82DEDB03120F8263DC03120F8D
:101D130082BDDC03120F8204DD03120F826BDD032D
:101D2300120F82EADE03120F8219E003120F82A15F
:101D3300E003120F82AAE203120F825F9104120FD3
:101D430082FBE303120F82CCE403120F8287E603C4
:101D5300120F821FE803120F82B2E803120F8208E8
:101D6300CC02120F82008003120F82638003120FD2
:101D730082AB8003120F82EF8003120F824A81032A
:101D8300120F82A78103120F82E28103120F826472
:101D93008203120F82BE8203120F823C8403120F4E
:101DA30082BC8403120F82178503120F82318503CD
:101DB300120F82528503120F8270C702120F8228FC
:101DC3008803120F82478803120F82378903120F89
:101DD300826A8A03120F82E98A03120F82258B0318
:101DE300120F82948B03120F82498C03120F8221EC
:101DF3008E03120F82288F03120F82A09003120FFB
:101E030082969203120F820C9503120F82E69603B9
:101E1300120F82A79703120F821F9803120F8236A5
:101E23009803120F822D9903120F82219A03120F26
:101E330082909A03120F82D8C404120F822FC60411
:101E4300120F82EEC604120F8256C704120F82B31A
:101E5300C104120F82CEC104120F8212C204120FE8
:101E63008238C204120F825FC204120F8277C20447
:101E7300120F8219C304120F822EC304120F825150
:101E8300C404120F825AC404120F8263C404120FD3
:101E9300826CC404120F8276C404120F821EA6043D
:101EA300120F822AAA04120F822FAA04120F823160
:101EB300AA04120F8256D404120F822CE604120FC6
:101EC30082C6FF02120F82A9FF03120F82B9FF031A
:101ED300120F8208AF04120F82008002120F8233A6
:101EE3008002120F829F8002120F823A8102120F28
:101EF30082D78102120F821C8202120F823E82025B
:101F0300120F82578202120F827D8202120F829F6A
:101F13008202120F82DD8202120F82218302120FCC
:101F230082438302120F82A58302120F826C840202
:101F3300120F82238502120F82958502120F82608F
:101F43008602120F82B38602120F82198702120FC2
:101F530082538702120F82A58702120F821388020F
:101F6300120F827E8802120F82818802120F820270
:101F73008902120F82998902120F82198A02120FA3
:101F830082388A02120F829C8B02120F82A98B0263
:101F9300120F82B58C02120F82C28C02120F82CBF7
:101FA3008C02120F82A38E02120F82BD8F02120FB8
:101FB30082369002120F82A89002120F82CA9002F8
:101FC300120F825E9102120F82329302120F820964
:101FD3009702120F821D9702120F822D9702120F82
:101FE30082379702120F82409702120F824997029B
:101FF300120F82539702120F82809702120F82A947
:102003009702120F82B49702120F82D89702120F0F
:1020130082FC9702120F82669802120F82AC98021A
:10202300120F82C99802120F82469902120F827D03
:102033009902120F82BC9902120F82099A02120F9F
:10204300828F9A02120F825D9C02120F82E09C0221
:10205300120F82C49D02120F822BA002120F8284E0
:10206300A002120F82CEA002120F8229A202120F27
:10207300825EA202120F82B0A202120F8265A30235
:10208300120F8214A402120F8251A402120F82E6CD
:10209300A402120F8252A502120F82462F00120FC2
:1020A30082782F00120F82A62F00120F827C31003C
:1020B300120F825C3200120F82B43200120F82EFD1
:1020C3003300120F823B3400120F82643700120F69
:1020D30082573A00120F82A73B00120F823D3C0049
:1020E300120F82493C00120F827B3C00120F82FECA
:1020F3003D00120F82AF3F00120F82434000120FC8
:1021030082864000120F82044100120F8221410097
:10211300120F82514100120F82864100120F825624
:102123004200120F82FF4200120F82854500120FF8
:1021330082A54600120F82904700120F82124800B8
:10214300120F82464C00120F82834C00120F82DB67
:102153004C00120F820E4D00120F82784D00120FA9
:1021630082AE4D00120F82394E00120F82914E0043
:10217300120F82684F00120F82215000120F82BC8F
:102183005000120F82C45300120F82E05400120F4A
:1021930082835800120F82775900120F827A5900F6
:1021A300120F82A95900120F82AF5B00120F8288AF
:1021B3005C00120F82CB5C00120F82215E00120FB3
:1021C30082605E00120F82E95E00120F821D5F00C3
:1021D300120F82E25F00120F82FA6100120F826B0C
:1021E3006200120F82AB6200120F82396300120F7A
:1021F300825B6400120F821D6500120F8224670048
:10220300120F823C6700120F82506700120F828800
:102213006700120F82B66700120F82356900120F32
:10222300825A6A00120F82B76A00120F82696B002A
:10223300120F82906B00120F82576C00120F82EF05
:102243006C00120F82156F00120F824A6F00120F7B
:1022530082AD6F00120F82DC7000120F8284710056
:10226300120F82B57100120F82CD7100120F825CC2
:102273007200120F82107500120F82E87600120F9F
:1022830082047700120F82207700120F82EE77000C
:10229300120F82E17B00120F82BE8601120F82F0C1
:1022A3008601120F82DF8A01120F822B8B01120F1C
:1022B30082718B01120F82138C01120F826F8C01BA
:1022C300120F82B48C01120F82FB8D01120F820F49
:1022D3008F01120F82FE9201120F82829301120F5D
:1022E300828F9401120F82EB9401120F82DB96010D
:1022F300120F82509701120F825A9701120F8267B1
:102303009701120F82929701120F82799801120F8F
:1023130082239901120F82A19901120F82C199019F
:10232300120F82EA9901120F820C9A01120F826C2A
:102333009C01120F82329D01120F82779D01120FB1
:1023430082F49D01120F82A59E01120F82D79E0176
:10235300120F821D9F01120F82599F01120F82A932
:102363009F01120F82FD9F01120F8253A001120FD2
:10237300829FA001120F820CA101120F8287A1017B
:10238300120F8252A301120F8252A401120F8277FD
:10239300A501120F82B6A801120F82C9AB01120F59
:1023A3008286AC01120F82CAAC01120F827AAE018F
:1023B300120F828EAE01120F8298AE01120F82A20B
:1023C300AE01120F82AEAE01120F82CAAE01120F1E
:1023D3008275AF01120F82B4AF01120F82BEAF013B
:1023E300120F82C8AF01120F8238B001120F82831D
:1023F300B001120F8298B101120F82F4B101120FD2
:102403008275B201120F8234B301120F823DB401FF
:10241300120F8271B501120F825FB601120F82771C
:10242300B601120F82D2B601120F82F0B601120F5B
:102433008238B701120F825FB701120F82FAB70118
:10244300120F82C0B801120F8252B901120F82CC4F
:10245300B901120F82E6BA01120F8293BB01120F68
:1024630082BBBC01120F820BBD01120F826FBD0133
:10247300120F82D1BD01120F82FFBD01120F822301
:10248300BE01120F8258BE01120F8289BE01120FC4
:1024930082BCBE01120F82DCBE01120F8244BF0157
:1024A300120F8238C001120F8293C001120F82BC37
:1024B300C001120F8244C101120F82C7C101120F62
:1024C30082F2C101120F82D7C201120F8217EB03EE
:1024D300120F824FEB03120F8270EB03120F82B2C3
:1024E300EB03120F8214EC03120F821EEC03120F84
:1024F300822EEC03120F8269EC03120F8249F00360
:10250300120F8236F203120F821CF403120F82B3EE
:10251300F403120F8255F503120F82D9C401120F6F
:102523008257C501120F82B3C501120F82FEC50186
:10253300120F8219C601120F8244C601120F826163
:10254300C601120F826DC601120F8204C801120F59
:10255300821DC801120F82A2C801120F82B5C801E1
:10256300120F82D4C801120F8278C901120F82F9A7
:10257300CA01120F82ACCC01120F8242CD01120F9D
:102583008245CD01120F82B5CD01120F82D3CD0149
:10259300120F826ACE01120F82B2CE01120F82B5E0
:1025A300CE01120F827BCF01120F82E8CF01120FEF
:1025B300820ED001120F8299D001120F82B7D0017F
:1025C300120F82FDD001120F82B1D101120F82FBD3
:1025D300D101120F822AD201120F8287D201120F68
:1025E30082BCD201120F82E8D201120F82F6D2010D
:1025F300120F8243D301120F82B3D301120F82FC55
:10260300D301120F8248D401120F8274D401120F26
:10261300827FD401120F829DD401120F8288D501CB
:10262300120F8292D501120F82CDD501120F82DDD6
:10263300D501120F82E6D501120F823AD601120F8D
:10264300824ED601120F827DD701120F8294D701D9
:10265300120F82A9D701120F8237D801120F827C81
:10266300D801120F8208D901120F8213D901120F58
:102673008255DA01120F8270DA01120F82BCDA017D
:10268300120F822BDB01120F8264DB01120F827E99
:10269300DB01120F82C0DB01120F8290DE01120FE9
:1026A300823DDF01120F82AADF01120F82EAE101EC
:1026B300120F8202E201120F8205E201120F821150
:1026C300E201120F8225E201120F822DE201120FA5
:1026D3008260E201120F8262E301120F82E9E301D9
:1026E300120F8259E401120F82DBE401120F829C64
:1026F300E501120F82BBE501120F825CE601120FA6
:1027030082B9E601120F82BCE601120F82E9E601EB
:10271300120F82FEE601120F8272E701120F82C1CD
:10272300E801120F82C7E901120F8252EA01120F68
:10273300826DEB01120F8235EC01120F8266EC0100
:10274300120F8289EC01120F8292EC01120F82C1E7
:10275300EC01120F8251ED01120F8207EE01120FED
:10276300827CEE01120F8223EF01120F8298EF0198
:10277300120F82CFEF01120F820DF001120F82436D
:10278300F001120F82BFC802120F82F89004120FD9
:1027930082E49004120F82419004120F82418F044D
:1027A300120F825A8E04120F824A8C04120F82581F
:1027B3008B04120F82F68A04120F8246FD02120F57
:1027C300823CFD02120F82D1FC02120F82D8E90370
:1027D300120F8213C802120F8202FB02120F82C071
:1027E300FA02120F822AC702120F82F5C602120FD3
:1027F30082C4F902120F8298F902120F824FF90272
:10280300120F8290F802120F827CF502120F823DA2
:10281300F302120F820AF302120F82B1F202120FB5
:102823008244F202120F8203F202120F823CF1027F
:10283300120F82D6F002120F8275F002120F821568
:10284300F002120F82ECEE02120F8280EE02120FE0
:1028530082D8ED02120F82D3ED02120F82C7ED026E
:10286300120F82FAE902120F82D4E902120F82C216
:10287300C602120F82ADC602120F8282C602120F67
:1028830082D19404120F829D9404120F8246940401
:10289300120F82B49204120F8272E902120F821392
:1028A300E902120F82D4E802120F82C1E802120F6A
:1028B30082069204120F82B6E802120F8285E802A2
:1028C300120F8272E602120F82E5E502120F82AC4A
:1028D3008503120F82A1E502120F82699104120F80
:1028E3008275E502120F82868A04120F82598A04C6
:1028F300120F82268A04120F82FE8904120F829F0E
:102903008904120F827F8904120F824A8904120FED
:1029130082F68504120F82DE8304120F82C88104BB
:10292300120F82488104120F82F48004120F82A8CE
:102933008004120F82008004120F8257E303000009
:102943000080FB000022E4738F000100AF178700B3
:102953000100AD17350004007617250002007A1731
:10296300260002007C17270002007E1728000100C2
:102973008817290001008917840004001A158600AE
:10298300010038172A0001008A172B0001008B175A
:102993002C0001008F172D00080026152E000100C2
:1029A30090172F000100911730000100921731009A
:1029B30001009317320001002E15330001002F157B
:1029C300340001009417360001003015380001006F
:1029D3009517390001008E1783000200AB176300BF
:1029E30001003C15640001008C17650001008D1780
:1029F3006D0001003D15710008001E156600010001
:102A0300AA17430001009B17440002009C174500CE
:102A130001009E17460002009F1747000800341567
:102A230048000100A1174B000100A2170400010098
:102A3300AE17A1000100B21737000100B1178800DB
:102A43000100B0173C00010031153D00010096174D
:102A530049000200A317670001003E154D00020064
:102A6300A5174E000100A7174F000200A8173E004C
:102A730001009A1751000100321552000100981706
:102A830053000100991754000100331500000000A2
:102A930000000001363601010001020100010301BB
:102AA30000010401060605020000070100340801C5
:102AB300000F090401010D0100FF0E0800001702B9
:102AC3000000190100FF1A0100011B0100FE1C0197
:102AD30000081D0200001F01000120010001210266
:102AE30000002301000F240200002601000127013A
:102AF3000008280200FF2A0100072B0102402C01D5
:102B030000002D0100012E0100012F0100FF300103
:102B13000B1D310800003A0100083B01000F3C0186
:102B230000013D0100FF3E04000042040000460492
:102B330000004A0400004E04000052040000560442
:102B430000005A040000000000002001B8860000C5
:102B530001002001BA86000002002001BC860000AB
:102B630003002001B98600000400420193850000A0
:102B730005004201768500000600420154850000ED
:102B830007003001BD86000000404201548500006B
:102B9300FDFF2101B686010020002005401701003A
:102BA30021002005411701000002210542170804F6
:102BB300000021050C140103710301030103010348
:102BC30001030103220302030103100300030003B3
:102BD3000003000300030003000342030003240374
:102BE3000603000300030403120325032303250341
:102BF300230304030403000300030003440300034B
:102C0300000323030003650321003503810300034D
:102C1300050300030003000300032503230303024A
:102C2300710230016002110270020102020202020B
:102C33008002100261023A004100630273027202D1
:102C4300620243020002130238000002000204027F
:102C53001202000200020002000204020402370012
:102C630037003C0244020002390000020002650200
:102C73000002350281020002050282028302000281
:102C83000101710101010101110101013101010181
:102C930001018001100161013B0014006301730114
:102CA3007201620143010001130106013D01350078
:102CB30004011201000100010001000104010401EB
:102CC300330133013C0144013201360000010001AC
:102CD30065010001350081010001050182018301C5
:102CE3000001030071003001600011007000310227
:102CF30020035004800010006100000014006300F2
:102D0300730072006200430000001300060000001D
:102D13000000040012000000000000000000040096
:102D23000400370037003C024400000000000000AC
:102D33000000650000003500810000000500000070
:102D43008300000036000100060000000F000000B1
:102D53000000000000000000000003FFFF0000046B
:102D630003FFFF0000FFFF0FF4010005C40403206D
:102D7300000100000B000000000000000003010F31
:102D83000000000000000000000000000000000040
:102D93000000000000000000000000000000000030
:102DA3000000FB1A191B011B5F1A00000000000042
:102DB30000000000000000000000071B5F1A000075
:102DC30000000D1B5F1A0000000000000000131B31
:102DD3005F1A000000000000000000000000000077
:102DE30000000000000000000000000000000000E0
:102DF30000000000000000000000000000000000D0
:102E03001D1D01001D1D0200931C02808D1C03006B
:102E1300991C04009F1C0480A51C0500AB1C060024
:102E2300B71C3100C91C3300CF1C3400D51CFFFF75
:102E33000000030003000400080010001F003E0010
:102E43007B00F600EC01D703AF075D0FB91E713DA0
:102E5300000007ECFDFDFDECDCDCCCBCACAC9C9CC9
:102E63008C7C7C6C6C5C5C5C4C4C3C3C2C2C1C1C4F
:102E730003EAF5E5D5D5C5B5A5959585857575653C
:102E83006555554545353525251515050A11230283
:102E9300DB2205E72207E1220CC3220DCF22FF002C
:102EA3000000160F00000B150B020002220F330067
:102EB300000E0F5A6967426565416C6C69616E6308
:102EC300653039D0D1D2D3D4D5D6D7D8D9DADBDC53
:102ED300DDDEDF303016181920231A1C1E300003E4
:102EE3004D4C4651181A25050200011916181616DD
:102EF30018230300303017181921301B1D1F300011
:102F03003C40423A3F3F392F47300C0E020B040B33
:102F13000A0708000F020402010101010902E80384
:102F2300000000BE040A010024000300E803FF04BC
:102F3300090E03100F030A0C041E0828020C0508CF
:102F4300151E05C082C0831213B190156774B3F0C8
:102F5300A37420F090156974B9F0A37420F0901550
:102F63006B74BFF0A37420F090156D74C5F0A37457
:102F730020F0025C8174F7120A1090155BE4F0E90B
:102F830090155AF07C347D157A5C7B15121A2F90BC
:102F930017A1E0901564F0901565741EF0A37415E5
:102FA300023F0E74F0120A10EAFEEBFF5480700326
:102FB30002311790155A123FA37003023110EA240D
:102FC3001B12580E707CEA241F12580E64137002F1
:102FD300A3E0706E8A828B83123165901575124D52
:102FE300A0750A00750B00800D123DE4126E80126D
:102FF3001933AA0EAB0FEA4B60488A828B83E065D4
:103003000C7004A3E0650D702C8A828B83A3A3A3A9
:10301300A3E0F50EA3E0F50FE50A450B8A828B8347
:10302300A3A3A3A360C31240E6850A82850B83A3EF
:10303300A3A3A380B78A0A8B0B8A828B83124D9C2E
:1030430080B4E508242A12580EFCE5082402F8E4AB
:103053003509F9E8FAE9FB90157512324CA3A3E0A0
:103063006402703C8A828B83124DA0800B88828914
:1030730083A3A3A3A31240E6E849601F8882898340
:10308300E06A7003A3E06B70E488828983A3A3E002
:103093006C70DA9017A7125B3E806BECF91220EF8D
:1030A300850882850983E06401704FE508241812BE
:1030B300314E120FC0126428120DFBE508241212C0
:1030C300314E120FC0E508123F97120FBCE50824DA
:1030D3000B12642C120DFFE5082417123F34E50888
:1030E3002402FCE43509FDE5082419FAE43509FB5B
:1030F30012291D740A120FEA800CE064027007AAF9
:1031030008AB091221CDAA08AB0912189DEEFAEFFC
:103113006480802DEA5402600C9017BA7401F0EABF
:103123006402FA8023EA5408601A1220E9EA4B7019
:103133000B9015771263037A0812315BEE6408FA79
:10314300EFFB80047A007B00026AB2F582E4350962
:10315300F583E0F50A780A22FB90155AE0F9121973
:10316300FF22A3A3E0F50CA3E0F50D227B0090154D
:103173005AE0F91219F374042274F4120A108A083B
:103183008B098A828B83A3A3A3124B98123F3F38E8
:10319300F583E02409FA126A4A700302323F8A82F5
:1031A3008B837402124C0D85088285098312324C7D
:1031B300E8F0A3E91266C48A828B83A3A3A3A3A323
:1031C300A3A3A3F0E5082403F8E43509123241125E
:1031D3003F3F3AF583E08E828B83A3A3A3A3F0EE54
:1031E3002409FAE43FFB8E828F83A3A3125DF0F5DB
:1031F300838882E0A2E58E828F83A3A3A3A3A35037
:103203000474018001E4F0E5082403F58289831244
:103213004DA0EA1253213BF583126A11120FB81223
:103223003F3E3B125EE28E828F83A3A3127BC012CA
:103233000FEAEEFAEFFB90155A126A978016F98897
:1032430082F583E0FAA3E0CA22124F3DA3A32274BE
:1032530002120FEA7F04020D3074F2120A108A0878
:103263008B09ECFAEDFB740E1212D8E0FC1213E793
:103273008A0C8B0DAE0CAF0DEA4F6030AC08AD0974
:103283001213D5E96026AC08AD09EEFAEFFB121371
:10329300DBE970148E828F831240D3FAEFFB121393
:1032A300CFAA08AB091213FF7900800279B4024E4A
:1032B3008C74F0120A1074F612107EEAFEEBFF8C87
:1032C300088D09750FB3852182852283E4F0750E7D
:1032D300008002050E902F45E493F8E50EC3984055
:1032E300030233DBAA0E7B001214238A0A8B0BEA38
:1032F3004B60E08A828B83A3A31233E228F0F8C3E6
:10330300EE98EF940050CC7C157D007900AA08ABB1
:1033130009121885850A82850B83A3A3A3A3126EC2
:10332300BDE0F8EEC3982925E0F8E433F9E50A286F
:10333300F582E50B39F583A3A3A3A3A3A3123F4906
:10334300A31259658A0C8B0DAC0CAD0DAA08AB0901
:10335300121A2F850A82850B83A3E06401700A1277
:1033630064287401123F5B80447401121048850A7B
:1033730082850B83124D9E12140BE9603D74091272
:1033830012D8E0C0E0126428D0E0F074091212D819
:10339300E0640370137401121048E508240BFAE487
:1033A3003509FB121A2F801274011212D81240E64B
:1033B300E50812594B3509126E7E850A82850B8307
:1033C300126434123F5BA3A3E0C0E0E508241412A7
:1033D300642CD0E0F0750F00A90F740A026AAFA342
:1033E300A3A3E0F8852182852283E02274F7120AE1
:1033F30010E9FE8A828B83A3A3A3A3A3A3E05408AB
:1034030060338A828B83A3A3A3A3A3A3E0540260A4
:10341300218A828B83A3A3A3A3A3A3A3A3A3E0646F
:1034230006600F74E96E600A74CD6E600574F06E09
:1034330070031220D102478B74F0120A1074EF123A
:10344300107E740F1212D81261E774081212D8E9B1
:10345300F0ECFEEDFF74051212D8124553124777B4
:10346300A3E0F91213F374061212D81261E774067B
:103473001212D81253B270030236F6123F83E0FAE7
:1034830074061212D8E0F9122011123756F8A3E08D
:10349300F9E84970030236F6EE2403F50AE43FF532
:1034A3000BEE2406F508E43FF5097C00850882F558
:1034B30083124DA0850A82850B83E0F91213F974F8
:1034C300031212D81261E7850A82850B83E0C0E0FC
:1034D30085218285228312374FD0E01254C7F985A4
:1034E3002182852283123DEB1250191233E5FAA390
:1034F300E0CA2407F582E43AF583E8F0A3E4126115
:10350300F22406F582E438F583E4126E8A124B8CBA
:10351300120FB8EE123F3F3F125EE274031212D84D
:10352300124B982409127BBA120FEA74291212D88B
:10353300126EB71232461254DA3A126E7E742B129E
:1035430012D8E0C0E0852182852283125379D0E02E
:10355300F074021212D8E4F074251212D87808120B
:10356300126302364D74031212D8125EAA8882F5D2
:103573008312373EA3A3A3125970FB121411850EB5
:1035830082850F83A3EAF0A3EBF074031212D8121F
:10359300374FA312373E125B7FA2E6500F850E8290
:1035A300850F83A3A3A3A3A3E0D2E1F074051212B2
:1035B300D8E0706B850E82850F83A31240E69015C9
:1035C300B5E0687003A3E0697055850E82850F83AB
:1035D300A3A3A3123F1E750C00780C120FC078082A
:1035E300120FB474291212D8E0F50C780C120FC024
:1035F30074271212D8120DFF9015C2120DFF790015
:1036030074191212D8124D70122215740A120FEA8D
:10361300850E82850F83A3A3A3A3A3E04405F074BF
:10362300021212D8E004FC8E828F83124D9A8E828E
:103633008F83A3A3A3E0F91213F974031212D81210
:1036430061E774021212D8E004F074031212D81264
:1036530053B2606774021212D8E0FA74061212D8D9
:103663001240E6C3EA98E499505174021212D81238
:103673003A28852182852283E028F8A3E039F9E8F6
:10368300240FF50EE439F50F850E82F583E4F0740B
:10369300031212D8123749640160030235687405B6
:1036A3001212D87401126A9DF074031212D8125CBC
:1036B30071123A4BE8F0A3E902358C852182852209
:1036C30083124DA0122017852182852283120DFFBC
:1036D30074261212D8E0FD74251212D8E0FC740A85
:1036E3001212D8E0F9EEFAEFFB1220CB7402120F9C
:1036F300EA80438E828F83A3A3A3E0C0E0740C12FD
:1037030012D8D0E0F0126906E0C0E0740D1212D8AE
:10371300D0E0F074061212D81253B27009740E126C
:1037230012D874B98007740E1212D87410F0740989
:1037330012104012220F7411026AAFE0850E8285C7
:103743000F83A3A3A322E012549FE022E012549F0D
:10375300A3A322852182852283EAF0A3EB1253BB24
:103763002274F0120A1074E112107E74041212D83B
:10377300E9F074031212D8ECF074021212D8EDF0CF
:103783008A0E8B0F742F1212D8123167AA0CFB12F8
:10379300200574011212D8E9F0AA0CAB0D12200B0C
:1037A30074011212D8E07003023A23852182852224
:1037B30083E480158E828F83A3A3A3A3A3E0D2E324
:1037C300F0852182852283E0041269F5F885218240
:1037D300852283E0C3984003023A1A74011212D877
:1037E300E07003023A1A852182852283123A28E582
:1037F3000C28F8E50D39F9E8240FFEE439FF8E8231
:10380300F583A3A3A3A3A3E0A2E040B575080075C5
:103813000A08750B0074021212D8E06003750820C1
:103823007C087D00790074051210401218858E8281
:103833008F83E0603E901605E06401701AE508D2BC
:10384300E3F508750B10123A381212D8E8F0A3E921
:1038530012586374FF807643080C750A0C8E828FAE
:1038630083A3123A43126E8074051212D874FFF0C8
:10387300A3805A74041212D8E06009E508D2E6F571
:1038830008750A0A8E828F83A3E064FE7003A3E0A7
:10389300F4703074121212D87404126452F8741D46
:1038A3001212D8E8124C0D7412121040121F337DFD
:1038B300007C00790074151212D8AA82AB83121D02
:1038C30005800B123A381212D8E8F0A3E9F0740716
:1038D3001212D8E508F0123F7AC0E074091212D828
:1038E300D0E0F0740A1212D87401F074051210407B
:1038F3001221D374111212D8E060030239F8740D47
:103903001212D81254C28E828F83A3A3A3A3F0747E
:103913000D1212D8124BDBE50AF0A3E50BF074038A
:103923001212D8E0C0E0124B6CD0E0125B7F601142
:10393300901605E0C0E0740D1212D8124BB6D0E019
:10394300F0740D1212D81240E6850C82850D83A304
:10395300A3A3A3A3123A31241C1261E1126E9A129B
:103963003A33125B3139126925C0E0124B53D0E070
:103973001269EAC0E0740D1212D8124699D0E0120F
:1039830066EBC0E0740D1212D812468FD0E0F074CB
:103993000D1212D8123A43123A31242A1261E185E8
:1039A3000E82850F83A3A3A3A3A3A3A3A3E0126102
:1039B300DA123F69C0E012467BD0E0F0740D1212B8
:1039C300D8124DA0850E82850F83126A002428F534
:1039D30082E43B126E7E123F72126A11120FB8120A
:1039E3005EDBEA1261733B127BBE120FEA740512AF
:1039F30010401221D98E828F83A3A3A3A3A3E0D265
:103A0300E0F074111212D8E060030237B7740112A8
:103A130012D8E0140237C37900AA0CAB0D1220D7D9
:103A2300741F026AAFE075F007A4F8A9F022A3A3FC
:103A3300124DA4E8228E828F83A31240EA740522DA
:103A4300E0123A4BA3A3A322F8A3E0F9850E8285E3
:103A53000F83A32274F0120A1074E812107EE98512
:103A63002182852283F08A0E8B0F8A828B83A3A304
:103A7300A3A3A3A3A3A3E0F912202F8A088B09EA27
:103A83004B7003023B34E50E125335123F92123F43
:103A930029852182852283E06003023B377C0485EC
:103AA3000E82850F83A3A3A3A3A3A3A3A3E0F91269
:103AB3002035EE4F607B8E828F83A3A3A3A3124096
:103AC300E674071212D81263181240E67409121230
:103AD300D8124C3DC0E074111212D8D0E01266C95E
:103AE300A3A3A3A3A3A3A31240E6740F1212D81295
:103AF3006E8074121212D8E4126AA5C8241FF582CC
:103B0300E438F583125EA6C413135403FC70027CDD
:103B1300048E828F83E0F97808120FBC742059FD5C
:103B2300744059F974031210401220CB7402120F1F
:103B3300EA026AAD7C08850E82850F83A3A3A3A343
:103B4300A3A3A3A3E0F91220358B0BEA4B70030266
:103B53003AB5EE4F60DB852182852283E0F50C7850
:103B63000C120FC0850882850983A3A3A3A3A3A373
:103B7300A3E0F50C780C120FC08A828B83A3A3A356
:103B8300E0FB8A82850B831276DD8A82850B83E0D4
:103B9300FA8E828F83A3A3E0F91229237402120FF2
:103BA300EA023AB974F7120A1074FA12107EE9FEA7
:103BB300780179017F00800379000F124F1CE0FC2C
:103BC300EFC39C5026EF75F007A4FC85F008AD0801
:103BD300EA2CFCEB3DFD12450BE0A2E050DA540C5D
:103BE30060D6E0A2E250D3780080CF8A828B83A391
:103BF300A3A3A3A3A3E0703DE9A2E0400574016E73
:103C030070338A828B83A3A3A3A3A3A37401123E5D
:103C1300FBE0C0E074031212D8D0E012456AE0C0A2
:103C2300E074041212D8D0E0F074051212D8E8122E
:103C33005E4512220F7406024788C082C083790151
:103C43001220D7025C8174F4120A10EA4B9017BA5F
:103C53006019E4F08A088B09F50AF50B7808120F4E
:103C6300B47A0212316F120FEA800A7401F07A02F9
:103C73007B0012315C02325774F0120A1074F31293
:103C8300107E74031212D8E4F0A3F0901575123F5E
:103C93002974011212D8E4F0A3124C1204F0901507
:103CA300AFE0A2E35003023D6E123EEF740912121D
:103CB300D812129D74091212D87808121263901543
:103CC30077780812105074051212D87808121272FD
:103CD300123DF274051212D8780812121550077AA1
:103CE300017B00023DDF74051212D8780C121263B7
:103CF3009017A6E0F509780C79081209A1A80CA978
:103D03000D9017A7E0C398E4995003E08001E8857C
:103D13002182852283F074091212D8780812126363
:103D2300C008C009C00AC00B74051212D8780C125F
:103D33001263123DF2780C79081209A1E4F50AF531
:103D43000BD00FD00ED00DD00C780C7908121110B7
:103D5300901577780C1212728011123DE4126E8066
:103D6300EEFAEFFB121933AE08AF09EE4F60658E22
:103D7300828F831233E2C398502DEE2403F8E43F7D
:103D8300F9E0FA88828983E0C39AF060237403120E
:103D930012D812424C74011212D8EEF0A3EF126340
:103DA30033FEA3E0FF80C48E828F83A3A3A3E4F03A
:103DB3008E828F83127B7774011212D81253B28EC4
:103DC300828F83A3A3A3A3609112630C1212D81250
:103DD3003DEB808974031212D8124DA0740D026A50
:103DE300AF1240EA90157522125ED1A3A3A32290CD
:103DF30017A5127B7FE4F50AF50B2274F0120A1063
:103E03008A088B09890A78007900901575123F2971
:103E1300FBEE4B601E088E828F83A3A3A3A3124DD8
:103E23006A601008E87001098E828F83123F25EAC9
:103E33004F70E39017A8124DA0C3E89AE99B400383
:103E4300023EE27A06123EE5A80CA90DEA49700388
:103E5300023EE28A828B83E508F0A3E509123F0460
:103E6300E50AF09017A7124F24123EFBA3E4F0A338
:103E7300F0901575124D6A600D8E828F83A3A3A3F4
:103E8300A3126E808017901575126E809015AFE0A7
:103E9300A2E34009123EEF90157712129D9015AFE1
:103EA300E0A2E3503A7A087B0090155AE0F9121A1F
:103EB30005EA4B4C4D70289017A5E0F508A3E08563
:103EC300080CF50DE4F50EF50F780C120FB47A0813
:103ED3007B0090155AE0F91219F97404120FEA02E3
:103EE3006AB27B0012192D8A0C8B0D22121A17EA63
:103EF300F8EBF9ECFAEDFB22123EFF22123F04A38A
:103F030022F08A828B83A3A322E508F002478BF079
:103F13008E828F83A3A3A3A3A3A32212581CA3A3BC
:103F2300F022A3A3A3A3E0FEA3E0FF227F05020DDB
:103F330030F582E43509F583E0F922EA123F4322A2
:103F43002410F582E422123F51A3A3A3A32212401B
:103F5300EE85088285098322123F5F22F0850A825B
:103F6300850B83A3A322E50E2411123F8FE022E5E4
:103F73000E240E123F8F22E50E2410123F8FE022F3
:103F8300123F8722EE123F433FF58322F582E43549
:103F93000FF58322240FF50AE43509F50B780A227D
:103FA300E0F91218AF8A088B09EA4B2274F2120A5D
:103FB30010890B8A088B098A828B83124DA01220E9
:103FC300FBEA4B600479B8806A122107E9F8902F65
:103FD30036E493F9E8C399400479B280567A15120E
:103FE3003EE5AE0CAF0DEA4F7004791080458A822E
:103FF3008B83E4F0A3123F04E50BF0750A00780805
:10400300120FB87C127D00EA24031269BC120FEA76
:1040130090157B1253B2700890157B800C1240E60A
:104023008882898312403970F4EEF0A3EFF01221F5
:10403300197900024E8C124DA4EA4B88828983229F
:10404300C082C08390157B80048C828D831276DEC0
:10405300EC4D60288C828D83A3A3E069600574FF17
:104063006970E68C828D83A3A3A3E06A7003A3E047
:104073006B70D6EC2403FAE43DFB80047A007B00EA
:10408300025C8174F7120A10E9FD74FE6D70047C02
:104093000180027C0090157B80096D70027C018891
:1040A3008289831253B2601F88828983A3A3A3E00A
:1040B3006A7003A3E06B70E7ECA2E088828983A3B4
:1040C300A3E050D6F9800279FE02478BEEF9800C0B
:1040D300A3A3127B7FEE227402120FEA7F02020D6A
:1040E30030F5831240EA221240EE22E0F8A3E0F911
:1040F300221240EE8E828F8322120FEA7F03020D7B
:1041030030C082C083790090157B800109E0FAA357
:10411300E08A82F583E582458370F1025C8174F65F
:10412300120A10E4F508F5097808120FBC902F362F
:10413300E49375F013A4A9F0124241126EDE120F3C
:10414300EAE9FE74096E70031221130240CF74F67C
:10415300120A1074FE12107E852182852283E4F0F8
:10416300A3F0A821A922880889097808120FBC7531
:1041730008027509007808120FBC126B4F120FEA80
:104183000240DA74F5120A1074EB12107E85218254
:10419300852283E4F0A3F090157B80748E828F8355
:1041A300A3A3E0C0E074021212D8D0E0125863A9AE
:1041B30082AA8389088A09750A007808120FB87CD5
:1041C300127D0074061212D8126EA3120FEA740243
:1041D300121038880889097808120FBC75081375FE
:1041E30009007808120FBC74041212D812535575C3
:1041F300F013A4F8AAF075F013E912423D126B57BD
:10420300120FEA85218285228312424C8E828F838C
:10421300123F29EE4F7085A821A9228808890978C1
:1042230008120FBC7508027509007808120FBC123A
:104233006B4F120FEA74150240FCA42AF9E824021A
:10424300FCE439FD7A427B0022E02401F0A3E03450
:1042530000F02274F4120A1074EB12107E7E007FB9
:1042630000A821A922880889097808120FBC7508BB
:10427300028E097808120FBC7C007D007A42126E10
:10428300EA120FEAE9706C8E088056740212103835
:10429300880A890B780A120FBC750A13750B00780C
:1042A3000A120FBCE50875F013A4F8AAF075F01311
:1042B300E50912423D126EEC120FEAE9701B74031A
:1042C3001212D8AA82AB8374021212D8E0F9122018
:1042D300F5E970050EEE70010F0508E5087002059B
:1042E300098521828522831240E6C3E50898E50902
:1042F300994098EEFAEFFB741502325474F6120AE1
:10430300108C828D83A3A3124558F0EA1261793B86
:10431300F583E0C0E0124515D0E0F0EA241DF582F4
:10432300E43B1240E41244F9124553F0A3F0EA24AB
:104333001FF582E43BF583123F29EC1244EC3DF573
:1043430083EEF0A3EFF01244F23BF583124523A36F
:10435300A3A3A3A3A3EEF0A3EF125DD4FE8C828DDF
:104363008312456274035EFEC3940340030244DF79
:10437300EE600874026E60030244048C828D83E055
:10438300540CFE740C6E7003024443E0A2E4400D2F
:1043930088828983E08C828D83A312457874086EAA
:1043A30060030244431245037401F08A828B83A3A2
:1043B300A3A3A3A312582970148C828D83E0440C09
:1043C30012456AA3A3124523EEF0A3EFF08C828D6E
:1043D30083E0A2E4402B8882124531124546500106
:1043E30009F582124531A3A3A3A3A3A3F0A3EF125C
:1043F30045728C828D83A3A3A3F0E82403F85001B4
:104403000988828983E0C0E0EC2411F582E43DF55C
:1044130083D0E01245628C828D83E0A2E7507588D9
:10442300828983E0FE8C828D8312457874FC5E70F2
:104433000C8C828D83A3E054036403701E0244DF5B
:10444300124503E4F0740C6E60030243AE888212DB
:1044530045371245465001090243D08C828D83A310
:10446300E05403603288828983E0C0E0EC12451D8A
:104473003DF583D0E01245798C828D83E05403644B
:1044830002701488828983E0C0E012450BD0E012E9
:1044930045798003A3E4F0EC1253213D126E7EECC8
:1044A3002410FEE43DFFEA241DF582E43BF583E09E
:1044B300F5088E828F83E0C3982508F508F0EA2477
:1044C30017F8E43BF98882F583E0C39508C0E0124E
:1044D30044F9D0E0125DD4C39508500A1244F9E4BC
:1044E300F0124515E4F00240DF2415F582E422EAD8
:1044F300240DF582E422EC240DF582E43DF58322BC
:10450300EC1254DA3DF58322EC2414F582E43DF5F4
:104513008322EC123F433DF583222413F582E422E8
:10452300E0FEA3E0FF8C828D83A3A3A3A322124505
:1045330037A3A3228983E0F508A3E0FFE5088C8273
:104543008D8322A3A3A3A3F0A3EFF0E82402F82210
:10455300124558A322E4F08C828D83A3A3A32212D5
:104563004580A882A98322123EFFA3A3A3A32212FC
:104573004580A3E022A312458008A98322125DDDB2
:10458300A32274F4120A1074F312107E8A0A8B0B9E
:10459300ECFEEDFF8C82F583E0540CF508E0A2E716
:1045A3005006E508D2E7F508E508D2E1F508125808
:1045B300297006E508D2E4F508E0A2E55006E5080F
:1045C300D2E5F5087C087D007900AA21AB221218F8
:1045D3008574021212D8E508126E84C0E0740312C7
:1045E30012D8D0E0124C12E50AF0A3E50BF07405E3
:1045F3001212D81266F01212D8E0707774081212F1
:10460300D8124B98125DC63812670BC0E0740812BB
:1046130012D8124699D0E01266EBC0E07408121269
:10462300D812468FD0E0F074081212D8124685E0F3
:10463300124BC0124C411261DAEE24111257F5C02D
:10464300E012467BD0E0F0EE24141257F5C0E0747C
:10465300081212D8124B982435F582E438F583D02A
:10466300E0124BE5C0E074081212D8124B9CD0E064
:10467300126444740D023254E82432F582E439F5AD
:1046830083221240F4A3A3A3A3A3A322124BAC122D
:1046930068EA38F58322124BAC2426F582E438F518
:1046A300832274F7120A107E008A828B83A3A3A34A
:1046B300A3A3A3A3A3A3E064046003024767125464
:1046C300D2E060030247671253343B1253B07003C6
:1046D30002476788828983E054036003024767E8DF
:1046E3001254DA39F583E0FA8C828D83A3A3E0FBBD
:1046F300A3E0CB2411F582E43BF583E06A7065887F
:10470300828983A3A3A3A3A3A3A3A3A312476BE0B9
:104713006A7003A3E06B704C88828983A3A312475A
:1047230077E0FFA3E0CF24061257F56A7003A3E0F6
:104733006B703188828983A3A3E0F88C828D83A375
:10474300A3E0F9A3E0F5838982A3A3E06860138C57
:10475300828D83A3A3A3E0F5838982E0540C6404D0
:1047630070027E01EEF9802012476F22124DA88C51
:10477300828D8322A3A312476FA3A322740C121268
:10478300D8E0F9740D120FEA7F01020D3074F612AE
:104793000A1074FC12107EEAFEEBFFECFAEDFB8CC0
:1047A30082F583A3E0540360169015711253B2602F
:1047B300597900EEFCEFFD125FD1122949804B8538
:1047C3002182852283EEF0A3EFF074021212D81235
:1047D3004C07AC21AD227A317B211223598A088BF5
:1047E30009A808A909EA4960218A828B83A3A3A3A4
:1047F300A3A3A3A3A3A37406F07A0088828B8312D6
:104803004B9812619AE0F91222B774040240DC74E7
:10481300F2120A1074F312107EEAFEEBFF8A82F59D
:1048230083A3A3A3A3A3A3A3A3A3A3E0F50A90171E
:10483300BAE0700579BA024B507508017509007525
:104843000C00750D007C087D007900AA21AB2212B3
:10485300188574051212D87401124C1A540460128C
:1048630074021212D8E0D2E6124C1A54087003757F
:104873000803E05410600674404508F508E0540846
:10488300602274021212D8E044C0124C1A54206001
:104893000A74031212D8E0D2E0800874031212D80B
:1048A300E0D2E1F0EE24151257F5124B8070037439
:1048B3000169700674084508F5088E828F83A3A3E7
:1048C300A3A3A3A3A3A3E070161223B38521828518
:1048D30022831261E774021212D8E0D2E2803064BC
:1048E3000F701074021212D8124C2274044508F58A
:1048F30008807F8E828F83A3A3A3A3A3A3A3A3E094
:1049030064028E828F83700A126EB7E8F0A3E9F017
:104913008060A3A3A3A3A3A3A3A3E06403700DAC2C
:1049230021AD22EEFAEFFB12216780468E828F8340
:10493300A3A3A3A3A3A3A3A3E064017035901605C7
:10494300E0601074021212D8124C22750910750A15
:10495300FF801874021212D8E0440C124C1274FD3A
:10496300F0A374FFF074044508F5088E828F831258
:104973003167EE24151257F5A2E0503F740212126C
:10498300D8E0540C701B8E828F83124DA0121DD160
:10499300E9700579BB024B5074021212D8E0D2E5DC
:1049A300F0EE24151257F5A2E0501074021212D83B
:1049B300E0540C64047004E0D2E5F0EE24111257C5
:1049C300F5C0E074041212D8D0E01266F21212D8C5
:1049D300E06003024B4974081212D8124BDBE5085E
:1049E300F0A3E509F0124B76E0C0E0124B6CD0E087
:1049F300F0124B5DE0C0E074081212D8124B98120B
:104A0300451D38F583D0E0124C41640170119016B6
:104A130005E0C0E074081212D8124BB6D0E0F0746F
:104A2300081212D8124BD6124B67FAE8241CF582EF
:104A3300E439F583EA124C0DEE2415FAE43FFB8AC0
:104A430082F5831276DEE8125B3139F583124C0767
:104A5300EE241C1257F5C0E0124B53D0E0125C77E2
:104A6300124B807003740169701374081212D81208
:104A730054C2FAEE241D1257F5F912203B8E828F91
:104A830083A3A3A3A3A3A3A3A3A3E0C0E0740812D7
:104A930012D8124699D0E0F074081212D812468F39
:104AA300E50AF074081212D81253552428F582E44B
:104AB30039F583E50CF0A3E50D124BED124BC01253
:104AC300586E1261DAEE124B67C0E0E82433F582C8
:104AD300E439F583D0E0F0EE241B1257F5C0E074FF
:104AE300081212D8124B9CD0E0F0EE241A1257F59C
:104AF300C0E074081212D8124B982432F582E438BD
:104B0300F583D0E0124BE5124B8C120FB81268F00C
:104B13001276DE740B1212D8124B98242F127BBA22
:104B2300120FEAEE24151257F554406012901591B6
:104B33001253B2600AAA21AB22125FD1122949AAE9
:104B430021AB221221D9740C1212D8E0F9024E873C
:104B5300E82420F582E439F58322EE2419F582E472
:104B63003FF583221268FFE022E82412F582E4393C
:104B7300F58322EE2418F582E43FF583225480F86E
:104B8300A3E05401F974806822F508A3E0F50975E0
:104B93000A00780822124BAC22124BAC2434F58263
:104BA300E438F58322A3A3A3A3124BB022E0F8A316
:104BB300E0C822124BAC1244EC38F58322FAA3E08E
:104BC300FBE8242AF582E439F583EAF0A3EB22A378
:104BD300A3A3A31240EAEE2212535912533939F513
:104BE3008322F0EE241312587622F0EE240D12588D
:104BF3007622E0FC8A828B83E02CFCA3E03400FD68
:104C03008A828B83ECF0A3EDF022F0A3E4F022F090
:104C130085218285228322F0EE241512587622E024
:104C2300D2E3F0124C2A228E828F831240EE85212A
:104C330082852283E8F0A3E9F022E8F0A3E9126376
:104C43002DE02274F7120A108A828B83A3E0640199
:104C530070047E6380027E648A828B83E0600879BD
:104C630005124C7A24F3FE9015ADE06007F9124C5F
:104C73007A24F2FE024767122281E9F8EEC39822F2
:104C830074F6120A1074FE12107E85218285228327
:104C93001261E7E9FEECFAEDFB9005C21253B26034
:104CA30032A821A922880889097808120FBC7D013E
:104CB300740E1212D8E0FCEEF99005C21261BB1219
:104CC30029497402120FEAEA4B60047900800679DD
:104CD300B2800279B60240DA74F7120A10E9FE9044
:104CE30015671253B2601F74091212D8E0F50878E1
:104CF30008120FC0EEF99015671261BB12294974AF
:104D030001120FEA800279B602478B74F7120A1078
:104D13008908ECFEEDFF79B5E508245E6020146098
:104D23000624F86034803D9005C4124D6A60351244
:104D33006EFB1229498E828F831261E780249015BE
:104D4300691276DEEC4D601CEEFCEFFD90156912E6
:104D530061BB122949E9F9800B901565124D701258
:104D63001A2F790002478B124DA4EA4B221276E2E6
:104D7300EEFAEFFB2274F7120A10E9FE79B574AB71
:104D83006E700B901565124DA0121A2F7900024711
:104D93008B8E828F83A3A3A3A3A3A3A3A3124DA448
:104DA30022124DA822E0FAA3E0FB2274F1120A10AA
:104DB300EAFEEBFF8C0A8D0B7508019015B5E06ECA
:104DC3007003A3E06F700C124E7BAA0AAB0B121A8E
:104DD3002F805E1223B9EE6A7002EF6B7009AA0A84
:104DE300AB0B1223BF804AAC0AAD0BEEFAEFFB12FA
:104DF3001F0FE9F5089017ADE07036122857E970D8
:104E030030E508702C901585E06E7003A3E06F7099
:104E130020EE4F601C750C7D750D15750E00780C1A
:104E2300120FB87C087D00AA0AAB0B126EA7120FF3
:104E3300EAA9080277DA74F2120A10EAFEEBFF8C91
:104E4300088D09750A01124E7BEEFAEFFB121A293F
:104E5300E9640170119015B51240E6850882850951
:104E630083126E80800EAC08AD09EEFAEFFB121FC1
:104E730015E9F50AA90A80111223AD8A0C8B0DAC32
:104E83000CAD0D22740D120FEA7F06020D3074F67D
:104E9300120A10EAFEEBFF7A0D7B0012192DEA4B82
:104EA3006062EE2424126B84F0EE2425126B84A33B
:104EB300124F49126B8AA3A312691D124F24F0EEFD
:104EC300124F0A124F39E8F0A3E9124F60124F3123
:104ED300126E80EE124F131269E0A3A3A3A3F0EEA8
:104EE30024331257F5C0E0124F1CD0E012670F12A3
:104EF3004F31A3A3A3E8F0A3E9124F58C0E0125423
:104F0300D2D0E0F00240DF242AF582E43FF5832289
:104F1300242EF582E43FF58322EA12594B3BF583B5
:104F230022124F2822E08A828B83A3A3A322126A30
:104F33003FA3A3A3A322124F3D221240EE8A828BEA
:104F430083A3A3A3A322F0124F4E22EE2426F582BD
:104F5300E43FF58322F0EE243212587622F0EE2459
:104F63002C1258762274F4120A1074FE12107EEC7E
:104F7300FEEDFFEC24161257F564057010EC2406C1
:104F8300FCE43FFD122161E97003025014AC21AD32
:104F930022126C39121DD78521828522831253B2C6
:104FA300606B8E828F83E064017058E875F009A40A
:104FB300F8AAF075F009E9A42AF974DE28F8740256
:104FC30039F9E8FAE9FB8882F5837808121263EE6F
:104FD3001250B61212154027852182852283124B67
:104FE300D612580312501978081212639086427829
:104FF3000812114C8A828B837808121272800A7904
:10500300A28010EE240F126E7A7900800679A180B7
:105013000279C8023252124C37EE12690B2274F233
:10502300120A108A0C8B0DECFEEDFFEC125803E410
:10503300F0A3F09086167808121263EC1250B612A1
:1050430010946067EC240E1257FC703478B39015FB
:10505300ACE070289015DEE064017020EC2411129E
:1050630057F5F91222698B09A909EE1253353F123C
:1050730061E5EA4960047800800278A18808802EFF
:10508300E060046402700A122173E9F50870078076
:105093001DE064037010EEFCEFFDAA0CAB0D121DB6
:1050A300FBE9F50880087508A180037508A3A90822
:1050B300024E8C12690B78082274F0120A1074F5F0
:1050C30012107EEAFEEBFFEA240AFCE43F8C82F531
:1050D30083127B7B12533F74031210488A828B83A3
:1050E300125FDBE970030251A574011210487403C7
:1050F300121040121DD774011212D81253B270034A
:105103000251A5E875F009A4F8AAF075F009E9A41D
:105113002AF974DA28FC740239FDE508240E1264B6
:105123002CE4F0041212D81240E6E5081253353588
:1051330009126E7E8C828D831212C1E5082412122D
:10514300642C12129D90864278081212638C828D11
:105153008378081211AB8C828D83780C12126390C2
:1051630086AA7808121263780C79081209A1E50857
:105173004509450A450B702A74011212D81253557A
:1051830075F009A4F8AAF075F009E9A42AF974E204
:1051930028F582740239F5837401F07A007B0812D2
:1051A30053628E828F83A3A3A3A3A3A3A3A3A3A3C7
:1051B300E02406FCA3E03400FD8E828F83125FDBC4
:1051C3001266FD603EEE240A125327124BDB74680D
:1051D300124C0DE812532139F5837402F0901597A0
:1051E3001212C18C828D831261D4125DC63CF58389
:1051F30012129D90864278081212639015977808D0
:105203001211AB12539D705D90156512534DA3A3FC
:10521300A3A3A3A3A3A3A3A3125DFC121A29E9705A
:1052230010125DBA901565125DCC70051266FD60B3
:10523300348E828F83A3A3A3A3A3A3A3A3A3A312A5
:10524300534D124DA0121E01E960118E828F83A36C
:10525300A3A3A3A3A3125389E4F0A3F08E828F83A5
:1052630012536FE4F012539D600302531C8E828F1E
:1052730083A3A3A3A3A3A3127B779015ACE060033E
:105283000253119015DEE064016003025311750AA5
:105293003A750B00780A120FBC7402121038880A90
:1052A300890B780A120FBC127176120FEAE9705B50
:1052B300E508240E12642C74011253B7C0E0E5080C
:1052C300241112642CD0E0F0E508240F12642C742E
:1052D3003A124C0D9015931212C1E5082412126470
:1052E3002C12129D908642780812126390159378BF
:1052F300081211AB908642780812126390159378C6
:1053030008121094700812535E800312533F125315
:105313009D7006125CBD74A1F0740B026AAF240E7B
:10532300F582E422F8E43FF9E8FCE9FD8882F5839D
:1053330022EA12533922240FF582E422E50812539C
:10534300393509F583E4F0A3F0221276E28E828FD9
:105353008322125359221240EEE8227A007B0290F4
:10536300143EE0F91218D9228A828B83A3A3A3A344
:10537300A3A3A3A3A3A312537D22124BB0240EF520
:1053830082E438F58322A3A3A3A312539122124BE1
:10539300B0240FF582E438F583228E828F83A3A392
:1053A300A3A3A3A3124BA8240FF582E438F5831219
:1053B300535949221253BB22F0852182852283E06F
:1053C3002274F6120A10EAFEEBFF7A237B0012190D
:1053D3002DEE240AF508E43FF5098508821261E5FC
:1053E3007C237D0079001218858508828509831244
:1053F30053B27003025485EEFAEFFB12217F12536E
:105403009D60748E828F831254B864018E828F8361
:10541300A3A3A3A3A3A370071254AE740E802112F7
:1054230053B270101266FD700B8E828F83A3A3E0BC
:10543300A2E050071254A4740D80051254A47405FD
:1054430012670F54036401700712548C7405800BA8
:105453009015ADE0C0E012548CD0E01254C7F58330
:105463008882125822850882850983124B9812611B
:105473007938F583E9800E85088285098312625E97
:1054830080031261A1F00240DF8E828F83A3A3A366
:10549300A3A3A3A3A3A3A312549E22E01261C0A3B8
:1054A300228E828F83A3A3A3A3A3A3124BA812616B
:1054B3007F38F58322A3A3A3A3A3A3A3A3A3A31228
:1054C300537DE0221254CB22126C4EF8A3E022EA61
:1054D3001254DA3BF58322240CF582E42274F11290
:1054E3000A1074E412107E8A0C8B0D8C088D097AD5
:1054F300237B0012192D8A0A8B0BAE0AAF0BEA4FDE
:1055030070030257DD126185E508241512580E68F1
:105513007003A3E0698E828F837004740280027427
:1055230001F0E508240DF8E43509F98882F583E0F4
:10553300FAC3E49AFA95E0FB12580A2AFAA3E03B6D
:10554300FB8E828F83A3A3A3A3125DE38E828F833B
:10555300A3A3F0EE2420F582E43FF583E4F0EE24E8
:1055630021F582E43FF583E4F0EEFAEFFB122233F8
:1055730085088285098312582970098E828F83A337
:10558300740580069015AD125817F0EE2417F50A2E
:10559300E43FF50B8E828F83125822E9850A8285B8
:1055A3000B83F0EE2416F8E43FF9E508240EFAE441
:1055B3003509FB88828983124BF5E5082410FAE448
:1055C3003509FB850A82850B83E0FC88828983E0A9
:1055D300F88A828B83E0C398C39CF8125863F0EE79
:1055E300FCEFFDAA0CAB0D122179E9F50B8E828F2E
:1055F30083E064027006125DBA1257E7E50B60039D
:105603000257D4750C00750D009017ADE06401606E
:1056130005E06402703F1257F96008EE2421125727
:10562300FC70328E828F83A3A3A31261A712582F1B
:10563300EE24161257F5125858FAE439FB123EE7D6
:10564300EA4B6011126A09120FB812583DAA0C12E4
:105653006EA7120FEAEEFAEFFB12223FE9F50B9069
:1056630017ADE064016008E0640260030257C7E914
:1056730070030257C7E50C450D70030257D480032E
:10568300850E0B1257F9600BEE24211257FC6003B1
:105693000257CD850B0E850C08850D09750A007818
:1056A30008120FB812583D8E828F83A3A3A3A312AF
:1056B3007BC0120FEAEE24201257F5600D12580238
:1056C3007468124C0DEE24208015EE24211257F538
:1056D30060151258027403F0A37401F0EE2421F54F
:1056E30082E43FF583E4F0EEFAEFFB12223FE9F5A3
:1056F3000B70907C137D007900740912104012180E
:1057030085741A1212D8740112586E64687002A359
:10571300E0704F8E828F83125389E0640560030229
:1057230056837C0879FF8E828F83A3A3A3A3E024EF
:105733002A125DFF12190FE970030256837C087D5C
:105743000079FF7401121040121885740112104879
:105753007A007B0079AB12215B74191212D874FCA6
:105763008015125802E064037004A3E0640170081A
:1057730074191212D874FFF0E4F508F509780812C9
:105783000FBC740212104874131212D8AA82AB838E
:105793001262E4120FEA852182852283E0602B7472
:1057A30009121038880889097808120FBC75081384
:1057B3007509007808120FBC7C007D00126B57122C
:1057C3000FEA8006E50C450D6007AA0CAB0D121914
:1057D30033EEFAEFFB1219338003750B10A90B7428
:1057E3001C0277D7EE2406FAE43FFB121A2F22EEAF
:1057F300240C12587622EE2420125876640122EEED
:105803001253393FF58322E508240EF582E4350966
:10581300F583E02212581CA322E08E828F8322A3F9
:10582300E0F912228122E054036401221258332248
:10583300E0FAE82AF8E43400F9228E828F83A3A3E6
:10584300A31261AB125833EE24161258761258582D
:10585300FCE439FD22FAE82AF8E439F9E8240422C1
:105863001258672212671EA3A3A322F012587322B1
:10587300EE240FF582E43FF583E0227901020F7FE6
:1058830074F4120A10EAFEEBFF8A82F583A3A3A342
:10589300A3A3A3A3A3124B982424F582E438F5838E
:1058A300125829702E8A828B831254B8702512598C
:1058B30051E06405701D125951A3E0F8740168604A
:1058C30005740668700712536B7402800512536BDC
:1058D3007403F0EA240A1262521261BBE4F0EA2470
:1058E30008F8E43F1232412431F582E43AF583E0CB
:1058F300C0E0126EF2A3A3D0E0125970CA242EF5B1
:1059030082E43AF583E0C0E0126EF2A3A3A3D0E0F1
:10591300125E96C812594B381240E4126EF21259B5
:10592300658A0A8B0BAC0AAD0B8508828509831245
:105933005DFC121A2F850882850983124DA012225D
:105943003F12624DF0023257240BF582E4228A8221
:105953008B83A3A3A3A3A3A3A3A31266E4F58388C2
:105963008222A3A3A3A3124C371223AD22125DD824
:10597300FAA3E02202587EC082C083901587748503
:10598300F0A37421F09015897491F0A37421F09021
:10599300158B7497F0A37421F090158D748BF0A37D
:1059A3007421F0025C8174F4120A10EA2408FEE404
:1059B3003BFF8E82F583125355126191E0F5087413
:1059C300035508F509125DF7F8A3E08882F583E52E
:1059D30008F0A3A882A983E5096009740265096038
:1059E30003025A96740C5508FC600A74086C60052F
:1059F30074046C7026740265097006E508A2E4401D
:105A03001A8A828B83A3A3A3A3A3A3A3A3125B9C3E
:105A13001268EA3D125B37A308A983740C6C701CEF
:105A2300125B982428125B842428F582E43DF583D5
:105A3300A3126518F0E82402F850010974026509FD
:105A43007006E508A2E4404B125B98242A125B849B
:105A5300242AF582E43DF583A3125B46125BA2126E
:105A63006518125BA2A3125B3EE82404F8500109F7
:105A7300EC600F74086C600A740C6C600574046C41
:105A830070111261C82426F582E43C125B37A3A887
:105A930082A9838A828B83A3A3A3A3A3A3A3A31211
:105AA3005B6654037014E508A2E1400E1261C8124C
:105AB3005B313CF583E054806008125B4C125B3928
:105AC300801990155BE0C0E0125B4CD0E0125B796B
:105AD30088828983125B7904125DDDA3A882A9837E
:105AE300E508A2E750458E828F83125B6688828920
:105AF30083125B7F125B6B540360301261C82434E2
:105B0300F582E43C126516F0E508A2E1501D8A8295
:105B13008B83A3A3A3A3A3A3A3A31232462435F584
:105B230082E43A126516A3F0E82403023257241ED6
:105B3300F582E422F583125B46F022125B46A3A3AF
