:020000040000FA
:060000000212350207C1E7
:03002B00020F972A
:03003300020E8436
:030053000206F0B2
:1000830002075201010000000000F8FF07FFFF0014
:10009300000504000000030001FFFFFFFF0005301F
:1000A3007500000020FD000206FFFF1E0100010491
:1000B300010C000204DF850000000104000040146D
:1000C300000000F4010000FFFF91140188130000F9
:1000D300F401000064006400B801A0BB0D00A0BBE4
:1000E3000D00020202070401051E02051E020A0A90
:1000F300010108080103B80B02803E0102FEFFE87C
:10010300030A050001FFFF020A011401E0020000D7
:1001130000050301010F03000300030003000300B4
:10012300030003000300030005000A001400280075
:100133004F009E000000FD2C00000000D12B0000AA
:100143000000FF000000FF001212816046121245FA
:10015300603DE9687008F618F618F618F622748000
:1001630067F712017F090909748067F722121245A4
:10017300601D1212817005191919801A1211247049
:100183001F1210E8C37003E66733191919400718E3
:1001930018182208080874FFF618F618F618F6223D
:1001A3001210E860171212E2702192F01212F4702A
:1001B30019501720F014080808090909E7F6181957
:1001C300E7F61819E7F61819E7F6221212F460E6B3
:1001D300E869701F0808E62480F608E436F6185428
:1001E3007FB47F0CE654806007F6E418F618F62215
:1001F300181822E9C6CC08C6CD08C6CE08C6CFC09B
:10020300E0E8C0E0EAC0E0EBC0E009E9F809E7FA9A
:1002130009E7FBE6F918E6F8C3EC98ED99EE9AEBDB
:10022300C2E7F5F0EFC2E795F0500E600CEBCFFBA1
:10023300EACEFAE9CDF9E8CCF8EAA2E7D2E7FAEB9D
:1002430033FB13F5F0EEA2E7D2E7FEEF33FFC5F081
:1002530013A2E730E601B313C5F0C3C0E0C0F07FDB
:1002630000C39BFB605E9418600F401D14601AD09E
:10027300E023F9D0E0F80203518AF0E9486003D2A1
:10028300F0E4AFF0FAF9F8803BEB30E40D89F0EAE3
:100293006003D2F0E4AFF0F9CAF8EB30E30D88F075
:1002A300EF6002D2F0AFF0E4CAC9F8EB5407601470
:1002B300FBC3EA13FAE913F9E813F8EF135002D278
:1002C300E0FFDBEDD0E0C0E030E739C3E49FFFF5AA
:1002D300F0EC98FC42F0ED99FD42F0EE9AFE42F00C
:1002E300D0E0F9D0E0F8E5F0607AE923F9EE20E711
:1002F30042D8028067C3EF33FFEC33FCED33FDEEEE
:1003030033FE80EAEC28FCED39FDEE3AFED0E02323
:10031300F9D0E0F84002801BC3EE13FEED13FDECB1
:1003230013FCEF135002D2E0FF08B800067F7F747E
:10033300FF802EEF3350178CF020F00260100CBCBE
:10034300000C0DBD00080EBE000408E860DFE933B1
:10035300E813FFEE2313FE4F4D4C8008E95480FF52
:10036300E4FEFDFCEE33EF33F47004FCFD7E80D03D
:10037300E0FBD0E0FAD0E0F8D0E0CFC618CEC61844
:10038300CDC618CCC6F922121245700418181822CB
:10039300121281700D74FFF61819F61819F6181950
:1003A300F622E7548066F61212F4700F1212E2700E
:1003B300F014F608F608F608F680D11212E2700C73
:1003C300F608F608768008E6447F80EC1210EB709E
:1003D3000C12112760BFE65480F6E480BB1211278C
:1003E300700519191980A5E869700C763F18768095
:1003F30018F618F6E8F922E6CDC0E018ECC0E0E6FE
:1004030033CD33CDD313F6E719FCE7191933CC33C6
:10041300C3947F400ECD9D502408E65480F6E41823
:10042300F6800FF4043D14501408E6447FF6187662
:1004330080E418F618F6D0E0FCD0E0FD22CCD3130C
:10044300CCFD18E4C6CBC0E018E4C6CAC0E0080877
:10045300ED08C633E613F618E433C675F003C3CAD2
:1004630097CA09CB97CB199C40047D08802EBD0009
:100473000302053316B6FF050606081618C3CA336A
:10048300CACB33CB33CA27CA09CB37CB193CC37D7D
:1004930008803E187D0820E75CC633C6CA33CACB42
:1004A30033CB33DDF1D5F0EB30E77BCA97CA09CB09
:1004B300974ACB199C406F4B7025E620E02180665C
:1004C300187D08C3CA97CA09CB97CB199CD3C633E7
:1004D300C6CA33CACB33CB3350C9DDE7D5F0E1D33A
:1004E300E4C636C608C636C608C636C608C636C605
:1004F3001818188031C3CA97CA09CB97CB199CB374
:100503004097C633C6CA33CACB33CB33DD34D5F0B9
:100513002EC6A2E0C640C8CA27CA09CB37194A70FB
:10052300BECB3CB480B90808E63308E633601F1835
:100533001818D0E0FAD0E0FBD0E0FCD0E0FD2218A0
:100543007D08CA27CA09CB37CB193CD3808013F661
:1005530018E4B67F11F618B6FF0EF618C60470D26B
:100563000808768080CAF618F618F680C5001212BD
:1005730045604F1212816012E7548066F61211240F
:1005830070111212E2703B090909F4F618F618F615
:1005930018F6221210E870151212F408080860EA1F
:1005A300E6447FF618768018E4F618F6221212F461
:1005B30060161212E27012E4F608F608F608E65422
:1005C30080F609090918181822EAC0E0EBC0E0EC2C
:1005D300C0E0EDC0E0E687F0A4FBACF008E687F0EE
:1005E300A42CFCE435F0FA1809E687F0A42C4B6040
:1005F300027401CA35F0FCE433FB09E687F0D2F755
:10060300A42CCB35F0FC1908E687F0A42BCC35F0ED
:10061300FBE433FD0819E687F0D2E7A42C4ACB3577
:10062300F0CD3400FC09E687F0D2E7A42DCC35F0F9
:10063300FDE433FA0918E687F0D2F7A42CCD35F0A0
:10064300CA3400FC08E687F0D2E7D2F7A42ACC35F7
:10065300F07A7E20E70B0ACB33CBCD33CDCC33CC32
:1006630033CB3350147004ED30E00ED2F1E4CD3DC2
:10067300CDCC3CCC3B5005DA05C2F1EB547FC633FD
:1006830008E63392F0FBE73309E733C39A502D2B87
:1006930070190C0D4C4D70151806E608C333700D18
:1006A30020F10AA2F013F6E418800B4024E4F6309C
:1006B300F002768018F618F618F68024D33B14500F
:1006C3001074FFA2F013F6187680E418F618F6807B
:1006D3000FA2F013F618E63303F618ECF618EDF64E
:1006E300D0E0FDD0E0FCD0E0FBD0E0FA22C0E07423
:1006F300F1120AE4A2AFE433F509D2AF85A708AF3C
:10070300A1EF5508FE74105E60061215D375A1EFB4
:1007130074085E60081215D975A1F78024EFA2E072
:1007230092F0E508A2E082F05017906198E0F8900B
:100733000633E0C398A2D265D0335002E8F075A126
:10074300FE752300E509A2E092AF7F02020BA0C071
:10075300E074F2120AE4A2AFE433FED2AF9061A4D4
:10076300E0F8759B00E59158540860087591F712FD
:1007730016278023E59158541060087591EF1216DF
:100783002D8014E591A2E092F0E8A2E082F05007F8
:10079300E0C2E0F01217839061A3E0F8E5E9585452
:1007A30004600E12175975E9FB906193E0A2E640CD
:1007B300F2752300EEA2E092AF7F01020BA0C0E02E
:1007C30074F2120AE4A2AFE433FED2AF9061A5E063
:1007D300F8E5BF585404600675BFFB12179B80D120
:1007E30012083830F04312087D803E8A088B098C4A
:1007F3000A8D0B780812083820F01430E72B74FFA9
:10080300FCFBFA747F8022E4FCFBFA7480801AB448
:100813008008BC00F2BB00EF800F50EBF9E4C39AF1
:10082300FAE49BFBE49CFCE499C6CC18C6CB18C63F
:10083300CA18C6F922E4C9C608CAC608CBC6D33348
:100843000308CCC63392F0C3947F402E941840190A
:10085300C9B90704CACBCC225025C309CA33CACBB2
:1008630033CBCC33CC33D9F422F4600DC9CCC313CE
:10087300CB13CBCA13CAD9F6CC22E4FCFBFA22145D
:10088300FCFBFA22C3E498F8E499F91208C880261D
:10089300C3E49AFAE49BFBE920E7E91208C8E49869
:1008A300F8E499F922C3E498F8E499F91208C8E442
:1008B30098F8E499F9C3E49AFAE49BFB22EB20E766
:1008C300CFE920E7E0B90010BB0008E88AF084F81C
:1008D300AAF022E4FBC8FA22EB70227B10C833C8CB
:1008E300C933C9335007C39AC3DBF280069A500158
:1008F3002ADBEAC833F4C8C933F4C9FA2275F0080D
:10090300E4C833C8C933C933C99AC99B5004C92A37
:10091300C93BD5F0ECFBC833F4C8E4C9FA22080894
:1009230008EAC0E0EBC0E086F0E7A4FA180986F015
:10093300E7A42AFA180986F0E7A42AFA180986F028
:10094300E7A42AFA1986F0E7A4FBE5F02AFA1908C6
:1009530086F0E7A42BFBE5F03AFA190886F0E7A442
:100963002BFBE5F03AFA18180986F0E7A4C5F02B3B
:10097300FBE43AFA1908E7C5F0C6A426F6E5F03B0E
:10098300FBE43AFA1886F0E7A4F6E5F00826F6E465
:100993003B08F6E43A08F6D0E0FBD0E0FA22E4CFD5
:1009A300C0E0E4CEC0E0E4CDC0E0E4CCC0E075F04C
:1009B30020E626F608E633F608E633F608E633F6CD
:1009C300181818EC33FCED33FDEE33FEEF33FFC3A1
:1009D300EC9709ED9709EE9709EF97191919400F4D
:1009E300FFEC97FC09ED97FD09EE97FE191906D563
:1009F300F0BFECF709EDF709EEF709EFF71919194D
:100A0300D0E0FCD0E0FDD0E0FED0E0FF222521C500
:100A130082C0E0E52234FFC583C0E0E521C39582AF
:100A230024F810AF088583228582218008858322DC
:100A3300858221D2AFCEF0A3E520F0A37808E608A3
:100A4300F0A3DEFAEFF0A3E58124FAF8E608F0A3B9
:100A5300E608F0A3E608F0A30808E608F0A3E60812
:100A6300F0A315811581D0E0FED0E0F81581158142
:100A73001581E8C0E0EEC0E0221212CDB9000302F6
:100A83000ACEE4900501782C79138002F0A3D8FCF8
:100A9300D9FA78239000867A01BA00028007E4939A
:100AA300A3F608DAF97A2C7B1790008778C57901C9
:100AB3008015E493A3AD82AE838A828B83F0A3AACD
:100AC30082AB838D828E83D8E9D9E77582B675832D
:100AD300D37404120F797582417583297400120F40
:100AE30079C0D02521C582C0E0E52234FFC583C08B
:100AF300E0E521C3958224F310AF08858322858224
:100B0300218008858322858221D2AFC8F0A3E9F032
:100B1300A3EAF0A3EBF0A37908E709F0A3D8FAEC72
:100B2300F0A3EDF0A3EEF0A3EFF0A3D0E0F0A3D099
:100B3300E0F0A3D0E0F0A3E520F0A3E5F0F0A322DA
:100B4300E9799EC608CAC608CBC608CCC6C37020BE
:100B53007996CACBCC7019798ECBCC70137986CCAD
:100B6300700EF9802ACA33CACB33CBCC33CC3319BA
:100B730030E7F2CCCBCA3350147004EA30E00DE412
:100B8300CA3ACACB3BCBCC3CCC500209C3E913C60F
:100B9300CC182313C6CB18C6CA18C6F922852283DC
:100BA300852182E0C0E0A3E0F9A3E0FAA3E0FBA380
:100BB3007808E0F608A3DFFAE0FCA3E0FDA3E0FE7B
:100BC300A3E0FFA3E0C0E0A3E0C0E0A3E0F5D0A36F
:100BD300E0F520A3E0A3F5F010AF0885832285821A
:100BE300218008858322858221D2AFD082D083D011
:100BF300E0F8D0E03275F0108E248F2585822985A8
:100C03008328852182852283E0CEA3E0CF852982B4
:100C1300852883EBC9EAC8EDCBECCAC3E833C8E93E
:100C230033C9EA33CAEB33CBC3EA9EF527EB9FF50F
:100C330026B35004AB26AA27EC33CCED33CDD5F045
:100C4300DAAE24AF2522121245601C1212816017FE
:100C53001212F470071212E27001D322C0D01212E2
:100C6300E27006D0D0B322C32233D0D0501430E088
:100C7300F6C3E7960809E7960809E7960809E79691
:100C8300B32220E0D5E6970809E6970809E6970816
:100C930009E697B322D083D082ECC0E0EDC0E0E454
:100CA30093A3FCE493A3FDED4C600D120DBCEC2467
:100CB300FFFCED34FFFD80EFE493A3FCE493A3FD7D
:100CC300ED4C600D120E59EC24FFFCED34FFFD805A
:100CD300EFD0E0FDD0E0FCE493A3C0E0E493C0E0F8
:100CE30022121245601B12128160161212F4700751
:100CF3001212E2600CB322C0D01212E27005D0D0FF
:100D030022C32233D0D0501330E0EBC3E796080957
:100D1300E7960809E7960809E7962220E0E4E697B4
:100D23000809E6970809E6970809E69722852283CA
:100D3300852182E0A3FEE0A3F5207808E0A3F6086E
:100D4300DFFAE0A3FFE0A3C0E0E0A3C0E0E0A3C0BC
:100D5300E0E0A3C0E0E0A3C0E010AF0885822185F6
:100D630083228008858221858322D2AFD083D082DB
:100D7300020F7FD083D082E9C0E0E493A3C386F05F
:100D8300C5F095F0F908E493A386F0C5F095F070EB
:100D93000BE493A3C3994005E9048002A3E475F02F
:100DA30002A42582F582E5F03583F583D0E0F9E4EA
:100DB30093A3C0E0E493C0E022C0E0C3E4939608A9
:100DC3007401939618400FE49366700808740193B6
:100DD300661870007019A3A3C3E493960874019373
:100DE3009618A3A3400DD0E0D0E0D0E0020CD4A32A
:100DF300A3A3A3A3A3D0E0227404800474028000FD
:100E0300CCC0E0EDC0E0E521C39CCCAD2250011D78
:100E130010AF068C218D2280068C218D22D2AF1239
:100E23000EFBD0E0FDD0E0FC2274028000CCC0E0D9
:100E3300EDC0E0E521C39CCCAD2250011D10AF06EF
:100E43008C218D2280068C218D22D2AF120ED9D017
:100E5300E0FDD0E0FC22C0E0C0F088F0E4936670CF
:100E6300080874019366187000A8F0A3A3700BD050
:100E7300F0D0E0D0E0D0E0020CD4A3A3D0F0D0E0D7
:100E830022C0E074F2120AE4A2AFE433FED2AFE56B
:100E93008BA2E05005790412150D758B00C2E8751D
:100EA3002300EEA2E092AF7F01020BA0D083D08299
:100EB300CCC0E0E493A36006120F3B1470FAE493F2
:100EC300A360061210681470FAD0E0FCE493A3C088
:100ED300E0E493C0E022CAC0E0E493A3C582CCC59A
:100EE30082C583CDC583F0A3C582CCC582C583CD1E
:100EF300C583DAE5D0E0CA22CAC0E0E0A3C582CC4C
:100F0300C582C583CDC583F0A3C582CCC582C58305
:100F1300CDC583DAE6D0E0CA22C008C3E096F5085F
:100F230008A3E096420808A3E096420808A3E096C7
:100F330045087001D3D00822C0E0E493A3D39C50AA
:100F430010E493A3C39C400AD0E0D0E0D0E0020EAB
:100F5300CCA3A3A3D0E022700908080822601618C6
:100F63001818C6C333C608C633C608C633C608C670
:100F730033C6D5E0EA22C09FF59FE473D09F22D009
:100F830083D082C09FE493C0E0740193C0E07402F5
:100F930093F59F22C0E0C0D0E8C0E0A8A8D2AFC2BA
:100FA300C7752300E8A2E792AFD0E0F8D0D0D0E035
:100FB300327404800A74038006740280027401C0D0
:100FC300E0F404120FCFD0E0121290222521F58213
:100FD30010AF08F521400C15228008F521400215B9
:100FE30022D2AF8522832200C0D0252110AF08F57D
:100FF30021500C05228008F52150020522D2AFD0E2
:10100300D022BB0102E722C082C08389828A83BBCC
:101013000003E08002E493D083D0822260160808A4
:1010230008C6C313C618C613C618C613C618C613F4
:10103300C6D5E0EA222521F8E43522F9222521FA52
:10104300E43522FB222521FCE43522FD22C3E0C640
:1010530096F608A3E0C696F608A3E0C696F608A39C
:10106300E0C696F622C0E0E493A36C7009D0E0D00A
:10107300E0D0E0020ECCA3A3D0E022252110AF08DC
:10108300F521400C15228008F52140021522D2AF2C
:1010930022E066701008A3E066700A08A3E0667099
:1010A3000408A3E06622E76670100809E766700A81
:1010B3000809E76670040809E76622C3E09608A3F7
:1010C300E09608A3E09608A3E096A2D265D0332267
:1010D300C3E7960809E7960809E7960809E796A281
:1010E300D265D03322191919E70947097009E7278F
:1010F300097005E733F4220922C3E096F008A3E060
:1011030096F008A3E096F008A3E096F022C3E697D2
:10111300F60809E697F60809E697F60809E697F64A
:1011230022181818E60846087009E626087005E62E
:1011330033F4220822C3E493960874019396087447
:10114300029396087403939622E026F608A3E036EA
:10115300F608A3E036F608A3E036F622E627F608FB
:1011630009E637F60809E637F60809E637F6227086
:101173000422600D18C6C333C608C633C6D5E0F4CF
:101183001822E056F608A3E056F608A3E056F60840
:10119300A3E056F622E657F60809E657F60809E6ED
:1011A30057F60809E657F622E026F008A3E036F0E2
:1011B30008A3E036F008A3E036F022E056F008A3D7
:1011C300E056F008A3E056F008A3E056F022E64705
:1011D300F60809E647F60809E647F60809E647F67A
:1011E30022E4C396F608E496F608E496F608E49635
:1011F300F622600D08C6A2E713C618C613C6D5E0CB
:10120300F322C6F4C608C6F4C608C6F4C608C6F474
:10121300C622C3E09608A3E09608A3E09608A3E0DD
:101223009622C3E7960809E7960809E7960809E7AF
:10123300962275D00075813F752101752205000244
:101243000A7CE6084608C3134608336002E633F413
:1012530022600C08C6C313C618C613C6D5E0F42211
:10126300E0F608A3E0F608A3E0F608A3E0F622E61A
:10127300F008A3E6F008A3E6F008A3E6F022E709E6
:101283004709C3134709336002E733F422CAC0E0B6
:10129300E6F0A308DAFAD0E0FA22E8F0A3E9F0A333
:1012A300EAF0A3EBF022E0FAA3E0FBA3E0FCA3E067
:1012B300FD22EAF0A3EBF0A3ECF0A3EDF022E0F8BB
:1012C300A3E0F9A3E0FAA3E0FB22E5C754F8440145
:1012D300F5C77901222521F582E43522F58322E73A
:1012E3002719471947194722C2AF75D69F02000035
:1012F30022E62618461846184622120F826FCE029F
:10130300120F821BCF02120F824BCF02120F82AB3E
:10131300CF02120F823FD002120F82F0D002120FBF
:101323008241D102120F8285D102120F821FD20293
:10133300120F828FD202120F82BED202120F82C408
:10134300D302120F82EED302120F8242D402120F83
:101353008216D502120F8244D702120F82F2D702ED
:10136300120F825FDA02120F82E4DA02120F82E7AF
:10137300DD02120F8214E002120F8258E002120FF4
:1013830082B1E102120F82C4E102120F8201E20272
:10139300120F82BEE302120F829ED504120F82D275
:1013A300D504120F8225D604120F8228D704120FF8
:1013B30082A2F001120F821EF101120F8251F1017C
:1013C300120F827FF101120F82BDF101120F82FA17
:1013D300F301120F8219F401120F825EF401120F4E
:1013E30082F4F401120F8240F501120F82D4F50149
:1013F300120F82ADF601120F8209F701120F8267F5
:10140300F701120F82DAF701120F821EF801120F91
:101413008276F801120F8298F801120F8228F901DF
:10142300120F82B9F901120F8205FA01120F8231EC
:10143300FA01120F8272FA01120F8208FC01120FD5
:1014430082F4FC01120F82CFFD01120F82C7BA048E
:10145300120F82F3BA04120F8213BB04120F823AE3
:10146300BB04120F8281BC04120F82B4BC04120F9E
:101473008273BD04120F820DBE04120F8209E604AB
:10148300120F820EE604120F8241E604120F825AF3
:10149300FD02120F8221FE02120F8233FE02120F8F
:1014A30082A3FE02120F82A7E004120F82B8E004A7
:1014B300120F8256E104120F8261E104120F827B44
:1014C300E104120F82F47F00120F82DE7F00120FFD
:1014D300828AE104120F829AE104120F82AFE104BF
:1014E300120F8263E204120F82A2DE04120F82261D
:1014F300DF04120F828EDF04120F825EDB04120FF1
:1015030082E5DB04120F82EEDB04120F8215DC048A
:10151300120F825DDC04120F8274DC04120F821B33
:101523007C00120F82297C00120F82A27C00120F12
:10153300827B7D00120F823E7F00120F828D7F001F
:10154300120F82CB7F00120F82F87F00120F82A945
:10155300D104120F82E1D104120F822FD304120F90
:1015630082B3D304120F820E9C04120F823A9C049E
:10157300120F82A49E04120F82E49E04120F822093
:101583009F04120F82349F04120F824D9F04120F87
:10159300823FA004120F82F2A004120F8206A1045C
:1015A300120F8282D704120F82A6D704120F82BFB2
:1015B300D704120F82FDD704120F822DD804120F05
:1015C300825AD804120F8264D804120F82CAD80434
:1015D300120F82CDD804120F82D7D804120F82E4DF
:1015E300D804120F826FCA04120F828FCA04120F1B
:1015F30082CECA04120F82ECCA04120F8207CB04F4
:10160300120F826DCB04120F8279CB04120F82D694
:10161300CB04120F82E5CB04120F8209CC04120F04
:1016230082CACC04120F82D7CC04120F82E8CC04F6
:10163300120F825EE404120F82A6E404120F82D218
:10164300E404120F825CA104120F82B6A204120FEB
:1016530082C4A204120F82D7A204120F82ECA20446
:10166300120F8201A304120F8214A304120F82909B
:10167300A304120F82F5A304120F827DA404120F98
:1016830082F5A404120F82CEA504120F82DEA504F4
:10169300120F82EDA504120F82C5E304120F82E933
:1016A300E304120F8211E404120F8239E404120FCF
:1016B3008216CD04120F823DCD04120F825BCD043E
:1016C300120F82CACD04120F829CC704120F82B577
:1016D300C704120F82C1C704120F82D5C704120FA9
:1016E30082F3C704120F82FDC704120F8207C804D6
:1016F300120F821AC804120F82A0C804120F821597
:10170300C904120F8244C904120F8292C904120F32
:1017130082E1C904120F82FCC904120F8206CA04B3
:10172300120F8217CA04120F825ACA04120F82526E
:10173300E504120F829DE504120F822CF603120FAB
:101743008258F603120F8275F603120F8288F6038E
:10175300120F82A3F603120F82FDF603120F822BE0
:10176300F703120F823BFB03120F8299FC03120F44
:1017730082CBFC03120F822EFD03120F829AFE030B
:10178300120F82C2FE03120F82D7FE03120F82E7EB
:10179300FE03120F8227FF03120F8269FF03120F4A
:1017A3008279FF03120F822EDA04120F8248DA04C1
:1017B300120F8270DA04120F8289DA04120F82ADDB
:1017C300DA04120F82CBDA04120F82E2DA04120F68
:1017D3008210DB04120F822BDB04120F8269E204F6
:1017E300120F82ADE204120F823EB704120F824E33
:1017F300B704120F8253B804120F8285B804120F74
:1018030082B5B804120F82D8B804120F82EFB8045D
:10181300120F8229B904120F828EB904120F82D0DB
:10182300B904120F8217BA04120F8244BA04120FBA
:10183300826FBA04120F82A9FE01120F82BBFE014E
:10184300120F82CFFF01120F82D2FF01120F829C6F
:10185300DD04120F82D2DD04120F82EADD04120FBF
:10186300822CDE04120F823CDE04120F8280DE041F
:10187300120F828ADE04120F82179504120F825A06
:101883009504120F82BF9504120F82DE9504120F86
:1018930082809604120F82899604120F82DA9604CC
:1018A300120F82039704120F82109704120F828281
:1018B3009704120F82109804120F82559804120F86
:1018C300828E9804120F82F39804120F821C9904DB
:1018D300120F82939904120F82E29904120F821F4E
:1018E3009A04120F82549A04120F82669A04120FFA
:1018F30082789A04120F82979A04120F82A09A0494
:10190300120F82619B04120F82A49B04120F82E2C6
:101913009B04120F82A9E504120F82EED804120F62
:10192300826BCF04120F82A1CF04120F82E9CF047E
:10193300120F8242D104120F8293C603120F82B98F
:10194300C703120F82F5C703120F82B3C903120F25
:1019530082E1C903120F824BCC03120F828BCC039B
:10196300120F822DCE03120F82C3CE03120F821DDC
:10197300CF03120F82ADCF03120F82F1CF03120FE9
:101983008233D003120F8298D103120F8218D3032C
:10199300120F8259D503120F8287D503120F82B318
:1019A300D503120F82BCD503120F8219D603120F6F
:1019B30082B2D603120F82C9D903120F824FDA0300
:1019C300120F821BE304120F8233E304120F823DD2
:1019D300E304120F8293E304120F8298AA04120FF6
:1019E30082AEAA04120F824FAB04120F828EAB0495
:1019F300120F82ABAB04120F82DCAB04120F8229ED
:101A0300AC04120F825DAC04120F8298AC04120F67
:101A13008295AE04120F82FBAE04120F82A7DF047D
:101A2300120F8206E004120F8244E004120F828533
:101A3300E004120F8286DC04120F8244DD04120FCD
:101A430082B9A502120F82C5A502120F8227A60230
:101A5300120F8231A602120F82BEA602120F82FA61
:101A6300A602120F82F6A702120F8254A802120FC7
:101A730082F4A802120F8274A902120F8243AB02EE
:101A8300120F8285AD02120F82CCAE02120F8209B1
:101A9300B102120F8271B202120F821DB302120F32
:101AA300820CB802120F8202B902120F829AB90293
:101AB300120F82BFB902120F8257BA02120F827538
:101AC300BA02120F82ECBA02120F820BBB02120F80
:101AD3008238BB02120F82D0BC02120F82F1BC0209
:101AE300120F8297BD02120F82DEBD02120F8252C5
:101AF300BE02120F82E0BE02120F823DBF02120F1E
:101B030082B6BF02120F8238C102120F829CC30237
:101B1300120F8225C402120F8253C402120F824095
:101B2300B304120F82E3B304120F82E8B404120F5A
:101B330082CDB504120F823FBE04120F82FEBE0493
:101B4300120F8264BF04120F8213C004120F826249
:101B5300B103120F8291B103120F8209B203120F64
:101B63008218B303120F8274B303120F82E1B4031A
:101B7300120F82FDB403120F824FB503120F82922C
:101B8300B503120F82A5B503120F82FDB503120F21
:101B930082BFB603120F823BB703120F8272B703E1
:101BA300120F82AAB703120F823CB903120F821BD2
:101BB300BA03120F8269BB03120F824CBC03120FCC
:101BC30082D8BC03120F8218BD03120F8237BD03E4
:101BD300120F8282BD03120F82A2BD03120F823B3A
:101BE300BE03120F82C1BE03120F821CBF03120F6A
:101BF300825CBF03120F82F2C103120F820BC30375
:101C0300120F8251C303120F8246C403120F826E56
:101C1300C403120F8271C403120F827BC403120F19
:101C23008297C403120F8211C503120F824AC503A0
:101C3300120F8276C503120F829DC503120F82C154
:101C4300C503120F8232C603120F8245C603120F59
:101C53008274C603120F82D5E404120F82E1E404F6
:101C6300120F8215E504120F82F17F00120F8233E7
:101C73009B03120F82569B03120F82A39C03120F26
:101C830082EC9C03120F82589D03120F82B69D03B0
:101C9300120F82B99D03120F820A9E03120F827FD5
:101CA3009E03120F82049F03120F82079F03120FDA
:101CB30082889F03120F82C99F03120F82B5A30369
:101CC300120F825FA503120F82AFA503120F823694
:101CD300A903120F8269AA03120F82E3AB03120F47
:101CE3008280AC03120F826BAD03120F82C0AF036D
:101CF300120F82AEDA03120F8258DB03120F82C374
:101D0300DB03120F82DEDB03120F8263DC03120F8D
:101D130082BDDC03120F8204DD03120F826BDD032D
:101D2300120F82EADE03120F8219E003120F82A15F
:101D3300E003120F82AAE203120F825F9104120FD3
:101D430082FBE303120F82CCE403120F8287E603C4
:101D5300120F821FE803120F82B2E803120F8208E8
:101D6300CC02120F82008003120F82638003120FD2
:101D730082AB8003120F82EF8003120F824A81032A
:101D8300120F82A78103120F82E28103120F826472
:101D93008203120F82BE8203120F823C8403120F4E
:101DA30082BC8403120F82178503120F82318503CD
:101DB300120F82528503120F8270C702120F8228FC
:101DC3008803120F82478803120F82378903120F89
:101DD300826A8A03120F82E98A03120F82258B0318
:101DE300120F82948B03120F82498C03120F8221EC
:101DF3008E03120F82288F03120F82A09003120FFB
:101E030082969203120F820C9503120F82E69603B9
:101E1300120F82A79703120F821F9803120F8236A5
:101E23009803120F822D9903120F82219A03120F26
:101E330082909A03120F82AAC404120F8201C6046D
:101E4300120F82C0C604120F8228C704120F8285A4
:101E5300C104120F82A0C104120F82E4C104120F45
:101E6300820AC204120F8231C204120F8249C204D1
:101E7300120F82EBC204120F8200C304120F8223DB
:101E8300C404120F822CC404120F8235C404120F2F
:101E9300823EC404120F8248C404120F821EA60499
:101EA300120F822AAA04120F822FAA04120F823160
:101EB300AA04120F822BD404120F824FE604120FCE
:101EC30082C6FF02120F82A9FF03120F82B9FF031A
:101ED300120F8208AF04120F82008002120F8233A6
:101EE3008002120F829F8002120F823A8102120F28
:101EF30082D78102120F821C8202120F823E82025B
:101F0300120F82578202120F827D8202120F829F6A
:101F13008202120F82DD8202120F82218302120FCC
:101F230082438302120F82A58302120F826C840202
:101F3300120F82238502120F82958502120F82608F
:101F43008602120F82B38602120F82198702120FC2
:101F530082538702120F82A58702120F821388020F
:101F6300120F827E8802120F82818802120F820270
:101F73008902120F82998902120F82198A02120FA3
:101F830082388A02120F829C8B02120F82A98B0263
:101F9300120F82B58C02120F82C28C02120F82CBF7
:101FA3008C02120F82A38E02120F82BD8F02120FB8
:101FB30082369002120F82A89002120F82CA9002F8
:101FC300120F825E9102120F82329302120F820964
:101FD3009702120F821D9702120F822D9702120F82
:101FE30082379702120F82409702120F824997029B
:101FF300120F82539702120F82809702120F82A947
:102003009702120F82B49702120F82D89702120F0F
:1020130082FC9702120F82669802120F82AC98021A
:10202300120F82C99802120F82469902120F827D03
:102033009902120F82BC9902120F82099A02120F9F
:10204300828F9A02120F825D9C02120F82E09C0221
:10205300120F82C49D02120F822BA002120F8284E0
:10206300A002120F82CEA002120F8229A202120F27
:10207300825EA202120F82B0A202120F8265A30235
:10208300120F8214A402120F8251A402120F82E6CD
:10209300A402120F8252A502120F825E2F00120FAA
:1020A30082902F00120F82BE2F00120F82943100F4
:1020B300120F82743200120F82CC3200120F820789
:1020C3003400120F82533400120F827C3700120F38
:1020D300826F3A00120F82BF3B00120F82553C0001
:1020E300120F82613C00120F82933C00120F821682
:1020F3003E00120F82C73F00120F825B4000120F97
:10210300829E4000120F821C4100120F823941004F
:10211300120F82694100120F829E4100120F826EDC
:102123004200120F82174300120F829D4500120FC7
:1021330082BD4600120F82A84700120F822A480070
:10214300120F825E4C00120F829B4C00120F82F31F
:102153004C00120F82264D00120F82904D00120F79
:1021630082C64D00120F82514E00120F82A94E00FB
:10217300120F82804F00120F82395000120F82D447
:102183005000120F82DC5300120F82F85400120F1A
:10219300829B5800120F828F5900120F82925900AE
:1021A300120F82C15900120F82C75B00120F82A067
:1021B3005C00120F82E35C00120F82395E00120F83
:1021C30082785E00120F82015F00120F82355F007A
:1021D300120F82FA5F00120F82126200120F8283C3
:1021E3006200120F82C36200120F82516300120F4A
:1021F30082736400120F82356500120F823C670000
:10220300120F82546700120F82686700120F82A0B8
:102213006700120F82CE6700120F824D6900120F02
:1022230082726A00120F82CF6A00120F82816B00E2
:10223300120F82A86B00120F826F6C00120F8207BD
:102243006D00120F822D6F00120F82626F00120F4A
:1022530082C56F00120F82F47000120F829C71000E
:10226300120F82CD7100120F82E57100120F82747A
:102273007200120F82287500120F82007700120F6E
:10228300821C7700120F82387700120F82067800C3
:10229300120F82F97B00120F82C08601120F82F2A5
:1022A3008601120F82E18A01120F822D8B01120F18
:1022B30082738B01120F82158C01120F82718C01B4
:1022C300120F82B68C01120F82FD8D01120F821143
:1022D3008F01120F82009301120F82849301120F58
:1022E30082919401120F82ED9401120F82DD960107
:1022F300120F82529701120F825C9701120F8269AB
:102303009701120F82949701120F827B9801120F8B
:1023130082259901120F82A39901120F82C3990199
:10232300120F82EC9901120F820E9A01120F826E24
:102333009C01120F82349D01120F82799D01120FAD
:1023430082F69D01120F82A79E01120F82D99E0170
:10235300120F821F9F01120F825B9F01120F82AB2C
:102363009F01120F82FF9F01120F8255A001120FCE
:1023730082A1A001120F820EA101120F8289A10175
:10238300120F8254A301120F8254A401120F8279F7
:10239300A501120F82B8A801120F82CBAB01120F55
:1023A3008288AC01120F82CCAC01120F827CAE0189
:1023B300120F8290AE01120F829AAE01120F82A405
:1023C300AE01120F82B0AE01120F82CCAE01120F1A
:1023D3008277AF01120F82B6AF01120F82C0AF0135
:1023E300120F82CAAF01120F823AB001120F828517
:1023F300B001120F829AB101120F82F6B101120FCE
:102403008277B201120F8236B301120F823FB401F9
:10241300120F8273B501120F8261B601120F827916
:10242300B601120F82D4B601120F82F2B601120F57
:10243300823AB701120F8261B701120F82FCB70112
:10244300120F82C2B801120F8254B901120F82CE49
:10245300B901120F82E8BA01120F8295BB01120F64
:1024630082BDBC01120F820DBD01120F8271BD012D
:10247300120F82D3BD01120F8201BE01120F8225FA
:10248300BE01120F825ABE01120F828BBE01120FC0
:1024930082BEBE01120F82DEBE01120F8246BF0151
:1024A300120F823AC001120F8295C001120F82BE31
:1024B300C001120F8246C101120F82C9C101120F5E
:1024C30082F4C101120F82D9C201120F8217EB03EA
:1024D300120F824FEB03120F8270EB03120F82B2C3
:1024E300EB03120F8214EC03120F821EEC03120F84
:1024F300822EEC03120F8269EC03120F8249F00360
:10250300120F8236F203120F821CF403120F82B3EE
:10251300F403120F8255F503120F82DBC401120F6D
:102523008259C501120F82B5C501120F8200C6017F
:10253300120F821BC601120F8246C601120F82635D
:10254300C601120F826FC601120F8206C801120F55
:10255300821FC801120F82A4C801120F82B7C801DB
:10256300120F82D6C801120F827AC901120F82FBA1
:10257300CA01120F82AECC01120F8244CD01120F99
:102583008247CD01120F82B7CD01120F82D5CD0143
:10259300120F826CCE01120F82B4CE01120F82B7DA
:1025A300CE01120F827DCF01120F82EACF01120FEB
:1025B3008210D001120F829BD001120F82B9D00179
:1025C300120F82FFD001120F82B3D101120F82FDCD
:1025D300D101120F822CD201120F8289D201120F64
:1025E30082BED201120F82EAD201120F82F8D20107
:1025F300120F8245D301120F82B5D301120F82FE4F
:10260300D301120F824AD401120F8276D401120F22
:102613008281D401120F829FD401120F828AD501C5
:10262300120F8294D501120F82CFD501120F82DFD0
:10263300D501120F82E8D501120F823CD601120F89
:102643008250D601120F827FD701120F8296D701D3
:10265300120F82ABD701120F8239D801120F827E7B
:10266300D801120F820AD901120F8215D901120F54
:102673008257DA01120F8272DA01120F82BEDA0177
:10268300120F822DDB01120F8266DB01120F828093
:10269300DB01120F82C2DB01120F8292DE01120FE5
:1026A300823FDF01120F82ACDF01120F82ECE101E6
:1026B300120F8204E201120F8207E201120F82134A
:1026C300E201120F8227E201120F822FE201120FA1
:1026D3008262E201120F8264E301120F82EBE301D3
:1026E300120F825BE401120F82DDE401120F829E5E
:1026F300E501120F82BDE501120F825EE601120FA2
:1027030082BBE601120F82BEE601120F82EBE601E5
:10271300120F8200E701120F8274E701120F82C3C6
:10272300E801120F82C9E901120F8254EA01120F64
:10273300826FEB01120F8237EC01120F8268EC01FA
:10274300120F828BEC01120F8294EC01120F82C3E1
:10275300EC01120F8253ED01120F8209EE01120FE9
:10276300827EEE01120F8225EF01120F829AEF0192
:10277300120F82D1EF01120F820FF001120F824567
:10278300F001120F82BFC802120F82F89004120FD9
:1027930082E49004120F82419004120F82418F044D
:1027A300120F825A8E04120F824A8C04120F82581F
:1027B3008B04120F82F68A04120F8246FD02120F57
:1027C300823CFD02120F82D1FC02120F82D8E90370
:1027D300120F8213C802120F8202FB02120F82C071
:1027E300FA02120F822AC702120F82F5C602120FD3
:1027F30082C4F902120F8298F902120F824FF90272
:10280300120F8290F802120F827CF502120F823DA2
:10281300F302120F820AF302120F82B1F202120FB5
:102823008244F202120F8203F202120F823CF1027F
:10283300120F82D6F002120F8275F002120F821568
:10284300F002120F82ECEE02120F8280EE02120FE0
:1028530082D8ED02120F82D3ED02120F82C7ED026E
:10286300120F82FAE902120F82D4E902120F82C216
:10287300C602120F82ADC602120F8282C602120F67
:1028830082D19404120F829D9404120F8246940401
:10289300120F82B49204120F8272E902120F821392
:1028A300E902120F82D4E802120F82C1E802120F6A
:1028B30082069204120F82B6E802120F8285E802A2
:1028C300120F8272E602120F82E5E502120F82AC4A
:1028D3008503120F82A1E502120F82699104120F80
:1028E3008275E502120F82868A04120F82598A04C6
:1028F300120F82268A04120F82FE8904120F829F0E
:102903008904120F827F8904120F824A8904120FED
:1029130082F68504120F82DE8304120F82C88104BB
:10292300120F82488104120F82F48004120F82A8CE
:102933008004120F82008004120F8257E303000009
:102943000080FB000022E4738F000100B1178700B1
:102953000100AF17350004007817250002007C172B
:10296300260002007E1727000200801728000100BE
:102973008A17290001008B17840004001C158600A8
:1029830001003A172A0001008C172B0001008D1754
:102993002C00010091172D00080028152E000100BE
:1029A30092172F0001009317300001009417310094
:1029B3000100951732000100301533000100311575
:1029C300340001009617360001003215380001006B
:1029D300971739000100901783000200AD176300B9
:1029E30001003E15640001008E17650001008F177A
:1029F3006D0001003F1571000800201566000100FD
:102A0300AC17430001009D17440002009E174500C8
:102A13000100A01746000200A11747000800361561
:102A230048000100A3174B000100A4170400010094
:102A3300B017A1000100B41737000100B3178800D5
:102A43000100B2173C00010033153D000100981747
:102A530049000200A5176700010040154D00020060
:102A6300A7174E000100A9174F000200AA173E0046
:102A730001009C17510001003415520001009A1700
:102A8300530001009B17540001003515000000009E
:102A930000000001363601010001020100010301BB
:102AA30000010401060605020000070100340801C5
:102AB300000F090401010D0100FF0E0800001702B9
:102AC3000000190100FF1A0100011B0100FE1C0197
:102AD30000081D0200001F01000120010001210266
:102AE30000002301000F240200002601000127013A
:102AF3000008280200FF2A0100072B0102402C01D5
:102B030000002D0100012E0100012F0100FF300103
:102B13000B1D310800003A0100083B01000F3C0186
:102B230000013D0100FF3E04000042040000460492
:102B330000004A0400004E04000052040000560442
:102B430000005A040000000000002001BA860000C3
:102B530001002001BC86000002002001BE860000A7
:102B630003002001BB86000004004201A085000091
:102B730005004201768500000600420165850000DC
:102B830007003001BF860000004042016585000058
:102B9300FDFF2101B8860100200020054217010036
:102BA30021002005431701000002210544170204F8
:102BB300000029050C140804000021050E14080464
:102BC3000002210512140804010221054417010320
:102BD3007103010301030103010301032203020340
:102BE30001031003000300030003000300030003B9
:102BF300000342030003240306030003000304034A
:102C030012032503230325032303040304030003FF
:102C130000030003440300030003230300036503CD
:102C230021003503810300030503000300030003B0
:102C33000003250323030302710230016002110222
:102C430070020102020202028002100261023A00D3
:102C53004100630273027202620243020002130222
:102C63003800000200020402120200020002000205
:102C7300000204020402370037003C02440200024F
:102C830039000002000265020002350281020002DF
:102C930005028202830200020101710101010101A7
:102CA30011010101310101010101800110016101E3
:102CB3003B001400630173017201620143010001CF
:102CC300130106013D013500040112010001000159
:102CD3000001000104010401330133013C014401FB
:102CE3003201360000010001650100013500810158
:102CF300000105018201830100010300710030011D
:102D030060001100700031022003500480001000A5
:102D1300610000001400630073007200620043004E
:102D23000000130006000000000004001200000071
:102D330000000000000004000400370037003C02DC
:102D430044000000000000000000650000003500A2
:102D53008100000005000000830000003600010030
:102D6300060000000F00000000000000000000004B
:102D7300000003FFFF00000403FFFF0000FFFF0F3D
:102D8300F4010005C4040320000100000B0000004F
:102D9300000000000003010F00000000000000001D
:102DA3000000000000000000000000000000000020
:102DB30000000000000000000000FB1A191B011BAB
:102DC3005F1A000000000000000000000000000087
:102DD3000000071B5F1A000000000D1B5F1A0000B4
:102DE300000000000000131B5F1A00000000000039
:102DF30000000000000000000000000000000000D0
:102E030000000000000000000000000000000000BF
:102E130000000000000000001D1D01001D1D020038
:102E2300931C02808D1C0300991C04009F1C0480CA
:102E3300A51C0500AB1C0600B71C3100C91C3300E0
:102E4300CF1C3400D51CFFFF000003000300040067
:102E5300080010001F003E007B00F600EC01D703C2
:102E6300AF075D0FB91E713D000007ECFDFDFDECE2
:102E7300DCDCCCBCACAC9C9C8C7C7C6C6C5C5C5C0F
:102E83004C4C3C3C2C2C1C1C03EAF5E5D5D5C5B5B4
:102E9300A5959585857575656555554545353525DF
:102EA300251515050A112302DB2205E72207E12276
:102EB3000CC3220DCF22FF000000160F00000B15DC
:102EC3000B020002220F3300000E0F5A696742659E
:102ED30065416C6C69616E63653039D0D1D2D3D4EE
:102EE300D5D6D7D8D9DADBDCDDDEDF3030161819DA
:102EF30020231A1C1E3000034D4C4651181A250579
:102F0300020001191618161618230300303017187B
:102F13001921301B1D1F30003C40423A3F3F392FDF
:102F230047300C0E020B040B0A0708000F020402C1
:102F3300010101010902E803000000BE040A0100C7
:102F430024000300E803FF04091103100F030A0C14
:102F5300041E0828020C0508151E05C082C0831232
:102F630013B190156974B3F0A37420F090156B74CA
:102F7300B9F0A37420F090156D74BFF0A37420F022
:102F830090156F74C5F0A37420F0025C9974F71266
:102F93000A1090155DE4F0E990155CF07C367D1520
:102FA3007A5E7B15121A2F9017A3E0901566F090A6
:102FB30015677420F0A37415023F2674F0120A10EB
:102FC300EAFEEBFF5480700302312F90155C123F31
:102FD300BB7003023128EA241B125826707CEA24B2
:102FE3001F12582664137002A3E0706E8A828B83CB
:102FF30012317D901577124DB8750A00750B00805C
:103003000D123DFC126E98121933AA0EAB0FEA4B48
:1030130060488A828B83E0650C7004A3E0650D70C1
:103023002C8A828B83A3A3A3A3E0F50EA3E0F50F61
:10303300E50A450B8A828B83A3A3A3A360C3124033
:10304300FE850A82850B83A3A3A3A380B78A0A8B79
:103053000B8A828B83124DB480B4E508242A12585C
:1030630026FCE5082402F8E43509F9E8FAE9FB90BF
:103073001577123264A3A3E06402703C8A828B83C7
:10308300124DB8800B88828983A3A3A3A31240FEA9
:10309300E849601F88828983E06A7003A3E06B704C
:1030A300E488828983A3A3E06C70DA9017A9125B8A
:1030B30056806BECF91220EF850882850983E06462
:1030C30001704FE5082418123166120FC0126440D4
:1030D300120DFBE5082412123166120FC0E5081227
:1030E3003FAF120FBCE508240B126444120DFFE539
:1030F300082417123F4CE5082402FCE43509FDE5DA
:10310300082419FAE43509FB12291D740A120FEA7F
:10311300800CE064027007AA08AB091221CDAA084B
:10312300AB0912189DEEFAEF6480802DEA54026019
:103133000C9017BC7401F0EA6402FA8023EA540885
:10314300601A1220E9EA4B700B90157912631B7A0F
:1031530008123173EE6408FAEFFB80047A007B00F7
:10316300026ACAF582E43509F583E0F50A780A2292
:10317300FB90155CE0F91219FF22A3A3E0F50CA361
:10318300E0F50D227B0090155CE0F91219F374044D
:103193002274F4120A108A088B098A828B83A3A3F0
:1031A300A3124BB0123F5738F583E02409FA126A91
:1031B3006270030232578A828B837402124C258514
:1031C3000882850983123264E8F0A3E91266DC8A77
:1031D300828B83A3A3A3A3A3A3A3A3F0E508240340
:1031E300F8E43509123259123F573AF583E08E82DB
:1031F3008B83A3A3A3A3F0EE2409FAE43FFB8E82FF
:103203008F83A3A3125E08F5838882E0A2E58E82F2
:103213008F83A3A3A3A3A3500474018001E4F0E567
:10322300082403F5828983124DB8EA1253393BF51A
:1032330083126A29120FB8123F563B125EFA8E822E
:103243008F83A3A3127BD8120FEAEEFAEFFB90153C
:103253005C126AAF8016F98882F583E0FAA3E0CAAC
:1032630022124F55A3A3227402120FEA7F04020D08
:103273003074F2120A108A088B09ECFAEDFB740E13
:103283001212D8E0FC1213E78A0C8B0DAE0CAF0DB3
:10329300EA4F6030AC08AD091213D5E96026AC08DB
:1032A300AD09EEFAEFFB1213DBE970148E828F8304
:1032B3001240EBFAEFFB1213CFAA08AB091213FF6C
:1032C3007900800279B4024EA474F0120A1074F6E5
:1032D30012107EEAFEEBFF8C088D09750FB3852172
:1032E30082852283E4F0750E008002050E902F5D27
:1032F300E493F8E50EC39840030233F3AA0E7B0070
:103303001214238A0A8B0BEA4B60E08A828B83A315
:10331300A31233FA28F0F8C3EE98EF940050CC7C54
:10332300157D007900AA08AB09121885850A8285E4
:103333000B83A3A3A3A3126ED5E0F8EEC3982925AC
:10334300E0F8E433F9E50A28F582E50B39F583A3C0
:10335300A3A3A3A3A3123F61A312597D8A0C8B0DD0
:10336300AC0CAD0DAA08AB09121A2F850A82850B86
:1033730083A3E06401700A1264407401123F7380F6
:10338300447401121048850A82850B83124DB612CC
:10339300140BE9603D74091212D8E0C0E0126440D6
:1033A300D0E0F074091212D8E064037013740112B0
:1033B3001048E508240BFAE43509FB121A2F801292
:1033C30074011212D81240FEE5081259633509122E
:1033D3006E96850A82850B8312644C123F73A3A3F6
:1033E300E0C0E0E5082414126444D0E0F0750F0057
:1033F300A90F740A026AC7A3A3A3E0F885218285F3
:103403002283E02274F7120A10E9FE8A828B83A3D7
:10341300A3A3A3A3A3E0540860338A828B83A3A34B
:10342300A3A3A3A3E0540260218A828B83A3A3A353
:10343300A3A3A3A3A3A3E06406600F74E96E600AC9
:1034430074CD6E600574F06E70031220D10247A331
:1034530074F0120A1074EF12107E740F1212D81245
:1034630061FF74081212D8E9F0ECFEEDFF74051247
:1034730012D812456B12478FA3E0F91213F37406A7
:103483001212D81261FF74061212D81253CA7003B3
:1034930002370E123F9BE0FA74061212D8E0F912BB
:1034A300201112376EF8A3E0F9E849700302370ED2
:1034B300EE2403F50AE43FF50BEE2406F508E43F9A
:1034C300F5097C00850882F583124DB8850A82854B
:1034D3000B83E0F91213F974031212D81261FF85FA
:1034E3000A82850B83E0C0E085218285228312371F
:1034F30067D0E01254DFF9852182852283123E03CF
:103503001250311233FDFAA3E0CA2407F582E43ADC
:10351300F583E8F0A3E412620A2406F582E438F5A1
:1035230083E4126EA2124BA4120FB8EE123F573F60
:10353300125EFA74031212D8124BB02409127BD212
:10354300120FEA74291212D8126ECF12325E12547D
:10355300F23A126E96742B1212D8E0C0E0852182E3
:10356300852283125391D0E0F074021212D8E4F052
:1035730074251212D8780812126302366574031286
:1035830012D8125EC28882F583123756A3A3A31200
:103593005988FB121411850E82850F83A3EAF0A3C9
:1035A300EBF074031212D8123767A3123756125B6B
:1035B30097A2E6500F850E82850F83A3A3A3A3A32F
:1035C300E0D2E1F074051212D8E0706B850E8285AB
:1035D3000F83A31240FE9015B7E0687003A3E06960
:1035E3007055850E82850F83A3A3A3123F36750CF6
:1035F30000780C120FC07808120FB474291212D875
:10360300E0F50C780C120FC074271212D8120DFFBC
:103613009015C4120DFF790074191212D8124D8837
:10362300122215740A120FEA850E82850F83A3A353
:10363300A3A3A3E04405F074021212D8E004FC8EA5
:10364300828F83124DB28E828F83A3A3A3E0F912DC
:1036530013F974031212D81261FF74021212D8E024
:1036630004F074031212D81253CA60677402121260
:10367300D8E0FA74061212D81240FEC3EA98E4990D
:10368300505174021212D8123A4085218285228346
:10369300E028F8A3E039F9E8240FF50EE439F50F33
:1036A300850E82F583E4F074031212D81237616435
:1036B30001600302358074051212D87401126AB5D1
:1036C300F074031212D8125C89123A63E8F0A3E98A
:1036D3000235A4852182852283124DB812201785D5
:1036E3002182852283120DFF74261212D8E0FD7405
:1036F300251212D8E0FC740A1212D8E0F9EEFAEFA0
:10370300FB1220CB7402120FEA80438E828F83A3B5
:10371300A3A3E0C0E0740C1212D8D0E0F012691E2B
:10372300E0C0E0740D1212D8D0E0F074061212D883
:103733001253CA7009740E1212D874B98007740E2A
:103743001212D87410F0740912104012220F74115F
:10375300026AC7E0850E82850F83A3A3A322E0122A
:1037630054B7E022E01254B7A3A322852182852215
:1037730083EAF0A3EB1253D32274F0120A1074E11C
:1037830012107E74041212D8E9F074031212D8ECEA
:10379300F074021212D8EDF08A0E8B0F742F1212EE
:1037A300D812317FAA0CFB12200574011212D8E93A
:1037B300F0AA0CAB0D12200B74011212D8E07003A7
:1037C300023A3B852182852283E480158E828F8392
:1037D300A3A3A3A3A3E0D2E3F0852182852283E000
:1037E30004126A0DF8852182852283E0C398400381
:1037F300023A3274011212D8E07003023A32852180
:1038030082852283123A40E50C28F8E50D39F9E860
:10381300240FFEE439FF8E82F583A3A3A3A3A3E0C1
:10382300A2E040B5750800750A08750B0074021212
:1038330012D8E060037508207C087D0079007405C8
:103843001210401218858E828F83E0603E90160717
:10385300E06401701AE508D2E3F508750B10123A1B
:10386300501212D8E8F0A3E912587B74FF80764314
:10387300080C750A0C8E828F83A3123A5B126E9822
:1038830074051212D874FFF0A3805A74041212D86C
:10389300E06009E508D2E6F508750A0A8E828F838F
:1038A300A3E064FE7003A3E0F4703074121212D824
:1038B300740412646AF8741D1212D8E8124C257449
:1038C30012121040121F337D007C00790074151210
:1038D30012D8AA82AB83121D05800B123A50121222
:1038E300D8E8F0A3E9F074071212D8E508F0123F04
:1038F30092C0E074091212D8D0E0F0740A1212D800
:103903007401F074051210401221D374111212D8ED
:10391300E06003023A10740D1212D81254DA8E8248
:103923008F83A3A3A3A3F0740D1212D8124BF3E554
:103933000AF0A3E50BF074031212D8E0C0E0124BB7
:1039430084D0E0125B976011901607E0C0E0740D1D
:103953001212D8124BCED0E0F0740D1212D81240CE
:10396300FE850C82850D83A3A3A3A3A3123A492446
:103973001C1261F9126EB2123A4B125B4939126989
:103983003DC0E0124B6BD0E0126A02C0E0740D122E
:1039930012D81246B1D0E0126703C0E0740D1212C0
:1039A300D81246A7D0E0F0740D1212D8123A5B1267
:1039B3003A49242A1261F9850E82850F83A3A3A3B2
:1039C300A3A3A3A3A3E01261F2123F81C0E01246B6
:1039D30093D0E0F0740D1212D8124DB8850E828583
:1039E3000F83126A182428F582E43B126E96123F65
:1039F3008A126A29120FB8125EF3EA12618B3B1224
:103A03007BD6120FEA74051210401221D98E828FD1
:103A130083A3A3A3A3A3E0D2E0F074111212D8E00E
:103A230060030237CF74011212D8E0140237DB7936
:103A330000AA0CAB0D1220D7741F026AC7E075F001
:103A430007A4F8A9F022A3A3124DBCE8228E828F0B
:103A530083A3124102740522E0123A63A3A3A322B3
:103A6300F8A3E0F9850E82850F83A32274F0120A6E
:103A73001074E812107EE9852182852283F08A0E74
:103A83008B0F8A828B83A3A3A3A3A3A3A3A3E0F98E
:103A930012202F8A088B09EA4B7003023B4CE50E78
:103AA30012534D123FAA123F41852182852283E0A2
:103AB3006003023B4F7C04850E82850F83A3A3A37F
:103AC300A3A3A3A3A3E0F9122035EE4F607B8E825C
:103AD3008F83A3A3A3A31240FE74071212D8126309
:103AE300301240FE74091212D8124C55C0E0741102
:103AF3001212D8D0E01266E1A3A3A3A3A3A3A31237
:103B030040FE740F1212D8126E9874121212D8E477
:103B1300126ABDC8241FF582E438F583125EBEC461
:103B230013135403FC70027C048E828F83E0F978B4
:103B330008120FBC742059FD744059F97403121014
:103B4300401220CB7402120FEA026AC57C08850E6C
:103B530082850F83A3A3A3A3A3A3A3A3E0F91220A6
:103B6300358B0BEA4B7003023ACDEE4F60DB8521B8
:103B730082852283E0F50C780C120FC085088285BC
:103B83000983A3A3A3A3A3A3A3E0F50C780C120FAB
:103B9300C08A828B83A3A3A3E0FB8A82850B831253
:103BA30076F58A82850B83E0FA8E828F83A3A3E066
:103BB300F91229237402120FEA023AD174F7120A96
:103BC3001074FA12107EE9FE780179017F008003F8
:103BD30079000F124F34E0FCEFC39C5026EF75F0D1
:103BE30007A4FC85F008AD08EA2CFCEB3DFD12456B
:103BF30023E0A2E050DA540C60D6E0A2E250D3787E
:103C03000080CF8A828B83A3A3A3A3A3A3E0703DE9
:103C1300E9A2E0400574016E70338A828B83A3A30B
:103C2300A3A3A3A37401123F13E0C0E07403121211
:103C3300D8D0E0124582E0C0E074041212D8D0E07C
:103C4300F074051212D8E8125E5D12220F74060298
:103C530047A0C082C08379011220D7025C9974F413
:103C6300120A10EA4B9017BC6019E4F08A088B091A
:103C7300F50AF50B7808120FB47A02123187120F86
:103C8300EA800A7401F07A027B0012317402326F07
:103C930074F0120A1074F312107E74031212D8E433
:103CA300F0A3F0901577123F4174011212D8E4F09B
:103CB300A3124C2A04F09015B1E0A2E35003023D95
:103CC30086123F0774091212D812129D7409121238
:103CD300D878081212639015797808121050740579
:103CE3001212D87808121272123E0A74051212D8F0
:103CF300780812121550077A017B00023DF774050C
:103D03001212D8780C1212639017A8E0F509780CF8
:103D130079081209A1A80CA90D9017A9E0C398E48A
:103D2300995003E08001E8852182852283F074099C
:103D33001212D87808121263C008C009C00AC00B57
:103D430074051212D8780C121263123E0A780C7999
:103D5300081209A1E4F50AF50BD00FD00ED00DD04F
:103D63000C780C7908121110901579780C121272D4
:103D73008011123DFC126E98EEFAEFFB121933AE6E
:103D830008AF09EE4F60658E828F831233FAC398B2
:103D9300502DEE2403F8E43FF9E0FA88828983E0AA
:103DA300C39AF0602374031212D81242647401128E
:103DB30012D8EEF0A3EF12634BFEA3E0FF80C48E94
:103DC300828F83A3A3A3E4F08E828F83127B8F74ED
:103DD300011212D81253CA8E828F83A3A3A3A360A6
:103DE300911263241212D8123E03808974031212B3
:103DF300D8124DB8740D026AC7124102901577228A
:103E0300125EE9A3A3A3229017A7127B97E4F50AF6
:103E1300F50B2274F0120A108A088B09890A7800BC
:103E23007900901577123F41FBEE4B601E088E829E
:103E33008F83A3A3A3A3124D82601008E870010926
:103E43008E828F83123F3DEA4F70E39017AA124D83
:103E5300B8C3E89AE99B4003023EFA7A06123EFD94
:103E6300A80CA90DEA497003023EFA8A828B83E506
:103E730008F0A3E509123F1CE50AF09017A9124FB9
:103E83003C123F13A3E4F0A3F0901577124D826028
:103E93000D8E828F83A3A3A3A3126E988017901510
:103EA30077126E989015B1E0A2E34009123F079094
:103EB300157912129D9015B1E0A2E3503A7A087B6E
:103EC3000090155CE0F9121A05EA4B4C4D702890EE
:103ED30017A7E0F508A3E085080CF50DE4F50EF54A
:103EE3000F780C120FB47A087B0090155CE0F9127E
:103EF30019F97404120FEA026ACA7B0012192D8A97
:103F03000C8B0D22121A17EAF8EBF9ECFAEDFB22EF
:103F1300123F1722123F1CA322F08A828B83A3A392
:103F230022E508F00247A3F08E828F83A3A3A3A305
:103F3300A3A322125834A3A3F022A3A3A3A3E0FEB6
:103F4300A3E0FF227F05020D30F582E43509F583F6
:103F5300E0F922EA123F5B222410F582E422123FA9
:103F630069A3A3A3A322124106850882850983229C
:103F7300123F7722F0850A82850B83A3A322E50EE5
:103F83002411123FA7E022E50E240E123FA722E5DB
:103F93000E2410123FA7E022123F9F22EE123F5B36
:103FA3003FF58322F582E4350FF58322240FF50ACA
:103FB300E43509F50B780A22E0F91218AF8A088B69
:103FC30009EA4B2274F2120A10890B8A088B098AB8
:103FD300828B83124DB81220FBEA4B600479B880C0
:103FE3006A122107E9F8902F4EE493F9E8C3994048
:103FF3000479B280567A15123EFDAE0CAF0DEA4F2E
:104003007004791080458A828B83E4F0A3123F1CED
:10401300E50BF0750A007808120FB87C127D00EAF0
:1040230024031269D4120FEA90157D1253CA700843
:1040330090157D800C1240FE888289831240517056
:10404300F4EEF0A3EFF01221197900024EA4124D01
:10405300BCEA4B8882898322C082C08390157D800D
:10406300048C828D831276F6EC4D60288C828D83CE
:10407300A3A3E069600574FF6970E68C828D83A356
:10408300A3A3E06A7003A3E06B70D6EC2403FAE405
:104093003DFB80047A007B00025C9974F7120A10DE
:1040A300E9FD74FE6D70047C0180027C0090157D37
:1040B30080096D70027C01888289831253CA601F54
:1040C30088828983A3A3A3E06A7003A3E06B70E7EC
:1040D300ECA2E088828983A3A3E050D6F980027919
:1040E300FE0247A3EEF9800CA3A3127B97EE227482
:1040F30002120FEA7F02020D30F5831241022212EF
:10410300410622E0F8A3E0F9221241068E828F8352
:1041130022120FEA7F03020D30C082C08379009020
:10412300157D800109E0FAA3E08A82F583E58245E3
:104133008370F1025C9974F6120A10E4F508F5092C
:104143007808120FBC902F4EE49375F013A4A9F0D6
:10415300124259126EF6120FEAE9FE74096E7003E9
:104163001221130240E774F6120A1074FE12107E35
:10417300852182852283E4F0A3F0A821A92288085F
:1041830089097808120FBC750802750900780812AE
:104193000FBC126B67120FEA0240F274F5120A1099
:1041A30074EB12107E852182852283E4F0A3F090C4
:1041B300157D80748E828F83A3A3E0C0E074021206
:1041C30012D8D0E012587BA982AA8389088A09757C
:1041D3000A007808120FB87C127D0074061212D8F8
:1041E300126EBB120FEA740212103888088909781C
:1041F30008120FBC7508137509007808120FBC74F8
:10420300041212D812536D75F013A4F8AAF075F0C6
:1042130013E9124255126B6F120FEA852182852230
:10422300831242648E828F83123F41EE4F7085A8C2
:1042330021A922880889097808120FBC750802751C
:1042430009007808120FBC126B67120FEA7415028B
:104253004114A42AF9E82402FCE439FD7A427B00E4
:1042630022E02401F0A3E03400F02274F4120A10D7
:1042730074EB12107E7E007F00A821A92288088992
:10428300097808120FBC7508028E097808120FBC52
:104293007C007D007A42126F02120FEAE9706C8E85
:1042A3000880567402121038880A890B780A120F94
:1042B300BC750A13750B00780A120FBCE50875F07C
:1042C30013A4F8AAF075F013E509124255126F040E
:1042D300120FEAE9701B74031212D8AA82AB83741B
:1042E300021212D8E0F91220F5E970050EEE700102
:1042F3000F0508E5087002050985218285228312CE
:1043030040FEC3E50898E509994098EEFAEFFB747F
:104313001502326C74F6120A108C828D83A3A312D9
:104323004570F0EA1261913BF583E0C0E012452D40
:10433300D0E0F0EA241DF582E43B1240FC12451163
:1043430012456BF0A3F0EA241FF582E43BF58312D8
:104353003F41EC1245043DF583EEF0A3EFF0124527
:104363000A3BF58312453BA3A3A3A3A3A3EEF0A3A8
:10437300EF125DECFE8C828D8312457A74035EFE30
:10438300C3940340030244F7EE600874026E6003B3
:1043930002441C8C828D83E0540CFE740C6E7003FB
:1043A30002445BE0A2E4400D88828983E08C828D25
:1043B30083A312459074086E600302445B12451B8D
:1043C3007401F08A828B83A3A3A3A3A31258417021
:1043D300148C828D83E0440C124582A3A312453BC7
:1043E300EEF0A3EFF08C828D83E0A2E4402B888271
:1043F30012454912455E500109F582124549A3A3AE
:10440300A3A3A3A3F0A3EF12458A8C828D83A3A356
:10441300A3F0E82403F850010988828983E0C0E00F
:10442300EC2411F582E43DF583D0E012457A8C82C9
:104433008D83E0A2E7507588828983E0FE8C828DAC
:104443008312459074FC5E700C8C828D83A3E054C0
:10445300036403701E0244F712451BE4F0740C6EF0
:1044630060030243C6888212454F12455E5001091C
:104473000243E88C828D83A3E054036032888289EF
:1044830083E0C0E0EC1245353DF583D0E012459161
:104493008C828D83E054036402701488828983E0E4
:1044A300C0E0124523D0E01245918003A3E4F0EC71
:1044B3001253393D126E96EC2410FEE43DFFEA24BC
:1044C3001DF582E43BF583E0F5088E828F83E0C31C
:1044D300982508F508F0EA2417F8E43BF98882F5F3
:1044E30083E0C39508C0E0124511D0E0125DECC330
:1044F3009508500A124511E4F012452DE4F00240EC
:10450300F72415F582E422EA240DF582E422EC2453
:104513000DF582E43DF58322EC1254F23DF583223E
:10452300EC2414F582E43DF58322EC123F5B3DF568
:1045330083222413F582E422E0FEA3E0FF8C828D24
:1045430083A3A3A3A32212454FA3A3228983E0F548
:1045530008A3E0FFE5088C828D8322A3A3A3A3F025
:10456300A3EFF0E82402F822124570A322E4F08CB2
:10457300828D83A3A3A322124598A882A983221222
:104583003F17A3A3A3A322124598A3E022A3124596
:104593009808A98322125DF5A32274F4120A1074F9
:1045A300F312107E8A0A8B0BECFEEDFF8C82F583EF
:1045B300E0540CF508E0A2E75006E508D2E7F50859
:1045C300E508D2E1F5081258417006E508D2E4F592
:1045D30008E0A2E55006E508D2E5F5087C087D0071
:1045E3007900AA21AB2212188574021212D8E508A9
:1045F300126E9CC0E074031212D8D0E0124C2AE56C
:104603000AF0A3E50BF074051212D8126708121210
:10461300D8E0707774081212D8124BB0125DDE38EE
:10462300126723C0E074081212D81246B1D0E01208
:104633006703C0E074081212D81246A7D0E0F074E2
:10464300081212D812469DE0124BD8124C5912612F
:10465300F2EE241112580DC0E0124693D0E0F0EEB2
:10466300241412580DC0E074081212D8124BB0244F
:1046730035F582E438F583D0E0124BFDC0E07408D1
:104683001212D8124BB4D0E012645C740D02326C77
:10469300E82432F582E439F5832212410CA3A3A363
:1046A300A3A3A322124BC412690238F58322124B2F
:1046B300C42426F582E438F5832274F7120A107EA7
:1046C300008A828B83A3A3A3A3A3A3A3A3A3E064CE
:1046D30004600302477F1254EAE0600302477F123B
:1046E300534C3B1253C8700302477F88828983E08F
:1046F3005403600302477FE81254F239F583E0FA6A
:104703008C828D83A3A3E0FBA3E0CB2411F582E489
:104713003BF583E06A706588828983A3A3A3A3A37F
:10472300A3A3A3A3124783E06A7003A3E06B704CB7
:1047330088828983A3A312478FE0FFA3E0CF2406D7
:1047430012580D6A7003A3E06B703188828983A3CA
:10475300A3E0F88C828D83A3A3E0F9A3E0F583891A
:1047630082A3A3E06860138C828D83A3A3A3E0F5E7
:10477300838982E0540C640470027E01EEF9802088
:1047830012478722124DC08C828D8322A3A3124726
:1047930087A3A322740C1212D8E0F9740D120FEA46
:1047A3007F01020D3074F6120A1074FC12107EEAB7
:1047B300FEEBFFECFAEDFB8C82F583A3E054036080
:1047C300169015731253CA60597900EEFCEFFD126F
:1047D3005FE9122949804B852182852283EEF0A36C
:1047E300EFF074021212D8124C1FAC21AD227A31B1
:1047F3007B211223598A088B09A808A909EA496071
:10480300218A828B83A3A3A3A3A3A3A3A3A3740635
:10481300F07A0088828B83124BB01261B2E0F912F6
:1048230022B774040240F474F2120A1074F31210E3
:104833007EEAFEEBFF8A82F583A3A3A3A3A3A3A32C
:10484300A3A3A3E0F50A9017BCE0700579BA024B65
:1048530068750801750900750C00750D007C087DED
:10486300007900AA21AB2212188574051212D8749C
:1048730001124C325404601274021212D8E0D2E6D0
:10488300124C3254087003750803E0541060067428
:10489300404508F508E05408602274021212D8E07B
:1048A30044C0124C325420600A74031212D8E0D26E
:1048B300E0800874031212D8E0D2E1F0EE2415125E
:1048C300580D124B987003740169700674084508FB
:1048D300F5088E828F83A3A3A3A3A3A3A3A3E0704E
:1048E300161223B38521828522831261FF7402127B
:1048F30012D8E0D2E28030640F701074021212D822
:10490300124C3A74044508F508807F8E828F83A386
:10491300A3A3A3A3A3A3A3E064028E828F83700A3D
:10492300126ECFE8F0A3E9F08060A3A3A3A3A3A32F
:10493300A3A3E06403700DAC21AD22EEFAEFFB12EA
:10494300216780468E828F83A3A3A3A3A3A3A3A3DC
:10495300E064017035901607E0601074021212D8FB
:10496300124C3A750910750AFF801874021212D896
:10497300E0440C124C2A74FDF0A374FFF074044558
:1049830008F5088E828F8312317FEE241512580D9D
:10499300A2E0503F74021212D8E0540C701B8E82B6
:1049A3008F83124DB8121DD1E9700579BB024B6894
:1049B30074021212D8E0D2E5F0EE241512580DA2BB
:1049C300E0501074021212D8E0540C64047004E036
:1049D300D2E5F0EE241112580DC0E074041212D87F
:1049E300D0E012670A1212D8E06003024B61740828
:1049F3001212D8124BF3E508F0A3E509F0124B8E1F
:104A0300E0C0E0124B84D0E0F0124B75E0C0E074DC
:104A1300081212D8124BB012453538F583D0E01284
:104A23004C5964017011901607E0C0E0740812122B
:104A3300D8124BCED0E0F074081212D8124BEE12FB
:104A43004B7FFAE8241CF582E439F583EA124C25FE
:104A5300EE2415FAE43FFB8A82F5831276F6E81218
:104A63005B4939F583124C1FEE241C12580DC0E02C
:104A7300124B6BD0E0125C8F124B98700374016978
:104A8300701374081212D81254DAFAEE241D125855
:104A93000DF912203B8E828F83A3A3A3A3A3A3A309
:104AA300A3A3E0C0E074081212D81246B1D0E0F01C
:104AB30074081212D81246A7E50AF074081212D825
:104AC30012536D2428F582E439F583E50CF0A3E550
:104AD3000D124C05124BD81258861261F2EE124B8E
:104AE3007FC0E0E82433F582E439F583D0E0F0EECB
:104AF300241B12580DC0E074081212D8124BB4D004
:104B0300E0F0EE241A12580DC0E074081212D81205
:104B13004BB02432F582E438F583D0E0124BFD121A
:104B23004BA4120FB81269081276F6740B1212D83E
:104B3300124BB0242F127BD2120FEAEE2415125817
:104B43000D544060129015931253CA600AAA21AB08
:104B530022125FE9122949AA21AB221221D9740C2E
:104B63001212D8E0F9024E9FE82420F582E439F5C9
:104B73008322EE2419F582E43FF58322126917E0BC
:104B830022E82412F582E439F58322EE2418F58213
:104B9300E43FF583225480F8A3E05401F97480685C
:104BA30022F508A3E0F509750A00780822124BC420
:104BB30022124BC42434F582E438F58322A3A3A341
:104BC300A3124BC822E0F8A3E0C822124BC412453B
:104BD3000438F58322FAA3E0FBE8242AF582E439BA
:104BE300F583EAF0A3EB22A3A3A3A3124102EE22CF
:104BF30012537112535139F58322F0EE24131258D4
:104C03008E22F0EE240D12588E22E0FC8A828B83D2
:104C1300E02CFCA3E03400FD8A828B83ECF0A3ED4F
:104C2300F022F0A3E4F022F085218285228322F092
:104C3300EE241512588E22E0D2E3F0124C42228E5B
:104C4300828F83124106852182852283E8F0A3E9BE
:104C5300F022E8F0A3E9126345E02274F7120A1088
:104C63008A828B83A3E0640170047E6380027E6486
:104C73008A828B83E060087905124C9224F3FE90BC
:104C830015AFE06007F9124C9224F2FE02477F123F
:104C93002281E9F8EEC3982274F6120A1074FE1208
:104CA300107E8521828522831261FFE9FEECFAEDF5
:104CB300FB9005C21253CA6032A821A92288088931
:104CC300097808120FBC7D01740E1212D8E0FCEEB5
:104CD300F99005C21261D31229497402120FEAEA4C
:104CE3004B60047900800679B2800279B60240F203
:104CF30074F7120A10E9FE9015691253CA601F7403
:104D0300091212D8E0F5087808120FC0EEF99015D1
:104D1300691261D31229497401120FEA800279B62C
:104D23000247A374F7120A108908ECFEEDFF79B568
:104D3300E508245E602014600624F86034803D900A
:104D430005C4124D826035126F131229498E828F6A
:104D5300831261FF802490156B1276F6EC4D601C74
:104D6300EEFCEFFD90156B1261D3122949E9F9802E
:104D73000B901567124D88121A2F79000247A31260
:104D83004DBCEA4B221276FAEEFAEFFB2274F712CD
:104D93000A10E9FE79B574AB6E700B901567124D6E
:104DA300B8121A2F79000247A38E828F83A3A3A37D
:104DB300A3A3A3A3A3124DBC22124DC022E0FAA3C6
:104DC300E0FB2274F1120A10EAFEEBFF8C0A8D0B52
:104DD3007508019015B7E06E7003A3E06F700C12B5
:104DE3004E93AA0AAB0B121A2F805E1223B9EE6AF6
:104DF3007002EF6B7009AA0AAB0B1223BF804AAC97
:104E03000AAD0BEEFAEFFB121F0FE9F5089017AF8F
:104E1300E07036122857E97030E508702C9015873A
:104E2300E06E7003A3E06F7020EE4F601C750C7F83
:104E3300750D15750E00780C120FB87C087D00AA4D
:104E43000AAB0B126EBF120FEAA9080277F274F2D3
:104E5300120A10EAFEEBFF8C088D09750A01124E47
:104E630093EEFAEFFB121A29E9640170119015B75A
:104E73001240FE850882850983126E98800EAC0865
:104E8300AD09EEFAEFFB121F15E9F50AA90A801125
:104E93001223AD8A0C8B0DAC0CAD0D22740D120FC9
:104EA300EA7F06020D3074F6120A10EAFEEBFF7A6F
:104EB3000D7B0012192DEA4B6062EE2424126B9CC9
:104EC300F0EE2425126B9CA3124F61126BA2A3A3D5
:104ED300126935124F3CF0EE124F22124F51E8F097
:104EE300A3E9124F78124F49126E98EE124F2B120C
:104EF30069F8A3A3A3A3F0EE243312580DC0E01264
:104F03004F34D0E0126727124F49A3A3A3E8F0A3BD
:104F1300E9124F70C0E01254EAD0E0F00240F724E7
:104F23002AF582E43FF58322242EF582E43FF583BC
:104F330022EA1259633BF58322124F4022E08A8210
:104F43008B83A3A3A322126A57A3A3A3A322124F63
:104F530055221241068A828B83A3A3A3A322F012B4
:104F63004F6622EE2426F582E43FF58322F0EE24F9
:104F73003212588E22F0EE242C12588E2274F41220
:104F83000A1074FE12107EECFEEDFFEC241612588C
:104F93000D64057010EC2406FCE43FFD122161E969
:104FA300700302502CAC21AD22126C51121DD78517
:104FB30021828522831253CA606B8E828F83E064C1
:104FC300017058E875F009A4F8AAF075F009E9A48E
:104FD3002AF974E028F8740239F9E8FAE9FB8882BF
:104FE300F5837808121263EE1250CE121215402781
:104FF300852182852283124BEE12581B1250317881
:1050030008121263908644780812114C8A828B83AB
:105013007808121272800A79A28010EE240F126EA1
:10502300927900800679A1800279C802326A124C13
:105033004FEE1269232274F2120A108A0C8B0DECC4
:10504300FEEDFFEC12581BE4F0A3F09086187808ED
:10505300121263EC1250CE1210946067EC240E12FD
:105063005814703478B39015AEE070289015E0E0D2
:1050730064017020EC241112580DF91222698B0976
:10508300A909EE12534D3F1261FDEA49600478000D
:10509300800278A18808802EE060046402700A12FE
:1050A3002173E9F5087007801DE064037010EEFCBE
:1050B300EFFDAA0CAB0D121DFBE9F508800875087E
:1050C300A180037508A3A908024EA41269237808D6
:1050D3002274F0120A1074F512107EEAFEEBFFEA56
:1050E300240AFCE43F8C82F583127B93125357749A
:1050F300031210488A828B83125FF3E97003025113
:10510300BD74011210487403121040121DD77401AC
:105113001212D81253CA70030251BDE875F009A4E4
:10512300F8AAF075F009E9A42AF974DC28FC7402E2
:1051330039FDE508240E126444E4F0041212D81277
:1051430040FEE50812534D3509126E968C828D830D
:105153001212C1E508241212644412129D9086446F
:1051630078081212638C828D8378081211AB8C82BB
:105173008D83780C1212639086AC780812126378D0
:105183000C79081209A1E5084509450A450B702A5F
:1051930074011212D812536D75F009A4F8AAF075B0
:1051A300F009E9A42AF974E428F582740239F58335
:1051B3007401F07A007B0812537A8E828F83A3A343
:1051C300A3A3A3A3A3A3A3A3E02406FCA3E0340007
:1051D300FD8E828F83125FF3126715603EEE240A01
:1051E30012533F124BF37468124C25E812533939AA
:1051F300F5837402F09015991212C18C828D83127B
:1052030061EC125DDE3CF58312129D9086447808B2
:1052130012126390159978081211AB1253B5705D91
:10522300901567125365A3A3A3A3A3A3A3A3A3A347
:10523300125E14121A29E97010125DD290156712CA
:105243005DE4700512671560348E828F83A3A3A378
:10525300A3A3A3A3A3A3A3125365124DB8121E01C4
:10526300E960118E828F83A3A3A3A3A3A31253A1E7
:10527300E4F0A3F08E828F83125387E4F01253B5C8
:1052830060030253348E828F83A3A3A3A3A3A31229
:105293007B8F9015AEE060030253299015E0E06424
:1052A300016003025329750A3A750B00780A120F3D
:1052B300BC7402121038880A890B780A120FBC12C8
:1052C300718E120FEAE9705BE508240E12644474D0
:1052D300011253CFC0E0E5082411126444D0E0F07A
:1052E300E508240F126444743A124C259015951264
:1052F30012C1E508241212644412129D9086447868
:105303000812126390159578081211AB90864478B1
:1053130008121263901595780812109470081253AE
:105323007680031253571253B57006125CD574A1DD
:10533300F0740B026AC7240EF582E422F8E43FF905
:10534300E8FCE9FD8882F58322EA12535122240FF7
:10535300F582E422E5081253513509F583E4F0A3FD
:10536300F0221276FA8E828F832212537122124117
:1053730006E8227A007B02901440E0F91218D92241
:105383008A828B83A3A3A3A3A3A3A3A3A3A312533D
:105393009522124BC8240EF582E438F58322A3A389
:1053A300A3A31253A922124BC8240FF582E438F5A4
:1053B30083228E828F83A3A3A3A3A3A3124BC02410
:1053C3000FF582E438F58312537149221253D32225
:1053D300F0852182852283E02274F6120A10EAFE08
:1053E300EBFF7A237B0012192DEE240AF508E43F24
:1053F300F5098508821261FD7C237D00790012186E
:10540300858508828509831253CA700302549DEE71
:10541300FAEFFB12217F1253B560748E828F8312D1
:1054230054D064018E828F83A3A3A3A3A3A3700785
:105433001254C6740E80211253CA7010126715706D
:105443000B8E828F83A3A3E0A2E050071254BC7497
:105453000D80051254BC7405126727540364017050
:10546300071254A47405800B9015AFE0C0E01254EA
:10547300A4D0E01254DFF583888212583A8508825B
:10548300850983124BB012619138F583E9800E854B
:10549300088285098312627680031261B9F00240A3
:1054A300F78E828F83A3A3A3A3A3A3A3A3A3A31270
:1054B30054B622E01261D8A3228E828F83A3A3A3C2
:1054C300A3A3A3124BC012619738F58322A3A3A30E
:1054D300A3A3A3A3A3A3A3125395E0221254E322ED
:1054E300126C66F8A3E022EA1254F23BF5832224FD
:1054F3000CF582E42274F1120A1074E412107E8A0D
:105503000C8B0D8C088D097A237B0012192D8A0AC6
:105513008B0BAE0AAF0BEA4F70030257F512619D76
:10552300E5082415125826687003A3E0698E828F5C
:10553300837004740280027401F0E508240DF8E41A
:105543003509F98882F583E0FAC3E49AFA95E0FB1A
:105553001258222AFAA3E03BFB8E828F83A3A3A3D4
:10556300A3125DFB8E828F83A3A3F0EE2420F5822A
:10557300E43FF583E4F0EE2421F582E43FF583E490
:10558300F0EEFAEFFB122233850882850983125865
:105593004170098E828F83A3740580069015AF1224
:1055A300582FF0EE2417F50AE43FF50B8E828F8314
:1055B30012583AE9850A82850B83F0EE2416F8E443
:1055C3003FF9E508240EFAE43509FB888289831242
:1055D3004C0DE5082410FAE43509FB850A82850B96
:1055E30083E0FC88828983E0F88A828B83E0C39816
:1055F300C39CF812587BF0EEFCEFFDAA0CAB0D1226
:105603002179E9F50B8E828F83E064027006125DC7
:10561300D21257FFE50B60030257EC750C00750DB2
:10562300009017AFE064016005E06402703F125818
:10563300116008EE242112581470328E828F83A3D6
:10564300A3A31261BF125847EE241612580D125825
:1056530070FAE439FB123EFFEA4B6011126A211221
:105663000FB8125855AA0C126EBF120FEAEEFAEFDA
:10567300FB12223FE9F50B9017AFE064016008E0ED
:10568300640260030257DFE970030257DFE50C454C
:105693000D70030257EC8003850E0B125811600B3B
:1056A300EE242112581460030257E5850B0E850C76
:1056B30008850D09750A007808120FB81258558E1F
:1056C300828F83A3A3A3A3127BD8120FEAEE242015
:1056D30012580D600D12581A7468124C25EE2420CE
:1056E3008015EE242112580D601512581A7403F018
:1056F300A37401F0EE2421F582E43FF583E4F0EE98
:10570300FAEFFB12223FE9F50B70907C137D0079D1
:10571300007409121040121885741A1212D87401F9
:1057230012588664687002A3E0704F8E828F8312D2
:1057330053A1E06405600302569B7C0879FF8E82C7
:105743008F83A3A3A3A3E0242A125E1712190FE9E0
:10575300700302569B7C087D0079FF740112104090
:1057630012188574011210487A007B0079AB12215C
:105773005B74191212D874FC801512581AE0640372
:105783007004A3E06401700874191212D874FFF056
:10579300E4F508F5097808120FBC74021210487476
:1057A300131212D8AA82AB831262FC120FEA85216C
:1057B30082852283E0602B740912103888088909D6
:1057C3007808120FBC7508137509007808120FBC0E
:1057D3007C007D00126B6F120FEA8006E50C450D0D
:1057E3006007AA0CAB0D121933EEFAEFFB12193353
:1057F3008003750B10A90B741C0277EFEE2406FAD5
:10580300E43FFB121A2F22EE240C12588E22EE24B0
:105813002012588E640122EE1253513FF58322E584
:1058230008240EF582E43509F583E022125834A3E7
:1058330022E08E828F8322A3E0F912228122E05498
:105843000364012212584B22E0FAE82AF8E43400F8
:10585300F9228E828F83A3A3A31261C312584BEE46
:10586300241612588E125870FCE439FD22FAE82AE5
:10587300F8E439F9E824042212587F22126736A388
:10588300A3A322F012588B22EE240FF582E43FF5F6
:1058930083E0227901020F7F74F4120A10EAFEEB0F
:1058A300FF8A82F583A3A3A3A3A3A3A3A3124BB04D
:1058B3002424F582E438F583125841702E8A828BB2
:1058C300831254D07025125969E06405701D125972
:1058D30069A3E0F8740168600574066870071253E1
:1058E30083740280051253837403F0EA240A12625C
:1058F3006A1261D3E4F0EA2408F8E43F123259242F
:1059030031F582E43AF583E0C0E0126F0AA3A3D035
:10591300E0125988CA242EF582E43AF583E0C0E008
:10592300126F0AA3A3A3D0E0125EAEC81259633864
:105933001240FC126F0A12597D8A0A8B0BAC0AAD16
:105943000B850882850983125E14121A2F8508823B
:10595300850983124DB812223F126265F002326F3D
:10596300240BF582E4228A828B83A3A3A3A3A3A39C
:10597300A3A31266FCF583888222A3A3A3A3124CDC
:105983004F1223AD22125DF0FAA3E022025896C013
:1059930082C0839015897485F0A37421F090158BD0
:1059A3007491F0A37421F090158D7497F0A3742172
:1059B300F090158F748BF0A37421F0025C9974F44A
:1059C300120A10EA2408FEE43BFF8E82F583125389
:1059D3006D1261A9E0F50874035508F509125E0F0D
:1059E300F8A3E08882F583E508F0A3A882A983E5FC
:1059F300096009740265096003025AAE740C550804
:105A0300FC600A74086C600574046C70267402658B
:105A1300097006E508A2E4401A8A828B83A3A3A334
:105A2300A3A3A3A3A3125BB41269023D125B4FA30A
:105A330008A983740C6C701C125BB02428125B9C45
:105A43002428F582E43DF583A3126530F0E82402AF
:105A5300F8500109740265097006E508A2E4404B99
:105A6300125BB0242A125B9C242AF582E43DF58361
:105A7300A3125B5E125BBA126530125BBAA3125BB0
:105A830056E82404F8500109EC600F74086C600AAE
:105A9300740C6C600574046C70111261E02426F5BB
:105AA30082E43C125B4FA3A882A9838A828B83A3DF
:105AB300A3A3A3A3A3A3A3125B7E54037014E508BB
:105AC300A2E1400E1261E0125B493CF583E0548091
:105AD3006008125B64125B51801990155DE0C0E0B1
:105AE300125B64D0E0125B9188828983125B91041C
:105AF300125DF5A3A882A983E508A2E750458E822B
:105B03008F83125B7E88828983125B97125B835437
:105B13000360301261E02434F582E43C12652EF018
:105B2300E508A2E1501D8A828B83A3A3A3A3A3A3A9
:105B3300A3A312325E2435F582E43A12652EA3F054
