:020000040000FA
:060000000212390207C3E1
:03002B00020F9B26
:03003300020E8832
:030053000206F2B0
:1000830002075401010000000000F8FF07FFFF0012
:10009300000504000000030001FFFFFFFF0005103F
:1000A3002700000020FD000206FFFF1E01000100E3
:1000B3000104010C000204FA8500000001040000A1
:1000C3004214000000E8030000FFFF9314018813AB
:1000D3000000E8030000C800C800B801A0BB0D0081
:1000E300A0BB0D00020202070401051E02051E0249
:1000F3000A0A010108080103B80B02803E0102FE4F
:10010300FFE8030A050001FFFF020A011401E002F0
:10011300000000050301010F0300030003000300B7
:100123000300030003000300030005000A0014009A
:1001330028004F009E000000F52C00000000C92B92
:1001430000000000FF000000FF001212856046124D
:100153001249603DE9687008F618F618F618F62299
:10016300748067F7120181090909748067F7221205
:100173001249601D1212857005191919801A12117E
:1001830028701F1210ECC37003E667331919194066
:10019300071818182208080874FFF618F618F61836
:1001A300F6221210EC60171212E6702192F012126E
:1001B300F87019501720F014080808090909E7F620
:1001C3001819E7F61819E7F61819E7F6221212F8C4
:1001D30060E6E869701F0808E62480F608E436F64E
:1001E30018547FB47F0CE654806007F6E418F618C1
:1001F300F622181822E9C6CC08C6CD08C6CE08C612
:10020300CFC0E0E8C0E0EAC0E0EBC0E009E9F809EC
:10021300E7FA09E7FBE6F918E6F8C3EC98ED99EE7F
:100223009AEBC2E7F5F0EFC2E795F0500E600CEBE6
:10023300CFFBEACEFAE9CDF9E8CCF8EAA2E7D2E7B8
:10024300FAEB33FB13F5F0EEA2E7D2E7FEEF33FF51
:10025300C5F013A2E730E601B313C5F0C3C0E0C095
:10026300F07F00C39BFB605E9418600F401D146019
:100273001AD0E023F9D0E0F80203538AF0E948608A
:1002830003D2F0E4AFF0FAF9F8803BEB30E40D89E8
:10029300F0EA6003D2F0E4AFF0F9CAF8EB30E30D13
:1002A30088F0EF6002D2F0AFF0E4CAC9F8EB54076C
:1002B3006014FBC3EA13FAE913F9E813F8EF1350D8
:1002C30002D2E0FFDBEDD0E0C0E030E739C3E49FCA
:1002D300FFF5F0EC98FC42F0ED99FD42F0EE9AFE4A
:1002E30042F0D0E0F9D0E0F8E5F0607AE923F9EEE6
:1002F30020E742D8028067C3EF33FFEC33FCED33D2
:10030300FDEE33FE80EAEC28FCED39FDEE3AFED03B
:10031300E023F9D0E0F84002801BC3EE13FEED1397
:10032300FDEC13FCEF135002D2E0FF08B800067F88
:100333007F74FF802EEF3350178CF020F002601093
:100343000CBC000C0DBD00080EBE000408E860DF05
:10035300E933E813FFEE2313FE4F4D4C8008E954B5
:1003630080FFE4FEFDFCEE33EF33F47004FCFD7E0E
:1003730080D0E0FBD0E0FAD0E0F8D0E0CFC618CED2
:10038300C618CDC618CCC6F9221212497004181823
:100393001822121285700D74FFF61819F61819F643
:1003A3001819F622E7548066F61212F8700F12122B
:1003B300E670F014F608F608F608F680D11212E695
:1003C300700CF608F608768008E6447F80EC12107D
:1003D300EF700C12112B60BFE65480F6E480BB1261
:1003E300112B700519191980A5E869700C763F184F
:1003F300768018F618F6E8F922E6CDC0E018ECC0CE
:10040300E0E633CD33CDD313F6E719FCE7191933FF
:10041300CC33C3947F400ECD9D502408E65480F620
:10042300E418F6800FF4043D14501408E6447FF6F4
:10043300187680E418F618F6D0E0FCD0E0FD22CC64
:10044300D313CCFD18E4C6CBC0E018E4C6CAC0E0A1
:100453000808ED08C633E613F618E433C675F0034F
:10046300C3CA97CA09CB97CB199C40047D08802E39
:10047300BD000302053516B6FF050606081618C3A8
:10048300CA33CACB33CB33CA27CA09CB37CB193CC0
:10049300C37D08803E187D0820E75CC633C6CA3397
:1004A300CACB33CB33DDF1D5F0EB30E77BCA97CA48
:1004B30009CB974ACB199C406F4B7025E620E0216E
:1004C3008066187D08C3CA97CA09CB97CB199CD3FA
:1004D300C633C6CA33CACB33CB3350C9DDE7D5F0F5
:1004E300E1D3E4C636C608C636C608C636C608C64D
:1004F30036C61818188031C3CA97CA09CB97CB19C7
:100503009CB34097C633C6CA33CACB33CB33DD342F
:10051300D5F02EC6A2E0C640C8CA27CA09CB3719F0
:100523004A70BECB3CB480B90808E63308E63360B2
:100533001F181818D0E0FAD0E0FBD0E0FCD0E0FDA3
:1005430022187D08CA27CA09CB37CB193CD3808030
:1005530013F618E4B67F11F618B6FF0EF618C604A4
:1005630070D20808768080CAF618F618F680C5009F
:10057300121249604F1212856012E7548066F61218
:10058300112870111212E6703B090909F4F618F6E6
:1005930018F618F6221210EC70151212F808080853
:1005A30060EAE6447FF618768018E4F618F622121D
:1005B30012F860161212E67012E4F608F608F6084E
:1005C300E65480F609090918181822EAC0E0EBC0BE
:1005D300E0ECC0E0EDC0E0E687F0A4FBACF008E699
:1005E30087F0A42CFCE435F0FA1809E687F0A42C74
:1005F3004B60027401CA35F0FCE433FB09E687F073
:10060300D2F7A42CCB35F0FC1908E687F0A42BCC49
:1006130035F0FBE433FD0819E687F0D2E7A42C4A52
:10062300CB35F0CD3400FC09E687F0D2E7A42DCC1E
:1006330035F0FDE433FA0918E687F0D2F7A42CCDA0
:1006430035F0CA3400FC08E687F0D2E7D2F7A42AD3
:10065300CC35F07A7E20E70B0ACB33CBCD33CDCC30
:1006630033CC33CB3350147004ED30E00ED2F1E4CD
:10067300CD3DCDCC3CCC3B5005DA05C2F1EB547FEC
:10068300C63308E63392F0FBE73309E733C39A50E6
:100693002D2B70190C0D4C4D70151806E608C3333D
:1006A300700D20F10AA2F013F6E418800B4024E445
:1006B300F630F002768018F618F618F68024D33B4D
:1006C30014501074FFA2F013F6187680E418F6188D
:1006D300F6800FA2F013F618E63303F618ECF618BB
:1006E300EDF6D0E0FDD0E0FCD0E0FBD0E0FA22C094
:1006F300E074F1120AE6A2AFE433F509D2AF85A79D
:1007030008AFA1EF5508FE74105E60061215DD7583
:10071300A1EF74085E60081215E375A1F78024EF5A
:10072300A2E092F0E508A2E082F05017906198E011
:10073300F8900633E0C398A2D265D0335002E8F0B4
:1007430075A1FE752300E509A2E092AF7F02020BBB
:10075300A2C0E074F2120AE6A2AFE433FED2AF9075
:1007630061A4E0F8759B00E5915854086008759101
:10077300F71216318023E59158541060087591EFF4
:100783001216378014E591A2E092F0E8A2E082F01D
:100793005007E0C2E0F012178D9061A3E0F8E5E99D
:1007A300585404600E12176375E9FB906193E0A23D
:1007B300E640F2752300EEA2E092AF7F01020BA2A6
:1007C300C0E074F2120AE6A2AFE433FED2AF906146
:1007D300A5E0F8E5BF585404600675BFFB1217A5E2
:1007E30080D112083A30F04312087F803E8A088B8A
:1007F300098C0A8D0B780812083A20F01430E72B85
:1008030074FFFCFBFA747F8022E4FCFBFA748080A3
:100813001AB48008BC00F2BB00EF800F50EBF9E480
:10082300C39AFAE49BFBE49CFCE499C6CC18C6CBC0
:1008330018C6CA18C6F922E4C9C608CAC608CBC670
:10084300D3330308CCC63392F0C3947F402E94185D
:100853004019C9B90704CACBCC225025C309CA33EE
:10086300CACB33CBCC33CC33D9F422F4600DC9CC0F
:10087300C313CB13CBCA13CAD9F6CC22E4FCFBFABD
:100883002214FCFBFA22C3E498F8E499F91208CA8B
:100893008026C3E49AFAE49BFBE920E7E91208CA3D
:1008A300E498F8E499F922C3E498F8E499F9120872
:1008B300CAE498F8E499F9C3E49AFAE49BFB22EBBF
:1008C30020E7CFE920E7E0B90010BB0008E88AF091
:1008D30084F8AAF022E4FBC8FA22EB70227B10C84A
:1008E30033C8C933C9335007C39AC3DBF280069AAE
:1008F30050012ADBEAC833F4C8C933F4C9FA2275B4
:10090300F008E4C833C8C933C933C99AC99B500432
:10091300C92AC93BD5F0ECFBC833F4C8E4C9FA22B1
:10092300080808EAC0E0EBC0E086F0E7A4FA18097B
:1009330086F0E7A42AFA180986F0E7A42AFA180928
:1009430086F0E7A42AFA1986F0E7A4FBE5F02AFA71
:10095300190886F0E7A42BFBE5F03AFA190886F0AC
:10096300E7A42BFBE5F03AFA18180986F0E7A4C5CB
:10097300F02BFBE43AFA1908E7C5F0C6A426F6E51E
:10098300F03BFBE43AFA1886F0E7A4F6E5F0082614
:10099300F6E43B08F6E43A08F6D0E0FBD0E0FA22AE
:1009A300E4CFC0E0E4CEC0E0E4CDC0E0E4CCC0E0FE
:1009B30075F020E626F608E633F608E633F608E691
:1009C30033F6181818EC33FCED33FDEE33FEEF333A
:1009D300FFC3EC9709ED9709EE9709EF97191919DA
:1009E300400FFFEC97FC09ED97FD09EE97FE1919EF
:1009F30006D5F0BFECF709EDF709EEF709EFF719A4
:100A03001919D0E0FCD0E0FDD0E0FED0E0FF2225B4
:100A130021C582C0E0E52234FFC583C0E0E521C3E0
:100A2300958224F810AF088583228582218008856A
:100A33008322858221D2AFCEF0A3E520F0A37808EC
:100A4300E608F0A3DEFAEFF0A3E58124FAF8E6085E
:100A5300F0A3E608F0A3E608F0A30808E608F0A36D
:100A6300E608F0A315811581D0E0FED0E0F81581EA
:100A730015811581E8C0E0EEC0E0221212D1B90061
:100A830003020AD0E4900501782E79138002F0A3C3
:100A9300D8FCD9FA78239000867A01BA000280073D
:100AA300E493A3F608DAF97A2E7B1790008778C7C8
:100AB30079018015E493A3AD82AE838A828B83F0A0
:100AC300A3AA82AB838D828E83D8E9D9E775826826
:100AD3007583D47404120F7D75824B75832974005A
:100AE300120F7DC0D02521C582C0E0E52234FFC5A9
:100AF30083C0E0E521C3958224F310AF08858322E8
:100B03008582218008858322858221D2AFC8F0A304
:100B1300E9F0A3EAF0A3EBF0A37908E709F0A3D87F
:100B2300FAECF0A3EDF0A3EEF0A3EFF0A3D0E0F026
:100B3300A3D0E0F0A3D0E0F0A3E520F0A3E5F0F02C
:100B4300A322E9799EC608CAC608CBC608CCC6C389
:100B530070207996CACBCC7019798ECBCC7013796F
:100B630086CC700EF9802ACA33CACB33CBCC33CCB4
:100B7300331930E7F2CCCBCA3350147004EA30E0B7
:100B83000DE4CA3ACACB3BCBCC3CCC500209C3E9F7
:100B930013C6CC182313C6CB18C6CA18C6F92285A8
:100BA3002283852182E0C0E0A3E0F9A3E0FAA3E079
:100BB300FBA37808E0F608A3DFFAE0FCA3E0FDA3BB
:100BC300E0FEA3E0FFA3E0C0E0A3E0C0E0A3E0F504
:100BD300D0A3E0F520A3E0A3F5F010AF08858322AE
:100BE3008582218008858322858221D2AFD082D05D
:100BF30083D0E0F8D0E032E47375F0108E248F25B3
:100C0300858229858328852182852283E0CEA3E0FE
:100C1300CF852982852883EBC9EAC8EDCBECCAC30B
:100C2300E833C8E933C9EA33CAEB33CBC3EA9EF5E9
:100C330027EB9FF526B35004AB26AA27EC33CCED64
:100C430033CDD5F0DAAE24AF2522121249601C123F
:100C5300128560171212F870071212E67001D32280
:100C6300C0D01212E67006D0D0B322C32233D0D044
:100C7300501430E0F6C3E7960809E7960809E796AB
:100C83000809E796B32220E0D5E6970809E6970816
:100C930009E6970809E697B322D083D082ECC0E037
:100CA300EDC0E0E493A3FCE493A3FDED4C600D12CF
:100CB3000DC0EC24FFFCED34FFFD80EFE493A3FCB7
:100CC300E493A3FDED4C600D120E5DEC24FFFCEDEF
:100CD30034FFFD80EFD0E0FDD0E0FCE493A3C0E05F
:100CE300E493C0E022121249601B121285601612AF
:100CF30012F870071212E6600CB322C0D01212E68B
:100D03007005D0D022C32233D0D0501330E0EBC3D0
:100D1300E7960809E7960809E7960809E796222067
:100D2300E0E4E6970809E6970809E6970809E697D5
:100D330022852283852182E0A3FEE0A3F5207808A3
:100D4300E0A3F608DFFAE0A3FFE0A3C0E0E0A3C05E
:100D5300E0E0A3C0E0E0A3C0E0E0A3C0E010AF0880
:100D63008582218583228008858221858322D2AFD3
:100D7300D083D082020F83D083D082E9C0E0E49392
:100D8300A3C386F0C5F095F0F908E493A386F0C5F4
:100D9300F095F0700BE493A3C3994005E904800236
:100DA300A3E475F002A42582F582E5F03583F5838B
:100DB300D0E0F9E493A3C0E0E493C0E022C0E0C331
:100DC300E49396087401939618400FE493667008B1
:100DD30008740193661870007019A3A3C3E4939673
:100DE300087401939618A3A3400DD0E0D0E0D0E09F
:100DF300020CD8A3A3A3A3A3A3D0E022740480046A
:100E030074028000CCC0E0EDC0E0E521C39CCCAD12
:100E13002250011D10AF068C218D2280068C218D5E
:100E230022D2AF120EFFD0E0FDD0E0FC227402808C
:100E330000CCC0E0EDC0E0E521C39CCCAD22500165
:100E43001D10AF068C218D2280068C218D22D2AFFE
:100E5300120EDDD0E0FDD0E0FC22C0E0C0F088F04F
:100E6300E4936670080874019366187000A8F0A3F1
:100E7300A3700BD0F0D0E0D0E0D0E0020CD8A3A355
:100E8300D0F0D0E022C0E074F2120AE6A2AFE4335D
:100E9300FED2AFE58BA2E050057904121511758BD4
:100EA30000C2E8752300EEA2E092AF7F01020BA21D
:100EB300D083D082CCC0E0E493A36006120F3F142A
:100EC30070FAE493A3600612106C1470FAD0E0FC7D
:100ED300E493A3C0E0E493C0E022CAC0E0E493A398
:100EE300C582CCC582C583CDC583F0A3C582CCC5DD
:100EF30082C583CDC583DAE5D0E0CA22CAC0E0E06B
:100F0300A3C582CCC582C583CDC583F0A3C582CCDE
:100F1300C582C583CDC583DAE6D0E0CA22C008C343
:100F2300E096F50808A3E096420808A3E096420875
:100F330008A3E09645087001D3D00822C0E0E493EB
:100F4300A3D39C5010E493A3C39C400AD0E0D0E009
:100F5300D0E0020ED0A3A3A3D0E0227009080808B2
:100F6300226016181818C6C333C608C633C608C687
:100F730033C608C633C6D5E0EA22C09FF59FE473A3
:100F8300D09F22D083D082C09FE493C0E0740193AA
:100F9300C0E0740293F59F22C0E0C0D0E8C0E0A88F
:100FA300A8D2AFC2C7752300E8A2E792AFD0E0F89A
:100FB300D0D0D0E0327404800A74038006740280B7
:100FC300027401C0E0F404120FD3D0E01212942291
:100FD3002521F58210AF08F521400C15228008F574
:100FE3002140021522D2AF8522832200C0D02521C1
:100FF30010AF08F521500C05228008F52150020599
:1010030022D2AFD0D022BB0102E722C082C08389A3
:10101300828A83BB0003E08002E493D083D08222E0
:101023006016080808C6C313C618C613C618C61325
:10103300C618C613C6D5E0EA222521F8E43522F9FD
:10104300222521FAE43522FB222521FCE43522FD69
:1010530022C3E0C696F608A3E0C696F608A3E0C648
:1010630096F608A3E0C696F622C0E0E493A36C705C
:1010730009D0E0D0E0D0E0020ED0A3A3D0E0222537
:101083002110AF08F521400C15228008F5214002FC
:101093001522D2AF22E066701008A3E066700A083A
:1010A300A3E066700408A3E06622E76670100809EF
:1010B300E766700A0809E76670040809E76622C351
:1010C300E09608A3E09608A3E09608A3E096A2D2D0
:1010D30065D03322C3E7960809E7960809E796081F
:1010E30009E796A2D265D03322191919E7094709EE
:1010F3007009E727097005E733F4220922C3E09654
:10110300F008A3E096F008A3E096F008A3E096F0B9
:1011130022C3E697F60809E697F60809E697F60864
:1011230009E697F622181818E60846087009E62615
:10113300087005E633F4220822C3E4939608740189
:1011430093960874029396087403939622E026F606
:1011530008A3E036F608A3E036F608A3E036F62245
:10116300E627F60809E637F60809E637F60809E63A
:1011730037F622700422600D18C6C333C608C6337F
:10118300C6D5E0F41822E056F608A3E056F608A305
:10119300E056F608A3E056F622E657F60809E657A6
:1011A300F60809E657F60809E657F622E026F0089E
:1011B300A3E036F008A3E036F008A3E036F022E01F
:1011C30056F008A3E056F008A3E056F008A3E05653
:1011D300F022E647F60809E647F60809E647F60867
:1011E30009E647F622E4C396F608E496F608E49681
:1011F300F608E496F622600D08C6A2E713C618C6E1
:1012030013C6D5E0F322C6F4C608C6F4C608C6F46E
:10121300C608C6F4C622C3E09608A3E09608A3E076
:101223009608A3E09622C3E7960809E7960809E71C
:10123300960809E7962275D00075813F75210175DF
:10124300220500020A7EE6084608C31346083360F7
:1012530002E633F422600C08C6C313C618C613C6CD
:10126300D5E0F422E0F608A3E0F608A3E0F608A32D
:10127300E0F622E6F008A3E6F008A3E6F008A3E60A
:10128300F022E7094709C3134709336002E733F440
:1012930022CAC0E0E6F0A308DAFAD0E0FA22E8F0C6
:1012A300A3E9F0A3EAF0A3EBF022E0FAA3E0FBA3A7
:1012B300E0FCA3E0FD22EAF0A3EBF0A3ECF0A3ED46
:1012C300F022E0F8A3E0F9A3E0FAA3E0FB22E5C7EC
:1012D30054F84401F5C77901222521F582E435222A
:1012E300F58322E72719471947194722C2AF75D655
:1012F3009F02000022E62618461846184622120FBF
:10130300866FCE02120F861BCF02120F864BCF02BF
:10131300120F86ABCF02120F863FD002120F86F058
:10132300D002120F8641D102120F8685D102120F0D
:10133300861FD202120F868FD202120F86BED202EE
:10134300120F86C4D302120F86EED302120F864207
:10135300D402120F8616D502120F8644D702120F3B
:1013630086F2D702120F865FDA02120F86E4DA02E0
:10137300120F86E7DD02120F8614E002120F865861
:10138300E002120F86B1E102120F86C4E102120FCE
:101393008601E202120F86BEE302120F864DD604C7
:1013A300120F8681D604120F86D4D604120F86D765
:1013B300D704120F86C5F001120F8641F101120FF7
:1013C3008674F101120F86A2F101120F86E0F1017A
:1013D300120F861DF401120F863CF401120F868151
:1013E300F401120F8617F501120F8663F501120F30
:1013F30086F7F501120F86D0F601120F862CF7013E
:10140300120F868AF701120F86FDF701120F86412C
:10141300F801120F8699F801120F86BBF801120F1B
:10142300864BF901120F86DCF901120F8628FA01A7
:10143300120F8654FA01120F8695FA01120F862BAA
:10144300FC01120F8617FD01120F86F2FD01120F28
:101453008679BB04120F86A5BB04120F86C5BB0495
:10146300120F86ECBB04120F8633BD04120F86667F
:10147300BD04120F8625BE04120F86BFBE04120FD1
:10148300865EE704120F8663E704120F8696E7046D
:10149300120F865AFD02120F8621FE02120F8633A7
:1014A300FE02120F86A3FE02120F867CE104120FC6
:1014B300868DE104120F862BE204120F8636E204B6
:1014C300120F8650E204120F86F57F00120F86DF9B
:1014D3007F00120F865FE204120F866FE204120F81
:1014E3008684E204120F8638E304120F8677DF0442
:1014F300120F86FBDF04120F8663E004120F86339C
:10150300DC04120F86BADC04120F86C3DC04120F4C
:1015130086EADC04120F8632DD04120F8649DD04ED
:10152300120F86137C00120F86217C00120F869AFD
:101533007C00120F86737D00120F86367F00120F18
:10154300867B7F00120F86A07F00120F86F87F0034
:10155300120F865BD204120F8693D204120F86E118
:10156300D304120F8665D404120F8633E504120FD9
:10157300860E9C04120F863A9C04120F86A49E04C6
:10158300120F86E49E04120F86209F04120F8634E6
:101593009F04120F864D9F04120F863FA004120F63
:1015A30086F2A004120F8606A104120F8631D80416
:1015B300120F8655D804120F866ED804120F86AC0C
:1015C300D804120F86DCD804120F8609D904120F2F
:1015D3008613D904120F8679D904120F867CD90495
:1015E300120F8686D904120F8693D904120F86210F
:1015F300CB04120F8641CB04120F8680CB04120F4B
:10160300869ECB04120F86B9CB04120F861FCC041F
:10161300120F862BCC04120F8688CC04120F8697E8
:10162300CC04120F86BBCC04120F867CCD04120FA0
:101633008689CD04120F869ACD04120F86B3E50472
:10164300120F86FBE504120F8627E604120F865C51
:10165300A104120F86B6A204120F86C4A204120FAD
:1016630086D7A204120F86ECA204120F8601A304EC
:10167300120F8614A304120F8690A304120F86F58B
:10168300A304120F867DA404120F86F5A404120F7F
:1016930086CEA504120F86DEA504120F86EDA504DF
:1016A300120F869AE404120F86BEE404120F86E634
:1016B300E404120F860EE504120F86C8CD04120F40
:1016C30086EFCD04120F860DCE04120F867CCE0456
:1016D300120F864EC804120F8667C804120F867352
:1016E300C804120F8687C804120F86A5C804120FF8
:1016F30086AFC804120F86B9C804120F86CCC8047B
:10170300120F8652C904120F86C7C904120F86F638
:10171300C904120F8644CA04120F8693CA04120F17
:1017230086AECA04120F86B8CA04120F86C9CA0449
:10173300120F860CCB04120F86A7E604120F86F253
:10174300E604120F862CF603120F8658F603120FC7
:101753008675F603120F8688F603120F86A3F60327
:10176300120F86FDF603120F862BF703120F863B2B
:10177300FB03120F8699FC03120F86CBFC03120F97
:10178300862EFD03120F869AFE03120F86C2FE03F6
:10179300120F86D7FE03120F86E7FE03120F86276A
:1017A300FF03120F8669FF03120F8679FF03120FDF
:1017B30086CCFE01120F86E6FE01120F860EFF0194
:1017C300120F8627FF01120F864BFF01120F866946
:1017D300FF01120F8680FF01120F86AEFF01120F69
:1017E30086C9FF01120F863EE304120F8682E304CB
:1017F300120F86F0B704120F8600B804120F860585
:10180300B904120F8637B904120F8667B904120F91
:10181300868AB904120F86A1B904120F86DBB904B4
:10182300120F8640BA04120F8682BA04120F86C9B9
:10183300BA04120F86F6BA04120F8621BB04120FE4
:10184300869DD904120F86AFD904120F86C3DA041A
:10185300120F86C6DA04120F8671DE04120F86A7F2
:10186300DE04120F86BFDE04120F8601DF04120F9F
:101873008611DF04120F8655DF04120F865FDF0423
:10188300120F86179504120F865A9504120F86BFFE
:101893009504120F86DE9504120F86809604120FAC
:1018A30086899604120F86DA9604120F860397042C
:1018B300120F86109704120F86829704120F861058
:1018C3009804120F86559804120F868E9804120FEF
:1018D30086F39804120F861C9904120F86939904B9
:1018E300120F86E29904120F861F9A04120F865470
:1018F3009A04120F86669A04120F86789A04120FBE
:1019030086979A04120F86A09A04120F86619B048D
:10191300120F86A49B04120F86E29B04120F86FE0D
:10192300E604120F86F3DA04120F861DD004120F99
:101933008653D004120F869BD004120F86F4D10471
:10194300120F8693C603120F86B9C703120F86F5CB
:10195300C703120F86B3C903120F86E1C903120F1F
:10196300864BCC03120F868BCC03120F862DCE032E
:10197300120F86C3CE03120F861DCF03120F86AD3F
:10198300CF03120F86F1CF03120F8633D003120F4A
:101993008698D103120F8618D303120F8659D503E5
:1019A300120F8687D503120F86B3D503120F86BC99
:1019B300D503120F8619D603120F86B2D603120F60
:1019C30086C9D903120F864FDA03120F86F0E30498
:1019D300120F8608E404120F8612E404120F8668BD
:1019E300E404120F8648AF04120F865EAF04120F91
:1019F30086FFAF04120F863EB004120F865BB0045D
:101A0300120F868CB004120F86D9B004120F860D04
:101A1300B104120F8648B104120F8645B304120FA6
:101A230086ABB304120F867CE004120F86DBE0045E
:101A3300120F8619E104120F865AE104120F865B16
:101A4300DD04120F8619DE04120F86B9A502120FE8
:101A530086C5A502120F8627A602120F8631A6029B
:101A6300120F86BEA602120F86FAA602120F86F680
:101A7300A702120F8654A802120F86F4A802120FAF
:101A83008674A902120F8643AB02120F8685AD023C
:101A9300120F86CCAE02120F8609B102120F8671A5
:101AA300B202120F861DB302120F860CB802120F78
:101AB3008602B902120F869AB902120F86BFB902C3
:101AC300120F8657BA02120F8675BA02120F86ECEE
:101AD300BA02120F860BBB02120F8638BB02120F1B
:101AE30086D0BC02120F86F1BC02120F8697BD028C
:101AF300120F86DEBD02120F8652BE02120F86E05F
:101B0300BE02120F863DBF02120F86B6BF02120F2E
:101B13008638C102120F869CC302120F8625C402A7
:101B2300120F8653C402120F861EA604120F86C11B
:101B3300A604120F86F2A704120F8659A904120FE6
:101B430086F1BE04120F86B0BF04120F8616C004BE
:101B5300120F86C5C004120F8662B103120F86915D
:101B6300B103120F8609B203120F8618B303120FC3
:101B73008674B303120F86E1B403120F86FDB40318
:101B8300120F864FB503120F8692B503120F86A567
:101B9300B503120F86FDB503120F86BFB603120FEE
:101BA300863BB703120F8672B703120F86AAB703D9
:101BB300120F863CB903120F861BBA03120F8669F4
:101BC300BB03120F864CBC03120F86D8BC03120F43
:101BD3008618BD03120F8637BD03120F8682BD031D
:101BE300120F86A2BD03120F863BBE03120F86C1DE
:101BF300BE03120F861CBF03120F865CBF03120FB6
:101C030086F2C103120F860BC303120F8651C3035F
:101C1300120F8646C403120F866EC403120F867119
:101C2300C403120F867BC403120F8697C403120FDB
:101C33008611C503120F864AC503120F8676C503A4
:101C4300120F869DC503120F86C1C503120F86327C
:101C5300C603120F8645C603120F8674C603120FFE
:101C6300862AE604120F8636E604120F866AE60415
:101C7300120F86F27F00120F86339B03120F8656D4
:101C83009B03120F86A39C03120F86EC9C03120F77
:101C930086589D03120F86B69D03120F86B99D03C6
:101CA300120F860A9E03120F867F9E03120F86046D
:101CB3009F03120F86079F03120F86889F03120F3D
:101CC30086C99F03120F86B5A303120F865FA50370
:101CD300120F86AFA503120F8636A903120F86696A
:101CE300AA03120F86E3AB03120F8680AC03120F15
:101CF300866BAD03120F86C0AF03120F86AEDA03F5
:101D0300120F8658DB03120F86C3DB03120F86DE26
:101D1300DB03120F8663DC03120F86BDDC03120F95
:101D23008604DD03120F866BDD03120F86EADE03E2
:101D3300120F8619E003120F86A1E003120F86AA81
:101D4300E203120F865F9104120F86FBE303120F67
:101D530086CCE403120F8687E603120F861FE8037F
:101D6300120F8608CC02120F86D8E903120F8600E1
:101D73008003120F86638003120F86AB8003120F5A
:101D830086EF8003120F864A8103120F86A7810311
:101D9300120F86E28103120F86648203120F86BE3E
:101DA3008203120F863C8403120F86BC8403120F36
:101DB30086178503120F86318503120F865285031A
:101DC300120F8670C702120F86288803120F8647E8
:101DD3008803120F86378903120F866A8A03120F4C
:101DE30086E98A03120F86258B03120F86948B03D1
:101DF300120F86498C03120F86218E03120F862839
:101E03008F03120F86A09003120F86969203120F70
:101E1300860C9503120F86E69603120F86A7970387
:101E2300120F861F9803120F86369803120F862D02
:101E33009903120F86219A03120F86909A03120FA9
:101E4300865CC504120F86B3C604120F8672C704DC
:101E5300120F86DAC704120F8637C204120F865296
:101E6300C204120F8696C204120F86BCC204120F5C
:101E730086E3C204120F86FBC204120F869DC304BD
:101E8300120F86B2C304120F86D5C404120F86DE66
:101E9300C404120F86E7C404120F86F0C404120FA1
:101EA30086FAC404120F86CEAA04120F86DAAE0491
:101EB300120F86DFAE04120F86E1AE04120F86DA2C
:101EC300D404120F86C6FF02120F86B37F00120FCF
:101ED30086A9FF03120F86B9FF03120F86B8B30456
:101EE300120F86008002120F86338002120F869F24
:101EF3008002120F863A8102120F86D78102120FD7
:101F0300861C8202120F863E8202120F86578202BD
:101F1300120F867D8202120F869F8202120F86DDC8
:101F23008202120F86218302120F86438302120F4D
:101F330086A58302120F866C8402120F8623850204
:101F4300120F86958502120F86608602120F86B3E2
:101F53008602120F86198702120F86538702120F09
:101F630086A58702120F86138802120F867E8802C7
:101F7300120F86818802120F86028902120F869938
:101F83008902120F86198A02120F86388A02120FEB
:101F9300869C8B02120F86A98B02120F86B58C02C8
:101FA300120F86C28C02120F86CB8C02120F86A3ED
:101FB3008E02120F86BD8F02120F86369002120F09
:101FC30086A89002120F86CA9002120F865E9102B3
:101FD300120F86329302120F86099702120F861D83
:101FE3009702120F862D9702120F86379702120F50
:101FF30086409702120F86499702120F8653970263
:10200300120F86809702120F86A99702120F86B4C9
:102013009702120F86D89702120F86FC9702120FAF
:1020230086669802120F86AC9802120F86C9980230
:10203300120F86469902120F867D9902120F86BCF3
:102043009902120F86099A02120F868F9A02120FB3
:10205300865D9C02120F86E09C02120F86C49D02CD
:10206300120F862BA002120F8684A002120F86CEB7
:10207300A002120F8629A202120F865EA202120F7D
:1020830086B0A202120F8665A302120F8614A40261
:10209300120F8651A402120F86E6A402120F865273
:1020A300A502120F86562F00120F86882F00120FDB
:1020B30086B62F00120F868C3100120F866C320009
:1020C300120F86C43200120F86FF3300120F864BA5
:1020D3003400120F86743700120F86673A00120F0E
:1020E30086B73B00120F864D3C00120F86593C0009
:1020F300120F868B3C00120F860E3E00120F86BF16
:102103003F00120F86534000120F86964000120FB5
:1021130086144100120F86314100120F866141007F
:10212300120F86964100120F86664200120F860F29
:102133004300120F86954500120F86B54600120F15
:1021430086A04700120F86224800120F86564C00C5
:10215300120F86934C00120F86EB4C00120F861E53
:102163004D00120F86884D00120F86BE4D00120FD0
:1021730086494E00120F86A14E00120F86784F003B
:10218300120F86315000120F86CC5000120F86D4E6
:102193005300120F86F05400120F86935800120F4B
:1021A30086875900120F868A5900120F86B9590083
:1021B300120F86BF5B00120F86985C00120F86DB3E
:1021C3005C00120F86315E00120F86705E00120FE4
:1021D30086F95E00120F862D5F00120F86F25F00F4
:1021E300120F860A6200120F867B6200120F86BBF3
:1021F3006200120F86496300120F866B6400120F90
:10220300862D6500120F86346700120F864C670017
:10221300120F86606700120F86986700120F86C63A
:102223006700120F86456900120F866A6A00120F53
:1022330086C76A00120F86796B00120F86A06B00A7
:10224300120F86676C00120F86FF6C00120F862533
:102253006F00120F865A6F00120F86BD6F00120FA8
:1022630086EC7000120F86947100120F86C5710000
:10227300120F86DD7100120F866C7200120F86201A
:102283007500120F86F87600120F86147700120F6E
:1022930086307700120F86FE7700120F86F17B00DF
:1022A300120F86E38601120F86158701120F86042B
:1022B3008B01120F86508B01120F86968B01120F22
:1022C30086388C01120F86948C01120F86D98C01EB
:1022D300120F86208E01120F86348F01120F862370
:1022E3009301120F86A79301120F86B49401120F64
:1022F30086109501120F86009701120F86759701BC
:10230300120F867F9701120F868C9701120F86B7E3
:102313009701120F869E9801120F86489901120F9A
:1023230086C69901120F86E69901120F860F9A014C
:10233300120F86319A01120F86919C01120F865754
:102343009D01120F869C9D01120F86199E01120F8B
:1023530086CA9E01120F86FC9E01120F86429F01C0
:10236300120F867E9F01120F86CE9F01120F8622C7
:10237300A001120F8678A001120F86C4A001120FCC
:102383008631A101120F86ACA101120F8677A3013A
:10239300120F8677A401120F869CA501120F86DB0C
:1023A300A801120F86EEAB01120F86ABAC01120F20
:1023B30086EFAC01120F869FAE01120F86B3AE01FA
:1023C300120F86BDAE01120F86C7AE01120F86D360
:1023D300AE01120F86EFAE01120F869AAF01120FF4
:1023E30086D9AF01120F86E3AF01120F86EDAF015D
:1023F300120F865DB001120F86A8B001120F86BDC1
:10240300B101120F8619B201120F869AB201120F8F
:102413008659B301120F8662B401120F8696B50175
:10242300120F8684B601120F869CB601120F86F72F
:10243300B601120F8615B701120F865DB701120F91
:102443008684B701120F861FB801120F86E5B80103
:10245300120F8677B901120F86F1B901120F860B9D
:10246300BB01120F86B8BB01120F86E0BC01120F2D
:102473008630BD01120F8694BD01120F86F6BD0191
:10248300120F8624BE01120F8648BE01120F867DED
:10249300BE01120F86AEBE01120F86E1BE01120FFE
:1024A3008601BF01120F8669BF01120F865DC0014D
:1024B300120F86B8C001120F86E1C001120F8669A0
:1024C300C101120F86ECC101120F8617C201120F50
:1024D30086FCC201120F8617EB03120F864FEB0324
:1024E300120F8670EB03120F86B2EB03120F8614E2
:1024F300EC03120F861EEC03120F862EEC03120F51
:102503008669EC03120F8649F003120F8636F20335
:10251300120F861CF403120F86B3F403120F8655B1
:10252300F503120F86FEC401120F867CC501120F3C
:1025330086D8C501120F8623C601120F863EC60137
:10254300120F8669C601120F8686C601120F869284
:10255300C601120F8629C801120F8642C801120F45
:1025630086C7C801120F86DAC801120F86F9C8019F
:10257300120F869DC901120F861ECB01120F86D141
:10258300CC01120F8667CD01120F866ACD01120F9F
:1025930086DACD01120F86F8CD01120F868FCE0198
:1025A300120F86D7CE01120F86DACE01120F86A044
:1025B300CF01120F860DD001120F8633D001120FF7
:1025C30086BED001120F86DCD001120F8622D10104
:1025D300120F86D6D101120F8620D201120F864F19
:1025E300D201120F86ACD201120F86E1D201120F73
:1025F300860DD301120F861BD301120F8668D301F8
:10260300120F86D8D301120F8621D401120F866DC3
:10261300D401120F8699D401120F86A4D401120F8C
:1026230086C2D401120F86ADD501120F86B7D5012C
:10263300120F86F2D501120F8602D601120F860BF6
:10264300D601120F865FD601120F8673D601120FC1
:1026530086A2D701120F86B9D701120F86CED701F2
:10266300120F865CD801120F86A1D801120F862D96
:10267300D901120F8638D901120F867ADA01120FA7
:102683008695DA01120F86E1DA01120F8650DB011B
:10269300120F8689DB01120F86A3DB01120F86E579
:1026A300DB01120F86B5DE01120F8662DF01120F06
:1026B30086CFDF01120F860FE201120F8627E20198
:1026C300120F862AE201120F8636E201120F864AA2
:1026D300E201120F8652E201120F8685E201120F08
:1026E3008687E301120F860EE401120F867EE40152
:1026F300120F8600E501120F86C1E501120F86E075
:10270300E501120F8681E601120F86DEE601120F44
:1027130086E1E601120F860EE701120F8623E70119
:10272300120F8697E701120F86E6E801120F86EC77
:10273300E901120F8677EA01120F8692EB01120F5D
:10274300865AEC01120F868BEC01120F86AEEC0158
:10275300120F86B7EC01120F86E6EC01120F867694
:10276300ED01120F862CEE01120F86A1EE01120F5E
:102773008648EF01120F86BDEF01120F86F4EF01B9
:10278300120F8632F001120F8668F001120F86BF16
:10279300C802120F86F89004120F86E49004120FF9
:1027A30086419004120F86418F04120F865A8E04BD
:1027B300120F864A8C04120F86588B04120F86F66A
:1027C3008A04120F8646FD02120F863CFD02120F89
:1027D30086D1FC02120F86B2E803120F8613C802D9
:1027E300120F8602FB02120F86C0FA02120F862A0C
:1027F300C702120F86F5C602120F86C4F902120F22
:102803008698F902120F864FF902120F8690F8028A
:10281300120F867CF502120F863DF302120F860A11
:10282300F302120F86B1F202120F8644F202120F64
:102833008603F202120F863CF102120F86D6F002D3
:10284300120F8675F002120F8615F002120F86EC36
:10285300EE02120F8680EE02120F86D8ED02120FDF
:1028630086D3ED02120F86C7ED02120F86FAE90234
:10287300120F86D4E902120F86C2C602120F86AD6A
:10288300C602120F8682C602120F86D19404120F5B
:10289300869D9404120F86469404120F86B4920404
:1028A300120F8672E902120F8613E902120F86D401
:1028B300E802120F86C1E802120F86069204120F75
:1028C30086B6E802120F8685E802120F8672E602C8
:1028D300120F86E5E502120F86AC8503120F86A15F
:1028E300E502120F86699104120F8675E502120F35
:1028F30086868A04120F86598A04120F86268A0452
:10290300120F86FE8904120F869F8904120F867F99
:102913008904120F864A8904120F86F68504120F62
:1029230086DE8304120F86C88104120F8648810451
:10293300120F86F48004120F86A88004120F8600FB
:102943008004120F8657E30300000080FB0000227F
:102953008F000100B51787000100B317350004008D
:102963007C1725000200801726000200821727002B
:1029730002008417280001008E17290001008F1719
:10298300840004001E15860001003C172A00010084
:1029930090172B00010091172C00010095172D00B3
:1029A30008002A152E00010096172F000100971723
:1029B300300001009817310001009917320001001F
:1029C3003215330001003315340001009A17360025
:1029D30001003415380001009B17390001009417DA
:1029E30083000200B1176300010040156400010079
:1029F30092176500010093176D00010041157100E6
:102A03000800221566000100B01743000100A1175A
:102A130044000200A21745000100A417460002006B
:102A2300A51747000800381548000100A7174B00F9
:102A33000100A81704000100B417A1000100B81792
:102A430037000100B71788000100B6173C000100EA
:102A530035153D0001009C1749000200A9176700C6
:102A6300010042154D000200AB174E000100AD17E7
:102A73004F000200AE173E000100A01751000100F5
:102A83003615520001009E17530001009F17540092
:102A93000100371500000000000000013636010177
:102AA3000001020100010301000104010606050201
:102AB3000000070100340801000F090401010D01A2
:102AC30000FF0E08000017020000190100FF1A01A1
:102AD30000011B0100FE1C0100081D0200001F0174
:102AE300000120010001210200002301000F240244
:102AF30000002601000127010008280200FF2A0127
:102B030000072B0102402C0100002D0100012E01C2
:102B130000012F0100FF30010B1D310800003A01B5
:102B230000083B01000F3C0100013D0100FF3E0492
:102B3300000042040000460400004A0400004E0462
:102B4300000052040000560400005A040000000074
:102B530000002001DD86000001002001DF86000067
:102B630002002001E186000003002001DE86000050
:102B7300040042019B85000005004201CE85000050
:102B8300060042017C85000007003001E286000058
:102B9300004042017C850000FDFF2101DB8601002E
:102BA30020002005441701002100200545170100DE
:102BB3000002210546170204000029050E1405042E
:102BC3000000210510140103710301030103010334
:102BD30001030103220302030103100300030003A3
:102BE3000003000300030003000342030003240364
:102BF3000603000300030403120325032303250331
:102C0300230304030403000300030003440300033A
:102C1300000323030003650321003503810300033D
:102C2300050300030003000300032503230303023A
:102C330071023001600211027002010202020202FB
:102C43008002100261023A004100630273027202C1
:102C5300620243020002130238000002000204026F
:102C63001202000200020002000204020402370002
:102C730037003C02440200023900000200026502F0
:102C83000002350281020002050282028302000271
:102C93000101710101010101110101013101010171
:102CA30001018001100161013B0014006301730104
:102CB3007201620143010001130106013D01350068
:102CC30004011201000100010001000104010401DB
:102CD300330133013C01440132013600000100019C
:102CE30065010001350081010001050182018301B5
:102CF3000001030071003001600011007000310217
:102D030020035004800010006100000014006300E1
:102D1300730072006200430000001300060000000D
:102D23000000040012000000000000000000040086
:102D33000400370037003C0244000000000000009C
:102D43000000650000003500810000000500000060
:102D53008300000036000100060000000F000000A1
:102D63000000000000000000000003FFFF0000045B
:102D730003FFFF0000FFFF0FF4010005C40403205D
:102D8300000100000B000000000000000003010F21
:102D93000000000000000000000000000000000030
:102DA3000000000000000000000000000000000020
:102DB3000000051B231B0B1B691A00000000000009
:102DC30000000000000000000000111B691A000051
:102DD3000000171B691A00000000000000001D1B03
:102DE300691A00000000000000000000000000005D
:102DF30000000000000000000000000000000000D0
:102E030000000000000000000000000000000000BF
:102E1300271D0100271D02009D1C0280971C030033
:102E2300A31C0400A91C0480AF1C0500B51C0600EC
:102E3300C11C3100D31C3300D91C3400DF1CFFFF3D
:102E43000000030003000400080010001F003E0000
:102E53007B00F600EC01D703AF075D0FB91E713D90
:102E6300000007ECFDFDFDECDCDCCCBCACAC9C9CB9
:102E73008C7C7C6C6C5C5C5C4C4C3C3C2C2C1C1C3F
:102E830003EAF5E5D5D5C5B5A5959585857575652C
:102E93006555554545353525251515050A1B230269
:102EA300E52205F12207EB220CCD220DD922FF00EA
:102EB3000000160F00000B150B020002220F330057
:102EC300000E0F5A6967426565416C6C69616E63F8
:102ED300653039D0D1D2D3D4D5D6D7D8D9DADBDC43
:102EE300DDDEDF303016181920231A1C1E300003D4
:102EF3004D4C4651181A25050200011916181616CD
:102F030018230300303017181921301B1D1F300000
:102F13003C40423A3F3F392F47300C0E020B040B23
:102F23000A0708000F020402010101010902E80374
:102F3300000000BE040A010024000300E803FF04AC
:102F4300090F03100F030A0C041E0828020C0508BE
:102F5300151E05C082C0831213B590156B74BDF0A6
:102F6300A37420F090156D74C3F0A37420F0901532
:102F73006F74C9F0A37420F090157174CFF0A3742B
:102F830020F0025C9174F7120A1290155FE4F0E9E5
:102F930090155EF07C387D157A607B15121A399096
:102FA30017A7E0901568F09015697422F0A37415C3
:102FB300023F1E74F0120A12EAFEEBFF5480700304
:102FC30002312790155E123FB37003023120EA24C9
:102FD3001B12581E707CEA241F12581E64137002C1
:102FE300A3E0706E8A828B83123175901579124D2E
:102FF300B0750A00750B00800D123DF4126E90122D
:10300300193DAA0EAB0FEA4B60488A828B83E065B9
:103013000C7004A3E0650D702C8A828B83A3A3A399
:10302300A3E0F50EA3E0F50FE50A450B8A828B8337
:10303300A3A3A3A360C31240F6850A82850B83A3CF
:10304300A3A3A380B78A0A8B0B8A828B83124DAC0E
:1030530080B4E508242A12581EFCE5082402F8E48B
:103063003509F9E8FAE9FB90157912325CA3A3E07C
:103073006402703C8A828B83124DB0800B888289F4
:1030830083A3A3A3A31240F6E849601F8882898320
:10309300E06A7003A3E06B70E488828983A3A3E0F2
:1030A3006C70DA9017AD125B4E806BECF91220F95D
:1030B300850882850983E06401704FE508241812AE
:1030C300315E120FC4126438120DFFE50824121288
:1030D300315E120FC4E508123FA7120FC0E50824A2
:1030E3000B12643C120E03E5082417123F44E50853
:1030F3002402FCE43509FDE5082419FAE43509FB4B
:10310300122927740A120FEE800CE064027007AADA
:1031130008AB091221D7AA08AB091218A7EEFAEFD8
:103123006480802DEA5402600C9017C07401F0EAA9
:103133006402FA8023EA5408601A1220F3EA4B70FF
:103143000B90157B1263137A0812316BEE6408FA45
:10315300EFFB80047A007B00026AC2F582E4350942
:10316300F583E0F50A780A22FB90155EE0F9121A5E
:103173000922A3A3E0F50CA3E0F50D227B00901533
:103183005EE0F91219FD74042274F4120A128A081B
:103193008B098A828B83A3A3A3124BA8123F4F38B8
:1031A300F583E02409FA126A5A700302324F8A82C5
:1031B3008B837402124C1D85088285098312325C4D
:1031C300E8F0A3E91266D48A828B83A3A3A3A3A303
:1031D300A3A3A3F0E5082403F8E43509123251123E
:1031E3003F4F3AF583E08E828B83A3A3A3A3F0EE34
:1031F3002409FAE43FFB8E828F83A3A3125E00F5BA
:10320300838882E0A2E58E828F83A3A3A3A3A35026
:103213000474018001E4F0E5082403F58289831234
:103223004DB0EA1253313BF583126A21120FBC12DF
:103233003F4E3B125EF28E828F83A3A3127BD0128A
:103243000FEEEEFAEFFB90155E126AA78016F9886F
:1032530082F583E0FAA3E0CA22124F4DA3A322749E
:1032630002120FEE7F04020D3474F2120A128A085E
:103273008B09ECFAEDFB740E1212DCE0FC1213EB7B
:103283008A0C8B0DAE0CAF0DEA4F6030AC08AD0964
:103293001213D9E96026AC08AD09EEFAEFFB12135D
:1032A300DFE970148E828F831240E3FAEFFB12136F
:1032B300D3AA08AB091214037900800279B4024E31
:1032C3009C74F0120A1274F6121082EAFEEBFF8C61
:1032D300088D09750FB3852182852283E4F0750E6D
:1032E300008002050E902F55E493F8E50EC3984035
:1032F300030233EBAA0E7B001214278A0A8B0BEA14
:103303004B60E08A828B83A3A31233F228F0F8C3C5
:10331300EE98EF940050CC7C157D007900AA08ABA1
:103323000912188F850A82850B83A3A3A3A3126EA8
:10333300CDE0F8EEC3982925E0F8E433F9E50A284F
:10334300F582E50B39F583A3A3A3A3A3A3123F59E6
:10335300A31259758A0C8B0DAC0CAD0DAA08AB09E1
:10336300121A39850A82850B83A3E06401700A125D
:1033730064387401123F6B8044740112104C850A47
:1033830082850B83124DAE12140FE9603D7409124E
:1033930012DCE0C0E0126438D0E0F074091212DCF1
:1033A300E064037013740112104CE508240BFAE473
:1033B3003509FB121A39801274011212DC1240F61D
:1033C300E50812595B3509126E8E850A82850B83D7
:1033D300126444123F6BA3A3E0C0E0E50824141277
:1033E300643CD0E0F0750F00A90F740A026ABFA312
:1033F300A3A3E0F8852182852283E02274F7120AD1
:1034030012E9FE8A828B83A3A3A3A3A3A3E0540898
:1034130060338A828B83A3A3A3A3A3A3E054026094
:10342300218A828B83A3A3A3A3A3A3A3A3A3E0645F
:1034330006600F74E96E600A74CD6E600574F06EF9
:1034430070031220DB02479B74F0120A1274EF120E
:103453001082740F1212DC1261F774081212DCE985
:10346300F0ECFEEDFF74051212DC12456312478780
:10347300A3E0F91213F774061212DC1261F7740653
:103483001212DC1253C27003023706123F93E0FAA2
:1034930074061212DCE0F912201B123766F8A3E05F
:1034A300F9E8497003023706EE2403F50AE43FF511
:1034B3000BEE2406F508E43FF5097C00850882F548
:1034C30083124DB0850A82850B83E0F91213FD74D4
:1034D300031212DC1261F7850A82850B83E0C0E0D8
:1034E30085218285228312375FD0E01254D7F98574
:1034F3002182852283123DFB1250291233F5FAA350
:10350300E0CA2407F582E43AF583E8F0A3E4126203
:10351300022406F582E438F583E4126E9A124B9C7A
:10352300120FBCEE123F4F3F125EF274031212DC15
:10353300124BA82409127BCA120FEE74291212DC53
:10354300126EC71232561254EA3A126E8E742B124E
:1035530012DCE0C0E0852182852283125389D0E00A
:10356300F074021212DCE4F074251212DC780812F3
:10357300126702365D74031212DC125EBA8882F59A
:103583008312374EA3A3A3125980FB121415850E81
:1035930082850F83A3EAF0A3EBF074031212DC120B
:1035A300375FA312374E125B8FA2E6500F850E8250
:1035B300850F83A3A3A3A3A3E0D2E1F074051212A2
:1035C300DCE0706B850E82850F83A31240F69015A5
:1035D300B9E0687003A3E0697055850E82850F8397
:1035E300A3A3A3123F2E750C00780C120FC4780806
:1035F300120FB874291212DCE0F50C780C120FC408
:1036030074271212DC120E039015C6120E037900F2
:1036130074191212DC124D8012221F740A120FEE5B
:10362300850E82850F83A3A3A3A3A3E04405F074AF
:10363300021212DCE004FC8E828F83124DAA8E826A
:103643008F83A3A3A3E0F91213FD74031212DC12F8
:1036530061F774021212DCE004F074031212DC123C
:1036630053C2606774021212DCE0FA74061212DCB1
:103673001240F6C3EA98E499505174021212DC1214
:103683003A38852182852283E028F8A3E039F9E8D6
:10369300240FF50EE439F50F850E82F583E4F074FB
:1036A300031212DC12375964016003023578740582
:1036B3001212DC7401126AADF074031212DC125C94
:1036C30081123A5BE8F0A3E902359C8521828522C9
:1036D30083124DB0122021852182852283120E038D
:1036E30074261212DCE0FD74251212DCE0FC740A6D
:1036F3001212DCE0F9EEFAEFFB1220D57402120F7E
:10370300EE80438E828F83A3A3A3E0C0E0740C12E8
:1037130012DCD0E0F0126916E0C0E0740D1212DC86
:10372300D0E0F074061212DC1253C27009740E1248
:1037330012DC74B98007740E1212DC7410F0740971
:103743001210441222197411026ABFE0850E828599
:103753000F83A3A3A322E01254AFE022E01254AFDD
:10376300A3A322852182852283EAF0A3EB1253CB04
:103773002274F0120A1274E112108274041212DC21
:10378300E9F074031212DCECF074021212DCEDF0B7
:103793008A0E8B0F742F1212DC123177AA0CFB12D4
:1037A300200F74011212DCE9F0AA0CAB0D122015E4
:1037B30074011212DCE07003023A33852182852200
:1037C30083E480158E828F83A3A3A3A3A3E0D2E314
:1037D300F0852182852283E004126A05F88521821F
:1037E300852283E0C3984003023A2A74011212DC53
:1037F300E07003023A2A852182852283123A38E552
:103803000C28F8E50D39F9E8240FFEE439FF8E8220
:10381300F583A3A3A3A3A3E0A2E040B575080075B5
:103823000A08750B0074021212DCE06003750820AD
:103833007C087D007900740512104412188F8E8263
:103843008F83E0603E901609E06401701AE508D2A8
:10385300E3F508750B10123A481212DCE8F0A3E9FD
:1038630012587374FF807643080C750A0C8E828F8E
:1038730083A3123A53126E9074051212DC74FFF094
:10388300A3805A74041212DCE06009E508D2E6F55D
:1038930008750A0A8E828F83A3E064FE7003A3E097
:1038A300F4703074121212DC7404126462F8741D22
:1038B3001212DCE8124C1D7412121044121F3D7DCB
:1038C300007C00790074151212DCAA82AB83121DEE
:1038D3000F800B123A481212DCE8F0A3E9F07407E8
:1038E3001212DCE508F0123F8AC0E074091212DC00
:1038F300D0E0F0740A1212DC7401F0740512104463
:103903001221DD74111212DCE06003023A08740D17
:103913001212DC1254D28E828F83A3A3A3A3F0745A
:103923000D1212DC124BEBE50AF0A3E50BF0740366
:103933001212DCE0C0E0124B7CD0E0125B8F60110E
:10394300901609E0C0E0740D1212DC124BC6D0E0F1
:10395300F0740D1212DC1240F6850C82850D83A3E0
:10396300A3A3A3A3123A41241C1261F1126EAA125B
:103973003A43125B4139126935C0E0124B63D0E020
:103983001269FAC0E0740D1212DC1246A9D0E012DB
:1039930066FBC0E0740D1212DC12469FD0E0F07497
:1039A3000D1212DC123A53123A41242A1261F185A4
:1039B3000E82850F83A3A3A3A3A3A3A3A3E01261F2
:1039C300EA123F79C0E012468BD0E0F0740D121278
:1039D300DC124DB0850E82850F83126A102428F500
:1039E30082E43B126E8E123F82126A21120FBC12C6
:1039F3005EEBEA1261833B127BCE120FEE7405126B
:103A030010441221E38E828F83A3A3A3A3A3E0D246
:103A1300E0F074111212DCE060030237C774011284
:103A230012DCE0140237D37900AA0CAB0D1220E1AB
:103A3300741F026ABFE075F007A4F8A9F022A3A3DC
:103A4300124DB4E8228E828F83A31240FA740522AA
:103A5300E0123A5BA3A3A322F8A3E0F9850E8285C3
:103A63000F83A32274F0120A1274E8121082E985FC
:103A73002182852283F08A0E8B0F8A828B83A3A3F4
:103A8300A3A3A3A3A3A3E0F91220398A088B09EA0D
:103A93004B7003023B44E50E125345123FA2123F03
:103AA30039852182852283E06003023B477C0485BC
:103AB3000E82850F83A3A3A3A3A3A3A3A3E0F91259
:103AC300203FEE4F607B8E828F83A3A3A3A312407C
:103AD300F674071212DC1263281240F674091212EC
:103AE300DC124C4DC0E074111212DCD0E01266D926
:103AF300A3A3A3A3A3A3A31240F6740F1212DC1271
:103B03006E9074121212DCE4126AB5C8241FF58297
:103B1300E438F583125EB6C413135403FC70027CBD
:103B2300048E828F83E0F97808120FC0742059FD48
:103B3300744059F974031210441220D57402120F01
:103B4300EE026ABD7C08850E82850F83A3A3A3A31F
:103B5300A3A3A3A3E0F912203F8B0BEA4B7003024C
:103B63003AC5EE4F60DB852182852283E0F50C7830
:103B73000C120FC4850882850983A3A3A3A3A3A35F
:103B8300A3E0F50C780C120FC48A828B83A3A3A342
:103B9300E0FB8A82850B831276ED8A82850B83E0B4
:103BA300FA8E828F83A3A3E0F912292D7402120FD8
:103BB300EE023AC974F7120A1274FA121082E9FE7D
:103BC300780179017F00800379000F124F2CE0FC0C
:103BD300EFC39C5026EF75F007A4FC85F008AD08F1
:103BE300EA2CFCEB3DFD12451BE0A2E050DA540C3D
:103BF30060D6E0A2E250D3780080CF8A828B83A381
:103C0300A3A3A3A3A3E0703DE9A2E0400574016E62
:103C130070338A828B83A3A3A3A3A3A37401123F4C
:103C23000BE0C0E074031212DCD0E012457AE0C06E
:103C3300E074041212DCD0E0F074051212DCE81216
:103C43005E551222197406024798C082C083790117
:103C53001220E1025C9174F4120A12EA4B9017C02D
:103C63006019E4F08A088B09F50AF50B7808120F3E
:103C7300B87A0212317F120FEE800A7401F07A02D1
:103C83007B0012316C02326774F0120A1274F31261
:103C9300108274031212DCE4F0A3F0901579123F42
:103CA3003974011212DCE4F0A3124C2204F09015D3
:103CB300B3E0A2E35003023D7E123EFF74091212E9
:103CC300DC1212A174091212DC7808121267901523
:103CD3007B780812105474051212DC7808121276DD
:103CE300123E0274051212DC780812121950077A78
:103CF300017B00023DEF74051212DC780C1212678F
:103D03009017ACE0F509780C79081209A3A80CA95F
:103D13000D9017ADE0C398E4995003E08001E88566
:103D23002182852283F074091212DC78081212674B
:103D3300C008C009C00AC00B74051212DC780C124B
:103D43001267123E02780C79081209A3E4F50AF50A
:103D53000BD00FD00ED00DD00C780C7908121114A3
:103D630090157B780C1212768011123DF4126E902E
:103D7300EEFAEFFB12193DAE08AF09EE4F60658E08
:103D8300828F831233F2C398502DEE2403F8E43F5D
:103D9300F9E0FA88828983E0C39AF06023740312FE
:103DA30012DC12425C74011212DCEEF0A3EF126318
:103DB30043FEA3E0FF80C48E828F83A3A3A3E4F01A
:103DC3008E828F83127B8774011212DC1253C28E90
:103DD300828F83A3A3A3A3609112631C1212DC122C
:103DE3003DFB808974031212DC124DB0740D026A1C
:103DF300BF1240FA90157922125EE1A3A3A3229089
:103E030017AB127B8FE4F50AF50B2274F0120A123A
:103E13008A088B09890A78007900901579123F394D
:103E2300FBEE4B601E088E828F83A3A3A3A3124DC8
:103E33007A601008E87001098E828F83123F35EA99
:103E43004F70E39017AE124DB0C3E89AE99B40035D
:103E5300023EF27A06123EF5A80CA90DEA49700358
:103E6300023EF28A828B83E508F0A3E509123F1430
:103E7300E50AF09017AD124F34123F0BA3E4F0A301
:103E8300F0901579124D7A600D8E828F83A3A3A3D0
:103E9300A3126E908017901579126E909015B3E06F
:103EA300A2E34009123EFF90157B1212A19015B3B5
:103EB300E0A2E3503A7A087B0090155EE0F9121A0B
:103EC3000FEA4B4C4D70289017ABE0F508A3E08543
:103ED300080CF50DE4F50EF50F780C120FB87A08FF
:103EE3007B0090155EE0F9121A037404120FEE02C0
:103EF3006AC27B001219378A0C8B0D22121A21EA2F
:103F0300F8EBF9ECFAEDFB22123F0F22123F14A358
:103F130022F08A828B83A3A322E508F002479BF059
:103F23008E828F83A3A3A3A3A3A32212582CA3A39C
:103F3300F022A3A3A3A3E0FEA3E0FF227F05020DCB
:103F430034F582E43509F583E0F922EA123F53227E
:103F53002410F582E422123F61A3A3A3A3221240FB
:103F6300FE85088285098322123F6F22F0850A822B
:103F7300850B83A3A322E50E2411123F9FE022E5C4
:103F83000E240E123F9F22E50E2410123F9FE022C3
:103F9300123F9722EE123F533FF58322F582E43519
:103FA3000FF58322240FF50AE43509F50B780A226D
:103FB300E0F91218B98A088B09EA4B2274F2120A43
:103FC30012890B8A088B098A828B83124DB01221C6
:103FD30005EA4B600479B8806A122111E9F8902F41
:103FE30046E493F9E8C399400479B280567A1512EE
:103FF3003EF5AE0CAF0DEA4F7004791080458A820E
:104003008B83E4F0A3123F14E50BF0750A007808E4
:10401300120FBC7C127D00EA24031269CC120FEE4E
:1040230090157F1253C2700890157F800C1240F6D2
:104033008882898312404970F4EEF0A3EFF01221D5
:10404300237900024E9C124DB4EA4B888289832265
:10405300C082C08390157F80048C828D831276EE9C
:10406300EC4D60288C828D83A3A3E069600574FF07
:104073006970E68C828D83A3A3A3E06A7003A3E037
:104083006B70D6EC2403FAE43DFB80047A007B00DA
:10409300025C9174F7120A12E9FD74FE6D70047CE0
:1040A3000180027C0090157F80096D70027C01887D
:1040B3008289831253C2601F88828983A3A3A3E0EA
:1040C3006A7003A3E06B70E7ECA2E088828983A3A4
:1040D300A3E050D6F9800279FE02479BEEF9800CEB
:1040E300A3A3127B8FEE227402120FEE7F02020D46
:1040F30034F5831240FA221240FE22E0F8A3E0F9DD
:10410300221240FE8E828F8322120FEE7F03020D56
:1041130034C082C083790090157F800109E0FAA33F
:10412300E08A82F583E582458370F1025C9174F63F
:10413300120A12E4F508F5097808120FC0902F4609
:10414300E49375F013A4A9F0124251126EEE120F0C
:10415300EEE9FE74096E700312211D0240DF74F64E
:10416300120A1274FE121082852182852283E4F0E2
:10417300A3F0A821A922880889097808120FC0751D
:1041830008027509007808120FC0126B5F120FEE58
:104193000240EA74F5120A1274EB1210828521822E
:1041A300852283E4F0A3F090157F80748E828F8341
:1041B300A3A3E0C0E074021212DCD0E0125873A98A
:1041C30082AA8389088A09750A007808120FBC7CC1
:1041D300127D0074061212DC126EB3120FEE74021B
:1041E30012103C880889097808120FC075081375E6
:1041F30009007808120FC074041212DC125365759B
:10420300F013A4F8AAF075F013E912424D126B678C
:10421300120FEE85218285228312425C8E828F8368
:10422300123F39EE4F7085A821A9228808890978A1
:1042330008120FC07508027509007808120FC01222
:104243006B5F120FEE741502410CA42AF9E82402E5
:10425300FCE439FD7A427B0022E02401F0A3E03440
:1042630000F02274F4120A1274EB1210827E007FA3
:1042730000A821A922880889097808120FC07508A7
:10428300028E097808120FC07C007D007A42126EFC
:10429300FA120FEEE9706C8E088056740212103C0D
:1042A300880A890B780A120FC0750A13750B0078F8
:1042B3000A120FC0E50875F013A4F8AAF075F013FD
:1042C300E50912424D126EFC120FEEE9701B7403E6
:1042D3001212DCAA82AB8374021212DCE0F9122000
:1042E300FFE970050EEE70010F0508E50870020581
:1042F300098521828522831240F6C3E50898E509E2
:10430300994098EEFAEFFB741502326474F6120AC0
:10431300128C828D83A3A3124568F0EA1261893B54
:10432300F583E0C0E0124525D0E0F0EA241DF582D4
:10433300E43B1240F4124509124563F0A3F0EA246A
:104343001FF582E43BF583123F39EC1244FC3DF543
:1043530083EEF0A3EFF01245023BF583124533A33E
:10436300A3A3A3A3A3EEF0A3EF125DE4FE8C828DBF
:104373008312457274035EFEC3940340030244EF49
:10438300EE600874026E60030244148C828D83E035
:10439300540CFE740C6E7003024453E0A2E4400D0F
:1043A30088828983E08C828D83A312458874086E8A
:1043B30060030244531245137401F08A828B83A372
:1043C300A3A3A3A312583970148C828D83E0440CE9
:1043D30012457AA3A3124533EEF0A3EFF08C828D3E
:1043E30083E0A2E4402B88821245411245565001D6
:1043F30009F582124541A3A3A3A3A3A3F0A3EF123C
:1044030045828C828D83A3A3A3F0E82403F8500193
:104413000988828983E0C0E0EC2411F582E43DF54C
:1044230083D0E01245728C828D83E0A2E7507588B9
:10443300828983E0FE8C828D8312458874FC5E70D2
:104443000C8C828D83A3E054036403701E0244EF3B
:10445300124513E4F0740C6E60030243BE888212AB
:1044630045471245565001090243E08C828D83A3D0
:10447300E05403603288828983E0C0E0EC12452D6A
:104483003DF583D0E01245898C828D83E05403642B
:1044930002701488828983E0C0E012451BD0E012C9
:1044A30045898003A3E4F0EC1253313D126E8EEC88
:1044B3002410FEE43DFFEA241DF582E43BF583E08E
:1044C300F5088E828F83E0C3982508F508F0EA2467
:1044D30017F8E43BF98882F583E0C39508C0E0123E
:1044E3004509D0E0125DE4C39508500A124509E47A
:1044F300F0124525E4F00240EF2415F582E422EAA8
:10450300240DF582E422EC240DF582E43DF58322AB
:10451300EC1254EA3DF58322EC2414F582E43DF5D4
:104523008322EC123F533DF583222413F582E422C8
:10453300E0FEA3E0FF8C828D83A3A3A3A3221245F5
:1045430047A3A3228983E0F508A3E0FFE5088C8253
:104553008D8322A3A3A3A3F0A3EFF0E82402F82200
:10456300124568A322E4F08C828D83A3A3A32212B5
:104573004590A882A98322123F0FA3A3A3A32212CB
:104583004590A3E022A312459008A98322125DED72
:10459300A32274F4120A1274F31210828A0A8B0B88
:1045A300ECFEEDFF8C82F583E0540CF508E0A2E706
:1045B3005006E508D2E7F508E508D2E1F5081258F8
:1045C300397006E508D2E4F508E0A2E55006E508EF
:1045D300D2E5F5087C087D007900AA21AB221218E8
:1045E3008F74021212DCE508126E94C0E074031299
:1045F30012DCD0E0124C22E50AF0A3E50BF07405BF
:104603001212DC1267001212DCE0707774081212C7
:10461300DC124BA8125DD63812671BC0E074081277
:1046230012DC1246A9D0E01266FBC0E07408121235
:10463300DC12469FD0E0F074081212DC124695E0BB
:10464300124BD0124C511261EAEE2411125805C0DC
:10465300E012468BD0E0F0EE2414125805C0E0744B
:10466300081212DC124BA82435F582E438F583D006
:10467300E0124BF5C0E074081212DC124BACD0E030
:10468300126454740D023264E82432F582E439F57D
:104693008322124104A3A3A3A3A3A322124BBC12FC
:1046A30068FA38F58322124BBC2426F582E438F5E8
:1046B300832274F7120A127E008A828B83A3A3A338
:1046C300A3A3A3A3A3A3E064046003024777125444
:1046D300E2E060030247771253443B1253C0700376
:1046E30002477788828983E054036003024777E8AF
:1046F3001254EA39F583E0FA8C828D83A3A3E0FB9D
:10470300A3E0CB2411F582E43BF583E06A7065886E
:10471300828983A3A3A3A3A3A3A3A3A312477BE099
:104723006A7003A3E06B704C88828983A3A312474A
:1047330087E0FFA3E0CF24061258056A7003A3E0C5
:104743006B703188828983A3A3E0F88C828D83A365
:10475300A3E0F9A3E0F5838982A3A3E06860138C47
:10476300828D83A3A3A3E0F5838982E0540C6404C0
:1047730070027E01EEF9802012477F22124DB88C21
:10478300828D8322A3A312477FA3A322740C121248
:10479300DCE0F9740D120FEE7F01020D3474F61292
:1047A3000A1274FC121082EAFEEBFFECFAEDFB8CAA
:1047B30082F583A3E0540360169015751253C2600B
:1047C300597900EEFCEFFD125FE1120BFA804B8585
:1047D3002182852283EEF0A3EFF074021212DC1221
:1047E3004C17AC21AD227A3B7B211223638A088BC1
:1047F30009A808A909EA4960218A828B83A3A3A394
:10480300A3A3A3A3A3A37406F07A0088828B8312C5
:104813004BA81261AAE0F91222C174040240EC749D
:10482300F2120A1274F3121082EAFEEBFF8A82F587
:1048330083A3A3A3A3A3A3A3A3A3A3E0F50A90170E
:10484300C0E0700579BA024B6075080175090075FF
:104853000C00750D007C087D007900AA21AB2212A3
:10486300188F74051212DC7401124C2A540460125E
:1048730074021212DCE0D2E6124C2A54087003755B
:104883000803E05410600674404508F508E0540836
:10489300602274021212DCE044C0124C2A542060DD
:1048A3000A74031212DCE0D2E0800874031212DCF3
:1048B300E0D2E1F0EE2415125805124B9070037408
:1048C3000169700674084508F5088E828F83A3A3D7
:1048D300A3A3A3A3A3A3E070161223BD85218285FE
:1048E30022831261F774021212DCE0D2E280306498
:1048F3000F701074021212DC124C3274044508F566
:1049030008807F8E828F83A3A3A3A3A3A3A3A3E083
:1049130064028E828F83700A126EC7E8F0A3E9F0F7
:104923008060A3A3A3A3A3A3A3A3E06403700DAC1C
:1049330021AD22EEFAEFFB12217180468E828F8326
:10494300A3A3A3A3A3A3A3A3E064017035901609B3
:10495300E0601074021212DC124C32750910750AF1
:10496300FF801874021212DCE0440C124C2274FD16
:10497300F0A374FFF074044508F5088E828F831248
:104983003177EE2415125805A2E0503F740212123B
:10499300DCE0540C701B8E828F83124DB0121DDB32
:1049A300E9700579BB024B6074021212DCE0D2E5B8
:1049B300F0EE2415125805A2E0501074021212DC16
:1049C300E0540C64047004E0D2E5F0EE24111258B4
:1049D30005C0E074041212DCD0E01267021212DC8C
:1049E300E06003024B5974081212DC124BEBE5082A
:1049F300F0A3E509F0124B86E0C0E0124B7CD0E057
:104A0300F0124B6DE0C0E074081212DC124BA812D6
:104A1300452D38F583D0E0124C5164017011901686
:104A230009E0C0E074081212DC124BC6D0E0F07447
:104A3300081212DC124BE6124B77FAE8241CF582BB
:104A4300E439F583EA124C1DEE2415FAE43FFB8AA0
:104A530082F5831276EEE8125B4139F583124C1727
:104A6300EE241C125805C0E0124B63D0E0125C87A1
:104A7300124B907003740169701374081212DC12E4
:104A830054D2FAEE241D125805F91220458E828F56
:104A930083A3A3A3A3A3A3A3A3A3E0C0E0740812C7
:104AA30012DC1246A9D0E0F074081212DC12469F01
:104AB300E50AF074081212DC1253652428F582E427
:104AC30039F583E50CF0A3E50D124BFD124BD01223
:104AD300587E1261EAEE124B77C0E0E82433F58288
:104AE300E439F583D0E0F0EE241B125805C0E074DE
:104AF300081212DC124BACD0E0F0EE241A12580567
:104B0300C0E074081212DC124BA82432F582E43898
:104B1300F583D0E0124BF5124B9C120FBC126900C7
:104B23001276EE740B1212DC124BA8242F127BCADE
:104B3300120FEEEE2415125805544060129015958D
:104B43001253C2600AAA21AB22125FE1120BFAAA26
:104B530021AB221221E3740C1212DCE0F9024E970E
:104B6300E82420F582E439F58322EE2419F582E462
:104B73003FF5832212690FE022E82412F582E4391B
:104B8300F58322EE2418F582E43FF583225480F85E
:104B9300A3E05401F974806822F508A3E0F50975D0
:104BA3000A00780822124BBC22124BBC2434F58233
:104BB300E438F58322A3A3A3A3124BC022E0F8A3F6
:104BC300E0C822124BBC1244FC38F58322FAA3E05E
:104BD300FBE8242AF582E439F583EAF0A3EB22A368
:104BE300A3A3A31240FAEE2212536912534939F5D3
:104BF3008322F0EE241312588622F0EE240D12586D
:104C03008622E0FC8A828B83E02CFCA3E03400FD47
:104C13008A828B83ECF0A3EDF022F0A3E4F022F080
:104C230085218285228322F0EE241512588622E004
:104C3300D2E3F0124C3A228E828F831240FE8521FA
:104C430082852283E8F0A3E9F022E8F0A3E9126366
:104C53003DE02274F7120A128A828B83A3E0640177
:104C630070047E6380027E648A828B83E0600879AD
:104C730005124C8A24F3FE9015B1E06007F9124C3B
:104C83008A24F2FE02477712228BE9F8EEC39822B8
:104C930074F6120A1274FE12108285218285228311
:104CA3001261F7E9FEECFAEDFB9005C21253C26004
:104CB30032A821A922880889097808120FC07D012A
:104CC300740E1212DCE0FCEEF99005C21261CB12F5
:104CD3000BFA7402120FEEEA4B6004790080067936
:104CE300B2800279B60240EA74F7120A12E9FE9022
:104CF300156B1253C2601F74091212DCE0F50878B9
:104D030008120FC4EEF990156B1261CB120BFA74F3
:104D130001120FEE800279B602479B74F7120A1252
:104D23008908ECFEEDFF79B5E508245E6020146088
:104D33000624F86034803D9005C4124D7A60351224
:104D43006F0B120BFA8E828F831261F780249015FA
:104D53006D1276EEEC4D601CEEFCEFFD90156D12BE
:104D630061CB120BFAE9F9800B901569124D801291
:104D73001A39790002479B124DB4EA4B221276F29C
:104D8300EEFAEFFB2274F7120A12E9FE79B574AB5F
:104D93006E700B901569124DB0121A3979000247E3
:104DA3009B8E828F83A3A3A3A3A3A3A3A3124DB418
:104DB30022124DB822E0FAA3E0FB2274F1120A1288
:104DC300EAFEEBFF8C0A8D0B7508019015B9E06EB6
:104DD3007003A3E06F700C124E8BAA0AAB0B121A6E
:104DE30039805E1223C3EE6A7002EF6B7009AA0A60
:104DF300AB0B1223C9804AAC0AAD0BEEFAEFFB12E0
:104E03001F19E9F5089017B3E07036122861E970AD
:104E130030E508702C901589E06E7003A3E06F7085
:104E230020EE4F601C750C81750D15750E00780C06
:104E3300120FBC7C087D00AA0AAB0B126EB7120FCF
:104E4300EEA9080277EA74F2120A12EAFEEBFF8C6B
:104E5300088D09750A01124E8BEEFAEFFB121A3315
:104E6300E9640170119015B91240F685088285092D
:104E730083126E90800EAC08AD09EEFAEFFB121FA1
:104E83001FE9F50AA90A80111223B78A0C8B0DAC0E
:104E93000CAD0D22740D120FEE7F06020D3474F665
:104EA300120A12EAFEEBFF7A0D7B00121937EA4B66
:104EB3006062EE2424126B94F0EE2425126B94A30B
:104EC300124F59126B9AA3A312692D124F34F0EEAD
:104ED300124F1A124F49E8F0A3E9124F70124F41D3
:104EE300126E90EE124F231269F0A3A3A3A3F0EE68
:104EF3002433125805C0E0124F2CD0E012671F1262
:104F03004F41A3A3A3E8F0A3E9124F68C0E01254F2
:104F1300E2D0E0F00240EF242AF582E43FF5832259
:104F2300242EF582E43FF58322EA12595B3BF58395
:104F330022124F3822E08A828B83A3A3A322126A10
:104F43004FA3A3A3A322124F4D221240FE8A828BAA
:104F530083A3A3A3A322F0124F5E22EE2426F5829D
:104F6300E43FF58322F0EE243212588622F0EE2439
:104F73002C1258862274F4120A1274FE121082EC58
:104F8300FEEDFFEC241612580564057010EC2406A0
:104F9300FCE43FFD12216BE97003025024AC21AD08
:104FA30022126C49121DE18521828522831253C28C
:104FB300606B8E828F83E064017058E875F009A4FA
:104FC300F8AAF075F009E9A42AF974E228F8740242
:104FD30039F9E8FAE9FB8882F5837808121267EE5B
:104FE3001250C61212194027852182852283124B43
:104FF300E6125813125029780812126790866778C0
:10500300081211508A828B837808121276800A79EB
:10501300A28010EE240F126E8A7900800679A18097
:105023000279C8023262124C47EE12691B2274F2F3
:10503300120A128A0C8B0DECFEEDFFEC125813E4EE
:10504300F0A3F09086377808121267EC1250C6125C
:1050530010986067EC240E12580C703478B39015D6
:10506300B0E070289015E2E064017020EC24111286
:105073005805F91222738B09A909EE1253453F1201
:1050830061F5EA4960047800800278A18808802EDF
:10509300E060046402700A12217DE9F5087007805C
:1050A3001DE064037010EEFCEFFDAA0CAB0D121EA5
:1050B30005E9F50880087508A180037508A3A90808
:1050C300024E9C12691B78082274F0120A1274F5BE
:1050D300121082EAFEEBFFEA240AFCE43F8C82F51D
:1050E30083127B8B12534F740312104C8A828B836F
:1050F300125FEBE970030251B5740112104C740393
:10510300121044121DE174011212DC1253C2700317
:105113000251B5E875F009A4F8AAF075F009E9A4FD
:105123002AF974DE28FC740239FDE508240E1264A2
:105133003CE4F0041212DC1240F6E5081253453544
:1051430009126E8E8C828D831212C5E50824121209
:10515300643C1212A190866778081212678C828DC4
:105163008378081211AF8C828D83780C12126790AA
:1051730086CF7808121267780C79081209A3E5081C
:105183004509450A450B702A74011212DC12536556
:1051930075F009A4F8AAF075F009E9A42AF974E6F0
:1051A30028F582740239F5837401F07A007B0812C2
:1051B30053728E828F83A3A3A3A3A3A3A3A3A3A3A7
:1051C300E02406FCA3E03400FD8E828F83125FEBA4
:1051D30012670D603EEE240A125337124BEB7468CC
:1051E300124C1DE812533139F5837402F090159B6C
:1051F3001212C58C828D831261E4125DD63CF58355
:105203001212A1908667780812126790159B78088E
:105213001211AF1253AD705D90156912535DA3A3C4
:10522300A3A3A3A3A3A3A3A3125E0C121A33E9702F
:1052330010125DCA901569125DDC700512670D606E
:10524300348E828F83A3A3A3A3A3A3A3A3A3A31295
:10525300535D124DB0121E0BE960118E828F83A332
:10526300A3A3A3A3A3125399E4F0A3F08E828F8385
:1052730012537FE4F01253AD600302532C8E828FDE
:1052830083A3A3A3A3A3A3127B879015B0E060031A
:105293000253219015E2E064016003025321750A71
:1052A3003A750B00780A120FC0740212103C880A78
:1052B300890B780A120FC0127186120FEEE9705B28
:1052C300E508240E12643C74011253C7C0E0E508DC
:1052D300241112643CD0E0F0E508240F12643C74FE
:1052E3003A124C1D9015971212C5E5082412126448
:1052F3003C1212A19086677808121267901597786E
:10530300081211AF90866778081212679015977884
:1053130008121098700812536E800312534F1253E1
:10532300AD7006125CCD74A1F0740B026ABF240E3B
:10533300F582E422F8E43FF9E8FCE9FD8882F5838D
:1053430022EA12534922240FF582E422E50812537C
:10535300493509F583E4F0A3F0221276F28E828FA9
:105363008322125369221240FEE8227A007B0290C4
:105373001442E0F91218E3228A828B83A3A3A3A326
:10538300A3A3A3A3A3A312538D22124BC0240EF5F0
:1053930082E438F58322A3A3A3A31253A122124BC1
:1053A300C0240FF582E438F583228E828F83A3A372
:1053B300A3A3A3A3124BB8240FF582E438F58312F9
:1053C300536949221253CB22F0852182852283E03F
:1053D3002274F6120A12EAFEEBFF7A237B001219FB
:1053E30037EE240AF508E43FF5098508821261F5D2
:1053F3007C237D00790012188F850882850983122A
:1054030053C27003025495EEFAEFFB122189125333
:10541300AD60748E828F831254C864018E828F8331
:10542300A3A3A3A3A3A370071254BE740E802112D7
:1054330053C2701012670D700B8E828F83A3A3E08B
:10544300A2E050071254B4740D80051254B47405CD
:1054530012671F54036401700712549C7405800B78
:105463009015B1E0C0E012549CD0E01254D7F583FC
:105473008882125832850882850983124BA81261EB
:105483008938F583E9800E85088285098312626E67
:1054930080031261B1F00240EF8E828F83A3A3A336
:1054A300A3A3A3A3A3A3A31254AE22E01261D0A388
:1054B300228E828F83A3A3A3A3A3A3124BB812614B
:1054C3008F38F58322A3A3A3A3A3A3A3A3A3A31208
:1054D300538DE0221254DB22126C5EF8A3E022EA21
:1054E3001254EA3BF58322240CF582E42274F11270
:1054F3000A1274E41210828A0C8B0D8C088D097ABF
:10550300237B001219378A0A8B0BAE0AAF0BEA4FC3
:1055130070030257ED126195E508241512581E68B1
:105523007003A3E0698E828F837004740280027417
:1055330001F0E508240DF8E43509F98882F583E0E4
:10554300FAC3E49AFA95E0FB12581A2AFAA3E03B4D
:10555300FB8E828F83A3A3A3A3125DF38E828F831B
:10556300A3A3F0EE2420F582E43FF583E4F0EE24D8
:1055730021F582E43FF583E4F0EEFAEFFB12223DDE
:1055830085088285098312583970098E828F83A317
:10559300740580069015B1125827F0EE2417F50A0A
:1055A300E43FF50B8E828F83125832E9850A828598
:1055B3000B83F0EE2416F8E43FF9E508240EFAE431
:1055C3003509FB88828983124C05E5082410FAE427
:1055D3003509FB850A82850B83E0FC88828983E099
:1055E300F88A828B83E0C398C39CF8125873F0EE59
:1055F300FCEFFDAA0CAB0D122183E9F50B8E828F14
:1056030083E064027006125DCA1257F7E50B60036C
:105613000257E4750C00750D009017B3E064016048
:1056230005E06402703F1258096008EE2421125805
:105633000C70328E828F83A3A3A31261B712583FDB
:10564300EE2416125805125868FAE439FB123EF795
:10565300EA4B6011126A19120FBC12584DAA0C12B0
:105663006EB7120FEEEEFAEFFB122249E9F50B903B
:1056730017B3E064016008E0640260030257D7E9EE
:1056830070030257D7E50C450D70030257E48003FE
:10569300850E0B125809600BEE242112580C60037F
:1056A3000257DD850B0E850C08850D09750A0078F8
:1056B30008120FBC12584D8E828F83A3A3A3A3128B
:1056C3007BD0120FEEEE2420125805600D125812F3
:1056D3007468124C1DEE24208015EE242112580507
:1056E30060151258127403F0A37401F0EE2421F52F
:1056F30082E43FF583E4F0EEFAEFFB122249E9F589
:105703000B70907C137D00790074091210441218F9
:105713008F741A1212DC740112587E64687002A32B
:10572300E0704F8E828F83125399E0640560030209
:1057330056937C0879FF8E828F83A3A3A3A3E024CF
:105743002A125E0F121919E970030256937C087D21
:105753000079FF740112104412188F740112104C57
:105763007A007B0079AB12216574191212DC74FC88
:105773008015125812E064037004A3E064017008FA
:1057830074191212DC74FFF0E4F508F509780812B5
:105793000FC0740212104C74131212DCAA82AB8372
:1057A3001262F4120FEE852182852283E0602B744E
:1057B3000912103C880889097808120FC07508136C
:1057C3007509007808120FC07C007D00126B671208
:1057D3000FEE8006E50C450D6007AA0CAB0D121900
:1057E3003DEEFAEFFB12193D8003750B10A90B7404
:1057F3001C0277E7EE2406FAE43FFB121A3922EE85
:10580300240C12588622EE2420125886640122EEBC
:105813001253493FF58322E508240EF582E4350946
:10582300F583E02212582CA322E08E828F8322A3D9
:10583300E0F912228B22E05403640122125843221E
:10584300E0FAE82AF8E43400F9228E828F83A3A3D6
:10585300A31261BB125843EE2416125886125868DD
:10586300FCE439FD22FAE82AF8E439F9E8240422B1
:105873001258772212672EA3A3A322F01258832271
:10588300EE240FF582E43FF583E0227901020F83D2
:1058930074F4120A12EAFEEBFF8A82F583A3A3A330
:1058A300A3A3A3A3A3124BA82424F582E438F5836E
:1058B300125839702E8A828B831254C8702512595C
:1058C30061E06405701D125961A3E0F8740168601A
:1058D30005740668700712537B7402800512537BAC
:1058E3007403F0EA240A1262621261CBE4F0EA2440
:1058F30008F8E43F1232512431F582E43AF583E0AB
:10590300C0E0126F02A3A3D0E0125980CA242EF57F
:1059130082E43AF583E0C0E0126F02A3A3A3D0E0D0
:10592300125EA6C812595B381240F4126F02125964
:10593300758A0A8B0BAC0AAD0B8508828509831225
:105943005E0C121A39850882850983124DB0122222
:105953004912625DF0023267240BF582E4228A82E7
:105963008B83A3A3A3A3A3A3A3A31266F4F58388A2
:105973008222A3A3A3A3124C471223B722125DE8EA
:10598300FAA3E02202588EC082C08390158B748FD5
:10599300F0A37421F090158D749BF0A37421F09003
:1059A300158F74A1F0A37421F09015917495F0A351
:1059B3007421F0025C9174F4120A12EA2408FEE4E2
:1059C3003BFF8E82F5831253651261A1E0F50874E3
:1059D300035508F509125E07F8A3E08882F583E50D
:1059E30008F0A3A882A983E5096009740265096028
:1059F30003025AA6740C5508FC600A74086C60050F
:105A030074046C7026740265097006E508A2E4400C
:105A13001A8A828B83A3A3A3A3A3A3A3A3125BAC1E
:105A23001268FA3D125B47A308A983740C6C701CBF
:105A3300125BA82428125B942428F582E43DF583A5
:105A4300A3126528F0E82402F850010974026509DD
:105A53007006E508A2E4404B125BA8242A125B946B
:105A6300242AF582E43DF583A3125B56125BB2123E
:105A73006528125BB2A3125B4EE82404F8500109B7
:105A8300EC600F74086C600A740C6C600574046C31
:105A930070111261D82426F582E43C125B47A3A857
:105AA30082A9838A828B83A3A3A3A3A3A3A3A31201
:105AB3005B7654037014E508A2E1400E1261D8121C
:105AC3005B413CF583E054806008125B5C125B49E8
:105AD300801990155FE0C0E0125B5CD0E0125B8937
:105AE30088828983125B8904125DEDA3A882A9834E
:105AF300E508A2E750458E828F83125B7688828900
:105B030083125B8F125B7B540360301261D82434A1
:105B1300F582E43C126526F0E508A2E1501D8A8275
:105B23008B83A3A3A3A3A3A3A3A31232562435F564
:105B330082E43A126526A3F0E82403023267241EA6
