:020000040000FA
:060000000211E50207D425
:03002B00020F5C65
:03003300020E1E9C
:030053000207039E
:10008300020765010100F0FF0700080000FFFF0001
:10009300000504000000030001FFFFFFFF0005103F
:1000A3002700000020FD000206FFFF1E01511A0079
:1000B3000000000000000000000000000001003C00
:1000C300000104010C000203038600000001040088
:1000D300002F13000000E8030000FFFF80130188D6
:1000E300130000E803000064006400B801A0BB0D26
:1000F30000A0BB0D00020202070401051E02051E3B
:10010300020A0A010108080103B80B02803E01023A
:10011300FEFFE8030A050001FFFF020A011401E0E4
:1001230002000000050301010F03000300030003A5
:10013300000300030003000300030005000A00148A
:100143000028004F009E0000002F2C000000000339
:100153002B00000000FF000000FF00121231604678
:100163001211F5603DE9687008F618F618F618F6EE
:1001730022748067F7120192090909748067F722D4
:100183001211F5601D1212317005191919801A1216
:1001930010C0701F121098C37003E6673319191942
:1001A30040071818182208080874FFF618F618F6FE
:1001B30018F6221210986017121292702192F01200
:1001C30012A47019501720F014080808090909E748
:1001D300F61819E7F61819E7F61819E7F6221212B6
:1001E300A460E6E869701F0808E62480F608E43690
:1001F300F618547FB47F0CE654806007F6E418F6D3
:1002030018F622181822E9C6CC08C6CD08C6CE08AF
:10021300C6CFC0E0E8C0E0EAC0E0EBC0E009E9F81F
:1002230009E7FA09E7FBE6F918E6F8C3EC98ED9954
:10023300EE9AEBC2E7F5F0EFC2E795F0500E600CD3
:10024300EBCFFBEACEFAE9CDF9E8CCF8EAA2E7D2A4
:10025300E7FAEB33FB13F5F0EEA2E7D2E7FEEF3359
:10026300FFC5F013A2E730E601B313C5F0C3C0E046
:10027300C0F07F00C39BFB605E9418600F401D14A9
:10028300601AD0E023F9D0E0F80203648AF0E94869
:100293006003D2F0E4AFF0FAF9F8803BEB30E40D01
:1002A30089F0EA6003D2F0E4AFF0F9CAF8EB30E387
:1002B3000D88F0EF6002D2F0AFF0E4CAC9F8EB5456
:1002C300076014FBC3EA13FAE913F9E813F8EF1311
:1002D3005002D2E0FFDBEDD0E0C0E030E739C3E409
:1002E3009FFFF5F0EC98FC42F0ED99FD42F0EE9A99
:1002F300FE42F0D0E0F9D0E0F8E5F0607AE923F9C6
:10030300EE20E742D8028067C3EF33FFEC33FCED06
:1003130033FDEE33FE80EAEC28FCED39FDEE3AFEC8
:10032300D0E023F9D0E0F84002801BC3EE13FEEDCA
:1003330013FDEC13FCEF135002D2E0FF08B80006E4
:100343007F7F74FF802EEF3350178CF020F0026014
:10035300100CBC000C0DBD00080EBE000408E860C4
:10036300DFE933E813FFEE2313FE4F4D4C8008E91A
:100373005480FFE4FEFDFCEE33EF33F47004FCFD28
:100383007E80D0E0FBD0E0FAD0E0F8D0E0CFC61812
:10039300CEC618CDC618CCC6F9221211F5700418B2
:1003A300181822121231700D74FFF61819F6181965
:1003B300F61819F622E7548066F61212A4700F128B
:1003C300129270F014F608F608F608F680D11212AD
:1003D30092700CF608F608768008E6447F80EC12EB
:1003E300109B700C1210C360BFE65480F6E480BB10
:1003F3001210C3700519191980A5E869700C763FAE
:1004030018768018F618F6E8F922E6CDC0E018EC65
:10041300C0E0E633CD33CDD313F6E719FCE7191962
:1004230033CC33C3947F400ECD9D502408E65480D3
:10043300F6E418F6800FF4043D14501408E6447FE4
:10044300F6187680E418F618F6D0E0FCD0E0FD222A
:10045300CCD313CCFD18E4C6CBC0E018E4C6CAC0A5
:10046300E00808ED08C633E613F618E433C675F062
:1004730003C3CA97CA09CB97CB199C40047D088054
:100483002EBD000302054616B6FF0506060816181C
:10049300C3CA33CACB33CB33CA27CA09CB37CB1929
:1004A3003CC37D08803E187D0820E75CC633C6CA7E
:1004B30033CACB33CB33DDF1D5F0EB30E77BCA97CF
:1004C300CA09CB974ACB199C406F4B7025E620E0B5
:1004D300218066187D08C3CA97CA09CB97CB199C9C
:1004E300D3C633C6CA33CACB33CB3350C9DDE7D502
:1004F300F0E1D3E4C636C608C636C608C636C60813
:10050300C636C61818188031C3CA97CA09CB97CB09
:10051300199CB34097C633C6CA33CACB33CB33DD3A
:1005230034D5F02EC6A2E0C640C8CA27CA09CB37C5
:10053300194A70BECB3CB480B90808E63308E633E9
:10054300601F181818D0E0FAD0E0FBD0E0FCD0E030
:10055300FD22187D08CA27CA09CB37CB193CD380A3
:100563008013F618E4B67F11F618B6FF0EF618C618
:100573000470D20808768080CAF618F618F680C58B
:10058300001211F5604F1212316012E7548066F6C3
:100593001210C07011121292703B090909F4F61877
:1005A300F618F618F62212109870151212A40808FD
:1005B3000860EAE6447FF618768018E4F618F62217
:1005C3001212A460161212927012E4F608F608F6DC
:1005D30008E65480F609090918181822EAC0E0EB66
:1005E300C0E0ECC0E0EDC0E0E687F0A4FBACF008AF
:1005F300E687F0A42CFCE435F0FA1809E687F0A4AA
:100603002C4B60027401CA35F0FCE433FB09E68726
:10061300F0D2F7A42CCB35F0FC1908E687F0A42B15
:10062300CC35F0FBE433FD0819E687F0D2E7A42CC0
:100633004ACB35F0CD3400FC09E687F0D2E7A42D90
:10064300CC35F0FDE433FA0918E687F0D2F7A42C91
:10065300CD35F0CA3400FC08E687F0D2E7D2F7A420
:100663002ACC35F07A7E20E70B0ACB33CBCD33CDC2
:10067300CC33CC33CB3350147004ED30E00ED2F1D5
:10068300E4CD3DCDCC3CCC3B5005DA05C2F1EB5477
:100693007FC63308E63392F0FBE73309E733C39AA7
:1006A300502D2B70190C0D4C4D70151806E608C310
:1006B30033700D20F10AA2F013F6E418800B4024E6
:1006C300E4F630F002768018F618F618F68024D394
:1006D3003B14501074FFA2F013F6187680E418F65A
:1006E30018F6800FA2F013F618E63303F618ECF6AB
:1006F30018EDF6D0E0FDD0E0FCD0E0FBD0E0FA222C
:10070300C0E074F1120AF7A2AFE433F509D2AF8562
:10071300A708AFA1EF5508FE74105E60061214BD62
:1007230075A1EF74085E60081214C375A1F78024E5
:10073300EFA2E092F0E508A2E082F05017906198F2
:10074300E0F89005A1E0C398A2D265D0335002E847
:10075300F075A1FE752300E509A2E092AF7F0202C6
:100763000BB3C0E074F2120AF7A2AFE433FED2AFC8
:100773009061A4E0F8759B00E591585408600875F2
:1007830091F71215118023E5915854106008759163
:10079300EF1215178014E591A2E092F0E8A2E0822F
:1007A300F05007E0C2E0F012166D9061A3E0F8E5A7
:1007B300E9585404600E12164375E9FB906193E007
:1007C300A2E640F2752300EEA2E092AF7F01020B96
:1007D300B3C0E074F2120AF7A2AFE433FED2AF90D3
:1007E30061A5E0F8E5BF585404600675BFFB121617
:1007F3008580D112084B30F043120890803E8A085E
:100803008B098C0A8D0B780812084B20F01430E703
:100813002B74FFFCFBFA747F8022E4FCFBFA7480E8
:10082300801AB48008BC00F2BB00EF800F50EBF9D4
:10083300E4C39AFAE49BFBE49CFCE499C6CC18C697
:10084300CB18C6CA18C6F922E4C9C608CAC608CB5B
:10085300C6D3330308CCC63392F0C3947F402E949F
:10086300184019C9B90704CACBCC225025C309CAF9
:1008730033CACB33CBCC33CC33D9F422F4600DC998
:10088300CCC313CB13CBCA13CAD9F6CC22E4FCFBDB
:10089300FA2214FCFBFA22C3E498F8E499F912084B
:1008A300DB8026C3E49AFAE49BFBE920E7E912081C
:1008B300DBE498F8E499F922C3E498F8E499F9128F
:1008C30008DBE498F8E499F9C3E49AFAE49BFB2281
:1008D300EB20E7CFE920E7E0B90010BB0008E88A86
:1008E300F084F8AAF022E4FBC8FA22EB70227B1012
:1008F300C833C8C933C9335007C39AC3DBF2800670
:100903009A50012ADBEAC833F4C8C933F4C9FA227E
:1009130075F008E4C833C8C933C933C99AC99B50B1
:1009230004C92AC93BD5F0ECFBC833F4C8E4C9FABF
:1009330022080808EAC0E0EBC0E086F0E7A4FA1852
:100943000986F0E7A42AFA180986F0E7A42AFA1818
:100953000986F0E7A42AFA1986F0E7A4FBE5F02A52
:10096300FA190886F0E7A42BFBE5F03AFA19088692
:10097300F0E7A42BFBE5F03AFA18180986F0E7A490
:10098300C5F02BFBE43AFA1908E7C5F0C6A426F62E
:10099300E5F03BFBE43AFA1886F0E7A4F6E5F00845
:1009A30026F6E43B08F6E43A08F6D0E0FBD0E0FA9A
:1009B30022E4CFC0E0E4CEC0E0E4CDC0E0E4CCC0AC
:1009C300E075F020E626F608E633F608E633F60887
:1009D300E633F6181818EC33FCED33FDEE33FEEF77
:1009E30033FFC3EC9709ED9709EE9709EF971919B0
:1009F30019400FFFEC97FC09ED97FD09EE97FE19DF
:100A03001906D5F0BFECF709EDF709EEF709EFF793
:100A1300191919D0E0FCD0E0FDD0E0FED0E0FF22B0
:100A23002521C582C0E0E52234FFC583C0E0E5216E
:100A3300C3958224F810AF0885832285822180081C
:100A4300858322858221D2AFCEF0A3E520F0A3785F
:100A530008E608F0A3DEFAEFF0A3E58124FAF8E64E
:100A630008F0A3E608F0A3E608F0A30808E608F0F8
:100A7300A3E608F0A315811581D0E0FED0E0F815B8
:100A83008115811581E8C0E0EEC0E02212127DB924
:100A93000003020AE1E4900501781B79128002F059
:100AA300A3D8FCD9FA78239000867A01BA00028091
:100AB30007E493A3F608DAF97A1B7B16900087788C
:100AC300D879018015E493A3AD82AE838A828B83A8
:100AD300F0A3AA82AB838D828E83D8E9D9E775828E
:100AE3000D7583C27404120F3E75828B758328744F
:100AF30000120F3EC0D02521C582C0E0E52234FF9D
:100B0300C583C0E0E521C3958224F310AF08858334
:100B1300228582218008858322858221D2AFC8F075
:100B2300A3E9F0A3EAF0A3EBF0A37908E709F0A3A4
:100B3300D8FAECF0A3EDF0A3EEF0A3EFF0A3D0E02E
:100B4300F0A3D0E0F0A3D0E0F0A3E520F0A3E5F01C
:100B5300F0A322E9799EC608CAC608CBC608CCC64C
:100B6300C370207996CACBCC7019798ECBCC701315
:100B73007986CC700EF9802ACA33CACB33CBCC33F7
:100B8300CC331930E7F2CCCBCA3350147004EA30BB
:100B9300E00DE4CA3ACACB3BCBCC3CCC500209C3F0
:100BA300E913C6CC182313C6CB18C6CA18C6F92234
:100BB300852283852182E0C0E0A3E0F9A3E0FAA3C4
:100BC300E0FBA37808E0F608A3DFFAE0FCA3E0FD6E
:100BD300A3E0FEA3E0FFA3E0C0E0A3E0C0E0A3E046
:100BE300F5D0A3E0F520A3E0A3F5F010AF088583CB
:100BF300228582218008858322858221D2AFD082FB
:100C0300D083D0E0F8D0E032FF75F0108E248F252A
:100C1300858229858328852182852283E0CEA3E0EE
:100C2300CF852982852883EBC9EAC8EDCBECCAC3FB
:100C3300E833C8E933C9EA33CAEB33CBC3EA9EF5D9
:100C430027EB9FF526B35004AB26AA27EC33CCED54
:100C530033CDD5F0DAAE24AF25221211F5601B1285
:100C6300123160161212A47007121292600CB32292
:100C7300C0D01212927005D0D022C32233D0D050EC
:100C83001330E0EBC3E7960809E7960809E79608EF
:100C930009E7962220E0E4E6970809E6970809E6C3
:100CA300970809E69722D083D082ECC0E0EDC0E03C
:100CB300E493A3FCE493A3FDED4C600D120D81ECD2
:100CC30024FFFCED34FFFD80EFE493A3FCE493A346
:100CD300FDED4C600D120E49EC24FFFCED34FFFDDD
:100CE30080EFD0E0FDD0E0FCE493A3C0E0E493C048
:100CF300E022D083D082E9C0E0E493A3C386F0C5A9
:100D0300F095F0F908E493A386F0C5F095F0700B25
:100D1300E493A3C3994005E9048002A3E475F002B8
:100D2300A42582F582E5F03583F583D0E0F9E493D9
:100D3300A3C0E0E493C0E022852283852182E0A35F
:100D4300FEE0A3F5207808E0A3F608DFFAE0A3FFAE
:100D5300E0A3C0E0E0A3C0E0E0A3C0E0E0A3C0E004
:100D6300E0A3C0E010AF0885822185832280088537
:100D73008221858322D2AFD083D082020F44C0E088
:100D8300C3E49396087401939618400FE493667036
:100D93000808740193661870007019A3A3C3E49341
:100DA30096087401939618A3A3400DD0E0D0E0D029
:100DB300E0020CE5A3A3A3A3A3A3D0E022740480C1
:100DC3000474028000CCC0E0EDC0E0E521C39CCCFC
:100DD300AD2250011D10AF068C218D2280068C217F
:100DE3008D22D2AF120EC0D0E0FDD0E0FC227402FF
:100DF3008000CCC0E0EDC0E0E521C39CCCAD225027
:100E0300011D10AF068C218D2280068C218D22D2EC
:100E1300AF120E9ED0E0FDD0E0FC22C0E074F212CF
:100E23000AF7A2AFE433FED2AFE58BA2E050057917
:100E3300041213F7758B00C2E8752300EEA2E0924B
:100E4300AF7F01020BB3C0E0C0F088F0E49366709B
:100E5300080874019366187000A8F0A3A3700BD060
:100E6300F0D0E0D0E0D0E0020CE5A3A3D0F0D0E0D6
:100E730022D083D082CCC0E0E493A36006120F009B
:100E83001470FAE493A3600612102D1470FAD0E0E4
:100E9300FCE493A3C0E0E493C0E022CAC0E0E4937F
:100EA300A3C582CCC582C583CDC583F0A3C582CC3F
:100EB300C582C583CDC583DAE5D0E0CA22CAC0E0C6
:100EC300E0A3C582CCC582C583CDC583F0A3C5820B
:100ED300CCC582C583CDC583DAE6D0E0CA227009CA
:100EE300080808226016181818C6C333C608C63384
:100EF300C608C633C608C633C6D5E0EA22C0E0E456
:100F030093A3D39C5010E493A3C39C400AD0E0D096
:100F1300E0D0E0020E91A3A3A3D0E022C008C3E077
:100F230096F50808A3E096420808A3E0964208084D
:100F3300A3E09645087001D3D00822C09FF59FE433
:100F430073D09F22D083D082C09FE493C0E074010A
:100F530093C0E0740293F59F22C0E0C0D0E8C0E0E4
:100F6300A8A8D2AFC2C7752300E8A2E792AFD0E02A
:100F7300F8D0D0D0E03200C0D0252110AF08F52141
:100F8300500C05228008F52150020522D2AFD0D0A3
:100F9300222521F58210AF08F521400C1522800887
:100FA300F52140021522D2AF852283227404800AE0
:100FB30074038006740280027401C0E0F404120F0B
:100FC30094D0E012124022BB0102E722C082C08308
:100FD30089828A83BB0003E08002E493D083D082BA
:100FE300226016080808C6C313C618C613C618C657
:100FF30013C618C613C6D5E0EA222521F8E4352224
:10100300F9222521FAE43522FB222521FCE43522AD
:10101300FD22C3E0C696F608A3E0C696F608A3E051
:10102300C696F608A3E0C696F622C0E0E493A36C46
:101033007009D0E0D0E0D0E0020E91A3A3D0E0226B
:10104300252110AF08F521400C15228008F5214019
:10105300021522D2AF22C3E09608A3E09608A3E0CC
:101063009608A3E096A2D265D03322E066701008FA
:10107300A3E066700A08A3E066700408A3E0662292
:10108300E76670100809E766700A0809E7667004E6
:101093000809E76622191919E70947097009E727BB
:1010A300097005E733F4220922C3E096F008A3E0B0
:1010B30096F008A3E096F008A3E096F0221818181B
:1010C300E60846087009E626087005E633F42208A8
:1010D30022C3E493960874019396087402939608C6
:1010E3007403939622C3E697F60809E697F6080970
:1010F300E697F60809E697F622E026F608A3E03617
:10110300F608A3E036F608A3E036F622E627F6084B
:1011130009E637F60809E637F60809E637F62270D6
:101123000422600D18C6C333C608C633C6D5E0F41F
:101133001822E056F008A3E056F008A3E056F008A2
:10114300A3E056F022E056F608A3E056F608A3E023
:1011530056F608A3E056F622E657F60809E657F6D0
:101163000809E657F60809E657F622E026F008A331
:10117300E036F008A3E036F008A3E036F022E647B5
:10118300F60809E647F60809E647F60809E647F6CA
:1011930022E4C396F608E496F608E496F608E49685
:1011A300F622600D08C6A2E713C618C613C6D5E01B
:1011B300F322C6F4C608C6F4C608C6F4C608C6F4C5
:1011C300C622C3E7960809E7960809E7960809E7E0
:1011D3009622C3E09608A3E09608A3E09608A3E04E
:1011E300962275D00075813F752101752205000295
:1011F3000A8FE6084608C3134608336002E633F451
:1012030022600C08C6C313C618C613C6D5E0F42261
:10121300E0F608A3E0F608A3E0F608A3E0F622E66A
:10122300F008A3E6F008A3E6F008A3E6F022E70936
:101233004709C3134709336002E733F422CAC0E006
:10124300E6F0A308DAFAD0E0FA22E8F0A3E9F0A383
:10125300EAF0A3EBF022E0FAA3E0FBA3E0FCA3E0B7
:10126300FD22EAF0A3EBF0A3ECF0A3EDF022E0F80B
:10127300A3E0F9A3E0FAA3E0FB22E5C754F8440195
:10128300F5C77901222521F582E43522F58322E78A
:101293002719471947194722C2AF75D69F02000085
:1012A30022E62618461846184622120F478EF101E9
:1012B300120F47CCF101120F47F3F301120F470F3F
:1012C300F401120F4754F401120F47D9F401120F1E
:1012D3004725F501120F47B7F501120F4790F601A5
:1012E300120F47ECF601120F474AF701120F47BDE1
:1012F300F701120F4701F801120F4759F801120FB6
:10130300477BF801120F470BF901120F479CF901B4
:10131300120F47E8F901120F4714FA01120F47554C
:10132300FA01120F47F4FB01120F47D6FC01120F0B
:1013330047ABFD01120F47FBA304120F4727A40479
:10134300120F4747A404120F476EA404120F47B5A8
:10135300A504120F47E8A504120F47A7A604120F0E
:101363004741A704120F47B3FF03120F47B8FF0308
:10137300120F47EBFF03120F4701B904120F47C8BF
:10138300B904120F47DAB904120F474ABA04120F0D
:101393004701CD04120F4712CD04120F47B0CD04FD
:1013A300120F47BBCD04120F47D5CD04120F47F5DB
:1013B3007F00120F471ED204120F47E4CD04120F11
:1013C30047F4CD04120F4709CE04120F47BDCE04D4
:1013D300120F47FCCA04120F4780CB04120F47E8D1
:1013E300CB04120F47B8C704120F473FC804120FAC
:1013F3004748C804120F476FC804120F47B7C80401
:10140300120F47CEC804120F470BFC03120F4719E4
:10141300FC03120F4792FC03120F476BFD03120FDD
:10142300472EFF03120F4773FF03120F4798FF0363
:10143300120F47F87F00120F4700C004120F4738FE
:10144300C004120F4786C104120F470AC204120FC9
:1014530047BA8D04120F47E68D04120F47509004CC
:10146300120F47909004120F47CC9004120F47E0DD
:101473009004120F47F99004120F47EB9104120FD7
:10148300479E9204120F47B29204120F4785FE0142
:10149300120F47A9FE01120F47C2FE01120F4700A8
:1014A300FF01120F4730FF01120F475DFF01120FBB
:1014B3004767FF01120F47CDFF01120F47D0FF010E
:1014C300120F47DAFF01120F47E7FF01120F475AC6
:1014D300B604120F477AB604120F47B9B604120FB7
:1014E30047D7B604120F47F2B604120F4758B70492
:1014F300120F4764B704120F47C1B704120F47D046
:10150300B704120F47F4B704120F47B5B804120F0C
:1015130047C2B804120F47D3B804120F4706D004CA
:10152300120F474ED004120F477AD004120F470808
:101533009304120F47629404120F47709404120F1E
:1015430047839404120F47989404120F47AD9404F1
:10155300120F47C09404120F473C9504120F47A182
:101563009504120F47299604120F47A19604120FF0
:10157300477A9704120F478A9704120F47999704E3
:10158300120F476DCF04120F4791CF04120F47B9C3
:10159300CF04120F47E1CF04120F476DBB04120FA4
:1015A3004794BB04120F47B2BB04120F4721BC047C
:1015B300120F47D0B004120F47E9B004120F47F5DA
:1015C300B004120F4709B104120F4727B104120FD9
:1015D3004731B104120F473BB104120F474EB10418
:1015E300120F47D4B104120F4749B204120F4778C0
:1015F300B204120F47C6B204120F4715B304120FF9
:101603004730B304120F473AB304120F474BB304E6
:10161300120F478EB304120F47FAD004120F474537
:10162300D104120F478EF203120F47BAF203120FBF
:1016330047D7F203120F47EAF203120F4705F303EA
:10164300120F475FF303120F478DF303120F479DEA
:10165300F703120F47FBF803120F472DF903120F7D
:101663004790F903120F47FCFA03120F4724FB03B9
:10167300120F4739FB03120F4749FB03120F478928
:10168300FB03120F47CBFB03120F47DBFB03120FC6
:101693004788C604120F47A2C604120F47CAC604DE
:1016A300120F47E3C604120F4707C704120F47255B
:1016B300C704120F473CC704120F476AC704120F2F
:1016C3004785C704120F4734FF02120F4778FF0202
:1016D300120F4772A004120F4782A004120F47870C
:1016E300A104120F47B9A104120F47E9A104120F75
:1016F300470CA204120F4723A204120F475DA20452
:10170300120F47C2A204120F4704A304120F474B40
:10171300A304120F4778A304120F47A3A304120FC5
:1017230047F2C304120F4704C404120F4718C50439
:10173300120F471BC504120F47F6C904120F472C9B
:10174300CA04120F4744CA04120F4786CA04120F71
:101753004796CA04120F47DACA04120F47E4CA04B1
:10176300120F47008004120F47438004120F47A84B
:101773008004120F47C78004120F47698104120FB8
:1017830047728104120F47C38104120F47EC81048F
:10179300120F47F98104120F476B8204120F47F9A6
:1017A3008204120F473E8304120F47778304120FFC
:1017B30047DC8304120F47058404120F477C84041B
:1017C300120F47CB8404120F47088504120F473DBD
:1017D3008504120F474F8504120F47618504120FCA
:1017E30047808504120F47898504120F474A8604F0
:1017F300120F478D8604120F47CB8604120F4751F1
:10180300D104120F4748C504120F47C2BD04120F7B
:1018130047F8BD04120F4740BE04120F4799BF0497
:10182300120F47DEAD03120F4704AF03120F4740F9
:10183300AF03120F47FEB003120F472CB103120F71
:101843004796B303120F47D6B303120F4778B50376
:10185300120F470EB603120F4768B603120F47F86D
:10186300B603120F473CB703120F477EB703120F9D
:1018730047E3B803120F4763BA03120F47A4BC032D
:10188300120F47D2BC03120F47FEBC03120F4707C8
:10189300BD03120F4764BD03120F47FDBD03120FB3
:1018A3004714C103120F479AC103120F47C3CE0453
:1018B300120F47DBCE04120F47E5CE04120F473B4E
:1018C300CF04120F47CA9704120F47E09704120F71
:1018D30047819804120F47C09804120F47DD9804FC
:1018E300120F470E9904120F475B9904120F478F8B
:1018F3009904120F47CA9904120F47C79B04120F8A
:10190300472D9C04120F4701CC04120F4760CC04EF
:10191300120F479ECC04120F47DFCC04120F47E08F
:10192300C804120F479EC904120F47008002120F0A
:10193300470C8002120F476E8002120F4778800215
:10194300120F47078102120F47438102120F47020A
:101953008202120F475F8202120F47F18202120FB7
:1019630047448302120F47C28302120F477E850248
:10197300120F47838702120F47B88802120F47FBE3
:101983008902120F47A08A02120F474E8F02120FCD
:1019930047439002120F47D99002120F47FE90025D
:1019A300120F479B9102120F47B89102120F47D8AB
:1019B3009102120F47469202120F47639202120FCF
:1019C30047919202120F472F9402120F475094022D
:1019D300120F47F69402120F473E9502120F479CCF
:1019E3009502120F473F9602120F47A49602120F59
:1019F30047039702120F47B19702120F472E98021F
:101A0300120F476A9802120F47DE9802120F4723FC
:101A13009A02120F47AF9B02120F474E9C02120FFE
:101A2300478E9E02120F47F09E02120F471E9F021F
:101A3300120F4733A102120F47D3A302120F47EC31
:101A4300A402120F47F78604120F47298804120FC6
:101A5300477B8A04120F478C8A04120F47AB8A0410
:101A6300120F47DC8A04120F47868C04120F47A318
:101A73008C04120F47C38C04120F47E18C04120F1E
:101A830047498D04120F47E6FF02120F4773A7045D
:101A9300120F4732A804120F4798A804120F4747A2
:101AA300A904120F4703EA02120F4732EA02120F88
:101AB30047AAEA02120F47B9EB02120F4715EC02CD
:101AC300120F4782ED02120F479EED02120F47F0ED
:101AD300ED02120F4733EE02120F4746EE02120FCA
:101AE300479EEE02120F4760EF02120F47DCEF0230
:101AF300120F4713F002120F474BF002120F47DD8C
:101B0300F102120F47BCF202120F470AF402120F3E
:101B130047EDF402120F4779F502120F47B9F502A8
:101B2300120F47D8F502120F4723F602120F47434D
:101B3300F602120F47DCF602120F4762F702120F8A
:101B430047BDF702120F47FDF702120F4793FA0240
:101B5300120F47ACFB02120F47F2FB02120F47E7CB
:101B6300FC02120F470FFD02120F4712FD02120F64
:101B7300471CFD02120F4738FD02120F47B2FD0248
:101B8300120F47EBFD02120F4717FE02120F473EDB
:101B9300FE02120F4762FE02120F47D3FE02120F1C
:101BA30047E6FE02120F4715FF02120F477DD004CE
:101BB300120F4789D004120F47BDD004120F47F20A
:101BC3007F00120F47AF9703120F47D29703120FED
:101BD300471F9903120F47689903120F47D49903BC
:101BE300120F47329A03120F47359A03120F478693
:101BF3009A03120F47FB9A03120F47809B03120F9E
:101C030047839B03120F47049C03120F47459C0312
:101C1300120F4731A003120F47DBA103120F472B0B
:101C2300A203120F47B2A503120F47E5A603120F33
:101C3300475FA803120F47FCA803120F47E7A90346
:101C4300120F473CAC03120F47F9C103120F47A30E
:101C5300C203120F470EC303120F4729C303120F08
:101C630047AEC303120F4708C403120F474FC40301
:101C7300120F47B6C403120F4735C603120F47644A
:101C8300C703120F47ECC703120F47F5C903120F1F
:101C930047A2CA03120F4746CB03120F4717CC03C1
:101CA300120F47D2CD03120F476ACF03120F47FD1E
:101CB300CF03120F4723D103120F47D0CE02120FC7
:101CC300475BEE03120F477BCF02120F47BFCF02D2
:101CD300120F471AD002120F4777D002120F476034
:101CE300F101120F4734D102120F478ED102120FA6
:101CF300470CD302120F478CD302120F47E7D302CC
:101D0300120F4701D402120F4722D402120F477C4D
:101D1300D402120F47F8D602120F4717D702120F39
:101D23004707D802120F473AD902120F47B9D9020F
:101D3300120F47F5D902120F4723B504120F4719A3
:101D4300DB02120F47F1DC02120F47F8DD02120F1C
:101D53004770DF02120F4766E102120F47DCE3020E
:101D6300120F47B6E502120F4777E602120F47EF4D
:101D7300E602120F4706E702120F47FDE702120FB2
:101D830047F1E802120F4760E902120F47DEAD0484
:101D9300120F4735AF04120F47F4AF04120F475C1D
:101DA300B004120F47B9AA04120F47D4AA04120FA2
:101DB3004718AB04120F473EAB04120F4765AB0441
:101DC300120F477DAB04120F471FAC04120F4734A9
:101DD300AC04120F4757AD04120F4760AD04120F46
:101DE3004769AD04120F4772AD04120F477CAD046F
:101DF300120F474C7B00120F47587F00120F475DAD
:101E03007F00120F475F7F00120F477FC204120F3C
:101E13004700D204120F47C67F00120F47A9D1040F
:101E2300120F47B9D104120F473A9C04120F4717F8
:101E3300A902120F474AA902120F47B6A902120FAD
:101E43004751AA02120F47EEAA02120F4733AB0201
:101E5300120F4755AB02120F476EAB02120F479496
:101E6300AB02120F47B6AB02120F47F4AB02120FCD
:101E73004738AC02120F475AAC02120F47BCAC02F0
:101E8300120F4783AD02120F473AAE02120F47AC4F
:101E9300AE02120F4777AF02120F47CAAF02120FFB
:101EA3004730B002120F476AB002120F47BCB002AC
:101EB300120F472AB102120F4795B102120F47982A
:101EC300B102120F4719B202120F47B0B202120F3A
:101ED3004730B302120F474FB302120F47B3B40296
:101EE300120F47C0B402120F47CCB502120F47D9E5
:101EF300B502120F47E2B502120F47BAB702120F2B
:101F030047D4B802120F474DB902120F47BFB902A7
:101F1300120F47E1B902120F4775BA02120F474970
:101F2300BC02120F4720C002120F4734C002120F27
:101F33004744C002120F474EC002120F4757C00258
:101F4300120F4760C002120F476AC002120F479771
:101F5300C002120F47C0C002120F47CBC002120FBC
:101F630047EFC002120F4713C102120F477DC10290
:101F7300120F47C3C102120F47E0C102120F475DA0
:101F8300C202120F4794C202120F47D3C202120FAA
:101F93004720C302120F47A6C302120F4774C5029C
:101FA300120F47F7C502120F47DBC602120F474253
:101FB300C902120F479BC902120F47E5C902120F4C
:101FC3004740CB02120F4775CB02120F47C7CB0214
:101FD300120F477CCC02120F472BCD02120F47681A
:101FE300CD02120F47FDCD02120F4769CE02120F29
:101FF300478F2E00120F47C12E00120F47EF2E00FE
:10200300120F47C53000120F47A53100120F47FDCD
:102013003100120F47383300120F47843300120F79
:1020230047AD3600120F47A03900120F47F03A00B0
:10203300120F47863B00120F47923B00120F47C413
:102043003B00120F47473D00120F47F83E00120FA7
:10205300478C3F00120F47CF3F00120F474D400000
:10206300120F476A4000120F479A4000120F47CFE2
:102073004000120F479F4100120F47484200120FC2
:1020830047CE4400120F47EE4500120F47D94600D2
:10209300120F475B4700120F478F4B00120F47CCBD
:1020A3004B00120F47244C00120F47574C00120FDE
:1020B30047C14C00120F47F74C00120F47824D00E7
:1020C300120F47DA4D00120F47B14E00120F476A45
:1020D3004F00120F47055000120F470D5300120F08
:1020E30047295400120F47CC5700120F47C058001E
:1020F300120F47C35800120F47F25800120F47F848
:102103005A00120F47D15B00120F47145C00120FE5
:10211300476A5D00120F47A95D00120F47325E0048
:10212300120F47665E00120F472B5F00120F4743E3
:102133006100120F47B46100120F47F46100120FE0
:1021430047826200120F47A46300120F47666400C0
:10215300120F476D6600120F47856600120F4799ED
:102163006600120F47D16600120F47FF6600120F79
:10217300477E6800120F47A36900120F47006A00E9
:10218300120F47B26A00120F47D96A00120F47A015
:102193006B00120F47386C00120F475E6E00120F70
:1021A30047936E00120F47F66E00120F472570001B
:1021B300120F47CD7000120F47FE7000120F471623
:1021C3007100120F47A57100120F47597400120FC7
:1021D30047317600120F474D7600120F476976009C
:1021E300120F47377700120F472A7B00120F47CF92
:1021F3008601120F47018701120F47F08A01120F60
:10220300473C8B01120F47828B01120F47248C012D
:10221300120F47808C01120F47C58C01120F470C18
:102223008E01120F47208F01120F470F9301120FD8
:1022330047939301120F47A09401120F47FC940197
:10224300120F47EC9601120F47619701120F476B6C
:102253009701120F47789701120F47A39701120FA7
:10226300478A9801120F47349901120F47B2990117
:10227300120F47D29901120F47FB9901120F471D05
:102283009A01120F477D9C01120F47439D01120FC4
:1022930047889D01120F47059E01120F47B69E0105
:1022A300120F47E89E01120F472E9F01120F476A34
:1022B3009F01120F47BA9F01120F470EA001120F81
:1022C3004764A001120F47B0A001120F471DA101DF
:1022D300120F4798A101120F4763A301120F47631F
:1022E300A401120F4788A501120F47C7A801120FB7
:1022F30047DAAB01120F4797AC01120F47DBAC0172
:10230300120F478BAE01120F479FAE01120F47A961
:10231300AE01120F47B3AE01120F47BFAE01120F4A
:1023230047DBAE01120F4786AF01120F47C5AF015E
:10233300120F47CFAF01120F47D9AF01120F474911
:10234300B001120F4794B001120F47A9B101120F48
:102353004705B201120F4786B201120F4745B30179
:10236300120F474EB401120F4782B501120F477087
:10237300B601120F4788B601120F47E3B601120FD9
:102383004701B701120F4749B701120F4770B70151
:10239300120F470BB801120F47D1B801120F476351
:1023A300B901120F47DDB901120F47F7BA01120F36
:1023B30047A4BB01120F47CCBC01120F471CBD0140
:1023C300120F4780BD01120F47E2BD01120F4710E4
:1023D300BE01120F4734BE01120F4769BE01120F2F
:1023E300479ABE01120F47CDBE01120F47EDBE0142
:1023F300120F4755BF01120F4749C001120F47A4DF
:10240300C001120F47CDC001120F4755C101120F72
:1024130047D8C101120F4703C201120F47E8C20197
:10242300120F4762D203120F479AD203120F47BB10
:10243300D203120F47FDD203120F475FD303120FCC
:102443004769D303120F4779D303120F47B4D3035A
:10245300120F4794D703120F4781D903120F47670F
:10246300DB03120F47FEDB03120F47A0DC03120F3F
:1024730047EAC401120F4768C501120F47C4C501DB
:10248300120F470FC601120F472AC601120F4755F5
:10249300C601120F4772C601120F477EC601120F03
:1024A3004715C801120F472EC801120F47B3C801C1
:1024B300120F47C6C801120F47E5C801120F47891B
:1024C300C901120F470ACB01120F47BDCC01120FEE
:1024D3004753CD01120F4756CD01120F47C6CD0109
:1024E300120F47E4CD01120F477BCE01120F47C3F2
:1024F300CE01120F47C6CE01120F478CCF01120F28
:1025030047F9CF01120F471FD001120F47AAD0017D
:10251300120F47C8D001120F470ED101120F47C245
:10252300D101120F470CD201120F473BD201120FF8
:102533004798D201120F47CDD201120F47F9D201AA
:10254300120F4707D301120F4754D301120F47C489
:10255300D301120F470DD401120F4759D401120FA3
:102563004785D401120F4790D401120F47AED4010F
:10257300120F4799D501120F47A3D501120F47DE5A
:10258300D501120F47EED501120F47F7D501120FF0
:10259300474BD601120F475FD601120F478ED70163
:1025A300120F47A5D701120F47BAD701120F474899
:1025B300D801120F478DD801120F4719D901120FF5
:1025C3004724D901120F4766DA01120F4781DA0156
:1025D300120F47CDDA01120F473CDB01120F47758B
:1025E300DB01120F478FDB01120F47D1DB01120F03
:1025F30047A1DE01120F474EDF01120F47BBDF0178
:10260300120F47FBE101120F4713E201120F4716A6
:10261300E201120F4722E201120F4736E201120FC5
:10262300473EE201120F4771E201120F4773E301C4
:10263300120F47FAE301120F476AE401120F47EC46
:10264300E401120F47ADE501120F47CCE501120F6C
:10265300476DE601120F47CAE601120F47CDE601A7
:10266300120F47FAE601120F470FE701120F4783D4
:10267300E701120F47D2E801120F47D8E901120F01
:102683004763EA01120F477EEB01120F4746EC0145
:10269300120F4777EC01120F479AEC01120F47A371
:1026A300EC01120F47D2EC01120F4762ED01120F3A
:1026B3004718EE01120F478DEE01120F4734EF0159
:1026C300120F47A9EF01120F47E0EF01120F471E48
:1026D300F001120F4754F001120F472DF101120FB1
:1026E30047B8ED03120F47B8EC03120F47D1EB03C2
:1026F300120F47C1E903120F47CFE803120F476DCB
:10270300E803120F479B9703120F47919703120F8A
:1027130047269703120F47579503120F47B2D0026C
:10272300120F47B1F001120F47159503120F471906
:102733009403120F4720B404120F47CDB304120FB2
:1027430047ED9303120F47A49303120F47E5920338
:10275300120F47D38F03120F47948D03120F476154
:102763008D03120F47088D03120F479B8C03120F23
:10277300475A8C03120F47938B03120F472D8B037A
:10278300120F47CC8A03120F476C8A03120F474379
:102793008903120F47D78803120F472F8803120F9D
:1027A300472A8803120F471E8803120F47518403D9
:1027B300120F472B8403120F4799B304120F474894
:1027C300F203120F4714F203120F47BDF103120F66
:1027D300472BF003120F477DEF03120F47E0EE0381
:1027E300120F47C98303120F476A8303120F472B44
:1027F3008303120F47188303120F47D6EE03120FFA
:10280300470D8303120F47DC8203120F47F880033F
:10281300120F476B8003120F4764DA02120F472728
:102823008003120F476FEE03120F47008003120F4E
:1028330047FDE703120F47D0E703120F479DE70356
:10284300120F4775E703120F4716E703120F47F6F8
:10285300E603120F47C1E603120F476DE303120F9E
:102863004755E103120F473FDF03120F47BFDE0354
:10287300120F476BDE03120F471FDE03120F47775A
:10288300DD03120F4733CF0200000080FB0000225C
:10289300E4738F000100B31687000100B116350001
:1028A30004007A16250002007E1626000200801618
:1028B300270002008216280001008C16290001005F
:1028C3008D16840004000B148600010029162A00CB
:1028D30001008E162B0001008F162C0001009316A9
:1028E3002D00080017142E00010094162F0001007C
:1028F300951630000100961631000100971632003C
:1029030001001F1433000100201434000100981645
:102913003600010021143800010099163900010026
:10292300921683000200AF16630001002D146400A9
:10293300010090166500010091166D0001002E1430
:10294300710008000F1466000100AE164300010079
:102953009F1644000200A01645000100A21646007F
:102963000200A31647000800251448000100A5161D
:102973004B000100A61604000100B216A1000100DD
:10298300B61637000100B51688000100B4163C00E6
:10299300010022143D0001009A1649000200A71607
:1029A300670001002F144D000200A9164E0001001C
:1029B300AB164F000200AC163E0001009E165100FC
:1029C30001002314520001009C16530001009D16C0
:1029D30054000100241400000000000000013636FA
:1029E30001010001020100010301000104010606C7
:1029F30005020000070100340801000F090401016A
:102A03000D0100FF0E08000017020000190100FF6E
:102A13001A0100011B0100FE1C0100081D02000039
:102A23001F01000120010001210200002301000F0A
:102A3300240200002601000127010008280200FFEC
:102A43002A0100072B0102402C0100002D01000187
:102A53002E0100012F0100FF30010B1D3108000082
:102A63003A0100083B01000F3C0100013D0100FF5A
:102A73003E04000042040000460400004A04000033
:102A83004E04000052040000560400005A040000E3
:102A9300000000002001C986000001002001CB8650
:102AA300000002002001CD86000003002001CA8639
:102AB300000004004201858500000500420176857F
:102AC3000000060042015485000007003001CE8655
:102AD30000000040420154850000FDFF2101C7862C
:102AE30001002000200131160100210020013216CF
:102AF3000100010221275616080400002105FD12DA
:102B03000103710301030103010301030103220311
:102B13000203010310030003000300030003000387
:102B2300000300034203000324030603000300031E
:102B330004031203250323032503230304030403CC
:102B43000003000300034403000300032303000303
:102B5300650321003503810300030503000300031C
:102B63000003000325032303030271023001600203
:102B730011027002010202020202800210026102CB
:102B83003A004100630273027202620243020002CE
:102B930013023800000200020402120200020002C3
:102BA3000002000204020402370037003C02440220
:102BB30000023900000200026502000235028102B0
:102BC3000002050282028302000201017101010178
:102BD3000101110101013101010101018001100114
:102BE30061013B001400630173017201620143013F
:102BF3000001130106013D0135000401120100012A
:102C030000010001000104010401330133013C010F
:102C13004401320136000001000165010001350065
:102C2300810100010501820183010001030071009C
:102C33003001600011007000310220035004800055
:102C43001000610000001400630073007200620052
:102C530043000000130006000000000004001200FF
:102C630000000000000000000400040037003700EB
:102C73003C0244000000000000000000650000006A
:102C830035008100000005000000830000003600CD
:102C93000100060000000F0000000000000000001B
:102CA3000000000003FFFF00000403FFFF0000FF1C
:102CB300FF0FF4010005C4040320000100000B0012
:102CC3000000000000000003010F000000000000EE
:102CD30000000000000000000000000000000000F1
:102CE300000000000000000000000000031A2D1A7D
:102CF300091A49190F1A331A0F1A3F1A151A4919C3
:102D03000F1A331A1B1A491900000000211A491916
:102D13000000000000000000271A4919000000000D
:102D230000000000000000000000000000000000A0
:102D33000000000000000000000000000000000090
:102D430000000000000000000000731C0100731C61
:102D53000200E91B0280E31B0300EF1B0400F51BC9
:102D63000480FB1B0500011C06000D1C31001F1C09
:102D73003300251C34002B1CFFFF0000030003005D
:102D83000400080010001F003E007B00F600EC0169
:102D9300D703AF075D0FB91E713D000007ECFDFDC2
:102DA300FDECDCDCCCBCACAC9C9C8C7C7C6C6C5CAF
:102DB3005C5C4C4C3C3C2C2C1C1C03EAF5E5D5D547
:102DC300C5B5A59595858575756565555545453590
:102DD3003525251515050A6722023122053D2207EF
:102DE30037220C19220D2522FF000000160F0000C8
:102DF3000B150B020002220F3300000E0F5A6967F6
:102E0300426565416C6C69616E63653039D0D1D2BE
:102E1300D3D4D5D6D7D8D9DADBDCDDDEDF30301634
:102E2300181920231A1C1E3000034D4C4651181A42
:102E33002505020001191618161618230300303051
:102E430017181921301B1D1F30003C40423A3F3FE9
:102E5300392F47300C0E020B040B0A0708000F0230
:102E63000402010101010902E803000000BE040A93
:102E730001000E000300E80304090E031004030A13
:102E83000C041E0828020C0508151E04C082C0830A
:102E93001227239014587409F0A37420F090145A45
:102EA300740FF0A37420F090145C7415F0A37420D5
:102EB300F090145E741BF0A37420F0025BCA74F7E5
:102EC300120A2390144CE4F0E990144BF07C257D16
:102ED300147A4D7B141219199016A5E0901455F02D
:102EE300901456740FF0A37414023E5774F0120A30
:102EF30023EAFEEBFF5480700302306090144B1200
:102F03003EEC7003023059EA241B125757707CEAD7
:102F1300241F12575764137002A3E0706E8A828BCA
:102F2300831230AE901466124CE9750A00750B00DB
:102F3300800D123D2D126DC912181DAA0EAB0FEA9A
:102F43004B60488A828B83E0650C7004A3E0650DB7
:102F5300702C8A828B83A3A3A3A3E0F50EA3E0F5D1
:102F63000FE50A450B8A828B83A3A3A3A360C31235
:102F7300402F850A82850B83A3A3A3A380B78A0A64
:102F83008B0B8A828B83124CE580B4E508242A12CA
:102F93005757FCE5082402F8E43509F9E8FAE9FB98
:102FA300901466123195A3A3E06402703C8A828B6D
:102FB30083124CE9800B88828983A3A3A3A31240C5
:102FC3002FE849601F88828983E06A7003A3E06B5E
:102FD30070E488828983A3A3E06C70DA9016AB1245
:102FE3005A87806BECF9122045850882850983E0B6
:102FF3006401704FE5082418123097120FBB126357
:1030030071120DC0E5082412123097120FBBE508A8
:10301300123EE0120FB7E508240B126375120DC4BC
:10302300E5082417123E7DE5082402FCE43509FD7A
:10303300E5082419FAE43509FB122867740A120F0C
:1030430079800CE064027007AA08AB09122123AA55
:1030530008AB09121787EEFAEF6480802DEA540259
:10306300600C9016BE7401F0EA6402FA8023EA54FD
:1030730008601A12203FEA4B700B90146812624CDE
:103083007A081230A4EE6408FAEFFB80047A007B1E
:10309300000269FBF582E43509F583E0F50A780A55
:1030A30022FB90144BE0F91218E922A3A3E0F50CDC
:1030B300A3E0F50D227B0090144BE0F91218DD74A8
:1030C300042274F4120A238A088B098A828B83A34D
:1030D300A3A3124AE1123E8838F583E02409FA12C9
:1030E300699370030231888A828B837402124B5670
:1030F300850882850983123195E8F0A3E912660DEC
:103103008A828B83A3A3A3A3A3A3A3A3F0E5082489
:1031130003F8E4350912318A123E883AF583E08ECA
:10312300828B83A3A3A3A3F0EE2409FAE43FFB8ECF
:10313300828F83A3A3125D39F5838882E0A2E58E93
:10314300828F83A3A3A3A3A3500474018001E4F09B
:10315300E5082403F5828983124CE9EA12526A3B9B
:10316300F58312695A120FB3123E873B125E2B8E00
:10317300828F83A3A3127B09120F79EEFAEFFB90E0
:10318300144B1269E08016F98882F583E0FAA3E014
:10319300CA22124E86A3A3227402120F797F04025D
:1031A3000D3B74F2120A238A088B09ECFAEDFB74C7
:1031B3000E121288E0FC1212D18A0C8B0DAE0CAFEA
:1031C3000DEA4F6030AC08AD091212BFE96026ACBE
:1031D30008AD09EEFAEFFB1212C5E970148E828F67
:1031E3008312401CFAEFFB1212B9AA08AB091212A0
:1031F300E97900800279B4024DD574F0120A237480
:10320300F6121043EAFEEBFF8C088D09750FB385A8
:103213002182852283E4F0750E008002050E902E34
:103223008EE493F8E50EC3984003023324AA0E7B81
:103233000012130D8A0A8B0BEA4B60E08A828B83A0
:10324300A3A312332B28F0F8C3EE98EF940050CCCD
:103253007C157D007900AA08AB0912176F850A82D5
:10326300850B83A3A3A3A3126E06E0F8EEC39829EC
:1032730025E0F8E433F9E50A28F582E50B39F5830F
:10328300A3A3A3A3A3A3123E92A31258AE8A0C8BAB
:103293000DAC0CAD0DAA08AB09121919850A82856C
:1032A3000B83A3E06401700A1263717401123EA4DC
:1032B3008044740112100D850A82850B83124CE73A
:1032C3001212F5E9603D7409121288E0C0E012633E
:1032D30071D0E0F07409121288E064037013740172
:1032E30012100DE508240BFAE43509FB12191980B5
:1032F30012740112128812402FE5081258943509EE
:10330300126DC7850A82850B8312637D123EA4A3C7
:10331300A3E0C0E0E5082414126375D0E0F0750F54
:1033230000A90F740A0269F8A3A3A3E0F885218218
:10333300852283E02274F7120A23E9FE8A828B83B3
:10334300A3A3A3A3A3A3E0540860338A828B83A31C
:10335300A3A3A3A3A3E0540260218A828B83A3A324
:10336300A3A3A3A3A3A3A3E06406600F74E96E6001
:103373000A74CD6E600574F06E7003122027024646
:10338300D474F0120A2374EF121043740F121288CC
:103393001261307408121288E9F0ECFEEDFF740537
:1033A30012128812449C1246C0A3E0F91212DD7473
:1033B3000612128812613074061212881252FB70C0
:1033C3000302363F123ECCE0FA7406121288E0F98B
:1033D300121F6712369FF8A3E0F9E849700302361B
:1033E3003FEE2403F50AE43FF50BEE2406F508E46B
:1033F3003FF5097C00850882F583124CE9850A8232
:10340300850B83E0F91212E3740312128812613000
:10341300850A82850B83E0C0E085218285228312A1
:103423003698D0E0125410F9852182852283123D0B
:1034330034124F6212332EFAA3E0CA2407F582E452
:103443003AF583E8F0A3E412613B2406F582E438FD
:10345300F583E4126DD3124AD5120FB3EE123E88F0
:103463003F125E2B7403121288124AE12409127B65
:1034730003120F797429121288126E0012318F12FF
:1034830054233A126DC7742B121288E0C0E08521D1
:10349300828522831252C2D0E0F07402121288E4B1
:1034A300F0742512128878081212130235967403E9
:1034B300121288125DF38882F583123687A3A3A3C1
:1034C3001258B9FB1212FB850E82850F83A3EAF013
:1034D300A3EBF07403121288123698A312368712E4
:1034E3005AC8A2E6500F850E82850F83A3A3A3A318
:1034F300A3E0D2E1F07405121288E0706B850E82AE
:10350300850F83A312402F9014A6E0687003A3E0F5
:10351300697055850E82850F83A3A3A3123E677539
:103523000C00780C120FBB7808120FAF742912121B
:1035330088E0F50C780C120FBB7427121288120D59
:10354300C49014B3120DC479007419121288124C6A
:10355300B912216B740A120F79850E82850F83A32A
:10356300A3A3A3A3E04405F07402121288E004FCB1
:103573008E828F83124CE38E828F83A3A3A3E0F901
:103583001212E37403121288126130740212128849
:10359300E004F074031212881252FB606774021283
:1035A3001288E0FA740612128812402FC3EA98E4D4
:1035B3009950517402121288123971852182852221
:1035C30083E028F8A3E039F9E8240FF50EE439F590
:1035D3000F850E82F583E4F074031212881236927B
:1035E300640160030234B174051212887401126914
:1035F300E6F07403121288125BBA123994E8F0A34E
:10360300E90234D5852182852283124CE9121F6D8C
:10361300852182852283120DC47426121288E0FD4F
:103623007425121288E0FC740A121288E0F9EEFA8B
:10363300EFFB1220217402120F7980438E828F8355
:10364300A3A3A3E0C0E0740C121288D0E0F01268C8
:103653004FE0C0E0740D121288D0E0F0740612122D
:10366300881252FB7009740E12128874B9800774A1
:103673000E1212887410F074091210051221657469
:10368300110269F8E0850E82850F83A3A3A322E0CC
:103693001253E8E022E01253E8A3A3228521828596
:1036A3002283EAF0A3EB1253042274F0120A237468
:1036B300E11210437404121288E9F07403121288A1
:1036C300ECF07402121288EDF08A0E8B0F742F1235
:1036D30012881230B0AA0CFB121F5B7401121288FD
:1036E300E9F0AA0CAB0D121F617401121288E0708D
:1036F3000302396C852182852283E480158E828FB3
:1037030083A3A3A3A3A3E0D2E3F08521828522832D
:10371300E00412693EF8852182852283E0C3984044
:10372300030239637401121288E07003023963855E
:103733002182852283123971E50C28F8E50D39F9C8
:10374300E8240FFEE439FF8E82F583A3A3A3A3A38A
:10375300E0A2E040B5750800750A08750B00740215
:10376300121288E060037508207C087D00790074DC
:103773000512100512176F8E828F83E0603E90143E
:10378300F6E06401701AE508D2E3F508750B101230
:103793003981121288E8F0A3E91257AC74FF8076DE
:1037A30043080C750A0C8E828F83A312398C126D19
:1037B300C9740512128874FFF0A3805A740412129C
:1037C30088E06009E508D2E6F508750A0A8E828F5B
:1037D30083A3E064FE7003A3E0F47030741212124A
:1037E30088740412639BF8741D121288E8124B56F6
:1037F3007412121005121E897D007C007900741565
:10380300121288AA82AB83121C5B800B12398112BD
:103813001288E8F0A3E9F07407121288E508F012A1
:103823003EC3C0E07409121288D0E0F0740A121289
:10383300887401F0740512100512212974111212F3
:1038430088E06003023941740D12128812540B8E02
:10385300828F83A3A3A3A3F0740D121288124B24A7
:10386300E50AF0A3E50BF07403121288E0C0E0123E
:103873004AB5D0E0125AC860119014F6E0C0E07463
:103883000D121288124AFFD0E0F0740D1212881242
:10389300402F850C82850D83A3A3A3A3A312397A9A
:1038A300241C12612A126DE312397C125A7A3912DE
:1038B300686EC0E0124A9CD0E0126933C0E0740D18
:1038C3001212881245E2D0E0126634C0E0740D1281
:1038D30012881245D8D0E0F0740D12128812398C78
:1038E30012397A242A12612A850E82850F83A3A3B3
:1038F300A3A3A3A3A3A3E0126123123EB2C0E012C9
:1039030045C4D0E0F0740D121288124CE9850E8282
:10391300850F831269492428F582E43B126DC7128F
:103923003EBB12695A120FB3125E24EA1260BC3B0B
:10393300127B07120F79740512100512212F8E8244
:103943008F83A3A3A3A3A3E0D2E0F0741112128880
:10395300E060030237007401121288E01402370C8E
:103963007900AA0CAB0D12202D741F0269F8E075C3
:10397300F007A4F8A9F022A3A3124CEDE8228E824B
:103983008F83A3124033740522E0123994A3A3A3B7
:1039930022F8A3E0F9850E82850F83A32274F01227
:1039A3000A2374E8121043E9852182852283F08A71
:1039B3000E8B0F8A828B83A3A3A3A3A3A3A3A3E04A
:1039C300F9121F858A088B09EA4B7003023A7DE5D9
:1039D3000E12527E123EDB123E72852182852283B5
:1039E300E06003023A807C04850E82850F83A3A3E3
:1039F300A3A3A3A3A3A3E0F9121F8BEE4F607B8EB7
:103A0300828F83A3A3A3A312402F740712128812D9
:103A1300626112402F7409121288124B86C0E0743F
:103A230011121288D0E0126612A3A3A3A3A3A3A327
:103A330012402F740F121288126DC9741212128859
:103A4300E41269EEC8241FF582E438F583125DEFB2
:103A5300C413135403FC70027C048E828F83E0F939
:103A63007808120FB7742059FD744059F974031282
:103A730010051220217402120F790269F67C088561
:103A83000E82850F83A3A3A3A3A3A3A3A3E0F91289
:103A93001F8B8B0BEA4B70030239FEEE4F60DB8505
:103AA3002182852283E0F50C780C120FBB850882F6
:103AB300850983A3A3A3A3A3A3A3E0F50C780C1206
:103AC3000FBB8A828B83A3A3A3E0FB8A82850B832C
:103AD3001276268A82850B83E0FA8E828F83A3A3D4
:103AE300E0F912286D7402120F79023A0274F71288
:103AF3000A2374FA121043E9FE780179017F0080EA
:103B03000379000F124E65E0FCEFC39C5026EF755E
:103B1300F007A4FC85F008AD08EA2CFCEB3DFD1290
:103B23004454E0A2E050DA540C60D6E0A2E250D351
:103B3300780080CF8A828B83A3A3A3A3A3A3E0707F
:103B43003DE9A2E0400574016E70338A828B83A342
:103B5300A3A3A3A3A37401123E44E0C0E074031221
:103B63001288D0E01244B3E0C0E07404121288D08B
:103B7300E0F07405121288E8125D8E122165740656
:103B83000246D1C082C083790112202D025BCA7420
:103B9300F4120A23EA4B9016BE6019E4F08A088BEC
:103BA30009F50AF50B7808120FAF7A021230B81232
:103BB3000F79800A7401F07A027B001230A502317A
:103BC300A074F0120A2374F31210437403121288C0
:103BD300E4F0A3F0901466123E727401121288E4AA
:103BE300F0A3124B5B04F09014A0E0A2E350030295
:103BF3003CB7123E38740912128812124D7409121E
:103C03001288780812121390146878081210157429
:103C1300051212887808121222123D3B7405121203
:103C23008878081211D550077A017B00023D287469
:103C330005121288780C1212139016AAE0F509786F
:103C43000C79081209B4A80CA90D9016ABE0C3981F
:103C5300E4995003E08001E8852182852283F07492
:103C6300091212887808121213C008C009C00AC0CA
:103C73000B7405121288780C121213123D3B780C48
:103C830079081209B4E4F50AF50BD00FD00ED00D64
:103C9300D00C780C79081210E8901468780C121282
:103CA300228011123D2D126DC9EEFAEFFB12181D81
:103CB300AE08AF09EE4F60658E828F8312332BC33C
:103CC30098502DEE2403F8E43FF9E0FA88828983C3
:103CD300E0C39AF0602374031212881241957401B1
:103CE300121288EEF0A3EF12627CFEA3E0FF80C401
:103CF3008E828F83A3A3A3E4F08E828F83127AC074
:103D030074011212881252FB8E828F83A3A3A3A382
:103D13006091126255121288123D34808974031225
:103D23001288124CE9740D0269F81240339014663C
:103D330022125E1AA3A3A3229016A9127AC8E4F54D
:103D43000AF50B2274F0120A238A088B09890A7870
:103D5300007900901466123E72FBEE4B601E088ED3
:103D6300828F83A3A3A3A3124CB3601008E870014E
:103D7300098E828F83123E6EEA4F70E39016AC1267
:103D83004CE9C3E89AE99B4003023E2B7A06123EB4
:103D93002EA80CA90DEA497003023E2B8A828B835D
:103DA300E508F0A3E509123E4DE50AF09016AB12C3
:103DB3004E6D123E44A3E4F0A3F0901466124CB38C
:103DC300600D8E828F83A3A3A3A3126DC980179066
:103DD3001466126DC99014A0E0A2E34009123E38A4
:103DE30090146812124D9014A0E0A2E3503A7A089E
:103DF3007B0090144BE0F91218EFEA4B4C4D7028FE
:103E03009016A9E0F508A3E085080CF50DE4F50E7E
:103E1300F50F780C120FAF7A087B0090144BE0F982
:103E23001218E37404120F790269FB7B001218174E
:103E33008A0C8B0D22121901EAF8EBF9ECFAEDFB6F
:103E430022123E4822123E4DA322F08A828B83A384
:103E5300A322E508F00246D4F08E828F83A3A3A3A6
:103E6300A3A3A322125765A3A3F022A3A3A3A3E0B2
:103E7300FEA3E0FF227F05020D3BF582E43509F541
:103E830083E0F922EA123E8C222410F582E4221206
:103E93003E9AA3A3A3A322124037850882850983F0
:103EA30022123EA822F0850A82850B83A3A322E572
:103EB3000E2411123ED8E022E50E240E123ED82223
:103EC300E50E2410123ED8E022123ED022EE123E1E
:103ED3008C3FF58322F582E4350FF58322240FF519
:103EE3000AE43509F50B780A22E0F91217998A08D2
:103EF3008B09EA4B2274F2120A23890B8A088B0975
:103F03008A828B83124CE9122051EA4B600479B800
:103F1300806A12205DE9F8902E7FE493F9E8C39953
:103F2300400479B280567A15123E2EAE0CAF0DEADC
:103F33004F7004791080458A828B83E4F0A3123E8C
:103F43004DE50BF0750A007808120FB37C127D0063
:103F5300EA2403126905120F7990146C1252FB7054
:103F63000890146C800C12402F88828983123F8240
:103F730070F4EEF0A3EFF012206F7900024DD5122A
:103F83004CEDEA4B8882898322C082C08390146CF3
:103F930080048C828D83127627EC4D60288C828D71
:103FA30083A3A3E069600574FF6970E68C828D8347
:103FB300A3A3A3E06A7003A3E06B70D6EC2403FA17
:103FC300E43DFB80047A007B00025BCA74F7120AAB
:103FD30023E9FD74FE6D70047C0180027C00901463
:103FE3006C80096D70027C01888289831252FB60A8
:103FF3001F88828983A3A3A3E06A7003A3E06B7085
:10400300E7ECA2E088828983A3A3E050D6F980027B
:1040130079FE0246D4EEF9800CA3A3127AC8EE22ED
:104023007402120F797F02020D3BF5831240332293
:1040330012403722E0F8A3E0F9221240378E828F34
:104043008322120F797F03020D3BC082C083790064
:1040530090146C800109E0FAA3E08A82F583E5827B
:10406300458370F1025BCA74F6120A23E4F508F57E
:10407300097808120FB7902E7FE49375F013A4A963
:10408300F012418A126E27120F79E9FE74096E70DD
:104093000312206902401874F6120A2374FE1210E8
:1040A30043852182852283E4F0A3F0A821A92288F5
:1040B3000889097808120FB775080275090078088E
:1040C300120FB7126A98120F7902402374F5120A7D
:1040D3002374EB121043852182852283E4F0A3F03D
:1040E30090146C80748E828F83A3A3E0C0E074026B
:1040F300121288D0E01257ACA982AA8389088A09D0
:10410300750A007808120FB37C127D007406121230
:1041130088126DEC120F797402120FFD8808890959
:104123007808120FB77508137509007808120FB7CE
:10413300740412128812529E75F013A4F8AAF07533
:10414300F013E9124186126AA0120F798521828544
:1041530022831241958E828F83123E72EE4F7085B9
:10416300A821A922880889097808120FB7750802BF
:104173007509007808120FB7126A98120F7974152F
:10418300024045A42AF9E82402FCE439FD7A427B83
:104193000022E02401F0A3E03400F02274F4120AB8
:1041A3002374EB1210437E007F00A821A922880804
:1041B30089097808120FB77508028E097808120F5B
:1041C300B77C007D007A42126E33120F79E9706C6E
:1041D3008E0880567402120FFD880A890B780A1222
:1041E3000FB7750A13750B00780A120FB7E5087538
:1041F300F013A4F8AAF075F013E509124186126EC4
:1042030035120F79E9701B7403121288AA82AB83EB
:104213007402121288E0F912204BE970050EEE7059
:10422300010F0508E50870020509852182852283AF
:1042330012402FC3E50898E509994098EEFAEFFB81
:10424300741502319D74F6120A238C828D83A3A305
:104253001244A1F0EA1260C23BF583E0C0E01244CD
:104263005ED0E0F0EA241DF582E43B12402D1244B7
:104273004212449CF0A3F0EA241FF582E43BF58349
:10428300123E72EC1244353DF583EEF0A3EFF012CB
:10429300443B3BF58312446CA3A3A3A3A3A3EEF077
:1042A300A3EF125D1DFE8C828D831244AB74035EFB
:1042B300FEC394034003024428EE600874026E6058
:1042C3000302434D8C828D83E0540CFE740C6E709C
:1042D3000302438CE0A2E4400D88828983E08C8250
:1042E3008D83A31244C174086E600302438C12448D
:1042F3004C7401F08A828B83A3A3A3A3A3125772E6
:1043030070148C828D83E0440C1244B3A3A3124433
:104313006CEEF0A3EFF08C828D83E0A2E4402B8857
:104323008212447A12448F500109F58212447AA30F
:10433300A3A3A3A3A3F0A3EF1244BB8C828D83A3F7
:10434300A3A3F0E82403F850010988828983E0C01D
:10435300E0EC2411F582E43DF583D0E01244AB8C0C
:10436300828D83E0A2E7507588828983E0FE8C8288
:104373008D831244C174FC5E700C8C828D83A3E028
:1043830054036403701E02442812444CE4F0740C7A
:104393006E60030242F7888212448012448F5001F8
:1043A300090243198C828D83A3E05403603288820F
:1043B3008983E0C0E0EC1244663DF583D0E012440B
:1043C300C28C828D83E054036402701488828983D3
:1043D300E0C0E0124454D0E01244C28003A3E4F0EE
:1043E300EC12526A3D126DC7EC2410FEE43DFFEA65
:1043F300241DF582E43BF583E0F5088E828F83E08C
:10440300C3982508F508F0EA2417F8E43BF98882F5
:10441300F583E0C39508C0E0124442D0E0125D1D6D
:10442300C39508500A124442E4F012445EE4F002D9
:1044330040282415F582E422EA240DF582E422ECD7
:10444300240DF582E43DF58322EC1254233DF583DC
:1044530022EC2414F582E43DF58322EC123E8C3DDC
:10446300F583222413F582E422E0FEA3E0FF8C828D
:104473008D83A3A3A3A322124480A3A3228983E051
:10448300F508A3E0FFE5088C828D8322A3A3A3A3F1
:10449300F0A3EFF0E82402F8221244A1A322E4F0EF
:1044A3008C828D83A3A3A3221244C9A882A9832249
:1044B300123E48A3A3A3A3221244C9A3E022A3123A
:1044C30044C908A98322125D26A32274F4120A2385
:1044D30074F31210438A0A8B0BECFEEDFF8C82F50A
:1044E30083E0540CF508E0A2E75006E508D2E7F5AF
:1044F30008E508D2E1F5081257727006E508D2E420
:10450300F508E0A2E55006E508D2E5F5087C087D4C
:10451300007900AA21AB2212176F7402121288E5E8
:1045230008126DCDC0E07403121288D0E0124B5B09
:10453300E50AF0A3E50BF07405121288126639122E
:104543001288E070777408121288124AE1125D0F24
:1045530038126654C0E074081212881245E2D0E0A3
:10456300126634C0E074081212881245D8D0E0F005
:1045730074081212881245CEE0124B09124B8A12AC
:104583006123EE241112573EC0E01245C4D0E0F07F
:10459300EE241412573EC0E07408121288124AE146
:1045A3002435F582E438F583D0E0124B2EC0E07455
:1045B30008121288124AE5D0E012638D740D02319D
:1045C3009DE82432F582E439F5832212403DA3A30A
:1045D300A3A3A3A322124AF512683338F583221248
:1045E3004AF52426F582E438F5832274F7120A2368
:1045F3007E008A828B83A3A3A3A3A3A3A3A3A3E085
:10460300640460030246B012541BE060030246B028
:1046130012527D3B1252F970030246B0888289839D
:10462300E0540360030246B0E812542339F583E0F3
:10463300FA8C828D83A3A3E0FBA3E0CB2411F58244
:10464300E43BF583E06A706588828983A3A3A3A30F
:10465300A3A3A3A3A31246B4E06A7003A3E06B7001
:104663004C88828983A3A31246C0E0FFA3E0CF2432
:104673000612573E6A7003A3E06B70318882898308
:10468300A3A3E0F88C828D83A3A3E0F9A3E0F583D1
:104693008982A3A3E06860138C828D83A3A3A3E024
:1046A300F5838982E0540C640470027E01EEF98084
:1046B300201246B822124CF18C828D8322A3A312BE
:1046C30046B8A3A322740C121288E0F9740D120FDA
:1046D300797F01020D3B74F6120A2374FC12104316
:1046E300EAFEEBFFECFAEDFB8C82F583A3E05403C7
:1046F30060169014621252FB60597900EEFCEFFDD4
:10470300125F1A122893804B852182852283EEF053
:10471300A3EFF07402121288124B50AC21AD227A2F
:10472300877B201222AF8A088B09A808A909EA49C6
:1047330060218A828B83A3A3A3A3A3A3A3A3A374AC
:1047430006F07A0088828B83124AE11260E3E0F973
:1047530012220D740402402574F2120A2374F31218
:104763001043EAFEEBFF8A82F583A3A3A3A3A3A3CB
:10477300A3A3A3A3E0F50A9016BEE0700579BA02DD
:104783004A99750801750900750C00750D007C08C0
:104793007D007900AA21AB2212176F7405121288CB
:1047A3007401124B63540460127402121288E0D233
:1047B300E6124B6354087003750803E05410600657
:1047C30074404508F508E054086022740212128808
:1047D300E044C0124B635420600A7403121288E051
:1047E300D2E080087403121288E0D2E1F0EE2415BF
:1047F30012573E124AC97003740169700674084562
:1048030008F5088E828F83A3A3A3A3A3A3A3A3E086
:104813007016122309852182852283126130740266
:10482300121288E0D2E28030640F70107402121208
:1048330088124B6B74044508F508807F8E828F8342
:10484300A3A3A3A3A3A3A3A3E064028E828F837075
:104853000A126E00E8F0A3E9F08060A3A3A3A3A368
:10486300A3A3A3E06403700DAC21AD22EEFAEFFB2A
:104873001220BD80468E828F83A3A3A3A3A3A3A3E9
:10488300A3E0640170359014F6E060107402121214
:1048930088124B6B750910750AFF80187402121287
:1048A30088E0440C124B5B74FDF0A374FFF07404B6
:1048B3004508F5088E828F831230B0EE2415125707
:1048C3003EA2E0503F7402121288E0540C701B8E1B
:1048D300828F83124CE9121D27E9700579BB024AC6
:1048E300997402121288E0D2E5F0EE241512573EB5
:1048F300A2E050107402121288E0540C6404700495
:10490300E0D2E5F0EE241112573EC0E07404121217
:1049130088D0E012663B121288E06003024A927468
:1049230008121288124B24E508F0A3E509F0124A95
:10493300BFE0C0E0124AB5D0E0F0124AA6E0C0E002
:104943007408121288124AE112446638F583D0E0E3
:10495300124B8A640170119014F6E0C0E0740812DF
:104963001288124AFFD0E0F07408121288124B1F0B
:10497300124AB0FAE8241CF582E439F583EA124BB3
:1049830056EE2415FAE43FFB8A82F583127627E874
:10499300125A7A39F583124B50EE241C12573EC03B
:1049A300E0124A9CD0E0125BC0124AC97003740142
:1049B300697013740812128812540BFAEE241D1234
:1049C300573EF9121F918E828F83A3A3A3A3A3A3A0
:1049D300A3A3A3E0C0E074081212881245E2D0E05A
:1049E300F074081212881245D8E50AF074081212FE
:1049F3008812529E2428F582E439F583E50CF0A34E
:104A0300E50D124B36124B091257B7126123EE1202
:104A13004AB0C0E0E82433F582E439F583D0E0F00E
:104A2300EE241B12573EC0E07408121288124AE5A6
:104A3300D0E0F0EE241A12573EC0E0740812128838
:104A4300124AE12432F582E438F583D0E0124B2E8A
:104A5300124AD5120FB3126839127627740B121249
:104A630088124AE1242F127B03120F79EE241512C8
:104A7300573E544060129014821252FB600AAA21DE
:104A8300AB22125F1A122893AA21AB2212212F7490
:104A93000C121288E0F9024DD0E82420F582E439A3
:104AA300F58322EE2419F582E43FF5832212684848
:104AB300E022E82412F582E439F58322EE2418F586
:104AC30082E43FF583225480F8A3E05401F9748013
:104AD3006822F508A3E0F509750A00780822124A4E
:104AE300F522124AF52434F582E438F58322A3A390
:104AF300A3A3124AF922E0F8A3E0C822124AF5124E
:104B0300443538F58322FAA3E0FBE8242AF582E44E
:104B130039F583EAF0A3EB22A3A3A3A3124033EE58
:104B2300221252A212528239F58322F0EE2413127A
:104B330057BF22F0EE240D1257BF22E0FC8A828B6E
:104B430083E02CFCA3E03400FD8A828B83ECF0A38A
:104B5300EDF022F0A3E4F022F08521828522832266
:104B6300F0EE24151257BF22E0D2E3F0124B73226A
:104B73008E828F83124037852182852283E8F0A3BA
:104B8300E9F022E8F0A3E9126276E02274F7120A50
:104B9300238A828B83A3E0640170047E6380027E98
:104BA300648A828B83E060087905124BC324F3FE89
:104BB30090149EE06007F9124BC324F2FE0246B044
:104BC3001221D7E9F8EEC3982274F6120A2374FE71
:104BD300121043852182852283126130E9FEECFAAB
:104BE300EDFB9005301252FB6032A821A922880800
:104BF30089097808120FB77D01740E121288E0FC40
:104C0300EEF99005301261041228937402120F79A1
:104C1300EA4B60047900800679B2800279B60240DB
:104C23002374F7120A23E9FE9014581252FB601FF3
:104C33007409121288E0F5087808120FBBEEF99098
:104C430014581261041228937401120F79800279A7
:104C5300B60246D474F7120A238908ECFEEDFF79F5
:104C6300B5E508245E602014600624F86034803DB6
:104C7300900532124CB36035126E441228938E8223
:104C83008F83126130802490145A127627EC4D6082
:104C93001CEEFCEFFD90145A126104122893E9F9FB
:104CA300800B901456124CB912191979000246D48C
:104CB300124CEDEA4B2212762BEEFAEFFB2274F73D
:104CC300120A23E9FE79B574AB6E700B9014561279
:104CD3004CE912191979000246D48E828F83A3A35B
:104CE300A3A3A3A3A3A3124CED22124CF122E0FA37
:104CF300A3E0FB2274F1120A23EAFEEBFF8C0A8D78
:104D03000B7508019014A6E06E7003A3E06F700C9E
:104D1300124DC4AA0AAB0B121919805E12230FEEAF
:104D23006A7002EF6B7009AA0AAB0B122315804A53
:104D3300AC0AAD0BEEFAEFFB121E65E9F50890160F
:104D4300B1E070361227A1E97030E508702C901499
:104D530076E06E7003A3E06F7020EE4F601C750C5D
:104D63006E750D14750E00780C120FB37C087D0060
:104D7300AA0AAB0B126DF0120F79A90802772374FC
:104D8300F2120A23EAFEEBFF8C088D09750A011261
:104D93004DC4EEFAEFFB121913E96401701190147C
:104DA300A612402F850882850983126DC9800EAC37
:104DB30008AD09EEFAEFFB121E6BE9F50AA90A80AA
:104DC300111223038A0C8B0DAC0CAD0D22740D1242
:104DD3000F797F06020D3B74F6120A23EAFEEBFFFE
:104DE3007A0D7B00121817EA4B6062EE2424126AD4
:104DF300CDF0EE2425126ACDA3124E92126AD3A3EC
:104E0300A3126866124E6DF0EE124E53124E82E8F4
:104E1300F0A3E9124EA9124E7A126DC9EE124E5C3E
:104E2300126929A3A3A3A3F0EE243312573EC0E0D3
:104E3300124E65D0E0126658124E7AA3A3A3E8F08F
:104E4300A3E9124EA1C0E012541BD0E0F0024028A7
:104E5300242AF582E43FF58322242EF582E43FF5EC
:104E63008322EA1258943BF58322124E7122E08A80
:104E7300828B83A3A3A322126988A3A3A3A32212D1
:104E83004E86221240378A828B83A3A3A3A322F0E8
:104E9300124E9722EE2426F582E43FF58322F0EEAC
:104EA30024321257BF22F0EE242C1257BF2274F47F
:104EB300120A2374FE121043ECFEEDFFEC241612CB
:104EC300573E64057010EC2406FCE43FFD1220B746
:104ED300E97003024F5DAC21AD22126B82121D2DCE
:104EE3008521828522831252FB606B8E828F83E041
:104EF30064017058E875F009A4F8AAF075F009E99F
:104F0300A42AF974CF28F8740139F9E8FAE9FB887F
:104F130082F5837808121213EE124FFF1211D54057
:104F230027852182852283124B1F12574C124F6211
:104F3300780812121390864F78081210FC8A828B1D
:104F4300837808121222800A79A28010EE240F12AD
:104F53006DC37900800679A1800279C802319B1262
:104F63004B80EE1268542274F2120A238A0C8B0DC2
:104F7300ECFEEDFFEC12574CE4F0A3F0908623789F
:104F830008121213EC124FFF12106E6067EC240E1E
:104F9300125745703478B390149DE070289014CF65
:104FA300E064017020EC241112573EF91221BF8BEB
:104FB30009A909EE12527E3F12612EEA4960047874
:104FC30000800278A18808802EE060046402700AE1
:104FD3001220C9E9F5087007801DE064037010EE24
:104FE300FCEFFDAA0CAB0D121D51E9F50880087505
:104FF30008A180037508A3A908024DD51268547847
:10500300082274F0120A2374F5121043EAFEEBFF30
:10501300EA240AFCE43F8C82F583127AC412528894
:10502300740312100D8A828B83125F24E9700302CA
:1050330050EE740112100D7403121005121D2D741D
:10504300011212881252FB70030250EEE875F00948
:10505300A4F8AAF075F009E9A42AF974CB28FC7422
:105063000139FDE508240E126375E4F00412128879
:1050730012402FE50812527E3509126DC78C828DBE
:1050830083121271E508241212637512124D908671
:105093004F78081212138C828D83780812116E8C4C
:1050A300828D83780C1212139086BB780812121328
:1050B300780C79081209B4E5084509450A450B70CF
:1050C3002A740112128812529E75F009A4F8AAF0EC
:1050D30075F009E9A42AF974D328F582740139F526
:1050E300837401F07A007B081252AB8E828F83A304
:1050F300A3A3A3A3A3A3A3A3A3E02406FCA3E03435
:1051030000FD8E828F83125F24126646603EEE247A
:105113000A125270124B247468124B56E812526AE8
:1051230039F5837402F09014881212718C828D8386
:1051330012611D125D0F3CF58312124D90864F785C
:1051430008121213901488780812116E1252E67026
:105153005D901456125296A3A3A3A3A3A3A3A3A340
:10516300A3125D45121913E97010125D03901456D2
:10517300125D15700512664660348E828F83A3A379
:10518300A3A3A3A3A3A3A3A3125296124CE9121D94
:1051930057E960118E828F83A3A3A3A3A3A3125203
:1051A300D2E4F0A3F08E828F831252B8E4F012524D
:1051B300E660030252658E828F83A3A3A3A3A3A3F6
:1051C300127AC090149DE0600302525A9014CFE00B
:1051D3006401600302525A750A3A750B00780A1289
:1051E3000FB77402120FFD880A890B780A120FB7E2
:1051F3001270BF120F79E9705BE508240E12637514
:105203007401125300C0E0E5082411126375D0E065
:10521300F0E508240F126375743A124B5690148408
:10522300121271E508241212637512124D90864F03
:105233007808121213901484780812116E90864F16
:105243007808121213901484780812106E700812E2
:1052530052A780031252881252E67006125C06743B
:10526300A1F0740B0269F8240EF582E422F8E43FFE
:10527300F9E8FCE9FD8882F58322EA1252822224AE
:105283000FF582E422E5081252823509F583E4F032
:10529300A3F02212762B8E828F83221252A2221225
:1052A3004037E8227A007B0290132FE0F91217C3EC
:1052B300228A828B83A3A3A3A3A3A3A3A3A3A3123F
:1052C30052C622124AF9240EF582E438F58322A34A
:1052D300A3A3A31252DA22124AF9240FF582E43867
:1052E300F583228E828F83A3A3A3A3A3A3124AF1E0
:1052F300240FF582E438F5831252A2492212530493
:1053030022F0852182852283E02274F6120A23EAA1
:10531300FEEBFF7A237B00121817EE240AF508E44C
:105323003FF50985088212612E7C237D00790012E6
:10533300176F8508828509831252FB70030253CECF
:10534300EEFAEFFB1220D51252E660748E828F8341
:1053530012540164018E828F83A3A3A3A3A3A3701A
:10536300071253F7740E80211252FB701012664617
:10537300700B8E828F83A3A3E0A2E050071253ED3C
:10538300740D80051253ED740512665854036401BD
:1053930070071253D57405800B90149EE0C0E01281
:1053A30053D5D0E0125410F583888212576B8508C9
:1053B30082850983124AE11260C238F583E9800EBF
:1053C3008508828509831261A780031260EAF002CF
:1053D30040288E828F83A3A3A3A3A3A3A3A3A3A3E2
:1053E3001253E722E0126109A3228E828F83A3A3C3
:1053F300A3A3A3A3124AF11260C838F58322A3A37F
:10540300A3A3A3A3A3A3A3A31252C6E022125414DB
:1054130022126B97F8A3E022EA1254233BF583226E
:10542300240CF582E42274F1120A2374E41210436B
:105433008A0C8B0D8C088D097A237B001218178A2E
:105443000A8B0BAE0AAF0BEA4F70030257261260AA
:10545300CEE5082415125757687003A3E0698E82BE
:105463008F837004740280027401F0E508240DF840
:10547300E43509F98882F583E0FAC3E49AFA95E002
:10548300FB1257532AFAA3E03BFB8E828F83A3A31D
:10549300A3A3125D2C8E828F83A3A3F0EE2420F5A9
:1054A30082E43FF583E4F0EE2421F582E43FF583C3
:1054B300E4F0EEFAEFFB1221898508828509831255
:1054C300577270098E828F83A37405800690149E91
:1054D300125760F0EE2417F50AE43FF50B8E828F26
:1054E3008312576BE9850A82850B83F0EE2416F845
:1054F300E43FF9E508240EFAE43509FB8882898341
:10550300124B3EE5082410FAE43509FB850A82852F
:105513000B83E0FC88828983E0F88A828B83E0C373
:1055230098C39CF81257ACF0EEFCEFFDAA0CAB0D40
:105533001220CFE9F50B8E828F83E064027006128E
:105543005D03125730E50B600302571D750C0075A0
:105553000D009016B1E064016005E06402703F1233
:1055630057426008EE242112574570328E828F8392
:10557300A3A3A31260F0125778EE241612573E121B
:1055830057A1FAE439FB123E30EA4B60111269521B
:10559300120FB3125786AA0C126DF0120F79EEFA9E
:1055A300EFFB122195E9F50B9016B1E06401600859
:1055B300E064026003025710E97003025710E50C20
:1055C300450D700302571D8003850E0B1257426071
:1055D3000BEE24211257456003025716850B0E85E7
:1055E3000C08850D09750A007808120FB312578647
:1055F3008E828F83A3A3A3A3127B09120F79EE24B8
:105603002012573E600D12574B7468124B56EE240E
:10561300208015EE242112573E601512574B740358
:10562300F0A37401F0EE2421F582E43FF583E4F066
:10563300EEFAEFFB122195E9F50B70907C137D00D8
:105643007900740912100512176F741A12128874F4
:10565300011257B764687002A3E0704F8E828F8384
:105663001252D2E0640560030255CC7C0879FF8EA8
:10567300828F83A3A3A3A3E0242A125D481217F900
:10568300E970030255CC7C087D0079FF7401121088
:105693000512176F740112100D7A007B0079AB129B
:1056A30020B1741912128874FC801512574BE064F0
:1056B300037004A3E064017008741912128874FF64
:1056C300F0E4F508F5097808120FB7740212100D0B
:1056D3007413121288AA82AB8312622D120F79857A
:1056E3002182852283E0602B7409120FFD880889CB
:1056F300097808120FB77508137509007808120F97
:10570300B77C007D00126AA0120F798006E50C4574
:105713000D6007AA0CAB0D12181DEEFAEFFB121861
:105723001D8003750B10A90B741C027720EE240651
:10573300FAE43FFB12191922EE240C1257BF22EE92
:1057430024201257BF640122EE1252823FF58322B6
:10575300E508240EF582E43509F583E02212576546
:10576300A322E08E828F8322A3E0F91221D722E0C5
:10577300540364012212577C22E0FAE82AF8E43445
:1057830000F9228E828F83A3A3A31260F412577CA5
:10579300EE24161257BF1257A1FCE439FD22FAE892
:1057A3002AF8E439F9E82404221257B02212666772
:1057B300A3A3A322F01257BC22EE240FF582E43FE9
:1057C300F583E0227901020F4474F4120A23EAFEFE
:1057D300EBFF8A82F583A3A3A3A3A3A3A3A3124AE4
:1057E300E12424F582E438F583125772702E8A82FD
:1057F3008B83125401702512589AE06405701D12B0
:10580300589AA3E0F874016860057406687007127B
:1058130052B4740280051252B47403F0EA240A12DB
:10582300619B126104E4F0EA2408F8E43F12318A30
:105833002431F582E43AF583E0C0E0126E3BA3A382
:10584300D0E01258B9CA242EF582E43AF583E0C0B9
:10585300E0126E3BA3A3A3D0E0125DDFC8125894FD
:105863003812402D126E3B1258AE8A0A8B0BAC0ACB
:10587300AD0B850882850983125D451219198508C8
:1058830082850983124CE9122195126196F0023147
:10589300A0240BF582E4228A828B83A3A3A3A3A370
:1058A300A3A3A312662DF583888222A3A3A3A31225
:1058B3004B8012230322125D21FAA3E0220257C771
:1058C300C082C08390147874DBF0A37420F090142A
:1058D3007A74E7F0A37420F090147C74EDF0A37451
:1058E30020F090147E74E1F0A37420F0025BCA747C
:1058F300F4120A23EA2408FEE43BFF8E82F58312A6
:10590300529E1260DAE0F50874035508F509125D3A
:1059130040F8A3E08882F583E508F0A3A882A98371
:10592300E50960097402650960030259DF740C55C7
:1059330008FC600A74086C600574046C70267402B9
:1059430065097006E508A2E4401A8A828B83A3A343
:10595300A3A3A3A3A3A3125AE51268333D125A804B
:10596300A308A983740C6C701C125AE12428125AE0
:10597300CD2428F582E43DF583A3126461F0E82485
:1059830002F8500109740265097006E508A2E440B3
:105993004B125AE1242A125ACD242AF582E43DF50A
:1059A30083A3125A8F125AEB126461125AEBA31299
:1059B3005A87E82404F8500109EC600F74086C60FE
:1059C3000A740C6C600574046C7011126111242646
:1059D300F582E43C125A80A3A882A9838A828B832E
:1059E300A3A3A3A3A3A3A3A3125AAF54037014E5C1
:1059F30008A2E1400E126111125A7A3CF583E05479
:105A0300806008125A95125A82801990144CE0C093
:105A1300E0125A95D0E0125AC288828983125AC280
:105A230004125D26A3A882A983E508A2E750458E48
:105A3300828F83125AAF88828983125AC8125AB44A
:105A4300540360301261112434F582E43C12645F24
:105A5300F0E508A2E1501D8A828B83A3A3A3A3A32D
:105A6300A3A3A312318F2435F582E43A12645FA312
:105A7300F0E824030231A0241EF582E422F5831208
:105A83005A8FF022125A8FA3A3A3F022E0888289AF
:105A930083228A828B83A3A3A3A3A3A3A3A3E0FC50
:105AA300A3E0CC2432F582E43CF58322E0125AB41D
:105AB30022FCA3E0CC2425F582E43CF583E022F02C
:105AC30090144CE022126663E022F582E43DF583F4
:105AD300125A8F125ADA22126667125AE5228E82FE
:105AE3008F83E0FDA3E0CD22A3125ADA242CF582A2
:105AF300E43DF58322C082C0838A828B83125BBA22
:105B0300FC74035CF98A828B83A3A37401F0E960BC
:105B1300057402697061740C5CF8600A740868604B
:105B23000574046870137402697005ECA2E44009FB
:105B33008A828B83A3A37402F0740C68700A8A822E
