:020000040000FA
:060000000212390207C3E1
:03002B00020F9B26
:03003300020E8832
:030053000206F2B0
:1000830002075401010000000000F8FF07FFFF0012
:10009300000504000000030001FFFFFFFF00141030
:1000A3002700000020FD000206FFFF1E01000100E3
:1000B3000104010C00020402860000000104000098
:1000C3003D14000000E8030000FFFF8E14018813B5
:1000D3000000E803000064006400B801A0BB0D0049
:1000E300A0BB0D00020202070401051E02051E0249
:1000F3000A0A010108080103B80B02803E0102FE4F
:10010300FFE8030A050001FFFF020A011401E002F0
:10011300000000050301010F0300030003000300B7
:100123000300030003000300030005000A0014009A
:1001330028004F009E000000052D00000000D92B71
:1001430000000000FF000000FF001212856046124D
:100153001249603DE9687008F618F618F618F62299
:10016300748067F7120181090909748067F7221205
:100173001249601D1212857005191919801A12117E
:1001830028701F1210ECC37003E667331919194066
:10019300071818182208080874FFF618F618F61836
:1001A300F6221210EC60171212E6702192F012126E
:1001B300F87019501720F014080808090909E7F620
:1001C3001819E7F61819E7F61819E7F6221212F8C4
:1001D30060E6E869701F0808E62480F608E436F64E
:1001E30018547FB47F0CE654806007F6E418F618C1
:1001F300F622181822E9C6CC08C6CD08C6CE08C612
:10020300CFC0E0E8C0E0EAC0E0EBC0E009E9F809EC
:10021300E7FA09E7FBE6F918E6F8C3EC98ED99EE7F
:100223009AEBC2E7F5F0EFC2E795F0500E600CEBE6
:10023300CFFBEACEFAE9CDF9E8CCF8EAA2E7D2E7B8
:10024300FAEB33FB13F5F0EEA2E7D2E7FEEF33FF51
:10025300C5F013A2E730E601B313C5F0C3C0E0C095
:10026300F07F00C39BFB605E9418600F401D146019
:100273001AD0E023F9D0E0F80203538AF0E948608A
:1002830003D2F0E4AFF0FAF9F8803BEB30E40D89E8
:10029300F0EA6003D2F0E4AFF0F9CAF8EB30E30D13
:1002A30088F0EF6002D2F0AFF0E4CAC9F8EB54076C
:1002B3006014FBC3EA13FAE913F9E813F8EF1350D8
:1002C30002D2E0FFDBEDD0E0C0E030E739C3E49FCA
:1002D300FFF5F0EC98FC42F0ED99FD42F0EE9AFE4A
:1002E30042F0D0E0F9D0E0F8E5F0607AE923F9EEE6
:1002F30020E742D8028067C3EF33FFEC33FCED33D2
:10030300FDEE33FE80EAEC28FCED39FDEE3AFED03B
:10031300E023F9D0E0F84002801BC3EE13FEED1397
:10032300FDEC13FCEF135002D2E0FF08B800067F88
:100333007F74FF802EEF3350178CF020F002601093
:100343000CBC000C0DBD00080EBE000408E860DF05
:10035300E933E813FFEE2313FE4F4D4C8008E954B5
:1003630080FFE4FEFDFCEE33EF33F47004FCFD7E0E
:1003730080D0E0FBD0E0FAD0E0F8D0E0CFC618CED2
:10038300C618CDC618CCC6F9221212497004181823
:100393001822121285700D74FFF61819F61819F643
:1003A3001819F622E7548066F61212F8700F12122B
:1003B300E670F014F608F608F608F680D11212E695
:1003C300700CF608F608768008E6447F80EC12107D
:1003D300EF700C12112B60BFE65480F6E480BB1261
:1003E300112B700519191980A5E869700C763F184F
:1003F300768018F618F6E8F922E6CDC0E018ECC0CE
:10040300E0E633CD33CDD313F6E719FCE7191933FF
:10041300CC33C3947F400ECD9D502408E65480F620
:10042300E418F6800FF4043D14501408E6447FF6F4
:10043300187680E418F618F6D0E0FCD0E0FD22CC64
:10044300D313CCFD18E4C6CBC0E018E4C6CAC0E0A1
:100453000808ED08C633E613F618E433C675F0034F
:10046300C3CA97CA09CB97CB199C40047D08802E39
:10047300BD000302053516B6FF050606081618C3A8
:10048300CA33CACB33CB33CA27CA09CB37CB193CC0
:10049300C37D08803E187D0820E75CC633C6CA3397
:1004A300CACB33CB33DDF1D5F0EB30E77BCA97CA48
:1004B30009CB974ACB199C406F4B7025E620E0216E
:1004C3008066187D08C3CA97CA09CB97CB199CD3FA
:1004D300C633C6CA33CACB33CB3350C9DDE7D5F0F5
:1004E300E1D3E4C636C608C636C608C636C608C64D
:1004F30036C61818188031C3CA97CA09CB97CB19C7
:100503009CB34097C633C6CA33CACB33CB33DD342F
:10051300D5F02EC6A2E0C640C8CA27CA09CB3719F0
:100523004A70BECB3CB480B90808E63308E63360B2
:100533001F181818D0E0FAD0E0FBD0E0FCD0E0FDA3
:1005430022187D08CA27CA09CB37CB193CD3808030
:1005530013F618E4B67F11F618B6FF0EF618C604A4
:1005630070D20808768080CAF618F618F680C5009F
:10057300121249604F1212856012E7548066F61218
:10058300112870111212E6703B090909F4F618F6E6
:1005930018F618F6221210EC70151212F808080853
:1005A30060EAE6447FF618768018E4F618F622121D
:1005B30012F860161212E67012E4F608F608F6084E
:1005C300E65480F609090918181822EAC0E0EBC0BE
:1005D300E0ECC0E0EDC0E0E687F0A4FBACF008E699
:1005E30087F0A42CFCE435F0FA1809E687F0A42C74
:1005F3004B60027401CA35F0FCE433FB09E687F073
:10060300D2F7A42CCB35F0FC1908E687F0A42BCC49
:1006130035F0FBE433FD0819E687F0D2E7A42C4A52
:10062300CB35F0CD3400FC09E687F0D2E7A42DCC1E
:1006330035F0FDE433FA0918E687F0D2F7A42CCDA0
:1006430035F0CA3400FC08E687F0D2E7D2F7A42AD3
:10065300CC35F07A7E20E70B0ACB33CBCD33CDCC30
:1006630033CC33CB3350147004ED30E00ED2F1E4CD
:10067300CD3DCDCC3CCC3B5005DA05C2F1EB547FEC
:10068300C63308E63392F0FBE73309E733C39A50E6
:100693002D2B70190C0D4C4D70151806E608C3333D
:1006A300700D20F10AA2F013F6E418800B4024E445
:1006B300F630F002768018F618F618F68024D33B4D
:1006C30014501074FFA2F013F6187680E418F6188D
:1006D300F6800FA2F013F618E63303F618ECF618BB
:1006E300EDF6D0E0FDD0E0FCD0E0FBD0E0FA22C094
:1006F300E074F1120AE6A2AFE433F509D2AF85A79D
:1007030008AFA1EF5508FE74105E60061215DD7583
:10071300A1EF74085E60081215E375A1F78024EF5A
:10072300A2E092F0E508A2E082F05017906198E011
:10073300F8900633E0C398A2D265D0335002E8F0B4
:1007430075A1FE752300E509A2E092AF7F02020BBB
:10075300A2C0E074F2120AE6A2AFE433FED2AF9075
:1007630061A4E0F8759B00E5915854086008759101
:10077300F71216318023E59158541060087591EFF4
:100783001216378014E591A2E092F0E8A2E082F01D
:100793005007E0C2E0F012178D9061A3E0F8E5E99D
:1007A300585404600E12176375E9FB906193E0A23D
:1007B300E640F2752300EEA2E092AF7F01020BA2A6
:1007C300C0E074F2120AE6A2AFE433FED2AF906146
:1007D300A5E0F8E5BF585404600675BFFB1217A5E2
:1007E30080D112083A30F04312087F803E8A088B8A
:1007F300098C0A8D0B780812083A20F01430E72B85
:1008030074FFFCFBFA747F8022E4FCFBFA748080A3
:100813001AB48008BC00F2BB00EF800F50EBF9E480
:10082300C39AFAE49BFBE49CFCE499C6CC18C6CBC0
:1008330018C6CA18C6F922E4C9C608CAC608CBC670
:10084300D3330308CCC63392F0C3947F402E94185D
:100853004019C9B90704CACBCC225025C309CA33EE
:10086300CACB33CBCC33CC33D9F422F4600DC9CC0F
:10087300C313CB13CBCA13CAD9F6CC22E4FCFBFABD
:100883002214FCFBFA22C3E498F8E499F91208CA8B
:100893008026C3E49AFAE49BFBE920E7E91208CA3D
:1008A300E498F8E499F922C3E498F8E499F9120872
:1008B300CAE498F8E499F9C3E49AFAE49BFB22EBBF
:1008C30020E7CFE920E7E0B90010BB0008E88AF091
:1008D30084F8AAF022E4FBC8FA22EB70227B10C84A
:1008E30033C8C933C9335007C39AC3DBF280069AAE
:1008F30050012ADBEAC833F4C8C933F4C9FA2275B4
:10090300F008E4C833C8C933C933C99AC99B500432
:10091300C92AC93BD5F0ECFBC833F4C8E4C9FA22B1
:10092300080808EAC0E0EBC0E086F0E7A4FA18097B
:1009330086F0E7A42AFA180986F0E7A42AFA180928
:1009430086F0E7A42AFA1986F0E7A4FBE5F02AFA71
:10095300190886F0E7A42BFBE5F03AFA190886F0AC
:10096300E7A42BFBE5F03AFA18180986F0E7A4C5CB
:10097300F02BFBE43AFA1908E7C5F0C6A426F6E51E
:10098300F03BFBE43AFA1886F0E7A4F6E5F0082614
:10099300F6E43B08F6E43A08F6D0E0FBD0E0FA22AE
:1009A300E4CFC0E0E4CEC0E0E4CDC0E0E4CCC0E0FE
:1009B30075F020E626F608E633F608E633F608E691
:1009C30033F6181818EC33FCED33FDEE33FEEF333A
:1009D300FFC3EC9709ED9709EE9709EF97191919DA
:1009E300400FFFEC97FC09ED97FD09EE97FE1919EF
:1009F30006D5F0BFECF709EDF709EEF709EFF719A4
:100A03001919D0E0FCD0E0FDD0E0FED0E0FF2225B4
:100A130021C582C0E0E52234FFC583C0E0E521C3E0
:100A2300958224F810AF088583228582218008856A
:100A33008322858221D2AFCEF0A3E520F0A37808EC
:100A4300E608F0A3DEFAEFF0A3E58124FAF8E6085E
:100A5300F0A3E608F0A3E608F0A30808E608F0A36D
:100A6300E608F0A315811581D0E0FED0E0F81581EA
:100A730015811581E8C0E0EEC0E0221212D1B90061
:100A830003020AD0E4900501782979138002F0A3C8
:100A9300D8FCD9FA78239000867A01BA000280073D
:100AA300E493A3F608DAF97A297B1790008778C7CD
:100AB30079018015E493A3AD82AE838A828B83F0A0
:100AC300A3AA82AB838D828E83D8E9D9E775821E70
:100AD3007583D47404120F7D75824B75832974005A
:100AE300120F7DC0D02521C582C0E0E52234FFC5A9
:100AF30083C0E0E521C3958224F310AF08858322E8
:100B03008582218008858322858221D2AFC8F0A304
:100B1300E9F0A3EAF0A3EBF0A37908E709F0A3D87F
:100B2300FAECF0A3EDF0A3EEF0A3EFF0A3D0E0F026
:100B3300A3D0E0F0A3D0E0F0A3E520F0A3E5F0F02C
:100B4300A322E9799EC608CAC608CBC608CCC6C389
:100B530070207996CACBCC7019798ECBCC7013796F
:100B630086CC700EF9802ACA33CACB33CBCC33CCB4
:100B7300331930E7F2CCCBCA3350147004EA30E0B7
:100B83000DE4CA3ACACB3BCBCC3CCC500209C3E9F7
:100B930013C6CC182313C6CB18C6CA18C6F92285A8
:100BA3002283852182E0C0E0A3E0F9A3E0FAA3E079
:100BB300FBA37808E0F608A3DFFAE0FCA3E0FDA3BB
:100BC300E0FEA3E0FFA3E0C0E0A3E0C0E0A3E0F504
:100BD300D0A3E0F520A3E0A3F5F010AF08858322AE
:100BE3008582218008858322858221D2AFD082D05D
:100BF30083D0E0F8D0E032E47375F0108E248F25B3
:100C0300858229858328852182852283E0CEA3E0FE
:100C1300CF852982852883EBC9EAC8EDCBECCAC30B
:100C2300E833C8E933C9EA33CAEB33CBC3EA9EF5E9
:100C330027EB9FF526B35004AB26AA27EC33CCED64
:100C430033CDD5F0DAAE24AF2522121249601C123F
:100C5300128560171212F870071212E67001D32280
:100C6300C0D01212E67006D0D0B322C32233D0D044
:100C7300501430E0F6C3E7960809E7960809E796AB
:100C83000809E796B32220E0D5E6970809E6970816
:100C930009E6970809E697B322D083D082ECC0E037
:100CA300EDC0E0E493A3FCE493A3FDED4C600D12CF
:100CB3000DC0EC24FFFCED34FFFD80EFE493A3FCB7
:100CC300E493A3FDED4C600D120E5DEC24FFFCEDEF
:100CD30034FFFD80EFD0E0FDD0E0FCE493A3C0E05F
:100CE300E493C0E022121249601B121285601612AF
:100CF30012F870071212E6600CB322C0D01212E68B
:100D03007005D0D022C32233D0D0501330E0EBC3D0
:100D1300E7960809E7960809E7960809E796222067
:100D2300E0E4E6970809E6970809E6970809E697D5
:100D330022852283852182E0A3FEE0A3F5207808A3
:100D4300E0A3F608DFFAE0A3FFE0A3C0E0E0A3C05E
:100D5300E0E0A3C0E0E0A3C0E0E0A3C0E010AF0880
:100D63008582218583228008858221858322D2AFD3
:100D7300D083D082020F83D083D082E9C0E0E49392
:100D8300A3C386F0C5F095F0F908E493A386F0C5F4
:100D9300F095F0700BE493A3C3994005E904800236
:100DA300A3E475F002A42582F582E5F03583F5838B
:100DB300D0E0F9E493A3C0E0E493C0E022C0E0C331
:100DC300E49396087401939618400FE493667008B1
:100DD30008740193661870007019A3A3C3E4939673
:100DE300087401939618A3A3400DD0E0D0E0D0E09F
:100DF300020CD8A3A3A3A3A3A3D0E022740480046A
:100E030074028000CCC0E0EDC0E0E521C39CCCAD12
:100E13002250011D10AF068C218D2280068C218D5E
:100E230022D2AF120EFFD0E0FDD0E0FC227402808C
:100E330000CCC0E0EDC0E0E521C39CCCAD22500165
:100E43001D10AF068C218D2280068C218D22D2AFFE
:100E5300120EDDD0E0FDD0E0FC22C0E0C0F088F04F
:100E6300E4936670080874019366187000A8F0A3F1
:100E7300A3700BD0F0D0E0D0E0D0E0020CD8A3A355
:100E8300D0F0D0E022C0E074F2120AE6A2AFE4335D
:100E9300FED2AFE58BA2E050057904121511758BD4
:100EA30000C2E8752300EEA2E092AF7F01020BA21D
:100EB300D083D082CCC0E0E493A36006120F3F142A
:100EC30070FAE493A3600612106C1470FAD0E0FC7D
:100ED300E493A3C0E0E493C0E022CAC0E0E493A398
:100EE300C582CCC582C583CDC583F0A3C582CCC5DD
:100EF30082C583CDC583DAE5D0E0CA22CAC0E0E06B
:100F0300A3C582CCC582C583CDC583F0A3C582CCDE
:100F1300C582C583CDC583DAE6D0E0CA22C008C343
:100F2300E096F50808A3E096420808A3E096420875
:100F330008A3E09645087001D3D00822C0E0E493EB
:100F4300A3D39C5010E493A3C39C400AD0E0D0E009
:100F5300D0E0020ED0A3A3A3D0E0227009080808B2
:100F6300226016181818C6C333C608C633C608C687
:100F730033C608C633C6D5E0EA22C09FF59FE473A3
:100F8300D09F22D083D082C09FE493C0E0740193AA
:100F9300C0E0740293F59F22C0E0C0D0E8C0E0A88F
:100FA300A8D2AFC2C7752300E8A2E792AFD0E0F89A
:100FB300D0D0D0E0327404800A74038006740280B7
:100FC300027401C0E0F404120FD3D0E01212942291
:100FD3002521F58210AF08F521400C15228008F574
:100FE3002140021522D2AF8522832200C0D02521C1
:100FF30010AF08F521500C05228008F52150020599
:1010030022D2AFD0D022BB0102E722C082C08389A3
:10101300828A83BB0003E08002E493D083D08222E0
:101023006016080808C6C313C618C613C618C61325
:10103300C618C613C6D5E0EA222521F8E43522F9FD
:10104300222521FAE43522FB222521FCE43522FD69
:1010530022C3E0C696F608A3E0C696F608A3E0C648
:1010630096F608A3E0C696F622C0E0E493A36C705C
:1010730009D0E0D0E0D0E0020ED0A3A3D0E0222537
:101083002110AF08F521400C15228008F5214002FC
:101093001522D2AF22E066701008A3E066700A083A
:1010A300A3E066700408A3E06622E76670100809EF
:1010B300E766700A0809E76670040809E76622C351
:1010C300E09608A3E09608A3E09608A3E096A2D2D0
:1010D30065D03322C3E7960809E7960809E796081F
:1010E30009E796A2D265D03322191919E7094709EE
:1010F3007009E727097005E733F4220922C3E09654
:10110300F008A3E096F008A3E096F008A3E096F0B9
:1011130022C3E697F60809E697F60809E697F60864
:1011230009E697F622181818E60846087009E62615
:10113300087005E633F4220822C3E4939608740189
:1011430093960874029396087403939622E026F606
:1011530008A3E036F608A3E036F608A3E036F62245
:10116300E627F60809E637F60809E637F60809E63A
:1011730037F622700422600D18C6C333C608C6337F
:10118300C6D5E0F41822E056F608A3E056F608A305
:10119300E056F608A3E056F622E657F60809E657A6
:1011A300F60809E657F60809E657F622E026F0089E
:1011B300A3E036F008A3E036F008A3E036F022E01F
:1011C30056F008A3E056F008A3E056F008A3E05653
:1011D300F022E647F60809E647F60809E647F60867
:1011E30009E647F622E4C396F608E496F608E49681
:1011F300F608E496F622600D08C6A2E713C618C6E1
:1012030013C6D5E0F322C6F4C608C6F4C608C6F46E
:10121300C608C6F4C622C3E09608A3E09608A3E076
:101223009608A3E09622C3E7960809E7960809E71C
:10123300960809E7962275D00075813F75210175DF
:10124300220500020A7EE6084608C31346083360F7
:1012530002E633F422600C08C6C313C618C613C6CD
:10126300D5E0F422E0F608A3E0F608A3E0F608A32D
:10127300E0F622E6F008A3E6F008A3E6F008A3E60A
:10128300F022E7094709C3134709336002E733F440
:1012930022CAC0E0E6F0A308DAFAD0E0FA22E8F0C6
:1012A300A3E9F0A3EAF0A3EBF022E0FAA3E0FBA3A7
:1012B300E0FCA3E0FD22EAF0A3EBF0A3ECF0A3ED46
:1012C300F022E0F8A3E0F9A3E0FAA3E0FB22E5C7EC
:1012D30054F84401F5C77901222521F582E435222A
:1012E300F58322E72719471947194722C2AF75D655
:1012F3009F02000022E62618461846184622120FBF
:10130300866FCE02120F861BCF02120F864BCF02BF
:10131300120F86ABCF02120F863FD002120F86F058
:10132300D002120F8641D102120F8685D102120F0D
:10133300861FD202120F868FD202120F86BED202EE
:10134300120F86C4D302120F86EED302120F864207
:10135300D402120F8616D502120F8644D702120F3B
:1013630086F2D702120F865FDA02120F86E4DA02E0
:10137300120F86E7DD02120F8614E002120F865861
:10138300E002120F86B1E102120F86C4E102120FCE
:101393008601E202120F86BEE302120F8606D6040E
:1013A300120F863AD604120F868DD604120F86903A
:1013B300D704120F86CDF001120F8649F101120FE7
:1013C300867CF101120F86AAF101120F86E8F10162
:1013D300120F8625F401120F8644F401120F868939
:1013E300F401120F861FF501120F866BF501120F20
:1013F30086FFF501120F86D8F601120F8634F70126
:10140300120F8692F701120F8605F801120F864913
:10141300F801120F86A1F801120F86C3F801120F0B
:101423008653F901120F86E4F901120F8630FA018F
:10143300120F865CFA01120F869DFA01120F863392
:10144300FC01120F861FFD01120F86FAFD01120F18
:10145300862FBB04120F865BBB04120F867BBB0473
:10146300120F86A2BB04120F86E9BC04120F861C5E
:10147300BD04120F86DBBD04120F8675BE04120F66
:10148300861FE704120F8624E704120F8657E7042A
:10149300120F865AFD02120F8621FE02120F8633A7
:1014A300FE02120F86A3FE02120F863DE104120F05
:1014B300864EE104120F86ECE104120F86F7E10475
:1014C300120F8611E204120F86E97F00120F868342
:1014D300E704120F8620E204120F8630E204120F93
:1014E3008645E204120F86F9E204120F8638DF0400
:1014F300120F86BCDF04120F8624E004120F86D479
:10150300FE01120F865BFF01120F8664FF01120FAB
:10151300868BFF01120F86D3FF01120F86EAFF01AC
:10152300120F86237C00120F86317C00120F86AACD
:101533007C00120F86837D00120F86467F00120FF8
:1015430086957F00120F86D37F00120F86F87F00E7
:10155300120F8611D204120F8649D204120F8697F6
:10156300D304120F861BD404120F86F4E404120F63
:10157300860E9C04120F863A9C04120F86A49E04C6
:10158300120F86E49E04120F86209F04120F8634E6
:101593009F04120F864D9F04120F863FA004120F63
:1015A30086F2A004120F8606A104120F86EAD7045E
:1015B300120F860ED804120F8627D804120F8665E1
:1015C300D804120F8695D804120F86C2D804120FBE
:1015D30086CCD804120F8632D904120F8635D9046B
:1015E300120F863FD904120F864CD904120F86D7E7
:1015F300CA04120F86F7CA04120F8636CB04120FE1
:101603008654CB04120F866FCB04120F86D5CB04FE
:10161300120F86E1CB04120F863ECC04120F864DC7
:10162300CC04120F8671CC04120F8632CD04120F34
:10163300863FCD04120F8650CD04120F8674E50445
:10164300120F86BCE504120F86E8E504120F865CD0
:10165300A104120F86B6A204120F86C4A204120FAD
:1016630086D7A204120F86ECA204120F8601A304EC
:10167300120F8614A304120F8690A304120F86F58B
:10168300A304120F867DA404120F86F5A404120F7F
:1016930086CEA504120F86DEA504120F86EDA504DF
:1016A300120F865BE404120F867FE404120F86A7F1
:1016B300E404120F86CFE404120F867ECD04120FCA
:1016C30086A5CD04120F86C3CD04120F8632CE0435
:1016D300120F8604C804120F861DC804120F862930
:1016E300C804120F863DC804120F865BC804120F8C
:1016F3008665C804120F866FC804120F8682C80459
:10170300120F8608C904120F867DC904120F86AC16
:10171300C904120F86FAC904120F8649CA04120FAC
:101723008664CA04120F866ECA04120F867FCA0427
:10173300120F86C2CA04120F8668E604120F86B31C
:10174300E604120F862CF603120F8658F603120FC7
:101753008675F603120F8688F603120F86A3F60327
:10176300120F86FDF603120F862BF703120F863B2B
:10177300FB03120F8699FC03120F86CBFC03120F97
:10178300862EFD03120F869AFE03120F86C2FE03F6
:10179300120F86D7FE03120F86E7FE03120F86276A
:1017A300FF03120F8669FF03120F8679FF03120FDF
:1017B30086ECDB04120F8606DC04120F862EDC0493
:1017C300120F8647DC04120F866BDC04120F868926
:1017D300DC04120F86A0DC04120F86CEDC04120F89
:1017E30086E9DC04120F86FFE204120F8643E3044A
:1017F300120F86A6B704120F86B6B704120F86BB64
:10180300B804120F86EDB804120F861DB904120F27
:101813008640B904120F8657B904120F8691B90492
:10182300120F86F6B904120F8638BA04120F867F98
:10183300BA04120F86ACBA04120F86D7BA04120F79
:101843008656D904120F8668D904120F867CDA04EF
:10185300120F867FDA04120F8632DE04120F8668B7
:10186300DE04120F8680DE04120F86C2DE04120F1E
:1018730086D2DE04120F8616DF04120F8620DF04E1
:10188300120F86179504120F865A9504120F86BFFE
:101893009504120F86DE9504120F86809604120FAC
:1018A30086899604120F86DA9604120F860397042C
:1018B300120F86109704120F86829704120F861058
:1018C3009804120F86559804120F868E9804120FEF
:1018D30086F39804120F861C9904120F86939904B9
:1018E300120F86E29904120F861F9A04120F865470
:1018F3009A04120F86669A04120F86789A04120FBE
:1019030086979A04120F86A09A04120F86619B048D
:10191300120F86A49B04120F86E29B04120F86BF4C
:10192300E604120F86ACDA04120F86D3CF04120F2B
:101933008609D004120F8651D004120F86AAD1044F
:10194300120F8693C603120F86B9C703120F86F5CB
:10195300C703120F86B3C903120F86E1C903120F1F
:10196300864BCC03120F868BCC03120F862DCE032E
:10197300120F86C3CE03120F861DCF03120F86AD3F
:10198300CF03120F86F1CF03120F8633D003120F4A
:101993008698D103120F8618D303120F8659D503E5
:1019A300120F8687D503120F86B3D503120F86BC99
:1019B300D503120F8619D603120F86B2D603120F60
:1019C30086C9D903120F864FDA03120F86B1E304D7
:1019D300120F86C9E304120F86D3E304120F86297C
:1019E300E404120F8698AA04120F86AEAA04120FFB
:1019F300864FAB04120F868EAB04120F86ABAB047B
:101A0300120F86DCAB04120F8629AC04120F865D1D
:101A1300AC04120F8698AC04120F8695AE04120F15
:101A230086FBAE04120F863DE004120F869CE00491
:101A3300120F86DAE004120F861BE104120F861CD4
:101A4300DD04120F86DADD04120F86B9A502120F28
:101A530086C5A502120F8627A602120F8631A6029B
:101A6300120F86BEA602120F86FAA602120F86F680
:101A7300A702120F8654A802120F86F4A802120FAF
:101A83008674A902120F8643AB02120F8685AD023C
:101A9300120F86CCAE02120F8609B102120F8671A5
:101AA300B202120F861DB302120F860CB802120F78
:101AB3008602B902120F869AB902120F86BFB902C3
:101AC300120F8657BA02120F8675BA02120F86ECEE
:101AD300BA02120F860BBB02120F8638BB02120F1B
:101AE30086D0BC02120F86F1BC02120F8697BD028C
:101AF300120F86DEBD02120F8652BE02120F86E05F
:101B0300BE02120F863DBF02120F86B6BF02120F2E
:101B13008638C102120F869CC302120F8625C402A7
:101B2300120F8653C402120F8608AF04120F86AB3E
:101B3300AF04120F86AAB004120F86FFB104120F6E
:101B430086A7BE04120F8666BF04120F86CCBF049D
:101B5300120F867BC004120F8662B103120F8691A7
:101B6300B103120F8609B203120F8618B303120FC3
:101B73008674B303120F86E1B403120F86FDB40318
:101B8300120F864FB503120F8692B503120F86A567
:101B9300B503120F86FDB503120F86BFB603120FEE
:101BA300863BB703120F8672B703120F86AAB703D9
:101BB300120F863CB903120F861BBA03120F8669F4
:101BC300BB03120F864CBC03120F86D8BC03120F43
:101BD3008618BD03120F8637BD03120F8682BD031D
:101BE300120F86A2BD03120F863BBE03120F86C1DE
:101BF300BE03120F861CBF03120F865CBF03120FB6
:101C030086F2C103120F860BC303120F8651C3035F
:101C1300120F8646C403120F866EC403120F867119
:101C2300C403120F867BC403120F8697C403120FDB
:101C33008611C503120F864AC503120F8676C503A4
:101C4300120F869DC503120F86C1C503120F86327C
:101C5300C603120F8645C603120F8674C603120FFE
:101C630086EBE504120F86F7E504120F862BE604D4
:101C7300120F86E67F00120F86339B03120F8656E0
:101C83009B03120F86A39C03120F86EC9C03120F77
:101C930086589D03120F86B69D03120F86B99D03C6
:101CA300120F860A9E03120F867F9E03120F86046D
:101CB3009F03120F86079F03120F86889F03120F3D
:101CC30086C99F03120F86B5A303120F865FA50370
:101CD300120F86AFA503120F8636A903120F86696A
:101CE300AA03120F86E3AB03120F8680AC03120F15
:101CF300866BAD03120F86C0AF03120F86AEDA03F5
:101D0300120F8658DB03120F86C3DB03120F86DE26
:101D1300DB03120F8663DC03120F86BDDC03120F95
:101D23008604DD03120F866BDD03120F86EADE03E2
:101D3300120F8619E003120F86A1E003120F86AA81
:101D4300E203120F865F9104120F86FBE303120F67
:101D530086CCE403120F8687E603120F861FE8037F
:101D6300120F8608CC02120F86D8E903120F8600E1
:101D73008003120F86638003120F86AB8003120F5A
:101D830086EF8003120F864A8103120F86A7810311
:101D9300120F86E28103120F86648203120F86BE3E
:101DA3008203120F863C8403120F86BC8403120F36
:101DB30086178503120F86318503120F865285031A
:101DC300120F8670C702120F86288803120F8647E8
:101DD3008803120F86378903120F866A8A03120F4C
:101DE30086E98A03120F86258B03120F86948B03D1
:101DF300120F86498C03120F86218E03120F862839
:101E03008F03120F86A09003120F86969203120F70
:101E1300860C9503120F86E69603120F86A7970387
:101E2300120F861F9803120F86369803120F862D02
:101E33009903120F86219A03120F86909A03120FA9
:101E43008612C504120F8669C604120F8628C704BA
:101E5300120F8690C704120F86EDC104120F860875
:101E6300C204120F864CC204120F8672C204120FF0
:101E73008699C204120F86B1C204120F8653C3049B
:101E8300120F8668C304120F868BC404120F869444
:101E9300C404120F869DC404120F86A6C404120F35
:101EA30086B0C404120F861EA604120F862AAA0443
:101EB300120F862FAA04120F8631AA04120F8693DB
:101EC300D404120F8665E704120F86C6FF02120FB1
:101ED30086A9FF03120F86B9FF03120F866EB304A0
:101EE300120F86008002120F86338002120F869F24
:101EF3008002120F863A8102120F86D78102120FD7
:101F0300861C8202120F863E8202120F86578202BD
:101F1300120F867D8202120F869F8202120F86DDC8
:101F23008202120F86218302120F86438302120F4D
:101F330086A58302120F866C8402120F8623850204
:101F4300120F86958502120F86608602120F86B3E2
:101F53008602120F86198702120F86538702120F09
:101F630086A58702120F86138802120F867E8802C7
:101F7300120F86818802120F86028902120F869938
:101F83008902120F86198A02120F86388A02120FEB
:101F9300869C8B02120F86A98B02120F86B58C02C8
:101FA300120F86C28C02120F86CB8C02120F86A3ED
:101FB3008E02120F86BD8F02120F86369002120F09
:101FC30086A89002120F86CA9002120F865E9102B3
:101FD300120F86329302120F86099702120F861D83
:101FE3009702120F862D9702120F86379702120F50
:101FF30086409702120F86499702120F8653970263
:10200300120F86809702120F86A99702120F86B4C9
:102013009702120F86D89702120F86FC9702120FAF
:1020230086669802120F86AC9802120F86C9980230
:10203300120F86469902120F867D9902120F86BCF3
:102043009902120F86099A02120F868F9A02120FB3
:10205300865D9C02120F86E09C02120F86C49D02CD
:10206300120F862BA002120F8684A002120F86CEB7
:10207300A002120F8629A202120F865EA202120F7D
:1020830086B0A202120F8665A302120F8614A40261
:10209300120F8651A402120F86E6A402120F865273
:1020A300A502120F86662F00120F86982F00120FBB
:1020B30086C62F00120F869C3100120F867C3200D9
:1020C300120F86D43200120F860F3400120F865B74
:1020D3003400120F86843700120F86773A00120FEE
:1020E30086C73B00120F865D3C00120F86693C00D9
:1020F300120F869B3C00120F861E3E00120F86CFE6
:102103003F00120F86634000120F86A64000120F95
:1021130086244100120F86414100120F867141004F
:10212300120F86A64100120F86764200120F861FF9
:102133004300120F86A54500120F86C54600120FF5
:1021430086B04700120F86324800120F86664C0095
:10215300120F86A34C00120F86FB4C00120F862E23
:102163004D00120F86984D00120F86CE4D00120FB0
:1021730086594E00120F86B14E00120F86884F000B
:10218300120F86415000120F86DC5000120F86E4B6
:102193005300120F86005500120F86A35800120F2A
:1021A30086975900120F869A5900120F86C9590053
:1021B300120F86CF5B00120F86A85C00120F86EB0E
:1021C3005C00120F86415E00120F86805E00120FC4
:1021D30086095F00120F863D5F00120F86026000C2
:1021E300120F861A6200120F868B6200120F86CBC3
:1021F3006200120F86596300120F867B6400120F70
:10220300863D6500120F86446700120F865C6700E7
:10221300120F86706700120F86A86700120F86D60A
:102223006700120F86556900120F867A6A00120F33
:1022330086D76A00120F86896B00120F86B06B0077
:10224300120F86776C00120F860F6D00120F863502
:102253006F00120F866A6F00120F86CD6F00120F88
:1022630086FC7000120F86A47100120F86D57100D0
:10227300120F86ED7100120F867C7200120F8630EA
:102283007500120F86087700120F86247700120F4D
:1022930086407700120F860E7800120F86017C00AD
:1022A300120F86EB8601120F861D8701120F860C13
:1022B3008B01120F86588B01120F869E8B01120F12
:1022C30086408C01120F869C8C01120F86E18C01D3
:1022D300120F86288E01120F863C8F01120F862B58
:1022E3009301120F86AF9301120F86BC9401120F54
:1022F30086189501120F86089701120F867D9701A4
:10230300120F86879701120F86949701120F86BFCB
:102313009701120F86A69801120F86509901120F8A
:1023230086CE9901120F86EE9901120F86179A0134
:10233300120F86399A01120F86999C01120F865F3C
:102343009D01120F86A49D01120F86219E01120F7B
:1023530086D29E01120F86049F01120F864A9F01A7
:10236300120F86869F01120F86D69F01120F862AAF
:10237300A001120F8680A001120F86CCA001120FBC
:102383008639A101120F86B4A101120F867FA30122
:10239300120F867FA401120F86A4A501120F86E3F4
:1023A300A801120F86F6AB01120F86B3AC01120F10
:1023B30086F7AC01120F86A7AE01120F86BBAE01E2
:1023C300120F86C5AE01120F86CFAE01120F86DB48
:1023D300AE01120F86F7AE01120F86A2AF01120FE4
:1023E30086E1AF01120F86EBAF01120F86F5AF0145
:1023F300120F8665B001120F86B0B001120F86C5A9
:10240300B101120F8621B201120F86A2B201120F7F
:102413008661B301120F866AB401120F869EB5015D
:10242300120F868CB601120F86A4B601120F86FF17
:10243300B601120F861DB701120F8665B701120F81
:10244300868CB701120F8627B801120F86EDB801EB
:10245300120F867FB901120F86F9B901120F861385
:10246300BB01120F86C0BB01120F86E8BC01120F1D
:102473008638BD01120F869CBD01120F86FEBD0179
:10248300120F862CBE01120F8650BE01120F8685D5
:10249300BE01120F86B6BE01120F86E9BE01120FEE
:1024A3008609BF01120F8671BF01120F8665C00135
:1024B300120F86C0C001120F86E9C001120F867188
:1024C300C101120F86F4C101120F861FC201120F40
:1024D3008604C301120F8617EB03120F864FEB031B
:1024E300120F8670EB03120F86B2EB03120F8614E2
:1024F300EC03120F861EEC03120F862EEC03120F51
:102503008669EC03120F8649F003120F8636F20335
:10251300120F861CF403120F86B3F403120F8655B1
:10252300F503120F8606C501120F8684C501120F2B
:1025330086E0C501120F862BC601120F8646C6011F
:10254300120F8671C601120F868EC601120F869A6C
:10255300C601120F8631C801120F864AC801120F35
:1025630086CFC801120F86E2C801120F8601C90186
:10257300120F86A5C901120F8626CB01120F86D929
:10258300CC01120F866FCD01120F8672CD01120F8F
:1025930086E2CD01120F8600CE01120F8697CE017F
:1025A300120F86DFCE01120F86E2CE01120F86A82C
:1025B300CF01120F8615D001120F863BD001120FE7
:1025C30086C6D001120F86E4D001120F862AD101EC
:1025D300120F86DED101120F8628D201120F865701
:1025E300D201120F86B4D201120F86E9D201120F63
:1025F3008615D301120F8623D301120F8670D301E0
:10260300120F86E0D301120F8629D401120F8675AB
:10261300D401120F86A1D401120F86ACD401120F7C
:1026230086CAD401120F86B5D501120F86BFD50114
:10263300120F86FAD501120F860AD601120F8613DE
:10264300D601120F8667D601120F867BD601120FB1
:1026530086AAD701120F86C1D701120F86D6D701DA
:10266300120F8664D801120F86A9D801120F86357E
:10267300D901120F8640D901120F8682DA01120F97
:10268300869DDA01120F86E9DA01120F8658DB0103
:10269300120F8691DB01120F86ABDB01120F86ED61
:1026A300DB01120F86BDDE01120F866ADF01120FF6
:1026B30086D7DF01120F8617E201120F862FE20180
:1026C300120F8632E201120F863EE201120F86528A
:1026D300E201120F865AE201120F868DE201120FF8
:1026E300868FE301120F8616E401120F8686E4013A
:1026F300120F8608E501120F86C9E501120F86E85D
:10270300E501120F8689E601120F86E6E601120F34
:1027130086E9E601120F8616E701120F862BE70101
:10272300120F869FE701120F86EEE801120F86F45F
:10273300E901120F867FEA01120F869AEB01120F4D
:102743008662EC01120F8693EC01120F86B6EC0140
:10275300120F86BFEC01120F86EEEC01120F867E7C
:10276300ED01120F8634EE01120F86A9EE01120F4E
:102773008650EF01120F86C5EF01120F86FCEF01A1
:10278300120F863AF001120F8670F001120F86BF06
:10279300C802120F86F89004120F86E49004120FF9
:1027A30086419004120F86418F04120F865A8E04BD
:1027B300120F864A8C04120F86588B04120F86F66A
:1027C3008A04120F8646FD02120F863CFD02120F89
:1027D30086D1FC02120F86B2E803120F8613C802D9
:1027E300120F8602FB02120F86C0FA02120F862A0C
:1027F300C702120F86F5C602120F86C4F902120F22
:102803008698F902120F864FF902120F8690F8028A
:10281300120F867CF502120F863DF302120F860A11
:10282300F302120F86B1F202120F8644F202120F64
:102833008603F202120F863CF102120F86D6F002D3
:10284300120F8675F002120F8615F002120F86EC36
:10285300EE02120F8680EE02120F86D8ED02120FDF
:1028630086D3ED02120F86C7ED02120F86FAE90234
:10287300120F86D4E902120F86C2C602120F86AD6A
:10288300C602120F8682C602120F86D19404120F5B
:10289300869D9404120F86469404120F86B4920404
:1028A300120F8672E902120F8613E902120F86D401
:1028B300E802120F86C1E802120F86069204120F75
:1028C30086B6E802120F8685E802120F8672E602C8
:1028D300120F86E5E502120F86AC8503120F86A15F
:1028E300E502120F86699104120F8675E502120F35
:1028F30086868A04120F86598A04120F86268A0452
:10290300120F86FE8904120F869F8904120F867F99
:102913008904120F864A8904120F86F68504120F62
:1029230086DE8304120F86C88104120F8648810451
:10293300120F86F48004120F86A88004120F8600FB
:102943008004120F8657E30300000080FB0000227F
:102953008F000100B01787000100AE173500040097
:102963007717250002007B17260002007D1727003A
:1029730002007F17280001008917290001008A1728
:102983008400040019158600010037172A0001008E
:102993008B172B0001008C172C00010090172D00C2
:1029A300080025152E00010091172F000100921732
:1029B3003000010093173100010094173200010029
:1029C3002D15330001002E15340001009517360034
:1029D30001002F15380001009617390001008F17E9
:1029E30083000200AC17630001003B156400010083
:1029F3008D17650001008E176D0001003C157100F5
:102A030008001D1566000100AB17430001009C1769
:102A1300440002009D17450001009F174600020075
:102A2300A01747000800331548000100A2174B0008
:102A33000100A31704000100AF17A1000100B317A1
:102A430037000100B21788000100B1173C000100F4
:102A530030153D000100971749000200A4176700D5
:102A630001003D154D000200A6174E000100A817F6
:102A73004F000200A9173E0001009B1751000100FF
:102A83003115520001009917530001009A175400A1
:102A9300010032150000000000000001363601017C
:102AA3000001020100010301000104010606050201
:102AB3000000070100340801000F090401010D01A2
:102AC30000FF0E08000017020000190100FF1A01A1
:102AD30000011B0100FE1C0100081D0200001F0174
:102AE300000120010001210200002301000F240244
:102AF30000002601000127010008280200FF2A0127
:102B030000072B0102402C0100002D0100012E01C2
:102B130000012F0100FF30010B1D310800003A01B5
:102B230000083B01000F3C0100013D0100FF3E0492
:102B3300000042040000460400004A0400004E0462
:102B4300000052040000560400005A040000000074
:102B530000002001E586000001002001E786000057
:102B630002002001E986000003002001E686000040
:102B7300040042019B85000005004201CE85000050
:102B8300060042017C85000007003001EA86000050
:102B9300004042017C850000FDFF2101E386010026
:102BA300200020053F1701002100200540170100E8
:102BB3000002210541170204000029050914080435
:102BC300000021050B140804000221050F1408045A
:102BD30001022105411701037103010301030103ED
:102BE3000103010322030203010310030003000393
:102BF3000003000300030003000342030003240354
:102C03000603000300030403120325032303250320
:102C1300230304030403000300030003440300032A
:102C2300000323030003650321003503810300032D
:102C3300050300030003000300032503230303022A
:102C430071023001600211027002010202020202EB
:102C53008002100261023A004100630273027202B1
:102C6300620243020002130238000002000204025F
:102C730012020002000200020002040204023700F2
:102C830037003C02440200023900000200026502E0
:102C93000002350281020002050282028302000261
:102CA3000101710101010101110101013101010161
:102CB30001018001100161013B00140063017301F4
:102CC3007201620143010001130106013D01350058
:102CD30004011201000100010001000104010401CB
:102CE300330133013C01440132013600000100018C
:102CF30065010001350081010001050182018301A5
:102D03000001030071003001600011007000310206
:102D130020035004800010006100000014006300D1
:102D230073007200620043000000130006000000FD
:102D33000000040012000000000000000000040076
:102D43000400370037003C0244000000000000008C
:102D53000000650000003500810000000500000050
:102D63008300000036000100060000000F00000091
:102D73000000000000000000000003FFFF0000044B
:102D830003FFFF0000FFFF0FF4010005C40403204D
:102D9300000100000B000000000000000003010F11
:102DA3000000000000000000000000000000000020
:102DB3000000000000000000000000000000000010
:102DC3000000051B231B0B1B691A000000000000F9
:102DD30000000000000000000000111B691A000041
:102DE3000000171B691A00000000000000001D1BF3
:102DF300691A00000000000000000000000000004D
:102E030000000000000000000000000000000000BF
:102E130000000000000000000000000000000000AF
:102E2300271D0100271D02009D1C0280971C030023
:102E3300A31C0400A91C0480AF1C0500B51C0600DC
:102E4300C11C3100D31C3300D91C3400DF1CFFFF2D
:102E53000000030003000400080010001F003E00F0
:102E63007B00F600EC01D703AF075D0FB91E713D80
:102E7300000007ECFDFDFDECDCDCCCBCACAC9C9CA9
:102E83008C7C7C6C6C5C5C5C4C4C3C3C2C2C1C1C2F
:102E930003EAF5E5D5D5C5B5A5959585857575651C
:102EA3006555554545353525251515050A1B230259
:102EB300E52205F12207EB220CCD220DD922FF00DA
:102EC3000000160F00000B150B020002220F330047
:102ED300000E0F5A6967426565416C6C69616E63E8
:102EE300653039D0D1D2D3D4D5D6D7D8D9DADBDC33
:102EF300DDDEDF303016181920231A1C1E300003C4
:102F03004D4C4651181A25050200011916181616BC
:102F130018230300303017181921301B1D1F3000F0
:102F23003C40423A3F3F392F47300C0E020B040B13
:102F33000A0708000F020402010101010902E80364
:102F4300000000BE040A010024000300E803FF049C
:102F5300091103100F030A0C041E0828020C0508AC
:102F6300151E05C082C0831213B590156674BDF09B
:102F7300A37420F090156874C3F0A37420F0901527
:102F83006A74C9F0A37420F090156C74CFF0A37425
:102F930020F0025CA174F7120A1290155AE4F0E9CA
:102FA300901559F07C337D157A5B7B15121A399095
:102FB30017A2E0901563F0901564741DF0A37415C7
:102FC300023F2E74F0120A12EAFEEBFF54807003E4
:102FD300023137901559123FC37003023130EA248E
:102FE3001B12582E707CEA241F12582E6413700291
:102FF300A3E0706E8A828B83123185901574124D13
:10300300C0750A00750B00800D123E04126EA012EB
:10301300193DAA0EAB0FEA4B60488A828B83E065A9
:103023000C7004A3E0650D702C8A828B83A3A3A389
:10303300A3E0F50EA3E0F50FE50A450B8A828B8327
:10304300A3A3A3A360C3124106850A82850B83A3AE
:10305300A3A3A380B78A0A8B0B8A828B83124DBCEE
:1030630080B4E508242A12582EFCE5082402F8E46B
:103073003509F9E8FAE9FB90157412326CA3A3E061
:103083006402703C8A828B83124DC0800B888289D4
:1030930083A3A3A3A3124106E849601F88828983FF
:1030A300E06A7003A3E06B70E488828983A3A3E0E2
:1030B3006C70DA9017A8125B5E806BECF91220F942
:1030C300850882850983E06401704FE5082418129E
:1030D300316E120FC4126448120DFFE50824121258
:1030E300316E120FC4E508123FB7120FC0E5082472
:1030F3000B12644C120E03E5082417123F54E50823
:103103002402FCE43509FDE5082419FAE43509FB3A
:10311300122927740A120FEE800CE064027007AACA
:1031230008AB091221D7AA08AB091218A7EEFAEFC8
:103133006480802DEA5402600C9017BB7401F0EA9E
:103143006402FA8023EA5408601A1220F3EA4B70EF
:103153000B9015761263237A0812317BEE6408FA1A
:10316300EFFB80047A007B00026AD2F582E4350922
:10317300F583E0F50A780A22FB901559E0F9121A53
:103183000922A3A3E0F50CA3E0F50D227B00901523
:1031930059E0F91219FD74042274F4120A128A0810
:1031A3008B098A828B83A3A3A3124BB8123F5F3888
:1031B300F583E02409FA126A6A700302325F8A8295
:1031C3008B837402124C2D85088285098312326C1D
:1031D300E8F0A3E91266E48A828B83A3A3A3A3A3E3
:1031E300A3A3A3F0E5082403F8E43509123261121E
:1031F3003F5F3AF583E08E828B83A3A3A3A3F0EE14
:103203002409FAE43FFB8E828F83A3A3125E10F599
:10321300838882E0A2E58E828F83A3A3A3A3A35016
:103223000474018001E4F0E5082403F58289831224
:103233004DC0EA1253413BF583126A31120FBC129F
:103243003F5E3B125F028E828F83A3A3127BE01249
:103253000FEEEEFAEFFB901559126AB78016F98854
:1032630082F583E0FAA3E0CA22124F5DA3A322747E
:1032730002120FEE7F04020D3474F2120A128A084E
:103283008B09ECFAEDFB740E1212DCE0FC1213EB6B
:103293008A0C8B0DAE0CAF0DEA4F6030AC08AD0954
:1032A3001213D9E96026AC08AD09EEFAEFFB12134D
:1032B300DFE970148E828F831240F3FAEFFB12134F
:1032C300D3AA08AB091214037900800279B4024E21
:1032D300AC74F0120A1274F6121082EAFEEBFF8C41
:1032E300088D09750FB3852182852283E4F0750E5D
:1032F300008002050E902F65E493F8E50EC3984015
:10330300030233FBAA0E7B001214278A0A8B0BEAF3
:103313004B60E08A828B83A3A312340228F0F8C3A4
:10332300EE98EF940050CC7C157D007900AA08AB91
:103333000912188F850A82850B83A3A3A3A3126E98
:10334300DDE0F8EEC3982925E0F8E433F9E50A282F
:10335300F582E50B39F583A3A3A3A3A3A3123F69C6
:10336300A31259858A0C8B0DAC0CAD0DAA08AB09C1
:10337300121A39850A82850B83A3E06401700A124D
:1033830064487401123F7B8044740112104C850A17
:1033930082850B83124DBE12140FE9603D7409122E
:1033A30012DCE0C0E0126448D0E0F074091212DCD1
:1033B300E064037013740112104CE508240BFAE463
:1033C3003509FB121A39801274011212DC124106FC
:1033D300E50812596B3509126E9E850A82850B83A7
:1033E300126454123F7BA3A3E0C0E0E50824141247
:1033F300644CD0E0F0750F00A90F740A026ACFA3E2
:10340300A3A3E0F8852182852283E02274F7120AC0
:1034130012E9FE8A828B83A3A3A3A3A3A3E0540888
:1034230060338A828B83A3A3A3A3A3A3E054026084
:10343300218A828B83A3A3A3A3A3A3A3A3A3E0644F
:1034430006600F74E96E600A74CD6E600574F06EE9
:1034530070031220DB0247AB74F0120A1274EF12EE
:103463001082740F1212DC12620774081212DCE964
:10347300F0ECFEEDFF74051212DC12457312479750
:10348300A3E0F91213F774061212DC126207740632
:103493001212DC1253D27003023716123FA3E0FA62
:1034A30074061212DCE0F912201B123776F8A3E03F
:1034B300F9E8497003023716EE2403F50AE43FF5F1
:1034C3000BEE2406F508E43FF5097C00850882F538
:1034D30083124DC0850A82850B83E0F91213FD74B4
:1034E300031212DC126207850A82850B83E0C0E0B7
:1034F30085218285228312376FD0E01254E7F98544
:103503002182852283123E0B125039123405FAA30D
:10351300E0CA2407F582E43AF583E8F0A3E41262F3
:10352300122406F582E438F583E4126EAA124BAC3A
:10353300120FBCEE123F5F3F125F0274031212DCE4
:10354300124BB82409127BDA120FEE74291212DC23
:10355300126ED71232661254FA3A126E9E742B12FE
:1035630012DCE0C0E0852182852283125399D0E0EA
:10357300F074021212DCE4F074251212DC780812E3
:10358300126702366D74031212DC125ECA8882F56A
:103593008312375EA3A3A3125990FB121415850E51
:1035A30082850F83A3EAF0A3EBF074031212DC12FB
:1035B300376FA312375E125B9FA2E6500F850E8210
:1035C300850F83A3A3A3A3A3E0D2E1F07405121292
:1035D300DCE0706B850E82850F83A3124106901584
:1035E300B4E0687003A3E0697055850E82850F838C
:1035F300A3A3A3123F3E750C00780C120FC47808E6
:10360300120FB874291212DCE0F50C780C120FC4F7
:1036130074271212DC120E039015C1120E037900E7
:1036230074191212DC124D9012221F740A120FEE3B
:10363300850E82850F83A3A3A3A3A3E04405F0749F
:10364300021212DCE004FC8E828F83124DBA8E824A
:103653008F83A3A3A3E0F91213FD74031212DC12E8
:10366300620774021212DCE004F074031212DC121B
:1036730053D2606774021212DCE0FA74061212DC91
:10368300124106C3EA98E499505174021212DC12F3
:103693003A48852182852283E028F8A3E039F9E8B6
:1036A300240FF50EE439F50F850E82F583E4F074EB
:1036B300031212DC12376964016003023588740552
:1036C3001212DC7401126ABDF074031212DC125C74
:1036D30091123A6BE8F0A3E90235AC852182852289
:1036E30083124DC0122021852182852283120E036D
:1036F30074261212DCE0FD74251212DCE0FC740A5D
:103703001212DCE0F9EEFAEFFB1220D57402120F6D
:10371300EE80438E828F83A3A3A3E0C0E0740C12D8
:1037230012DCD0E0F0126926E0C0E0740D1212DC66
:10373300D0E0F074061212DC1253D27009740E1228
:1037430012DC74B98007740E1212DC7410F0740961
:103753001210441222197411026ACFE0850E828579
:103763000F83A3A3A322E01254BFE022E01254BFAD
:10377300A3A322852182852283EAF0A3EB1253DBE4
:103783002274F0120A1274E112108274041212DC11
:10379300E9F074031212DCECF074021212DCEDF0A7
:1037A3008A0E8B0F742F1212DC123187AA0CFB12B4
:1037B300200F74011212DCE9F0AA0CAB0D122015D4
:1037C30074011212DCE07003023A438521828522E0
:1037D30083E480158E828F83A3A3A3A3A3E0D2E304
:1037E300F0852182852283E004126A15F8852182FF
:1037F300852283E0C3984003023A3A74011212DC33
:10380300E07003023A3A852182852283123A48E521
:103813000C28F8E50D39F9E8240FFEE439FF8E8210
:10382300F583A3A3A3A3A3E0A2E040B575080075A5
:103833000A08750B0074021212DCE060037508209D
:103843007C087D007900740512104412188F8E8253
:103853008F83E0603E901604E06401701AE508D29D
:10386300E3F508750B10123A581212DCE8F0A3E9DD
:1038730012588374FF807643080C750A0C8E828F6E
:1038830083A3123A63126EA074051212DC74FFF064
:10389300A3805A74041212DCE06009E508D2E6F54D
:1038A30008750A0A8E828F83A3E064FE7003A3E087
:1038B300F4703074121212DC7404126472F8741D02
:1038C3001212DCE8124C2D7412121044121F3D7DAB
:1038D300007C00790074151212DCAA82AB83121DDE
:1038E3000F800B123A581212DCE8F0A3E9F07407C8
:1038F3001212DCE508F0123F9AC0E074091212DCE0
:10390300D0E0F0740A1212DC7401F0740512104452
:103913001221DD74111212DCE06003023A18740DF7
:103923001212DC1254E28E828F83A3A3A3A3F0743A
:103933000D1212DC124BFBE50AF0A3E50BF0740346
:103943001212DCE0C0E0124B8CD0E0125B9F6011DE
:10395300901604E0C0E0740D1212DC124BD6D0E0D6
:10396300F0740D1212DC124106850C82850D83A3BF
:10397300A3A3A3A3123A51241C126201126EBA121A
:103983003A53125B5139126945C0E0124B73D0E0D0
:10399300126A0AC0E0740D1212DC1246B9D0E012AA
:1039A300670BC0E0740D1212DC1246AFD0E0F07466
:1039B3000D1212DC123A63123A51242A1262018563
:1039C3000E82850F83A3A3A3A3A3A3A3A3E01261E2
:1039D300FA123F89C0E012469BD0E0F0740D121238
:1039E300DC124DC0850E82850F83126A202428F5D0
:1039F30082E43B126E9E123F92126A31120FBC1286
:103A03005EFBEA1261933B127BDE120FEE7405122A
:103A130010441221E38E828F83A3A3A3A3A3E0D236
:103A2300E0F074111212DCE060030237D774011264
:103A330012DCE0140237E37900AA0CAB0D1220E18B
:103A4300741F026ACFE075F007A4F8A9F022A3A3BC
:103A5300124DC4E8228E828F83A312410A74052279
:103A6300E0123A6BA3A3A322F8A3E0F9850E8285A3
:103A73000F83A32274F0120A1274E8121082E985EC
:103A83002182852283F08A0E8B0F8A828B83A3A3E4
:103A9300A3A3A3A3A3A3E0F91220398A088B09EAFD
:103AA3004B7003023B54E50E125355123FB2123FC3
:103AB30049852182852283E06003023B577C04858C
:103AC3000E82850F83A3A3A3A3A3A3A3A3E0F91249
:103AD300203FEE4F607B8E828F83A3A3A3A312416B
:103AE3000674071212DC12633812410674091212AB
:103AF300DC124C5DC0E074111212DCD0E01266E9F6
:103B0300A3A3A3A3A3A3A3124106740F1212DC124F
:103B13006EA074121212DCE4126AC5C8241FF58267
:103B2300E438F583125EC6C413135403FC70027C9D
:103B3300048E828F83E0F97808120FC0742059FD38
:103B4300744059F974031210441220D57402120FF1
:103B5300EE026ACD7C08850E82850F83A3A3A3A3FF
:103B6300A3A3A3A3E0F912203F8B0BEA4B7003023C
:103B73003AD5EE4F60DB852182852283E0F50C7810
:103B83000C120FC4850882850983A3A3A3A3A3A34F
:103B9300A3E0F50C780C120FC48A828B83A3A3A332
:103BA300E0FB8A82850B831276FD8A82850B83E094
:103BB300FA8E828F83A3A3E0F912292D7402120FC8
:103BC300EE023AD974F7120A1274FA121082E9FE5D
:103BD300780179017F00800379000F124F3CE0FCEC
:103BE300EFC39C5026EF75F007A4FC85F008AD08E1
:103BF300EA2CFCEB3DFD12452BE0A2E050DA540C1D
:103C030060D6E0A2E250D3780080CF8A828B83A370
:103C1300A3A3A3A3A3E0703DE9A2E0400574016E52
:103C230070338A828B83A3A3A3A3A3A37401123F3C
:103C33001BE0C0E074031212DCD0E012458AE0C03E
:103C4300E074041212DCD0E0F074051212DCE81206
:103C53005E6512221974060247A8C082C0837901E7
:103C63001220E1025CA174F4120A12EA4B9017BB12
:103C73006019E4F08A088B09F50AF50B7808120F2E
:103C8300B87A0212318F120FEE800A7401F07A02B1
:103C93007B0012317C02327774F0120A1274F31231
:103CA300108274031212DCE4F0A3F0901574123F37
:103CB3004974011212DCE4F0A3124C3204F09015A3
:103CC300AEE0A2E35003023D8E123F0F74091212BD
:103CD300DC1212A174091212DC7808121267901513
:103CE30076780812105474051212DC7808121276D2
:103CF300123E1274051212DC780812121950077A58
:103D0300017B00023DFF74051212DC780C1212676E
:103D13009017A7E0F509780C79081209A3A80CA954
:103D23000D9017A8E0C398E4995003E08001E8855B
:103D33002182852283F074091212DC78081212673B
:103D4300C008C009C00AC00B74051212DC780C123B
:103D53001267123E12780C79081209A3E4F50AF5EA
:103D63000BD00FD00ED00DD00C780C790812111493
:103D7300901576780C1212768011123E04126EA002
:103D8300EEFAEFFB12193DAE08AF09EE4F60658EF8
:103D9300828F83123402C398502DEE2403F8E43F3C
:103DA300F9E0FA88828983E0C39AF06023740312EE
:103DB30012DC12426C74011212DCEEF0A3EF1263F8
:103DC30053FEA3E0FF80C48E828F83A3A3A3E4F0FA
:103DD3008E828F83127B9774011212DC1253D28E60
:103DE300828F83A3A3A3A3609112632C1212DC120C
:103DF3003E0B808974031212DC124DC0740D026AEB
:103E0300CF12410A90157422125EF1A3A3A322904C
:103E130017A6127B9FE4F50AF50B2274F0120A121F
:103E23008A088B09890A78007900901574123F4932
:103E3300FBEE4B601E088E828F83A3A3A3A3124DB8
:103E43008A601008E87001098E828F83123F45EA69
:103E53004F70E39017A9124DC0C3E89AE99B400342
:103E6300023F027A06123F05A80CA90DEA49700326
:103E7300023F028A828B83E508F0A3E509123F24FF
:103E8300E50AF09017A8124F44123F1BA3E4F0A3D6
:103E9300F0901574124D8A600D8E828F83A3A3A3B5
:103EA300A3126EA08017901574126EA09015AEE049
:103EB300A2E34009123F0F9015761212A19015AE9E
:103EC300E0A2E3503A7A087B00901559E0F9121A00
:103ED3000FEA4B4C4D70289017A6E0F508A3E08538
:103EE300080CF50DE4F50EF50F780C120FB87A08EF
:103EF3007B00901559E0F9121A037404120FEE02B5
:103F03006AD27B001219378A0C8B0D22121A21EA0E
:103F1300F8EBF9ECFAEDFB22123F1F22123F24A328
:103F230022F08A828B83A3A322E508F00247ABF039
:103F33008E828F83A3A3A3A3A3A32212583CA3A37C
:103F4300F022A3A3A3A3E0FEA3E0FF227F05020DBB
:103F530034F582E43509F583E0F922EA123F63225E
:103F63002410F582E422123F71A3A3A3A3221241DA
:103F73000E85088285098322123F7F22F0850A82FB
:103F8300850B83A3A322E50E2411123FAFE022E5A4
:103F93000E240E123FAF22E50E2410123FAFE02293
:103FA300123FA722EE123F633FF58322F582E435E9
:103FB3000FF58322240FF50AE43509F50B780A225D
:103FC300E0F91218B98A088B09EA4B2274F2120A33
:103FD30012890B8A088B098A828B83124DC01221A6
:103FE30005EA4B600479B8806A122111E9F8902F31
:103FF30056E493F9E8C399400479B280567A1512CE
:104003003F05AE0CAF0DEA4F7004791080458A82EC
:104013008B83E4F0A3123F24E50BF0750A007808C4
:10402300120FBC7C127D00EA24031269DC120FEE2E
:1040330090157A1253D2700890157A800C124106AB
:104043008882898312405970F4EEF0A3EFF01221B5
:10405300237900024EAC124DC4EA4B888289832235
:10406300C082C08390157A80048C828D831276FE81
:10407300EC4D60288C828D83A3A3E069600574FFF7
:104083006970E68C828D83A3A3A3E06A7003A3E027
:104093006B70D6EC2403FAE43DFB80047A007B00CA
:1040A300025CA174F7120A12E9FD74FE6D70047CC0
:1040B3000180027C0090157A80096D70027C018872
:1040C3008289831253D2601F88828983A3A3A3E0CA
:1040D3006A7003A3E06B70E7ECA2E088828983A394
:1040E300A3E050D6F9800279FE0247ABEEF9800CCB
:1040F300A3A3127B9FEE227402120FEE7F02020D26
:1041030034F58312410A2212410E22E0F8A3E0F9AA
:104113002212410E8E828F8322120FEE7F03020D35
:1041230034C082C083790090157A800109E0FAA334
:10413300E08A82F583E582458370F1025CA174F61F
:10414300120A12E4F508F5097808120FC0902F56E9
:10415300E49375F013A4A9F0124261126EFE120FDC
:10416300EEE9FE74096E700312211D0240EF74F62E
:10417300120A1274FE121082852182852283E4F0D2
:10418300A3F0A821A922880889097808120FC0750D
:1041930008027509007808120FC0126B6F120FEE38
:1041A3000240FA74F5120A1274EB1210828521820E
:1041B300852283E4F0A3F090157A80748E828F8336
:1041C300A3A3E0C0E074021212DCD0E0125883A96A
:1041D30082AA8389088A09750A007808120FBC7CB1
:1041E300127D0074061212DC126EC3120FEE7402FB
:1041F30012103C880889097808120FC075081375D6
:1042030009007808120FC074041212DC125375757A
:10421300F013A4F8AAF075F013E912425D126B775C
:10422300120FEE85218285228312426C8E828F8348
:10423300123F49EE4F7085A821A922880889097881
:1042430008120FC07508027509007808120FC01212
:104253006B6F120FEE741502411CA42AF9E82402B5
:10426300FCE439FD7A427B0022E02401F0A3E03430
:1042730000F02274F4120A1274EB1210827E007F93
:1042830000A821A922880889097808120FC0750897
:10429300028E097808120FC07C007D007A42126FEB
:1042A3000A120FEEE9706C8E088056740212103CED
:1042B300880A890B780A120FC0750A13750B0078E8
:1042C3000A120FC0E50875F013A4F8AAF075F013ED
:1042D300E50912425D126F0C120FEEE9701B7403B5
:1042E3001212DCAA82AB8374021212DCE0F91220F0
:1042F300FFE970050EEE70010F0508E50870020571
:1043030009852182852283124106C3E50898E509C0
:10431300994098EEFAEFFB741502327474F6120AA0
:10432300128C828D83A3A3124578F0EA1261993B24
:10433300F583E0C0E0124535D0E0F0EA241DF582B4
:10434300E43B124104124519124573F0A3F0EA2429
:104353001FF582E43BF583123F49EC12450C3DF512
:1043630083EEF0A3EFF01245123BF583124543A30E
:10437300A3A3A3A3A3EEF0A3EF125DF4FE8C828D9F
:104383008312458274035EFEC3940340030244FF19
:10439300EE600874026E60030244248C828D83E015
:1043A300540CFE740C6E7003024463E0A2E4400DEF
:1043B30088828983E08C828D83A312459874086E6A
:1043C30060030244631245237401F08A828B83A342
:1043D300A3A3A3A312584970148C828D83E0440CC9
:1043E30012458AA3A3124543EEF0A3EFF08C828D0E
:1043F30083E0A2E4402B88821245511245665001A6
:1044030009F582124551A3A3A3A3A3A3F0A3EF121B
:1044130045928C828D83A3A3A3F0E82403F8500173
:104423000988828983E0C0E0EC2411F582E43DF53C
:1044330083D0E01245828C828D83E0A2E750758899
:10444300828983E0FE8C828D8312459874FC5E70B2
:104453000C8C828D83A3E054036403701E0244FF1B
:10446300124523E4F0740C6E60030243CE8882127B
:1044730045571245665001090243F08C828D83A390
:10448300E05403603288828983E0C0E0EC12453D4A
:104493003DF583D0E01245998C828D83E05403640B
:1044A30002701488828983E0C0E012452BD0E012A9
:1044B30045998003A3E4F0EC1253413D126E9EEC48
:1044C3002410FEE43DFFEA241DF582E43BF583E07E
:1044D300F5088E828F83E0C3982508F508F0EA2457
:1044E30017F8E43BF98882F583E0C39508C0E0122E
:1044F3004519D0E0125DF4C39508500A124519E43A
:10450300F0124535E4F00240FF2415F582E422EA77
:10451300240DF582E422EC240DF582E43DF583229B
:10452300EC1254FA3DF58322EC2414F582E43DF5B4
:104533008322EC123F633DF583222413F582E422A8
:10454300E0FEA3E0FF8C828D83A3A3A3A3221245E5
:1045530057A3A3228983E0F508A3E0FFE5088C8233
:104563008D8322A3A3A3A3F0A3EFF0E82402F822F0
:10457300124578A322E4F08C828D83A3A3A3221295
:1045830045A0A882A98322123F1FA3A3A3A322129B
:1045930045A0A3E022A31245A008A98322125DFD32
:1045A300A32274F4120A1274F31210828A0A8B0B78
:1045B300ECFEEDFF8C82F583E0540CF508E0A2E7F6
:1045C3005006E508D2E7F508E508D2E1F5081258E8
:1045D300497006E508D2E4F508E0A2E55006E508CF
:1045E300D2E5F5087C087D007900AA21AB221218D8
:1045F3008F74021212DCE508126EA4C0E074031279
:1046030012DCD0E0124C32E50AF0A3E50BF074059E
:104613001212DC1267101212DCE0707774081212A7
:10462300DC124BB8125DE63812672BC0E074081237
:1046330012DC1246B9D0E012670BC0E07408121204
:10464300DC1246AFD0E0F074081212DC1246A5E08B
:10465300124BE0124C611261FAEE2411125815C08C
:10466300E012469BD0E0F0EE2414125815C0E0741B
:10467300081212DC124BB82435F582E438F583D0E6
:10468300E0124C05C0E074081212DC124BBCD0E0FF
:10469300126464740D023274E82432F582E439F54D
:1046A3008322124114A3A3A3A3A3A322124BCC12CC
:1046B300690A38F58322124BCC2426F582E438F5B7
:1046C300832274F7120A127E008A828B83A3A3A328
:1046D300A3A3A3A3A3A3E064046003024787125424
:1046E300F2E060030247871253543B1253D0700326
:1046F30002478788828983E054036003024787E87F
:104703001254FA39F583E0FA8C828D83A3A3E0FB7C
:10471300A3E0CB2411F582E43BF583E06A7065885E
:10472300828983A3A3A3A3A3A3A3A3A312478BE079
:104733006A7003A3E06B704C88828983A3A312473A
:1047430097E0FFA3E0CF24061258156A7003A3E095
:104753006B703188828983A3A3E0F88C828D83A355
:10476300A3E0F9A3E0F5838982A3A3E06860138C37
:10477300828D83A3A3A3E0F5838982E0540C6404B0
:1047830070027E01EEF9802012478F22124DC88CF1
:10479300828D8322A3A312478FA3A322740C121228
:1047A300DCE0F9740D120FEE7F01020D3474F61282
:1047B3000A1274FC121082EAFEEBFFECFAEDFB8C9A
:1047C30082F583A3E0540360169015701253D260F0
:1047D300597900EEFCEFFD125FF1120BFA804B8565
:1047E3002182852283EEF0A3EFF074021212DC1211
:1047F3004C27AC21AD227A3B7B211223638A088BA1
:1048030009A808A909EA4960218A828B83A3A3A383
:10481300A3A3A3A3A3A37406F07A0088828B8312B5
:104823004BB81261BAE0F91222C174040240FC745D
:10483300F2120A1274F3121082EAFEEBFF8A82F577
:1048430083A3A3A3A3A3A3A3A3A3A3E0F50A9017FE
:10485300BBE0700579BA024B7075080175090075E4
:104863000C00750D007C087D007900AA21AB221293
:10487300188F74051212DC7401124C3A540460123E
:1048830074021212DCE0D2E6124C3A54087003753B
:104893000803E05410600674404508F508E0540826
:1048A300602274021212DCE044C0124C3A542060BD
:1048B3000A74031212DCE0D2E0800874031212DCE3
:1048C300E0D2E1F0EE2415125815124BA0700374D8
:1048D3000169700674084508F5088E828F83A3A3C7
:1048E300A3A3A3A3A3A3E070161223BD85218285EE
:1048F300228312620774021212DCE0D2E280306477
:104903000F701074021212DC124C4274044508F545
:1049130008807F8E828F83A3A3A3A3A3A3A3A3E073
:1049230064028E828F83700A126ED7E8F0A3E9F0D7
:104933008060A3A3A3A3A3A3A3A3E06403700DAC0C
:1049430021AD22EEFAEFFB12217180468E828F8316
:10495300A3A3A3A3A3A3A3A3E064017035901604A8
:10496300E0601074021212DC124C42750910750AD1
:10497300FF801874021212DCE0440C124C3274FDF6
:10498300F0A374FFF074044508F5088E828F831238
:104993003187EE2415125815A2E0503F740212120B
:1049A300DCE0540C701B8E828F83124DC0121DDB12
:1049B300E9700579BB024B7074021212DCE0D2E598
:1049C300F0EE2415125815A2E0501074021212DCF6
:1049D300E0540C64047004E0D2E5F0EE24111258A4
:1049E30015C0E074041212DCD0E01267121212DC5C
:1049F300E06003024B6974081212DC124BFBE508FA
:104A0300F0A3E509F0124B96E0C0E0124B8CD0E026
:104A1300F0124B7DE0C0E074081212DC124BB812A6
:104A2300453D38F583D0E0124C6164017011901656
:104A330004E0C0E074081212DC124BD6D0E0F0742C
:104A4300081212DC124BF6124B87FAE8241CF5828B
:104A5300E439F583EA124C2DEE2415FAE43FFB8A80
:104A630082F5831276FEE8125B5139F583124C27E7
:104A7300EE241C125815C0E0124B73D0E0125C9761
:104A8300124BA07003740169701374081212DC12C4
:104A930054E2FAEE241D125815F91220458E828F26
:104AA30083A3A3A3A3A3A3A3A3A3E0C0E0740812B7
:104AB30012DC1246B9D0E0F074081212DC1246AFD1
:104AC300E50AF074081212DC1253752428F582E407
:104AD30039F583E50CF0A3E50D124C0D124BE012F2
:104AE300588E1261FAEE124B87C0E0E82433F58248
:104AF300E439F583D0E0F0EE241B125815C0E074BE
:104B0300081212DC124BBCD0E0F0EE241A12581536
:104B1300C0E074081212DC124BB82432F582E43878
:104B2300F583D0E0124C05124BAC120FBC12691086
:104B33001276FE740B1212DC124BB8242F127BDA9E
:104B4300120FEEEE24151258155440601290159072
:104B53001253D2600AAA21AB22125FF1120BFAAAF6
:104B630021AB221221E3740C1212DCE0F9024EA7EE
:104B7300E82420F582E439F58322EE2419F582E452
:104B83003FF5832212691FE022E82412F582E439FB
:104B9300F58322EE2418F582E43FF583225480F84E
:104BA300A3E05401F974806822F508A3E0F50975C0
:104BB3000A00780822124BCC22124BCC2434F58203
:104BC300E438F58322A3A3A3A3124BD022E0F8A3D6
:104BD300E0C822124BCC12450C38F58322FAA3E02D
:104BE300FBE8242AF582E439F583EAF0A3EB22A358
:104BF300A3A3A312410AEE2212537912535939F592
:104C03008322F0EE241312589622F0EE240D12584C
:104C13009622E0FC8A828B83E02CFCA3E03400FD27
:104C23008A828B83ECF0A3EDF022F0A3E4F022F070
:104C330085218285228322F0EE241512589622E0E4
:104C4300D2E3F0124C4A228E828F8312410E8521C9
:104C530082852283E8F0A3E9F022E8F0A3E9126356
:104C63004DE02274F7120A128A828B83A3E0640157
:104C730070047E6380027E648A828B83E06008799D
:104C830005124C9A24F3FE9015ACE06007F9124C20
:104C93009A24F2FE02478712228BE9F8EEC3982288
:104CA30074F6120A1274FE12108285218285228301
:104CB300126207E9FEECFAEDFB9005C21253D260D3
:104CC30032A821A922880889097808120FC07D011A
:104CD300740E1212DCE0FCEEF99005C21261DB12D5
:104CE3000BFA7402120FEEEA4B6004790080067926
:104CF300B2800279B60240FA74F7120A12E9FE9002
:104D030015661253D2601F74091212DCE0F508789D
:104D130008120FC4EEF99015661261DB120BFA74D8
:104D230001120FEE800279B60247AB74F7120A1232
:104D33008908ECFEEDFF79B5E508245E6020146078
:104D43000624F86034803D9005C4124D8A60351204
:104D53006F1B120BFA8E828F8312620780249015C9
:104D6300681276FEEC4D601CEEFCEFFD90156812A8
:104D730061DB120BFAE9F9800B901564124D901266
:104D83001A3979000247AB124DC4EA4B221277025B
:104D9300EEFAEFFB2274F7120A12E9FE79B574AB4F
:104DA3006E700B901564124DC0121A3979000247C8
:104DB300AB8E828F83A3A3A3A3A3A3A3A3124DC4E8
:104DC30022124DC822E0FAA3E0FB2274F1120A1268
:104DD300EAFEEBFF8C0A8D0B7508019015B4E06EAB
:104DE3007003A3E06F700C124E9BAA0AAB0B121A4E
:104DF30039805E1223C3EE6A7002EF6B7009AA0A50
:104E0300AB0B1223C9804AAC0AAD0BEEFAEFFB12CF
:104E13001F19E9F5089017AEE07036122861E970A2
:104E230030E508702C901584E06E7003A3E06F707A
:104E330020EE4F601C750C7C750D15750E00780CFB
:104E4300120FBC7C087D00AA0AAB0B126EC7120FAF
:104E5300EEA9080277FA74F2120A12EAFEEBFF8C4B
:104E6300088D09750A01124E9BEEFAEFFB121A33F5
:104E7300E9640170119015B4124106850882850911
:104E830083126EA0800EAC08AD09EEFAEFFB121F81
:104E93001FE9F50AA90A80111223B78A0C8B0DACFE
:104EA3000CAD0D22740D120FEE7F06020D3474F655
:104EB300120A12EAFEEBFF7A0D7B00121937EA4B56
:104EC3006062EE2424126BA4F0EE2425126BA4A3DB
:104ED300124F69126BAAA3A312693D124F44F0EE5D
:104EE300124F2A124F59E8F0A3E9124F80124F5183
:104EF300126EA0EE124F33126A00A3A3A3A3F0EE27
:104F03002433125815C0E0124F3CD0E012672F1221
:104F13004F51A3A3A3E8F0A3E9124F78C0E01254C2
:104F2300F2D0E0F00240FF242AF582E43FF5832229
:104F3300242EF582E43FF58322EA12596B3BF58375
:104F430022124F4822E08A828B83A3A3A322126AF0
:104F53005FA3A3A3A322124F5D2212410E8A828B69
:104F630083A3A3A3A322F0124F6E22EE2426F5827D
:104F7300E43FF58322F0EE243212589622F0EE2419
:104F83002C1258962274F4120A1274FE121082EC38
:104F9300FEEDFFEC241612581564057010EC240680
:104FA300FCE43FFD12216BE97003025034AC21ADE8
:104FB30022126C59121DE18521828522831253D25C
:104FC300606B8E828F83E064017058E875F009A4EA
:104FD300F8AAF075F009E9A42AF974DD28F8740237
:104FE30039F9E8FAE9FB8882F5837808121267EE4B
:104FF3001250D61212194027852182852283124B23
:10500300F61258231250397808121267908667787F
:10501300081211508A828B837808121276800A79DB
:10502300A28010EE240F126E9A7900800679A18077
:105033000279C8023272124C57EE12692B2274F2B3
:10504300120A128A0C8B0DECFEEDFFEC125823E4CE
:10505300F0A3F09086337808121267EC1250D61240
:1050630010986067EC240E12581C703478B39015B6
:10507300ABE070289015DDE064017020EC24111280
:105083005815F91222738B09A909EE1253553F12D1
:105093006205EA4960047800800278A18808802EBE
:1050A300E060046402700A12217DE9F5087007804C
:1050B3001DE064037010EEFCEFFDAA0CAB0D121E95
:1050C30005E9F50880087508A180037508A3A908F8
:1050D300024EAC12692B78082274F0120A1274F58E
:1050E300121082EAFEEBFFEA240AFCE43F8C82F50D
:1050F30083127B9B12535F740312104C8A828B833F
:10510300125FFBE970030251C5740112104C740362
:10511300121044121DE174011212DC1253D27003F7
:105123000251C5E875F009A4F8AAF075F009E9A4DD
:105133002AF974D928FC740239FDE508240E126497
:105143004CE4F0041212DC124106E5081253553503
:1051530009126E9E8C828D831212C5E508241212E9
:10516300644C1212A190866778081212678C828DA4
:105173008378081211AF8C828D83780C121267909A
:1051830086D77808121267780C79081209A3E50804
:105193004509450A450B702A74011212DC12537536
:1051A30075F009A4F8AAF075F009E9A42AF974E1E5
:1051B30028F582740239F5837401F07A007B0812B2
:1051C30053828E828F83A3A3A3A3A3A3A3A3A3A387
:1051D300E02406FCA3E03400FD8E828F83125FFB84
:1051E30012671D603EEE240A125347124BFB74688C
:1051F300124C2DE812534139F5837402F090159641
:105203001212C58C828D831261F4125DE63CF58324
:105213001212A19086677808121267901596780883
:105223001211AF1253BD705D90156412536DA3A399
:10523300A3A3A3A3A3A3A3A3125E1C121A33E9700F
:1052430010125DDA901564125DEC700512671D6033
:10525300348E828F83A3A3A3A3A3A3A3A3A3A31285
:10526300536D124DC0121E0BE960118E828F83A302
:10527300A3A3A3A3A31253A9E4F0A3F08E828F8365
:1052830012538FE4F01253BD600302533C8E828F9E
:1052930083A3A3A3A3A3A3127B979015ABE06003FF
:1052A3000253319015DDE064016003025331750A46
:1052B3003A750B00780A120FC0740212103C880A68
:1052C300890B780A120FC0127196120FEEE9705B08
:1052D300E508240E12644C74011253D7C0E0E508AC
:1052E300241112644CD0E0F0E508240F12644C74CE
:1052F3003A124C2D9015921212C5E508241212642D
:105303004C1212A190866778081212679015927852
:10531300081211AF90866778081212679015927879
:1053230008121098700812537E800312535F1253B1
:10533300BD7006125CDD74A1F0740B026ACF240EFB
:10534300F582E422F8E43FF9E8FCE9FD8882F5837D
:1053530022EA12535922240FF582E422E50812535C
:10536300593509F583E4F0A3F0221277028E828F78
:1053730083221253792212410EE8227A007B029093
:10538300143DE0F91218E3228A828B83A3A3A3A31B
:10539300A3A3A3A3A3A312539D22124BD0240EF5C0
:1053A30082E438F58322A3A3A3A31253B122124BA1
:1053B300D0240FF582E438F583228E828F83A3A352
:1053C300A3A3A3A3124BC8240FF582E438F58312D9
:1053D300537949221253DB22F0852182852283E00F
:1053E3002274F6120A12EAFEEBFF7A237B001219EB
:1053F30037EE240AF508E43FF509850882126205B1
:105403007C237D00790012188F8508828509831219
:1054130053D270030254A5EEFAEFFB122189125303
:10542300BD60748E828F831254D864018E828F8301
:10543300A3A3A3A3A3A370071254CE740E802112B7
:1054430053D2701012671D700B8E828F83A3A3E05B
:10545300A2E050071254C4740D80051254C474059D
:1054630012672F5403640170071254AC7405800B48
:105473009015ACE0C0E01254ACD0E01254E7F583D1
:105483008882125842850882850983124BB81261BB
:105493009938F583E9800E85088285098312627E37
:1054A30080031261C1F00240FF8E828F83A3A3A306
:1054B300A3A3A3A3A3A3A31254BE22E01261E0A358
:1054C300228E828F83A3A3A3A3A3A3124BC812612B
:1054D3009F38F58322A3A3A3A3A3A3A3A3A3A312E8
:1054E300539DE0221254EB22126C6EF8A3E022EAE1
:1054F3001254FA3BF58322240CF582E42274F11250
:105503000A1274E41210828A0C8B0D8C088D097AAE
:10551300237B001219378A0A8B0BAE0AAF0BEA4FB3
:1055230070030257FD1261A5E508241512582E6871
:105533007003A3E0698E828F837004740280027407
:1055430001F0E508240DF8E43509F98882F583E0D4
:10555300FAC3E49AFA95E0FB12582A2AFAA3E03B2D
:10556300FB8E828F83A3A3A3A3125E038E828F83FA
:10557300A3A3F0EE2420F582E43FF583E4F0EE24C8
:1055830021F582E43FF583E4F0EEFAEFFB12223DCE
:1055930085088285098312584970098E828F83A3F7
:1055A300740580069015AC125837F0EE2417F50AEF
:1055B300E43FF50B8E828F83125842E9850A828578
:1055C3000B83F0EE2416F8E43FF9E508240EFAE421
:1055D3003509FB88828983124C15E5082410FAE407
:1055E3003509FB850A82850B83E0FC88828983E089
:1055F300F88A828B83E0C398C39CF8125883F0EE39
:10560300FCEFFDAA0CAB0D122183E9F50B8E828F03
:1056130083E064027006125DDA125807E50B60033B
:105623000257F4750C00750D009017AEE06401602D
:1056330005E06402703F1258196008EE24211258E5
:105643001C70328E828F83A3A3A31261C712584F9B
:10565300EE2416125815125878FAE439FB123F0754
:10566300EA4B6011126A29120FBC12585DAA0C1280
:105673006EC7120FEEEEFAEFFB122249E9F50B901B
:1056830017AEE064016008E0640260030257E7E9D3
:1056930070030257E7E50C450D70030257F48003CE
:1056A300850E0B125819600BEE242112581C60034F
:1056B3000257ED850B0E850C08850D09750A0078D8
:1056C30008120FBC12585D8E828F83A3A3A3A3126B
:1056D3007BE0120FEEEE2420125815600D125822B3
:1056E3007468124C2DEE24208015EE2421125815D7
:1056F30060151258227403F0A37401F0EE2421F50F
:1057030082E43FF583E4F0EEFAEFFB122249E9F578
:105713000B70907C137D00790074091210441218E9
:105723008F741A1212DC740112588E64687002A30B
:10573300E0704F8E828F831253A9E06405600302E9
:1057430056A37C0879FF8E828F83A3A3A3A3E024AF
:105753002A125E1F121919E970030256A37C087DF1
:105763000079FF740112104412188F740112104C47
:105773007A007B0079AB12216574191212DC74FC78
:105783008015125822E064037004A3E064017008DA
:1057930074191212DC74FFF0E4F508F509780812A5
:1057A3000FC0740212104C74131212DCAA82AB8362
:1057B300126304120FEE852182852283E0602B742D
:1057C3000912103C880889097808120FC07508135C
:1057D3007509007808120FC07C007D00126B7712E8
:1057E3000FEE8006E50C450D6007AA0CAB0D1219F0
:1057F3003DEEFAEFFB12193D8003750B10A90B74F4
:105803001C0277F7EE2406FAE43FFB121A3922EE64
:10581300240C12589622EE2420125896640122EE8C
:105823001253593FF58322E508240EF582E4350926
:10583300F583E02212583CA322E08E828F8322A3B9
:10584300E0F912228B22E0540364012212585322FE
:10585300E0FAE82AF8E43400F9228E828F83A3A3C6
:10586300A31261CB125853EE24161258961258788D
:10587300FCE439FD22FAE82AF8E439F9E8240422A1
:105883001258872212673EA3A3A322F01258932231
:10589300EE240FF582E43FF583E0227901020F83C2
:1058A30074F4120A12EAFEEBFF8A82F583A3A3A320
:1058B300A3A3A3A3A3124BB82424F582E438F5834E
:1058C300125849702E8A828B831254D8702512592C
:1058D30071E06405701D125971A3E0F874016860EA
:1058E30005740668700712538B7402800512538B7C
:1058F3007403F0EA240A1262721261DBE4F0EA2410
:1059030008F8E43F1232612431F582E43AF583E08A
:10591300C0E0126F12A3A3D0E0125990CA242EF54F
:1059230082E43AF583E0C0E0126F12A3A3A3D0E0B0
:10593300125EB6C812596B38124104126F12125913
:10594300858A0A8B0BAC0AAD0B8508828509831205
:105953005E1C121A39850882850983124DC01222F2
:105963004912626DF0023277240BF582E4228A82B7
:105973008B83A3A3A3A3A3A3A3A3126704F5838881
:105983008222A3A3A3A3124C571223B722125DF8BA
:10599300FAA3E02202589EC082C083901586748FBA
:1059A300F0A37421F0901588749BF0A37421F090F8
:1059B300158A74A1F0A37421F090158C7495F0A34B
:1059C3007421F0025CA174F4120A12EA2408FEE4C2
:1059D3003BFF8E82F5831253751261B1E0F50874B3
:1059E300035508F509125E17F8A3E08882F583E5ED
:1059F30008F0A3A882A983E5096009740265096018
:105A030003025AB6740C5508FC600A74086C6005EE
:105A130074046C7026740265097006E508A2E440FC
:105A23001A8A828B83A3A3A3A3A3A3A3A3125BBCFE
:105A330012690A3D125B57A308A983740C6C701C8E
:105A4300125BB82428125BA42428F582E43DF58375
:105A5300A3126538F0E82402F850010974026509BD
:105A63007006E508A2E4404B125BB8242A125BA43B
:105A7300242AF582E43DF583A3125B66125BC2120E
:105A83006538125BC2A3125B5EE82404F850010977
:105A9300EC600F74086C600A740C6C600574046C21
:105AA30070111261E82426F582E43C125B57A3A827
:105AB30082A9838A828B83A3A3A3A3A3A3A3A312F1
:105AC3005B8654037014E508A2E1400E1261E812EC
:105AD3005B513CF583E054806008125B6C125B59A8
:105AE300801990155AE0C0E0125B6CD0E0125B990C
:105AF30088828983125B9904125DFDA3A882A9831E
:105B0300E508A2E750458E828F83125B86888289DF
:105B130083125B9F125B8B540360301261E8243461
:105B2300F582E43C126536F0E508A2E1501D8A8255
:105B33008B83A3A3A3A3A3A3A3A31232662435F544
